{"abi":[{"type":"constructor","inputs":[{"name":"_bananaNFT","type":"address","internalType":"address"},{"name":"_bananaToken","type":"address","internalType":"address"}],"stateMutability":"nonpayable"},{"type":"function","name":"bananaNFT","inputs":[],"outputs":[{"name":"","type":"address","internalType":"contract IERC721"}],"stateMutability":"view"},{"type":"function","name":"bananaToken","inputs":[],"outputs":[{"name":"","type":"address","internalType":"contract IERC20"}],"stateMutability":"view"},{"type":"function","name":"batchClaimRewards","inputs":[{"name":"tokenIds","type":"uint256[]","internalType":"uint256[]"}],"outputs":[],"stateMutability":"nonpayable"},{"type":"function","name":"batchStake","inputs":[{"name":"tokenIds","type":"uint256[]","internalType":"uint256[]"},{"name":"levels","type":"uint256[]","internalType":"uint256[]"}],"outputs":[],"stateMutability":"nonpayable"},{"type":"function","name":"batchUnstake","inputs":[{"name":"tokenIds","type":"uint256[]","internalType":"uint256[]"}],"outputs":[],"stateMutability":"nonpayable"},{"type":"function","name":"claimRewards","inputs":[{"name":"tokenId","type":"uint256","internalType":"uint256"}],"outputs":[],"stateMutability":"nonpayable"},{"type":"function","name":"commonRate","inputs":[],"outputs":[{"name":"","type":"uint256","internalType":"uint256"}],"stateMutability":"view"},{"type":"function","name":"genesisRate","inputs":[],"outputs":[{"name":"","type":"uint256","internalType":"uint256"}],"stateMutability":"view"},{"type":"function","name":"legendRate","inputs":[],"outputs":[{"name":"","type":"uint256","internalType":"uint256"}],"stateMutability":"view"},{"type":"function","name":"onERC721Received","inputs":[{"name":"","type":"address","internalType":"address"},{"name":"","type":"address","internalType":"address"},{"name":"","type":"uint256","internalType":"uint256"},{"name":"","type":"bytes","internalType":"bytes"}],"outputs":[{"name":"","type":"bytes4","internalType":"bytes4"}],"stateMutability":"pure"},{"type":"function","name":"owner","inputs":[],"outputs":[{"name":"","type":"address","internalType":"address"}],"stateMutability":"view"},{"type":"function","name":"rareRate","inputs":[],"outputs":[{"name":"","type":"uint256","internalType":"uint256"}],"stateMutability":"view"},{"type":"function","name":"renounceOwnership","inputs":[],"outputs":[],"stateMutability":"nonpayable"},{"type":"function","name":"setCommonRate","inputs":[{"name":"_commonRate","type":"uint256","internalType":"uint256"}],"outputs":[],"stateMutability":"nonpayable"},{"type":"function","name":"setGenesisRate","inputs":[{"name":"_genesisRate","type":"uint256","internalType":"uint256"}],"outputs":[],"stateMutability":"nonpayable"},{"type":"function","name":"setLegendRate","inputs":[{"name":"_legendRate","type":"uint256","internalType":"uint256"}],"outputs":[],"stateMutability":"nonpayable"},{"type":"function","name":"setRareRate","inputs":[{"name":"_rareRate","type":"uint256","internalType":"uint256"}],"outputs":[],"stateMutability":"nonpayable"},{"type":"function","name":"snapshot","inputs":[{"name":"","type":"address","internalType":"address"},{"name":"","type":"uint256","internalType":"uint256"}],"outputs":[{"name":"","type":"uint256","internalType":"uint256"}],"stateMutability":"view"},{"type":"function","name":"stake","inputs":[{"name":"tokenId","type":"uint256","internalType":"uint256"},{"name":"t","type":"uint256","internalType":"uint256"}],"outputs":[],"stateMutability":"nonpayable"},{"type":"function","name":"staked","inputs":[{"name":"","type":"address","internalType":"address"},{"name":"","type":"uint256","internalType":"uint256"}],"outputs":[{"name":"","type":"bool","internalType":"bool"}],"stateMutability":"view"},{"type":"function","name":"tokenRate","inputs":[{"name":"","type":"uint256","internalType":"uint256"}],"outputs":[{"name":"","type":"uint256","internalType":"uint256"}],"stateMutability":"view"},{"type":"function","name":"totalStaked","inputs":[],"outputs":[{"name":"","type":"uint256","internalType":"uint256"}],"stateMutability":"view"},{"type":"function","name":"transferOwnership","inputs":[{"name":"newOwner","type":"address","internalType":"address"}],"outputs":[],"stateMutability":"nonpayable"},{"type":"function","name":"unstake","inputs":[{"name":"tokenId","type":"uint256","internalType":"uint256"}],"outputs":[],"stateMutability":"nonpayable"},{"type":"event","name":"OwnershipTransferred","inputs":[{"name":"previousOwner","type":"address","indexed":true,"internalType":"address"},{"name":"newOwner","type":"address","indexed":true,"internalType":"address"}],"anonymous":false},{"type":"event","name":"RewardsClaimed","inputs":[{"name":"staker","type":"address","indexed":false,"internalType":"address"},{"name":"rewards","type":"uint256","indexed":false,"internalType":"uint256"},{"name":"timestamp","type":"uint256","indexed":false,"internalType":"uint256"}],"anonymous":false},{"type":"event","name":"Staked","inputs":[{"name":"staker","type":"address","indexed":false,"internalType":"address"},{"name":"tokenId","type":"uint256","indexed":false,"internalType":"uint256"},{"name":"staked","type":"bool","indexed":false,"internalType":"bool"}],"anonymous":false},{"type":"event","name":"Unstaked","inputs":[{"name":"staker","type":"address","indexed":false,"internalType":"address"},{"name":"tokenId","type":"uint256","indexed":false,"internalType":"uint256"},{"name":"staked","type":"bool","indexed":false,"internalType":"bool"}],"anonymous":false},{"type":"error","name":"OwnableInvalidOwner","inputs":[{"name":"owner","type":"address","internalType":"address"}]},{"type":"error","name":"OwnableUnauthorizedAccount","inputs":[{"name":"account","type":"address","internalType":"address"}]},{"type":"error","name":"ReentrancyGuardReentrantCall","inputs":[]}],"bytecode":{"object":"0x608060405234801561001057600080fd5b506040516112d23803806112d283398101604081905261002f91610100565b338061005557604051631e4fbdf760e01b81526000600482015260240160405180910390fd5b61005e81610094565b5060018055600780546001600160a01b039384166001600160a01b03199182161790915560088054929093169116179055610133565b600080546001600160a01b038381166001600160a01b0319831681178455604051919092169283917f8be0079c531659141344cd1fd0a4f28419497f9722a3daafe3b4186f6b6457e09190a35050565b80516001600160a01b03811681146100fb57600080fd5b919050565b6000806040838503121561011357600080fd5b61011c836100e4565b915061012a602084016100e4565b90509250929050565b611190806101426000396000f3fe608060405234801561001057600080fd5b50600436106101585760003560e01c80638ca576c8116100c3578063b9c380a81161007c578063b9c380a814610320578063d2acd13d14610333578063d49fab8a14610346578063ea7de8e814610359578063f2fde38b1461036c578063fbd065a61461037f57600080fd5b80638ca576c8146102775780638da5cb5b146102a25780638f169816146102b357806394a3f89a146102f1578063aae9fe10146102fa578063acf779311461030d57600080fd5b80633aaf59e4116101155780633aaf59e4146101f55780634b2e654c146102205780636517367814610240578063715018a6146102535780637b0472f01461025b578063817b1cd21461026e57600080fd5b80630962ef791461015d5780630f52e6b614610172578063150b7a021461018e5780631f7495e4146101c657806329183872146101cf5780632e17de78146101e2575b600080fd5b61017061016b366004610dc5565b610388565b005b61017b60035481565b6040519081526020015b60405180910390f35b6101ad61019c366004610df3565b630a85bd0160e11b95945050505050565b6040516001600160e01b03199091168152602001610185565b61017b60065481565b6101706101dd366004610f49565b610453565b6101706101f0366004610dc5565b6104fe565b61017b610203366004610f86565b600960209081526000928352604080842090915290825290205481565b61017b61022e366004610dc5565b600b6020526000908152604090205481565b61017061024e366004610dc5565b610524565b610170610531565b610170610269366004610fb2565b610545565b61017b60025481565b60085461028a906001600160a01b031681565b6040516001600160a01b039091168152602001610185565b6000546001600160a01b031661028a565b6102e16102c1366004610f86565b600a60209081526000928352604080842090915290825290205460ff1681565b6040519015158152602001610185565b61017b60055481565b610170610308366004610dc5565b610564565b60075461028a906001600160a01b031681565b61017061032e366004610dc5565b610571565b610170610341366004610f49565b61057e565b610170610354366004610fd4565b6105fa565b610170610367366004610dc5565b6106b2565b61017061037a36600461103d565b6106bf565b61017b60045481565b6000610393826106fa565b60085460405163a9059cbb60e01b8152336004820152602481018390529192506001600160a01b03169063a9059cbb906044015b6020604051808303816000875af11580156103e6573d6000803e3d6000fd5b505050506040513d601f19601f8201168201806040525081019061040a919061105a565b50604080513381526020810183905242918101919091527fdacbdde355ba930696a362ea6738feb9f8bd52dfb3d81947558fd3217e23e325906060015b60405180910390a15050565b60008151116104835760405162461bcd60e51b815260206004820152600060248201526044015b60405180910390fd5b6000805b82518110156104c6576104b28382815181106104a5576104a561107c565b60200260200101516106fa565b6104bc90836110a8565b9150600101610487565b5060085460405163a9059cbb60e01b8152336004820152602481018390526001600160a01b039091169063a9059cbb906044016103c7565b6105066107ff565b61050f81610388565b61051881610829565b61052160018055565b50565b61052c610a5e565b600555565b610539610a5e565b6105436000610a8b565b565b61054d6107ff565b6105578282610adb565b61056060018055565b5050565b61056c610a5e565b600355565b610579610a5e565b600455565b6105866107ff565b60008151116105b15760405162461bcd60e51b8152602060048201526000602482015260440161047a565b6105ba81610453565b60005b81518110156105f0576105e88282815181106105db576105db61107c565b6020026020010151610829565b6001016105bd565b5061052160018055565b6106026107ff565b600082511161062d5760405162461bcd60e51b8152602060048201526000602482015260440161047a565b81518151146106585760405162461bcd60e51b8152602060048201526000602482015260440161047a565b60005b82518110156106a8576106a08382815181106106795761067961107c565b60200260200101518383815181106106935761069361107c565b6020026020010151610adb565b60010161065b565b5061056060018055565b6106ba610a5e565b600655565b6106c7610a5e565b6001600160a01b0381166106f157604051631e4fbdf760e01b81526000600482015260240161047a565b61052181610a8b565b336000908152600a6020908152604080832084845290915281205460ff1661073e5760405162461bcd60e51b8152602060048201526000602482015260440161047a565b33600090815260096020908152604080832085845290915281205490036107815760405162461bcd60e51b8152602060048201526000602482015260440161047a565b3360009081526009602090815260408083208584529091528120546107a690426110c1565b3360009081526009602090815260408083208784528252808320429055600b909152902054909150610e10906107dc90836110d4565b6107ee90670de0b6b3a76400006110d4565b6107f891906110eb565b9392505050565b60026001540361082257604051633ee5aeb560e01b815260040160405180910390fd5b6002600155565b6007546040516331a9108f60e11b81526004810183905230916001600160a01b031690636352211e90602401602060405180830381865afa158015610872573d6000803e3d6000fd5b505050506040513d601f19601f82011682018060405250810190610896919061110d565b6001600160a01b0316146108de5760405162461bcd60e51b815260206004820152600f60248201526e125b9d985b1a59081d1bdad95b9259608a1b604482015260640161047a565b336000908152600a6020908152604080832084845290915290205460ff166109225760405162461bcd60e51b8152602060048201526000602482015260440161047a565b33600090815260096020908152604080832084845290915281205490036109655760405162461bcd60e51b8152602060048201526000602482015260440161047a565b336000818152600a602090815260408083208584528252808320805460ff19169055928252600981528282208483529052908120819055600280549091906109ac9061112a565b90915550600754604051632142170760e11b8152306004820152336024820152604481018390526001600160a01b03909116906342842e0e90606401600060405180830381600087803b158015610a0257600080fd5b505af1158015610a16573d6000803e3d6000fd5b5050604080513381526020810185905260008183015290517f4416ca74b4c9dd8d6070d91c267a6cf53734c0f343ced0ad02471ccb5417037e9350908190036060019150a150565b6000546001600160a01b031633146105435760405163118cdaa760e01b815233600482015260240161047a565b600080546001600160a01b038381166001600160a01b0319831681178455604051919092169283917f8be0079c531659141344cd1fd0a4f28419497f9722a3daafe3b4186f6b6457e09190a35050565b6007546040516331a9108f60e11b81526004810184905233916001600160a01b031690636352211e90602401602060405180830381865afa158015610b24573d6000803e3d6000fd5b505050506040513d601f19601f82011682018060405250810190610b48919061110d565b6001600160a01b031614610b8a5760405162461bcd60e51b81526020600482015260096024820152682737ba1037bbb732b960b91b604482015260640161047a565b336000908152600a6020908152604080832085845290915290205460ff1615610bcf5760405162461bcd60e51b8152602060048201526000602482015260440161047a565b33600090815260096020908152604080832085845290915290205415610c115760405162461bcd60e51b8152602060048201526000602482015260440161047a565b610c1b8282610d15565b600754604051632142170760e11b8152336004820152306024820152604481018490526001600160a01b03909116906342842e0e90606401600060405180830381600087803b158015610c6d57600080fd5b505af1158015610c81573d6000803e3d6000fd5b5050336000818152600a602090815260408083208884528252808320805460ff1916600117905592825260098152828220878352905290812042905560028054909350909150610cd090611141565b9091555060408051338152602081018490526001918101919091527f37d4053e34fde482e96f6bcd424dfa31342cbd5fe184d497fb3c8bb4b4b9758090606001610447565b80600003610d33576003546000838152600b60205260409020555050565b80600103610d51576004546000838152600b60205260409020555050565b80600203610d6f576005546000838152600b60205260409020555050565b80600303610d8d576006546000838152600b60205260409020555050565b60405162461bcd60e51b815260206004820152600d60248201526c125b9d985b1a59081b195d995b609a1b604482015260640161047a565b600060208284031215610dd757600080fd5b5035919050565b6001600160a01b038116811461052157600080fd5b600080600080600060808688031215610e0b57600080fd5b8535610e1681610dde565b94506020860135610e2681610dde565b935060408601359250606086013567ffffffffffffffff811115610e4957600080fd5b8601601f81018813610e5a57600080fd5b803567ffffffffffffffff811115610e7157600080fd5b886020828401011115610e8357600080fd5b959894975092955050506020019190565b634e487b7160e01b600052604160045260246000fd5b600082601f830112610ebb57600080fd5b813567ffffffffffffffff811115610ed557610ed5610e94565b8060051b604051601f19603f830116810181811067ffffffffffffffff82111715610f0257610f02610e94565b604052918252602081850181019290810186841115610f2057600080fd5b6020860192505b83831015610f3f578235815260209283019201610f27565b5095945050505050565b600060208284031215610f5b57600080fd5b813567ffffffffffffffff811115610f7257600080fd5b610f7e84828501610eaa565b949350505050565b60008060408385031215610f9957600080fd5b8235610fa481610dde565b946020939093013593505050565b60008060408385031215610fc557600080fd5b50508035926020909101359150565b60008060408385031215610fe757600080fd5b823567ffffffffffffffff811115610ffe57600080fd5b61100a85828601610eaa565b925050602083013567ffffffffffffffff81111561102757600080fd5b61103385828601610eaa565b9150509250929050565b60006020828403121561104f57600080fd5b81356107f881610dde565b60006020828403121561106c57600080fd5b815180151581146107f857600080fd5b634e487b7160e01b600052603260045260246000fd5b634e487b7160e01b600052601160045260246000fd5b808201808211156110bb576110bb611092565b92915050565b818103818111156110bb576110bb611092565b80820281158282048414176110bb576110bb611092565b60008261110857634e487b7160e01b600052601260045260246000fd5b500490565b60006020828403121561111f57600080fd5b81516107f881610dde565b60008161113957611139611092565b506000190190565b60006001820161115357611153611092565b506001019056fea2646970667358221220c32bed93a959b5e05a622153833e5cfc42750892a63b254b9d4745acf7e4b5b264736f6c634300081a0033","linkReferences":{}},"methodIdentifiers":{"bananaNFT()":"acf77931","bananaToken()":"8ca576c8","batchClaimRewards(uint256[])":"29183872","batchStake(uint256[],uint256[])":"d49fab8a","batchUnstake(uint256[])":"d2acd13d","claimRewards(uint256)":"0962ef79","commonRate()":"1f7495e4","genesisRate()":"0f52e6b6","legendRate()":"fbd065a6","onERC721Received(address,address,uint256,bytes)":"150b7a02","owner()":"8da5cb5b","rareRate()":"94a3f89a","renounceOwnership()":"715018a6","setCommonRate(uint256)":"ea7de8e8","setGenesisRate(uint256)":"aae9fe10","setLegendRate(uint256)":"b9c380a8","setRareRate(uint256)":"65173678","snapshot(address,uint256)":"3aaf59e4","stake(uint256,uint256)":"7b0472f0","staked(address,uint256)":"8f169816","tokenRate(uint256)":"4b2e654c","totalStaked()":"817b1cd2","transferOwnership(address)":"f2fde38b","unstake(uint256)":"2e17de78"},"id":0}