{"abi":[{"type":"constructor","inputs":[{"name":"_bananaToken","type":"address","internalType":"address"},{"name":"_uniswapV2Pair","type":"address","internalType":"address"}],"stateMutability":"nonpayable"},{"type":"function","name":"bananaToken","inputs":[],"outputs":[{"name":"","type":"address","internalType":"address"}],"stateMutability":"view"},{"type":"function","name":"getBananaTokenPriceInETH","inputs":[],"outputs":[{"name":"","type":"uint256","internalType":"uint256"}],"stateMutability":"view"},{"type":"function","name":"uniswapV2Pair","inputs":[],"outputs":[{"name":"","type":"address","internalType":"contract IUniswapV2Pair"}],"stateMutability":"view"}],"bytecode":{"object":"0x60c0604052348015600f57600080fd5b50604051610596380380610596833981016040819052602c91605d565b6001600160a01b039182166080521660a052608b565b80516001600160a01b0381168114605857600080fd5b919050565b60008060408385031215606f57600080fd5b6076836042565b91506082602084016042565b90509250929050565b60805160a0516104c66100d060003960008181604b0152818160ce0152818161015701526101dd01526000818160a50152818161026401526102b201526104c66000f3fe608060405234801561001057600080fd5b50600436106100415760003560e01c806349bd5a5e146100465780637b1aafb31461008a5780638ca576c8146100a0575b600080fd5b61006d7f000000000000000000000000000000000000000000000000000000000000000081565b6040516001600160a01b0390911681526020015b60405180910390f35b6100926100c7565b604051908152602001610081565b61006d7f000000000000000000000000000000000000000000000000000000000000000081565b60008060007f00000000000000000000000000000000000000000000000000000000000000006001600160a01b0316630902f1ac6040518163ffffffff1660e01b8152600401606060405180830381865afa15801561012a573d6000803e3d6000fd5b505050506040513d601f19601f8201168201806040525081019061014e91906103c3565b509150915060007f00000000000000000000000000000000000000000000000000000000000000006001600160a01b0316630dfe16816040518163ffffffff1660e01b8152600401602060405180830381865afa1580156101b3573d6000803e3d6000fd5b505050506040513d601f19601f820116820180604052508101906101d79190610413565b905060007f00000000000000000000000000000000000000000000000000000000000000006001600160a01b031663d21220a76040518163ffffffff1660e01b8152600401602060405180830381865afa158015610239573d6000803e3d6000fd5b505050506040513d601f19601f8201168201806040525081019061025d9190610413565b90506000807f00000000000000000000000000000000000000000000000000000000000000006001600160a01b0316846001600160a01b0316036102b05750506001600160701b0380851690841661033a565b7f00000000000000000000000000000000000000000000000000000000000000006001600160a01b0316836001600160a01b0316036102fe5750506001600160701b0380841690851661033a565b60405162461bcd60e51b815260206004820152600c60248201526b24b73b30b634b2103830b4b960a11b60448201526064015b60405180910390fd5b6000821161037c5760405162461bcd60e51b815260206004820152600f60248201526e496e76616c6964205265736572766560881b6044820152606401610331565b60008261039183670de0b6b3a7640000610443565b61039b919061046e565b98975050505050505050565b80516001600160701b03811681146103be57600080fd5b919050565b6000806000606084860312156103d857600080fd5b6103e1846103a7565b92506103ef602085016103a7565b9150604084015163ffffffff8116811461040857600080fd5b809150509250925092565b60006020828403121561042557600080fd5b81516001600160a01b038116811461043c57600080fd5b9392505050565b808202811582820484141761046857634e487b7160e01b600052601160045260246000fd5b92915050565b60008261048b57634e487b7160e01b600052601260045260246000fd5b50049056fea2646970667358221220a8fc60fa98f0013f8ffe436763e5116f50f46c679653ebbbb51de2f43ac4f5c364736f6c634300081a0033","linkReferences":{}},"methodIdentifiers":{"bananaToken()":"8ca576c8","getBananaTokenPriceInETH()":"7b1aafb3","uniswapV2Pair()":"49bd5a5e"},"id":0}