{"abi":[{"type":"constructor","inputs":[{"name":"_marketingWallet","type":"address","internalType":"address"}],"stateMutability":"nonpayable"},{"type":"receive","stateMutability":"payable"},{"type":"function","name":"DEAD","inputs":[],"outputs":[{"name":"","type":"address","internalType":"address"}],"stateMutability":"view"},{"type":"function","name":"UNISWAP_V2_ROUTER","inputs":[],"outputs":[{"name":"","type":"address","internalType":"address"}],"stateMutability":"view"},{"type":"function","name":"allowance","inputs":[{"name":"owner","type":"address","internalType":"address"},{"name":"spender","type":"address","internalType":"address"}],"outputs":[{"name":"","type":"uint256","internalType":"uint256"}],"stateMutability":"view"},{"type":"function","name":"approve","inputs":[{"name":"spender","type":"address","internalType":"address"},{"name":"value","type":"uint256","internalType":"uint256"}],"outputs":[{"name":"","type":"bool","internalType":"bool"}],"stateMutability":"nonpayable"},{"type":"function","name":"balanceOf","inputs":[{"name":"account","type":"address","internalType":"address"}],"outputs":[{"name":"","type":"uint256","internalType":"uint256"}],"stateMutability":"view"},{"type":"function","name":"decimals","inputs":[],"outputs":[{"name":"","type":"uint8","internalType":"uint8"}],"stateMutability":"view"},{"type":"function","name":"excludeFromFees","inputs":[{"name":"account","type":"address","internalType":"address"},{"name":"excluded","type":"bool","internalType":"bool"}],"outputs":[],"stateMutability":"nonpayable"},{"type":"function","name":"isExcludedFromFees","inputs":[{"name":"account","type":"address","internalType":"address"}],"outputs":[{"name":"","type":"bool","internalType":"bool"}],"stateMutability":"view"},{"type":"function","name":"name","inputs":[],"outputs":[{"name":"","type":"string","internalType":"string"}],"stateMutability":"view"},{"type":"function","name":"owner","inputs":[],"outputs":[{"name":"","type":"address","internalType":"address"}],"stateMutability":"view"},{"type":"function","name":"renounceOwnership","inputs":[],"outputs":[],"stateMutability":"nonpayable"},{"type":"function","name":"setTaxRate","inputs":[{"name":"_taxRate","type":"uint256","internalType":"uint256"}],"outputs":[],"stateMutability":"nonpayable"},{"type":"function","name":"symbol","inputs":[],"outputs":[{"name":"","type":"string","internalType":"string"}],"stateMutability":"view"},{"type":"function","name":"taxRate","inputs":[],"outputs":[{"name":"","type":"uint256","internalType":"uint256"}],"stateMutability":"view"},{"type":"function","name":"totalSupply","inputs":[],"outputs":[{"name":"","type":"uint256","internalType":"uint256"}],"stateMutability":"view"},{"type":"function","name":"transfer","inputs":[{"name":"to","type":"address","internalType":"address"},{"name":"value","type":"uint256","internalType":"uint256"}],"outputs":[{"name":"","type":"bool","internalType":"bool"}],"stateMutability":"nonpayable"},{"type":"function","name":"transferFrom","inputs":[{"name":"from","type":"address","internalType":"address"},{"name":"to","type":"address","internalType":"address"},{"name":"value","type":"uint256","internalType":"uint256"}],"outputs":[{"name":"","type":"bool","internalType":"bool"}],"stateMutability":"nonpayable"},{"type":"function","name":"transferOwnership","inputs":[{"name":"newOwner","type":"address","internalType":"address"}],"outputs":[],"stateMutability":"nonpayable"},{"type":"function","name":"uniswapV2Pair","inputs":[],"outputs":[{"name":"","type":"address","internalType":"address"}],"stateMutability":"view"},{"type":"function","name":"uniswapV2Router","inputs":[],"outputs":[{"name":"","type":"address","internalType":"contract IUniswapV2Router02"}],"stateMutability":"view"},{"type":"event","name":"Approval","inputs":[{"name":"owner","type":"address","indexed":true,"internalType":"address"},{"name":"spender","type":"address","indexed":true,"internalType":"address"},{"name":"value","type":"uint256","indexed":false,"internalType":"uint256"}],"anonymous":false},{"type":"event","name":"ExcludeFromFees","inputs":[{"name":"account","type":"address","indexed":true,"internalType":"address"},{"name":"isExcluded","type":"bool","indexed":false,"internalType":"bool"}],"anonymous":false},{"type":"event","name":"OwnershipTransferred","inputs":[{"name":"previousOwner","type":"address","indexed":true,"internalType":"address"},{"name":"newOwner","type":"address","indexed":true,"internalType":"address"}],"anonymous":false},{"type":"event","name":"Transfer","inputs":[{"name":"from","type":"address","indexed":true,"internalType":"address"},{"name":"to","type":"address","indexed":true,"internalType":"address"},{"name":"value","type":"uint256","indexed":false,"internalType":"uint256"}],"anonymous":false},{"type":"error","name":"ERC20InsufficientAllowance","inputs":[{"name":"spender","type":"address","internalType":"address"},{"name":"allowance","type":"uint256","internalType":"uint256"},{"name":"needed","type":"uint256","internalType":"uint256"}]},{"type":"error","name":"ERC20InsufficientBalance","inputs":[{"name":"sender","type":"address","internalType":"address"},{"name":"balance","type":"uint256","internalType":"uint256"},{"name":"needed","type":"uint256","internalType":"uint256"}]},{"type":"error","name":"ERC20InvalidApprover","inputs":[{"name":"approver","type":"address","internalType":"address"}]},{"type":"error","name":"ERC20InvalidReceiver","inputs":[{"name":"receiver","type":"address","internalType":"address"}]},{"type":"error","name":"ERC20InvalidSender","inputs":[{"name":"sender","type":"address","internalType":"address"}]},{"type":"error","name":"ERC20InvalidSpender","inputs":[{"name":"spender","type":"address","internalType":"address"}]},{"type":"error","name":"OwnableInvalidOwner","inputs":[{"name":"owner","type":"address","internalType":"address"}]},{"type":"error","name":"OwnableUnauthorizedAccount","inputs":[{"name":"account","type":"address","internalType":"address"}]}],"bytecode":{"object":"0x60c0604052600560065534801561001557600080fd5b50604051611910380380611910833981016040819052610034916105a8565b336040518060400160405280600b81526020016a2130b730b730aa37b5b2b760a91b8152506040518060400160405280600481526020016342414e4160e01b81525081600390816100859190610676565b5060046100928282610676565b5050506001600160a01b0381166100c457604051631e4fbdf760e01b8152600060048201526024015b60405180910390fd5b6100cd8161030a565b506001600160a01b03811660a05243600855739ac64cc6e4415144c455bd8e4837fea55603e5c360808190526040805163c45a015560e01b8152905163c45a0155916004808201926020929091908290030181865afa158015610134573d6000803e3d6000fd5b505050506040513d601f19601f8201168201806040525081019061015891906105a8565b6001600160a01b031663c9c65396306080516001600160a01b031663ad5c46486040518163ffffffff1660e01b8152600401602060405180830381865afa1580156101a7573d6000803e3d6000fd5b505050506040513d601f19601f820116820180604052508101906101cb91906105a8565b6040516001600160e01b031960e085901b1681526001600160a01b039283166004820152911660248201526044016020604051808303816000875af1158015610218573d6000803e3d6000fd5b505050506040513d601f19601f8201168201806040525081019061023c91906105a8565b600780546001600160a01b0319166001600160a01b039290921691909117905561026b3061dead60001961035c565b6001600960006102836005546001600160a01b031690565b6001600160a01b0316815260208082019290925260409081016000908120805494151560ff1995861617905560099092527f960b1051749987b45b5679007fff577a1c2f763ec21c15a6c5eb19307500378580548416600190811790915530835291208054909216179055610304336b43dacaf91c1a84ff0800000061036e565b5061075b565b600580546001600160a01b038381166001600160a01b0319831681179093556040519116919082907f8be0079c531659141344cd1fd0a4f28419497f9722a3daafe3b4186f6b6457e090600090a35050565b61036983838360016103a8565b505050565b6001600160a01b0382166103985760405163ec442f0560e01b8152600060048201526024016100bb565b6103a46000838361047e565b5050565b6001600160a01b0384166103d25760405163e602df0560e01b8152600060048201526024016100bb565b6001600160a01b0383166103fc57604051634a1406b160e11b8152600060048201526024016100bb565b6001600160a01b038085166000908152600160209081526040808320938716835292905220829055801561047857826001600160a01b0316846001600160a01b03167f8c5be1e5ebec7d5bd14f71427d1e84f3dd0314c0f7b2291e5b200ac8c7c3b9258460405161046f91815260200190565b60405180910390a35b50505050565b6001600160a01b0383166104a957806002600082825461049e9190610734565b9091555061051b9050565b6001600160a01b038316600090815260208190526040902054818110156104fc5760405163391434e360e21b81526001600160a01b038516600482015260248101829052604481018390526064016100bb565b6001600160a01b03841660009081526020819052604090209082900390555b6001600160a01b03821661053757600280548290039055610556565b6001600160a01b03821660009081526020819052604090208054820190555b816001600160a01b0316836001600160a01b03167fddf252ad1be2c89b69c2b068fc378daa952ba7f163c4a11628f55a4df523b3ef8360405161059b91815260200190565b60405180910390a3505050565b6000602082840312156105ba57600080fd5b81516001600160a01b03811681146105d157600080fd5b9392505050565b634e487b7160e01b600052604160045260246000fd5b600181811c9082168061060257607f821691505b60208210810361062257634e487b7160e01b600052602260045260246000fd5b50919050565b601f82111561036957806000526020600020601f840160051c8101602085101561064f5750805b601f840160051c820191505b8181101561066f576000815560010161065b565b5050505050565b81516001600160401b0381111561068f5761068f6105d8565b6106a38161069d84546105ee565b84610628565b6020601f8211600181146106d757600083156106bf5750848201515b600019600385901b1c1916600184901b17845561066f565b600084815260208120601f198516915b8281101561070757878501518255602094850194600190920191016106e7565b50848210156107255786840151600019600387901b60f8161c191681555b50505050600190811b01905550565b8082018082111561075557634e487b7160e01b600052601160045260246000fd5b92915050565b60805160a05161117b610795600039600081816107e00152610a060152600081816101c6015281816108ce0152610986015261117b6000f3fe6080604052600436106101235760003560e01c8063715018a6116100a0578063a9059cbb11610064578063a9059cbb1461035a578063c02466681461037a578063c6d69a301461039a578063dd62ed3e146103ba578063f2fde38b1461040057600080fd5b8063715018a6146102d2578063771a3a1d146102e95780638da5cb5b146102ff57806395d89b411461031d578063a82ed9ec1461033257600080fd5b806323b872dd116100e757806323b872dd14610207578063313ce5671461022757806349bd5a5e146102435780634fbee1931461026357806370a082311461029c57600080fd5b806303fd2a451461012f57806306fdde0314610162578063095ea7b3146101845780631694505e146101b457806318160ddd146101e857600080fd5b3661012a57005b600080fd5b34801561013b57600080fd5b5061014561dead81565b6040516001600160a01b0390911681526020015b60405180910390f35b34801561016e57600080fd5b50610177610420565b6040516101599190610e78565b34801561019057600080fd5b506101a461019f366004610edb565b6104b2565b6040519015158152602001610159565b3480156101c057600080fd5b506101457f000000000000000000000000000000000000000000000000000000000000000081565b3480156101f457600080fd5b506002545b604051908152602001610159565b34801561021357600080fd5b506101a4610222366004610f07565b6104cc565b34801561023357600080fd5b5060405160128152602001610159565b34801561024f57600080fd5b50600754610145906001600160a01b031681565b34801561026f57600080fd5b506101a461027e366004610f48565b6001600160a01b031660009081526009602052604090205460ff1690565b3480156102a857600080fd5b506101f96102b7366004610f48565b6001600160a01b031660009081526020819052604090205490565b3480156102de57600080fd5b506102e7610572565b005b3480156102f557600080fd5b506101f960065481565b34801561030b57600080fd5b506005546001600160a01b0316610145565b34801561032957600080fd5b50610177610586565b34801561033e57600080fd5b50610145739ac64cc6e4415144c455bd8e4837fea55603e5c381565b34801561036657600080fd5b506101a4610375366004610edb565b610595565b34801561038657600080fd5b506102e7610395366004610f6c565b610625565b3480156103a657600080fd5b506102e76103b5366004610faa565b61068c565b3480156103c657600080fd5b506101f96103d5366004610fc3565b6001600160a01b03918216600090815260016020908152604080832093909416825291909152205490565b34801561040c57600080fd5b506102e761041b366004610f48565b6106e0565b60606003805461042f90610ff1565b80601f016020809104026020016040519081016040528092919081815260200182805461045b90610ff1565b80156104a85780601f1061047d576101008083540402835291602001916104a8565b820191906000526020600020905b81548152906001019060200180831161048b57829003601f168201915b5050505050905090565b6000336104c081858561071e565b60019150505b92915050565b6001600160a01b03831660009081526009602052604081205460ff1615801561050e57506001600160a01b03831660009081526009602052604090205460ff16155b801561053b57506007546001600160a01b031633148061053b57506007546001600160a01b038481169116145b1561055b5761054b843384610730565b6105568484846107ae565b610568565b610566848484610a50565b505b5060019392505050565b61057a610a74565b6105846000610aa1565b565b60606004805461042f90610ff1565b3360009081526009602052604081205460ff161580156105ce57506001600160a01b03831660009081526009602052604090205460ff16155b80156105fb57506007546001600160a01b03163314806105fb57506007546001600160a01b038481169116145b156106105761060b3384846107ae565b61061c565b61061a8383610af3565b505b50600192915050565b61062d610a74565b6001600160a01b038216600081815260096020908152604091829020805460ff191685151590811790915591519182527f9d8f7706ea1113d1a167b526eca956215946dd36cc7df39eb16180222d8b5df7910160405180910390a25050565b610694610a74565b601481106106db5760405162461bcd60e51b815260206004820152600f60248201526e496e76616c6964207461785261746560881b60448201526064015b60405180910390fd5b600655565b6106e8610a74565b6001600160a01b03811661071257604051631e4fbdf760e01b8152600060048201526024016106d2565b61071b81610aa1565b50565b61072b8383836001610b01565b505050565b6001600160a01b0383811660009081526001602090815260408083209386168352929052205460001981146107a8578181101561079957604051637dc7a0d960e11b81526001600160a01b038416600482015260248101829052604481018390526064016106d2565b6107a884848484036000610b01565b50505050565b60006064600654836107c09190611041565b6107ca9190611058565b905060006107d8828461107a565b9050610805857f000000000000000000000000000000000000000000000000000000000000000084610bd6565b6008546108149061138861108d565b4311610a3e5730600090815260208190526040902054801580159081906108455750600754600160a01b900460ff16155b801561085f57506007546001600160a01b03888116911614155b15610a3b576007805460ff60a01b1916600160a01b17905560408051600280825260608201835260009260208301908036833701905050905030816000815181106108ac576108ac6110a0565b60200260200101906001600160a01b031690816001600160a01b0316815250507f00000000000000000000000000000000000000000000000000000000000000006001600160a01b031663ad5c46486040518163ffffffff1660e01b8152600401602060405180830381865afa15801561092a573d6000803e3d6000fd5b505050506040513d601f19601f8201168201806040525081019061094e91906110b6565b81600181518110610961576109616110a0565b6001600160a01b03928316602091820292909201015260405163791ac94760e01b81527f00000000000000000000000000000000000000000000000000000000000000009091169063791ac947906109c69086906000908690309042906004016110d3565b600060405180830381600087803b1580156109e057600080fd5b505af11580156109f4573d6000803e3d6000fd5b504792505081159050610a2b57610a2b7f000000000000000000000000000000000000000000000000000000000000000082610c35565b50506007805460ff60a01b191690555b50505b610a49858583610bd6565b5050505050565b600033610a5e858285610730565b610a69858585610bd6565b506001949350505050565b6005546001600160a01b031633146105845760405163118cdaa760e01b81523360048201526024016106d2565b600580546001600160a01b038381166001600160a01b0319831681179093556040519116919082907f8be0079c531659141344cd1fd0a4f28419497f9722a3daafe3b4186f6b6457e090600090a35050565b6000336104c0818585610bd6565b6001600160a01b038416610b2b5760405163e602df0560e01b8152600060048201526024016106d2565b6001600160a01b038316610b5557604051634a1406b160e11b8152600060048201526024016106d2565b6001600160a01b03808516600090815260016020908152604080832093871683529290522082905580156107a857826001600160a01b0316846001600160a01b03167f8c5be1e5ebec7d5bd14f71427d1e84f3dd0314c0f7b2291e5b200ac8c7c3b92584604051610bc891815260200190565b60405180910390a350505050565b6001600160a01b038316610c0057604051634b637e8f60e11b8152600060048201526024016106d2565b6001600160a01b038216610c2a5760405163ec442f0560e01b8152600060048201526024016106d2565b61072b838383610d4e565b80471015610c855760405162461bcd60e51b815260206004820152601d60248201527f416464726573733a20696e73756666696369656e742062616c616e636500000060448201526064016106d2565b6000826001600160a01b03168260405160006040518083038185875af1925050503d8060008114610cd2576040519150601f19603f3d011682016040523d82523d6000602084013e610cd7565b606091505b505090508061072b5760405162461bcd60e51b815260206004820152603a60248201527f416464726573733a20756e61626c6520746f2073656e642076616c75652c207260448201527f6563697069656e74206d6179206861766520726576657274656400000000000060648201526084016106d2565b6001600160a01b038316610d79578060026000828254610d6e919061108d565b90915550610deb9050565b6001600160a01b03831660009081526020819052604090205481811015610dcc5760405163391434e360e21b81526001600160a01b038516600482015260248101829052604481018390526064016106d2565b6001600160a01b03841660009081526020819052604090209082900390555b6001600160a01b038216610e0757600280548290039055610e26565b6001600160a01b03821660009081526020819052604090208054820190555b816001600160a01b0316836001600160a01b03167fddf252ad1be2c89b69c2b068fc378daa952ba7f163c4a11628f55a4df523b3ef83604051610e6b91815260200190565b60405180910390a3505050565b602081526000825180602084015260005b81811015610ea65760208186018101516040868401015201610e89565b506000604082850101526040601f19601f83011684010191505092915050565b6001600160a01b038116811461071b57600080fd5b60008060408385031215610eee57600080fd5b8235610ef981610ec6565b946020939093013593505050565b600080600060608486031215610f1c57600080fd5b8335610f2781610ec6565b92506020840135610f3781610ec6565b929592945050506040919091013590565b600060208284031215610f5a57600080fd5b8135610f6581610ec6565b9392505050565b60008060408385031215610f7f57600080fd5b8235610f8a81610ec6565b915060208301358015158114610f9f57600080fd5b809150509250929050565b600060208284031215610fbc57600080fd5b5035919050565b60008060408385031215610fd657600080fd5b8235610fe181610ec6565b91506020830135610f9f81610ec6565b600181811c9082168061100557607f821691505b60208210810361102557634e487b7160e01b600052602260045260246000fd5b50919050565b634e487b7160e01b600052601160045260246000fd5b80820281158282048414176104c6576104c661102b565b60008261107557634e487b7160e01b600052601260045260246000fd5b500490565b818103818111156104c6576104c661102b565b808201808211156104c6576104c661102b565b634e487b7160e01b600052603260045260246000fd5b6000602082840312156110c857600080fd5b8151610f6581610ec6565b600060a0820187835286602084015260a0604084015280865180835260c08501915060208801925060005b818110156111255783516001600160a01b03168352602093840193909201916001016110fe565b50506001600160a01b03959095166060840152505060800152939250505056fea264697066735822122033bdbcba4e8e144f035d2e24ee912d9e018e896d2f18a6a01bfda47cd658ac2d64736f6c634300081a0033","linkReferences":{}},"methodIdentifiers":{"DEAD()":"03fd2a45","UNISWAP_V2_ROUTER()":"a82ed9ec","allowance(address,address)":"dd62ed3e","approve(address,uint256)":"095ea7b3","balanceOf(address)":"70a08231","decimals()":"313ce567","excludeFromFees(address,bool)":"c0246668","isExcludedFromFees(address)":"4fbee193","name()":"06fdde03","owner()":"8da5cb5b","renounceOwnership()":"715018a6","setTaxRate(uint256)":"c6d69a30","symbol()":"95d89b41","taxRate()":"771a3a1d","totalSupply()":"18160ddd","transfer(address,uint256)":"a9059cbb","transferFrom(address,address,uint256)":"23b872dd","transferOwnership(address)":"f2fde38b","uniswapV2Pair()":"49bd5a5e","uniswapV2Router()":"1694505e"},"id":2}