{"abi":[{"type":"constructor","inputs":[{"name":"initialSupply","type":"uint256","internalType":"uint256"},{"name":"_marketingWallet","type":"address","internalType":"address"}],"stateMutability":"nonpayable"},{"type":"receive","stateMutability":"payable"},{"type":"function","name":"DEAD","inputs":[],"outputs":[{"name":"","type":"address","internalType":"address"}],"stateMutability":"view"},{"type":"function","name":"UNISWAP_V2_ROUTER","inputs":[],"outputs":[{"name":"","type":"address","internalType":"address"}],"stateMutability":"view"},{"type":"function","name":"allowance","inputs":[{"name":"owner","type":"address","internalType":"address"},{"name":"spender","type":"address","internalType":"address"}],"outputs":[{"name":"","type":"uint256","internalType":"uint256"}],"stateMutability":"view"},{"type":"function","name":"approve","inputs":[{"name":"spender","type":"address","internalType":"address"},{"name":"value","type":"uint256","internalType":"uint256"}],"outputs":[{"name":"","type":"bool","internalType":"bool"}],"stateMutability":"nonpayable"},{"type":"function","name":"balanceOf","inputs":[{"name":"account","type":"address","internalType":"address"}],"outputs":[{"name":"","type":"uint256","internalType":"uint256"}],"stateMutability":"view"},{"type":"function","name":"decimals","inputs":[],"outputs":[{"name":"","type":"uint8","internalType":"uint8"}],"stateMutability":"view"},{"type":"function","name":"excludeFromFees","inputs":[{"name":"account","type":"address","internalType":"address"},{"name":"excluded","type":"bool","internalType":"bool"}],"outputs":[],"stateMutability":"nonpayable"},{"type":"function","name":"isExcludedFromFees","inputs":[{"name":"account","type":"address","internalType":"address"}],"outputs":[{"name":"","type":"bool","internalType":"bool"}],"stateMutability":"view"},{"type":"function","name":"name","inputs":[],"outputs":[{"name":"","type":"string","internalType":"string"}],"stateMutability":"view"},{"type":"function","name":"owner","inputs":[],"outputs":[{"name":"","type":"address","internalType":"address"}],"stateMutability":"view"},{"type":"function","name":"renounceOwnership","inputs":[],"outputs":[],"stateMutability":"nonpayable"},{"type":"function","name":"setTaxRate","inputs":[{"name":"_taxRate","type":"uint256","internalType":"uint256"}],"outputs":[],"stateMutability":"nonpayable"},{"type":"function","name":"symbol","inputs":[],"outputs":[{"name":"","type":"string","internalType":"string"}],"stateMutability":"view"},{"type":"function","name":"taxRate","inputs":[],"outputs":[{"name":"","type":"uint256","internalType":"uint256"}],"stateMutability":"view"},{"type":"function","name":"totalSupply","inputs":[],"outputs":[{"name":"","type":"uint256","internalType":"uint256"}],"stateMutability":"view"},{"type":"function","name":"transfer","inputs":[{"name":"to","type":"address","internalType":"address"},{"name":"value","type":"uint256","internalType":"uint256"}],"outputs":[{"name":"","type":"bool","internalType":"bool"}],"stateMutability":"nonpayable"},{"type":"function","name":"transferFrom","inputs":[{"name":"from","type":"address","internalType":"address"},{"name":"to","type":"address","internalType":"address"},{"name":"value","type":"uint256","internalType":"uint256"}],"outputs":[{"name":"","type":"bool","internalType":"bool"}],"stateMutability":"nonpayable"},{"type":"function","name":"transferOwnership","inputs":[{"name":"newOwner","type":"address","internalType":"address"}],"outputs":[],"stateMutability":"nonpayable"},{"type":"function","name":"uniswapV2Pair","inputs":[],"outputs":[{"name":"","type":"address","internalType":"address"}],"stateMutability":"view"},{"type":"function","name":"uniswapV2Router","inputs":[],"outputs":[{"name":"","type":"address","internalType":"contract IUniswapV2Router02"}],"stateMutability":"view"},{"type":"event","name":"Approval","inputs":[{"name":"owner","type":"address","indexed":true,"internalType":"address"},{"name":"spender","type":"address","indexed":true,"internalType":"address"},{"name":"value","type":"uint256","indexed":false,"internalType":"uint256"}],"anonymous":false},{"type":"event","name":"ExcludeFromFees","inputs":[{"name":"account","type":"address","indexed":true,"internalType":"address"},{"name":"isExcluded","type":"bool","indexed":false,"internalType":"bool"}],"anonymous":false},{"type":"event","name":"OwnershipTransferred","inputs":[{"name":"previousOwner","type":"address","indexed":true,"internalType":"address"},{"name":"newOwner","type":"address","indexed":true,"internalType":"address"}],"anonymous":false},{"type":"event","name":"Transfer","inputs":[{"name":"from","type":"address","indexed":true,"internalType":"address"},{"name":"to","type":"address","indexed":true,"internalType":"address"},{"name":"value","type":"uint256","indexed":false,"internalType":"uint256"}],"anonymous":false},{"type":"error","name":"ERC20InsufficientAllowance","inputs":[{"name":"spender","type":"address","internalType":"address"},{"name":"allowance","type":"uint256","internalType":"uint256"},{"name":"needed","type":"uint256","internalType":"uint256"}]},{"type":"error","name":"ERC20InsufficientBalance","inputs":[{"name":"sender","type":"address","internalType":"address"},{"name":"balance","type":"uint256","internalType":"uint256"},{"name":"needed","type":"uint256","internalType":"uint256"}]},{"type":"error","name":"ERC20InvalidApprover","inputs":[{"name":"approver","type":"address","internalType":"address"}]},{"type":"error","name":"ERC20InvalidReceiver","inputs":[{"name":"receiver","type":"address","internalType":"address"}]},{"type":"error","name":"ERC20InvalidSender","inputs":[{"name":"sender","type":"address","internalType":"address"}]},{"type":"error","name":"ERC20InvalidSpender","inputs":[{"name":"spender","type":"address","internalType":"address"}]},{"type":"error","name":"OwnableInvalidOwner","inputs":[{"name":"owner","type":"address","internalType":"address"}]},{"type":"error","name":"OwnableUnauthorizedAccount","inputs":[{"name":"account","type":"address","internalType":"address"}]}],"bytecode":{"object":"0x60c0604052600560065534801561001557600080fd5b50604051611912380380611912833981016040819052610034916105b9565b336040518060400160405280600b81526020016a2130b730b730aa37b5b2b760a91b8152506040518060400160405280600481526020016342414e4160e01b81525081600390816100859190610683565b5060046100928282610683565b5050506001600160a01b0381166100c457604051631e4fbdf760e01b8152600060048201526024015b60405180910390fd5b6100cd816102ff565b506001600160a01b03811660a052436008557310ed43c718714eb63d5aa57b78b54704e256024e60808190526040805163c45a015560e01b8152905163c45a0155916004808201926020929091908290030181865afa158015610134573d6000803e3d6000fd5b505050506040513d601f19601f820116820180604052508101906101589190610741565b6001600160a01b031663c9c65396306080516001600160a01b031663ad5c46486040518163ffffffff1660e01b8152600401602060405180830381865afa1580156101a7573d6000803e3d6000fd5b505050506040513d601f19601f820116820180604052508101906101cb9190610741565b6040516001600160e01b031960e085901b1681526001600160a01b039283166004820152911660248201526044016020604051808303816000875af1158015610218573d6000803e3d6000fd5b505050506040513d601f19601f8201168201806040525081019061023c9190610741565b600780546001600160a01b0319166001600160a01b039290921691909117905561026b3061dead600019610351565b6001600960006102836005546001600160a01b031690565b6001600160a01b0316815260208082019290925260409081016000908120805494151560ff1995861617905560099092527f960b1051749987b45b5679007fff577a1c2f763ec21c15a6c5eb193075003785805484166001908117909155308352912080549092161790556102f83383610363565b505061078a565b600580546001600160a01b038381166001600160a01b0319831681179093556040519116919082907f8be0079c531659141344cd1fd0a4f28419497f9722a3daafe3b4186f6b6457e090600090a35050565b61035e838383600161039d565b505050565b6001600160a01b03821661038d5760405163ec442f0560e01b8152600060048201526024016100bb565b61039960008383610473565b5050565b6001600160a01b0384166103c75760405163e602df0560e01b8152600060048201526024016100bb565b6001600160a01b0383166103f157604051634a1406b160e11b8152600060048201526024016100bb565b6001600160a01b038085166000908152600160209081526040808320938716835292905220829055801561046d57826001600160a01b0316846001600160a01b03167f8c5be1e5ebec7d5bd14f71427d1e84f3dd0314c0f7b2291e5b200ac8c7c3b9258460405161046491815260200190565b60405180910390a35b50505050565b6001600160a01b03831661049e5780600260008282546104939190610763565b909155506105109050565b6001600160a01b038316600090815260208190526040902054818110156104f15760405163391434e360e21b81526001600160a01b038516600482015260248101829052604481018390526064016100bb565b6001600160a01b03841660009081526020819052604090209082900390555b6001600160a01b03821661052c5760028054829003905561054b565b6001600160a01b03821660009081526020819052604090208054820190555b816001600160a01b0316836001600160a01b03167fddf252ad1be2c89b69c2b068fc378daa952ba7f163c4a11628f55a4df523b3ef8360405161059091815260200190565b60405180910390a3505050565b80516001600160a01b03811681146105b457600080fd5b919050565b600080604083850312156105cc57600080fd5b825191506105dc6020840161059d565b90509250929050565b634e487b7160e01b600052604160045260246000fd5b600181811c9082168061060f57607f821691505b60208210810361062f57634e487b7160e01b600052602260045260246000fd5b50919050565b601f82111561035e57806000526020600020601f840160051c8101602085101561065c5750805b601f840160051c820191505b8181101561067c5760008155600101610668565b5050505050565b81516001600160401b0381111561069c5761069c6105e5565b6106b0816106aa84546105fb565b84610635565b6020601f8211600181146106e457600083156106cc5750848201515b600019600385901b1c1916600184901b17845561067c565b600084815260208120601f198516915b8281101561071457878501518255602094850194600190920191016106f4565b50848210156107325786840151600019600387901b60f8161c191681555b50505050600190811b01905550565b60006020828403121561075357600080fd5b61075c8261059d565b9392505050565b8082018082111561078457634e487b7160e01b600052601160045260246000fd5b92915050565b60805160a05161114e6107c4600039600081816107b301526109d90152600081816101c6015281816108a10152610959015261114e6000f3fe6080604052600436106101235760003560e01c8063715018a6116100a0578063a9059cbb11610064578063a9059cbb1461035a578063c02466681461037a578063c6d69a301461039a578063dd62ed3e146103ba578063f2fde38b1461040057600080fd5b8063715018a6146102d2578063771a3a1d146102e95780638da5cb5b146102ff57806395d89b411461031d578063a82ed9ec1461033257600080fd5b806323b872dd116100e757806323b872dd14610207578063313ce5671461022757806349bd5a5e146102435780634fbee1931461026357806370a082311461029c57600080fd5b806303fd2a451461012f57806306fdde0314610162578063095ea7b3146101845780631694505e146101b457806318160ddd146101e857600080fd5b3661012a57005b600080fd5b34801561013b57600080fd5b5061014561dead81565b6040516001600160a01b0390911681526020015b60405180910390f35b34801561016e57600080fd5b50610177610420565b6040516101599190610e4b565b34801561019057600080fd5b506101a461019f366004610eae565b6104b2565b6040519015158152602001610159565b3480156101c057600080fd5b506101457f000000000000000000000000000000000000000000000000000000000000000081565b3480156101f457600080fd5b506002545b604051908152602001610159565b34801561021357600080fd5b506101a4610222366004610eda565b6104cc565b34801561023357600080fd5b5060405160128152602001610159565b34801561024f57600080fd5b50600754610145906001600160a01b031681565b34801561026f57600080fd5b506101a461027e366004610f1b565b6001600160a01b031660009081526009602052604090205460ff1690565b3480156102a857600080fd5b506101f96102b7366004610f1b565b6001600160a01b031660009081526020819052604090205490565b3480156102de57600080fd5b506102e7610545565b005b3480156102f557600080fd5b506101f960065481565b34801561030b57600080fd5b506005546001600160a01b0316610145565b34801561032957600080fd5b50610177610559565b34801561033e57600080fd5b506101457310ed43c718714eb63d5aa57b78b54704e256024e81565b34801561036657600080fd5b506101a4610375366004610eae565b610568565b34801561038657600080fd5b506102e7610395366004610f3f565b6105f8565b3480156103a657600080fd5b506102e76103b5366004610f7d565b61065f565b3480156103c657600080fd5b506101f96103d5366004610f96565b6001600160a01b03918216600090815260016020908152604080832093909416825291909152205490565b34801561040c57600080fd5b506102e761041b366004610f1b565b6106b3565b60606003805461042f90610fc4565b80601f016020809104026020016040519081016040528092919081815260200182805461045b90610fc4565b80156104a85780601f1061047d576101008083540402835291602001916104a8565b820191906000526020600020905b81548152906001019060200180831161048b57829003601f168201915b5050505050905090565b6000336104c08185856106f1565b60019150505b92915050565b6001600160a01b03831660009081526009602052604081205460ff1615801561050e57506001600160a01b03831660009081526009602052604090205460ff16155b1561052e5761051e843384610703565b610529848484610781565b61053b565b610539848484610a23565b505b5060019392505050565b61054d610a47565b6105576000610a74565b565b60606004805461042f90610fc4565b3360009081526009602052604081205460ff161580156105a157506001600160a01b03831660009081526009602052604090205460ff16155b80156105ce57506007546001600160a01b03163314806105ce57506007546001600160a01b038481169116145b156105e3576105de338484610781565b6105ef565b6105ed8383610ac6565b505b50600192915050565b610600610a47565b6001600160a01b038216600081815260096020908152604091829020805460ff191685151590811790915591519182527f9d8f7706ea1113d1a167b526eca956215946dd36cc7df39eb16180222d8b5df7910160405180910390a25050565b610667610a47565b601481106106ae5760405162461bcd60e51b815260206004820152600f60248201526e496e76616c6964207461785261746560881b60448201526064015b60405180910390fd5b600655565b6106bb610a47565b6001600160a01b0381166106e557604051631e4fbdf760e01b8152600060048201526024016106a5565b6106ee81610a74565b50565b6106fe8383836001610ad4565b505050565b6001600160a01b03838116600090815260016020908152604080832093861683529290522054600019811461077b578181101561076c57604051637dc7a0d960e11b81526001600160a01b038416600482015260248101829052604481018390526064016106a5565b61077b84848484036000610ad4565b50505050565b60006064600654836107939190611014565b61079d919061102b565b905060006107ab828461104d565b90506107d8857f000000000000000000000000000000000000000000000000000000000000000084610ba9565b6008546107e790611388611060565b4311610a115730600090815260208190526040902054801580159081906108185750600754600160a01b900460ff16155b801561083257506007546001600160a01b03888116911614155b15610a0e576007805460ff60a01b1916600160a01b179055604080516002808252606082018352600092602083019080368337019050509050308160008151811061087f5761087f611073565b60200260200101906001600160a01b031690816001600160a01b0316815250507f00000000000000000000000000000000000000000000000000000000000000006001600160a01b031663ad5c46486040518163ffffffff1660e01b8152600401602060405180830381865afa1580156108fd573d6000803e3d6000fd5b505050506040513d601f19601f820116820180604052508101906109219190611089565b8160018151811061093457610934611073565b6001600160a01b03928316602091820292909201015260405163791ac94760e01b81527f00000000000000000000000000000000000000000000000000000000000000009091169063791ac947906109999086906000908690309042906004016110a6565b600060405180830381600087803b1580156109b357600080fd5b505af11580156109c7573d6000803e3d6000fd5b5047925050811590506109fe576109fe7f000000000000000000000000000000000000000000000000000000000000000082610c08565b50506007805460ff60a01b191690555b50505b610a1c858583610ba9565b5050505050565b600033610a31858285610703565b610a3c858585610ba9565b506001949350505050565b6005546001600160a01b031633146105575760405163118cdaa760e01b81523360048201526024016106a5565b600580546001600160a01b038381166001600160a01b0319831681179093556040519116919082907f8be0079c531659141344cd1fd0a4f28419497f9722a3daafe3b4186f6b6457e090600090a35050565b6000336104c0818585610ba9565b6001600160a01b038416610afe5760405163e602df0560e01b8152600060048201526024016106a5565b6001600160a01b038316610b2857604051634a1406b160e11b8152600060048201526024016106a5565b6001600160a01b038085166000908152600160209081526040808320938716835292905220829055801561077b57826001600160a01b0316846001600160a01b03167f8c5be1e5ebec7d5bd14f71427d1e84f3dd0314c0f7b2291e5b200ac8c7c3b92584604051610b9b91815260200190565b60405180910390a350505050565b6001600160a01b038316610bd357604051634b637e8f60e11b8152600060048201526024016106a5565b6001600160a01b038216610bfd5760405163ec442f0560e01b8152600060048201526024016106a5565b6106fe838383610d21565b80471015610c585760405162461bcd60e51b815260206004820152601d60248201527f416464726573733a20696e73756666696369656e742062616c616e636500000060448201526064016106a5565b6000826001600160a01b03168260405160006040518083038185875af1925050503d8060008114610ca5576040519150601f19603f3d011682016040523d82523d6000602084013e610caa565b606091505b50509050806106fe5760405162461bcd60e51b815260206004820152603a60248201527f416464726573733a20756e61626c6520746f2073656e642076616c75652c207260448201527f6563697069656e74206d6179206861766520726576657274656400000000000060648201526084016106a5565b6001600160a01b038316610d4c578060026000828254610d419190611060565b90915550610dbe9050565b6001600160a01b03831660009081526020819052604090205481811015610d9f5760405163391434e360e21b81526001600160a01b038516600482015260248101829052604481018390526064016106a5565b6001600160a01b03841660009081526020819052604090209082900390555b6001600160a01b038216610dda57600280548290039055610df9565b6001600160a01b03821660009081526020819052604090208054820190555b816001600160a01b0316836001600160a01b03167fddf252ad1be2c89b69c2b068fc378daa952ba7f163c4a11628f55a4df523b3ef83604051610e3e91815260200190565b60405180910390a3505050565b602081526000825180602084015260005b81811015610e795760208186018101516040868401015201610e5c565b506000604082850101526040601f19601f83011684010191505092915050565b6001600160a01b03811681146106ee57600080fd5b60008060408385031215610ec157600080fd5b8235610ecc81610e99565b946020939093013593505050565b600080600060608486031215610eef57600080fd5b8335610efa81610e99565b92506020840135610f0a81610e99565b929592945050506040919091013590565b600060208284031215610f2d57600080fd5b8135610f3881610e99565b9392505050565b60008060408385031215610f5257600080fd5b8235610f5d81610e99565b915060208301358015158114610f7257600080fd5b809150509250929050565b600060208284031215610f8f57600080fd5b5035919050565b60008060408385031215610fa957600080fd5b8235610fb481610e99565b91506020830135610f7281610e99565b600181811c90821680610fd857607f821691505b602082108103610ff857634e487b7160e01b600052602260045260246000fd5b50919050565b634e487b7160e01b600052601160045260246000fd5b80820281158282048414176104c6576104c6610ffe565b60008261104857634e487b7160e01b600052601260045260246000fd5b500490565b818103818111156104c6576104c6610ffe565b808201808211156104c6576104c6610ffe565b634e487b7160e01b600052603260045260246000fd5b60006020828403121561109b57600080fd5b8151610f3881610e99565b600060a0820187835286602084015260a0604084015280865180835260c08501915060208801925060005b818110156110f85783516001600160a01b03168352602093840193909201916001016110d1565b50506001600160a01b03959095166060840152505060800152939250505056fea264697066735822122028400629f7709392211378ef86d424739134223e120c487f65510c572f4cffd564736f6c634300081a0033","linkReferences":{}},"methodIdentifiers":{"DEAD()":"03fd2a45","UNISWAP_V2_ROUTER()":"a82ed9ec","allowance(address,address)":"dd62ed3e","approve(address,uint256)":"095ea7b3","balanceOf(address)":"70a08231","decimals()":"313ce567","excludeFromFees(address,bool)":"c0246668","isExcludedFromFees(address)":"4fbee193","name()":"06fdde03","owner()":"8da5cb5b","renounceOwnership()":"715018a6","setTaxRate(uint256)":"c6d69a30","symbol()":"95d89b41","taxRate()":"771a3a1d","totalSupply()":"18160ddd","transfer(address,uint256)":"a9059cbb","transferFrom(address,address,uint256)":"23b872dd","transferOwnership(address)":"f2fde38b","uniswapV2Pair()":"49bd5a5e","uniswapV2Router()":"1694505e"},"id":2}