{"abi":[{"type":"constructor","inputs":[{"name":"_marketingWallet","type":"address","internalType":"address"}],"stateMutability":"nonpayable"},{"type":"receive","stateMutability":"payable"},{"type":"function","name":"allowance","inputs":[{"name":"owner","type":"address","internalType":"address"},{"name":"spender","type":"address","internalType":"address"}],"outputs":[{"name":"","type":"uint256","internalType":"uint256"}],"stateMutability":"view"},{"type":"function","name":"approve","inputs":[{"name":"spender","type":"address","internalType":"address"},{"name":"value","type":"uint256","internalType":"uint256"}],"outputs":[{"name":"","type":"bool","internalType":"bool"}],"stateMutability":"nonpayable"},{"type":"function","name":"balanceOf","inputs":[{"name":"account","type":"address","internalType":"address"}],"outputs":[{"name":"","type":"uint256","internalType":"uint256"}],"stateMutability":"view"},{"type":"function","name":"decimals","inputs":[],"outputs":[{"name":"","type":"uint8","internalType":"uint8"}],"stateMutability":"view"},{"type":"function","name":"excludeFromFees","inputs":[{"name":"account","type":"address","internalType":"address"},{"name":"excluded","type":"bool","internalType":"bool"}],"outputs":[],"stateMutability":"nonpayable"},{"type":"function","name":"isExcludedFromFees","inputs":[{"name":"account","type":"address","internalType":"address"}],"outputs":[{"name":"","type":"bool","internalType":"bool"}],"stateMutability":"view"},{"type":"function","name":"name","inputs":[],"outputs":[{"name":"","type":"string","internalType":"string"}],"stateMutability":"view"},{"type":"function","name":"owner","inputs":[],"outputs":[{"name":"","type":"address","internalType":"address"}],"stateMutability":"view"},{"type":"function","name":"renounceOwnership","inputs":[],"outputs":[],"stateMutability":"nonpayable"},{"type":"function","name":"setMkt","inputs":[{"name":"_marketingWallet","type":"address","internalType":"address payable"}],"outputs":[],"stateMutability":"nonpayable"},{"type":"function","name":"setTaxRate","inputs":[{"name":"_taxRate","type":"uint256","internalType":"uint256"}],"outputs":[],"stateMutability":"nonpayable"},{"type":"function","name":"symbol","inputs":[],"outputs":[{"name":"","type":"string","internalType":"string"}],"stateMutability":"view"},{"type":"function","name":"totalSupply","inputs":[],"outputs":[{"name":"","type":"uint256","internalType":"uint256"}],"stateMutability":"view"},{"type":"function","name":"transfer","inputs":[{"name":"to","type":"address","internalType":"address"},{"name":"value","type":"uint256","internalType":"uint256"}],"outputs":[{"name":"","type":"bool","internalType":"bool"}],"stateMutability":"nonpayable"},{"type":"function","name":"transferFrom","inputs":[{"name":"from","type":"address","internalType":"address"},{"name":"to","type":"address","internalType":"address"},{"name":"value","type":"uint256","internalType":"uint256"}],"outputs":[{"name":"","type":"bool","internalType":"bool"}],"stateMutability":"nonpayable"},{"type":"function","name":"transferOwnership","inputs":[{"name":"newOwner","type":"address","internalType":"address"}],"outputs":[],"stateMutability":"nonpayable"},{"type":"function","name":"triggerSwap","inputs":[],"outputs":[],"stateMutability":"nonpayable"},{"type":"function","name":"withdrawETH","inputs":[],"outputs":[],"stateMutability":"nonpayable"},{"type":"function","name":"withdrawErrorToken","inputs":[{"name":"_address","type":"address","internalType":"address"}],"outputs":[],"stateMutability":"nonpayable"},{"type":"event","name":"Approval","inputs":[{"name":"owner","type":"address","indexed":true,"internalType":"address"},{"name":"spender","type":"address","indexed":true,"internalType":"address"},{"name":"value","type":"uint256","indexed":false,"internalType":"uint256"}],"anonymous":false},{"type":"event","name":"ExcludeFromFees","inputs":[{"name":"account","type":"address","indexed":true,"internalType":"address"},{"name":"isExcluded","type":"bool","indexed":false,"internalType":"bool"}],"anonymous":false},{"type":"event","name":"OwnershipTransferred","inputs":[{"name":"previousOwner","type":"address","indexed":true,"internalType":"address"},{"name":"newOwner","type":"address","indexed":true,"internalType":"address"}],"anonymous":false},{"type":"event","name":"Transfer","inputs":[{"name":"from","type":"address","indexed":true,"internalType":"address"},{"name":"to","type":"address","indexed":true,"internalType":"address"},{"name":"value","type":"uint256","indexed":false,"internalType":"uint256"}],"anonymous":false},{"type":"error","name":"ERC20InsufficientAllowance","inputs":[{"name":"spender","type":"address","internalType":"address"},{"name":"allowance","type":"uint256","internalType":"uint256"},{"name":"needed","type":"uint256","internalType":"uint256"}]},{"type":"error","name":"ERC20InsufficientBalance","inputs":[{"name":"sender","type":"address","internalType":"address"},{"name":"balance","type":"uint256","internalType":"uint256"},{"name":"needed","type":"uint256","internalType":"uint256"}]},{"type":"error","name":"ERC20InvalidApprover","inputs":[{"name":"approver","type":"address","internalType":"address"}]},{"type":"error","name":"ERC20InvalidReceiver","inputs":[{"name":"receiver","type":"address","internalType":"address"}]},{"type":"error","name":"ERC20InvalidSender","inputs":[{"name":"sender","type":"address","internalType":"address"}]},{"type":"error","name":"ERC20InvalidSpender","inputs":[{"name":"spender","type":"address","internalType":"address"}]},{"type":"error","name":"OwnableInvalidOwner","inputs":[{"name":"owner","type":"address","internalType":"address"}]},{"type":"error","name":"OwnableUnauthorizedAccount","inputs":[{"name":"account","type":"address","internalType":"address"}]}],"bytecode":{"object":"0x608060405260056006556009805460ff60a81b1916905534801561002257600080fd5b506040516119b53803806119b5833981016040819052610041916104ac565b336040518060400160405280600b81526020016a2130b730b730aa37b5b2b760a91b8152506040518060400160405280600481526020016342414e4160e01b8152508160039081610092919061057a565b50600461009f828261057a565b5050506001600160a01b0381166100d157604051631e4fbdf760e01b8152600060048201526024015b60405180910390fd5b6100da8161020e565b50600980546001600160a01b0319166001600160a01b0383161790556001600b600061010e6005546001600160a01b031690565b6001600160a01b03908116825260208083019390935260409182016000908120805495151560ff19968716179055600b9093527f44433eeeda1d04bdae79f62169cdb2ab0a6af287fa15706d3fafdbac5fac3415805485166001908117909155308085528385208054871683179055600954909216845291832080548516831790559180527fdf7de25b7f1fd6d0b5205f0e18f1f35bd7b8d84cce336588d184533ce43a6f76805490931617909155600780546001600160a01b0319167310ed43c718714eb63d5aa57b78b54704e256024e9081179091556101f39190600019610260565b610208336aadb53acfa41aee12000000610272565b5061065f565b600580546001600160a01b038381166001600160a01b0319831681179093556040519116919082907f8be0079c531659141344cd1fd0a4f28419497f9722a3daafe3b4186f6b6457e090600090a35050565b61026d83838360016102ac565b505050565b6001600160a01b03821661029c5760405163ec442f0560e01b8152600060048201526024016100c8565b6102a860008383610382565b5050565b6001600160a01b0384166102d65760405163e602df0560e01b8152600060048201526024016100c8565b6001600160a01b03831661030057604051634a1406b160e11b8152600060048201526024016100c8565b6001600160a01b038085166000908152600160209081526040808320938716835292905220829055801561037c57826001600160a01b0316846001600160a01b03167f8c5be1e5ebec7d5bd14f71427d1e84f3dd0314c0f7b2291e5b200ac8c7c3b9258460405161037391815260200190565b60405180910390a35b50505050565b6001600160a01b0383166103ad5780600260008282546103a29190610638565b9091555061041f9050565b6001600160a01b038316600090815260208190526040902054818110156104005760405163391434e360e21b81526001600160a01b038516600482015260248101829052604481018390526064016100c8565b6001600160a01b03841660009081526020819052604090209082900390555b6001600160a01b03821661043b5760028054829003905561045a565b6001600160a01b03821660009081526020819052604090208054820190555b816001600160a01b0316836001600160a01b03167fddf252ad1be2c89b69c2b068fc378daa952ba7f163c4a11628f55a4df523b3ef8360405161049f91815260200190565b60405180910390a3505050565b6000602082840312156104be57600080fd5b81516001600160a01b03811681146104d557600080fd5b9392505050565b634e487b7160e01b600052604160045260246000fd5b600181811c9082168061050657607f821691505b60208210810361052657634e487b7160e01b600052602260045260246000fd5b50919050565b601f82111561026d57806000526020600020601f840160051c810160208510156105535750805b601f840160051c820191505b81811015610573576000815560010161055f565b5050505050565b81516001600160401b03811115610593576105936104dc565b6105a7816105a184546104f2565b8461052c565b6020601f8211600181146105db57600083156105c35750848201515b600019600385901b1c1916600184901b178455610573565b600084815260208120601f198516915b8281101561060b57878501518255602094850194600190920191016105eb565b50848210156106295786840151600019600387901b60f8161c191681555b50505050600190811b01905550565b8082018082111561065957634e487b7160e01b600052601160045260246000fd5b92915050565b6113478061066e6000396000f3fe6080604052600436106101185760003560e01c80638f937cc4116100a0578063c024666811610064578063c024666814610312578063c6d69a3014610332578063dd62ed3e14610352578063e086e5ec14610398578063f2fde38b146103ad57600080fd5b80638f937cc41461028857806395d89b411461029d578063a9059cbb146102b2578063b5973bd4146102d2578063b9f7c5b4146102f257600080fd5b8063313ce567116100e7578063313ce567146101be5780634fbee193146101da57806370a0823114610213578063715018a6146102495780638da5cb5b1461026057600080fd5b806306fdde0314610124578063095ea7b31461014f57806318160ddd1461017f57806323b872dd1461019e57600080fd5b3661011f57005b600080fd5b34801561013057600080fd5b506101396103cd565b6040516101469190610fce565b60405180910390f35b34801561015b57600080fd5b5061016f61016a366004611031565b61045f565b6040519015158152602001610146565b34801561018b57600080fd5b506002545b604051908152602001610146565b3480156101aa57600080fd5b5061016f6101b936600461105d565b610479565b3480156101ca57600080fd5b5060405160128152602001610146565b3480156101e657600080fd5b5061016f6101f536600461109e565b6001600160a01b03166000908152600b602052604090205460ff1690565b34801561021f57600080fd5b5061019061022e36600461109e565b6001600160a01b031660009081526020819052604090205490565b34801561025557600080fd5b5061025e610522565b005b34801561026c57600080fd5b506005546040516001600160a01b039091168152602001610146565b34801561029457600080fd5b5061025e610536565b3480156102a957600080fd5b506101396105b8565b3480156102be57600080fd5b5061016f6102cd366004611031565b6105c7565b3480156102de57600080fd5b5061025e6102ed36600461109e565b610657565b3480156102fe57600080fd5b5061025e61030d36600461109e565b610681565b34801561031e57600080fd5b5061025e61032d3660046110d0565b610791565b34801561033e57600080fd5b5061025e61034d366004611109565b6107f8565b34801561035e57600080fd5b5061019061036d366004611122565b6001600160a01b03918216600090815260016020908152604080832093909416825291909152205490565b3480156103a457600080fd5b5061025e610847565b3480156103b957600080fd5b5061025e6103c836600461109e565b6108ad565b6060600380546103dc90611150565b80601f016020809104026020016040519081016040528092919081815260200182805461040890611150565b80156104555780601f1061042a57610100808354040283529160200191610455565b820191906000526020600020905b81548152906001019060200180831161043857829003601f168201915b5050505050905090565b60003361046d8185856108e8565b60019150505b92915050565b6001600160a01b0383166000908152600b602052604081205460ff161580156104bb57506001600160a01b0383166000908152600b602052604090205460ff16155b80156104eb57506008546001600160a01b03858116911614806104eb57506008546001600160a01b038481169116145b1561050b576104fb8433846108fa565b610506848484610978565b610518565b610516848484610a4a565b505b5060019392505050565b61052a610a6e565b6105346000610a9b565b565b6009546001600160a01b031633148061055957506005546001600160a01b031633145b61057e5760405162461bcd60e51b81526004016105759061118a565b60405180910390fd5b3060009081526020819052604090205461059781610aed565b4780156105b4576009546105b4906001600160a01b031682610c4e565b5050565b6060600480546103dc90611150565b336000908152600b602052604081205460ff1615801561060057506001600160a01b0383166000908152600b602052604090205460ff16155b801561062d57506008546001600160a01b031633148061062d57506008546001600160a01b038481169116145b156106425761063d338484610978565b61064e565b61064c8383610d67565b505b50600192915050565b61065f610a6e565b600980546001600160a01b0319166001600160a01b0392909216919091179055565b6009546001600160a01b031633146106ab5760405162461bcd60e51b81526004016105759061118a565b6009546040516370a0823160e01b81523060048201526001600160a01b038381169263a9059cbb9291169083906370a0823190602401602060405180830381865afa1580156106fe573d6000803e3d6000fd5b505050506040513d601f19601f8201168201806040525081019061072291906111c1565b6040516001600160e01b031960e085901b1681526001600160a01b03909216600483015260248201526044016020604051808303816000875af115801561076d573d6000803e3d6000fd5b505050506040513d601f19601f820116820180604052508101906105b491906111da565b610799610a6e565b6001600160a01b0382166000818152600b6020908152604091829020805460ff191685151590811790915591519182527f9d8f7706ea1113d1a167b526eca956215946dd36cc7df39eb16180222d8b5df7910160405180910390a25050565b610800610a6e565b601481106108425760405162461bcd60e51b815260206004820152600f60248201526e496e76616c6964207461785261746560881b6044820152606401610575565b600655565b6009546001600160a01b031633146108715760405162461bcd60e51b81526004016105759061118a565b6009546040516001600160a01b03909116904780156108fc02916000818181858888f193505050501580156108aa573d6000803e3d6000fd5b50565b6108b5610a6e565b6001600160a01b0381166108df57604051631e4fbdf760e01b815260006004820152602401610575565b6108aa81610a9b565b6108f58383836001610d75565b505050565b6001600160a01b038381166000908152600160209081526040808320938616835292905220546000198114610972578181101561096357604051637dc7a0d960e11b81526001600160a01b03841660048201526024810182905260448101839052606401610575565b61097284848484036000610d75565b50505050565b600060646006548361098a919061120d565b6109949190611224565b905060006109a28284611246565b90506109af853084610e4a565b30600090815260208190526040902054801580159081906109d95750600954600160a01b900460ff165b80156109ef5750600954600160a81b900460ff16155b8015610a0957506008546001600160a01b03888116911614155b15610a3657610a1782610aed565b478015610a3457600954610a34906001600160a01b031682610c4e565b505b610a41878785610e4a565b50505050505050565b600033610a588582856108fa565b610a63858585610e4a565b506001949350505050565b6005546001600160a01b031633146105345760405163118cdaa760e01b8152336004820152602401610575565b600580546001600160a01b038381166001600160a01b0319831681179093556040519116919082907f8be0079c531659141344cd1fd0a4f28419497f9722a3daafe3b4186f6b6457e090600090a35050565b6009805460ff60a81b1916600160a81b1790556040805160028082526060820183526000926020830190803683370190505090503081600081518110610b3557610b35611259565b6001600160a01b03928316602091820292909201810191909152600754604080516315ab88c960e31b81529051919093169263ad5c46489260048083019391928290030181865afa158015610b8e573d6000803e3d6000fd5b505050506040513d601f19601f82011682018060405250810190610bb2919061126f565b81600181518110610bc557610bc5611259565b6001600160a01b03928316602091820292909201015260075460405163791ac94760e01b815291169063791ac94790610c0b90859060009086903090429060040161128c565b600060405180830381600087803b158015610c2557600080fd5b505af1158015610c39573d6000803e3d6000fd5b50506009805460ff60a81b1916905550505050565b80471015610c9e5760405162461bcd60e51b815260206004820152601d60248201527f416464726573733a20696e73756666696369656e742062616c616e63650000006044820152606401610575565b6000826001600160a01b03168260405160006040518083038185875af1925050503d8060008114610ceb576040519150601f19603f3d011682016040523d82523d6000602084013e610cf0565b606091505b50509050806108f55760405162461bcd60e51b815260206004820152603a60248201527f416464726573733a20756e61626c6520746f2073656e642076616c75652c207260448201527f6563697069656e74206d617920686176652072657665727465640000000000006064820152608401610575565b60003361046d818585610e4a565b6001600160a01b038416610d9f5760405163e602df0560e01b815260006004820152602401610575565b6001600160a01b038316610dc957604051634a1406b160e11b815260006004820152602401610575565b6001600160a01b038085166000908152600160209081526040808320938716835292905220829055801561097257826001600160a01b0316846001600160a01b03167f8c5be1e5ebec7d5bd14f71427d1e84f3dd0314c0f7b2291e5b200ac8c7c3b92584604051610e3c91815260200190565b60405180910390a350505050565b6001600160a01b038316610e7457604051634b637e8f60e11b815260006004820152602401610575565b6001600160a01b038216610e9e5760405163ec442f0560e01b815260006004820152602401610575565b6108f58383836001600160a01b038316610ecf578060026000828254610ec491906112fe565b90915550610f419050565b6001600160a01b03831660009081526020819052604090205481811015610f225760405163391434e360e21b81526001600160a01b03851660048201526024810182905260448101839052606401610575565b6001600160a01b03841660009081526020819052604090209082900390555b6001600160a01b038216610f5d57600280548290039055610f7c565b6001600160a01b03821660009081526020819052604090208054820190555b816001600160a01b0316836001600160a01b03167fddf252ad1be2c89b69c2b068fc378daa952ba7f163c4a11628f55a4df523b3ef83604051610fc191815260200190565b60405180910390a3505050565b602081526000825180602084015260005b81811015610ffc5760208186018101516040868401015201610fdf565b506000604082850101526040601f19601f83011684010191505092915050565b6001600160a01b03811681146108aa57600080fd5b6000806040838503121561104457600080fd5b823561104f8161101c565b946020939093013593505050565b60008060006060848603121561107257600080fd5b833561107d8161101c565b9250602084013561108d8161101c565b929592945050506040919091013590565b6000602082840312156110b057600080fd5b81356110bb8161101c565b9392505050565b80151581146108aa57600080fd5b600080604083850312156110e357600080fd5b82356110ee8161101c565b915060208301356110fe816110c2565b809150509250929050565b60006020828403121561111b57600080fd5b5035919050565b6000806040838503121561113557600080fd5b82356111408161101c565b915060208301356110fe8161101c565b600181811c9082168061116457607f821691505b60208210810361118457634e487b7160e01b600052602260045260246000fd5b50919050565b6020808252601d908201527f4f6e6c79206665652072656365697665722063616e2074726967676572000000604082015260600190565b6000602082840312156111d357600080fd5b5051919050565b6000602082840312156111ec57600080fd5b81516110bb816110c2565b634e487b7160e01b600052601160045260246000fd5b8082028115828204841417610473576104736111f7565b60008261124157634e487b7160e01b600052601260045260246000fd5b500490565b81810381811115610473576104736111f7565b634e487b7160e01b600052603260045260246000fd5b60006020828403121561128157600080fd5b81516110bb8161101c565b600060a0820187835286602084015260a0604084015280865180835260c08501915060208801925060005b818110156112de5783516001600160a01b03168352602093840193909201916001016112b7565b50506001600160a01b039590951660608401525050608001529392505050565b80820180821115610473576104736111f756fea264697066735822122007f8eae5521d705212ab184afecc1753291f07af86f9e736fdcd14d291a5795a64736f6c634300081a0033","linkReferences":{}},"methodIdentifiers":{"allowance(address,address)":"dd62ed3e","approve(address,uint256)":"095ea7b3","balanceOf(address)":"70a08231","decimals()":"313ce567","excludeFromFees(address,bool)":"c0246668","isExcludedFromFees(address)":"4fbee193","name()":"06fdde03","owner()":"8da5cb5b","renounceOwnership()":"715018a6","setMkt(address)":"b5973bd4","setTaxRate(uint256)":"c6d69a30","symbol()":"95d89b41","totalSupply()":"18160ddd","transfer(address,uint256)":"a9059cbb","transferFrom(address,address,uint256)":"23b872dd","transferOwnership(address)":"f2fde38b","triggerSwap()":"8f937cc4","withdrawETH()":"e086e5ec","withdrawErrorToken(address)":"b9f7c5b4"},"id":3}