{"abi":[{"type":"constructor","inputs":[{"name":"initialSupply","type":"uint256","internalType":"uint256"}],"stateMutability":"nonpayable"},{"type":"function","name":"_uniswapV2Router","inputs":[],"outputs":[{"name":"","type":"address","internalType":"contract IUniswapV2Router02"}],"stateMutability":"view"},{"type":"function","name":"allowance","inputs":[{"name":"owner","type":"address","internalType":"address"},{"name":"spender","type":"address","internalType":"address"}],"outputs":[{"name":"","type":"uint256","internalType":"uint256"}],"stateMutability":"view"},{"type":"function","name":"approve","inputs":[{"name":"spender","type":"address","internalType":"address"},{"name":"value","type":"uint256","internalType":"uint256"}],"outputs":[{"name":"","type":"bool","internalType":"bool"}],"stateMutability":"nonpayable"},{"type":"function","name":"balanceOf","inputs":[{"name":"account","type":"address","internalType":"address"}],"outputs":[{"name":"","type":"uint256","internalType":"uint256"}],"stateMutability":"view"},{"type":"function","name":"decimals","inputs":[],"outputs":[{"name":"","type":"uint8","internalType":"uint8"}],"stateMutability":"view"},{"type":"function","name":"excludeFromFees","inputs":[{"name":"account","type":"address","internalType":"address"},{"name":"excluded","type":"bool","internalType":"bool"}],"outputs":[],"stateMutability":"nonpayable"},{"type":"function","name":"name","inputs":[],"outputs":[{"name":"","type":"string","internalType":"string"}],"stateMutability":"view"},{"type":"function","name":"owner","inputs":[],"outputs":[{"name":"","type":"address","internalType":"address"}],"stateMutability":"view"},{"type":"function","name":"renounceOwnership","inputs":[],"outputs":[],"stateMutability":"nonpayable"},{"type":"function","name":"setTaxRate","inputs":[{"name":"_taxRate","type":"uint256","internalType":"uint256"}],"outputs":[],"stateMutability":"nonpayable"},{"type":"function","name":"symbol","inputs":[],"outputs":[{"name":"","type":"string","internalType":"string"}],"stateMutability":"view"},{"type":"function","name":"taxRate","inputs":[],"outputs":[{"name":"","type":"uint256","internalType":"uint256"}],"stateMutability":"view"},{"type":"function","name":"totalSupply","inputs":[],"outputs":[{"name":"","type":"uint256","internalType":"uint256"}],"stateMutability":"view"},{"type":"function","name":"transfer","inputs":[{"name":"to","type":"address","internalType":"address"},{"name":"value","type":"uint256","internalType":"uint256"}],"outputs":[{"name":"","type":"bool","internalType":"bool"}],"stateMutability":"nonpayable"},{"type":"function","name":"transferFrom","inputs":[{"name":"from","type":"address","internalType":"address"},{"name":"to","type":"address","internalType":"address"},{"name":"value","type":"uint256","internalType":"uint256"}],"outputs":[{"name":"","type":"bool","internalType":"bool"}],"stateMutability":"nonpayable"},{"type":"function","name":"transferOwnership","inputs":[{"name":"newOwner","type":"address","internalType":"address"}],"outputs":[],"stateMutability":"nonpayable"},{"type":"event","name":"Approval","inputs":[{"name":"owner","type":"address","indexed":true,"internalType":"address"},{"name":"spender","type":"address","indexed":true,"internalType":"address"},{"name":"value","type":"uint256","indexed":false,"internalType":"uint256"}],"anonymous":false},{"type":"event","name":"ExcludeFromFees","inputs":[{"name":"account","type":"address","indexed":true,"internalType":"address"},{"name":"isExcluded","type":"bool","indexed":false,"internalType":"bool"}],"anonymous":false},{"type":"event","name":"OwnershipTransferred","inputs":[{"name":"previousOwner","type":"address","indexed":true,"internalType":"address"},{"name":"newOwner","type":"address","indexed":true,"internalType":"address"}],"anonymous":false},{"type":"event","name":"Transfer","inputs":[{"name":"from","type":"address","indexed":true,"internalType":"address"},{"name":"to","type":"address","indexed":true,"internalType":"address"},{"name":"value","type":"uint256","indexed":false,"internalType":"uint256"}],"anonymous":false},{"type":"error","name":"ERC20InsufficientAllowance","inputs":[{"name":"spender","type":"address","internalType":"address"},{"name":"allowance","type":"uint256","internalType":"uint256"},{"name":"needed","type":"uint256","internalType":"uint256"}]},{"type":"error","name":"ERC20InsufficientBalance","inputs":[{"name":"sender","type":"address","internalType":"address"},{"name":"balance","type":"uint256","internalType":"uint256"},{"name":"needed","type":"uint256","internalType":"uint256"}]},{"type":"error","name":"ERC20InvalidApprover","inputs":[{"name":"approver","type":"address","internalType":"address"}]},{"type":"error","name":"ERC20InvalidReceiver","inputs":[{"name":"receiver","type":"address","internalType":"address"}]},{"type":"error","name":"ERC20InvalidSender","inputs":[{"name":"sender","type":"address","internalType":"address"}]},{"type":"error","name":"ERC20InvalidSpender","inputs":[{"name":"spender","type":"address","internalType":"address"}]},{"type":"error","name":"OwnableInvalidOwner","inputs":[{"name":"owner","type":"address","internalType":"address"}]},{"type":"error","name":"OwnableUnauthorizedAccount","inputs":[{"name":"account","type":"address","internalType":"address"}]}],"bytecode":{"object":"0x60a0604052600560065534801561001557600080fd5b5060405161104538038061104583398101604081905261003491610296565b336040518060400160405280600b81526020016a2130b730b730aa37b5b2b760a91b8152506040518060400160405280600681526020016542414e414e4160d01b8152508160039081610087919061034e565b506004610094828261034e565b5050506001600160a01b0381166100c657604051631e4fbdf760e01b8152600060048201526024015b60405180910390fd5b6100cf816100e0565b506100da3382610132565b50610433565b600580546001600160a01b038381166001600160a01b0319831681179093556040519116919082907f8be0079c531659141344cd1fd0a4f28419497f9722a3daafe3b4186f6b6457e090600090a35050565b6001600160a01b03821661015c5760405163ec442f0560e01b8152600060048201526024016100bd565b6101686000838361016c565b5050565b6001600160a01b03831661019757806002600082825461018c919061040c565b909155506102099050565b6001600160a01b038316600090815260208190526040902054818110156101ea5760405163391434e360e21b81526001600160a01b038516600482015260248101829052604481018390526064016100bd565b6001600160a01b03841660009081526020819052604090209082900390555b6001600160a01b03821661022557600280548290039055610244565b6001600160a01b03821660009081526020819052604090208054820190555b816001600160a01b0316836001600160a01b03167fddf252ad1be2c89b69c2b068fc378daa952ba7f163c4a11628f55a4df523b3ef8360405161028991815260200190565b60405180910390a3505050565b6000602082840312156102a857600080fd5b5051919050565b634e487b7160e01b600052604160045260246000fd5b600181811c908216806102d957607f821691505b6020821081036102f957634e487b7160e01b600052602260045260246000fd5b50919050565b601f82111561034957806000526020600020601f840160051c810160208510156103265750805b601f840160051c820191505b818110156103465760008155600101610332565b50505b505050565b81516001600160401b03811115610367576103676102af565b61037b8161037584546102c5565b846102ff565b6020601f8211600181146103af57600083156103975750848201515b600019600385901b1c1916600184901b178455610346565b600084815260208120601f198516915b828110156103df57878501518255602094850194600190920191016103bf565b50848210156103fd5786840151600019600387901b60f8161c191681555b50505050600190811b01905550565b8082018082111561042d57634e487b7160e01b600052601160045260246000fd5b92915050565b608051610bf761044e600039600061017f0152610bf76000f3fe608060405234801561001057600080fd5b50600436106101005760003560e01c8063771a3a1d11610097578063c024666811610066578063c024666814610221578063c6d69a3014610234578063dd62ed3e14610247578063f2fde38b1461028057600080fd5b8063771a3a1d146101ec5780638da5cb5b146101f557806395d89b4114610206578063a9059cbb1461020e57600080fd5b8063313ce567116100d3578063313ce5671461016b578063583e05681461017a57806370a08231146101b9578063715018a6146101e257600080fd5b806306fdde0314610105578063095ea7b31461012357806318160ddd1461014657806323b872dd14610158575b600080fd5b61010d610293565b60405161011a919061099e565b60405180910390f35b610136610131366004610a08565b610325565b604051901515815260200161011a565b6002545b60405190815260200161011a565b610136610166366004610a32565b61033f565b6040516012815260200161011a565b6101a17f000000000000000000000000000000000000000000000000000000000000000081565b6040516001600160a01b03909116815260200161011a565b61014a6101c7366004610a6f565b6001600160a01b031660009081526020819052604090205490565b6101ea610421565b005b61014a60065481565b6005546001600160a01b03166101a1565b61010d610435565b61013661021c366004610a08565b610444565b6101ea61022f366004610a8a565b610515565b6101ea610242366004610ac6565b61057c565b61014a610255366004610adf565b6001600160a01b03918216600090815260016020908152604080832093909416825291909152205490565b6101ea61028e366004610a6f565b6105cb565b6060600380546102a290610b12565b80601f01602080910402602001604051908101604052809291908181526020018280546102ce90610b12565b801561031b5780601f106102f05761010080835404028352916020019161031b565b820191906000526020600020905b8154815290600101906020018083116102fe57829003601f168201915b5050505050905090565b600033610333818585610609565b60019150505b92915050565b6001600160a01b03821660009081526007602052604081205460ff1615801561038157506001600160a01b03841660009081526007602052604090205460ff16155b1561040e5760006064610395846005610b62565b61039f9190610b79565b90506103ab8184610b9b565b925060006103bc8661dead8461061b565b90508061040b5760405162461bcd60e51b815260206004820152601860248201527774617820666565207472616e73666572206661696c65642160401b60448201526064015b60405180910390fd5b50505b61041983848461061b565b949350505050565b61042961063f565b610433600061066c565b565b6060600480546102a290610b12565b3360009081526007602052604081205460ff1615801561047d57506001600160a01b03831660009081526007602052604090205460ff16155b156105045760006064610491846005610b62565b61049b9190610b79565b90506104a78382610b9b565b925060006104b761dead836106be565b9050806105015760405162461bcd60e51b815260206004820152601860248201527774617820666565207472616e73666572206661696c65642160401b6044820152606401610402565b50505b61050e83836106be565b9392505050565b61051d61063f565b6001600160a01b038216600081815260076020908152604091829020805460ff191685151590811790915591519182527f9d8f7706ea1113d1a167b526eca956215946dd36cc7df39eb16180222d8b5df7910160405180910390a25050565b61058461063f565b601481106105c65760405162461bcd60e51b815260206004820152600f60248201526e496e76616c6964207461785261746560881b6044820152606401610402565b600655565b6105d361063f565b6001600160a01b0381166105fd57604051631e4fbdf760e01b815260006004820152602401610402565b6106068161066c565b50565b61061683838360016106cc565b505050565b6000336106298582856107a2565b61063485858561081a565b506001949350505050565b6005546001600160a01b031633146104335760405163118cdaa760e01b8152336004820152602401610402565b600580546001600160a01b038381166001600160a01b0319831681179093556040519116919082907f8be0079c531659141344cd1fd0a4f28419497f9722a3daafe3b4186f6b6457e090600090a35050565b60003361033381858561081a565b6001600160a01b0384166106f65760405163e602df0560e01b815260006004820152602401610402565b6001600160a01b03831661072057604051634a1406b160e11b815260006004820152602401610402565b6001600160a01b038085166000908152600160209081526040808320938716835292905220829055801561079c57826001600160a01b0316846001600160a01b03167f8c5be1e5ebec7d5bd14f71427d1e84f3dd0314c0f7b2291e5b200ac8c7c3b9258460405161079391815260200190565b60405180910390a35b50505050565b6001600160a01b03838116600090815260016020908152604080832093861683529290522054600019811461079c578181101561080b57604051637dc7a0d960e11b81526001600160a01b03841660048201526024810182905260448101839052606401610402565b61079c848484840360006106cc565b6001600160a01b03831661084457604051634b637e8f60e11b815260006004820152602401610402565b6001600160a01b03821661086e5760405163ec442f0560e01b815260006004820152602401610402565b6106168383836001600160a01b03831661089f5780600260008282546108949190610bae565b909155506109119050565b6001600160a01b038316600090815260208190526040902054818110156108f25760405163391434e360e21b81526001600160a01b03851660048201526024810182905260448101839052606401610402565b6001600160a01b03841660009081526020819052604090209082900390555b6001600160a01b03821661092d5760028054829003905561094c565b6001600160a01b03821660009081526020819052604090208054820190555b816001600160a01b0316836001600160a01b03167fddf252ad1be2c89b69c2b068fc378daa952ba7f163c4a11628f55a4df523b3ef8360405161099191815260200190565b60405180910390a3505050565b602081526000825180602084015260005b818110156109cc57602081860181015160408684010152016109af565b506000604082850101526040601f19601f83011684010191505092915050565b80356001600160a01b0381168114610a0357600080fd5b919050565b60008060408385031215610a1b57600080fd5b610a24836109ec565b946020939093013593505050565b600080600060608486031215610a4757600080fd5b610a50846109ec565b9250610a5e602085016109ec565b929592945050506040919091013590565b600060208284031215610a8157600080fd5b61050e826109ec565b60008060408385031215610a9d57600080fd5b610aa6836109ec565b915060208301358015158114610abb57600080fd5b809150509250929050565b600060208284031215610ad857600080fd5b5035919050565b60008060408385031215610af257600080fd5b610afb836109ec565b9150610b09602084016109ec565b90509250929050565b600181811c90821680610b2657607f821691505b602082108103610b4657634e487b7160e01b600052602260045260246000fd5b50919050565b634e487b7160e01b600052601160045260246000fd5b808202811582820484141761033957610339610b4c565b600082610b9657634e487b7160e01b600052601260045260246000fd5b500490565b8181038181111561033957610339610b4c565b8082018082111561033957610339610b4c56fea2646970667358221220e80a313170cfc061a0f9c05af6a512d1ab00538e0e6c140ada98308e1f89b9d464736f6c634300081a0033","linkReferences":{}},"methodIdentifiers":{"_uniswapV2Router()":"583e0568","allowance(address,address)":"dd62ed3e","approve(address,uint256)":"095ea7b3","balanceOf(address)":"70a08231","decimals()":"313ce567","excludeFromFees(address,bool)":"c0246668","name()":"06fdde03","owner()":"8da5cb5b","renounceOwnership()":"715018a6","setTaxRate(uint256)":"c6d69a30","symbol()":"95d89b41","taxRate()":"771a3a1d","totalSupply()":"18160ddd","transfer(address,uint256)":"a9059cbb","transferFrom(address,address,uint256)":"23b872dd","transferOwnership(address)":"f2fde38b"},"id":2}