{"abi":[{"type":"constructor","inputs":[{"name":"initialSupply","type":"uint256","internalType":"uint256"}],"stateMutability":"nonpayable"},{"type":"function","name":"_uniswapV2Router","inputs":[],"outputs":[{"name":"","type":"address","internalType":"contract IUniswapV2Router02"}],"stateMutability":"view"},{"type":"function","name":"allowance","inputs":[{"name":"owner","type":"address","internalType":"address"},{"name":"spender","type":"address","internalType":"address"}],"outputs":[{"name":"","type":"uint256","internalType":"uint256"}],"stateMutability":"view"},{"type":"function","name":"approve","inputs":[{"name":"spender","type":"address","internalType":"address"},{"name":"value","type":"uint256","internalType":"uint256"}],"outputs":[{"name":"","type":"bool","internalType":"bool"}],"stateMutability":"nonpayable"},{"type":"function","name":"balanceOf","inputs":[{"name":"account","type":"address","internalType":"address"}],"outputs":[{"name":"","type":"uint256","internalType":"uint256"}],"stateMutability":"view"},{"type":"function","name":"decimals","inputs":[],"outputs":[{"name":"","type":"uint8","internalType":"uint8"}],"stateMutability":"view"},{"type":"function","name":"excludeFromFees","inputs":[{"name":"account","type":"address","internalType":"address"},{"name":"excluded","type":"bool","internalType":"bool"}],"outputs":[],"stateMutability":"nonpayable"},{"type":"function","name":"name","inputs":[],"outputs":[{"name":"","type":"string","internalType":"string"}],"stateMutability":"view"},{"type":"function","name":"owner","inputs":[],"outputs":[{"name":"","type":"address","internalType":"address"}],"stateMutability":"view"},{"type":"function","name":"renounceOwnership","inputs":[],"outputs":[],"stateMutability":"nonpayable"},{"type":"function","name":"setTaxRate","inputs":[{"name":"_taxRate","type":"uint256","internalType":"uint256"}],"outputs":[],"stateMutability":"nonpayable"},{"type":"function","name":"symbol","inputs":[],"outputs":[{"name":"","type":"string","internalType":"string"}],"stateMutability":"view"},{"type":"function","name":"taxMultiplier","inputs":[],"outputs":[{"name":"","type":"uint256","internalType":"uint256"}],"stateMutability":"view"},{"type":"function","name":"taxRate","inputs":[],"outputs":[{"name":"","type":"uint256","internalType":"uint256"}],"stateMutability":"view"},{"type":"function","name":"totalSupply","inputs":[],"outputs":[{"name":"","type":"uint256","internalType":"uint256"}],"stateMutability":"view"},{"type":"function","name":"transfer","inputs":[{"name":"to","type":"address","internalType":"address"},{"name":"value","type":"uint256","internalType":"uint256"}],"outputs":[{"name":"","type":"bool","internalType":"bool"}],"stateMutability":"nonpayable"},{"type":"function","name":"transferFrom","inputs":[{"name":"from","type":"address","internalType":"address"},{"name":"to","type":"address","internalType":"address"},{"name":"value","type":"uint256","internalType":"uint256"}],"outputs":[{"name":"","type":"bool","internalType":"bool"}],"stateMutability":"nonpayable"},{"type":"function","name":"transferOwnership","inputs":[{"name":"newOwner","type":"address","internalType":"address"}],"outputs":[],"stateMutability":"nonpayable"},{"type":"event","name":"Approval","inputs":[{"name":"owner","type":"address","indexed":true,"internalType":"address"},{"name":"spender","type":"address","indexed":true,"internalType":"address"},{"name":"value","type":"uint256","indexed":false,"internalType":"uint256"}],"anonymous":false},{"type":"event","name":"ExcludeFromFees","inputs":[{"name":"account","type":"address","indexed":true,"internalType":"address"},{"name":"isExcluded","type":"bool","indexed":false,"internalType":"bool"}],"anonymous":false},{"type":"event","name":"OwnershipTransferred","inputs":[{"name":"previousOwner","type":"address","indexed":true,"internalType":"address"},{"name":"newOwner","type":"address","indexed":true,"internalType":"address"}],"anonymous":false},{"type":"event","name":"Transfer","inputs":[{"name":"from","type":"address","indexed":true,"internalType":"address"},{"name":"to","type":"address","indexed":true,"internalType":"address"},{"name":"value","type":"uint256","indexed":false,"internalType":"uint256"}],"anonymous":false},{"type":"error","name":"ERC20InsufficientAllowance","inputs":[{"name":"spender","type":"address","internalType":"address"},{"name":"allowance","type":"uint256","internalType":"uint256"},{"name":"needed","type":"uint256","internalType":"uint256"}]},{"type":"error","name":"ERC20InsufficientBalance","inputs":[{"name":"sender","type":"address","internalType":"address"},{"name":"balance","type":"uint256","internalType":"uint256"},{"name":"needed","type":"uint256","internalType":"uint256"}]},{"type":"error","name":"ERC20InvalidApprover","inputs":[{"name":"approver","type":"address","internalType":"address"}]},{"type":"error","name":"ERC20InvalidReceiver","inputs":[{"name":"receiver","type":"address","internalType":"address"}]},{"type":"error","name":"ERC20InvalidSender","inputs":[{"name":"sender","type":"address","internalType":"address"}]},{"type":"error","name":"ERC20InvalidSpender","inputs":[{"name":"spender","type":"address","internalType":"address"}]},{"type":"error","name":"OwnableInvalidOwner","inputs":[{"name":"owner","type":"address","internalType":"address"}]},{"type":"error","name":"OwnableUnauthorizedAccount","inputs":[{"name":"account","type":"address","internalType":"address"}]}],"bytecode":{"object":"0x60a0604052600560075534801561001557600080fd5b5060405161114f38038061114f8339810160408190526100349161038d565b336040518060400160405280600b81526020016a2130b730b730aa37b5b2b760a91b8152506040518060400160405280600681526020016542414e414e4160d01b81525081600390816100879190610444565b5060046100948282610444565b5050506001600160a01b0381166100c657604051631e4fbdf760e01b8152600060048201526024015b60405180910390fd5b6100cf816100ef565b506100da3382610141565b6100e93061dead60001961017b565b50610529565b600580546001600160a01b038381166001600160a01b0319831681179093556040519116919082907f8be0079c531659141344cd1fd0a4f28419497f9722a3daafe3b4186f6b6457e090600090a35050565b6001600160a01b03821661016b5760405163ec442f0560e01b8152600060048201526024016100bd565b6101776000838361018d565b5050565b61018883838360016102b7565b505050565b6001600160a01b0383166101b85780600260008282546101ad9190610502565b9091555061022a9050565b6001600160a01b0383166000908152602081905260409020548181101561020b5760405163391434e360e21b81526001600160a01b038516600482015260248101829052604481018390526064016100bd565b6001600160a01b03841660009081526020819052604090209082900390555b6001600160a01b03821661024657600280548290039055610265565b6001600160a01b03821660009081526020819052604090208054820190555b816001600160a01b0316836001600160a01b03167fddf252ad1be2c89b69c2b068fc378daa952ba7f163c4a11628f55a4df523b3ef836040516102aa91815260200190565b60405180910390a3505050565b6001600160a01b0384166102e15760405163e602df0560e01b8152600060048201526024016100bd565b6001600160a01b03831661030b57604051634a1406b160e11b8152600060048201526024016100bd565b6001600160a01b038085166000908152600160209081526040808320938716835292905220829055801561038757826001600160a01b0316846001600160a01b03167f8c5be1e5ebec7d5bd14f71427d1e84f3dd0314c0f7b2291e5b200ac8c7c3b9258460405161037e91815260200190565b60405180910390a35b50505050565b60006020828403121561039f57600080fd5b5051919050565b634e487b7160e01b600052604160045260246000fd5b600181811c908216806103d057607f821691505b6020821081036103f057634e487b7160e01b600052602260045260246000fd5b50919050565b601f82111561018857806000526020600020601f840160051c8101602085101561041d5750805b601f840160051c820191505b8181101561043d5760008155600101610429565b5050505050565b81516001600160401b0381111561045d5761045d6103a6565b6104718161046b84546103bc565b846103f6565b6020601f8211600181146104a5576000831561048d5750848201515b600019600385901b1c1916600184901b17845561043d565b600084815260208120601f198516915b828110156104d557878501518255602094850194600190920191016104b5565b50848210156104f35786840151600019600387901b60f8161c191681555b50505050600190811b01905550565b8082018082111561052357634e487b7160e01b600052601160045260246000fd5b92915050565b608051610c0b610544600039600061018a0152610c0b6000f3fe608060405234801561001057600080fd5b506004361061010b5760003560e01c8063771a3a1d116100a2578063a9059cbb11610071578063a9059cbb14610222578063c024666814610235578063c6d69a3014610248578063dd62ed3e1461025b578063f2fde38b1461029457600080fd5b8063771a3a1d146101f75780637d7c8aec146102005780638da5cb5b1461020957806395d89b411461021a57600080fd5b8063313ce567116100de578063313ce56714610176578063583e05681461018557806370a08231146101c4578063715018a6146101ed57600080fd5b806306fdde0314610110578063095ea7b31461012e57806318160ddd1461015157806323b872dd14610163575b600080fd5b6101186102a7565b60405161012591906109b2565b60405180910390f35b61014161013c366004610a1c565b610339565b6040519015158152602001610125565b6002545b604051908152602001610125565b610141610171366004610a46565b610353565b60405160128152602001610125565b6101ac7f000000000000000000000000000000000000000000000000000000000000000081565b6040516001600160a01b039091168152602001610125565b6101556101d2366004610a83565b6001600160a01b031660009081526020819052604090205490565b6101f5610435565b005b61015560075481565b61015560065481565b6005546001600160a01b03166101ac565b610118610449565b610141610230366004610a1c565b610458565b6101f5610243366004610a9e565b610529565b6101f5610256366004610ada565b610590565b610155610269366004610af3565b6001600160a01b03918216600090815260016020908152604080832093909416825291909152205490565b6101f56102a2366004610a83565b6105df565b6060600380546102b690610b26565b80601f01602080910402602001604051908101604052809291908181526020018280546102e290610b26565b801561032f5780601f106103045761010080835404028352916020019161032f565b820191906000526020600020905b81548152906001019060200180831161031257829003601f168201915b5050505050905090565b60003361034781858561061d565b60019150505b92915050565b6001600160a01b03821660009081526008602052604081205460ff1615801561039557506001600160a01b03841660009081526008602052604090205460ff16155b1561042257600060646103a9846005610b76565b6103b39190610b8d565b90506103bf8184610baf565b925060006103d08661dead8461062f565b90508061041f5760405162461bcd60e51b815260206004820152601860248201527774617820666565207472616e73666572206661696c65642160401b60448201526064015b60405180910390fd5b50505b61042d84848461062f565b949350505050565b61043d610653565b6104476000610680565b565b6060600480546102b690610b26565b3360009081526008602052604081205460ff1615801561049157506001600160a01b03831660009081526008602052604090205460ff16155b1561051857600060646104a5846005610b76565b6104af9190610b8d565b90506104bb8382610baf565b925060006104cb61dead836106d2565b9050806105155760405162461bcd60e51b815260206004820152601860248201527774617820666565207472616e73666572206661696c65642160401b6044820152606401610416565b50505b61052283836106d2565b9392505050565b610531610653565b6001600160a01b038216600081815260086020908152604091829020805460ff191685151590811790915591519182527f9d8f7706ea1113d1a167b526eca956215946dd36cc7df39eb16180222d8b5df7910160405180910390a25050565b610598610653565b601481106105da5760405162461bcd60e51b815260206004820152600f60248201526e496e76616c6964207461785261746560881b6044820152606401610416565b600755565b6105e7610653565b6001600160a01b03811661061157604051631e4fbdf760e01b815260006004820152602401610416565b61061a81610680565b50565b61062a83838360016106e0565b505050565b60003361063d8582856107b6565b61064885858561082e565b506001949350505050565b6005546001600160a01b031633146104475760405163118cdaa760e01b8152336004820152602401610416565b600580546001600160a01b038381166001600160a01b0319831681179093556040519116919082907f8be0079c531659141344cd1fd0a4f28419497f9722a3daafe3b4186f6b6457e090600090a35050565b60003361034781858561082e565b6001600160a01b03841661070a5760405163e602df0560e01b815260006004820152602401610416565b6001600160a01b03831661073457604051634a1406b160e11b815260006004820152602401610416565b6001600160a01b03808516600090815260016020908152604080832093871683529290522082905580156107b057826001600160a01b0316846001600160a01b03167f8c5be1e5ebec7d5bd14f71427d1e84f3dd0314c0f7b2291e5b200ac8c7c3b925846040516107a791815260200190565b60405180910390a35b50505050565b6001600160a01b0383811660009081526001602090815260408083209386168352929052205460001981146107b0578181101561081f57604051637dc7a0d960e11b81526001600160a01b03841660048201526024810182905260448101839052606401610416565b6107b0848484840360006106e0565b6001600160a01b03831661085857604051634b637e8f60e11b815260006004820152602401610416565b6001600160a01b0382166108825760405163ec442f0560e01b815260006004820152602401610416565b61062a8383836001600160a01b0383166108b35780600260008282546108a89190610bc2565b909155506109259050565b6001600160a01b038316600090815260208190526040902054818110156109065760405163391434e360e21b81526001600160a01b03851660048201526024810182905260448101839052606401610416565b6001600160a01b03841660009081526020819052604090209082900390555b6001600160a01b03821661094157600280548290039055610960565b6001600160a01b03821660009081526020819052604090208054820190555b816001600160a01b0316836001600160a01b03167fddf252ad1be2c89b69c2b068fc378daa952ba7f163c4a11628f55a4df523b3ef836040516109a591815260200190565b60405180910390a3505050565b602081526000825180602084015260005b818110156109e057602081860181015160408684010152016109c3565b506000604082850101526040601f19601f83011684010191505092915050565b80356001600160a01b0381168114610a1757600080fd5b919050565b60008060408385031215610a2f57600080fd5b610a3883610a00565b946020939093013593505050565b600080600060608486031215610a5b57600080fd5b610a6484610a00565b9250610a7260208501610a00565b929592945050506040919091013590565b600060208284031215610a9557600080fd5b61052282610a00565b60008060408385031215610ab157600080fd5b610aba83610a00565b915060208301358015158114610acf57600080fd5b809150509250929050565b600060208284031215610aec57600080fd5b5035919050565b60008060408385031215610b0657600080fd5b610b0f83610a00565b9150610b1d60208401610a00565b90509250929050565b600181811c90821680610b3a57607f821691505b602082108103610b5a57634e487b7160e01b600052602260045260246000fd5b50919050565b634e487b7160e01b600052601160045260246000fd5b808202811582820484141761034d5761034d610b60565b600082610baa57634e487b7160e01b600052601260045260246000fd5b500490565b8181038181111561034d5761034d610b60565b8082018082111561034d5761034d610b6056fea264697066735822122036d566466efeade3b89b7395be604da3096303704516d27d2fd814130eece35664736f6c634300081a0033","linkReferences":{}},"methodIdentifiers":{"_uniswapV2Router()":"583e0568","allowance(address,address)":"dd62ed3e","approve(address,uint256)":"095ea7b3","balanceOf(address)":"70a08231","decimals()":"313ce567","excludeFromFees(address,bool)":"c0246668","name()":"06fdde03","owner()":"8da5cb5b","renounceOwnership()":"715018a6","setTaxRate(uint256)":"c6d69a30","symbol()":"95d89b41","taxMultiplier()":"7d7c8aec","taxRate()":"771a3a1d","totalSupply()":"18160ddd","transfer(address,uint256)":"a9059cbb","transferFrom(address,address,uint256)":"23b872dd","transferOwnership(address)":"f2fde38b"},"id":2}