{
	"contracts/BananaNFT.sol": {
		"BananaNFT": {
			"abi": [
				{
					"inputs": [
						{
							"internalType": "uint256",
							"name": "_mintInterval",
							"type": "uint256"
						},
						{
							"internalType": "contract IERC20",
							"name": "_token",
							"type": "address"
						}
					],
					"stateMutability": "nonpayable",
					"type": "constructor"
				},
				{
					"inputs": [],
					"name": "ERC721EnumerableForbiddenBatchMint",
					"type": "error"
				},
				{
					"inputs": [
						{
							"internalType": "address",
							"name": "sender",
							"type": "address"
						},
						{
							"internalType": "uint256",
							"name": "tokenId",
							"type": "uint256"
						},
						{
							"internalType": "address",
							"name": "owner",
							"type": "address"
						}
					],
					"name": "ERC721IncorrectOwner",
					"type": "error"
				},
				{
					"inputs": [
						{
							"internalType": "address",
							"name": "operator",
							"type": "address"
						},
						{
							"internalType": "uint256",
							"name": "tokenId",
							"type": "uint256"
						}
					],
					"name": "ERC721InsufficientApproval",
					"type": "error"
				},
				{
					"inputs": [
						{
							"internalType": "address",
							"name": "approver",
							"type": "address"
						}
					],
					"name": "ERC721InvalidApprover",
					"type": "error"
				},
				{
					"inputs": [
						{
							"internalType": "address",
							"name": "operator",
							"type": "address"
						}
					],
					"name": "ERC721InvalidOperator",
					"type": "error"
				},
				{
					"inputs": [
						{
							"internalType": "address",
							"name": "owner",
							"type": "address"
						}
					],
					"name": "ERC721InvalidOwner",
					"type": "error"
				},
				{
					"inputs": [
						{
							"internalType": "address",
							"name": "receiver",
							"type": "address"
						}
					],
					"name": "ERC721InvalidReceiver",
					"type": "error"
				},
				{
					"inputs": [
						{
							"internalType": "address",
							"name": "sender",
							"type": "address"
						}
					],
					"name": "ERC721InvalidSender",
					"type": "error"
				},
				{
					"inputs": [
						{
							"internalType": "uint256",
							"name": "tokenId",
							"type": "uint256"
						}
					],
					"name": "ERC721NonexistentToken",
					"type": "error"
				},
				{
					"inputs": [
						{
							"internalType": "address",
							"name": "owner",
							"type": "address"
						},
						{
							"internalType": "uint256",
							"name": "index",
							"type": "uint256"
						}
					],
					"name": "ERC721OutOfBoundsIndex",
					"type": "error"
				},
				{
					"inputs": [
						{
							"internalType": "address",
							"name": "owner",
							"type": "address"
						}
					],
					"name": "OwnableInvalidOwner",
					"type": "error"
				},
				{
					"inputs": [
						{
							"internalType": "address",
							"name": "account",
							"type": "address"
						}
					],
					"name": "OwnableUnauthorizedAccount",
					"type": "error"
				},
				{
					"anonymous": false,
					"inputs": [
						{
							"indexed": true,
							"internalType": "address",
							"name": "owner",
							"type": "address"
						},
						{
							"indexed": true,
							"internalType": "address",
							"name": "approved",
							"type": "address"
						},
						{
							"indexed": true,
							"internalType": "uint256",
							"name": "tokenId",
							"type": "uint256"
						}
					],
					"name": "Approval",
					"type": "event"
				},
				{
					"anonymous": false,
					"inputs": [
						{
							"indexed": true,
							"internalType": "address",
							"name": "owner",
							"type": "address"
						},
						{
							"indexed": true,
							"internalType": "address",
							"name": "operator",
							"type": "address"
						},
						{
							"indexed": false,
							"internalType": "bool",
							"name": "approved",
							"type": "bool"
						}
					],
					"name": "ApprovalForAll",
					"type": "event"
				},
				{
					"anonymous": false,
					"inputs": [
						{
							"indexed": true,
							"internalType": "address",
							"name": "user",
							"type": "address"
						},
						{
							"indexed": false,
							"internalType": "uint256",
							"name": "tokenId",
							"type": "uint256"
						}
					],
					"name": "Minted",
					"type": "event"
				},
				{
					"anonymous": false,
					"inputs": [
						{
							"indexed": true,
							"internalType": "address",
							"name": "previousOwner",
							"type": "address"
						},
						{
							"indexed": true,
							"internalType": "address",
							"name": "newOwner",
							"type": "address"
						}
					],
					"name": "OwnershipTransferred",
					"type": "event"
				},
				{
					"anonymous": false,
					"inputs": [
						{
							"indexed": true,
							"internalType": "address",
							"name": "from",
							"type": "address"
						},
						{
							"indexed": true,
							"internalType": "address",
							"name": "to",
							"type": "address"
						},
						{
							"indexed": true,
							"internalType": "uint256",
							"name": "tokenId",
							"type": "uint256"
						}
					],
					"name": "Transfer",
					"type": "event"
				},
				{
					"inputs": [],
					"name": "_isSaleActive",
					"outputs": [
						{
							"internalType": "bool",
							"name": "",
							"type": "bool"
						}
					],
					"stateMutability": "view",
					"type": "function"
				},
				{
					"inputs": [
						{
							"internalType": "uint256",
							"name": "tokenId",
							"type": "uint256"
						}
					],
					"name": "_tokenURIs",
					"outputs": [
						{
							"internalType": "string",
							"name": "",
							"type": "string"
						}
					],
					"stateMutability": "view",
					"type": "function"
				},
				{
					"inputs": [
						{
							"internalType": "address",
							"name": "to",
							"type": "address"
						},
						{
							"internalType": "uint256",
							"name": "tokenId",
							"type": "uint256"
						}
					],
					"name": "approve",
					"outputs": [],
					"stateMutability": "nonpayable",
					"type": "function"
				},
				{
					"inputs": [
						{
							"internalType": "address",
							"name": "owner",
							"type": "address"
						}
					],
					"name": "balanceOf",
					"outputs": [
						{
							"internalType": "uint256",
							"name": "",
							"type": "uint256"
						}
					],
					"stateMutability": "view",
					"type": "function"
				},
				{
					"inputs": [],
					"name": "currentTokenId",
					"outputs": [
						{
							"internalType": "uint256",
							"name": "",
							"type": "uint256"
						}
					],
					"stateMutability": "view",
					"type": "function"
				},
				{
					"inputs": [],
					"name": "flipSaleActive",
					"outputs": [],
					"stateMutability": "nonpayable",
					"type": "function"
				},
				{
					"inputs": [
						{
							"internalType": "uint256",
							"name": "tokenId",
							"type": "uint256"
						}
					],
					"name": "getApproved",
					"outputs": [
						{
							"internalType": "address",
							"name": "",
							"type": "address"
						}
					],
					"stateMutability": "view",
					"type": "function"
				},
				{
					"inputs": [
						{
							"internalType": "address",
							"name": "owner",
							"type": "address"
						},
						{
							"internalType": "address",
							"name": "operator",
							"type": "address"
						}
					],
					"name": "isApprovedForAll",
					"outputs": [
						{
							"internalType": "bool",
							"name": "",
							"type": "bool"
						}
					],
					"stateMutability": "view",
					"type": "function"
				},
				{
					"inputs": [
						{
							"internalType": "address",
							"name": "",
							"type": "address"
						}
					],
					"name": "isOnline",
					"outputs": [
						{
							"internalType": "bool",
							"name": "",
							"type": "bool"
						}
					],
					"stateMutability": "view",
					"type": "function"
				},
				{
					"inputs": [],
					"name": "judgeMint",
					"outputs": [
						{
							"internalType": "uint256",
							"name": "nextMintTime",
							"type": "uint256"
						}
					],
					"stateMutability": "view",
					"type": "function"
				},
				{
					"inputs": [
						{
							"internalType": "address",
							"name": "",
							"type": "address"
						}
					],
					"name": "lastMintTime",
					"outputs": [
						{
							"internalType": "uint256",
							"name": "",
							"type": "uint256"
						}
					],
					"stateMutability": "view",
					"type": "function"
				},
				{
					"inputs": [
						{
							"internalType": "string",
							"name": "uri",
							"type": "string"
						}
					],
					"name": "mint",
					"outputs": [
						{
							"internalType": "uint256",
							"name": "",
							"type": "uint256"
						}
					],
					"stateMutability": "nonpayable",
					"type": "function"
				},
				{
					"inputs": [],
					"name": "mintInterval",
					"outputs": [
						{
							"internalType": "uint256",
							"name": "",
							"type": "uint256"
						}
					],
					"stateMutability": "view",
					"type": "function"
				},
				{
					"inputs": [],
					"name": "mintPrice",
					"outputs": [
						{
							"internalType": "uint256",
							"name": "",
							"type": "uint256"
						}
					],
					"stateMutability": "view",
					"type": "function"
				},
				{
					"inputs": [],
					"name": "name",
					"outputs": [
						{
							"internalType": "string",
							"name": "",
							"type": "string"
						}
					],
					"stateMutability": "view",
					"type": "function"
				},
				{
					"inputs": [],
					"name": "owner",
					"outputs": [
						{
							"internalType": "address",
							"name": "",
							"type": "address"
						}
					],
					"stateMutability": "view",
					"type": "function"
				},
				{
					"inputs": [
						{
							"internalType": "uint256",
							"name": "tokenId",
							"type": "uint256"
						}
					],
					"name": "ownerOf",
					"outputs": [
						{
							"internalType": "address",
							"name": "",
							"type": "address"
						}
					],
					"stateMutability": "view",
					"type": "function"
				},
				{
					"inputs": [
						{
							"internalType": "string",
							"name": "uri",
							"type": "string"
						}
					],
					"name": "payToMint",
					"outputs": [
						{
							"internalType": "uint256",
							"name": "",
							"type": "uint256"
						}
					],
					"stateMutability": "payable",
					"type": "function"
				},
				{
					"inputs": [],
					"name": "renounceOwnership",
					"outputs": [],
					"stateMutability": "nonpayable",
					"type": "function"
				},
				{
					"inputs": [
						{
							"internalType": "address",
							"name": "from",
							"type": "address"
						},
						{
							"internalType": "address",
							"name": "to",
							"type": "address"
						},
						{
							"internalType": "uint256",
							"name": "tokenId",
							"type": "uint256"
						}
					],
					"name": "safeTransferFrom",
					"outputs": [],
					"stateMutability": "nonpayable",
					"type": "function"
				},
				{
					"inputs": [
						{
							"internalType": "address",
							"name": "from",
							"type": "address"
						},
						{
							"internalType": "address",
							"name": "to",
							"type": "address"
						},
						{
							"internalType": "uint256",
							"name": "tokenId",
							"type": "uint256"
						},
						{
							"internalType": "bytes",
							"name": "data",
							"type": "bytes"
						}
					],
					"name": "safeTransferFrom",
					"outputs": [],
					"stateMutability": "nonpayable",
					"type": "function"
				},
				{
					"inputs": [],
					"name": "saleEndTime",
					"outputs": [
						{
							"internalType": "uint256",
							"name": "",
							"type": "uint256"
						}
					],
					"stateMutability": "view",
					"type": "function"
				},
				{
					"inputs": [
						{
							"internalType": "address",
							"name": "operator",
							"type": "address"
						},
						{
							"internalType": "bool",
							"name": "approved",
							"type": "bool"
						}
					],
					"name": "setApprovalForAll",
					"outputs": [],
					"stateMutability": "nonpayable",
					"type": "function"
				},
				{
					"inputs": [
						{
							"internalType": "uint256",
							"name": "_mintPrice",
							"type": "uint256"
						}
					],
					"name": "setMintPrice",
					"outputs": [],
					"stateMutability": "nonpayable",
					"type": "function"
				},
				{
					"inputs": [
						{
							"internalType": "uint256",
							"name": "duration",
							"type": "uint256"
						}
					],
					"name": "startSale",
					"outputs": [],
					"stateMutability": "nonpayable",
					"type": "function"
				},
				{
					"inputs": [
						{
							"internalType": "bytes4",
							"name": "interfaceId",
							"type": "bytes4"
						}
					],
					"name": "supportsInterface",
					"outputs": [
						{
							"internalType": "bool",
							"name": "",
							"type": "bool"
						}
					],
					"stateMutability": "view",
					"type": "function"
				},
				{
					"inputs": [],
					"name": "symbol",
					"outputs": [
						{
							"internalType": "string",
							"name": "",
							"type": "string"
						}
					],
					"stateMutability": "view",
					"type": "function"
				},
				{
					"inputs": [],
					"name": "token",
					"outputs": [
						{
							"internalType": "contract IERC20",
							"name": "",
							"type": "address"
						}
					],
					"stateMutability": "view",
					"type": "function"
				},
				{
					"inputs": [
						{
							"internalType": "uint256",
							"name": "index",
							"type": "uint256"
						}
					],
					"name": "tokenByIndex",
					"outputs": [
						{
							"internalType": "uint256",
							"name": "",
							"type": "uint256"
						}
					],
					"stateMutability": "view",
					"type": "function"
				},
				{
					"inputs": [
						{
							"internalType": "address",
							"name": "owner",
							"type": "address"
						},
						{
							"internalType": "uint256",
							"name": "index",
							"type": "uint256"
						}
					],
					"name": "tokenOfOwnerByIndex",
					"outputs": [
						{
							"internalType": "uint256",
							"name": "",
							"type": "uint256"
						}
					],
					"stateMutability": "view",
					"type": "function"
				},
				{
					"inputs": [
						{
							"internalType": "uint256",
							"name": "tokenId",
							"type": "uint256"
						}
					],
					"name": "tokenURI",
					"outputs": [
						{
							"internalType": "string",
							"name": "",
							"type": "string"
						}
					],
					"stateMutability": "view",
					"type": "function"
				},
				{
					"inputs": [],
					"name": "totalSupply",
					"outputs": [
						{
							"internalType": "uint256",
							"name": "",
							"type": "uint256"
						}
					],
					"stateMutability": "view",
					"type": "function"
				},
				{
					"inputs": [
						{
							"internalType": "address",
							"name": "from",
							"type": "address"
						},
						{
							"internalType": "address",
							"name": "to",
							"type": "address"
						},
						{
							"internalType": "uint256",
							"name": "tokenId",
							"type": "uint256"
						}
					],
					"name": "transferFrom",
					"outputs": [],
					"stateMutability": "nonpayable",
					"type": "function"
				},
				{
					"inputs": [
						{
							"internalType": "address",
							"name": "newOwner",
							"type": "address"
						}
					],
					"name": "transferOwnership",
					"outputs": [],
					"stateMutability": "nonpayable",
					"type": "function"
				},
				{
					"inputs": [],
					"name": "withdraw",
					"outputs": [],
					"stateMutability": "nonpayable",
					"type": "function"
				}
			],
			"devdoc": {
				"errors": {
					"ERC721EnumerableForbiddenBatchMint()": [
						{
							"details": "Batch mint is not allowed."
						}
					],
					"ERC721IncorrectOwner(address,uint256,address)": [
						{
							"details": "Indicates an error related to the ownership over a particular token. Used in transfers.",
							"params": {
								"owner": "Address of the current owner of a token.",
								"sender": "Address whose tokens are being transferred.",
								"tokenId": "Identifier number of a token."
							}
						}
					],
					"ERC721InsufficientApproval(address,uint256)": [
						{
							"details": "Indicates a failure with the `operator`’s approval. Used in transfers.",
							"params": {
								"operator": "Address that may be allowed to operate on tokens without being their owner.",
								"tokenId": "Identifier number of a token."
							}
						}
					],
					"ERC721InvalidApprover(address)": [
						{
							"details": "Indicates a failure with the `approver` of a token to be approved. Used in approvals.",
							"params": {
								"approver": "Address initiating an approval operation."
							}
						}
					],
					"ERC721InvalidOperator(address)": [
						{
							"details": "Indicates a failure with the `operator` to be approved. Used in approvals.",
							"params": {
								"operator": "Address that may be allowed to operate on tokens without being their owner."
							}
						}
					],
					"ERC721InvalidOwner(address)": [
						{
							"details": "Indicates that an address can't be an owner. For example, `address(0)` is a forbidden owner in EIP-20. Used in balance queries.",
							"params": {
								"owner": "Address of the current owner of a token."
							}
						}
					],
					"ERC721InvalidReceiver(address)": [
						{
							"details": "Indicates a failure with the token `receiver`. Used in transfers.",
							"params": {
								"receiver": "Address to which tokens are being transferred."
							}
						}
					],
					"ERC721InvalidSender(address)": [
						{
							"details": "Indicates a failure with the token `sender`. Used in transfers.",
							"params": {
								"sender": "Address whose tokens are being transferred."
							}
						}
					],
					"ERC721NonexistentToken(uint256)": [
						{
							"details": "Indicates a `tokenId` whose `owner` is the zero address.",
							"params": {
								"tokenId": "Identifier number of a token."
							}
						}
					],
					"ERC721OutOfBoundsIndex(address,uint256)": [
						{
							"details": "An `owner`'s token query was out of bounds for `index`. NOTE: The owner being `address(0)` indicates a global out of bounds index."
						}
					],
					"OwnableInvalidOwner(address)": [
						{
							"details": "The owner is not a valid owner account. (eg. `address(0)`)"
						}
					],
					"OwnableUnauthorizedAccount(address)": [
						{
							"details": "The caller account is not authorized to perform an operation."
						}
					]
				},
				"events": {
					"Approval(address,address,uint256)": {
						"details": "Emitted when `owner` enables `approved` to manage the `tokenId` token."
					},
					"ApprovalForAll(address,address,bool)": {
						"details": "Emitted when `owner` enables or disables (`approved`) `operator` to manage all of its assets."
					},
					"Transfer(address,address,uint256)": {
						"details": "Emitted when `tokenId` token is transferred from `from` to `to`."
					}
				},
				"kind": "dev",
				"methods": {
					"approve(address,uint256)": {
						"details": "See {IERC721-approve}."
					},
					"balanceOf(address)": {
						"details": "See {IERC721-balanceOf}."
					},
					"getApproved(uint256)": {
						"details": "See {IERC721-getApproved}."
					},
					"isApprovedForAll(address,address)": {
						"details": "See {IERC721-isApprovedForAll}."
					},
					"name()": {
						"details": "See {IERC721Metadata-name}."
					},
					"owner()": {
						"details": "Returns the address of the current owner."
					},
					"ownerOf(uint256)": {
						"details": "See {IERC721-ownerOf}."
					},
					"renounceOwnership()": {
						"details": "Leaves the contract without owner. It will not be possible to call `onlyOwner` functions. Can only be called by the current owner. NOTE: Renouncing ownership will leave the contract without an owner, thereby disabling any functionality that is only available to the owner."
					},
					"safeTransferFrom(address,address,uint256)": {
						"details": "See {IERC721-safeTransferFrom}."
					},
					"safeTransferFrom(address,address,uint256,bytes)": {
						"details": "See {IERC721-safeTransferFrom}."
					},
					"setApprovalForAll(address,bool)": {
						"details": "See {IERC721-setApprovalForAll}."
					},
					"supportsInterface(bytes4)": {
						"details": "See {IERC165-supportsInterface}."
					},
					"symbol()": {
						"details": "See {IERC721Metadata-symbol}."
					},
					"tokenByIndex(uint256)": {
						"details": "See {IERC721Enumerable-tokenByIndex}."
					},
					"tokenOfOwnerByIndex(address,uint256)": {
						"details": "See {IERC721Enumerable-tokenOfOwnerByIndex}."
					},
					"tokenURI(uint256)": {
						"details": "See {IERC721Metadata-tokenURI}."
					},
					"totalSupply()": {
						"details": "See {IERC721Enumerable-totalSupply}."
					},
					"transferFrom(address,address,uint256)": {
						"details": "See {IERC721-transferFrom}."
					},
					"transferOwnership(address)": {
						"details": "Transfers ownership of the contract to a new account (`newOwner`). Can only be called by the current owner."
					}
				},
				"version": 1
			},
			"evm": {
				"assembly": "    /* \"contracts/BananaNFT.sol\":382:3150  contract BananaNFT is ERC721Enumerable, Ownable {... */\n  mstore(0x40, 0x80)\n    /* \"contracts/BananaNFT.sol\":532:542  0.01 ether */\n  0x2386f26fc10000\n    /* \"contracts/BananaNFT.sol\":505:542  uint256 public mintPrice = 0.01 ether */\n  0x0d\n  sstore\n    /* \"contracts/BananaNFT.sol\":872:1067  constructor(... */\n  callvalue\n  dup1\n  iszero\n  tag_1\n  jumpi\n  0x00\n  dup1\n  revert\ntag_1:\n  pop\n  mload(0x40)\n  sub(codesize, bytecodeSize)\n  dup1\n  bytecodeSize\n  dup4\n  codecopy\n  dup2\n  add\n  0x40\n  dup2\n  swap1\n  mstore\n  tag_2\n  swap2\n  tag_3\n  jump\t// in\ntag_2:\n    /* \"contracts/BananaNFT.sol\":983:993  msg.sender */\n  caller\n    /* \"@openzeppelin/contracts/token/ERC721/ERC721.sol\":1381:1494  constructor(string memory name_, string memory symbol_) {... */\n  mload(0x40)\n  dup1\n  0x40\n  add\n  0x40\n  mstore\n  dup1\n  0x09\n  dup2\n  mstore\n  0x20\n  add\n  shl(0xba, 0x10985b985b98539195)\n  dup2\n  mstore\n  pop\n  mload(0x40)\n  dup1\n  0x40\n  add\n  0x40\n  mstore\n  dup1\n  0x04\n  dup2\n  mstore\n  0x20\n  add\n  shl(0xe2, 0x10939195)\n  dup2\n  mstore\n  pop\n    /* \"@openzeppelin/contracts/token/ERC721/ERC721.sol\":1455:1460  name_ */\n  dup2\n    /* \"@openzeppelin/contracts/token/ERC721/ERC721.sol\":1447:1452  _name */\n  0x00\n    /* \"@openzeppelin/contracts/token/ERC721/ERC721.sol\":1447:1460  _name = name_ */\n  swap1\n  dup2\n  tag_8\n  swap2\n  swap1\n  tag_9\n  jump\t// in\ntag_8:\n  pop\n    /* \"@openzeppelin/contracts/token/ERC721/ERC721.sol\":1470:1477  _symbol */\n  0x01\n    /* \"@openzeppelin/contracts/token/ERC721/ERC721.sol\":1470:1487  _symbol = symbol_ */\n  tag_10\n    /* \"@openzeppelin/contracts/token/ERC721/ERC721.sol\":1480:1487  symbol_ */\n  dup3\n    /* \"@openzeppelin/contracts/token/ERC721/ERC721.sol\":1470:1477  _symbol */\n  dup3\n    /* \"@openzeppelin/contracts/token/ERC721/ERC721.sol\":1470:1487  _symbol = symbol_ */\n  tag_9\n  jump\t// in\ntag_10:\n  pop\n  pop\n  pop\n  sub(shl(0xa0, 0x01), 0x01)\n    /* \"@openzeppelin/contracts/access/Ownable.sol\":1273:1299  initialOwner == address(0) */\n  dup2\n  and\n    /* \"@openzeppelin/contracts/access/Ownable.sol\":1269:1364  if (initialOwner == address(0)) {... */\n  tag_12\n  jumpi\n    /* \"@openzeppelin/contracts/access/Ownable.sol\":1322:1353  OwnableInvalidOwner(address(0)) */\n  mload(0x40)\n  shl(0xe0, 0x1e4fbdf7)\n  dup2\n  mstore\n    /* \"@openzeppelin/contracts/access/Ownable.sol\":1350:1351  0 */\n  0x00\n    /* \"@openzeppelin/contracts/access/Ownable.sol\":1322:1353  OwnableInvalidOwner(address(0)) */\n  0x04\n  dup3\n  add\n    /* \"#utility.yul\":3171:3222   */\n  mstore\n    /* \"#utility.yul\":3144:3162   */\n  0x24\n  add\n    /* \"@openzeppelin/contracts/access/Ownable.sol\":1322:1353  OwnableInvalidOwner(address(0)) */\n  mload(0x40)\n  dup1\n  swap2\n  sub\n  swap1\n  revert\n    /* \"@openzeppelin/contracts/access/Ownable.sol\":1269:1364  if (initialOwner == address(0)) {... */\ntag_12:\n    /* \"@openzeppelin/contracts/access/Ownable.sol\":1373:1405  _transferOwnership(initialOwner) */\n  tag_15\n    /* \"@openzeppelin/contracts/access/Ownable.sol\":1392:1404  initialOwner */\n  dup2\n    /* \"@openzeppelin/contracts/access/Ownable.sol\":1373:1391  _transferOwnership */\n  tag_16\n    /* \"@openzeppelin/contracts/access/Ownable.sol\":1373:1405  _transferOwnership(initialOwner) */\n  jump\t// in\ntag_15:\n  pop\n    /* \"contracts/BananaNFT.sol\":1006:1018  mintInterval */\n  0x0e\n    /* \"contracts/BananaNFT.sol\":1006:1034  mintInterval = _mintInterval */\n  swap2\n  swap1\n  swap2\n  sstore\n    /* \"contracts/BananaNFT.sol\":1045:1050  token */\n  0x0c\n    /* \"contracts/BananaNFT.sol\":1045:1059  token = _token */\n  dup1\n  sload\n  not(sub(shl(0xa0, 0x01), 0x01))\n  and\n  sub(shl(0xa0, 0x01), 0x01)\n  swap1\n  swap3\n  and\n  swap2\n  swap1\n  swap2\n  or\n  swap1\n  sstore\n    /* \"contracts/BananaNFT.sol\":382:3150  contract BananaNFT is ERC721Enumerable, Ownable {... */\n  jump(tag_25)\n    /* \"@openzeppelin/contracts/access/Ownable.sol\":2912:3099  function _transferOwnership(address newOwner) internal virtual {... */\ntag_16:\n    /* \"@openzeppelin/contracts/access/Ownable.sol\":3004:3010  _owner */\n  0x0a\n  dup1\n  sload\n  sub(shl(0xa0, 0x01), 0x01)\n    /* \"@openzeppelin/contracts/access/Ownable.sol\":3020:3037  _owner = newOwner */\n  dup4\n  dup2\n  and\n  not(sub(shl(0xa0, 0x01), 0x01))\n  dup4\n  and\n  dup2\n  or\n  swap1\n  swap4\n  sstore\n    /* \"@openzeppelin/contracts/access/Ownable.sol\":3052:3092  OwnershipTransferred(oldOwner, newOwner) */\n  mload(0x40)\n    /* \"@openzeppelin/contracts/access/Ownable.sol\":3004:3010  _owner */\n  swap2\n  and\n  swap2\n    /* \"@openzeppelin/contracts/access/Ownable.sol\":3020:3037  _owner = newOwner */\n  swap1\n    /* \"@openzeppelin/contracts/access/Ownable.sol\":3004:3010  _owner */\n  dup3\n  swap1\n    /* \"@openzeppelin/contracts/access/Ownable.sol\":3052:3092  OwnershipTransferred(oldOwner, newOwner) */\n  0x8be0079c531659141344cd1fd0a4f28419497f9722a3daafe3b4186f6b6457e0\n  swap1\n    /* \"@openzeppelin/contracts/access/Ownable.sol\":2985:3001  address oldOwner */\n  0x00\n  swap1\n    /* \"@openzeppelin/contracts/access/Ownable.sol\":3052:3092  OwnershipTransferred(oldOwner, newOwner) */\n  log3\n    /* \"@openzeppelin/contracts/access/Ownable.sol\":2975:3099  {... */\n  pop\n    /* \"@openzeppelin/contracts/access/Ownable.sol\":2912:3099  function _transferOwnership(address newOwner) internal virtual {... */\n  pop\n  jump\t// out\n    /* \"#utility.yul\":14:379   */\ntag_3:\n    /* \"#utility.yul\":107:113   */\n  0x00\n    /* \"#utility.yul\":115:121   */\n  dup1\n    /* \"#utility.yul\":168:170   */\n  0x40\n    /* \"#utility.yul\":156:165   */\n  dup4\n    /* \"#utility.yul\":147:154   */\n  dup6\n    /* \"#utility.yul\":143:166   */\n  sub\n    /* \"#utility.yul\":139:171   */\n  slt\n    /* \"#utility.yul\":136:188   */\n  iszero\n  tag_27\n  jumpi\n    /* \"#utility.yul\":184:185   */\n  0x00\n    /* \"#utility.yul\":181:182   */\n  dup1\n    /* \"#utility.yul\":174:186   */\n  revert\n    /* \"#utility.yul\":136:188   */\ntag_27:\n    /* \"#utility.yul\":207:223   */\n  dup3\n  mload\n    /* \"#utility.yul\":266:268   */\n  0x20\n    /* \"#utility.yul\":251:269   */\n  dup5\n  add\n    /* \"#utility.yul\":245:270   */\n  mload\n    /* \"#utility.yul\":207:223   */\n  swap1\n  swap3\n  pop\n  sub(shl(0xa0, 0x01), 0x01)\n    /* \"#utility.yul\":299:330   */\n  dup2\n  and\n    /* \"#utility.yul\":289:331   */\n  dup2\n  eq\n    /* \"#utility.yul\":279:349   */\n  tag_28\n  jumpi\n    /* \"#utility.yul\":345:346   */\n  0x00\n    /* \"#utility.yul\":342:343   */\n  dup1\n    /* \"#utility.yul\":335:347   */\n  revert\n    /* \"#utility.yul\":279:349   */\ntag_28:\n    /* \"#utility.yul\":368:373   */\n  dup1\n    /* \"#utility.yul\":358:373   */\n  swap2\n  pop\n  pop\n    /* \"#utility.yul\":14:379   */\n  swap3\n  pop\n  swap3\n  swap1\n  pop\n  jump\t// out\n    /* \"#utility.yul\":384:511   */\ntag_20:\n    /* \"#utility.yul\":445:455   */\n  0x4e487b71\n    /* \"#utility.yul\":440:443   */\n  0xe0\n    /* \"#utility.yul\":436:456   */\n  shl\n    /* \"#utility.yul\":433:434   */\n  0x00\n    /* \"#utility.yul\":426:457   */\n  mstore\n    /* \"#utility.yul\":476:480   */\n  0x41\n    /* \"#utility.yul\":473:474   */\n  0x04\n    /* \"#utility.yul\":466:481   */\n  mstore\n    /* \"#utility.yul\":500:504   */\n  0x24\n    /* \"#utility.yul\":497:498   */\n  0x00\n    /* \"#utility.yul\":490:505   */\n  revert\n    /* \"#utility.yul\":516:896   */\ntag_21:\n    /* \"#utility.yul\":595:596   */\n  0x01\n    /* \"#utility.yul\":591:603   */\n  dup2\n  dup2\n  shr\n  swap1\n    /* \"#utility.yul\":638:650   */\n  dup3\n  and\n  dup1\n    /* \"#utility.yul\":659:720   */\n  tag_31\n  jumpi\n    /* \"#utility.yul\":713:717   */\n  0x7f\n    /* \"#utility.yul\":705:711   */\n  dup3\n    /* \"#utility.yul\":701:718   */\n  and\n    /* \"#utility.yul\":691:718   */\n  swap2\n  pop\n    /* \"#utility.yul\":659:720   */\ntag_31:\n    /* \"#utility.yul\":766:768   */\n  0x20\n    /* \"#utility.yul\":758:764   */\n  dup3\n    /* \"#utility.yul\":755:769   */\n  lt\n    /* \"#utility.yul\":735:753   */\n  dup2\n    /* \"#utility.yul\":732:770   */\n  sub\n    /* \"#utility.yul\":729:890   */\n  tag_32\n  jumpi\n    /* \"#utility.yul\":812:822   */\n  0x4e487b71\n    /* \"#utility.yul\":807:810   */\n  0xe0\n    /* \"#utility.yul\":803:823   */\n  shl\n    /* \"#utility.yul\":800:801   */\n  0x00\n    /* \"#utility.yul\":793:824   */\n  mstore\n    /* \"#utility.yul\":847:851   */\n  0x22\n    /* \"#utility.yul\":844:845   */\n  0x04\n    /* \"#utility.yul\":837:852   */\n  mstore\n    /* \"#utility.yul\":875:879   */\n  0x24\n    /* \"#utility.yul\":872:873   */\n  0x00\n    /* \"#utility.yul\":865:880   */\n  revert\n    /* \"#utility.yul\":729:890   */\ntag_32:\n  pop\n    /* \"#utility.yul\":516:896   */\n  swap2\n  swap1\n  pop\n  jump\t// out\n    /* \"#utility.yul\":1027:1545   */\ntag_23:\n    /* \"#utility.yul\":1129:1131   */\n  0x1f\n    /* \"#utility.yul\":1124:1127   */\n  dup3\n    /* \"#utility.yul\":1121:1132   */\n  gt\n    /* \"#utility.yul\":1118:1539   */\n  iszero\n  tag_35\n  jumpi\n    /* \"#utility.yul\":1165:1170   */\n  dup1\n    /* \"#utility.yul\":1162:1163   */\n  0x00\n    /* \"#utility.yul\":1155:1171   */\n  mstore\n    /* \"#utility.yul\":1209:1213   */\n  0x20\n    /* \"#utility.yul\":1206:1207   */\n  0x00\n    /* \"#utility.yul\":1196:1214   */\n  keccak256\n    /* \"#utility.yul\":1279:1281   */\n  0x1f\n    /* \"#utility.yul\":1267:1277   */\n  dup5\n    /* \"#utility.yul\":1263:1282   */\n  add\n    /* \"#utility.yul\":1260:1261   */\n  0x05\n    /* \"#utility.yul\":1256:1283   */\n  shr\n    /* \"#utility.yul\":1250:1254   */\n  dup2\n    /* \"#utility.yul\":1246:1284   */\n  add\n    /* \"#utility.yul\":1315:1319   */\n  0x20\n    /* \"#utility.yul\":1303:1313   */\n  dup6\n    /* \"#utility.yul\":1300:1320   */\n  lt\n    /* \"#utility.yul\":1297:1344   */\n  iszero\n  tag_36\n  jumpi\n  pop\n    /* \"#utility.yul\":1338:1342   */\n  dup1\n    /* \"#utility.yul\":1297:1344   */\ntag_36:\n    /* \"#utility.yul\":1393:1395   */\n  0x1f\n    /* \"#utility.yul\":1388:1391   */\n  dup5\n    /* \"#utility.yul\":1384:1396   */\n  add\n    /* \"#utility.yul\":1381:1382   */\n  0x05\n    /* \"#utility.yul\":1377:1397   */\n  shr\n    /* \"#utility.yul\":1371:1375   */\n  dup3\n    /* \"#utility.yul\":1367:1398   */\n  add\n    /* \"#utility.yul\":1357:1398   */\n  swap2\n  pop\n    /* \"#utility.yul\":1448:1529   */\ntag_37:\n    /* \"#utility.yul\":1466:1468   */\n  dup2\n    /* \"#utility.yul\":1459:1464   */\n  dup2\n    /* \"#utility.yul\":1456:1469   */\n  lt\n    /* \"#utility.yul\":1448:1529   */\n  iszero\n  tag_39\n  jumpi\n    /* \"#utility.yul\":1525:1526   */\n  0x00\n    /* \"#utility.yul\":1511:1527   */\n  dup2\n  sstore\n    /* \"#utility.yul\":1492:1493   */\n  0x01\n    /* \"#utility.yul\":1481:1494   */\n  add\n    /* \"#utility.yul\":1448:1529   */\n  jump(tag_37)\ntag_39:\n    /* \"#utility.yul\":1452:1455   */\n  pop\n  pop\n    /* \"#utility.yul\":1118:1539   */\ntag_35:\n    /* \"#utility.yul\":1027:1545   */\n  pop\n  pop\n  pop\n  jump\t// out\n    /* \"#utility.yul\":1721:3020   */\ntag_9:\n    /* \"#utility.yul\":1841:1851   */\n  dup2\n  mload\n  sub(shl(0x40, 0x01), 0x01)\n    /* \"#utility.yul\":1863:1893   */\n  dup2\n  gt\n    /* \"#utility.yul\":1860:1916   */\n  iszero\n  tag_43\n  jumpi\n    /* \"#utility.yul\":1896:1914   */\n  tag_43\n  tag_20\n  jump\t// in\ntag_43:\n    /* \"#utility.yul\":1925:2022   */\n  tag_44\n    /* \"#utility.yul\":2015:2021   */\n  dup2\n    /* \"#utility.yul\":1975:2013   */\n  tag_45\n    /* \"#utility.yul\":2007:2011   */\n  dup5\n    /* \"#utility.yul\":2001:2012   */\n  sload\n    /* \"#utility.yul\":1975:2013   */\n  tag_21\n  jump\t// in\ntag_45:\n    /* \"#utility.yul\":1969:1973   */\n  dup5\n    /* \"#utility.yul\":1925:2022   */\n  tag_23\n  jump\t// in\ntag_44:\n    /* \"#utility.yul\":2071:2075   */\n  0x20\n    /* \"#utility.yul\":2102:2104   */\n  0x1f\n    /* \"#utility.yul\":2091:2105   */\n  dup3\n  gt\n    /* \"#utility.yul\":2119:2120   */\n  0x01\n    /* \"#utility.yul\":2114:2763   */\n  dup2\n  eq\n  tag_47\n  jumpi\n    /* \"#utility.yul\":2807:2808   */\n  0x00\n    /* \"#utility.yul\":2824:2830   */\n  dup4\n    /* \"#utility.yul\":2821:2910   */\n  iszero\n  tag_48\n  jumpi\n  pop\n    /* \"#utility.yul\":2876:2895   */\n  dup5\n  dup3\n  add\n    /* \"#utility.yul\":2870:2896   */\n  mload\n    /* \"#utility.yul\":2821:2910   */\ntag_48:\n  not(0x00)\n    /* \"#utility.yul\":1678:1679   */\n  0x03\n    /* \"#utility.yul\":1674:1685   */\n  dup6\n  swap1\n  shl\n    /* \"#utility.yul\":1670:1694   */\n  shr\n    /* \"#utility.yul\":1666:1695   */\n  not\n    /* \"#utility.yul\":1656:1696   */\n  and\n    /* \"#utility.yul\":1702:1703   */\n  0x01\n    /* \"#utility.yul\":1698:1709   */\n  dup5\n  swap1\n  shl\n    /* \"#utility.yul\":1653:1710   */\n  or\n    /* \"#utility.yul\":2923:3004   */\n  dup5\n  sstore\n    /* \"#utility.yul\":2084:3014   */\n  jump(tag_39)\n    /* \"#utility.yul\":2114:2763   */\ntag_47:\n    /* \"#utility.yul\":974:975   */\n  0x00\n    /* \"#utility.yul\":967:981   */\n  dup5\n  dup2\n  mstore\n    /* \"#utility.yul\":1011:1015   */\n  0x20\n    /* \"#utility.yul\":998:1016   */\n  dup2\n  keccak256\n  not(0x1f)\n    /* \"#utility.yul\":2150:2170   */\n  dup6\n  and\n  swap2\n    /* \"#utility.yul\":2268:2490   */\ntag_51:\n    /* \"#utility.yul\":2282:2289   */\n  dup3\n    /* \"#utility.yul\":2279:2280   */\n  dup2\n    /* \"#utility.yul\":2276:2290   */\n  lt\n    /* \"#utility.yul\":2268:2490   */\n  iszero\n  tag_53\n  jumpi\n    /* \"#utility.yul\":2364:2383   */\n  dup8\n  dup6\n  add\n    /* \"#utility.yul\":2358:2384   */\n  mload\n    /* \"#utility.yul\":2343:2385   */\n  dup3\n  sstore\n    /* \"#utility.yul\":2471:2475   */\n  0x20\n    /* \"#utility.yul\":2456:2476   */\n  swap5\n  dup6\n  add\n  swap5\n    /* \"#utility.yul\":2424:2425   */\n  0x01\n    /* \"#utility.yul\":2412:2426   */\n  swap1\n  swap3\n  add\n  swap2\n    /* \"#utility.yul\":2298:2310   */\n  add\n    /* \"#utility.yul\":2268:2490   */\n  jump(tag_51)\ntag_53:\n    /* \"#utility.yul\":2272:2275   */\n  pop\n    /* \"#utility.yul\":2518:2524   */\n  dup5\n    /* \"#utility.yul\":2509:2516   */\n  dup3\n    /* \"#utility.yul\":2506:2525   */\n  lt\n    /* \"#utility.yul\":2503:2704   */\n  iszero\n  tag_54\n  jumpi\n    /* \"#utility.yul\":2579:2598   */\n  dup7\n  dup5\n  add\n    /* \"#utility.yul\":2573:2599   */\n  mload\n  not(0x00)\n    /* \"#utility.yul\":2662:2663   */\n  0x03\n    /* \"#utility.yul\":2658:2672   */\n  dup8\n  swap1\n  shl\n    /* \"#utility.yul\":2674:2677   */\n  0xf8\n    /* \"#utility.yul\":2654:2678   */\n  and\n    /* \"#utility.yul\":2650:2687   */\n  shr\n    /* \"#utility.yul\":2646:2688   */\n  not\n    /* \"#utility.yul\":2631:2689   */\n  and\n    /* \"#utility.yul\":2616:2690   */\n  dup2\n  sstore\n    /* \"#utility.yul\":2503:2704   */\ntag_54:\n  pop\n  pop\n  pop\n  pop\n    /* \"#utility.yul\":2750:2751   */\n  0x01\n    /* \"#utility.yul\":2734:2748   */\n  swap1\n  dup2\n  shl\n    /* \"#utility.yul\":2730:2752   */\n  add\n    /* \"#utility.yul\":2717:2753   */\n  swap1\n  sstore\n  pop\n    /* \"#utility.yul\":1721:3020   */\n  jump\t// out\n    /* \"#utility.yul\":3025:3228   */\ntag_25:\n    /* \"contracts/BananaNFT.sol\":382:3150  contract BananaNFT is ERC721Enumerable, Ownable {... */\n  dataSize(sub_0)\n  dup1\n  dataOffset(sub_0)\n  0x00\n  codecopy\n  0x00\n  return\nstop\n\nsub_0: assembly {\n        /* \"contracts/BananaNFT.sol\":382:3150  contract BananaNFT is ERC721Enumerable, Ownable {... */\n      mstore(0x40, 0x80)\n      jumpi(tag_1, lt(calldatasize, 0x04))\n      shr(0xe0, calldataload(0x00))\n      dup1\n      0x6352211e\n      gt\n      tag_37\n      jumpi\n      dup1\n      0xb88d4fde\n      gt\n      tag_38\n      jumpi\n      dup1\n      0xe985e9c5\n      gt\n      tag_39\n      jumpi\n      dup1\n      0xe985e9c5\n      eq\n      tag_32\n      jumpi\n      dup1\n      0xed338ff1\n      eq\n      tag_33\n      jumpi\n      dup1\n      0xf2fde38b\n      eq\n      tag_34\n      jumpi\n      dup1\n      0xf4a0a528\n      eq\n      tag_35\n      jumpi\n      dup1\n      0xfc0c546a\n      eq\n      tag_36\n      jumpi\n      0x00\n      dup1\n      revert\n    tag_39:\n      dup1\n      0xb88d4fde\n      eq\n      tag_28\n      jumpi\n      dup1\n      0xc87b56dd\n      eq\n      tag_29\n      jumpi\n      dup1\n      0xd85d3d27\n      eq\n      tag_30\n      jumpi\n      dup1\n      0xde8b51e1\n      eq\n      tag_31\n      jumpi\n      0x00\n      dup1\n      revert\n    tag_38:\n      dup1\n      0x70a08231\n      gt\n      tag_40\n      jumpi\n      dup1\n      0x70a08231\n      eq\n      tag_23\n      jumpi\n      dup1\n      0x715018a6\n      eq\n      tag_24\n      jumpi\n      dup1\n      0x8da5cb5b\n      eq\n      tag_25\n      jumpi\n      dup1\n      0x95d89b41\n      eq\n      tag_26\n      jumpi\n      dup1\n      0xa22cb465\n      eq\n      tag_27\n      jumpi\n      0x00\n      dup1\n      revert\n    tag_40:\n      dup1\n      0x6352211e\n      eq\n      tag_19\n      jumpi\n      dup1\n      0x6817c76c\n      eq\n      tag_20\n      jumpi\n      dup1\n      0x6aa71d18\n      eq\n      tag_21\n      jumpi\n      dup1\n      0x7080d6fc\n      eq\n      tag_22\n      jumpi\n      0x00\n      dup1\n      revert\n    tag_37:\n      dup1\n      0x0e3ab61d\n      gt\n      tag_41\n      jumpi\n      dup1\n      0x2f745c59\n      gt\n      tag_42\n      jumpi\n      dup1\n      0x2f745c59\n      eq\n      tag_14\n      jumpi\n      dup1\n      0x3ccfd60b\n      eq\n      tag_15\n      jumpi\n      dup1\n      0x42842e0e\n      eq\n      tag_16\n      jumpi\n      dup1\n      0x4f6ccce7\n      eq\n      tag_17\n      jumpi\n      dup1\n      0x537efe31\n      eq\n      tag_18\n      jumpi\n      0x00\n      dup1\n      revert\n    tag_42:\n      dup1\n      0x0e3ab61d\n      eq\n      tag_10\n      jumpi\n      dup1\n      0x0e726e6b\n      eq\n      tag_11\n      jumpi\n      dup1\n      0x18160ddd\n      eq\n      tag_12\n      jumpi\n      dup1\n      0x23b872dd\n      eq\n      tag_13\n      jumpi\n      0x00\n      dup1\n      revert\n    tag_41:\n      dup1\n      0x06fdde03\n      gt\n      tag_43\n      jumpi\n      dup1\n      0x06fdde03\n      eq\n      tag_6\n      jumpi\n      dup1\n      0x081812fc\n      eq\n      tag_7\n      jumpi\n      dup1\n      0x095ea7b3\n      eq\n      tag_8\n      jumpi\n      dup1\n      0x0bb78ec1\n      eq\n      tag_9\n      jumpi\n      0x00\n      dup1\n      revert\n    tag_43:\n      dup1\n      0x9a9b7b\n      eq\n      tag_2\n      jumpi\n      dup1\n      0x01ffc9a7\n      eq\n      tag_3\n      jumpi\n      dup1\n      0x03e69146\n      eq\n      tag_4\n      jumpi\n      dup1\n      0x06dbc131\n      eq\n      tag_5\n      jumpi\n    tag_1:\n      0x00\n      dup1\n      revert\n        /* \"contracts/BananaNFT.sol\":2936:3033  function currentTokenId() public view returns (uint256) {... */\n    tag_2:\n      callvalue\n      dup1\n      iszero\n      tag_44\n      jumpi\n      0x00\n      dup1\n      revert\n    tag_44:\n      pop\n        /* \"contracts/BananaNFT.sol\":3010:3025  _tokenIdCounter */\n      sload(0x0b)\n        /* \"contracts/BananaNFT.sol\":2936:3033  function currentTokenId() public view returns (uint256) {... */\n    tag_45:\n      mload(0x40)\n        /* \"#utility.yul\":160:185   */\n      swap1\n      dup2\n      mstore\n        /* \"#utility.yul\":148:150   */\n      0x20\n        /* \"#utility.yul\":133:151   */\n      add\n        /* \"contracts/BananaNFT.sol\":2936:3033  function currentTokenId() public view returns (uint256) {... */\n    tag_47:\n      mload(0x40)\n      dup1\n      swap2\n      sub\n      swap1\n      return\n        /* \"@openzeppelin/contracts/token/ERC721/extensions/ERC721Enumerable.sol\":1435:1657  function supportsInterface(bytes4 interfaceId) public view virtual override(IERC165, ERC721) returns (bool) {... */\n    tag_3:\n      callvalue\n      dup1\n      iszero\n      tag_49\n      jumpi\n      0x00\n      dup1\n      revert\n    tag_49:\n      pop\n      tag_50\n      tag_51\n      calldatasize\n      0x04\n      tag_52\n      jump\t// in\n    tag_51:\n      tag_53\n      jump\t// in\n    tag_50:\n      mload(0x40)\n        /* \"#utility.yul\":747:761   */\n      swap1\n      iszero\n        /* \"#utility.yul\":740:762   */\n      iszero\n        /* \"#utility.yul\":722:763   */\n      dup2\n      mstore\n        /* \"#utility.yul\":710:712   */\n      0x20\n        /* \"#utility.yul\":695:713   */\n      add\n        /* \"@openzeppelin/contracts/token/ERC721/extensions/ERC721Enumerable.sol\":1435:1657  function supportsInterface(bytes4 interfaceId) public view virtual override(IERC165, ERC721) returns (bool) {... */\n      tag_47\n        /* \"#utility.yul\":582:769   */\n      jump\n        /* \"contracts/BananaNFT.sol\":763:803  mapping(address => bool) public isOnline */\n    tag_4:\n      callvalue\n      dup1\n      iszero\n      tag_56\n      jumpi\n      0x00\n      dup1\n      revert\n    tag_56:\n      pop\n      tag_50\n      tag_58\n      calldatasize\n      0x04\n      tag_59\n      jump\t// in\n    tag_58:\n      mstore(0x20, 0x13)\n      0x00\n      swap1\n      dup2\n      mstore\n      0x40\n      swap1\n      keccak256\n      sload\n      0xff\n      and\n      dup2\n      jump\n        /* \"contracts/BananaNFT.sol\":1922:2061  function judgeMint() external view returns (uint256 nextMintTime) {... */\n    tag_5:\n      callvalue\n      dup1\n      iszero\n      tag_62\n      jumpi\n      0x00\n      dup1\n      revert\n    tag_62:\n      pop\n      tag_45\n      tag_64\n      jump\t// in\n        /* \"@openzeppelin/contracts/token/ERC721/ERC721.sol\":2365:2454  function name() public view virtual returns (string memory) {... */\n    tag_6:\n      callvalue\n      dup1\n      iszero\n      tag_66\n      jumpi\n      0x00\n      dup1\n      revert\n    tag_66:\n      pop\n      tag_67\n      tag_68\n      jump\t// in\n    tag_67:\n      mload(0x40)\n      tag_47\n      swap2\n      swap1\n      tag_70\n      jump\t// in\n        /* \"@openzeppelin/contracts/token/ERC721/ERC721.sol\":3497:3651  function getApproved(uint256 tokenId) public view virtual returns (address) {... */\n    tag_7:\n      callvalue\n      dup1\n      iszero\n      tag_71\n      jumpi\n      0x00\n      dup1\n      revert\n    tag_71:\n      pop\n      tag_72\n      tag_73\n      calldatasize\n      0x04\n      tag_74\n      jump\t// in\n    tag_73:\n      tag_75\n      jump\t// in\n    tag_72:\n      mload(0x40)\n      sub(shl(0xa0, 0x01), 0x01)\n        /* \"#utility.yul\":2168:2200   */\n      swap1\n      swap2\n      and\n        /* \"#utility.yul\":2150:2201   */\n      dup2\n      mstore\n        /* \"#utility.yul\":2138:2140   */\n      0x20\n        /* \"#utility.yul\":2123:2141   */\n      add\n        /* \"@openzeppelin/contracts/token/ERC721/ERC721.sol\":3497:3651  function getApproved(uint256 tokenId) public view virtual returns (address) {... */\n      tag_47\n        /* \"#utility.yul\":2004:2207   */\n      jump\n        /* \"@openzeppelin/contracts/token/ERC721/ERC721.sol\":3323:3436  function approve(address to, uint256 tokenId) public virtual {... */\n    tag_8:\n      callvalue\n      dup1\n      iszero\n      tag_78\n      jumpi\n      0x00\n      dup1\n      revert\n    tag_78:\n      pop\n      tag_79\n      tag_80\n      calldatasize\n      0x04\n      tag_81\n      jump\t// in\n    tag_80:\n      tag_82\n      jump\t// in\n    tag_79:\n      stop\n        /* \"contracts/BananaNFT.sol\":650:702  mapping(uint256 tokenId => string) public _tokenURIs */\n    tag_9:\n      callvalue\n      dup1\n      iszero\n      tag_83\n      jumpi\n      0x00\n      dup1\n      revert\n    tag_83:\n      pop\n      tag_67\n      tag_85\n      calldatasize\n      0x04\n      tag_74\n      jump\t// in\n    tag_85:\n      tag_86\n      jump\t// in\n        /* \"contracts/BananaNFT.sol\":1075:1190  function startSale(uint256 duration) external onlyOwner {... */\n    tag_10:\n      callvalue\n      dup1\n      iszero\n      tag_88\n      jumpi\n      0x00\n      dup1\n      revert\n    tag_88:\n      pop\n      tag_79\n      tag_90\n      calldatasize\n      0x04\n      tag_74\n      jump\t// in\n    tag_90:\n      tag_91\n      jump\t// in\n        /* \"contracts/BananaNFT.sol\":549:576  uint256 public mintInterval */\n    tag_11:\n      callvalue\n      dup1\n      iszero\n      tag_92\n      jumpi\n      0x00\n      dup1\n      revert\n    tag_92:\n      pop\n      tag_45\n      sload(0x0e)\n      dup2\n      jump\n        /* \"@openzeppelin/contracts/token/ERC721/extensions/ERC721Enumerable.sol\":2062:2164  function totalSupply() public view virtual returns (uint256) {... */\n    tag_12:\n      callvalue\n      dup1\n      iszero\n      tag_96\n      jumpi\n      0x00\n      dup1\n      revert\n    tag_96:\n      pop\n        /* \"@openzeppelin/contracts/token/ERC721/extensions/ERC721Enumerable.sol\":2140:2150  _allTokens */\n      0x08\n        /* \"@openzeppelin/contracts/token/ERC721/extensions/ERC721Enumerable.sol\":2140:2157  _allTokens.length */\n      sload\n        /* \"@openzeppelin/contracts/token/ERC721/extensions/ERC721Enumerable.sol\":2062:2164  function totalSupply() public view virtual returns (uint256) {... */\n      jump(tag_45)\n        /* \"@openzeppelin/contracts/token/ERC721/ERC721.sol\":4143:4721  function transferFrom(address from, address to, uint256 tokenId) public virtual {... */\n    tag_13:\n      callvalue\n      dup1\n      iszero\n      tag_100\n      jumpi\n      0x00\n      dup1\n      revert\n    tag_100:\n      pop\n      tag_79\n      tag_102\n      calldatasize\n      0x04\n      tag_103\n      jump\t// in\n    tag_102:\n      tag_104\n      jump\t// in\n        /* \"@openzeppelin/contracts/token/ERC721/extensions/ERC721Enumerable.sol\":1736:1991  function tokenOfOwnerByIndex(address owner, uint256 index) public view virtual returns (uint256) {... */\n    tag_14:\n      callvalue\n      dup1\n      iszero\n      tag_105\n      jumpi\n      0x00\n      dup1\n      revert\n    tag_105:\n      pop\n      tag_45\n      tag_107\n      calldatasize\n      0x04\n      tag_81\n      jump\t// in\n    tag_107:\n      tag_108\n      jump\t// in\n        /* \"contracts/BananaNFT.sol\":3041:3147  function withdraw() external onlyOwner {... */\n    tag_15:\n      callvalue\n      dup1\n      iszero\n      tag_110\n      jumpi\n      0x00\n      dup1\n      revert\n    tag_110:\n      pop\n      tag_79\n      tag_112\n      jump\t// in\n        /* \"@openzeppelin/contracts/token/ERC721/ERC721.sol\":4787:4919  function safeTransferFrom(address from, address to, uint256 tokenId) public {... */\n    tag_16:\n      callvalue\n      dup1\n      iszero\n      tag_113\n      jumpi\n      0x00\n      dup1\n      revert\n    tag_113:\n      pop\n      tag_79\n      tag_115\n      calldatasize\n      0x04\n      tag_103\n      jump\t// in\n    tag_115:\n      tag_116\n      jump\t// in\n        /* \"@openzeppelin/contracts/token/ERC721/extensions/ERC721Enumerable.sol\":2236:2462  function tokenByIndex(uint256 index) public view virtual returns (uint256) {... */\n    tag_17:\n      callvalue\n      dup1\n      iszero\n      tag_117\n      jumpi\n      0x00\n      dup1\n      revert\n    tag_117:\n      pop\n      tag_45\n      tag_119\n      calldatasize\n      0x04\n      tag_74\n      jump\t// in\n    tag_119:\n      tag_120\n      jump\t// in\n        /* \"contracts/BananaNFT.sol\":1426:1914  function payToMint(string memory uri) external payable returns (uint256) {... */\n    tag_18:\n      tag_45\n      tag_123\n      calldatasize\n      0x04\n      tag_124\n      jump\t// in\n    tag_123:\n      tag_125\n      jump\t// in\n        /* \"@openzeppelin/contracts/token/ERC721/ERC721.sol\":2185:2303  function ownerOf(uint256 tokenId) public view virtual returns (address) {... */\n    tag_19:\n      callvalue\n      dup1\n      iszero\n      tag_127\n      jumpi\n      0x00\n      dup1\n      revert\n    tag_127:\n      pop\n      tag_72\n      tag_129\n      calldatasize\n      0x04\n      tag_74\n      jump\t// in\n    tag_129:\n      tag_130\n      jump\t// in\n        /* \"contracts/BananaNFT.sol\":505:542  uint256 public mintPrice = 0.01 ether */\n    tag_20:\n      callvalue\n      dup1\n      iszero\n      tag_132\n      jumpi\n      0x00\n      dup1\n      revert\n    tag_132:\n      pop\n      tag_45\n      sload(0x0d)\n      dup2\n      jump\n        /* \"contracts/BananaNFT.sol\":709:756  mapping(address => uint256) public lastMintTime */\n    tag_21:\n      callvalue\n      dup1\n      iszero\n      tag_136\n      jumpi\n      0x00\n      dup1\n      revert\n    tag_136:\n      pop\n      tag_45\n      tag_138\n      calldatasize\n      0x04\n      tag_59\n      jump\t// in\n    tag_138:\n      mstore(0x20, 0x12)\n      0x00\n      swap1\n      dup2\n      mstore\n      0x40\n      swap1\n      keccak256\n      sload\n      dup2\n      jump\n        /* \"contracts/BananaNFT.sol\":616:641  bool public _isSaleActive */\n    tag_22:\n      callvalue\n      dup1\n      iszero\n      tag_141\n      jumpi\n      0x00\n      dup1\n      revert\n    tag_141:\n      pop\n      sload(0x10)\n      tag_50\n      swap1\n      0xff\n      and\n      dup2\n      jump\n        /* \"@openzeppelin/contracts/token/ERC721/ERC721.sol\":1920:2128  function balanceOf(address owner) public view virtual returns (uint256) {... */\n    tag_23:\n      callvalue\n      dup1\n      iszero\n      tag_145\n      jumpi\n      0x00\n      dup1\n      revert\n    tag_145:\n      pop\n      tag_45\n      tag_147\n      calldatasize\n      0x04\n      tag_59\n      jump\t// in\n    tag_147:\n      tag_148\n      jump\t// in\n        /* \"@openzeppelin/contracts/access/Ownable.sol\":2293:2394  function renounceOwnership() public virtual onlyOwner {... */\n    tag_24:\n      callvalue\n      dup1\n      iszero\n      tag_150\n      jumpi\n      0x00\n      dup1\n      revert\n    tag_150:\n      pop\n      tag_79\n      tag_152\n      jump\t// in\n        /* \"@openzeppelin/contracts/access/Ownable.sol\":1638:1723  function owner() public view virtual returns (address) {... */\n    tag_25:\n      callvalue\n      dup1\n      iszero\n      tag_153\n      jumpi\n      0x00\n      dup1\n      revert\n    tag_153:\n      pop\n        /* \"@openzeppelin/contracts/access/Ownable.sol\":1710:1716  _owner */\n      and(sub(shl(0xa0, 0x01), 0x01), sload(0x0a))\n        /* \"@openzeppelin/contracts/access/Ownable.sol\":1638:1723  function owner() public view virtual returns (address) {... */\n      jump(tag_72)\n        /* \"@openzeppelin/contracts/token/ERC721/ERC721.sol\":2518:2611  function symbol() public view virtual returns (string memory) {... */\n    tag_26:\n      callvalue\n      dup1\n      iszero\n      tag_157\n      jumpi\n      0x00\n      dup1\n      revert\n    tag_157:\n      pop\n      tag_67\n      tag_159\n      jump\t// in\n        /* \"@openzeppelin/contracts/token/ERC721/ERC721.sol\":3718:3862  function setApprovalForAll(address operator, bool approved) public virtual {... */\n    tag_27:\n      callvalue\n      dup1\n      iszero\n      tag_161\n      jumpi\n      0x00\n      dup1\n      revert\n    tag_161:\n      pop\n      tag_79\n      tag_163\n      calldatasize\n      0x04\n      tag_164\n      jump\t// in\n    tag_163:\n      tag_165\n      jump\t// in\n        /* \"@openzeppelin/contracts/token/ERC721/ERC721.sol\":4985:5193  function safeTransferFrom(address from, address to, uint256 tokenId, bytes memory data) public virtual {... */\n    tag_28:\n      callvalue\n      dup1\n      iszero\n      tag_166\n      jumpi\n      0x00\n      dup1\n      revert\n    tag_166:\n      pop\n      tag_79\n      tag_168\n      calldatasize\n      0x04\n      tag_169\n      jump\t// in\n    tag_168:\n      tag_170\n      jump\t// in\n        /* \"contracts/BananaNFT.sol\":1198:1418  function tokenURI(... */\n    tag_29:\n      callvalue\n      dup1\n      iszero\n      tag_171\n      jumpi\n      0x00\n      dup1\n      revert\n    tag_171:\n      pop\n      tag_67\n      tag_173\n      calldatasize\n      0x04\n      tag_74\n      jump\t// in\n    tag_173:\n      tag_174\n      jump\t// in\n        /* \"contracts/BananaNFT.sol\":2069:2552  function mint(string memory uri) external returns (uint256) {... */\n    tag_30:\n      callvalue\n      dup1\n      iszero\n      tag_176\n      jumpi\n      0x00\n      dup1\n      revert\n    tag_176:\n      pop\n      tag_45\n      tag_178\n      calldatasize\n      0x04\n      tag_124\n      jump\t// in\n    tag_178:\n      tag_179\n      jump\t// in\n        /* \"contracts/BananaNFT.sol\":2724:2818  function flipSaleActive() external onlyOwner {... */\n    tag_31:\n      callvalue\n      dup1\n      iszero\n      tag_181\n      jumpi\n      0x00\n      dup1\n      revert\n    tag_181:\n      pop\n      tag_79\n      tag_183\n      jump\t// in\n        /* \"@openzeppelin/contracts/token/ERC721/ERC721.sol\":3928:4081  function isApprovedForAll(address owner, address operator) public view virtual returns (bool) {... */\n    tag_32:\n      callvalue\n      dup1\n      iszero\n      tag_184\n      jumpi\n      0x00\n      dup1\n      revert\n    tag_184:\n      pop\n      tag_50\n      tag_186\n      calldatasize\n      0x04\n      tag_187\n      jump\t// in\n    tag_186:\n      tag_188\n      jump\t// in\n        /* \"contracts/BananaNFT.sol\":583:609  uint256 public saleEndTime */\n    tag_33:\n      callvalue\n      dup1\n      iszero\n      tag_190\n      jumpi\n      0x00\n      dup1\n      revert\n    tag_190:\n      pop\n      tag_45\n      sload(0x0f)\n      dup2\n      jump\n        /* \"@openzeppelin/contracts/access/Ownable.sol\":2543:2758  function transferOwnership(address newOwner) public virtual onlyOwner {... */\n    tag_34:\n      callvalue\n      dup1\n      iszero\n      tag_194\n      jumpi\n      0x00\n      dup1\n      revert\n    tag_194:\n      pop\n      tag_79\n      tag_196\n      calldatasize\n      0x04\n      tag_59\n      jump\t// in\n    tag_196:\n      tag_197\n      jump\t// in\n        /* \"contracts/BananaNFT.sol\":2826:2928  function setMintPrice(uint256 _mintPrice) external onlyOwner {... */\n    tag_35:\n      callvalue\n      dup1\n      iszero\n      tag_198\n      jumpi\n      0x00\n      dup1\n      revert\n    tag_198:\n      pop\n      tag_79\n      tag_200\n      calldatasize\n      0x04\n      tag_74\n      jump\t// in\n    tag_200:\n      tag_201\n      jump\t// in\n        /* \"contracts/BananaNFT.sol\":479:498  IERC20 public token */\n    tag_36:\n      callvalue\n      dup1\n      iszero\n      tag_202\n      jumpi\n      0x00\n      dup1\n      revert\n    tag_202:\n      pop\n      sload(0x0c)\n      tag_72\n      swap1\n      sub(shl(0xa0, 0x01), 0x01)\n      and\n      dup2\n      jump\n        /* \"@openzeppelin/contracts/token/ERC721/extensions/ERC721Enumerable.sol\":1435:1657  function supportsInterface(bytes4 interfaceId) public view virtual override(IERC165, ERC721) returns (bool) {... */\n    tag_53:\n        /* \"@openzeppelin/contracts/token/ERC721/extensions/ERC721Enumerable.sol\":1537:1541  bool */\n      0x00\n      not(sub(shl(0xe0, 0x01), 0x01))\n        /* \"@openzeppelin/contracts/token/ERC721/extensions/ERC721Enumerable.sol\":1560:1610  interfaceId == type(IERC721Enumerable).interfaceId */\n      dup3\n      and\n      shl(0xe0, 0x780e9d63)\n      eq\n      dup1\n        /* \"@openzeppelin/contracts/token/ERC721/extensions/ERC721Enumerable.sol\":1560:1650  interfaceId == type(IERC721Enumerable).interfaceId || super.supportsInterface(interfaceId) */\n      tag_210\n      jumpi\n      pop\n        /* \"@openzeppelin/contracts/token/ERC721/extensions/ERC721Enumerable.sol\":1614:1650  super.supportsInterface(interfaceId) */\n      tag_210\n        /* \"@openzeppelin/contracts/token/ERC721/extensions/ERC721Enumerable.sol\":1638:1649  interfaceId */\n      dup3\n        /* \"@openzeppelin/contracts/token/ERC721/extensions/ERC721Enumerable.sol\":1614:1637  super.supportsInterface */\n      tag_211\n        /* \"@openzeppelin/contracts/token/ERC721/extensions/ERC721Enumerable.sol\":1614:1650  super.supportsInterface(interfaceId) */\n      jump\t// in\n    tag_210:\n        /* \"@openzeppelin/contracts/token/ERC721/extensions/ERC721Enumerable.sol\":1553:1650  return interfaceId == type(IERC721Enumerable).interfaceId || super.supportsInterface(interfaceId) */\n      swap3\n        /* \"@openzeppelin/contracts/token/ERC721/extensions/ERC721Enumerable.sol\":1435:1657  function supportsInterface(bytes4 interfaceId) public view virtual override(IERC165, ERC721) returns (bool) {... */\n      swap2\n      pop\n      pop\n      jump\t// out\n        /* \"contracts/BananaNFT.sol\":1922:2061  function judgeMint() external view returns (uint256 nextMintTime) {... */\n    tag_64:\n        /* \"contracts/BananaNFT.sol\":2041:2053  mintInterval */\n      sload(0x0e)\n        /* \"contracts/BananaNFT.sol\":2027:2037  msg.sender */\n      caller\n        /* \"contracts/BananaNFT.sol\":1966:1986  uint256 nextMintTime */\n      0x00\n        /* \"contracts/BananaNFT.sol\":2014:2038  lastMintTime[msg.sender] */\n      swap1\n      dup2\n      mstore\n        /* \"contracts/BananaNFT.sol\":2014:2026  lastMintTime */\n      0x12\n        /* \"contracts/BananaNFT.sol\":2014:2038  lastMintTime[msg.sender] */\n      0x20\n      mstore\n      0x40\n      dup2\n      keccak256\n      sload\n        /* \"contracts/BananaNFT.sol\":1966:1986  uint256 nextMintTime */\n      swap1\n      swap2\n        /* \"contracts/BananaNFT.sol\":2014:2053  lastMintTime[msg.sender] + mintInterval */\n      tag_213\n      swap2\n      tag_214\n      jump\t// in\n    tag_213:\n        /* \"contracts/BananaNFT.sol\":1999:2053  nextMintTime = lastMintTime[msg.sender] + mintInterval */\n      swap1\n      pop\n        /* \"contracts/BananaNFT.sol\":1922:2061  function judgeMint() external view returns (uint256 nextMintTime) {... */\n      swap1\n      jump\t// out\n        /* \"@openzeppelin/contracts/token/ERC721/ERC721.sol\":2365:2454  function name() public view virtual returns (string memory) {... */\n    tag_68:\n        /* \"@openzeppelin/contracts/token/ERC721/ERC721.sol\":2410:2423  string memory */\n      0x60\n        /* \"@openzeppelin/contracts/token/ERC721/ERC721.sol\":2442:2447  _name */\n      0x00\n        /* \"@openzeppelin/contracts/token/ERC721/ERC721.sol\":2435:2447  return _name */\n      dup1\n      sload\n      tag_216\n      swap1\n      tag_217\n      jump\t// in\n    tag_216:\n      dup1\n      0x1f\n      add\n      0x20\n      dup1\n      swap2\n      div\n      mul\n      0x20\n      add\n      mload(0x40)\n      swap1\n      dup2\n      add\n      0x40\n      mstore\n      dup1\n      swap3\n      swap2\n      swap1\n      dup2\n      dup2\n      mstore\n      0x20\n      add\n      dup3\n      dup1\n      sload\n      tag_218\n      swap1\n      tag_217\n      jump\t// in\n    tag_218:\n      dup1\n      iszero\n      tag_219\n      jumpi\n      dup1\n      0x1f\n      lt\n      tag_220\n      jumpi\n      0x0100\n      dup1\n      dup4\n      sload\n      div\n      mul\n      dup4\n      mstore\n      swap2\n      0x20\n      add\n      swap2\n      jump(tag_219)\n    tag_220:\n      dup3\n      add\n      swap2\n      swap1\n      0x00\n      mstore\n      keccak256(0x00, 0x20)\n      swap1\n    tag_221:\n      dup2\n      sload\n      dup2\n      mstore\n      swap1\n      0x01\n      add\n      swap1\n      0x20\n      add\n      dup1\n      dup4\n      gt\n      tag_221\n      jumpi\n      dup3\n      swap1\n      sub\n      0x1f\n      and\n      dup3\n      add\n      swap2\n    tag_219:\n      pop\n      pop\n      pop\n      pop\n      pop\n      swap1\n      pop\n        /* \"@openzeppelin/contracts/token/ERC721/ERC721.sol\":2365:2454  function name() public view virtual returns (string memory) {... */\n      swap1\n      jump\t// out\n        /* \"@openzeppelin/contracts/token/ERC721/ERC721.sol\":3497:3651  function getApproved(uint256 tokenId) public view virtual returns (address) {... */\n    tag_75:\n        /* \"@openzeppelin/contracts/token/ERC721/ERC721.sol\":3564:3571  address */\n      0x00\n        /* \"@openzeppelin/contracts/token/ERC721/ERC721.sol\":3583:3605  _requireOwned(tokenId) */\n      tag_223\n        /* \"@openzeppelin/contracts/token/ERC721/ERC721.sol\":3597:3604  tokenId */\n      dup3\n        /* \"@openzeppelin/contracts/token/ERC721/ERC721.sol\":3583:3596  _requireOwned */\n      tag_224\n        /* \"@openzeppelin/contracts/token/ERC721/ERC721.sol\":3583:3605  _requireOwned(tokenId) */\n      jump\t// in\n    tag_223:\n      pop\n        /* \"@openzeppelin/contracts/token/ERC721/ERC721.sol\":6008:6015  address */\n      0x00\n        /* \"@openzeppelin/contracts/token/ERC721/ERC721.sol\":6034:6058  _tokenApprovals[tokenId] */\n      dup3\n      dup2\n      mstore\n        /* \"@openzeppelin/contracts/token/ERC721/ERC721.sol\":6034:6049  _tokenApprovals */\n      0x04\n        /* \"@openzeppelin/contracts/token/ERC721/ERC721.sol\":6034:6058  _tokenApprovals[tokenId] */\n      0x20\n      mstore\n      0x40\n      swap1\n      keccak256\n      sload\n      sub(shl(0xa0, 0x01), 0x01)\n      and\n        /* \"@openzeppelin/contracts/token/ERC721/ERC721.sol\":3623:3644  _getApproved(tokenId) */\n      tag_210\n        /* \"@openzeppelin/contracts/token/ERC721/ERC721.sol\":5938:6065  function _getApproved(uint256 tokenId) internal view virtual returns (address) {... */\n      jump\n        /* \"@openzeppelin/contracts/token/ERC721/ERC721.sol\":3323:3436  function approve(address to, uint256 tokenId) public virtual {... */\n    tag_82:\n        /* \"@openzeppelin/contracts/token/ERC721/ERC721.sol\":3394:3429  _approve(to, tokenId, _msgSender()) */\n      tag_228\n        /* \"@openzeppelin/contracts/token/ERC721/ERC721.sol\":3403:3405  to */\n      dup3\n        /* \"@openzeppelin/contracts/token/ERC721/ERC721.sol\":3407:3414  tokenId */\n      dup3\n        /* \"@openzeppelin/contracts/utils/Context.sol\":735:745  msg.sender */\n      caller\n        /* \"@openzeppelin/contracts/token/ERC721/ERC721.sol\":3394:3402  _approve */\n      tag_231\n        /* \"@openzeppelin/contracts/token/ERC721/ERC721.sol\":3394:3429  _approve(to, tokenId, _msgSender()) */\n      jump\t// in\n    tag_228:\n        /* \"@openzeppelin/contracts/token/ERC721/ERC721.sol\":3323:3436  function approve(address to, uint256 tokenId) public virtual {... */\n      pop\n      pop\n      jump\t// out\n        /* \"contracts/BananaNFT.sol\":650:702  mapping(uint256 tokenId => string) public _tokenURIs */\n    tag_86:\n      mstore(0x20, 0x11)\n      0x00\n      swap1\n      dup2\n      mstore\n      0x40\n      swap1\n      keccak256\n      dup1\n      sload\n      tag_232\n      swap1\n      tag_217\n      jump\t// in\n    tag_232:\n      dup1\n      0x1f\n      add\n      0x20\n      dup1\n      swap2\n      div\n      mul\n      0x20\n      add\n      mload(0x40)\n      swap1\n      dup2\n      add\n      0x40\n      mstore\n      dup1\n      swap3\n      swap2\n      swap1\n      dup2\n      dup2\n      mstore\n      0x20\n      add\n      dup3\n      dup1\n      sload\n      tag_233\n      swap1\n      tag_217\n      jump\t// in\n    tag_233:\n      dup1\n      iszero\n      tag_234\n      jumpi\n      dup1\n      0x1f\n      lt\n      tag_235\n      jumpi\n      0x0100\n      dup1\n      dup4\n      sload\n      div\n      mul\n      dup4\n      mstore\n      swap2\n      0x20\n      add\n      swap2\n      jump(tag_234)\n    tag_235:\n      dup3\n      add\n      swap2\n      swap1\n      0x00\n      mstore\n      keccak256(0x00, 0x20)\n      swap1\n    tag_236:\n      dup2\n      sload\n      dup2\n      mstore\n      swap1\n      0x01\n      add\n      swap1\n      0x20\n      add\n      dup1\n      dup4\n      gt\n      tag_236\n      jumpi\n      dup3\n      swap1\n      sub\n      0x1f\n      and\n      dup3\n      add\n      swap2\n    tag_234:\n      pop\n      pop\n      pop\n      pop\n      pop\n      dup2\n      jump\t// out\n        /* \"contracts/BananaNFT.sol\":1075:1190  function startSale(uint256 duration) external onlyOwner {... */\n    tag_91:\n        /* \"@openzeppelin/contracts/access/Ownable.sol\":1531:1544  _checkOwner() */\n      tag_238\n        /* \"@openzeppelin/contracts/access/Ownable.sol\":1531:1542  _checkOwner */\n      tag_239\n        /* \"@openzeppelin/contracts/access/Ownable.sol\":1531:1544  _checkOwner() */\n      jump\t// in\n    tag_238:\n        /* \"contracts/BananaNFT.sol\":1156:1182  block.timestamp + duration */\n      tag_241\n        /* \"contracts/BananaNFT.sol\":1174:1182  duration */\n      dup2\n        /* \"contracts/BananaNFT.sol\":1156:1171  block.timestamp */\n      timestamp\n        /* \"contracts/BananaNFT.sol\":1156:1182  block.timestamp + duration */\n      tag_214\n      jump\t// in\n    tag_241:\n        /* \"contracts/BananaNFT.sol\":1142:1153  saleEndTime */\n      0x0f\n        /* \"contracts/BananaNFT.sol\":1142:1182  saleEndTime = block.timestamp + duration */\n      sstore\n      pop\n        /* \"contracts/BananaNFT.sol\":1075:1190  function startSale(uint256 duration) external onlyOwner {... */\n      jump\t// out\n        /* \"@openzeppelin/contracts/token/ERC721/ERC721.sol\":4143:4721  function transferFrom(address from, address to, uint256 tokenId) public virtual {... */\n    tag_104:\n      sub(shl(0xa0, 0x01), 0x01)\n        /* \"@openzeppelin/contracts/token/ERC721/ERC721.sol\":4237:4253  to == address(0) */\n      dup3\n      and\n        /* \"@openzeppelin/contracts/token/ERC721/ERC721.sol\":4233:4320  if (to == address(0)) {... */\n      tag_244\n      jumpi\n        /* \"@openzeppelin/contracts/token/ERC721/ERC721.sol\":4276:4309  ERC721InvalidReceiver(address(0)) */\n      mload(0x40)\n      shl(0xe1, 0x32505749)\n      dup2\n      mstore\n        /* \"@openzeppelin/contracts/token/ERC721/ERC721.sol\":4306:4307  0 */\n      0x00\n        /* \"@openzeppelin/contracts/token/ERC721/ERC721.sol\":4276:4309  ERC721InvalidReceiver(address(0)) */\n      0x04\n      dup3\n      add\n        /* \"#utility.yul\":2150:2201   */\n      mstore\n        /* \"#utility.yul\":2123:2141   */\n      0x24\n      add\n        /* \"@openzeppelin/contracts/token/ERC721/ERC721.sol\":4276:4309  ERC721InvalidReceiver(address(0)) */\n    tag_245:\n      mload(0x40)\n      dup1\n      swap2\n      sub\n      swap1\n      revert\n        /* \"@openzeppelin/contracts/token/ERC721/ERC721.sol\":4233:4320  if (to == address(0)) {... */\n    tag_244:\n        /* \"@openzeppelin/contracts/token/ERC721/ERC721.sol\":4538:4559  address previousOwner */\n      0x00\n        /* \"@openzeppelin/contracts/token/ERC721/ERC721.sol\":4562:4596  _update(to, tokenId, _msgSender()) */\n      tag_246\n        /* \"@openzeppelin/contracts/token/ERC721/ERC721.sol\":4570:4572  to */\n      dup4\n        /* \"@openzeppelin/contracts/token/ERC721/ERC721.sol\":4574:4581  tokenId */\n      dup4\n        /* \"@openzeppelin/contracts/utils/Context.sol\":735:745  msg.sender */\n      caller\n        /* \"@openzeppelin/contracts/token/ERC721/ERC721.sol\":4562:4569  _update */\n      tag_248\n        /* \"@openzeppelin/contracts/token/ERC721/ERC721.sol\":4562:4596  _update(to, tokenId, _msgSender()) */\n      jump\t// in\n    tag_246:\n        /* \"@openzeppelin/contracts/token/ERC721/ERC721.sol\":4538:4596  address previousOwner = _update(to, tokenId, _msgSender()) */\n      swap1\n      pop\n        /* \"@openzeppelin/contracts/token/ERC721/ERC721.sol\":4627:4631  from */\n      dup4\n      sub(shl(0xa0, 0x01), 0x01)\n        /* \"@openzeppelin/contracts/token/ERC721/ERC721.sol\":4610:4631  previousOwner != from */\n      and\n        /* \"@openzeppelin/contracts/token/ERC721/ERC721.sol\":4610:4623  previousOwner */\n      dup2\n      sub(shl(0xa0, 0x01), 0x01)\n        /* \"@openzeppelin/contracts/token/ERC721/ERC721.sol\":4610:4631  previousOwner != from */\n      and\n      eq\n        /* \"@openzeppelin/contracts/token/ERC721/ERC721.sol\":4606:4715  if (previousOwner != from) {... */\n      tag_249\n      jumpi\n        /* \"@openzeppelin/contracts/token/ERC721/ERC721.sol\":4654:4704  ERC721IncorrectOwner(from, tokenId, previousOwner) */\n      mload(0x40)\n      shl(0xe0, 0x64283d7b)\n      dup2\n      mstore\n      sub(shl(0xa0, 0x01), 0x01)\n        /* \"#utility.yul\":6629:6661   */\n      dup1\n      dup7\n      and\n        /* \"@openzeppelin/contracts/token/ERC721/ERC721.sol\":4654:4704  ERC721IncorrectOwner(from, tokenId, previousOwner) */\n      0x04\n      dup4\n      add\n        /* \"#utility.yul\":6611:6662   */\n      mstore\n        /* \"#utility.yul\":6678:6696   */\n      0x24\n      dup3\n      add\n        /* \"#utility.yul\":6671:6705   */\n      dup5\n      swap1\n      mstore\n        /* \"#utility.yul\":6741:6773   */\n      dup3\n      and\n        /* \"#utility.yul\":6721:6739   */\n      0x44\n      dup3\n      add\n        /* \"#utility.yul\":6714:6774   */\n      mstore\n        /* \"#utility.yul\":6584:6602   */\n      0x64\n      add\n        /* \"@openzeppelin/contracts/token/ERC721/ERC721.sol\":4654:4704  ERC721IncorrectOwner(from, tokenId, previousOwner) */\n      tag_245\n        /* \"#utility.yul\":6409:6780   */\n      jump\n        /* \"@openzeppelin/contracts/token/ERC721/ERC721.sol\":4606:4715  if (previousOwner != from) {... */\n    tag_249:\n        /* \"@openzeppelin/contracts/token/ERC721/ERC721.sol\":4223:4721  {... */\n      pop\n        /* \"@openzeppelin/contracts/token/ERC721/ERC721.sol\":4143:4721  function transferFrom(address from, address to, uint256 tokenId) public virtual {... */\n      pop\n      pop\n      pop\n      jump\t// out\n        /* \"@openzeppelin/contracts/token/ERC721/extensions/ERC721Enumerable.sol\":1736:1991  function tokenOfOwnerByIndex(address owner, uint256 index) public view virtual returns (uint256) {... */\n    tag_108:\n        /* \"@openzeppelin/contracts/token/ERC721/extensions/ERC721Enumerable.sol\":1824:1831  uint256 */\n      0x00\n        /* \"@openzeppelin/contracts/token/ERC721/extensions/ERC721Enumerable.sol\":1856:1872  balanceOf(owner) */\n      tag_253\n        /* \"@openzeppelin/contracts/token/ERC721/extensions/ERC721Enumerable.sol\":1866:1871  owner */\n      dup4\n        /* \"@openzeppelin/contracts/token/ERC721/extensions/ERC721Enumerable.sol\":1856:1865  balanceOf */\n      tag_148\n        /* \"@openzeppelin/contracts/token/ERC721/extensions/ERC721Enumerable.sol\":1856:1872  balanceOf(owner) */\n      jump\t// in\n    tag_253:\n        /* \"@openzeppelin/contracts/token/ERC721/extensions/ERC721Enumerable.sol\":1847:1852  index */\n      dup3\n        /* \"@openzeppelin/contracts/token/ERC721/extensions/ERC721Enumerable.sol\":1847:1872  index >= balanceOf(owner) */\n      lt\n        /* \"@openzeppelin/contracts/token/ERC721/extensions/ERC721Enumerable.sol\":1843:1942  if (index >= balanceOf(owner)) {... */\n      tag_254\n      jumpi\n        /* \"@openzeppelin/contracts/token/ERC721/extensions/ERC721Enumerable.sol\":1895:1931  ERC721OutOfBoundsIndex(owner, index) */\n      mload(0x40)\n      shl(0xe2, 0x295f44f7)\n      dup2\n      mstore\n      sub(shl(0xa0, 0x01), 0x01)\n        /* \"#utility.yul\":6977:7009   */\n      dup5\n      and\n        /* \"@openzeppelin/contracts/token/ERC721/extensions/ERC721Enumerable.sol\":1895:1931  ERC721OutOfBoundsIndex(owner, index) */\n      0x04\n      dup3\n      add\n        /* \"#utility.yul\":6959:7010   */\n      mstore\n        /* \"#utility.yul\":7026:7044   */\n      0x24\n      dup2\n      add\n        /* \"#utility.yul\":7019:7053   */\n      dup4\n      swap1\n      mstore\n        /* \"#utility.yul\":6932:6950   */\n      0x44\n      add\n        /* \"@openzeppelin/contracts/token/ERC721/extensions/ERC721Enumerable.sol\":1895:1931  ERC721OutOfBoundsIndex(owner, index) */\n      tag_245\n        /* \"#utility.yul\":6785:7059   */\n      jump\n        /* \"@openzeppelin/contracts/token/ERC721/extensions/ERC721Enumerable.sol\":1843:1942  if (index >= balanceOf(owner)) {... */\n    tag_254:\n      pop\n      sub(shl(0xa0, 0x01), 0x01)\n        /* \"@openzeppelin/contracts/token/ERC721/extensions/ERC721Enumerable.sol\":1958:1977  _ownedTokens[owner] */\n      swap2\n      swap1\n      swap2\n      and\n      0x00\n      swap1\n      dup2\n      mstore\n        /* \"@openzeppelin/contracts/token/ERC721/extensions/ERC721Enumerable.sol\":1958:1970  _ownedTokens */\n      0x06\n        /* \"@openzeppelin/contracts/token/ERC721/extensions/ERC721Enumerable.sol\":1958:1977  _ownedTokens[owner] */\n      0x20\n      swap1\n      dup2\n      mstore\n      0x40\n      dup1\n      dup4\n      keccak256\n        /* \"@openzeppelin/contracts/token/ERC721/extensions/ERC721Enumerable.sol\":1958:1984  _ownedTokens[owner][index] */\n      swap4\n      dup4\n      mstore\n      swap3\n      swap1\n      mstore\n      keccak256\n      sload\n      swap1\n        /* \"@openzeppelin/contracts/token/ERC721/extensions/ERC721Enumerable.sol\":1736:1991  function tokenOfOwnerByIndex(address owner, uint256 index) public view virtual returns (uint256) {... */\n      jump\t// out\n        /* \"contracts/BananaNFT.sol\":3041:3147  function withdraw() external onlyOwner {... */\n    tag_112:\n        /* \"@openzeppelin/contracts/access/Ownable.sol\":1531:1544  _checkOwner() */\n      tag_258\n        /* \"@openzeppelin/contracts/access/Ownable.sol\":1531:1542  _checkOwner */\n      tag_239\n        /* \"@openzeppelin/contracts/access/Ownable.sol\":1531:1544  _checkOwner() */\n      jump\t// in\n    tag_258:\n        /* \"@openzeppelin/contracts/access/Ownable.sol\":1710:1716  _owner */\n      sload(0x0a)\n        /* \"contracts/BananaNFT.sol\":3091:3139  payable(owner()).transfer(address(this).balance) */\n      mload(0x40)\n      sub(shl(0xa0, 0x01), 0x01)\n        /* \"@openzeppelin/contracts/access/Ownable.sol\":1710:1716  _owner */\n      swap1\n      swap2\n      and\n      swap1\n        /* \"contracts/BananaNFT.sol\":3117:3138  address(this).balance */\n      selfbalance\n        /* \"contracts/BananaNFT.sol\":3091:3139  payable(owner()).transfer(address(this).balance) */\n      dup1\n      iszero\n      0x08fc\n      mul\n      swap2\n      0x00\n      dup2\n      dup2\n      dup2\n        /* \"contracts/BananaNFT.sol\":3117:3138  address(this).balance */\n      dup6\n        /* \"@openzeppelin/contracts/access/Ownable.sol\":1710:1716  _owner */\n      dup9\n        /* \"contracts/BananaNFT.sol\":3091:3139  payable(owner()).transfer(address(this).balance) */\n      dup9\n      call\n      swap4\n      pop\n      pop\n      pop\n      pop\n      iszero\n      dup1\n      iszero\n      tag_262\n      jumpi\n      returndatasize\n      0x00\n      dup1\n      returndatacopy\n      revert(0x00, returndatasize)\n    tag_262:\n      pop\n        /* \"contracts/BananaNFT.sol\":3041:3147  function withdraw() external onlyOwner {... */\n      jump\t// out\n        /* \"@openzeppelin/contracts/token/ERC721/ERC721.sol\":4787:4919  function safeTransferFrom(address from, address to, uint256 tokenId) public {... */\n    tag_116:\n        /* \"@openzeppelin/contracts/token/ERC721/ERC721.sol\":4873:4912  safeTransferFrom(from, to, tokenId, \"\") */\n      tag_264\n        /* \"@openzeppelin/contracts/token/ERC721/ERC721.sol\":4890:4894  from */\n      dup4\n        /* \"@openzeppelin/contracts/token/ERC721/ERC721.sol\":4896:4898  to */\n      dup4\n        /* \"@openzeppelin/contracts/token/ERC721/ERC721.sol\":4900:4907  tokenId */\n      dup4\n        /* \"@openzeppelin/contracts/token/ERC721/ERC721.sol\":4873:4912  safeTransferFrom(from, to, tokenId, \"\") */\n      mload(0x40)\n      dup1\n      0x20\n      add\n      0x40\n      mstore\n      dup1\n      0x00\n      dup2\n      mstore\n      pop\n        /* \"@openzeppelin/contracts/token/ERC721/ERC721.sol\":4873:4889  safeTransferFrom */\n      tag_170\n        /* \"@openzeppelin/contracts/token/ERC721/ERC721.sol\":4873:4912  safeTransferFrom(from, to, tokenId, \"\") */\n      jump\t// in\n    tag_264:\n        /* \"@openzeppelin/contracts/token/ERC721/ERC721.sol\":4787:4919  function safeTransferFrom(address from, address to, uint256 tokenId) public {... */\n      pop\n      pop\n      pop\n      jump\t// out\n        /* \"@openzeppelin/contracts/token/ERC721/extensions/ERC721Enumerable.sol\":2236:2462  function tokenByIndex(uint256 index) public view virtual returns (uint256) {... */\n    tag_120:\n        /* \"@openzeppelin/contracts/token/ERC721/extensions/ERC721Enumerable.sol\":2302:2309  uint256 */\n      0x00\n        /* \"@openzeppelin/contracts/token/ERC721/extensions/ERC721Enumerable.sol\":2334:2347  totalSupply() */\n      tag_266\n        /* \"@openzeppelin/contracts/token/ERC721/extensions/ERC721Enumerable.sol\":2140:2150  _allTokens */\n      0x08\n        /* \"@openzeppelin/contracts/token/ERC721/extensions/ERC721Enumerable.sol\":2140:2157  _allTokens.length */\n      sload\n      swap1\n        /* \"@openzeppelin/contracts/token/ERC721/extensions/ERC721Enumerable.sol\":2062:2164  function totalSupply() public view virtual returns (uint256) {... */\n      jump\n        /* \"@openzeppelin/contracts/token/ERC721/extensions/ERC721Enumerable.sol\":2334:2347  totalSupply() */\n    tag_266:\n        /* \"@openzeppelin/contracts/token/ERC721/extensions/ERC721Enumerable.sol\":2325:2330  index */\n      dup3\n        /* \"@openzeppelin/contracts/token/ERC721/extensions/ERC721Enumerable.sol\":2325:2347  index >= totalSupply() */\n      lt\n        /* \"@openzeppelin/contracts/token/ERC721/extensions/ERC721Enumerable.sol\":2321:2422  if (index >= totalSupply()) {... */\n      tag_267\n      jumpi\n        /* \"@openzeppelin/contracts/token/ERC721/extensions/ERC721Enumerable.sol\":2370:2411  ERC721OutOfBoundsIndex(address(0), index) */\n      mload(0x40)\n      shl(0xe2, 0x295f44f7)\n      dup2\n      mstore\n        /* \"@openzeppelin/contracts/token/ERC721/extensions/ERC721Enumerable.sol\":2401:2402  0 */\n      0x00\n        /* \"@openzeppelin/contracts/token/ERC721/extensions/ERC721Enumerable.sol\":2370:2411  ERC721OutOfBoundsIndex(address(0), index) */\n      0x04\n      dup3\n      add\n        /* \"#utility.yul\":6959:7010   */\n      mstore\n        /* \"#utility.yul\":7026:7044   */\n      0x24\n      dup2\n      add\n        /* \"#utility.yul\":7019:7053   */\n      dup4\n      swap1\n      mstore\n        /* \"#utility.yul\":6932:6950   */\n      0x44\n      add\n        /* \"@openzeppelin/contracts/token/ERC721/extensions/ERC721Enumerable.sol\":2370:2411  ERC721OutOfBoundsIndex(address(0), index) */\n      tag_245\n        /* \"#utility.yul\":6785:7059   */\n      jump\n        /* \"@openzeppelin/contracts/token/ERC721/extensions/ERC721Enumerable.sol\":2321:2422  if (index >= totalSupply()) {... */\n    tag_267:\n        /* \"@openzeppelin/contracts/token/ERC721/extensions/ERC721Enumerable.sol\":2438:2448  _allTokens */\n      0x08\n        /* \"@openzeppelin/contracts/token/ERC721/extensions/ERC721Enumerable.sol\":2449:2454  index */\n      dup3\n        /* \"@openzeppelin/contracts/token/ERC721/extensions/ERC721Enumerable.sol\":2438:2455  _allTokens[index] */\n      dup2\n      sload\n      dup2\n      lt\n      tag_270\n      jumpi\n      tag_270\n      tag_271\n      jump\t// in\n    tag_270:\n      swap1\n      0x00\n      mstore\n      keccak256(0x00, 0x20)\n      add\n      sload\n        /* \"@openzeppelin/contracts/token/ERC721/extensions/ERC721Enumerable.sol\":2431:2455  return _allTokens[index] */\n      swap1\n      pop\n        /* \"@openzeppelin/contracts/token/ERC721/extensions/ERC721Enumerable.sol\":2236:2462  function tokenByIndex(uint256 index) public view virtual returns (uint256) {... */\n      swap2\n      swap1\n      pop\n      jump\t// out\n        /* \"contracts/BananaNFT.sol\":1426:1914  function payToMint(string memory uri) external payable returns (uint256) {... */\n    tag_125:\n        /* \"contracts/BananaNFT.sol\":1518:1531  _isSaleActive */\n      sload(0x10)\n        /* \"contracts/BananaNFT.sol\":1490:1497  uint256 */\n      0x00\n      swap1\n        /* \"contracts/BananaNFT.sol\":1518:1531  _isSaleActive */\n      0xff\n      and\n        /* \"contracts/BananaNFT.sol\":1510:1554  require(_isSaleActive, \"Sale is not active\") */\n      tag_274\n      jumpi\n      mload(0x40)\n      shl(0xe5, 0x461bcd)\n      dup2\n      mstore\n        /* \"#utility.yul\":7398:7400   */\n      0x20\n        /* \"contracts/BananaNFT.sol\":1510:1554  require(_isSaleActive, \"Sale is not active\") */\n      0x04\n      dup3\n      add\n        /* \"#utility.yul\":7380:7401   */\n      mstore\n        /* \"#utility.yul\":7437:7439   */\n      0x12\n        /* \"#utility.yul\":7417:7435   */\n      0x24\n      dup3\n      add\n        /* \"#utility.yul\":7410:7440   */\n      mstore\n      shl(0x70, 0x53616c65206973206e6f7420616374697665)\n        /* \"#utility.yul\":7456:7474   */\n      0x44\n      dup3\n      add\n        /* \"#utility.yul\":7449:7497   */\n      mstore\n        /* \"#utility.yul\":7514:7532   */\n      0x64\n      add\n        /* \"contracts/BananaNFT.sol\":1510:1554  require(_isSaleActive, \"Sale is not active\") */\n      tag_245\n        /* \"#utility.yul\":7196:7538   */\n      jump\n        /* \"contracts/BananaNFT.sol\":1510:1554  require(_isSaleActive, \"Sale is not active\") */\n    tag_274:\n        /* \"contracts/BananaNFT.sol\":1591:1602  saleEndTime */\n      sload(0x0f)\n        /* \"contracts/BananaNFT.sol\":1573:1588  block.timestamp */\n      timestamp\n        /* \"contracts/BananaNFT.sol\":1573:1602  block.timestamp < saleEndTime */\n      lt\n        /* \"contracts/BananaNFT.sol\":1565:1617  require(block.timestamp < saleEndTime, \"Sale ended\") */\n      tag_277\n      jumpi\n      mload(0x40)\n      shl(0xe5, 0x461bcd)\n      dup2\n      mstore\n        /* \"#utility.yul\":7745:7747   */\n      0x20\n        /* \"contracts/BananaNFT.sol\":1565:1617  require(block.timestamp < saleEndTime, \"Sale ended\") */\n      0x04\n      dup3\n      add\n        /* \"#utility.yul\":7727:7748   */\n      mstore\n        /* \"#utility.yul\":7784:7786   */\n      0x0a\n        /* \"#utility.yul\":7764:7782   */\n      0x24\n      dup3\n      add\n        /* \"#utility.yul\":7757:7787   */\n      mstore\n      shl(0xb2, 0x14d85b1948195b991959)\n        /* \"#utility.yul\":7803:7821   */\n      0x44\n      dup3\n      add\n        /* \"#utility.yul\":7796:7836   */\n      mstore\n        /* \"#utility.yul\":7853:7871   */\n      0x64\n      add\n        /* \"contracts/BananaNFT.sol\":1565:1617  require(block.timestamp < saleEndTime, \"Sale ended\") */\n      tag_245\n        /* \"#utility.yul\":7543:7877   */\n      jump\n        /* \"contracts/BananaNFT.sol\":1565:1617  require(block.timestamp < saleEndTime, \"Sale ended\") */\n    tag_277:\n        /* \"contracts/BananaNFT.sol\":1649:1658  mintPrice */\n      sload(0x0d)\n        /* \"contracts/BananaNFT.sol\":1636:1645  msg.value */\n      callvalue\n        /* \"contracts/BananaNFT.sol\":1636:1658  msg.value == mintPrice */\n      eq\n        /* \"contracts/BananaNFT.sol\":1628:1682  require(msg.value == mintPrice, \"Incorrect ETH value\") */\n      tag_280\n      jumpi\n      mload(0x40)\n      shl(0xe5, 0x461bcd)\n      dup2\n      mstore\n        /* \"#utility.yul\":8084:8086   */\n      0x20\n        /* \"contracts/BananaNFT.sol\":1628:1682  require(msg.value == mintPrice, \"Incorrect ETH value\") */\n      0x04\n      dup3\n      add\n        /* \"#utility.yul\":8066:8087   */\n      mstore\n        /* \"#utility.yul\":8123:8125   */\n      0x13\n        /* \"#utility.yul\":8103:8121   */\n      0x24\n      dup3\n      add\n        /* \"#utility.yul\":8096:8126   */\n      mstore\n      shl(0x68, 0x496e636f7272656374204554482076616c7565)\n        /* \"#utility.yul\":8142:8160   */\n      0x44\n      dup3\n      add\n        /* \"#utility.yul\":8135:8184   */\n      mstore\n        /* \"#utility.yul\":8201:8219   */\n      0x64\n      add\n        /* \"contracts/BananaNFT.sol\":1628:1682  require(msg.value == mintPrice, \"Incorrect ETH value\") */\n      tag_245\n        /* \"#utility.yul\":7882:8225   */\n      jump\n        /* \"contracts/BananaNFT.sol\":1628:1682  require(msg.value == mintPrice, \"Incorrect ETH value\") */\n    tag_280:\n        /* \"contracts/BananaNFT.sol\":1697:1712  _tokenIdCounter */\n      0x0b\n      0x00\n        /* \"contracts/BananaNFT.sol\":1695:1712  ++_tokenIdCounter */\n      dup2\n      sload\n      tag_283\n      swap1\n      tag_284\n      jump\t// in\n    tag_283:\n      swap1\n      swap2\n      sstore\n      pop\n        /* \"contracts/BananaNFT.sol\":1741:1756  _tokenIdCounter */\n      sload(0x0b)\n        /* \"contracts/BananaNFT.sol\":1767:1797  _safeMint(msg.sender, tokenId) */\n      tag_285\n        /* \"contracts/BananaNFT.sol\":1777:1787  msg.sender */\n      caller\n        /* \"contracts/BananaNFT.sol\":1741:1756  _tokenIdCounter */\n      dup3\n        /* \"contracts/BananaNFT.sol\":1767:1776  _safeMint */\n      tag_286\n        /* \"contracts/BananaNFT.sol\":1767:1797  _safeMint(msg.sender, tokenId) */\n      jump\t// in\n    tag_285:\n        /* \"contracts/BananaNFT.sol\":1808:1834  _setTokenURI(tokenId, uri) */\n      tag_287\n        /* \"contracts/BananaNFT.sol\":1821:1828  tokenId */\n      dup2\n        /* \"contracts/BananaNFT.sol\":1830:1833  uri */\n      dup5\n        /* \"contracts/BananaNFT.sol\":1808:1820  _setTokenURI */\n      tag_288\n        /* \"contracts/BananaNFT.sol\":1808:1834  _setTokenURI(tokenId, uri) */\n      jump\t// in\n    tag_287:\n        /* \"contracts/BananaNFT.sol\":1852:1879  Minted(msg.sender, tokenId) */\n      mload(0x40)\n        /* \"#utility.yul\":160:185   */\n      dup2\n      dup2\n      mstore\n        /* \"contracts/BananaNFT.sol\":1859:1869  msg.sender */\n      caller\n      swap1\n        /* \"contracts/BananaNFT.sol\":1852:1879  Minted(msg.sender, tokenId) */\n      0x30385c845b448a36257a6a1716e6ad2e1bc2cbe333cde1e69fe849ad6511adfe\n      swap1\n        /* \"#utility.yul\":148:150   */\n      0x20\n        /* \"#utility.yul\":133:151   */\n      add\n        /* \"contracts/BananaNFT.sol\":1852:1879  Minted(msg.sender, tokenId) */\n      mload(0x40)\n      dup1\n      swap2\n      sub\n      swap1\n      log2\n        /* \"contracts/BananaNFT.sol\":1899:1906  tokenId */\n      swap3\n        /* \"contracts/BananaNFT.sol\":1426:1914  function payToMint(string memory uri) external payable returns (uint256) {... */\n      swap2\n      pop\n      pop\n      jump\t// out\n        /* \"@openzeppelin/contracts/token/ERC721/ERC721.sol\":2185:2303  function ownerOf(uint256 tokenId) public view virtual returns (address) {... */\n    tag_130:\n        /* \"@openzeppelin/contracts/token/ERC721/ERC721.sol\":2248:2255  address */\n      0x00\n        /* \"@openzeppelin/contracts/token/ERC721/ERC721.sol\":2274:2296  _requireOwned(tokenId) */\n      tag_210\n        /* \"@openzeppelin/contracts/token/ERC721/ERC721.sol\":2288:2295  tokenId */\n      dup3\n        /* \"@openzeppelin/contracts/token/ERC721/ERC721.sol\":2274:2287  _requireOwned */\n      tag_224\n        /* \"@openzeppelin/contracts/token/ERC721/ERC721.sol\":2274:2296  _requireOwned(tokenId) */\n      jump\t// in\n        /* \"@openzeppelin/contracts/token/ERC721/ERC721.sol\":1920:2128  function balanceOf(address owner) public view virtual returns (uint256) {... */\n    tag_148:\n        /* \"@openzeppelin/contracts/token/ERC721/ERC721.sol\":1983:1990  uint256 */\n      0x00\n      sub(shl(0xa0, 0x01), 0x01)\n        /* \"@openzeppelin/contracts/token/ERC721/ERC721.sol\":2006:2025  owner == address(0) */\n      dup3\n      and\n        /* \"@openzeppelin/contracts/token/ERC721/ERC721.sol\":2002:2089  if (owner == address(0)) {... */\n      tag_293\n      jumpi\n        /* \"@openzeppelin/contracts/token/ERC721/ERC721.sol\":2048:2078  ERC721InvalidOwner(address(0)) */\n      mload(0x40)\n      shl(0xe2, 0x22718ad9)\n      dup2\n      mstore\n        /* \"@openzeppelin/contracts/token/ERC721/ERC721.sol\":2075:2076  0 */\n      0x00\n        /* \"@openzeppelin/contracts/token/ERC721/ERC721.sol\":2048:2078  ERC721InvalidOwner(address(0)) */\n      0x04\n      dup3\n      add\n        /* \"#utility.yul\":2150:2201   */\n      mstore\n        /* \"#utility.yul\":2123:2141   */\n      0x24\n      add\n        /* \"@openzeppelin/contracts/token/ERC721/ERC721.sol\":2048:2078  ERC721InvalidOwner(address(0)) */\n      tag_245\n        /* \"#utility.yul\":2004:2207   */\n      jump\n        /* \"@openzeppelin/contracts/token/ERC721/ERC721.sol\":2002:2089  if (owner == address(0)) {... */\n    tag_293:\n      pop\n      sub(shl(0xa0, 0x01), 0x01)\n        /* \"@openzeppelin/contracts/token/ERC721/ERC721.sol\":2105:2121  _balances[owner] */\n      and\n      0x00\n      swap1\n      dup2\n      mstore\n        /* \"@openzeppelin/contracts/token/ERC721/ERC721.sol\":2105:2114  _balances */\n      0x03\n        /* \"@openzeppelin/contracts/token/ERC721/ERC721.sol\":2105:2121  _balances[owner] */\n      0x20\n      mstore\n      0x40\n      swap1\n      keccak256\n      sload\n      swap1\n        /* \"@openzeppelin/contracts/token/ERC721/ERC721.sol\":1920:2128  function balanceOf(address owner) public view virtual returns (uint256) {... */\n      jump\t// out\n        /* \"@openzeppelin/contracts/access/Ownable.sol\":2293:2394  function renounceOwnership() public virtual onlyOwner {... */\n    tag_152:\n        /* \"@openzeppelin/contracts/access/Ownable.sol\":1531:1544  _checkOwner() */\n      tag_296\n        /* \"@openzeppelin/contracts/access/Ownable.sol\":1531:1542  _checkOwner */\n      tag_239\n        /* \"@openzeppelin/contracts/access/Ownable.sol\":1531:1544  _checkOwner() */\n      jump\t// in\n    tag_296:\n        /* \"@openzeppelin/contracts/access/Ownable.sol\":2357:2387  _transferOwnership(address(0)) */\n      tag_298\n        /* \"@openzeppelin/contracts/access/Ownable.sol\":2384:2385  0 */\n      0x00\n        /* \"@openzeppelin/contracts/access/Ownable.sol\":2357:2375  _transferOwnership */\n      tag_299\n        /* \"@openzeppelin/contracts/access/Ownable.sol\":2357:2387  _transferOwnership(address(0)) */\n      jump\t// in\n    tag_298:\n        /* \"@openzeppelin/contracts/access/Ownable.sol\":2293:2394  function renounceOwnership() public virtual onlyOwner {... */\n      jump\t// out\n        /* \"@openzeppelin/contracts/token/ERC721/ERC721.sol\":2518:2611  function symbol() public view virtual returns (string memory) {... */\n    tag_159:\n        /* \"@openzeppelin/contracts/token/ERC721/ERC721.sol\":2565:2578  string memory */\n      0x60\n        /* \"@openzeppelin/contracts/token/ERC721/ERC721.sol\":2597:2604  _symbol */\n      0x01\n        /* \"@openzeppelin/contracts/token/ERC721/ERC721.sol\":2590:2604  return _symbol */\n      dup1\n      sload\n      tag_216\n      swap1\n      tag_217\n      jump\t// in\n        /* \"@openzeppelin/contracts/token/ERC721/ERC721.sol\":3718:3862  function setApprovalForAll(address operator, bool approved) public virtual {... */\n    tag_165:\n        /* \"@openzeppelin/contracts/token/ERC721/ERC721.sol\":3803:3855  _setApprovalForAll(_msgSender(), operator, approved) */\n      tag_228\n        /* \"@openzeppelin/contracts/utils/Context.sol\":735:745  msg.sender */\n      caller\n        /* \"@openzeppelin/contracts/token/ERC721/ERC721.sol\":3836:3844  operator */\n      dup4\n        /* \"@openzeppelin/contracts/token/ERC721/ERC721.sol\":3846:3854  approved */\n      dup4\n        /* \"@openzeppelin/contracts/token/ERC721/ERC721.sol\":3803:3821  _setApprovalForAll */\n      tag_310\n        /* \"@openzeppelin/contracts/token/ERC721/ERC721.sol\":3803:3855  _setApprovalForAll(_msgSender(), operator, approved) */\n      jump\t// in\n        /* \"@openzeppelin/contracts/token/ERC721/ERC721.sol\":4985:5193  function safeTransferFrom(address from, address to, uint256 tokenId, bytes memory data) public virtual {... */\n    tag_170:\n        /* \"@openzeppelin/contracts/token/ERC721/ERC721.sol\":5098:5129  transferFrom(from, to, tokenId) */\n      tag_312\n        /* \"@openzeppelin/contracts/token/ERC721/ERC721.sol\":5111:5115  from */\n      dup5\n        /* \"@openzeppelin/contracts/token/ERC721/ERC721.sol\":5117:5119  to */\n      dup5\n        /* \"@openzeppelin/contracts/token/ERC721/ERC721.sol\":5121:5128  tokenId */\n      dup5\n        /* \"@openzeppelin/contracts/token/ERC721/ERC721.sol\":5098:5110  transferFrom */\n      tag_104\n        /* \"@openzeppelin/contracts/token/ERC721/ERC721.sol\":5098:5129  transferFrom(from, to, tokenId) */\n      jump\t// in\n    tag_312:\n        /* \"@openzeppelin/contracts/token/ERC721/ERC721.sol\":5139:5186  _checkOnERC721Received(from, to, tokenId, data) */\n      tag_249\n        /* \"@openzeppelin/contracts/token/ERC721/ERC721.sol\":5162:5166  from */\n      dup5\n        /* \"@openzeppelin/contracts/token/ERC721/ERC721.sol\":5168:5170  to */\n      dup5\n        /* \"@openzeppelin/contracts/token/ERC721/ERC721.sol\":5172:5179  tokenId */\n      dup5\n        /* \"@openzeppelin/contracts/token/ERC721/ERC721.sol\":5181:5185  data */\n      dup5\n        /* \"@openzeppelin/contracts/token/ERC721/ERC721.sol\":5139:5161  _checkOnERC721Received */\n      tag_314\n        /* \"@openzeppelin/contracts/token/ERC721/ERC721.sol\":5139:5186  _checkOnERC721Received(from, to, tokenId, data) */\n      jump\t// in\n        /* \"contracts/BananaNFT.sol\":1198:1418  function tokenURI(... */\n    tag_174:\n        /* \"contracts/BananaNFT.sol\":1279:1292  string memory */\n      0x60\n        /* \"contracts/BananaNFT.sol\":1305:1327  _requireOwned(tokenId) */\n      tag_316\n        /* \"contracts/BananaNFT.sol\":1319:1326  tokenId */\n      dup3\n        /* \"contracts/BananaNFT.sol\":1305:1318  _requireOwned */\n      tag_224\n        /* \"contracts/BananaNFT.sol\":1305:1327  _requireOwned(tokenId) */\n      jump\t// in\n    tag_316:\n      pop\n        /* \"contracts/BananaNFT.sol\":1338:1361  string memory _tokenURI */\n      0x00\n        /* \"contracts/BananaNFT.sol\":1364:1383  _tokenURIs[tokenId] */\n      dup3\n      dup2\n      mstore\n        /* \"contracts/BananaNFT.sol\":1364:1374  _tokenURIs */\n      0x11\n        /* \"contracts/BananaNFT.sol\":1364:1383  _tokenURIs[tokenId] */\n      0x20\n      mstore\n      0x40\n      dup2\n      keccak256\n        /* \"contracts/BananaNFT.sol\":1338:1383  string memory _tokenURI = _tokenURIs[tokenId] */\n      dup1\n      sload\n      tag_317\n      swap1\n      tag_217\n      jump\t// in\n    tag_317:\n      dup1\n      0x1f\n      add\n      0x20\n      dup1\n      swap2\n      div\n      mul\n      0x20\n      add\n      mload(0x40)\n      swap1\n      dup2\n      add\n      0x40\n      mstore\n      dup1\n      swap3\n      swap2\n      swap1\n      dup2\n      dup2\n      mstore\n      0x20\n      add\n      dup3\n      dup1\n      sload\n      tag_318\n      swap1\n      tag_217\n      jump\t// in\n    tag_318:\n      dup1\n      iszero\n      tag_319\n      jumpi\n      dup1\n      0x1f\n      lt\n      tag_320\n      jumpi\n      0x0100\n      dup1\n      dup4\n      sload\n      div\n      mul\n      dup4\n      mstore\n      swap2\n      0x20\n      add\n      swap2\n      jump(tag_319)\n    tag_320:\n      dup3\n      add\n      swap2\n      swap1\n      0x00\n      mstore\n      keccak256(0x00, 0x20)\n      swap1\n    tag_321:\n      dup2\n      sload\n      dup2\n      mstore\n      swap1\n      0x01\n      add\n      swap1\n      0x20\n      add\n      dup1\n      dup4\n      gt\n      tag_321\n      jumpi\n      dup3\n      swap1\n      sub\n      0x1f\n      and\n      dup3\n      add\n      swap2\n    tag_319:\n      pop\n      swap4\n      swap8\n        /* \"contracts/BananaNFT.sol\":1198:1418  function tokenURI(... */\n      swap7\n      pop\n      pop\n      pop\n      pop\n      pop\n      pop\n      pop\n      jump\t// out\n        /* \"contracts/BananaNFT.sol\":2069:2552  function mint(string memory uri) external returns (uint256) {... */\n    tag_179:\n        /* \"contracts/BananaNFT.sol\":2208:2220  mintInterval */\n      sload(0x0e)\n        /* \"contracts/BananaNFT.sol\":2194:2204  msg.sender */\n      caller\n        /* \"contracts/BananaNFT.sol\":2120:2127  uint256 */\n      0x00\n        /* \"contracts/BananaNFT.sol\":2181:2205  lastMintTime[msg.sender] */\n      swap1\n      dup2\n      mstore\n        /* \"contracts/BananaNFT.sol\":2181:2193  lastMintTime */\n      0x12\n        /* \"contracts/BananaNFT.sol\":2181:2205  lastMintTime[msg.sender] */\n      0x20\n      mstore\n      0x40\n      dup2\n      keccak256\n      sload\n        /* \"contracts/BananaNFT.sol\":2120:2127  uint256 */\n      swap1\n      swap2\n        /* \"contracts/BananaNFT.sol\":2181:2220  lastMintTime[msg.sender] + mintInterval */\n      tag_323\n      swap2\n      tag_214\n      jump\t// in\n    tag_323:\n        /* \"contracts/BananaNFT.sol\":2162:2177  block.timestamp */\n      timestamp\n        /* \"contracts/BananaNFT.sol\":2162:2220  block.timestamp >= lastMintTime[msg.sender] + mintInterval */\n      lt\n      iszero\n        /* \"contracts/BananaNFT.sol\":2140:2267  require(... */\n      tag_324\n      jumpi\n      mload(0x40)\n      shl(0xe5, 0x461bcd)\n      dup2\n      mstore\n        /* \"#utility.yul\":8572:8574   */\n      0x20\n        /* \"contracts/BananaNFT.sol\":2140:2267  require(... */\n      0x04\n      dup3\n      add\n        /* \"#utility.yul\":8554:8575   */\n      mstore\n        /* \"#utility.yul\":8611:8613   */\n      0x13\n        /* \"#utility.yul\":8591:8609   */\n      0x24\n      dup3\n      add\n        /* \"#utility.yul\":8584:8614   */\n      mstore\n      shl(0x68, 0x4e6f74207265616368206d696e742074696d65)\n        /* \"#utility.yul\":8630:8648   */\n      0x44\n      dup3\n      add\n        /* \"#utility.yul\":8623:8672   */\n      mstore\n        /* \"#utility.yul\":8689:8707   */\n      0x64\n      add\n        /* \"contracts/BananaNFT.sol\":2140:2267  require(... */\n      tag_245\n        /* \"#utility.yul\":8370:8713   */\n      jump\n        /* \"contracts/BananaNFT.sol\":2140:2267  require(... */\n    tag_324:\n        /* \"contracts/BananaNFT.sol\":2282:2297  _tokenIdCounter */\n      0x0b\n      0x00\n        /* \"contracts/BananaNFT.sol\":2280:2297  ++_tokenIdCounter */\n      dup2\n      sload\n      tag_327\n      swap1\n      tag_284\n      jump\t// in\n    tag_327:\n      swap1\n      swap2\n      sstore\n      pop\n        /* \"contracts/BananaNFT.sol\":2326:2341  _tokenIdCounter */\n      sload(0x0b)\n        /* \"contracts/BananaNFT.sol\":2365:2375  msg.sender */\n      caller\n        /* \"contracts/BananaNFT.sol\":2308:2323  uint256 tokenId */\n      0x00\n        /* \"contracts/BananaNFT.sol\":2352:2376  lastMintTime[msg.sender] */\n      dup2\n      dup2\n      mstore\n        /* \"contracts/BananaNFT.sol\":2352:2364  lastMintTime */\n      0x12\n        /* \"contracts/BananaNFT.sol\":2352:2376  lastMintTime[msg.sender] */\n      0x20\n      mstore\n      0x40\n      swap1\n      keccak256\n        /* \"contracts/BananaNFT.sol\":2379:2394  block.timestamp */\n      timestamp\n        /* \"contracts/BananaNFT.sol\":2352:2394  lastMintTime[msg.sender] = block.timestamp */\n      swap1\n      sstore\n        /* \"contracts/BananaNFT.sol\":2405:2435  _safeMint(msg.sender, tokenId) */\n      tag_285\n      swap1\n        /* \"contracts/BananaNFT.sol\":2326:2341  _tokenIdCounter */\n      dup3\n        /* \"contracts/BananaNFT.sol\":2405:2414  _safeMint */\n      tag_286\n        /* \"contracts/BananaNFT.sol\":2405:2435  _safeMint(msg.sender, tokenId) */\n      jump\t// in\n        /* \"contracts/BananaNFT.sol\":2724:2818  function flipSaleActive() external onlyOwner {... */\n    tag_183:\n        /* \"@openzeppelin/contracts/access/Ownable.sol\":1531:1544  _checkOwner() */\n      tag_332\n        /* \"@openzeppelin/contracts/access/Ownable.sol\":1531:1542  _checkOwner */\n      tag_239\n        /* \"@openzeppelin/contracts/access/Ownable.sol\":1531:1544  _checkOwner() */\n      jump\t// in\n    tag_332:\n        /* \"contracts/BananaNFT.sol\":2797:2810  _isSaleActive */\n      0x10\n      dup1\n      sload\n      not(0xff)\n        /* \"contracts/BananaNFT.sol\":2780:2810  _isSaleActive = !_isSaleActive */\n      dup2\n      and\n        /* \"contracts/BananaNFT.sol\":2797:2810  _isSaleActive */\n      0xff\n      swap1\n      swap2\n      and\n        /* \"contracts/BananaNFT.sol\":2796:2810  !_isSaleActive */\n      iszero\n        /* \"contracts/BananaNFT.sol\":2780:2810  _isSaleActive = !_isSaleActive */\n      or\n      swap1\n      sstore\n        /* \"contracts/BananaNFT.sol\":2724:2818  function flipSaleActive() external onlyOwner {... */\n      jump\t// out\n        /* \"@openzeppelin/contracts/token/ERC721/ERC721.sol\":3928:4081  function isApprovedForAll(address owner, address operator) public view virtual returns (bool) {... */\n    tag_188:\n      sub(shl(0xa0, 0x01), 0x01)\n        /* \"@openzeppelin/contracts/token/ERC721/ERC721.sol\":4039:4064  _operatorApprovals[owner] */\n      swap2\n      dup3\n      and\n        /* \"@openzeppelin/contracts/token/ERC721/ERC721.sol\":4016:4020  bool */\n      0x00\n        /* \"@openzeppelin/contracts/token/ERC721/ERC721.sol\":4039:4064  _operatorApprovals[owner] */\n      swap1\n      dup2\n      mstore\n        /* \"@openzeppelin/contracts/token/ERC721/ERC721.sol\":4039:4057  _operatorApprovals */\n      0x05\n        /* \"@openzeppelin/contracts/token/ERC721/ERC721.sol\":4039:4064  _operatorApprovals[owner] */\n      0x20\n      swap1\n      dup2\n      mstore\n      0x40\n      dup1\n      dup4\n      keccak256\n        /* \"@openzeppelin/contracts/token/ERC721/ERC721.sol\":4039:4074  _operatorApprovals[owner][operator] */\n      swap4\n      swap1\n      swap5\n      and\n      dup3\n      mstore\n      swap2\n      swap1\n      swap2\n      mstore\n      keccak256\n      sload\n      0xff\n      and\n      swap1\n        /* \"@openzeppelin/contracts/token/ERC721/ERC721.sol\":3928:4081  function isApprovedForAll(address owner, address operator) public view virtual returns (bool) {... */\n      jump\t// out\n        /* \"@openzeppelin/contracts/access/Ownable.sol\":2543:2758  function transferOwnership(address newOwner) public virtual onlyOwner {... */\n    tag_197:\n        /* \"@openzeppelin/contracts/access/Ownable.sol\":1531:1544  _checkOwner() */\n      tag_336\n        /* \"@openzeppelin/contracts/access/Ownable.sol\":1531:1542  _checkOwner */\n      tag_239\n        /* \"@openzeppelin/contracts/access/Ownable.sol\":1531:1544  _checkOwner() */\n      jump\t// in\n    tag_336:\n      sub(shl(0xa0, 0x01), 0x01)\n        /* \"@openzeppelin/contracts/access/Ownable.sol\":2627:2649  newOwner == address(0) */\n      dup2\n      and\n        /* \"@openzeppelin/contracts/access/Ownable.sol\":2623:2714  if (newOwner == address(0)) {... */\n      tag_338\n      jumpi\n        /* \"@openzeppelin/contracts/access/Ownable.sol\":2672:2703  OwnableInvalidOwner(address(0)) */\n      mload(0x40)\n      shl(0xe0, 0x1e4fbdf7)\n      dup2\n      mstore\n        /* \"@openzeppelin/contracts/access/Ownable.sol\":2700:2701  0 */\n      0x00\n        /* \"@openzeppelin/contracts/access/Ownable.sol\":2672:2703  OwnableInvalidOwner(address(0)) */\n      0x04\n      dup3\n      add\n        /* \"#utility.yul\":2150:2201   */\n      mstore\n        /* \"#utility.yul\":2123:2141   */\n      0x24\n      add\n        /* \"@openzeppelin/contracts/access/Ownable.sol\":2672:2703  OwnableInvalidOwner(address(0)) */\n      tag_245\n        /* \"#utility.yul\":2004:2207   */\n      jump\n        /* \"@openzeppelin/contracts/access/Ownable.sol\":2623:2714  if (newOwner == address(0)) {... */\n    tag_338:\n        /* \"@openzeppelin/contracts/access/Ownable.sol\":2723:2751  _transferOwnership(newOwner) */\n      tag_262\n        /* \"@openzeppelin/contracts/access/Ownable.sol\":2742:2750  newOwner */\n      dup2\n        /* \"@openzeppelin/contracts/access/Ownable.sol\":2723:2741  _transferOwnership */\n      tag_299\n        /* \"@openzeppelin/contracts/access/Ownable.sol\":2723:2751  _transferOwnership(newOwner) */\n      jump\t// in\n        /* \"contracts/BananaNFT.sol\":2826:2928  function setMintPrice(uint256 _mintPrice) external onlyOwner {... */\n    tag_201:\n        /* \"@openzeppelin/contracts/access/Ownable.sol\":1531:1544  _checkOwner() */\n      tag_342\n        /* \"@openzeppelin/contracts/access/Ownable.sol\":1531:1542  _checkOwner */\n      tag_239\n        /* \"@openzeppelin/contracts/access/Ownable.sol\":1531:1544  _checkOwner() */\n      jump\t// in\n    tag_342:\n        /* \"contracts/BananaNFT.sol\":2898:2907  mintPrice */\n      0x0d\n        /* \"contracts/BananaNFT.sol\":2898:2920  mintPrice = _mintPrice */\n      sstore\n        /* \"contracts/BananaNFT.sol\":2826:2928  function setMintPrice(uint256 _mintPrice) external onlyOwner {... */\n      jump\t// out\n        /* \"@openzeppelin/contracts/token/ERC721/ERC721.sol\":1561:1861  function supportsInterface(bytes4 interfaceId) public view virtual override(ERC165, IERC165) returns (bool) {... */\n    tag_211:\n        /* \"@openzeppelin/contracts/token/ERC721/ERC721.sol\":1663:1667  bool */\n      0x00\n      not(sub(shl(0xe0, 0x01), 0x01))\n        /* \"@openzeppelin/contracts/token/ERC721/ERC721.sol\":1698:1738  interfaceId == type(IERC721).interfaceId */\n      dup3\n      and\n      shl(0xe0, 0x80ac58cd)\n      eq\n      dup1\n        /* \"@openzeppelin/contracts/token/ERC721/ERC721.sol\":1698:1802  interfaceId == type(IERC721).interfaceId ||... */\n      tag_345\n      jumpi\n      pop\n      not(sub(shl(0xe0, 0x01), 0x01))\n        /* \"@openzeppelin/contracts/token/ERC721/ERC721.sol\":1754:1802  interfaceId == type(IERC721Metadata).interfaceId */\n      dup3\n      and\n      shl(0xe0, 0x5b5e139f)\n      eq\n        /* \"@openzeppelin/contracts/token/ERC721/ERC721.sol\":1698:1802  interfaceId == type(IERC721).interfaceId ||... */\n    tag_345:\n        /* \"@openzeppelin/contracts/token/ERC721/ERC721.sol\":1698:1854  interfaceId == type(IERC721).interfaceId ||... */\n      dup1\n      tag_210\n      jumpi\n      pop\n      shl(0xe0, 0x01ffc9a7)\n      not(sub(shl(0xe0, 0x01), 0x01))\n        /* \"@openzeppelin/contracts/utils/introspection/ERC165.sol\":861:901  interfaceId == type(IERC165).interfaceId */\n      dup4\n      and\n      eq\n        /* \"@openzeppelin/contracts/token/ERC721/ERC721.sol\":1818:1854  super.supportsInterface(interfaceId) */\n      tag_210\n        /* \"@openzeppelin/contracts/utils/introspection/ERC165.sol\":762:908  function supportsInterface(bytes4 interfaceId) public view virtual returns (bool) {... */\n      jump\n        /* \"@openzeppelin/contracts/token/ERC721/ERC721.sol\":16138:16379  function _requireOwned(uint256 tokenId) internal view returns (address) {... */\n    tag_224:\n        /* \"@openzeppelin/contracts/token/ERC721/ERC721.sol\":16201:16208  address */\n      0x00\n        /* \"@openzeppelin/contracts/token/ERC721/ERC721.sol\":5799:5815  _owners[tokenId] */\n      dup2\n      dup2\n      mstore\n        /* \"@openzeppelin/contracts/token/ERC721/ERC721.sol\":5799:5806  _owners */\n      0x02\n        /* \"@openzeppelin/contracts/token/ERC721/ERC721.sol\":5799:5815  _owners[tokenId] */\n      0x20\n      mstore\n      0x40\n      dup2\n      keccak256\n      sload\n      sub(shl(0xa0, 0x01), 0x01)\n      and\n      dup1\n        /* \"@openzeppelin/contracts/token/ERC721/ERC721.sol\":16263:16351  if (owner == address(0)) {... */\n      tag_210\n      jumpi\n        /* \"@openzeppelin/contracts/token/ERC721/ERC721.sol\":16309:16340  ERC721NonexistentToken(tokenId) */\n      mload(0x40)\n      shl(0xe0, 0x7e273289)\n      dup2\n      mstore\n      0x04\n      dup2\n      add\n        /* \"#utility.yul\":160:185   */\n      dup5\n      swap1\n      mstore\n        /* \"#utility.yul\":133:151   */\n      0x24\n      add\n        /* \"@openzeppelin/contracts/token/ERC721/ERC721.sol\":16309:16340  ERC721NonexistentToken(tokenId) */\n      tag_245\n        /* \"#utility.yul\":14:191   */\n      jump\n        /* \"@openzeppelin/contracts/token/ERC721/ERC721.sol\":14418:14538  function _approve(address to, uint256 tokenId, address auth) internal {... */\n    tag_231:\n        /* \"@openzeppelin/contracts/token/ERC721/ERC721.sol\":14498:14531  _approve(to, tokenId, auth, true) */\n      tag_264\n        /* \"@openzeppelin/contracts/token/ERC721/ERC721.sol\":14507:14509  to */\n      dup4\n        /* \"@openzeppelin/contracts/token/ERC721/ERC721.sol\":14511:14518  tokenId */\n      dup4\n        /* \"@openzeppelin/contracts/token/ERC721/ERC721.sol\":14520:14524  auth */\n      dup4\n        /* \"@openzeppelin/contracts/token/ERC721/ERC721.sol\":14526:14530  true */\n      0x01\n        /* \"@openzeppelin/contracts/token/ERC721/ERC721.sol\":14498:14506  _approve */\n      tag_358\n        /* \"@openzeppelin/contracts/token/ERC721/ERC721.sol\":14498:14531  _approve(to, tokenId, auth, true) */\n      jump\t// in\n        /* \"@openzeppelin/contracts/access/Ownable.sol\":1796:1958  function _checkOwner() internal view virtual {... */\n    tag_239:\n        /* \"@openzeppelin/contracts/access/Ownable.sol\":1710:1716  _owner */\n      and(sub(shl(0xa0, 0x01), 0x01), sload(0x0a))\n        /* \"@openzeppelin/contracts/utils/Context.sol\":735:745  msg.sender */\n      caller\n        /* \"@openzeppelin/contracts/access/Ownable.sol\":1855:1878  owner() != _msgSender() */\n      eq\n        /* \"@openzeppelin/contracts/access/Ownable.sol\":1851:1952  if (owner() != _msgSender()) {... */\n      tag_298\n      jumpi\n        /* \"@openzeppelin/contracts/access/Ownable.sol\":1901:1941  OwnableUnauthorizedAccount(_msgSender()) */\n      mload(0x40)\n      shl(0xe0, 0x118cdaa7)\n      dup2\n      mstore\n        /* \"@openzeppelin/contracts/utils/Context.sol\":735:745  msg.sender */\n      caller\n        /* \"@openzeppelin/contracts/access/Ownable.sol\":1901:1941  OwnableUnauthorizedAccount(_msgSender()) */\n      0x04\n      dup3\n      add\n        /* \"#utility.yul\":2150:2201   */\n      mstore\n        /* \"#utility.yul\":2123:2141   */\n      0x24\n      add\n        /* \"@openzeppelin/contracts/access/Ownable.sol\":1901:1941  OwnableUnauthorizedAccount(_msgSender()) */\n      tag_245\n        /* \"#utility.yul\":2004:2207   */\n      jump\n        /* \"@openzeppelin/contracts/token/ERC721/extensions/ERC721Enumerable.sol\":2518:3143  function _update(address to, uint256 tokenId, address auth) internal virtual override returns (address) {... */\n    tag_248:\n        /* \"@openzeppelin/contracts/token/ERC721/extensions/ERC721Enumerable.sol\":2613:2620  address */\n      0x00\n        /* \"@openzeppelin/contracts/token/ERC721/extensions/ERC721Enumerable.sol\":2632:2653  address previousOwner */\n      dup1\n        /* \"@openzeppelin/contracts/token/ERC721/extensions/ERC721Enumerable.sol\":2656:2688  super._update(to, tokenId, auth) */\n      tag_366\n        /* \"@openzeppelin/contracts/token/ERC721/extensions/ERC721Enumerable.sol\":2670:2672  to */\n      dup6\n        /* \"@openzeppelin/contracts/token/ERC721/extensions/ERC721Enumerable.sol\":2674:2681  tokenId */\n      dup6\n        /* \"@openzeppelin/contracts/token/ERC721/extensions/ERC721Enumerable.sol\":2683:2687  auth */\n      dup6\n        /* \"@openzeppelin/contracts/token/ERC721/extensions/ERC721Enumerable.sol\":2656:2669  super._update */\n      tag_367\n        /* \"@openzeppelin/contracts/token/ERC721/extensions/ERC721Enumerable.sol\":2656:2688  super._update(to, tokenId, auth) */\n      jump\t// in\n    tag_366:\n        /* \"@openzeppelin/contracts/token/ERC721/extensions/ERC721Enumerable.sol\":2632:2688  address previousOwner = super._update(to, tokenId, auth) */\n      swap1\n      pop\n      sub(shl(0xa0, 0x01), 0x01)\n        /* \"@openzeppelin/contracts/token/ERC721/extensions/ERC721Enumerable.sol\":2703:2730  previousOwner == address(0) */\n      dup2\n      and\n        /* \"@openzeppelin/contracts/token/ERC721/extensions/ERC721Enumerable.sol\":2699:2909  if (previousOwner == address(0)) {... */\n      tag_368\n      jumpi\n        /* \"@openzeppelin/contracts/token/ERC721/extensions/ERC721Enumerable.sol\":2746:2786  _addTokenToAllTokensEnumeration(tokenId) */\n      tag_369\n        /* \"@openzeppelin/contracts/token/ERC721/extensions/ERC721Enumerable.sol\":2778:2785  tokenId */\n      dup5\n        /* \"@openzeppelin/contracts/token/ERC721/extensions/ERC721Enumerable.sol\":3949:3959  _allTokens */\n      0x08\n        /* \"@openzeppelin/contracts/token/ERC721/extensions/ERC721Enumerable.sol\":3949:3966  _allTokens.length */\n      dup1\n      sload\n        /* \"@openzeppelin/contracts/token/ERC721/extensions/ERC721Enumerable.sol\":3922:3946  _allTokensIndex[tokenId] */\n      0x00\n      dup4\n      dup2\n      mstore\n        /* \"@openzeppelin/contracts/token/ERC721/extensions/ERC721Enumerable.sol\":3922:3937  _allTokensIndex */\n      0x09\n        /* \"@openzeppelin/contracts/token/ERC721/extensions/ERC721Enumerable.sol\":3922:3946  _allTokensIndex[tokenId] */\n      0x20\n      mstore\n      0x40\n      dup2\n      keccak256\n        /* \"@openzeppelin/contracts/token/ERC721/extensions/ERC721Enumerable.sol\":3922:3966  _allTokensIndex[tokenId] = _allTokens.length */\n      dup3\n      swap1\n      sstore\n        /* \"@openzeppelin/contracts/token/ERC721/extensions/ERC721Enumerable.sol\":3976:4000  _allTokens.push(tokenId) */\n      0x01\n      dup3\n      add\n      dup4\n      sstore\n      swap2\n      swap1\n      swap2\n      mstore\n      0xf3f7a9fe364faab93b216da50a3214154f22a0a2b415b23a84c8169e8b636ee3\n      add\n      sstore\n        /* \"@openzeppelin/contracts/token/ERC721/extensions/ERC721Enumerable.sol\":3846:4007  function _addTokenToAllTokensEnumeration(uint256 tokenId) private {... */\n      jump\n        /* \"@openzeppelin/contracts/token/ERC721/extensions/ERC721Enumerable.sol\":2746:2786  _addTokenToAllTokensEnumeration(tokenId) */\n    tag_369:\n        /* \"@openzeppelin/contracts/token/ERC721/extensions/ERC721Enumerable.sol\":2699:2909  if (previousOwner == address(0)) {... */\n      jump(tag_373)\n    tag_368:\n        /* \"@openzeppelin/contracts/token/ERC721/extensions/ERC721Enumerable.sol\":2824:2826  to */\n      dup5\n      sub(shl(0xa0, 0x01), 0x01)\n        /* \"@openzeppelin/contracts/token/ERC721/extensions/ERC721Enumerable.sol\":2807:2826  previousOwner != to */\n      and\n        /* \"@openzeppelin/contracts/token/ERC721/extensions/ERC721Enumerable.sol\":2807:2820  previousOwner */\n      dup2\n      sub(shl(0xa0, 0x01), 0x01)\n        /* \"@openzeppelin/contracts/token/ERC721/extensions/ERC721Enumerable.sol\":2807:2826  previousOwner != to */\n      and\n      eq\n        /* \"@openzeppelin/contracts/token/ERC721/extensions/ERC721Enumerable.sol\":2803:2909  if (previousOwner != to) {... */\n      tag_373\n      jumpi\n        /* \"@openzeppelin/contracts/token/ERC721/extensions/ERC721Enumerable.sol\":2842:2898  _removeTokenFromOwnerEnumeration(previousOwner, tokenId) */\n      tag_373\n        /* \"@openzeppelin/contracts/token/ERC721/extensions/ERC721Enumerable.sol\":2875:2888  previousOwner */\n      dup2\n        /* \"@openzeppelin/contracts/token/ERC721/extensions/ERC721Enumerable.sol\":2890:2897  tokenId */\n      dup6\n        /* \"@openzeppelin/contracts/token/ERC721/extensions/ERC721Enumerable.sol\":2842:2874  _removeTokenFromOwnerEnumeration */\n      tag_374\n        /* \"@openzeppelin/contracts/token/ERC721/extensions/ERC721Enumerable.sol\":2842:2898  _removeTokenFromOwnerEnumeration(previousOwner, tokenId) */\n      jump\t// in\n    tag_373:\n      sub(shl(0xa0, 0x01), 0x01)\n        /* \"@openzeppelin/contracts/token/ERC721/extensions/ERC721Enumerable.sol\":2922:2938  to == address(0) */\n      dup6\n      and\n        /* \"@openzeppelin/contracts/token/ERC721/extensions/ERC721Enumerable.sol\":2918:3106  if (to == address(0)) {... */\n      tag_375\n      jumpi\n        /* \"@openzeppelin/contracts/token/ERC721/extensions/ERC721Enumerable.sol\":2954:2999  _removeTokenFromAllTokensEnumeration(tokenId) */\n      tag_376\n        /* \"@openzeppelin/contracts/token/ERC721/extensions/ERC721Enumerable.sol\":2991:2998  tokenId */\n      dup5\n        /* \"@openzeppelin/contracts/token/ERC721/extensions/ERC721Enumerable.sol\":2954:2990  _removeTokenFromAllTokensEnumeration */\n      tag_377\n        /* \"@openzeppelin/contracts/token/ERC721/extensions/ERC721Enumerable.sol\":2954:2999  _removeTokenFromAllTokensEnumeration(tokenId) */\n      jump\t// in\n    tag_376:\n        /* \"@openzeppelin/contracts/token/ERC721/extensions/ERC721Enumerable.sol\":2918:3106  if (to == address(0)) {... */\n      jump(tag_380)\n    tag_375:\n        /* \"@openzeppelin/contracts/token/ERC721/extensions/ERC721Enumerable.sol\":3037:3039  to */\n      dup5\n      sub(shl(0xa0, 0x01), 0x01)\n        /* \"@openzeppelin/contracts/token/ERC721/extensions/ERC721Enumerable.sol\":3020:3039  previousOwner != to */\n      and\n        /* \"@openzeppelin/contracts/token/ERC721/extensions/ERC721Enumerable.sol\":3020:3033  previousOwner */\n      dup2\n      sub(shl(0xa0, 0x01), 0x01)\n        /* \"@openzeppelin/contracts/token/ERC721/extensions/ERC721Enumerable.sol\":3020:3039  previousOwner != to */\n      and\n      eq\n        /* \"@openzeppelin/contracts/token/ERC721/extensions/ERC721Enumerable.sol\":3016:3106  if (previousOwner != to) {... */\n      tag_380\n      jumpi\n        /* \"@openzeppelin/contracts/token/ERC721/extensions/ERC721Enumerable.sol\":3055:3095  _addTokenToOwnerEnumeration(to, tokenId) */\n      tag_380\n        /* \"@openzeppelin/contracts/token/ERC721/extensions/ERC721Enumerable.sol\":3083:3085  to */\n      dup6\n        /* \"@openzeppelin/contracts/token/ERC721/extensions/ERC721Enumerable.sol\":3087:3094  tokenId */\n      dup6\n        /* \"@openzeppelin/contracts/token/ERC721/extensions/ERC721Enumerable.sol\":3055:3082  _addTokenToOwnerEnumeration */\n      tag_381\n        /* \"@openzeppelin/contracts/token/ERC721/extensions/ERC721Enumerable.sol\":3055:3095  _addTokenToOwnerEnumeration(to, tokenId) */\n      jump\t// in\n    tag_380:\n        /* \"@openzeppelin/contracts/token/ERC721/extensions/ERC721Enumerable.sol\":3123:3136  previousOwner */\n      swap5\n        /* \"@openzeppelin/contracts/token/ERC721/extensions/ERC721Enumerable.sol\":2518:3143  function _update(address to, uint256 tokenId, address auth) internal virtual override returns (address) {... */\n      swap4\n      pop\n      pop\n      pop\n      pop\n      jump\t// out\n        /* \"@openzeppelin/contracts/token/ERC721/ERC721.sol\":10633:10733  function _safeMint(address to, uint256 tokenId) internal {... */\n    tag_286:\n        /* \"@openzeppelin/contracts/token/ERC721/ERC721.sol\":10700:10726  _safeMint(to, tokenId, \"\") */\n      tag_228\n        /* \"@openzeppelin/contracts/token/ERC721/ERC721.sol\":10710:10712  to */\n      dup3\n        /* \"@openzeppelin/contracts/token/ERC721/ERC721.sol\":10714:10721  tokenId */\n      dup3\n        /* \"@openzeppelin/contracts/token/ERC721/ERC721.sol\":10700:10726  _safeMint(to, tokenId, \"\") */\n      mload(0x40)\n      dup1\n      0x20\n      add\n      0x40\n      mstore\n      dup1\n      0x00\n      dup2\n      mstore\n      pop\n        /* \"@openzeppelin/contracts/token/ERC721/ERC721.sol\":10700:10709  _safeMint */\n      tag_384\n        /* \"@openzeppelin/contracts/token/ERC721/ERC721.sol\":10700:10726  _safeMint(to, tokenId, \"\") */\n      jump\t// in\n        /* \"contracts/BananaNFT.sol\":2560:2716  function _setTokenURI(... */\n    tag_288:\n        /* \"contracts/BananaNFT.sol\":2677:2696  _tokenURIs[tokenId] */\n      0x00\n      dup3\n      dup2\n      mstore\n        /* \"contracts/BananaNFT.sol\":2677:2687  _tokenURIs */\n      0x11\n        /* \"contracts/BananaNFT.sol\":2677:2696  _tokenURIs[tokenId] */\n      0x20\n      mstore\n      0x40\n      swap1\n      keccak256\n        /* \"contracts/BananaNFT.sol\":2677:2708  _tokenURIs[tokenId] = _tokenURI */\n      tag_264\n        /* \"contracts/BananaNFT.sol\":2699:2708  _tokenURI */\n      dup3\n        /* \"contracts/BananaNFT.sol\":2677:2696  _tokenURIs[tokenId] */\n      dup3\n        /* \"contracts/BananaNFT.sol\":2677:2708  _tokenURIs[tokenId] = _tokenURI */\n      tag_387\n      jump\t// in\n        /* \"@openzeppelin/contracts/access/Ownable.sol\":2912:3099  function _transferOwnership(address newOwner) internal virtual {... */\n    tag_299:\n        /* \"@openzeppelin/contracts/access/Ownable.sol\":3004:3010  _owner */\n      0x0a\n      dup1\n      sload\n      sub(shl(0xa0, 0x01), 0x01)\n        /* \"@openzeppelin/contracts/access/Ownable.sol\":3020:3037  _owner = newOwner */\n      dup4\n      dup2\n      and\n      not(sub(shl(0xa0, 0x01), 0x01))\n      dup4\n      and\n      dup2\n      or\n      swap1\n      swap4\n      sstore\n        /* \"@openzeppelin/contracts/access/Ownable.sol\":3052:3092  OwnershipTransferred(oldOwner, newOwner) */\n      mload(0x40)\n        /* \"@openzeppelin/contracts/access/Ownable.sol\":3004:3010  _owner */\n      swap2\n      and\n      swap2\n        /* \"@openzeppelin/contracts/access/Ownable.sol\":3020:3037  _owner = newOwner */\n      swap1\n        /* \"@openzeppelin/contracts/access/Ownable.sol\":3004:3010  _owner */\n      dup3\n      swap1\n        /* \"@openzeppelin/contracts/access/Ownable.sol\":3052:3092  OwnershipTransferred(oldOwner, newOwner) */\n      0x8be0079c531659141344cd1fd0a4f28419497f9722a3daafe3b4186f6b6457e0\n      swap1\n        /* \"@openzeppelin/contracts/access/Ownable.sol\":2985:3001  address oldOwner */\n      0x00\n      swap1\n        /* \"@openzeppelin/contracts/access/Ownable.sol\":3052:3092  OwnershipTransferred(oldOwner, newOwner) */\n      log3\n        /* \"@openzeppelin/contracts/access/Ownable.sol\":2975:3099  {... */\n      pop\n        /* \"@openzeppelin/contracts/access/Ownable.sol\":2912:3099  function _transferOwnership(address newOwner) internal virtual {... */\n      pop\n      jump\t// out\n        /* \"@openzeppelin/contracts/token/ERC721/ERC721.sol\":15591:15903  function _setApprovalForAll(address owner, address operator, bool approved) internal virtual {... */\n    tag_310:\n      sub(shl(0xa0, 0x01), 0x01)\n        /* \"@openzeppelin/contracts/token/ERC721/ERC721.sol\":15698:15720  operator == address(0) */\n      dup3\n      and\n        /* \"@openzeppelin/contracts/token/ERC721/ERC721.sol\":15694:15785  if (operator == address(0)) {... */\n      tag_390\n      jumpi\n        /* \"@openzeppelin/contracts/token/ERC721/ERC721.sol\":15743:15774  ERC721InvalidOperator(operator) */\n      mload(0x40)\n      shl(0xe3, 0x0b611743)\n      dup2\n      mstore\n      sub(shl(0xa0, 0x01), 0x01)\n        /* \"#utility.yul\":2168:2200   */\n      dup4\n      and\n        /* \"@openzeppelin/contracts/token/ERC721/ERC721.sol\":15743:15774  ERC721InvalidOperator(operator) */\n      0x04\n      dup3\n      add\n        /* \"#utility.yul\":2150:2201   */\n      mstore\n        /* \"#utility.yul\":2123:2141   */\n      0x24\n      add\n        /* \"@openzeppelin/contracts/token/ERC721/ERC721.sol\":15743:15774  ERC721InvalidOperator(operator) */\n      tag_245\n        /* \"#utility.yul\":2004:2207   */\n      jump\n        /* \"@openzeppelin/contracts/token/ERC721/ERC721.sol\":15694:15785  if (operator == address(0)) {... */\n    tag_390:\n      sub(shl(0xa0, 0x01), 0x01)\n        /* \"@openzeppelin/contracts/token/ERC721/ERC721.sol\":15794:15819  _operatorApprovals[owner] */\n      dup4\n      dup2\n      and\n      0x00\n      dup2\n      dup2\n      mstore\n        /* \"@openzeppelin/contracts/token/ERC721/ERC721.sol\":15794:15812  _operatorApprovals */\n      0x05\n        /* \"@openzeppelin/contracts/token/ERC721/ERC721.sol\":15794:15819  _operatorApprovals[owner] */\n      0x20\n      swap1\n      dup2\n      mstore\n      0x40\n      dup1\n      dup4\n      keccak256\n        /* \"@openzeppelin/contracts/token/ERC721/ERC721.sol\":15794:15829  _operatorApprovals[owner][operator] */\n      swap5\n      dup8\n      and\n      dup1\n      dup5\n      mstore\n      swap5\n      dup3\n      mstore\n      swap2\n      dup3\n      swap1\n      keccak256\n        /* \"@openzeppelin/contracts/token/ERC721/ERC721.sol\":15794:15840  _operatorApprovals[owner][operator] = approved */\n      dup1\n      sload\n      not(0xff)\n      and\n      dup7\n      iszero\n      iszero\n      swap1\n      dup2\n      or\n      swap1\n      swap2\n      sstore\n        /* \"@openzeppelin/contracts/token/ERC721/ERC721.sol\":15855:15896  ApprovalForAll(owner, operator, approved) */\n      swap2\n      mload\n        /* \"#utility.yul\":722:763   */\n      swap2\n      dup3\n      mstore\n        /* \"@openzeppelin/contracts/token/ERC721/ERC721.sol\":15855:15896  ApprovalForAll(owner, operator, approved) */\n      0x17307eab39ab6107e8899845ad3d59bd9653f200f220920489ca2b5937696c31\n      swap2\n        /* \"#utility.yul\":695:713   */\n      add\n        /* \"@openzeppelin/contracts/token/ERC721/ERC721.sol\":15855:15896  ApprovalForAll(owner, operator, approved) */\n      mload(0x40)\n      dup1\n      swap2\n      sub\n      swap1\n      log3\n        /* \"@openzeppelin/contracts/token/ERC721/ERC721.sol\":15591:15903  function _setApprovalForAll(address owner, address operator, bool approved) internal virtual {... */\n      pop\n      pop\n      pop\n      jump\t// out\n        /* \"@openzeppelin/contracts/token/ERC721/ERC721.sol\":16918:17700  function _checkOnERC721Received(address from, address to, uint256 tokenId, bytes memory data) private {... */\n    tag_314:\n      sub(shl(0xa0, 0x01), 0x01)\n        /* \"@openzeppelin/contracts/token/ERC721/ERC721.sol\":17034:17048  to.code.length */\n      dup4\n      and\n      extcodesize\n        /* \"@openzeppelin/contracts/token/ERC721/ERC721.sol\":17034:17052  to.code.length > 0 */\n      iszero\n        /* \"@openzeppelin/contracts/token/ERC721/ERC721.sol\":17030:17694  if (to.code.length > 0) {... */\n      tag_249\n      jumpi\n        /* \"@openzeppelin/contracts/token/ERC721/ERC721.sol\":17072:17143  IERC721Receiver(to).onERC721Received(_msgSender(), from, tokenId, data) */\n      mload(0x40)\n      shl(0xe1, 0x0a85bd01)\n      dup2\n      mstore\n      sub(shl(0xa0, 0x01), 0x01)\n        /* \"@openzeppelin/contracts/token/ERC721/ERC721.sol\":17072:17108  IERC721Receiver(to).onERC721Received */\n      dup5\n      and\n      swap1\n      0x150b7a02\n      swap1\n        /* \"@openzeppelin/contracts/token/ERC721/ERC721.sol\":17072:17143  IERC721Receiver(to).onERC721Received(_msgSender(), from, tokenId, data) */\n      tag_396\n      swap1\n        /* \"@openzeppelin/contracts/utils/Context.sol\":735:745  msg.sender */\n      caller\n      swap1\n        /* \"@openzeppelin/contracts/token/ERC721/ERC721.sol\":17123:17127  from */\n      dup9\n      swap1\n        /* \"@openzeppelin/contracts/token/ERC721/ERC721.sol\":17129:17136  tokenId */\n      dup8\n      swap1\n        /* \"@openzeppelin/contracts/token/ERC721/ERC721.sol\":17138:17142  data */\n      dup8\n      swap1\n        /* \"@openzeppelin/contracts/token/ERC721/ERC721.sol\":17072:17143  IERC721Receiver(to).onERC721Received(_msgSender(), from, tokenId, data) */\n      0x04\n      add\n      tag_397\n      jump\t// in\n    tag_396:\n      0x20\n      mload(0x40)\n      dup1\n      dup4\n      sub\n      dup2\n      0x00\n      dup8\n      gas\n      call\n      swap3\n      pop\n      pop\n      pop\n      dup1\n      iszero\n      tag_398\n      jumpi\n      pop\n      0x40\n      dup1\n      mload\n      0x1f\n      returndatasize\n      swap1\n      dup2\n      add\n      not(0x1f)\n      and\n      dup3\n      add\n      swap1\n      swap3\n      mstore\n      tag_399\n      swap2\n      dup2\n      add\n      swap1\n      tag_400\n      jump\t// in\n    tag_399:\n      0x01\n    tag_398:\n        /* \"@openzeppelin/contracts/token/ERC721/ERC721.sol\":17068:17684  try IERC721Receiver(to).onERC721Received(_msgSender(), from, tokenId, data) returns (bytes4 retval) {... */\n      tag_401\n      jumpi\n      returndatasize\n      dup1\n      dup1\n      iszero\n      tag_406\n      jumpi\n      mload(0x40)\n      swap2\n      pop\n      and(add(returndatasize, 0x3f), not(0x1f))\n      dup3\n      add\n      0x40\n      mstore\n      returndatasize\n      dup3\n      mstore\n      returndatasize\n      0x00\n      0x20\n      dup5\n      add\n      returndatacopy\n      jump(tag_405)\n    tag_406:\n      0x60\n      swap2\n      pop\n    tag_405:\n      pop\n        /* \"@openzeppelin/contracts/token/ERC721/ERC721.sol\":17381:17387  reason */\n      dup1\n        /* \"@openzeppelin/contracts/token/ERC721/ERC721.sol\":17381:17394  reason.length */\n      mload\n        /* \"@openzeppelin/contracts/token/ERC721/ERC721.sol\":17398:17399  0 */\n      0x00\n        /* \"@openzeppelin/contracts/token/ERC721/ERC721.sol\":17381:17399  reason.length == 0 */\n      sub\n        /* \"@openzeppelin/contracts/token/ERC721/ERC721.sol\":17377:17670  if (reason.length == 0) {... */\n      tag_407\n      jumpi\n        /* \"@openzeppelin/contracts/token/ERC721/ERC721.sol\":17430:17455  ERC721InvalidReceiver(to) */\n      mload(0x40)\n      shl(0xe1, 0x32505749)\n      dup2\n      mstore\n      sub(shl(0xa0, 0x01), 0x01)\n        /* \"#utility.yul\":2168:2200   */\n      dup6\n      and\n        /* \"@openzeppelin/contracts/token/ERC721/ERC721.sol\":17430:17455  ERC721InvalidReceiver(to) */\n      0x04\n      dup3\n      add\n        /* \"#utility.yul\":2150:2201   */\n      mstore\n        /* \"#utility.yul\":2123:2141   */\n      0x24\n      add\n        /* \"@openzeppelin/contracts/token/ERC721/ERC721.sol\":17430:17455  ERC721InvalidReceiver(to) */\n      tag_245\n        /* \"#utility.yul\":2004:2207   */\n      jump\n        /* \"@openzeppelin/contracts/token/ERC721/ERC721.sol\":17377:17670  if (reason.length == 0) {... */\n    tag_407:\n        /* \"@openzeppelin/contracts/token/ERC721/ERC721.sol\":17622:17628  reason */\n      dup1\n        /* \"@openzeppelin/contracts/token/ERC721/ERC721.sol\":17616:17629  mload(reason) */\n      mload\n        /* \"@openzeppelin/contracts/token/ERC721/ERC721.sol\":17607:17613  reason */\n      dup2\n        /* \"@openzeppelin/contracts/token/ERC721/ERC721.sol\":17603:17605  32 */\n      0x20\n        /* \"@openzeppelin/contracts/token/ERC721/ERC721.sol\":17599:17614  add(32, reason) */\n      add\n        /* \"@openzeppelin/contracts/token/ERC721/ERC721.sol\":17592:17630  revert(add(32, reason), mload(reason)) */\n      revert\n        /* \"@openzeppelin/contracts/token/ERC721/ERC721.sol\":17068:17684  try IERC721Receiver(to).onERC721Received(_msgSender(), from, tokenId, data) returns (bytes4 retval) {... */\n    tag_401:\n      not(sub(shl(0xe0, 0x01), 0x01))\n        /* \"@openzeppelin/contracts/token/ERC721/ERC721.sol\":17190:17241  retval != IERC721Receiver.onERC721Received.selector */\n      dup2\n      and\n      shl(0xe1, 0x0a85bd01)\n      eq\n        /* \"@openzeppelin/contracts/token/ERC721/ERC721.sol\":17186:17316  if (retval != IERC721Receiver.onERC721Received.selector) {... */\n      tag_411\n      jumpi\n        /* \"@openzeppelin/contracts/token/ERC721/ERC721.sol\":17272:17297  ERC721InvalidReceiver(to) */\n      mload(0x40)\n      shl(0xe1, 0x32505749)\n      dup2\n      mstore\n      sub(shl(0xa0, 0x01), 0x01)\n        /* \"#utility.yul\":2168:2200   */\n      dup6\n      and\n        /* \"@openzeppelin/contracts/token/ERC721/ERC721.sol\":17272:17297  ERC721InvalidReceiver(to) */\n      0x04\n      dup3\n      add\n        /* \"#utility.yul\":2150:2201   */\n      mstore\n        /* \"#utility.yul\":2123:2141   */\n      0x24\n      add\n        /* \"@openzeppelin/contracts/token/ERC721/ERC721.sol\":17272:17297  ERC721InvalidReceiver(to) */\n      tag_245\n        /* \"#utility.yul\":2004:2207   */\n      jump\n        /* \"@openzeppelin/contracts/token/ERC721/ERC721.sol\":17186:17316  if (retval != IERC721Receiver.onERC721Received.selector) {... */\n    tag_411:\n        /* \"@openzeppelin/contracts/token/ERC721/ERC721.sol\":17144:17330  returns (bytes4 retval) {... */\n      pop\n        /* \"@openzeppelin/contracts/token/ERC721/ERC721.sol\":16918:17700  function _checkOnERC721Received(address from, address to, uint256 tokenId, bytes memory data) private {... */\n      pop\n      pop\n      pop\n      pop\n      jump\t// out\n        /* \"@openzeppelin/contracts/token/ERC721/ERC721.sol\":14720:15382  function _approve(address to, uint256 tokenId, address auth, bool emitEvent) internal virtual {... */\n    tag_358:\n        /* \"@openzeppelin/contracts/token/ERC721/ERC721.sol\":14880:14889  emitEvent */\n      dup1\n        /* \"@openzeppelin/contracts/token/ERC721/ERC721.sol\":14880:14911  emitEvent || auth != address(0) */\n      dup1\n      tag_416\n      jumpi\n      pop\n      sub(shl(0xa0, 0x01), 0x01)\n        /* \"@openzeppelin/contracts/token/ERC721/ERC721.sol\":14893:14911  auth != address(0) */\n      dup3\n      and\n      iszero\n      iszero\n        /* \"@openzeppelin/contracts/token/ERC721/ERC721.sol\":14880:14911  emitEvent || auth != address(0) */\n    tag_416:\n        /* \"@openzeppelin/contracts/token/ERC721/ERC721.sol\":14876:15336  if (emitEvent || auth != address(0)) {... */\n      iszero\n      tag_417\n      jumpi\n        /* \"@openzeppelin/contracts/token/ERC721/ERC721.sol\":14927:14940  address owner */\n      0x00\n        /* \"@openzeppelin/contracts/token/ERC721/ERC721.sol\":14943:14965  _requireOwned(tokenId) */\n      tag_418\n        /* \"@openzeppelin/contracts/token/ERC721/ERC721.sol\":14957:14964  tokenId */\n      dup5\n        /* \"@openzeppelin/contracts/token/ERC721/ERC721.sol\":14943:14956  _requireOwned */\n      tag_224\n        /* \"@openzeppelin/contracts/token/ERC721/ERC721.sol\":14943:14965  _requireOwned(tokenId) */\n      jump\t// in\n    tag_418:\n        /* \"@openzeppelin/contracts/token/ERC721/ERC721.sol\":14927:14965  address owner = _requireOwned(tokenId) */\n      swap1\n      pop\n      sub(shl(0xa0, 0x01), 0x01)\n        /* \"@openzeppelin/contracts/token/ERC721/ERC721.sol\":15093:15111  auth != address(0) */\n      dup4\n      and\n      iszero\n      dup1\n      iszero\n      swap1\n        /* \"@openzeppelin/contracts/token/ERC721/ERC721.sol\":15093:15128  auth != address(0) && owner != auth */\n      tag_419\n      jumpi\n      pop\n        /* \"@openzeppelin/contracts/token/ERC721/ERC721.sol\":15124:15128  auth */\n      dup3\n      sub(shl(0xa0, 0x01), 0x01)\n        /* \"@openzeppelin/contracts/token/ERC721/ERC721.sol\":15115:15128  owner != auth */\n      and\n        /* \"@openzeppelin/contracts/token/ERC721/ERC721.sol\":15115:15120  owner */\n      dup2\n      sub(shl(0xa0, 0x01), 0x01)\n        /* \"@openzeppelin/contracts/token/ERC721/ERC721.sol\":15115:15128  owner != auth */\n      and\n      eq\n      iszero\n        /* \"@openzeppelin/contracts/token/ERC721/ERC721.sol\":15093:15128  auth != address(0) && owner != auth */\n    tag_419:\n        /* \"@openzeppelin/contracts/token/ERC721/ERC721.sol\":15093:15162  auth != address(0) && owner != auth && !isApprovedForAll(owner, auth) */\n      dup1\n      iszero\n      tag_420\n      jumpi\n      pop\n        /* \"@openzeppelin/contracts/token/ERC721/ERC721.sol\":15133:15162  isApprovedForAll(owner, auth) */\n      tag_421\n        /* \"@openzeppelin/contracts/token/ERC721/ERC721.sol\":15150:15155  owner */\n      dup2\n        /* \"@openzeppelin/contracts/token/ERC721/ERC721.sol\":15157:15161  auth */\n      dup5\n        /* \"@openzeppelin/contracts/token/ERC721/ERC721.sol\":15133:15149  isApprovedForAll */\n      tag_188\n        /* \"@openzeppelin/contracts/token/ERC721/ERC721.sol\":15133:15162  isApprovedForAll(owner, auth) */\n      jump\t// in\n    tag_421:\n        /* \"@openzeppelin/contracts/token/ERC721/ERC721.sol\":15132:15162  !isApprovedForAll(owner, auth) */\n      iszero\n        /* \"@openzeppelin/contracts/token/ERC721/ERC721.sol\":15093:15162  auth != address(0) && owner != auth && !isApprovedForAll(owner, auth) */\n    tag_420:\n        /* \"@openzeppelin/contracts/token/ERC721/ERC721.sol\":15089:15231  if (auth != address(0) && owner != auth && !isApprovedForAll(owner, auth)) {... */\n      iszero\n      tag_422\n      jumpi\n        /* \"@openzeppelin/contracts/token/ERC721/ERC721.sol\":15189:15216  ERC721InvalidApprover(auth) */\n      mload(0x40)\n      shl(0xe0, 0xa9fbf51f)\n      dup2\n      mstore\n      sub(shl(0xa0, 0x01), 0x01)\n        /* \"#utility.yul\":2168:2200   */\n      dup5\n      and\n        /* \"@openzeppelin/contracts/token/ERC721/ERC721.sol\":15189:15216  ERC721InvalidApprover(auth) */\n      0x04\n      dup3\n      add\n        /* \"#utility.yul\":2150:2201   */\n      mstore\n        /* \"#utility.yul\":2123:2141   */\n      0x24\n      add\n        /* \"@openzeppelin/contracts/token/ERC721/ERC721.sol\":15189:15216  ERC721InvalidApprover(auth) */\n      tag_245\n        /* \"#utility.yul\":2004:2207   */\n      jump\n        /* \"@openzeppelin/contracts/token/ERC721/ERC721.sol\":15089:15231  if (auth != address(0) && owner != auth && !isApprovedForAll(owner, auth)) {... */\n    tag_422:\n        /* \"@openzeppelin/contracts/token/ERC721/ERC721.sol\":15249:15258  emitEvent */\n      dup2\n        /* \"@openzeppelin/contracts/token/ERC721/ERC721.sol\":15245:15326  if (emitEvent) {... */\n      iszero\n      tag_424\n      jumpi\n        /* \"@openzeppelin/contracts/token/ERC721/ERC721.sol\":15303:15310  tokenId */\n      dup4\n        /* \"@openzeppelin/contracts/token/ERC721/ERC721.sol\":15299:15301  to */\n      dup6\n      sub(shl(0xa0, 0x01), 0x01)\n        /* \"@openzeppelin/contracts/token/ERC721/ERC721.sol\":15283:15311  Approval(owner, to, tokenId) */\n      and\n        /* \"@openzeppelin/contracts/token/ERC721/ERC721.sol\":15292:15297  owner */\n      dup3\n      sub(shl(0xa0, 0x01), 0x01)\n        /* \"@openzeppelin/contracts/token/ERC721/ERC721.sol\":15283:15311  Approval(owner, to, tokenId) */\n      and\n      0x8c5be1e5ebec7d5bd14f71427d1e84f3dd0314c0f7b2291e5b200ac8c7c3b925\n      mload(0x40)\n      mload(0x40)\n      dup1\n      swap2\n      sub\n      swap1\n      log4\n        /* \"@openzeppelin/contracts/token/ERC721/ERC721.sol\":15245:15326  if (emitEvent) {... */\n    tag_424:\n        /* \"@openzeppelin/contracts/token/ERC721/ERC721.sol\":14913:15336  {... */\n      pop\n        /* \"@openzeppelin/contracts/token/ERC721/ERC721.sol\":14876:15336  if (emitEvent || auth != address(0)) {... */\n    tag_417:\n      pop\n      pop\n        /* \"@openzeppelin/contracts/token/ERC721/ERC721.sol\":15346:15370  _tokenApprovals[tokenId] */\n      0x00\n      swap1\n      dup2\n      mstore\n        /* \"@openzeppelin/contracts/token/ERC721/ERC721.sol\":15346:15361  _tokenApprovals */\n      0x04\n        /* \"@openzeppelin/contracts/token/ERC721/ERC721.sol\":15346:15370  _tokenApprovals[tokenId] */\n      0x20\n      mstore\n      0x40\n      swap1\n      keccak256\n        /* \"@openzeppelin/contracts/token/ERC721/ERC721.sol\":15346:15375  _tokenApprovals[tokenId] = to */\n      dup1\n      sload\n      not(sub(shl(0xa0, 0x01), 0x01))\n      and\n      sub(shl(0xa0, 0x01), 0x01)\n      swap3\n      swap1\n      swap3\n      and\n      swap2\n      swap1\n      swap2\n      or\n      swap1\n      sstore\n        /* \"@openzeppelin/contracts/token/ERC721/ERC721.sol\":14720:15382  function _approve(address to, uint256 tokenId, address auth, bool emitEvent) internal virtual {... */\n      jump\t// out\n        /* \"@openzeppelin/contracts/token/ERC721/ERC721.sol\":8838:9633  function _update(address to, uint256 tokenId, address auth) internal virtual returns (address) {... */\n    tag_367:\n        /* \"@openzeppelin/contracts/token/ERC721/ERC721.sol\":8924:8931  address */\n      0x00\n        /* \"@openzeppelin/contracts/token/ERC721/ERC721.sol\":5799:5815  _owners[tokenId] */\n      dup3\n      dup2\n      mstore\n        /* \"@openzeppelin/contracts/token/ERC721/ERC721.sol\":5799:5806  _owners */\n      0x02\n        /* \"@openzeppelin/contracts/token/ERC721/ERC721.sol\":5799:5815  _owners[tokenId] */\n      0x20\n      mstore\n      0x40\n      dup2\n      keccak256\n      sload\n      sub(shl(0xa0, 0x01), 0x01)\n      swap1\n      dup2\n      and\n      swap1\n        /* \"@openzeppelin/contracts/token/ERC721/ERC721.sol\":9035:9053  auth != address(0) */\n      dup4\n      and\n      iszero\n        /* \"@openzeppelin/contracts/token/ERC721/ERC721.sol\":9031:9117  if (auth != address(0)) {... */\n      tag_428\n      jumpi\n        /* \"@openzeppelin/contracts/token/ERC721/ERC721.sol\":9069:9106  _checkAuthorized(from, auth, tokenId) */\n      tag_428\n        /* \"@openzeppelin/contracts/token/ERC721/ERC721.sol\":9086:9090  from */\n      dup2\n        /* \"@openzeppelin/contracts/token/ERC721/ERC721.sol\":9092:9096  auth */\n      dup5\n        /* \"@openzeppelin/contracts/token/ERC721/ERC721.sol\":9098:9105  tokenId */\n      dup7\n        /* \"@openzeppelin/contracts/token/ERC721/ERC721.sol\":9069:9085  _checkAuthorized */\n      tag_429\n        /* \"@openzeppelin/contracts/token/ERC721/ERC721.sol\":9069:9106  _checkAuthorized(from, auth, tokenId) */\n      jump\t// in\n    tag_428:\n      sub(shl(0xa0, 0x01), 0x01)\n        /* \"@openzeppelin/contracts/token/ERC721/ERC721.sol\":9161:9179  from != address(0) */\n      dup2\n      and\n      iszero\n        /* \"@openzeppelin/contracts/token/ERC721/ERC721.sol\":9157:9413  if (from != address(0)) {... */\n      tag_430\n      jumpi\n        /* \"@openzeppelin/contracts/token/ERC721/ERC721.sol\":9277:9325  _approve(address(0), tokenId, address(0), false) */\n      tag_431\n        /* \"@openzeppelin/contracts/token/ERC721/ERC721.sol\":9294:9295  0 */\n      0x00\n        /* \"@openzeppelin/contracts/token/ERC721/ERC721.sol\":9298:9305  tokenId */\n      dup6\n        /* \"@openzeppelin/contracts/token/ERC721/ERC721.sol\":9315:9316  0 */\n      0x00\n        /* \"@openzeppelin/contracts/token/ERC721/ERC721.sol\":9319:9324  false */\n      dup1\n        /* \"@openzeppelin/contracts/token/ERC721/ERC721.sol\":9277:9285  _approve */\n      tag_358\n        /* \"@openzeppelin/contracts/token/ERC721/ERC721.sol\":9277:9325  _approve(address(0), tokenId, address(0), false) */\n      jump\t// in\n    tag_431:\n      sub(shl(0xa0, 0x01), 0x01)\n        /* \"@openzeppelin/contracts/token/ERC721/ERC721.sol\":9368:9383  _balances[from] */\n      dup2\n      and\n      0x00\n      swap1\n      dup2\n      mstore\n        /* \"@openzeppelin/contracts/token/ERC721/ERC721.sol\":9368:9377  _balances */\n      0x03\n        /* \"@openzeppelin/contracts/token/ERC721/ERC721.sol\":9368:9383  _balances[from] */\n      0x20\n      mstore\n      0x40\n      swap1\n      keccak256\n        /* \"@openzeppelin/contracts/token/ERC721/ERC721.sol\":9368:9388  _balances[from] -= 1 */\n      dup1\n      sload\n      not(0x00)\n      add\n      swap1\n      sstore\n        /* \"@openzeppelin/contracts/token/ERC721/ERC721.sol\":9157:9413  if (from != address(0)) {... */\n    tag_430:\n      sub(shl(0xa0, 0x01), 0x01)\n        /* \"@openzeppelin/contracts/token/ERC721/ERC721.sol\":9427:9443  to != address(0) */\n      dup6\n      and\n      iszero\n        /* \"@openzeppelin/contracts/token/ERC721/ERC721.sol\":9423:9530  if (to != address(0)) {... */\n      tag_432\n      jumpi\n      sub(shl(0xa0, 0x01), 0x01)\n        /* \"@openzeppelin/contracts/token/ERC721/ERC721.sol\":9487:9500  _balances[to] */\n      dup6\n      and\n      0x00\n      swap1\n      dup2\n      mstore\n        /* \"@openzeppelin/contracts/token/ERC721/ERC721.sol\":9487:9496  _balances */\n      0x03\n        /* \"@openzeppelin/contracts/token/ERC721/ERC721.sol\":9487:9500  _balances[to] */\n      0x20\n      mstore\n      0x40\n      swap1\n      keccak256\n        /* \"@openzeppelin/contracts/token/ERC721/ERC721.sol\":9487:9505  _balances[to] += 1 */\n      dup1\n      sload\n        /* \"@openzeppelin/contracts/token/ERC721/ERC721.sol\":9504:9505  1 */\n      0x01\n        /* \"@openzeppelin/contracts/token/ERC721/ERC721.sol\":9487:9505  _balances[to] += 1 */\n      add\n      swap1\n      sstore\n        /* \"@openzeppelin/contracts/token/ERC721/ERC721.sol\":9423:9530  if (to != address(0)) {... */\n    tag_432:\n        /* \"@openzeppelin/contracts/token/ERC721/ERC721.sol\":9540:9556  _owners[tokenId] */\n      0x00\n      dup5\n      dup2\n      mstore\n        /* \"@openzeppelin/contracts/token/ERC721/ERC721.sol\":9540:9547  _owners */\n      0x02\n        /* \"@openzeppelin/contracts/token/ERC721/ERC721.sol\":9540:9556  _owners[tokenId] */\n      0x20\n      mstore\n      0x40\n      dup1\n      dup3\n      keccak256\n        /* \"@openzeppelin/contracts/token/ERC721/ERC721.sol\":9540:9561  _owners[tokenId] = to */\n      dup1\n      sload\n      not(sub(shl(0xa0, 0x01), 0x01))\n      and\n      sub(shl(0xa0, 0x01), 0x01)\n      dup10\n      dup2\n      and\n      swap2\n      dup3\n      or\n      swap1\n      swap3\n      sstore\n        /* \"@openzeppelin/contracts/token/ERC721/ERC721.sol\":9577:9604  Transfer(from, to, tokenId) */\n      swap2\n      mload\n        /* \"@openzeppelin/contracts/token/ERC721/ERC721.sol\":9540:9556  _owners[tokenId] */\n      dup8\n      swap4\n        /* \"@openzeppelin/contracts/token/ERC721/ERC721.sol\":9577:9604  Transfer(from, to, tokenId) */\n      swap2\n      dup6\n      and\n      swap2\n      0xddf252ad1be2c89b69c2b068fc378daa952ba7f163c4a11628f55a4df523b3ef\n      swap2\n      log4\n        /* \"@openzeppelin/contracts/token/ERC721/ERC721.sol\":9622:9626  from */\n      swap5\n        /* \"@openzeppelin/contracts/token/ERC721/ERC721.sol\":8838:9633  function _update(address to, uint256 tokenId, address auth) internal virtual returns (address) {... */\n      swap4\n      pop\n      pop\n      pop\n      pop\n      jump\t// out\n        /* \"@openzeppelin/contracts/token/ERC721/extensions/ERC721Enumerable.sol\":4624:5583  function _removeTokenFromOwnerEnumeration(address from, uint256 tokenId) private {... */\n    tag_374:\n        /* \"@openzeppelin/contracts/token/ERC721/extensions/ERC721Enumerable.sol\":4886:4908  uint256 lastTokenIndex */\n      0x00\n        /* \"@openzeppelin/contracts/token/ERC721/extensions/ERC721Enumerable.sol\":4911:4926  balanceOf(from) */\n      tag_436\n        /* \"@openzeppelin/contracts/token/ERC721/extensions/ERC721Enumerable.sol\":4921:4925  from */\n      dup4\n        /* \"@openzeppelin/contracts/token/ERC721/extensions/ERC721Enumerable.sol\":4911:4920  balanceOf */\n      tag_148\n        /* \"@openzeppelin/contracts/token/ERC721/extensions/ERC721Enumerable.sol\":4911:4926  balanceOf(from) */\n      jump\t// in\n    tag_436:\n        /* \"@openzeppelin/contracts/token/ERC721/extensions/ERC721Enumerable.sol\":4936:4954  uint256 tokenIndex */\n      0x00\n        /* \"@openzeppelin/contracts/token/ERC721/extensions/ERC721Enumerable.sol\":4957:4983  _ownedTokensIndex[tokenId] */\n      dup4\n      dup2\n      mstore\n        /* \"@openzeppelin/contracts/token/ERC721/extensions/ERC721Enumerable.sol\":4957:4974  _ownedTokensIndex */\n      0x07\n        /* \"@openzeppelin/contracts/token/ERC721/extensions/ERC721Enumerable.sol\":4957:4983  _ownedTokensIndex[tokenId] */\n      0x20\n      mstore\n      0x40\n      swap1\n      keccak256\n      sload\n        /* \"@openzeppelin/contracts/token/ERC721/extensions/ERC721Enumerable.sol\":4886:4926  uint256 lastTokenIndex = balanceOf(from) */\n      swap1\n      swap2\n      pop\n        /* \"@openzeppelin/contracts/token/ERC721/extensions/ERC721Enumerable.sol\":5087:5115  tokenIndex != lastTokenIndex */\n      dup1\n      dup3\n      eq\n        /* \"@openzeppelin/contracts/token/ERC721/extensions/ERC721Enumerable.sol\":5083:5406  if (tokenIndex != lastTokenIndex) {... */\n      tag_437\n      jumpi\n      sub(shl(0xa0, 0x01), 0x01)\n        /* \"@openzeppelin/contracts/token/ERC721/extensions/ERC721Enumerable.sol\":5153:5171  _ownedTokens[from] */\n      dup5\n      and\n        /* \"@openzeppelin/contracts/token/ERC721/extensions/ERC721Enumerable.sol\":5131:5150  uint256 lastTokenId */\n      0x00\n        /* \"@openzeppelin/contracts/token/ERC721/extensions/ERC721Enumerable.sol\":5153:5171  _ownedTokens[from] */\n      swap1\n      dup2\n      mstore\n        /* \"@openzeppelin/contracts/token/ERC721/extensions/ERC721Enumerable.sol\":5153:5165  _ownedTokens */\n      0x06\n        /* \"@openzeppelin/contracts/token/ERC721/extensions/ERC721Enumerable.sol\":5153:5171  _ownedTokens[from] */\n      0x20\n      swap1\n      dup2\n      mstore\n      0x40\n      dup1\n      dup4\n      keccak256\n        /* \"@openzeppelin/contracts/token/ERC721/extensions/ERC721Enumerable.sol\":5153:5187  _ownedTokens[from][lastTokenIndex] */\n      dup6\n      dup5\n      mstore\n      dup3\n      mstore\n      dup1\n      dup4\n      keccak256\n      sload\n        /* \"@openzeppelin/contracts/token/ERC721/extensions/ERC721Enumerable.sol\":5202:5232  _ownedTokens[from][tokenIndex] */\n      dup5\n      dup5\n      mstore\n      dup2\n      dup5\n      keccak256\n        /* \"@openzeppelin/contracts/token/ERC721/extensions/ERC721Enumerable.sol\":5202:5246  _ownedTokens[from][tokenIndex] = lastTokenId */\n      dup2\n      swap1\n      sstore\n        /* \"@openzeppelin/contracts/token/ERC721/extensions/ERC721Enumerable.sol\":5318:5348  _ownedTokensIndex[lastTokenId] */\n      dup4\n      mstore\n        /* \"@openzeppelin/contracts/token/ERC721/extensions/ERC721Enumerable.sol\":5318:5335  _ownedTokensIndex */\n      0x07\n        /* \"@openzeppelin/contracts/token/ERC721/extensions/ERC721Enumerable.sol\":5318:5348  _ownedTokensIndex[lastTokenId] */\n      swap1\n      swap2\n      mstore\n      swap1\n      keccak256\n        /* \"@openzeppelin/contracts/token/ERC721/extensions/ERC721Enumerable.sol\":5318:5361  _ownedTokensIndex[lastTokenId] = tokenIndex */\n      dup2\n      swap1\n      sstore\n        /* \"@openzeppelin/contracts/token/ERC721/extensions/ERC721Enumerable.sol\":5083:5406  if (tokenIndex != lastTokenIndex) {... */\n    tag_437:\n      pop\n        /* \"@openzeppelin/contracts/token/ERC721/extensions/ERC721Enumerable.sol\":5499:5525  _ownedTokensIndex[tokenId] */\n      0x00\n      swap2\n      dup3\n      mstore\n        /* \"@openzeppelin/contracts/token/ERC721/extensions/ERC721Enumerable.sol\":5499:5516  _ownedTokensIndex */\n      0x07\n        /* \"@openzeppelin/contracts/token/ERC721/extensions/ERC721Enumerable.sol\":5499:5525  _ownedTokensIndex[tokenId] */\n      0x20\n      swap1\n      dup2\n      mstore\n      0x40\n      dup1\n      dup5\n      keccak256\n        /* \"@openzeppelin/contracts/token/ERC721/extensions/ERC721Enumerable.sol\":5492:5525  delete _ownedTokensIndex[tokenId] */\n      dup5\n      swap1\n      sstore\n      sub(shl(0xa0, 0x01), 0x01)\n        /* \"@openzeppelin/contracts/token/ERC721/extensions/ERC721Enumerable.sol\":5542:5560  _ownedTokens[from] */\n      swap1\n      swap5\n      and\n      dup4\n      mstore\n        /* \"@openzeppelin/contracts/token/ERC721/extensions/ERC721Enumerable.sol\":5542:5554  _ownedTokens */\n      0x06\n        /* \"@openzeppelin/contracts/token/ERC721/extensions/ERC721Enumerable.sol\":5542:5560  _ownedTokens[from] */\n      dup2\n      mstore\n      dup4\n      dup4\n      keccak256\n        /* \"@openzeppelin/contracts/token/ERC721/extensions/ERC721Enumerable.sol\":5542:5576  _ownedTokens[from][lastTokenIndex] */\n      swap2\n      dup4\n      mstore\n      mstore\n      swap1\n      dup2\n      keccak256\n        /* \"@openzeppelin/contracts/token/ERC721/extensions/ERC721Enumerable.sol\":5535:5576  delete _ownedTokens[from][lastTokenIndex] */\n      sstore\n        /* \"@openzeppelin/contracts/token/ERC721/extensions/ERC721Enumerable.sol\":4624:5583  function _removeTokenFromOwnerEnumeration(address from, uint256 tokenId) private {... */\n      jump\t// out\n        /* \"@openzeppelin/contracts/token/ERC721/extensions/ERC721Enumerable.sol\":5871:6932  function _removeTokenFromAllTokensEnumeration(uint256 tokenId) private {... */\n    tag_377:\n        /* \"@openzeppelin/contracts/token/ERC721/extensions/ERC721Enumerable.sol\":6145:6155  _allTokens */\n      0x08\n        /* \"@openzeppelin/contracts/token/ERC721/extensions/ERC721Enumerable.sol\":6145:6162  _allTokens.length */\n      sload\n        /* \"@openzeppelin/contracts/token/ERC721/extensions/ERC721Enumerable.sol\":6120:6142  uint256 lastTokenIndex */\n      0x00\n      swap1\n        /* \"@openzeppelin/contracts/token/ERC721/extensions/ERC721Enumerable.sol\":6145:6166  _allTokens.length - 1 */\n      tag_439\n      swap1\n        /* \"@openzeppelin/contracts/token/ERC721/extensions/ERC721Enumerable.sol\":6165:6166  1 */\n      0x01\n      swap1\n        /* \"@openzeppelin/contracts/token/ERC721/extensions/ERC721Enumerable.sol\":6145:6166  _allTokens.length - 1 */\n      tag_440\n      jump\t// in\n    tag_439:\n        /* \"@openzeppelin/contracts/token/ERC721/extensions/ERC721Enumerable.sol\":6176:6194  uint256 tokenIndex */\n      0x00\n        /* \"@openzeppelin/contracts/token/ERC721/extensions/ERC721Enumerable.sol\":6197:6221  _allTokensIndex[tokenId] */\n      dup4\n      dup2\n      mstore\n        /* \"@openzeppelin/contracts/token/ERC721/extensions/ERC721Enumerable.sol\":6197:6212  _allTokensIndex */\n      0x09\n        /* \"@openzeppelin/contracts/token/ERC721/extensions/ERC721Enumerable.sol\":6197:6221  _allTokensIndex[tokenId] */\n      0x20\n      mstore\n      0x40\n      dup2\n      keccak256\n      sload\n        /* \"@openzeppelin/contracts/token/ERC721/extensions/ERC721Enumerable.sol\":6565:6575  _allTokens */\n      0x08\n        /* \"@openzeppelin/contracts/token/ERC721/extensions/ERC721Enumerable.sol\":6565:6591  _allTokens[lastTokenIndex] */\n      dup1\n      sload\n        /* \"@openzeppelin/contracts/token/ERC721/extensions/ERC721Enumerable.sol\":6120:6166  uint256 lastTokenIndex = _allTokens.length - 1 */\n      swap4\n      swap5\n      pop\n        /* \"@openzeppelin/contracts/token/ERC721/extensions/ERC721Enumerable.sol\":6197:6221  _allTokensIndex[tokenId] */\n      swap1\n      swap3\n        /* \"@openzeppelin/contracts/token/ERC721/extensions/ERC721Enumerable.sol\":6120:6166  uint256 lastTokenIndex = _allTokens.length - 1 */\n      dup5\n      swap1\n        /* \"@openzeppelin/contracts/token/ERC721/extensions/ERC721Enumerable.sol\":6565:6591  _allTokens[lastTokenIndex] */\n      dup2\n      lt\n      tag_442\n      jumpi\n      tag_442\n      tag_271\n      jump\t// in\n    tag_442:\n      swap1\n      0x00\n      mstore\n      keccak256(0x00, 0x20)\n      add\n      sload\n        /* \"@openzeppelin/contracts/token/ERC721/extensions/ERC721Enumerable.sol\":6543:6591  uint256 lastTokenId = _allTokens[lastTokenIndex] */\n      swap1\n      pop\n        /* \"@openzeppelin/contracts/token/ERC721/extensions/ERC721Enumerable.sol\":6627:6638  lastTokenId */\n      dup1\n        /* \"@openzeppelin/contracts/token/ERC721/extensions/ERC721Enumerable.sol\":6602:6612  _allTokens */\n      0x08\n        /* \"@openzeppelin/contracts/token/ERC721/extensions/ERC721Enumerable.sol\":6613:6623  tokenIndex */\n      dup4\n        /* \"@openzeppelin/contracts/token/ERC721/extensions/ERC721Enumerable.sol\":6602:6624  _allTokens[tokenIndex] */\n      dup2\n      sload\n      dup2\n      lt\n      tag_445\n      jumpi\n      tag_445\n      tag_271\n      jump\t// in\n    tag_445:\n      0x00\n      swap2\n      dup3\n      mstore\n      0x20\n      dup1\n      dup4\n      keccak256\n      swap1\n      swap2\n      add\n        /* \"@openzeppelin/contracts/token/ERC721/extensions/ERC721Enumerable.sol\":6602:6638  _allTokens[tokenIndex] = lastTokenId */\n      swap3\n      swap1\n      swap3\n      sstore\n        /* \"@openzeppelin/contracts/token/ERC721/extensions/ERC721Enumerable.sol\":6706:6734  _allTokensIndex[lastTokenId] */\n      dup3\n      dup2\n      mstore\n        /* \"@openzeppelin/contracts/token/ERC721/extensions/ERC721Enumerable.sol\":6706:6721  _allTokensIndex */\n      0x09\n        /* \"@openzeppelin/contracts/token/ERC721/extensions/ERC721Enumerable.sol\":6706:6734  _allTokensIndex[lastTokenId] */\n      swap1\n      swap2\n      mstore\n      0x40\n      dup1\n      dup3\n      keccak256\n        /* \"@openzeppelin/contracts/token/ERC721/extensions/ERC721Enumerable.sol\":6706:6747  _allTokensIndex[lastTokenId] = tokenIndex */\n      dup5\n      swap1\n      sstore\n        /* \"@openzeppelin/contracts/token/ERC721/extensions/ERC721Enumerable.sol\":6875:6899  _allTokensIndex[tokenId] */\n      dup6\n      dup3\n      mstore\n      dup2\n      keccak256\n        /* \"@openzeppelin/contracts/token/ERC721/extensions/ERC721Enumerable.sol\":6868:6899  delete _allTokensIndex[tokenId] */\n      sstore\n        /* \"@openzeppelin/contracts/token/ERC721/extensions/ERC721Enumerable.sol\":6909:6919  _allTokens */\n      0x08\n        /* \"@openzeppelin/contracts/token/ERC721/extensions/ERC721Enumerable.sol\":6909:6925  _allTokens.pop() */\n      dup1\n      sload\n      dup1\n      tag_448\n      jumpi\n      tag_448\n      tag_449\n      jump\t// in\n    tag_448:\n      0x01\n      swap1\n      sub\n      dup2\n      dup2\n      swap1\n      0x00\n      mstore\n      keccak256(0x00, 0x20)\n      add\n      0x00\n      swap1\n      sstore\n      swap1\n      sstore\n        /* \"@openzeppelin/contracts/token/ERC721/extensions/ERC721Enumerable.sol\":5942:6932  {... */\n      pop\n      pop\n      pop\n        /* \"@openzeppelin/contracts/token/ERC721/extensions/ERC721Enumerable.sol\":5871:6932  function _removeTokenFromAllTokensEnumeration(uint256 tokenId) private {... */\n      pop\n      jump\t// out\n        /* \"@openzeppelin/contracts/token/ERC721/extensions/ERC721Enumerable.sol\":3437:3651  function _addTokenToOwnerEnumeration(address to, uint256 tokenId) private {... */\n    tag_381:\n        /* \"@openzeppelin/contracts/token/ERC721/extensions/ERC721Enumerable.sol\":3521:3535  uint256 length */\n      0x00\n        /* \"@openzeppelin/contracts/token/ERC721/extensions/ERC721Enumerable.sol\":3554:3555  1 */\n      0x01\n        /* \"@openzeppelin/contracts/token/ERC721/extensions/ERC721Enumerable.sol\":3538:3551  balanceOf(to) */\n      tag_452\n        /* \"@openzeppelin/contracts/token/ERC721/extensions/ERC721Enumerable.sol\":3548:3550  to */\n      dup5\n        /* \"@openzeppelin/contracts/token/ERC721/extensions/ERC721Enumerable.sol\":3538:3547  balanceOf */\n      tag_148\n        /* \"@openzeppelin/contracts/token/ERC721/extensions/ERC721Enumerable.sol\":3538:3551  balanceOf(to) */\n      jump\t// in\n    tag_452:\n        /* \"@openzeppelin/contracts/token/ERC721/extensions/ERC721Enumerable.sol\":3538:3555  balanceOf(to) - 1 */\n      tag_453\n      swap2\n      swap1\n      tag_440\n      jump\t// in\n    tag_453:\n      sub(shl(0xa0, 0x01), 0x01)\n        /* \"@openzeppelin/contracts/token/ERC721/extensions/ERC721Enumerable.sol\":3565:3581  _ownedTokens[to] */\n      swap1\n      swap4\n      and\n      0x00\n      swap1\n      dup2\n      mstore\n        /* \"@openzeppelin/contracts/token/ERC721/extensions/ERC721Enumerable.sol\":3565:3577  _ownedTokens */\n      0x06\n        /* \"@openzeppelin/contracts/token/ERC721/extensions/ERC721Enumerable.sol\":3565:3581  _ownedTokens[to] */\n      0x20\n      swap1\n      dup2\n      mstore\n      0x40\n      dup1\n      dup4\n      keccak256\n        /* \"@openzeppelin/contracts/token/ERC721/extensions/ERC721Enumerable.sol\":3565:3589  _ownedTokens[to][length] */\n      dup7\n      dup5\n      mstore\n      dup3\n      mstore\n      dup1\n      dup4\n      keccak256\n        /* \"@openzeppelin/contracts/token/ERC721/extensions/ERC721Enumerable.sol\":3565:3599  _ownedTokens[to][length] = tokenId */\n      dup6\n      swap1\n      sstore\n        /* \"@openzeppelin/contracts/token/ERC721/extensions/ERC721Enumerable.sol\":3609:3635  _ownedTokensIndex[tokenId] */\n      swap4\n      dup3\n      mstore\n        /* \"@openzeppelin/contracts/token/ERC721/extensions/ERC721Enumerable.sol\":3609:3626  _ownedTokensIndex */\n      0x07\n        /* \"@openzeppelin/contracts/token/ERC721/extensions/ERC721Enumerable.sol\":3609:3635  _ownedTokensIndex[tokenId] */\n      swap1\n      mstore\n      swap2\n      swap1\n      swap2\n      keccak256\n        /* \"@openzeppelin/contracts/token/ERC721/extensions/ERC721Enumerable.sol\":3609:3644  _ownedTokensIndex[tokenId] = length */\n      swap2\n      swap1\n      swap2\n      sstore\n      pop\n        /* \"@openzeppelin/contracts/token/ERC721/extensions/ERC721Enumerable.sol\":3437:3651  function _addTokenToOwnerEnumeration(address to, uint256 tokenId) private {... */\n      jump\t// out\n        /* \"@openzeppelin/contracts/token/ERC721/ERC721.sol\":10954:11136  function _safeMint(address to, uint256 tokenId, bytes memory data) internal virtual {... */\n    tag_384:\n        /* \"@openzeppelin/contracts/token/ERC721/ERC721.sol\":11048:11066  _mint(to, tokenId) */\n      tag_455\n        /* \"@openzeppelin/contracts/token/ERC721/ERC721.sol\":11054:11056  to */\n      dup4\n        /* \"@openzeppelin/contracts/token/ERC721/ERC721.sol\":11058:11065  tokenId */\n      dup4\n        /* \"@openzeppelin/contracts/token/ERC721/ERC721.sol\":11048:11053  _mint */\n      tag_456\n        /* \"@openzeppelin/contracts/token/ERC721/ERC721.sol\":11048:11066  _mint(to, tokenId) */\n      jump\t// in\n    tag_455:\n        /* \"@openzeppelin/contracts/token/ERC721/ERC721.sol\":11076:11129  _checkOnERC721Received(address(0), to, tokenId, data) */\n      tag_264\n        /* \"@openzeppelin/contracts/token/ERC721/ERC721.sol\":11107:11108  0 */\n      0x00\n        /* \"@openzeppelin/contracts/token/ERC721/ERC721.sol\":11111:11113  to */\n      dup5\n        /* \"@openzeppelin/contracts/token/ERC721/ERC721.sol\":11115:11122  tokenId */\n      dup5\n        /* \"@openzeppelin/contracts/token/ERC721/ERC721.sol\":11124:11128  data */\n      dup5\n        /* \"@openzeppelin/contracts/token/ERC721/ERC721.sol\":11076:11098  _checkOnERC721Received */\n      tag_314\n        /* \"@openzeppelin/contracts/token/ERC721/ERC721.sol\":11076:11129  _checkOnERC721Received(address(0), to, tokenId, data) */\n      jump\t// in\n        /* \"@openzeppelin/contracts/token/ERC721/ERC721.sol\":7082:7450  function _checkAuthorized(address owner, address spender, uint256 tokenId) internal view virtual {... */\n    tag_429:\n        /* \"@openzeppelin/contracts/token/ERC721/ERC721.sol\":7194:7232  _isAuthorized(owner, spender, tokenId) */\n      tag_459\n        /* \"@openzeppelin/contracts/token/ERC721/ERC721.sol\":7208:7213  owner */\n      dup4\n        /* \"@openzeppelin/contracts/token/ERC721/ERC721.sol\":7215:7222  spender */\n      dup4\n        /* \"@openzeppelin/contracts/token/ERC721/ERC721.sol\":7224:7231  tokenId */\n      dup4\n        /* \"@openzeppelin/contracts/token/ERC721/ERC721.sol\":7194:7207  _isAuthorized */\n      tag_460\n        /* \"@openzeppelin/contracts/token/ERC721/ERC721.sol\":7194:7232  _isAuthorized(owner, spender, tokenId) */\n      jump\t// in\n    tag_459:\n        /* \"@openzeppelin/contracts/token/ERC721/ERC721.sol\":7189:7444  if (!_isAuthorized(owner, spender, tokenId)) {... */\n      tag_264\n      jumpi\n      sub(shl(0xa0, 0x01), 0x01)\n        /* \"@openzeppelin/contracts/token/ERC721/ERC721.sol\":7252:7271  owner == address(0) */\n      dup4\n      and\n        /* \"@openzeppelin/contracts/token/ERC721/ERC721.sol\":7248:7434  if (owner == address(0)) {... */\n      tag_462\n      jumpi\n        /* \"@openzeppelin/contracts/token/ERC721/ERC721.sol\":7298:7329  ERC721NonexistentToken(tokenId) */\n      mload(0x40)\n      shl(0xe0, 0x7e273289)\n      dup2\n      mstore\n      0x04\n      dup2\n      add\n        /* \"#utility.yul\":160:185   */\n      dup3\n      swap1\n      mstore\n        /* \"#utility.yul\":133:151   */\n      0x24\n      add\n        /* \"@openzeppelin/contracts/token/ERC721/ERC721.sol\":7298:7329  ERC721NonexistentToken(tokenId) */\n      tag_245\n        /* \"#utility.yul\":14:191   */\n      jump\n        /* \"@openzeppelin/contracts/token/ERC721/ERC721.sol\":7248:7434  if (owner == address(0)) {... */\n    tag_462:\n        /* \"@openzeppelin/contracts/token/ERC721/ERC721.sol\":7375:7419  ERC721InsufficientApproval(spender, tokenId) */\n      mload(0x40)\n      shl(0xe0, 0x177e802f)\n      dup2\n      mstore\n      sub(shl(0xa0, 0x01), 0x01)\n        /* \"#utility.yul\":6977:7009   */\n      dup4\n      and\n        /* \"@openzeppelin/contracts/token/ERC721/ERC721.sol\":7375:7419  ERC721InsufficientApproval(spender, tokenId) */\n      0x04\n      dup3\n      add\n        /* \"#utility.yul\":6959:7010   */\n      mstore\n        /* \"#utility.yul\":7026:7044   */\n      0x24\n      dup2\n      add\n        /* \"#utility.yul\":7019:7053   */\n      dup3\n      swap1\n      mstore\n        /* \"#utility.yul\":6932:6950   */\n      0x44\n      add\n        /* \"@openzeppelin/contracts/token/ERC721/ERC721.sol\":7375:7419  ERC721InsufficientApproval(spender, tokenId) */\n      tag_245\n        /* \"#utility.yul\":6785:7059   */\n      jump\n        /* \"@openzeppelin/contracts/token/ERC721/ERC721.sol\":9955:10282  function _mint(address to, uint256 tokenId) internal {... */\n    tag_456:\n      sub(shl(0xa0, 0x01), 0x01)\n        /* \"@openzeppelin/contracts/token/ERC721/ERC721.sol\":10022:10038  to == address(0) */\n      dup3\n      and\n        /* \"@openzeppelin/contracts/token/ERC721/ERC721.sol\":10018:10105  if (to == address(0)) {... */\n      tag_467\n      jumpi\n        /* \"@openzeppelin/contracts/token/ERC721/ERC721.sol\":10061:10094  ERC721InvalidReceiver(address(0)) */\n      mload(0x40)\n      shl(0xe1, 0x32505749)\n      dup2\n      mstore\n        /* \"@openzeppelin/contracts/token/ERC721/ERC721.sol\":10091:10092  0 */\n      0x00\n        /* \"@openzeppelin/contracts/token/ERC721/ERC721.sol\":10061:10094  ERC721InvalidReceiver(address(0)) */\n      0x04\n      dup3\n      add\n        /* \"#utility.yul\":2150:2201   */\n      mstore\n        /* \"#utility.yul\":2123:2141   */\n      0x24\n      add\n        /* \"@openzeppelin/contracts/token/ERC721/ERC721.sol\":10061:10094  ERC721InvalidReceiver(address(0)) */\n      tag_245\n        /* \"#utility.yul\":2004:2207   */\n      jump\n        /* \"@openzeppelin/contracts/token/ERC721/ERC721.sol\":10018:10105  if (to == address(0)) {... */\n    tag_467:\n        /* \"@openzeppelin/contracts/token/ERC721/ERC721.sol\":10114:10135  address previousOwner */\n      0x00\n        /* \"@openzeppelin/contracts/token/ERC721/ERC721.sol\":10138:10170  _update(to, tokenId, address(0)) */\n      tag_469\n        /* \"@openzeppelin/contracts/token/ERC721/ERC721.sol\":10146:10148  to */\n      dup4\n        /* \"@openzeppelin/contracts/token/ERC721/ERC721.sol\":10150:10157  tokenId */\n      dup4\n        /* \"@openzeppelin/contracts/token/ERC721/ERC721.sol\":10167:10168  0 */\n      0x00\n        /* \"@openzeppelin/contracts/token/ERC721/ERC721.sol\":10138:10145  _update */\n      tag_248\n        /* \"@openzeppelin/contracts/token/ERC721/ERC721.sol\":10138:10170  _update(to, tokenId, address(0)) */\n      jump\t// in\n    tag_469:\n        /* \"@openzeppelin/contracts/token/ERC721/ERC721.sol\":10114:10170  address previousOwner = _update(to, tokenId, address(0)) */\n      swap1\n      pop\n      sub(shl(0xa0, 0x01), 0x01)\n        /* \"@openzeppelin/contracts/token/ERC721/ERC721.sol\":10184:10211  previousOwner != address(0) */\n      dup2\n      and\n      iszero\n        /* \"@openzeppelin/contracts/token/ERC721/ERC721.sol\":10180:10276  if (previousOwner != address(0)) {... */\n      tag_264\n      jumpi\n        /* \"@openzeppelin/contracts/token/ERC721/ERC721.sol\":10234:10265  ERC721InvalidSender(address(0)) */\n      mload(0x40)\n      shl(0xe1, 0x39e35637)\n      dup2\n      mstore\n        /* \"@openzeppelin/contracts/token/ERC721/ERC721.sol\":10262:10263  0 */\n      0x00\n        /* \"@openzeppelin/contracts/token/ERC721/ERC721.sol\":10234:10265  ERC721InvalidSender(address(0)) */\n      0x04\n      dup3\n      add\n        /* \"#utility.yul\":2150:2201   */\n      mstore\n        /* \"#utility.yul\":2123:2141   */\n      0x24\n      add\n        /* \"@openzeppelin/contracts/token/ERC721/ERC721.sol\":10234:10265  ERC721InvalidSender(address(0)) */\n      tag_245\n        /* \"#utility.yul\":2004:2207   */\n      jump\n        /* \"@openzeppelin/contracts/token/ERC721/ERC721.sol\":6376:6648  function _isAuthorized(address owner, address spender, uint256 tokenId) internal view virtual returns (bool) {... */\n    tag_460:\n        /* \"@openzeppelin/contracts/token/ERC721/ERC721.sol\":6479:6483  bool */\n      0x00\n      sub(shl(0xa0, 0x01), 0x01)\n        /* \"@openzeppelin/contracts/token/ERC721/ERC721.sol\":6514:6535  spender != address(0) */\n      dup4\n      and\n      iszero\n      dup1\n      iszero\n      swap1\n        /* \"@openzeppelin/contracts/token/ERC721/ERC721.sol\":6514:6641  spender != address(0) &&... */\n      tag_380\n      jumpi\n      pop\n        /* \"@openzeppelin/contracts/token/ERC721/ERC721.sol\":6561:6568  spender */\n      dup3\n      sub(shl(0xa0, 0x01), 0x01)\n        /* \"@openzeppelin/contracts/token/ERC721/ERC721.sol\":6552:6568  owner == spender */\n      and\n        /* \"@openzeppelin/contracts/token/ERC721/ERC721.sol\":6552:6557  owner */\n      dup5\n      sub(shl(0xa0, 0x01), 0x01)\n        /* \"@openzeppelin/contracts/token/ERC721/ERC721.sol\":6552:6568  owner == spender */\n      and\n      eq\n        /* \"@openzeppelin/contracts/token/ERC721/ERC721.sol\":6552:6604  owner == spender || isApprovedForAll(owner, spender) */\n      dup1\n      tag_475\n      jumpi\n      pop\n        /* \"@openzeppelin/contracts/token/ERC721/ERC721.sol\":6572:6604  isApprovedForAll(owner, spender) */\n      tag_475\n        /* \"@openzeppelin/contracts/token/ERC721/ERC721.sol\":6589:6594  owner */\n      dup5\n        /* \"@openzeppelin/contracts/token/ERC721/ERC721.sol\":6596:6603  spender */\n      dup5\n        /* \"@openzeppelin/contracts/token/ERC721/ERC721.sol\":6572:6588  isApprovedForAll */\n      tag_188\n        /* \"@openzeppelin/contracts/token/ERC721/ERC721.sol\":6572:6604  isApprovedForAll(owner, spender) */\n      jump\t// in\n    tag_475:\n        /* \"@openzeppelin/contracts/token/ERC721/ERC721.sol\":6552:6640  owner == spender || isApprovedForAll(owner, spender) || _getApproved(tokenId) == spender */\n      dup1\n      tag_380\n      jumpi\n      pop\n      pop\n        /* \"@openzeppelin/contracts/token/ERC721/ERC721.sol\":6008:6015  address */\n      0x00\n        /* \"@openzeppelin/contracts/token/ERC721/ERC721.sol\":6034:6058  _tokenApprovals[tokenId] */\n      swap1\n      dup2\n      mstore\n        /* \"@openzeppelin/contracts/token/ERC721/ERC721.sol\":6034:6049  _tokenApprovals */\n      0x04\n        /* \"@openzeppelin/contracts/token/ERC721/ERC721.sol\":6034:6058  _tokenApprovals[tokenId] */\n      0x20\n      mstore\n      0x40\n      swap1\n      keccak256\n      sload\n      sub(shl(0xa0, 0x01), 0x01)\n      swap1\n      dup2\n      and\n        /* \"@openzeppelin/contracts/token/ERC721/ERC721.sol\":6608:6640  _getApproved(tokenId) == spender */\n      swap2\n      and\n      eq\n      swap2\n        /* \"@openzeppelin/contracts/token/ERC721/ERC721.sol\":6495:6641  return... */\n      swap1\n      pop\n        /* \"@openzeppelin/contracts/token/ERC721/ERC721.sol\":6376:6648  function _isAuthorized(address owner, address spender, uint256 tokenId) internal view virtual returns (bool) {... */\n      jump\t// out\n        /* \"#utility.yul\":196:327   */\n    tag_478:\n      not(sub(shl(0xe0, 0x01), 0x01))\n        /* \"#utility.yul\":270:302   */\n      dup2\n      and\n        /* \"#utility.yul\":260:303   */\n      dup2\n      eq\n        /* \"#utility.yul\":250:321   */\n      tag_262\n      jumpi\n        /* \"#utility.yul\":317:318   */\n      0x00\n        /* \"#utility.yul\":314:315   */\n      dup1\n        /* \"#utility.yul\":307:319   */\n      revert\n        /* \"#utility.yul\":332:577   */\n    tag_52:\n        /* \"#utility.yul\":390:396   */\n      0x00\n        /* \"#utility.yul\":443:445   */\n      0x20\n        /* \"#utility.yul\":431:440   */\n      dup3\n        /* \"#utility.yul\":422:429   */\n      dup5\n        /* \"#utility.yul\":418:441   */\n      sub\n        /* \"#utility.yul\":414:446   */\n      slt\n        /* \"#utility.yul\":411:463   */\n      iszero\n      tag_492\n      jumpi\n        /* \"#utility.yul\":459:460   */\n      0x00\n        /* \"#utility.yul\":456:457   */\n      dup1\n        /* \"#utility.yul\":449:461   */\n      revert\n        /* \"#utility.yul\":411:463   */\n    tag_492:\n        /* \"#utility.yul\":498:507   */\n      dup2\n        /* \"#utility.yul\":485:508   */\n      calldataload\n        /* \"#utility.yul\":517:547   */\n      tag_493\n        /* \"#utility.yul\":541:546   */\n      dup2\n        /* \"#utility.yul\":517:547   */\n      tag_478\n      jump\t// in\n    tag_493:\n        /* \"#utility.yul\":566:571   */\n      swap4\n        /* \"#utility.yul\":332:577   */\n      swap3\n      pop\n      pop\n      pop\n      jump\t// out\n        /* \"#utility.yul\":774:947   */\n    tag_479:\n        /* \"#utility.yul\":842:862   */\n      dup1\n      calldataload\n      sub(shl(0xa0, 0x01), 0x01)\n        /* \"#utility.yul\":891:922   */\n      dup2\n      and\n        /* \"#utility.yul\":881:923   */\n      dup2\n      eq\n        /* \"#utility.yul\":871:941   */\n      tag_496\n      jumpi\n        /* \"#utility.yul\":937:938   */\n      0x00\n        /* \"#utility.yul\":934:935   */\n      dup1\n        /* \"#utility.yul\":927:939   */\n      revert\n        /* \"#utility.yul\":871:941   */\n    tag_496:\n        /* \"#utility.yul\":774:947   */\n      swap2\n      swap1\n      pop\n      jump\t// out\n        /* \"#utility.yul\":952:1138   */\n    tag_59:\n        /* \"#utility.yul\":1011:1017   */\n      0x00\n        /* \"#utility.yul\":1064:1066   */\n      0x20\n        /* \"#utility.yul\":1052:1061   */\n      dup3\n        /* \"#utility.yul\":1043:1050   */\n      dup5\n        /* \"#utility.yul\":1039:1062   */\n      sub\n        /* \"#utility.yul\":1035:1067   */\n      slt\n        /* \"#utility.yul\":1032:1084   */\n      iszero\n      tag_498\n      jumpi\n        /* \"#utility.yul\":1080:1081   */\n      0x00\n        /* \"#utility.yul\":1077:1078   */\n      dup1\n        /* \"#utility.yul\":1070:1082   */\n      revert\n        /* \"#utility.yul\":1032:1084   */\n    tag_498:\n        /* \"#utility.yul\":1103:1132   */\n      tag_493\n        /* \"#utility.yul\":1122:1131   */\n      dup3\n        /* \"#utility.yul\":1103:1132   */\n      tag_479\n      jump\t// in\n        /* \"#utility.yul\":1143:1543   */\n    tag_480:\n        /* \"#utility.yul\":1185:1188   */\n      0x00\n        /* \"#utility.yul\":1223:1228   */\n      dup2\n        /* \"#utility.yul\":1217:1229   */\n      mload\n        /* \"#utility.yul\":1250:1256   */\n      dup1\n        /* \"#utility.yul\":1245:1248   */\n      dup5\n        /* \"#utility.yul\":1238:1257   */\n      mstore\n        /* \"#utility.yul\":1275:1276   */\n      0x00\n        /* \"#utility.yul\":1285:1424   */\n    tag_501:\n        /* \"#utility.yul\":1299:1305   */\n      dup2\n        /* \"#utility.yul\":1296:1297   */\n      dup2\n        /* \"#utility.yul\":1293:1306   */\n      lt\n        /* \"#utility.yul\":1285:1424   */\n      iszero\n      tag_503\n      jumpi\n        /* \"#utility.yul\":1407:1411   */\n      0x20\n        /* \"#utility.yul\":1392:1405   */\n      dup2\n      dup6\n      add\n        /* \"#utility.yul\":1388:1412   */\n      dup2\n      add\n        /* \"#utility.yul\":1382:1413   */\n      mload\n        /* \"#utility.yul\":1362:1373   */\n      dup7\n      dup4\n      add\n        /* \"#utility.yul\":1358:1380   */\n      dup3\n      add\n        /* \"#utility.yul\":1351:1414   */\n      mstore\n        /* \"#utility.yul\":1314:1326   */\n      add\n        /* \"#utility.yul\":1285:1424   */\n      jump(tag_501)\n    tag_503:\n        /* \"#utility.yul\":1289:1292   */\n      pop\n        /* \"#utility.yul\":1469:1470   */\n      0x00\n        /* \"#utility.yul\":1462:1466   */\n      0x20\n        /* \"#utility.yul\":1453:1459   */\n      dup3\n        /* \"#utility.yul\":1448:1451   */\n      dup7\n        /* \"#utility.yul\":1444:1460   */\n      add\n        /* \"#utility.yul\":1440:1467   */\n      add\n        /* \"#utility.yul\":1433:1471   */\n      mstore\n        /* \"#utility.yul\":1532:1536   */\n      0x20\n        /* \"#utility.yul\":1525:1527   */\n      0x1f\n        /* \"#utility.yul\":1521:1528   */\n      not\n        /* \"#utility.yul\":1516:1518   */\n      0x1f\n        /* \"#utility.yul\":1508:1514   */\n      dup4\n        /* \"#utility.yul\":1504:1519   */\n      add\n        /* \"#utility.yul\":1500:1529   */\n      and\n        /* \"#utility.yul\":1495:1498   */\n      dup6\n        /* \"#utility.yul\":1491:1530   */\n      add\n        /* \"#utility.yul\":1487:1537   */\n      add\n        /* \"#utility.yul\":1480:1537   */\n      swap2\n      pop\n      pop\n        /* \"#utility.yul\":1143:1543   */\n      swap3\n      swap2\n      pop\n      pop\n      jump\t// out\n        /* \"#utility.yul\":1548:1768   */\n    tag_70:\n        /* \"#utility.yul\":1697:1699   */\n      0x20\n        /* \"#utility.yul\":1686:1695   */\n      dup2\n        /* \"#utility.yul\":1679:1700   */\n      mstore\n        /* \"#utility.yul\":1660:1664   */\n      0x00\n        /* \"#utility.yul\":1717:1762   */\n      tag_493\n        /* \"#utility.yul\":1758:1760   */\n      0x20\n        /* \"#utility.yul\":1747:1756   */\n      dup4\n        /* \"#utility.yul\":1743:1761   */\n      add\n        /* \"#utility.yul\":1735:1741   */\n      dup5\n        /* \"#utility.yul\":1717:1762   */\n      tag_480\n      jump\t// in\n        /* \"#utility.yul\":1773:1999   */\n    tag_74:\n        /* \"#utility.yul\":1832:1838   */\n      0x00\n        /* \"#utility.yul\":1885:1887   */\n      0x20\n        /* \"#utility.yul\":1873:1882   */\n      dup3\n        /* \"#utility.yul\":1864:1871   */\n      dup5\n        /* \"#utility.yul\":1860:1883   */\n      sub\n        /* \"#utility.yul\":1856:1888   */\n      slt\n        /* \"#utility.yul\":1853:1905   */\n      iszero\n      tag_507\n      jumpi\n        /* \"#utility.yul\":1901:1902   */\n      0x00\n        /* \"#utility.yul\":1898:1899   */\n      dup1\n        /* \"#utility.yul\":1891:1903   */\n      revert\n        /* \"#utility.yul\":1853:1905   */\n    tag_507:\n      pop\n        /* \"#utility.yul\":1946:1969   */\n      calldataload\n      swap2\n        /* \"#utility.yul\":1773:1999   */\n      swap1\n      pop\n      jump\t// out\n        /* \"#utility.yul\":2212:2512   */\n    tag_81:\n        /* \"#utility.yul\":2280:2286   */\n      0x00\n        /* \"#utility.yul\":2288:2294   */\n      dup1\n        /* \"#utility.yul\":2341:2343   */\n      0x40\n        /* \"#utility.yul\":2329:2338   */\n      dup4\n        /* \"#utility.yul\":2320:2327   */\n      dup6\n        /* \"#utility.yul\":2316:2339   */\n      sub\n        /* \"#utility.yul\":2312:2344   */\n      slt\n        /* \"#utility.yul\":2309:2361   */\n      iszero\n      tag_510\n      jumpi\n        /* \"#utility.yul\":2357:2358   */\n      0x00\n        /* \"#utility.yul\":2354:2355   */\n      dup1\n        /* \"#utility.yul\":2347:2359   */\n      revert\n        /* \"#utility.yul\":2309:2361   */\n    tag_510:\n        /* \"#utility.yul\":2380:2409   */\n      tag_511\n        /* \"#utility.yul\":2399:2408   */\n      dup4\n        /* \"#utility.yul\":2380:2409   */\n      tag_479\n      jump\t// in\n    tag_511:\n        /* \"#utility.yul\":2370:2409   */\n      swap5\n        /* \"#utility.yul\":2478:2480   */\n      0x20\n        /* \"#utility.yul\":2463:2481   */\n      swap4\n      swap1\n      swap4\n      add\n        /* \"#utility.yul\":2450:2482   */\n      calldataload\n      swap4\n      pop\n      pop\n      pop\n        /* \"#utility.yul\":2212:2512   */\n      jump\t// out\n        /* \"#utility.yul\":2517:2891   */\n    tag_103:\n        /* \"#utility.yul\":2594:2600   */\n      0x00\n        /* \"#utility.yul\":2602:2608   */\n      dup1\n        /* \"#utility.yul\":2610:2616   */\n      0x00\n        /* \"#utility.yul\":2663:2665   */\n      0x60\n        /* \"#utility.yul\":2651:2660   */\n      dup5\n        /* \"#utility.yul\":2642:2649   */\n      dup7\n        /* \"#utility.yul\":2638:2661   */\n      sub\n        /* \"#utility.yul\":2634:2666   */\n      slt\n        /* \"#utility.yul\":2631:2683   */\n      iszero\n      tag_513\n      jumpi\n        /* \"#utility.yul\":2679:2680   */\n      0x00\n        /* \"#utility.yul\":2676:2677   */\n      dup1\n        /* \"#utility.yul\":2669:2681   */\n      revert\n        /* \"#utility.yul\":2631:2683   */\n    tag_513:\n        /* \"#utility.yul\":2702:2731   */\n      tag_514\n        /* \"#utility.yul\":2721:2730   */\n      dup5\n        /* \"#utility.yul\":2702:2731   */\n      tag_479\n      jump\t// in\n    tag_514:\n        /* \"#utility.yul\":2692:2731   */\n      swap3\n      pop\n        /* \"#utility.yul\":2750:2788   */\n      tag_515\n        /* \"#utility.yul\":2784:2786   */\n      0x20\n        /* \"#utility.yul\":2773:2782   */\n      dup6\n        /* \"#utility.yul\":2769:2787   */\n      add\n        /* \"#utility.yul\":2750:2788   */\n      tag_479\n      jump\t// in\n    tag_515:\n        /* \"#utility.yul\":2517:2891   */\n      swap3\n      swap6\n        /* \"#utility.yul\":2740:2788   */\n      swap3\n      swap5\n      pop\n      pop\n      pop\n        /* \"#utility.yul\":2857:2859   */\n      0x40\n        /* \"#utility.yul\":2842:2860   */\n      swap2\n      swap1\n      swap2\n      add\n        /* \"#utility.yul\":2829:2861   */\n      calldataload\n      swap1\n        /* \"#utility.yul\":2517:2891   */\n      jump\t// out\n        /* \"#utility.yul\":2896:3023   */\n    tag_481:\n        /* \"#utility.yul\":2957:2967   */\n      0x4e487b71\n        /* \"#utility.yul\":2952:2955   */\n      0xe0\n        /* \"#utility.yul\":2948:2968   */\n      shl\n        /* \"#utility.yul\":2945:2946   */\n      0x00\n        /* \"#utility.yul\":2938:2969   */\n      mstore\n        /* \"#utility.yul\":2988:2992   */\n      0x41\n        /* \"#utility.yul\":2985:2986   */\n      0x04\n        /* \"#utility.yul\":2978:2993   */\n      mstore\n        /* \"#utility.yul\":3012:3016   */\n      0x24\n        /* \"#utility.yul\":3009:3010   */\n      0x00\n        /* \"#utility.yul\":3002:3017   */\n      revert\n        /* \"#utility.yul\":3028:3744   */\n    tag_482:\n        /* \"#utility.yul\":3093:3098   */\n      0x00\n        /* \"#utility.yul\":3125:3126   */\n      dup1\n        /* \"#utility.yul\":3149:3167   */\n      0xffffffffffffffff\n        /* \"#utility.yul\":3141:3147   */\n      dup5\n        /* \"#utility.yul\":3138:3168   */\n      gt\n        /* \"#utility.yul\":3135:3191   */\n      iszero\n      tag_519\n      jumpi\n        /* \"#utility.yul\":3171:3189   */\n      tag_519\n      tag_481\n      jump\t// in\n    tag_519:\n      pop\n        /* \"#utility.yul\":3326:3328   */\n      0x40\n        /* \"#utility.yul\":3320:3329   */\n      mload\n      not(0x1f)\n        /* \"#utility.yul\":3239:3241   */\n      0x1f\n        /* \"#utility.yul\":3218:3233   */\n      dup6\n      add\n        /* \"#utility.yul\":3214:3243   */\n      dup2\n      and\n        /* \"#utility.yul\":3384:3386   */\n      0x3f\n        /* \"#utility.yul\":3372:3387   */\n      add\n        /* \"#utility.yul\":3368:3397   */\n      and\n        /* \"#utility.yul\":3356:3398   */\n      dup2\n      add\n        /* \"#utility.yul\":3449:3471   */\n      dup2\n      dup2\n      lt\n        /* \"#utility.yul\":3428:3446   */\n      0xffffffffffffffff\n        /* \"#utility.yul\":3413:3447   */\n      dup3\n      gt\n        /* \"#utility.yul\":3410:3472   */\n      or\n        /* \"#utility.yul\":3407:3495   */\n      iszero\n      tag_521\n      jumpi\n        /* \"#utility.yul\":3475:3493   */\n      tag_521\n      tag_481\n      jump\t// in\n    tag_521:\n        /* \"#utility.yul\":3511:3513   */\n      0x40\n        /* \"#utility.yul\":3504:3526   */\n      mstore\n        /* \"#utility.yul\":3559:3581   */\n      dup4\n      dup2\n      mstore\n        /* \"#utility.yul\":3544:3550   */\n      swap1\n      pop\n      dup1\n        /* \"#utility.yul\":3596:3612   */\n      dup3\n      dup5\n      add\n        /* \"#utility.yul\":3593:3618   */\n      dup6\n      lt\n        /* \"#utility.yul\":3590:3635   */\n      iszero\n      tag_522\n      jumpi\n        /* \"#utility.yul\":3631:3632   */\n      0x00\n        /* \"#utility.yul\":3628:3629   */\n      dup1\n        /* \"#utility.yul\":3621:3633   */\n      revert\n        /* \"#utility.yul\":3590:3635   */\n    tag_522:\n        /* \"#utility.yul\":3681:3687   */\n      dup4\n        /* \"#utility.yul\":3676:3679   */\n      dup4\n        /* \"#utility.yul\":3669:3673   */\n      0x20\n        /* \"#utility.yul\":3661:3667   */\n      dup4\n        /* \"#utility.yul\":3657:3674   */\n      add\n        /* \"#utility.yul\":3644:3688   */\n      calldatacopy\n        /* \"#utility.yul\":3736:3737   */\n      0x00\n        /* \"#utility.yul\":3729:3733   */\n      0x20\n        /* \"#utility.yul\":3720:3726   */\n      dup6\n        /* \"#utility.yul\":3712:3718   */\n      dup4\n        /* \"#utility.yul\":3708:3727   */\n      add\n        /* \"#utility.yul\":3704:3734   */\n      add\n        /* \"#utility.yul\":3697:3738   */\n      mstore\n      pop\n        /* \"#utility.yul\":3028:3744   */\n      swap4\n      swap3\n      pop\n      pop\n      pop\n      jump\t// out\n        /* \"#utility.yul\":3749:4200   */\n    tag_124:\n        /* \"#utility.yul\":3818:3824   */\n      0x00\n        /* \"#utility.yul\":3871:3873   */\n      0x20\n        /* \"#utility.yul\":3859:3868   */\n      dup3\n        /* \"#utility.yul\":3850:3857   */\n      dup5\n        /* \"#utility.yul\":3846:3869   */\n      sub\n        /* \"#utility.yul\":3842:3874   */\n      slt\n        /* \"#utility.yul\":3839:3891   */\n      iszero\n      tag_524\n      jumpi\n        /* \"#utility.yul\":3887:3888   */\n      0x00\n        /* \"#utility.yul\":3884:3885   */\n      dup1\n        /* \"#utility.yul\":3877:3889   */\n      revert\n        /* \"#utility.yul\":3839:3891   */\n    tag_524:\n        /* \"#utility.yul\":3927:3936   */\n      dup2\n        /* \"#utility.yul\":3914:3937   */\n      calldataload\n        /* \"#utility.yul\":3960:3978   */\n      0xffffffffffffffff\n        /* \"#utility.yul\":3952:3958   */\n      dup2\n        /* \"#utility.yul\":3949:3979   */\n      gt\n        /* \"#utility.yul\":3946:3996   */\n      iszero\n      tag_525\n      jumpi\n        /* \"#utility.yul\":3992:3993   */\n      0x00\n        /* \"#utility.yul\":3989:3990   */\n      dup1\n        /* \"#utility.yul\":3982:3994   */\n      revert\n        /* \"#utility.yul\":3946:3996   */\n    tag_525:\n        /* \"#utility.yul\":4015:4037   */\n      dup3\n      add\n        /* \"#utility.yul\":4068:4072   */\n      0x1f\n        /* \"#utility.yul\":4060:4073   */\n      dup2\n      add\n        /* \"#utility.yul\":4056:4083   */\n      dup5\n      sgt\n        /* \"#utility.yul\":4046:4101   */\n      tag_526\n      jumpi\n        /* \"#utility.yul\":4097:4098   */\n      0x00\n        /* \"#utility.yul\":4094:4095   */\n      dup1\n        /* \"#utility.yul\":4087:4099   */\n      revert\n        /* \"#utility.yul\":4046:4101   */\n    tag_526:\n        /* \"#utility.yul\":4120:4194   */\n      tag_380\n        /* \"#utility.yul\":4186:4193   */\n      dup5\n        /* \"#utility.yul\":4181:4183   */\n      dup3\n        /* \"#utility.yul\":4168:4184   */\n      calldataload\n        /* \"#utility.yul\":4163:4165   */\n      0x20\n        /* \"#utility.yul\":4159:4161   */\n      dup5\n        /* \"#utility.yul\":4155:4166   */\n      add\n        /* \"#utility.yul\":4120:4194   */\n      tag_482\n      jump\t// in\n        /* \"#utility.yul\":4205:4552   */\n    tag_164:\n        /* \"#utility.yul\":4270:4276   */\n      0x00\n        /* \"#utility.yul\":4278:4284   */\n      dup1\n        /* \"#utility.yul\":4331:4333   */\n      0x40\n        /* \"#utility.yul\":4319:4328   */\n      dup4\n        /* \"#utility.yul\":4310:4317   */\n      dup6\n        /* \"#utility.yul\":4306:4329   */\n      sub\n        /* \"#utility.yul\":4302:4334   */\n      slt\n        /* \"#utility.yul\":4299:4351   */\n      iszero\n      tag_529\n      jumpi\n        /* \"#utility.yul\":4347:4348   */\n      0x00\n        /* \"#utility.yul\":4344:4345   */\n      dup1\n        /* \"#utility.yul\":4337:4349   */\n      revert\n        /* \"#utility.yul\":4299:4351   */\n    tag_529:\n        /* \"#utility.yul\":4370:4399   */\n      tag_530\n        /* \"#utility.yul\":4389:4398   */\n      dup4\n        /* \"#utility.yul\":4370:4399   */\n      tag_479\n      jump\t// in\n    tag_530:\n        /* \"#utility.yul\":4360:4399   */\n      swap2\n      pop\n        /* \"#utility.yul\":4449:4451   */\n      0x20\n        /* \"#utility.yul\":4438:4447   */\n      dup4\n        /* \"#utility.yul\":4434:4452   */\n      add\n        /* \"#utility.yul\":4421:4453   */\n      calldataload\n        /* \"#utility.yul\":4496:4501   */\n      dup1\n        /* \"#utility.yul\":4489:4502   */\n      iszero\n        /* \"#utility.yul\":4482:4503   */\n      iszero\n        /* \"#utility.yul\":4475:4480   */\n      dup2\n        /* \"#utility.yul\":4472:4504   */\n      eq\n        /* \"#utility.yul\":4462:4522   */\n      tag_531\n      jumpi\n        /* \"#utility.yul\":4518:4519   */\n      0x00\n        /* \"#utility.yul\":4515:4516   */\n      dup1\n        /* \"#utility.yul\":4508:4520   */\n      revert\n        /* \"#utility.yul\":4462:4522   */\n    tag_531:\n        /* \"#utility.yul\":4541:4546   */\n      dup1\n        /* \"#utility.yul\":4531:4546   */\n      swap2\n      pop\n      pop\n        /* \"#utility.yul\":4205:4552   */\n      swap3\n      pop\n      swap3\n      swap1\n      pop\n      jump\t// out\n        /* \"#utility.yul\":4557:5270   */\n    tag_169:\n        /* \"#utility.yul\":4652:4658   */\n      0x00\n        /* \"#utility.yul\":4660:4666   */\n      dup1\n        /* \"#utility.yul\":4668:4674   */\n      0x00\n        /* \"#utility.yul\":4676:4682   */\n      dup1\n        /* \"#utility.yul\":4729:4732   */\n      0x80\n        /* \"#utility.yul\":4717:4726   */\n      dup6\n        /* \"#utility.yul\":4708:4715   */\n      dup8\n        /* \"#utility.yul\":4704:4727   */\n      sub\n        /* \"#utility.yul\":4700:4733   */\n      slt\n        /* \"#utility.yul\":4697:4750   */\n      iszero\n      tag_533\n      jumpi\n        /* \"#utility.yul\":4746:4747   */\n      0x00\n        /* \"#utility.yul\":4743:4744   */\n      dup1\n        /* \"#utility.yul\":4736:4748   */\n      revert\n        /* \"#utility.yul\":4697:4750   */\n    tag_533:\n        /* \"#utility.yul\":4769:4798   */\n      tag_534\n        /* \"#utility.yul\":4788:4797   */\n      dup6\n        /* \"#utility.yul\":4769:4798   */\n      tag_479\n      jump\t// in\n    tag_534:\n        /* \"#utility.yul\":4759:4798   */\n      swap4\n      pop\n        /* \"#utility.yul\":4817:4855   */\n      tag_535\n        /* \"#utility.yul\":4851:4853   */\n      0x20\n        /* \"#utility.yul\":4840:4849   */\n      dup7\n        /* \"#utility.yul\":4836:4854   */\n      add\n        /* \"#utility.yul\":4817:4855   */\n      tag_479\n      jump\t// in\n    tag_535:\n        /* \"#utility.yul\":4807:4855   */\n      swap3\n      pop\n        /* \"#utility.yul\":4924:4926   */\n      0x40\n        /* \"#utility.yul\":4909:4927   */\n      dup6\n      add\n        /* \"#utility.yul\":4896:4928   */\n      calldataload\n      swap2\n      pop\n        /* \"#utility.yul\":5003:5005   */\n      0x60\n        /* \"#utility.yul\":4988:5006   */\n      dup6\n      add\n        /* \"#utility.yul\":4975:5007   */\n      calldataload\n        /* \"#utility.yul\":5030:5048   */\n      0xffffffffffffffff\n        /* \"#utility.yul\":5019:5049   */\n      dup2\n      gt\n        /* \"#utility.yul\":5016:5066   */\n      iszero\n      tag_536\n      jumpi\n        /* \"#utility.yul\":5062:5063   */\n      0x00\n        /* \"#utility.yul\":5059:5060   */\n      dup1\n        /* \"#utility.yul\":5052:5064   */\n      revert\n        /* \"#utility.yul\":5016:5066   */\n    tag_536:\n        /* \"#utility.yul\":5085:5107   */\n      dup6\n      add\n        /* \"#utility.yul\":5138:5142   */\n      0x1f\n        /* \"#utility.yul\":5130:5143   */\n      dup2\n      add\n        /* \"#utility.yul\":5126:5153   */\n      dup8\n      sgt\n        /* \"#utility.yul\":5116:5171   */\n      tag_537\n      jumpi\n        /* \"#utility.yul\":5167:5168   */\n      0x00\n        /* \"#utility.yul\":5164:5165   */\n      dup1\n        /* \"#utility.yul\":5157:5169   */\n      revert\n        /* \"#utility.yul\":5116:5171   */\n    tag_537:\n        /* \"#utility.yul\":5190:5264   */\n      tag_538\n        /* \"#utility.yul\":5256:5263   */\n      dup8\n        /* \"#utility.yul\":5251:5253   */\n      dup3\n        /* \"#utility.yul\":5238:5254   */\n      calldataload\n        /* \"#utility.yul\":5233:5235   */\n      0x20\n        /* \"#utility.yul\":5229:5231   */\n      dup5\n        /* \"#utility.yul\":5225:5236   */\n      add\n        /* \"#utility.yul\":5190:5264   */\n      tag_482\n      jump\t// in\n    tag_538:\n        /* \"#utility.yul\":5180:5264   */\n      swap2\n      pop\n      pop\n        /* \"#utility.yul\":4557:5270   */\n      swap3\n      swap6\n      swap2\n      swap5\n      pop\n      swap3\n      pop\n      jump\t// out\n        /* \"#utility.yul\":5275:5535   */\n    tag_187:\n        /* \"#utility.yul\":5343:5349   */\n      0x00\n        /* \"#utility.yul\":5351:5357   */\n      dup1\n        /* \"#utility.yul\":5404:5406   */\n      0x40\n        /* \"#utility.yul\":5392:5401   */\n      dup4\n        /* \"#utility.yul\":5383:5390   */\n      dup6\n        /* \"#utility.yul\":5379:5402   */\n      sub\n        /* \"#utility.yul\":5375:5407   */\n      slt\n        /* \"#utility.yul\":5372:5424   */\n      iszero\n      tag_540\n      jumpi\n        /* \"#utility.yul\":5420:5421   */\n      0x00\n        /* \"#utility.yul\":5417:5418   */\n      dup1\n        /* \"#utility.yul\":5410:5422   */\n      revert\n        /* \"#utility.yul\":5372:5424   */\n    tag_540:\n        /* \"#utility.yul\":5443:5472   */\n      tag_541\n        /* \"#utility.yul\":5462:5471   */\n      dup4\n        /* \"#utility.yul\":5443:5472   */\n      tag_479\n      jump\t// in\n    tag_541:\n        /* \"#utility.yul\":5433:5472   */\n      swap2\n      pop\n        /* \"#utility.yul\":5491:5529   */\n      tag_542\n        /* \"#utility.yul\":5525:5527   */\n      0x20\n        /* \"#utility.yul\":5514:5523   */\n      dup5\n        /* \"#utility.yul\":5510:5528   */\n      add\n        /* \"#utility.yul\":5491:5529   */\n      tag_479\n      jump\t// in\n    tag_542:\n        /* \"#utility.yul\":5481:5529   */\n      swap1\n      pop\n        /* \"#utility.yul\":5275:5535   */\n      swap3\n      pop\n      swap3\n      swap1\n      pop\n      jump\t// out\n        /* \"#utility.yul\":5762:5889   */\n    tag_483:\n        /* \"#utility.yul\":5823:5833   */\n      0x4e487b71\n        /* \"#utility.yul\":5818:5821   */\n      0xe0\n        /* \"#utility.yul\":5814:5834   */\n      shl\n        /* \"#utility.yul\":5811:5812   */\n      0x00\n        /* \"#utility.yul\":5804:5835   */\n      mstore\n        /* \"#utility.yul\":5854:5858   */\n      0x11\n        /* \"#utility.yul\":5851:5852   */\n      0x04\n        /* \"#utility.yul\":5844:5859   */\n      mstore\n        /* \"#utility.yul\":5878:5882   */\n      0x24\n        /* \"#utility.yul\":5875:5876   */\n      0x00\n        /* \"#utility.yul\":5868:5883   */\n      revert\n        /* \"#utility.yul\":5894:6019   */\n    tag_214:\n        /* \"#utility.yul\":5959:5968   */\n      dup1\n      dup3\n      add\n        /* \"#utility.yul\":5980:5990   */\n      dup1\n      dup3\n      gt\n        /* \"#utility.yul\":5977:6013   */\n      iszero\n      tag_210\n      jumpi\n        /* \"#utility.yul\":5993:6011   */\n      tag_210\n      tag_483\n      jump\t// in\n        /* \"#utility.yul\":6024:6404   */\n    tag_217:\n        /* \"#utility.yul\":6103:6104   */\n      0x01\n        /* \"#utility.yul\":6099:6111   */\n      dup2\n      dup2\n      shr\n      swap1\n        /* \"#utility.yul\":6146:6158   */\n      dup3\n      and\n      dup1\n        /* \"#utility.yul\":6167:6228   */\n      tag_549\n      jumpi\n        /* \"#utility.yul\":6221:6225   */\n      0x7f\n        /* \"#utility.yul\":6213:6219   */\n      dup3\n        /* \"#utility.yul\":6209:6226   */\n      and\n        /* \"#utility.yul\":6199:6226   */\n      swap2\n      pop\n        /* \"#utility.yul\":6167:6228   */\n    tag_549:\n        /* \"#utility.yul\":6274:6276   */\n      0x20\n        /* \"#utility.yul\":6266:6272   */\n      dup3\n        /* \"#utility.yul\":6263:6277   */\n      lt\n        /* \"#utility.yul\":6243:6261   */\n      dup2\n        /* \"#utility.yul\":6240:6278   */\n      sub\n        /* \"#utility.yul\":6237:6398   */\n      tag_550\n      jumpi\n        /* \"#utility.yul\":6320:6330   */\n      0x4e487b71\n        /* \"#utility.yul\":6315:6318   */\n      0xe0\n        /* \"#utility.yul\":6311:6331   */\n      shl\n        /* \"#utility.yul\":6308:6309   */\n      0x00\n        /* \"#utility.yul\":6301:6332   */\n      mstore\n        /* \"#utility.yul\":6355:6359   */\n      0x22\n        /* \"#utility.yul\":6352:6353   */\n      0x04\n        /* \"#utility.yul\":6345:6360   */\n      mstore\n        /* \"#utility.yul\":6383:6387   */\n      0x24\n        /* \"#utility.yul\":6380:6381   */\n      0x00\n        /* \"#utility.yul\":6373:6388   */\n      revert\n        /* \"#utility.yul\":6237:6398   */\n    tag_550:\n      pop\n        /* \"#utility.yul\":6024:6404   */\n      swap2\n      swap1\n      pop\n      jump\t// out\n        /* \"#utility.yul\":7064:7191   */\n    tag_271:\n        /* \"#utility.yul\":7125:7135   */\n      0x4e487b71\n        /* \"#utility.yul\":7120:7123   */\n      0xe0\n        /* \"#utility.yul\":7116:7136   */\n      shl\n        /* \"#utility.yul\":7113:7114   */\n      0x00\n        /* \"#utility.yul\":7106:7137   */\n      mstore\n        /* \"#utility.yul\":7156:7160   */\n      0x32\n        /* \"#utility.yul\":7153:7154   */\n      0x04\n        /* \"#utility.yul\":7146:7161   */\n      mstore\n        /* \"#utility.yul\":7180:7184   */\n      0x24\n        /* \"#utility.yul\":7177:7178   */\n      0x00\n        /* \"#utility.yul\":7170:7185   */\n      revert\n        /* \"#utility.yul\":8230:8365   */\n    tag_284:\n        /* \"#utility.yul\":8269:8272   */\n      0x00\n        /* \"#utility.yul\":8290:8307   */\n      0x01\n      dup3\n      add\n        /* \"#utility.yul\":8287:8330   */\n      tag_559\n      jumpi\n        /* \"#utility.yul\":8310:8328   */\n      tag_559\n      tag_483\n      jump\t// in\n    tag_559:\n      pop\n        /* \"#utility.yul\":8357:8358   */\n      0x01\n        /* \"#utility.yul\":8346:8359   */\n      add\n      swap1\n        /* \"#utility.yul\":8230:8365   */\n      jump\t// out\n        /* \"#utility.yul\":8844:9362   */\n    tag_485:\n        /* \"#utility.yul\":8946:8948   */\n      0x1f\n        /* \"#utility.yul\":8941:8944   */\n      dup3\n        /* \"#utility.yul\":8938:8949   */\n      gt\n        /* \"#utility.yul\":8935:9356   */\n      iszero\n      tag_264\n      jumpi\n        /* \"#utility.yul\":8982:8987   */\n      dup1\n        /* \"#utility.yul\":8979:8980   */\n      0x00\n        /* \"#utility.yul\":8972:8988   */\n      mstore\n        /* \"#utility.yul\":9026:9030   */\n      0x20\n        /* \"#utility.yul\":9023:9024   */\n      0x00\n        /* \"#utility.yul\":9013:9031   */\n      keccak256\n        /* \"#utility.yul\":9096:9098   */\n      0x1f\n        /* \"#utility.yul\":9084:9094   */\n      dup5\n        /* \"#utility.yul\":9080:9099   */\n      add\n        /* \"#utility.yul\":9077:9078   */\n      0x05\n        /* \"#utility.yul\":9073:9100   */\n      shr\n        /* \"#utility.yul\":9067:9071   */\n      dup2\n        /* \"#utility.yul\":9063:9101   */\n      add\n        /* \"#utility.yul\":9132:9136   */\n      0x20\n        /* \"#utility.yul\":9120:9130   */\n      dup6\n        /* \"#utility.yul\":9117:9137   */\n      lt\n        /* \"#utility.yul\":9114:9161   */\n      iszero\n      tag_564\n      jumpi\n      pop\n        /* \"#utility.yul\":9155:9159   */\n      dup1\n        /* \"#utility.yul\":9114:9161   */\n    tag_564:\n        /* \"#utility.yul\":9210:9212   */\n      0x1f\n        /* \"#utility.yul\":9205:9208   */\n      dup5\n        /* \"#utility.yul\":9201:9213   */\n      add\n        /* \"#utility.yul\":9198:9199   */\n      0x05\n        /* \"#utility.yul\":9194:9214   */\n      shr\n        /* \"#utility.yul\":9188:9192   */\n      dup3\n        /* \"#utility.yul\":9184:9215   */\n      add\n        /* \"#utility.yul\":9174:9215   */\n      swap2\n      pop\n        /* \"#utility.yul\":9265:9346   */\n    tag_565:\n        /* \"#utility.yul\":9283:9285   */\n      dup2\n        /* \"#utility.yul\":9276:9281   */\n      dup2\n        /* \"#utility.yul\":9273:9286   */\n      lt\n        /* \"#utility.yul\":9265:9346   */\n      iszero\n      tag_411\n      jumpi\n        /* \"#utility.yul\":9342:9343   */\n      0x00\n        /* \"#utility.yul\":9328:9344   */\n      dup2\n      sstore\n        /* \"#utility.yul\":9309:9310   */\n      0x01\n        /* \"#utility.yul\":9298:9311   */\n      add\n        /* \"#utility.yul\":9265:9346   */\n      jump(tag_565)\n        /* \"#utility.yul\":9538:10837   */\n    tag_387:\n        /* \"#utility.yul\":9664:9667   */\n      dup2\n        /* \"#utility.yul\":9658:9668   */\n      mload\n        /* \"#utility.yul\":9691:9709   */\n      0xffffffffffffffff\n        /* \"#utility.yul\":9683:9689   */\n      dup2\n        /* \"#utility.yul\":9680:9710   */\n      gt\n        /* \"#utility.yul\":9677:9733   */\n      iszero\n      tag_571\n      jumpi\n        /* \"#utility.yul\":9713:9731   */\n      tag_571\n      tag_481\n      jump\t// in\n    tag_571:\n        /* \"#utility.yul\":9742:9839   */\n      tag_572\n        /* \"#utility.yul\":9832:9838   */\n      dup2\n        /* \"#utility.yul\":9792:9830   */\n      tag_573\n        /* \"#utility.yul\":9824:9828   */\n      dup5\n        /* \"#utility.yul\":9818:9829   */\n      sload\n        /* \"#utility.yul\":9792:9830   */\n      tag_217\n      jump\t// in\n    tag_573:\n        /* \"#utility.yul\":9786:9790   */\n      dup5\n        /* \"#utility.yul\":9742:9839   */\n      tag_485\n      jump\t// in\n    tag_572:\n        /* \"#utility.yul\":9888:9892   */\n      0x20\n        /* \"#utility.yul\":9919:9921   */\n      0x1f\n        /* \"#utility.yul\":9908:9922   */\n      dup3\n      gt\n        /* \"#utility.yul\":9936:9937   */\n      0x01\n        /* \"#utility.yul\":9931:10580   */\n      dup2\n      eq\n      tag_575\n      jumpi\n        /* \"#utility.yul\":10624:10625   */\n      0x00\n        /* \"#utility.yul\":10641:10647   */\n      dup4\n        /* \"#utility.yul\":10638:10727   */\n      iszero\n      tag_576\n      jumpi\n      pop\n        /* \"#utility.yul\":10693:10712   */\n      dup5\n      dup3\n      add\n        /* \"#utility.yul\":10687:10713   */\n      mload\n        /* \"#utility.yul\":10638:10727   */\n    tag_576:\n      not(0x00)\n        /* \"#utility.yul\":9495:9496   */\n      0x03\n        /* \"#utility.yul\":9491:9502   */\n      dup6\n      swap1\n      shl\n        /* \"#utility.yul\":9487:9511   */\n      shr\n        /* \"#utility.yul\":9483:9512   */\n      not\n        /* \"#utility.yul\":9473:9513   */\n      and\n        /* \"#utility.yul\":9519:9520   */\n      0x01\n        /* \"#utility.yul\":9515:9526   */\n      dup5\n      swap1\n      shl\n        /* \"#utility.yul\":9470:9527   */\n      or\n        /* \"#utility.yul\":10740:10821   */\n      dup5\n      sstore\n        /* \"#utility.yul\":9901:10831   */\n      jump(tag_411)\n        /* \"#utility.yul\":9931:10580   */\n    tag_575:\n        /* \"#utility.yul\":8791:8792   */\n      0x00\n        /* \"#utility.yul\":8784:8798   */\n      dup5\n      dup2\n      mstore\n        /* \"#utility.yul\":8828:8832   */\n      0x20\n        /* \"#utility.yul\":8815:8833   */\n      dup2\n      keccak256\n      not(0x1f)\n        /* \"#utility.yul\":9967:9987   */\n      dup6\n      and\n      swap2\n        /* \"#utility.yul\":10085:10307   */\n    tag_579:\n        /* \"#utility.yul\":10099:10106   */\n      dup3\n        /* \"#utility.yul\":10096:10097   */\n      dup2\n        /* \"#utility.yul\":10093:10107   */\n      lt\n        /* \"#utility.yul\":10085:10307   */\n      iszero\n      tag_581\n      jumpi\n        /* \"#utility.yul\":10181:10200   */\n      dup8\n      dup6\n      add\n        /* \"#utility.yul\":10175:10201   */\n      mload\n        /* \"#utility.yul\":10160:10202   */\n      dup3\n      sstore\n        /* \"#utility.yul\":10288:10292   */\n      0x20\n        /* \"#utility.yul\":10273:10293   */\n      swap5\n      dup6\n      add\n      swap5\n        /* \"#utility.yul\":10241:10242   */\n      0x01\n        /* \"#utility.yul\":10229:10243   */\n      swap1\n      swap3\n      add\n      swap2\n        /* \"#utility.yul\":10115:10127   */\n      add\n        /* \"#utility.yul\":10085:10307   */\n      jump(tag_579)\n    tag_581:\n        /* \"#utility.yul\":10089:10092   */\n      pop\n        /* \"#utility.yul\":10335:10341   */\n      dup5\n        /* \"#utility.yul\":10326:10333   */\n      dup3\n        /* \"#utility.yul\":10323:10342   */\n      lt\n        /* \"#utility.yul\":10320:10521   */\n      iszero\n      tag_582\n      jumpi\n        /* \"#utility.yul\":10396:10415   */\n      dup7\n      dup5\n      add\n        /* \"#utility.yul\":10390:10416   */\n      mload\n      not(0x00)\n        /* \"#utility.yul\":10479:10480   */\n      0x03\n        /* \"#utility.yul\":10475:10489   */\n      dup8\n      swap1\n      shl\n        /* \"#utility.yul\":10491:10494   */\n      0xf8\n        /* \"#utility.yul\":10471:10495   */\n      and\n        /* \"#utility.yul\":10467:10504   */\n      shr\n        /* \"#utility.yul\":10463:10505   */\n      not\n        /* \"#utility.yul\":10448:10506   */\n      and\n        /* \"#utility.yul\":10433:10507   */\n      dup2\n      sstore\n        /* \"#utility.yul\":10320:10521   */\n    tag_582:\n      pop\n      pop\n      pop\n      pop\n        /* \"#utility.yul\":10567:10568   */\n      0x01\n        /* \"#utility.yul\":10551:10565   */\n      swap1\n      dup2\n      shl\n        /* \"#utility.yul\":10547:10569   */\n      add\n        /* \"#utility.yul\":10534:10570   */\n      swap1\n      sstore\n      pop\n        /* \"#utility.yul\":9538:10837   */\n      jump\t// out\n        /* \"#utility.yul\":10842:11327   */\n    tag_397:\n      sub(shl(0xa0, 0x01), 0x01)\n        /* \"#utility.yul\":11073:11105   */\n      dup6\n      dup2\n      and\n        /* \"#utility.yul\":11055:11106   */\n      dup3\n      mstore\n        /* \"#utility.yul\":11142:11174   */\n      dup5\n      and\n        /* \"#utility.yul\":11137:11139   */\n      0x20\n        /* \"#utility.yul\":11122:11140   */\n      dup3\n      add\n        /* \"#utility.yul\":11115:11175   */\n      mstore\n        /* \"#utility.yul\":11206:11208   */\n      0x40\n        /* \"#utility.yul\":11191:11209   */\n      dup2\n      add\n        /* \"#utility.yul\":11184:11218   */\n      dup4\n      swap1\n      mstore\n        /* \"#utility.yul\":11254:11257   */\n      0x80\n        /* \"#utility.yul\":11249:11251   */\n      0x60\n        /* \"#utility.yul\":11234:11252   */\n      dup3\n      add\n        /* \"#utility.yul\":11227:11258   */\n      dup2\n      swap1\n      mstore\n      0x00\n      swap1\n        /* \"#utility.yul\":11275:11321   */\n      tag_584\n      swap1\n        /* \"#utility.yul\":11301:11320   */\n      dup4\n      add\n        /* \"#utility.yul\":11293:11299   */\n      dup5\n        /* \"#utility.yul\":11275:11321   */\n      tag_480\n      jump\t// in\n    tag_584:\n        /* \"#utility.yul\":11267:11321   */\n      swap7\n        /* \"#utility.yul\":10842:11327   */\n      swap6\n      pop\n      pop\n      pop\n      pop\n      pop\n      pop\n      jump\t// out\n        /* \"#utility.yul\":11332:11581   */\n    tag_400:\n        /* \"#utility.yul\":11401:11407   */\n      0x00\n        /* \"#utility.yul\":11454:11456   */\n      0x20\n        /* \"#utility.yul\":11442:11451   */\n      dup3\n        /* \"#utility.yul\":11433:11440   */\n      dup5\n        /* \"#utility.yul\":11429:11452   */\n      sub\n        /* \"#utility.yul\":11425:11457   */\n      slt\n        /* \"#utility.yul\":11422:11474   */\n      iszero\n      tag_586\n      jumpi\n        /* \"#utility.yul\":11470:11471   */\n      0x00\n        /* \"#utility.yul\":11467:11468   */\n      dup1\n        /* \"#utility.yul\":11460:11472   */\n      revert\n        /* \"#utility.yul\":11422:11474   */\n    tag_586:\n        /* \"#utility.yul\":11502:11511   */\n      dup2\n        /* \"#utility.yul\":11496:11512   */\n      mload\n        /* \"#utility.yul\":11521:11551   */\n      tag_493\n        /* \"#utility.yul\":11545:11550   */\n      dup2\n        /* \"#utility.yul\":11521:11551   */\n      tag_478\n      jump\t// in\n        /* \"#utility.yul\":11586:11714   */\n    tag_440:\n        /* \"#utility.yul\":11653:11662   */\n      dup2\n      dup2\n      sub\n        /* \"#utility.yul\":11674:11685   */\n      dup2\n      dup2\n      gt\n        /* \"#utility.yul\":11671:11708   */\n      iszero\n      tag_210\n      jumpi\n        /* \"#utility.yul\":11688:11706   */\n      tag_210\n      tag_483\n      jump\t// in\n        /* \"#utility.yul\":11719:11846   */\n    tag_449:\n        /* \"#utility.yul\":11780:11790   */\n      0x4e487b71\n        /* \"#utility.yul\":11775:11778   */\n      0xe0\n        /* \"#utility.yul\":11771:11791   */\n      shl\n        /* \"#utility.yul\":11768:11769   */\n      0x00\n        /* \"#utility.yul\":11761:11792   */\n      mstore\n        /* \"#utility.yul\":11811:11815   */\n      0x31\n        /* \"#utility.yul\":11808:11809   */\n      0x04\n        /* \"#utility.yul\":11801:11816   */\n      mstore\n        /* \"#utility.yul\":11835:11839   */\n      0x24\n        /* \"#utility.yul\":11832:11833   */\n      0x00\n        /* \"#utility.yul\":11825:11840   */\n      revert\n\n    auxdata: 0xa2646970667358221220d0b6ddb5c1da1b23e9c0ed3d552e2e17fed373fd0627c037c3dd3ac043add8fb64736f6c634300081a0033\n}\n",
				"bytecode": {
					"linkReferences": {},
					"object": "6080604052662386f26fc10000600d5534801561001a575f80fd5b50604051611d9f380380611d9f83398101604081905261003991610149565b336040518060400160405280600981526020016810985b985b9853919560ba1b815250604051806040016040528060048152602001631093919560e21b815250815f9081610087919061021b565b506001610094828261021b565b5050506001600160a01b0381166100c457604051631e4fbdf760e01b81525f600482015260240160405180910390fd5b6100cd816100f8565b50600e91909155600c80546001600160a01b0319166001600160a01b039092169190911790556102d5565b600a80546001600160a01b038381166001600160a01b0319831681179093556040519116919082907f8be0079c531659141344cd1fd0a4f28419497f9722a3daafe3b4186f6b6457e0905f90a35050565b5f806040838503121561015a575f80fd5b825160208401519092506001600160a01b0381168114610178575f80fd5b809150509250929050565b634e487b7160e01b5f52604160045260245ffd5b600181811c908216806101ab57607f821691505b6020821081036101c957634e487b7160e01b5f52602260045260245ffd5b50919050565b601f82111561021657805f5260205f20601f840160051c810160208510156101f45750805b601f840160051c820191505b81811015610213575f8155600101610200565b50505b505050565b81516001600160401b0381111561023457610234610183565b610248816102428454610197565b846101cf565b6020601f82116001811461027a575f83156102635750848201515b5f19600385901b1c1916600184901b178455610213565b5f84815260208120601f198516915b828110156102a95787850151825560209485019460019092019101610289565b50848210156102c657868401515f19600387901b60f8161c191681555b50505050600190811b01905550565b611abd806102e25f395ff3fe6080604052600436106101fb575f3560e01c80636352211e11610113578063b88d4fde1161009d578063e985e9c51161006d578063e985e9c514610582578063ed338ff1146105a1578063f2fde38b146105b6578063f4a0a528146105d5578063fc0c546a146105f4575f80fd5b8063b88d4fde14610511578063c87b56dd14610530578063d85d3d271461054f578063de8b51e11461056e575f80fd5b806370a08231116100e357806370a082311461048e578063715018a6146104ad5780638da5cb5b146104c157806395d89b41146104de578063a22cb465146104f2575f80fd5b80636352211e146104165780636817c76c146104355780636aa71d181461044a5780637080d6fc14610475575f80fd5b80630e3ab61d116101945780632f745c59116101645780632f745c59146103925780633ccfd60b146103b157806342842e0e146103c55780634f6ccce7146103e4578063537efe3114610403575f80fd5b80630e3ab61d1461032b5780630e726e6b1461034a57806318160ddd1461035f57806323b872dd14610373575f80fd5b806306fdde03116101cf57806306fdde0314610293578063081812fc146102b4578063095ea7b3146102eb5780630bb78ec11461030c575f80fd5b80629a9b7b146101ff57806301ffc9a71461022257806303e691461461025157806306dbc1311461027f575b5f80fd5b34801561020a575f80fd5b50600b545b6040519081526020015b60405180910390f35b34801561022d575f80fd5b5061024161023c3660046115aa565b610613565b6040519015158152602001610219565b34801561025c575f80fd5b5061024161026b3660046115e7565b60136020525f908152604090205460ff1681565b34801561028a575f80fd5b5061020f61063d565b34801561029e575f80fd5b506102a761065f565b6040516102199190611643565b3480156102bf575f80fd5b506102d36102ce366004611655565b6106ee565b6040516001600160a01b039091168152602001610219565b3480156102f6575f80fd5b5061030a61030536600461166c565b610715565b005b348015610317575f80fd5b506102a7610326366004611655565b610724565b348015610336575f80fd5b5061030a610345366004611655565b6107bb565b348015610355575f80fd5b5061020f600e5481565b34801561036a575f80fd5b5060085461020f565b34801561037e575f80fd5b5061030a61038d366004611694565b6107d3565b34801561039d575f80fd5b5061020f6103ac36600461166c565b610861565b3480156103bc575f80fd5b5061030a6108c4565b3480156103d0575f80fd5b5061030a6103df366004611694565b610905565b3480156103ef575f80fd5b5061020f6103fe366004611655565b610924565b61020f610411366004611759565b610979565b348015610421575f80fd5b506102d3610430366004611655565b610aab565b348015610440575f80fd5b5061020f600d5481565b348015610455575f80fd5b5061020f6104643660046115e7565b60126020525f908152604090205481565b348015610480575f80fd5b506010546102419060ff1681565b348015610499575f80fd5b5061020f6104a83660046115e7565b610ab5565b3480156104b8575f80fd5b5061030a610afa565b3480156104cc575f80fd5b50600a546001600160a01b03166102d3565b3480156104e9575f80fd5b506102a7610b0d565b3480156104fd575f80fd5b5061030a61050c36600461179e565b610b1c565b34801561051c575f80fd5b5061030a61052b3660046117d7565b610b27565b34801561053b575f80fd5b506102a761054a366004611655565b610b3e565b34801561055a575f80fd5b5061020f610569366004611759565b610be6565b348015610579575f80fd5b5061030a610c78565b34801561058d575f80fd5b5061024161059c36600461184e565b610c94565b3480156105ac575f80fd5b5061020f600f5481565b3480156105c1575f80fd5b5061030a6105d03660046115e7565b610cc1565b3480156105e0575f80fd5b5061030a6105ef366004611655565b610cfb565b3480156105ff575f80fd5b50600c546102d3906001600160a01b031681565b5f6001600160e01b0319821663780e9d6360e01b1480610637575061063782610d08565b92915050565b600e54335f90815260126020526040812054909161065a91611893565b905090565b60605f805461066d906118a6565b80601f0160208091040260200160405190810160405280929190818152602001828054610699906118a6565b80156106e45780601f106106bb576101008083540402835291602001916106e4565b820191905f5260205f20905b8154815290600101906020018083116106c757829003601f168201915b5050505050905090565b5f6106f882610d57565b505f828152600460205260409020546001600160a01b0316610637565b610720828233610d8f565b5050565b60116020525f90815260409020805461073c906118a6565b80601f0160208091040260200160405190810160405280929190818152602001828054610768906118a6565b80156107b35780601f1061078a576101008083540402835291602001916107b3565b820191905f5260205f20905b81548152906001019060200180831161079657829003601f168201915b505050505081565b6107c3610d9c565b6107cd8142611893565b600f5550565b6001600160a01b03821661080157604051633250574960e11b81525f60048201526024015b60405180910390fd5b5f61080d838333610dc9565b9050836001600160a01b0316816001600160a01b03161461085b576040516364283d7b60e01b81526001600160a01b03808616600483015260248201849052821660448201526064016107f8565b50505050565b5f61086b83610ab5565b821061089c5760405163295f44f760e21b81526001600160a01b0384166004820152602481018390526044016107f8565b506001600160a01b03919091165f908152600660209081526040808320938352929052205490565b6108cc610d9c565b600a546040516001600160a01b03909116904780156108fc02915f818181858888f19350505050158015610902573d5f803e3d5ffd5b50565b61091f83838360405180602001604052805f815250610b27565b505050565b5f61092e60085490565b82106109565760405163295f44f760e21b81525f6004820152602481018390526044016107f8565b60088281548110610969576109696118de565b905f5260205f2001549050919050565b6010545f9060ff166109c25760405162461bcd60e51b815260206004820152601260248201527153616c65206973206e6f742061637469766560701b60448201526064016107f8565b600f544210610a005760405162461bcd60e51b815260206004820152600a60248201526914d85b1948195b99195960b21b60448201526064016107f8565b600d543414610a475760405162461bcd60e51b8152602060048201526013602482015272496e636f7272656374204554482076616c756560681b60448201526064016107f8565b600b5f8154610a55906118f2565b90915550600b54610a663382610e9c565b610a708184610eb5565b60405181815233907f30385c845b448a36257a6a1716e6ad2e1bc2cbe333cde1e69fe849ad6511adfe9060200160405180910390a292915050565b5f61063782610d57565b5f6001600160a01b038216610adf576040516322718ad960e21b81525f60048201526024016107f8565b506001600160a01b03165f9081526003602052604090205490565b610b02610d9c565b610b0b5f610ecc565b565b60606001805461066d906118a6565b610720338383610f1d565b610b328484846107d3565b61085b84848484610fbb565b6060610b4982610d57565b505f8281526011602052604081208054610b62906118a6565b80601f0160208091040260200160405190810160405280929190818152602001828054610b8e906118a6565b8015610bd95780601f10610bb057610100808354040283529160200191610bd9565b820191905f5260205f20905b815481529060010190602001808311610bbc57829003601f168201915b5093979650505050505050565b600e54335f908152601260205260408120549091610c0391611893565b421015610c485760405162461bcd60e51b81526020600482015260136024820152724e6f74207265616368206d696e742074696d6560681b60448201526064016107f8565b600b5f8154610c56906118f2565b90915550600b54335f818152601260205260409020429055610a669082610e9c565b610c80610d9c565b6010805460ff19811660ff90911615179055565b6001600160a01b039182165f90815260056020908152604080832093909416825291909152205460ff1690565b610cc9610d9c565b6001600160a01b038116610cf257604051631e4fbdf760e01b81525f60048201526024016107f8565b61090281610ecc565b610d03610d9c565b600d55565b5f6001600160e01b031982166380ac58cd60e01b1480610d3857506001600160e01b03198216635b5e139f60e01b145b8061063757506301ffc9a760e01b6001600160e01b0319831614610637565b5f818152600260205260408120546001600160a01b03168061063757604051637e27328960e01b8152600481018490526024016107f8565b61091f83838360016110e1565b600a546001600160a01b03163314610b0b5760405163118cdaa760e01b81523360048201526024016107f8565b5f80610dd68585856111e5565b90506001600160a01b038116610e3257610e2d84600880545f838152600960205260408120829055600182018355919091527ff3f7a9fe364faab93b216da50a3214154f22a0a2b415b23a84c8169e8b636ee30155565b610e55565b846001600160a01b0316816001600160a01b031614610e5557610e5581856112d7565b6001600160a01b038516610e7157610e6c84611364565b610e94565b846001600160a01b0316816001600160a01b031614610e9457610e94858561140b565b949350505050565b610720828260405180602001604052805f815250611459565b5f82815260116020526040902061091f828261194e565b600a80546001600160a01b038381166001600160a01b0319831681179093556040519116919082907f8be0079c531659141344cd1fd0a4f28419497f9722a3daafe3b4186f6b6457e0905f90a35050565b6001600160a01b038216610f4f57604051630b61174360e31b81526001600160a01b03831660048201526024016107f8565b6001600160a01b038381165f81815260056020908152604080832094871680845294825291829020805460ff191686151590811790915591519182527f17307eab39ab6107e8899845ad3d59bd9653f200f220920489ca2b5937696c31910160405180910390a3505050565b6001600160a01b0383163b1561085b57604051630a85bd0160e11b81526001600160a01b0384169063150b7a0290610ffd903390889087908790600401611a09565b6020604051808303815f875af1925050508015611037575060408051601f3d908101601f1916820190925261103491810190611a45565b60015b61109e573d808015611064576040519150601f19603f3d011682016040523d82523d5f602084013e611069565b606091505b5080515f0361109657604051633250574960e11b81526001600160a01b03851660048201526024016107f8565b805181602001fd5b6001600160e01b03198116630a85bd0160e11b146110da57604051633250574960e11b81526001600160a01b03851660048201526024016107f8565b5050505050565b80806110f557506001600160a01b03821615155b156111b6575f61110484610d57565b90506001600160a01b038316158015906111305750826001600160a01b0316816001600160a01b031614155b801561114357506111418184610c94565b155b1561116c5760405163a9fbf51f60e01b81526001600160a01b03841660048201526024016107f8565b81156111b45783856001600160a01b0316826001600160a01b03167f8c5be1e5ebec7d5bd14f71427d1e84f3dd0314c0f7b2291e5b200ac8c7c3b92560405160405180910390a45b505b50505f90815260046020526040902080546001600160a01b0319166001600160a01b0392909216919091179055565b5f828152600260205260408120546001600160a01b03908116908316156112115761121181848661146f565b6001600160a01b0381161561124b5761122c5f855f806110e1565b6001600160a01b0381165f90815260036020526040902080545f190190555b6001600160a01b03851615611279576001600160a01b0385165f908152600360205260409020805460010190555b5f8481526002602052604080822080546001600160a01b0319166001600160a01b0389811691821790925591518793918516917fddf252ad1be2c89b69c2b068fc378daa952ba7f163c4a11628f55a4df523b3ef91a4949350505050565b5f6112e183610ab5565b5f83815260076020526040902054909150808214611332576001600160a01b0384165f9081526006602090815260408083208584528252808320548484528184208190558352600790915290208190555b505f9182526007602090815260408084208490556001600160a01b039094168352600681528383209183525290812055565b6008545f9061137590600190611a60565b5f838152600960205260408120546008805493945090928490811061139c5761139c6118de565b905f5260205f200154905080600883815481106113bb576113bb6118de565b5f9182526020808320909101929092558281526009909152604080822084905585825281205560088054806113f2576113f2611a73565b600190038181905f5260205f20015f9055905550505050565b5f600161141784610ab5565b6114219190611a60565b6001600160a01b039093165f908152600660209081526040808320868452825280832085905593825260079052919091209190915550565b61146383836114d3565b61091f5f848484610fbb565b61147a838383611534565b61091f576001600160a01b0383166114a857604051637e27328960e01b8152600481018290526024016107f8565b60405163177e802f60e01b81526001600160a01b0383166004820152602481018290526044016107f8565b6001600160a01b0382166114fc57604051633250574960e11b81525f60048201526024016107f8565b5f61150883835f610dc9565b90506001600160a01b0381161561091f576040516339e3563760e11b81525f60048201526024016107f8565b5f6001600160a01b03831615801590610e945750826001600160a01b0316846001600160a01b0316148061156d575061156d8484610c94565b80610e945750505f908152600460205260409020546001600160a01b03908116911614919050565b6001600160e01b031981168114610902575f80fd5b5f602082840312156115ba575f80fd5b81356115c581611595565b9392505050565b80356001600160a01b03811681146115e2575f80fd5b919050565b5f602082840312156115f7575f80fd5b6115c5826115cc565b5f81518084525f5b8181101561162457602081850181015186830182015201611608565b505f602082860101526020601f19601f83011685010191505092915050565b602081525f6115c56020830184611600565b5f60208284031215611665575f80fd5b5035919050565b5f806040838503121561167d575f80fd5b611686836115cc565b946020939093013593505050565b5f805f606084860312156116a6575f80fd5b6116af846115cc565b92506116bd602085016115cc565b929592945050506040919091013590565b634e487b7160e01b5f52604160045260245ffd5b5f8067ffffffffffffffff8411156116fc576116fc6116ce565b50604051601f19601f85018116603f0116810181811067ffffffffffffffff8211171561172b5761172b6116ce565b604052838152905080828401851015611742575f80fd5b838360208301375f60208583010152509392505050565b5f60208284031215611769575f80fd5b813567ffffffffffffffff81111561177f575f80fd5b8201601f8101841361178f575f80fd5b610e94848235602084016116e2565b5f80604083850312156117af575f80fd5b6117b8836115cc565b9150602083013580151581146117cc575f80fd5b809150509250929050565b5f805f80608085870312156117ea575f80fd5b6117f3856115cc565b9350611801602086016115cc565b925060408501359150606085013567ffffffffffffffff811115611823575f80fd5b8501601f81018713611833575f80fd5b611842878235602084016116e2565b91505092959194509250565b5f806040838503121561185f575f80fd5b611868836115cc565b9150611876602084016115cc565b90509250929050565b634e487b7160e01b5f52601160045260245ffd5b808201808211156106375761063761187f565b600181811c908216806118ba57607f821691505b6020821081036118d857634e487b7160e01b5f52602260045260245ffd5b50919050565b634e487b7160e01b5f52603260045260245ffd5b5f600182016119035761190361187f565b5060010190565b601f82111561091f57805f5260205f20601f840160051c8101602085101561192f5750805b601f840160051c820191505b818110156110da575f815560010161193b565b815167ffffffffffffffff811115611968576119686116ce565b61197c8161197684546118a6565b8461190a565b6020601f8211600181146119ae575f83156119975750848201515b5f19600385901b1c1916600184901b1784556110da565b5f84815260208120601f198516915b828110156119dd57878501518255602094850194600190920191016119bd565b50848210156119fa57868401515f19600387901b60f8161c191681555b50505050600190811b01905550565b6001600160a01b03858116825284166020820152604081018390526080606082018190525f90611a3b90830184611600565b9695505050505050565b5f60208284031215611a55575f80fd5b81516115c581611595565b818103818111156106375761063761187f565b634e487b7160e01b5f52603160045260245ffdfea2646970667358221220d0b6ddb5c1da1b23e9c0ed3d552e2e17fed373fd0627c037c3dd3ac043add8fb64736f6c634300081a0033",
					"opcodes": "PUSH1 0x80 PUSH1 0x40 MSTORE PUSH7 0x2386F26FC10000 PUSH1 0xD SSTORE CALLVALUE DUP1 ISZERO PUSH2 0x1A JUMPI PUSH0 DUP1 REVERT JUMPDEST POP PUSH1 0x40 MLOAD PUSH2 0x1D9F CODESIZE SUB DUP1 PUSH2 0x1D9F DUP4 CODECOPY DUP2 ADD PUSH1 0x40 DUP2 SWAP1 MSTORE PUSH2 0x39 SWAP2 PUSH2 0x149 JUMP JUMPDEST CALLER PUSH1 0x40 MLOAD DUP1 PUSH1 0x40 ADD PUSH1 0x40 MSTORE DUP1 PUSH1 0x9 DUP2 MSTORE PUSH1 0x20 ADD PUSH9 0x10985B985B98539195 PUSH1 0xBA SHL DUP2 MSTORE POP PUSH1 0x40 MLOAD DUP1 PUSH1 0x40 ADD PUSH1 0x40 MSTORE DUP1 PUSH1 0x4 DUP2 MSTORE PUSH1 0x20 ADD PUSH4 0x10939195 PUSH1 0xE2 SHL DUP2 MSTORE POP DUP2 PUSH0 SWAP1 DUP2 PUSH2 0x87 SWAP2 SWAP1 PUSH2 0x21B JUMP JUMPDEST POP PUSH1 0x1 PUSH2 0x94 DUP3 DUP3 PUSH2 0x21B JUMP JUMPDEST POP POP POP PUSH1 0x1 PUSH1 0x1 PUSH1 0xA0 SHL SUB DUP2 AND PUSH2 0xC4 JUMPI PUSH1 0x40 MLOAD PUSH4 0x1E4FBDF7 PUSH1 0xE0 SHL DUP2 MSTORE PUSH0 PUSH1 0x4 DUP3 ADD MSTORE PUSH1 0x24 ADD PUSH1 0x40 MLOAD DUP1 SWAP2 SUB SWAP1 REVERT JUMPDEST PUSH2 0xCD DUP2 PUSH2 0xF8 JUMP JUMPDEST POP PUSH1 0xE SWAP2 SWAP1 SWAP2 SSTORE PUSH1 0xC DUP1 SLOAD PUSH1 0x1 PUSH1 0x1 PUSH1 0xA0 SHL SUB NOT AND PUSH1 0x1 PUSH1 0x1 PUSH1 0xA0 SHL SUB SWAP1 SWAP3 AND SWAP2 SWAP1 SWAP2 OR SWAP1 SSTORE PUSH2 0x2D5 JUMP JUMPDEST PUSH1 0xA DUP1 SLOAD PUSH1 0x1 PUSH1 0x1 PUSH1 0xA0 SHL SUB DUP4 DUP2 AND PUSH1 0x1 PUSH1 0x1 PUSH1 0xA0 SHL SUB NOT DUP4 AND DUP2 OR SWAP1 SWAP4 SSTORE PUSH1 0x40 MLOAD SWAP2 AND SWAP2 SWAP1 DUP3 SWAP1 PUSH32 0x8BE0079C531659141344CD1FD0A4F28419497F9722A3DAAFE3B4186F6B6457E0 SWAP1 PUSH0 SWAP1 LOG3 POP POP JUMP JUMPDEST PUSH0 DUP1 PUSH1 0x40 DUP4 DUP6 SUB SLT ISZERO PUSH2 0x15A JUMPI PUSH0 DUP1 REVERT JUMPDEST DUP3 MLOAD PUSH1 0x20 DUP5 ADD MLOAD SWAP1 SWAP3 POP PUSH1 0x1 PUSH1 0x1 PUSH1 0xA0 SHL SUB DUP2 AND DUP2 EQ PUSH2 0x178 JUMPI PUSH0 DUP1 REVERT JUMPDEST DUP1 SWAP2 POP POP SWAP3 POP SWAP3 SWAP1 POP JUMP JUMPDEST PUSH4 0x4E487B71 PUSH1 0xE0 SHL PUSH0 MSTORE PUSH1 0x41 PUSH1 0x4 MSTORE PUSH1 0x24 PUSH0 REVERT JUMPDEST PUSH1 0x1 DUP2 DUP2 SHR SWAP1 DUP3 AND DUP1 PUSH2 0x1AB JUMPI PUSH1 0x7F DUP3 AND SWAP2 POP JUMPDEST PUSH1 0x20 DUP3 LT DUP2 SUB PUSH2 0x1C9 JUMPI PUSH4 0x4E487B71 PUSH1 0xE0 SHL PUSH0 MSTORE PUSH1 0x22 PUSH1 0x4 MSTORE PUSH1 0x24 PUSH0 REVERT JUMPDEST POP SWAP2 SWAP1 POP JUMP JUMPDEST PUSH1 0x1F DUP3 GT ISZERO PUSH2 0x216 JUMPI DUP1 PUSH0 MSTORE PUSH1 0x20 PUSH0 KECCAK256 PUSH1 0x1F DUP5 ADD PUSH1 0x5 SHR DUP2 ADD PUSH1 0x20 DUP6 LT ISZERO PUSH2 0x1F4 JUMPI POP DUP1 JUMPDEST PUSH1 0x1F DUP5 ADD PUSH1 0x5 SHR DUP3 ADD SWAP2 POP JUMPDEST DUP2 DUP2 LT ISZERO PUSH2 0x213 JUMPI PUSH0 DUP2 SSTORE PUSH1 0x1 ADD PUSH2 0x200 JUMP JUMPDEST POP POP JUMPDEST POP POP POP JUMP JUMPDEST DUP2 MLOAD PUSH1 0x1 PUSH1 0x1 PUSH1 0x40 SHL SUB DUP2 GT ISZERO PUSH2 0x234 JUMPI PUSH2 0x234 PUSH2 0x183 JUMP JUMPDEST PUSH2 0x248 DUP2 PUSH2 0x242 DUP5 SLOAD PUSH2 0x197 JUMP JUMPDEST DUP5 PUSH2 0x1CF JUMP JUMPDEST PUSH1 0x20 PUSH1 0x1F DUP3 GT PUSH1 0x1 DUP2 EQ PUSH2 0x27A JUMPI PUSH0 DUP4 ISZERO PUSH2 0x263 JUMPI POP DUP5 DUP3 ADD MLOAD JUMPDEST PUSH0 NOT PUSH1 0x3 DUP6 SWAP1 SHL SHR NOT AND PUSH1 0x1 DUP5 SWAP1 SHL OR DUP5 SSTORE PUSH2 0x213 JUMP JUMPDEST PUSH0 DUP5 DUP2 MSTORE PUSH1 0x20 DUP2 KECCAK256 PUSH1 0x1F NOT DUP6 AND SWAP2 JUMPDEST DUP3 DUP2 LT ISZERO PUSH2 0x2A9 JUMPI DUP8 DUP6 ADD MLOAD DUP3 SSTORE PUSH1 0x20 SWAP5 DUP6 ADD SWAP5 PUSH1 0x1 SWAP1 SWAP3 ADD SWAP2 ADD PUSH2 0x289 JUMP JUMPDEST POP DUP5 DUP3 LT ISZERO PUSH2 0x2C6 JUMPI DUP7 DUP5 ADD MLOAD PUSH0 NOT PUSH1 0x3 DUP8 SWAP1 SHL PUSH1 0xF8 AND SHR NOT AND DUP2 SSTORE JUMPDEST POP POP POP POP PUSH1 0x1 SWAP1 DUP2 SHL ADD SWAP1 SSTORE POP JUMP JUMPDEST PUSH2 0x1ABD DUP1 PUSH2 0x2E2 PUSH0 CODECOPY PUSH0 RETURN INVALID PUSH1 0x80 PUSH1 0x40 MSTORE PUSH1 0x4 CALLDATASIZE LT PUSH2 0x1FB JUMPI PUSH0 CALLDATALOAD PUSH1 0xE0 SHR DUP1 PUSH4 0x6352211E GT PUSH2 0x113 JUMPI DUP1 PUSH4 0xB88D4FDE GT PUSH2 0x9D JUMPI DUP1 PUSH4 0xE985E9C5 GT PUSH2 0x6D JUMPI DUP1 PUSH4 0xE985E9C5 EQ PUSH2 0x582 JUMPI DUP1 PUSH4 0xED338FF1 EQ PUSH2 0x5A1 JUMPI DUP1 PUSH4 0xF2FDE38B EQ PUSH2 0x5B6 JUMPI DUP1 PUSH4 0xF4A0A528 EQ PUSH2 0x5D5 JUMPI DUP1 PUSH4 0xFC0C546A EQ PUSH2 0x5F4 JUMPI PUSH0 DUP1 REVERT JUMPDEST DUP1 PUSH4 0xB88D4FDE EQ PUSH2 0x511 JUMPI DUP1 PUSH4 0xC87B56DD EQ PUSH2 0x530 JUMPI DUP1 PUSH4 0xD85D3D27 EQ PUSH2 0x54F JUMPI DUP1 PUSH4 0xDE8B51E1 EQ PUSH2 0x56E JUMPI PUSH0 DUP1 REVERT JUMPDEST DUP1 PUSH4 0x70A08231 GT PUSH2 0xE3 JUMPI DUP1 PUSH4 0x70A08231 EQ PUSH2 0x48E JUMPI DUP1 PUSH4 0x715018A6 EQ PUSH2 0x4AD JUMPI DUP1 PUSH4 0x8DA5CB5B EQ PUSH2 0x4C1 JUMPI DUP1 PUSH4 0x95D89B41 EQ PUSH2 0x4DE JUMPI DUP1 PUSH4 0xA22CB465 EQ PUSH2 0x4F2 JUMPI PUSH0 DUP1 REVERT JUMPDEST DUP1 PUSH4 0x6352211E EQ PUSH2 0x416 JUMPI DUP1 PUSH4 0x6817C76C EQ PUSH2 0x435 JUMPI DUP1 PUSH4 0x6AA71D18 EQ PUSH2 0x44A JUMPI DUP1 PUSH4 0x7080D6FC EQ PUSH2 0x475 JUMPI PUSH0 DUP1 REVERT JUMPDEST DUP1 PUSH4 0xE3AB61D GT PUSH2 0x194 JUMPI DUP1 PUSH4 0x2F745C59 GT PUSH2 0x164 JUMPI DUP1 PUSH4 0x2F745C59 EQ PUSH2 0x392 JUMPI DUP1 PUSH4 0x3CCFD60B EQ PUSH2 0x3B1 JUMPI DUP1 PUSH4 0x42842E0E EQ PUSH2 0x3C5 JUMPI DUP1 PUSH4 0x4F6CCCE7 EQ PUSH2 0x3E4 JUMPI DUP1 PUSH4 0x537EFE31 EQ PUSH2 0x403 JUMPI PUSH0 DUP1 REVERT JUMPDEST DUP1 PUSH4 0xE3AB61D EQ PUSH2 0x32B JUMPI DUP1 PUSH4 0xE726E6B EQ PUSH2 0x34A JUMPI DUP1 PUSH4 0x18160DDD EQ PUSH2 0x35F JUMPI DUP1 PUSH4 0x23B872DD EQ PUSH2 0x373 JUMPI PUSH0 DUP1 REVERT JUMPDEST DUP1 PUSH4 0x6FDDE03 GT PUSH2 0x1CF JUMPI DUP1 PUSH4 0x6FDDE03 EQ PUSH2 0x293 JUMPI DUP1 PUSH4 0x81812FC EQ PUSH2 0x2B4 JUMPI DUP1 PUSH4 0x95EA7B3 EQ PUSH2 0x2EB JUMPI DUP1 PUSH4 0xBB78EC1 EQ PUSH2 0x30C JUMPI PUSH0 DUP1 REVERT JUMPDEST DUP1 PUSH3 0x9A9B7B EQ PUSH2 0x1FF JUMPI DUP1 PUSH4 0x1FFC9A7 EQ PUSH2 0x222 JUMPI DUP1 PUSH4 0x3E69146 EQ PUSH2 0x251 JUMPI DUP1 PUSH4 0x6DBC131 EQ PUSH2 0x27F JUMPI JUMPDEST PUSH0 DUP1 REVERT JUMPDEST CALLVALUE DUP1 ISZERO PUSH2 0x20A JUMPI PUSH0 DUP1 REVERT JUMPDEST POP PUSH1 0xB SLOAD JUMPDEST PUSH1 0x40 MLOAD SWAP1 DUP2 MSTORE PUSH1 0x20 ADD JUMPDEST PUSH1 0x40 MLOAD DUP1 SWAP2 SUB SWAP1 RETURN JUMPDEST CALLVALUE DUP1 ISZERO PUSH2 0x22D JUMPI PUSH0 DUP1 REVERT JUMPDEST POP PUSH2 0x241 PUSH2 0x23C CALLDATASIZE PUSH1 0x4 PUSH2 0x15AA JUMP JUMPDEST PUSH2 0x613 JUMP JUMPDEST PUSH1 0x40 MLOAD SWAP1 ISZERO ISZERO DUP2 MSTORE PUSH1 0x20 ADD PUSH2 0x219 JUMP JUMPDEST CALLVALUE DUP1 ISZERO PUSH2 0x25C JUMPI PUSH0 DUP1 REVERT JUMPDEST POP PUSH2 0x241 PUSH2 0x26B CALLDATASIZE PUSH1 0x4 PUSH2 0x15E7 JUMP JUMPDEST PUSH1 0x13 PUSH1 0x20 MSTORE PUSH0 SWAP1 DUP2 MSTORE PUSH1 0x40 SWAP1 KECCAK256 SLOAD PUSH1 0xFF AND DUP2 JUMP JUMPDEST CALLVALUE DUP1 ISZERO PUSH2 0x28A JUMPI PUSH0 DUP1 REVERT JUMPDEST POP PUSH2 0x20F PUSH2 0x63D JUMP JUMPDEST CALLVALUE DUP1 ISZERO PUSH2 0x29E JUMPI PUSH0 DUP1 REVERT JUMPDEST POP PUSH2 0x2A7 PUSH2 0x65F JUMP JUMPDEST PUSH1 0x40 MLOAD PUSH2 0x219 SWAP2 SWAP1 PUSH2 0x1643 JUMP JUMPDEST CALLVALUE DUP1 ISZERO PUSH2 0x2BF JUMPI PUSH0 DUP1 REVERT JUMPDEST POP PUSH2 0x2D3 PUSH2 0x2CE CALLDATASIZE PUSH1 0x4 PUSH2 0x1655 JUMP JUMPDEST PUSH2 0x6EE JUMP JUMPDEST PUSH1 0x40 MLOAD PUSH1 0x1 PUSH1 0x1 PUSH1 0xA0 SHL SUB SWAP1 SWAP2 AND DUP2 MSTORE PUSH1 0x20 ADD PUSH2 0x219 JUMP JUMPDEST CALLVALUE DUP1 ISZERO PUSH2 0x2F6 JUMPI PUSH0 DUP1 REVERT JUMPDEST POP PUSH2 0x30A PUSH2 0x305 CALLDATASIZE PUSH1 0x4 PUSH2 0x166C JUMP JUMPDEST PUSH2 0x715 JUMP JUMPDEST STOP JUMPDEST CALLVALUE DUP1 ISZERO PUSH2 0x317 JUMPI PUSH0 DUP1 REVERT JUMPDEST POP PUSH2 0x2A7 PUSH2 0x326 CALLDATASIZE PUSH1 0x4 PUSH2 0x1655 JUMP JUMPDEST PUSH2 0x724 JUMP JUMPDEST CALLVALUE DUP1 ISZERO PUSH2 0x336 JUMPI PUSH0 DUP1 REVERT JUMPDEST POP PUSH2 0x30A PUSH2 0x345 CALLDATASIZE PUSH1 0x4 PUSH2 0x1655 JUMP JUMPDEST PUSH2 0x7BB JUMP JUMPDEST CALLVALUE DUP1 ISZERO PUSH2 0x355 JUMPI PUSH0 DUP1 REVERT JUMPDEST POP PUSH2 0x20F PUSH1 0xE SLOAD DUP2 JUMP JUMPDEST CALLVALUE DUP1 ISZERO PUSH2 0x36A JUMPI PUSH0 DUP1 REVERT JUMPDEST POP PUSH1 0x8 SLOAD PUSH2 0x20F JUMP JUMPDEST CALLVALUE DUP1 ISZERO PUSH2 0x37E JUMPI PUSH0 DUP1 REVERT JUMPDEST POP PUSH2 0x30A PUSH2 0x38D CALLDATASIZE PUSH1 0x4 PUSH2 0x1694 JUMP JUMPDEST PUSH2 0x7D3 JUMP JUMPDEST CALLVALUE DUP1 ISZERO PUSH2 0x39D JUMPI PUSH0 DUP1 REVERT JUMPDEST POP PUSH2 0x20F PUSH2 0x3AC CALLDATASIZE PUSH1 0x4 PUSH2 0x166C JUMP JUMPDEST PUSH2 0x861 JUMP JUMPDEST CALLVALUE DUP1 ISZERO PUSH2 0x3BC JUMPI PUSH0 DUP1 REVERT JUMPDEST POP PUSH2 0x30A PUSH2 0x8C4 JUMP JUMPDEST CALLVALUE DUP1 ISZERO PUSH2 0x3D0 JUMPI PUSH0 DUP1 REVERT JUMPDEST POP PUSH2 0x30A PUSH2 0x3DF CALLDATASIZE PUSH1 0x4 PUSH2 0x1694 JUMP JUMPDEST PUSH2 0x905 JUMP JUMPDEST CALLVALUE DUP1 ISZERO PUSH2 0x3EF JUMPI PUSH0 DUP1 REVERT JUMPDEST POP PUSH2 0x20F PUSH2 0x3FE CALLDATASIZE PUSH1 0x4 PUSH2 0x1655 JUMP JUMPDEST PUSH2 0x924 JUMP JUMPDEST PUSH2 0x20F PUSH2 0x411 CALLDATASIZE PUSH1 0x4 PUSH2 0x1759 JUMP JUMPDEST PUSH2 0x979 JUMP JUMPDEST CALLVALUE DUP1 ISZERO PUSH2 0x421 JUMPI PUSH0 DUP1 REVERT JUMPDEST POP PUSH2 0x2D3 PUSH2 0x430 CALLDATASIZE PUSH1 0x4 PUSH2 0x1655 JUMP JUMPDEST PUSH2 0xAAB JUMP JUMPDEST CALLVALUE DUP1 ISZERO PUSH2 0x440 JUMPI PUSH0 DUP1 REVERT JUMPDEST POP PUSH2 0x20F PUSH1 0xD SLOAD DUP2 JUMP JUMPDEST CALLVALUE DUP1 ISZERO PUSH2 0x455 JUMPI PUSH0 DUP1 REVERT JUMPDEST POP PUSH2 0x20F PUSH2 0x464 CALLDATASIZE PUSH1 0x4 PUSH2 0x15E7 JUMP JUMPDEST PUSH1 0x12 PUSH1 0x20 MSTORE PUSH0 SWAP1 DUP2 MSTORE PUSH1 0x40 SWAP1 KECCAK256 SLOAD DUP2 JUMP JUMPDEST CALLVALUE DUP1 ISZERO PUSH2 0x480 JUMPI PUSH0 DUP1 REVERT JUMPDEST POP PUSH1 0x10 SLOAD PUSH2 0x241 SWAP1 PUSH1 0xFF AND DUP2 JUMP JUMPDEST CALLVALUE DUP1 ISZERO PUSH2 0x499 JUMPI PUSH0 DUP1 REVERT JUMPDEST POP PUSH2 0x20F PUSH2 0x4A8 CALLDATASIZE PUSH1 0x4 PUSH2 0x15E7 JUMP JUMPDEST PUSH2 0xAB5 JUMP JUMPDEST CALLVALUE DUP1 ISZERO PUSH2 0x4B8 JUMPI PUSH0 DUP1 REVERT JUMPDEST POP PUSH2 0x30A PUSH2 0xAFA JUMP JUMPDEST CALLVALUE DUP1 ISZERO PUSH2 0x4CC JUMPI PUSH0 DUP1 REVERT JUMPDEST POP PUSH1 0xA SLOAD PUSH1 0x1 PUSH1 0x1 PUSH1 0xA0 SHL SUB AND PUSH2 0x2D3 JUMP JUMPDEST CALLVALUE DUP1 ISZERO PUSH2 0x4E9 JUMPI PUSH0 DUP1 REVERT JUMPDEST POP PUSH2 0x2A7 PUSH2 0xB0D JUMP JUMPDEST CALLVALUE DUP1 ISZERO PUSH2 0x4FD JUMPI PUSH0 DUP1 REVERT JUMPDEST POP PUSH2 0x30A PUSH2 0x50C CALLDATASIZE PUSH1 0x4 PUSH2 0x179E JUMP JUMPDEST PUSH2 0xB1C JUMP JUMPDEST CALLVALUE DUP1 ISZERO PUSH2 0x51C JUMPI PUSH0 DUP1 REVERT JUMPDEST POP PUSH2 0x30A PUSH2 0x52B CALLDATASIZE PUSH1 0x4 PUSH2 0x17D7 JUMP JUMPDEST PUSH2 0xB27 JUMP JUMPDEST CALLVALUE DUP1 ISZERO PUSH2 0x53B JUMPI PUSH0 DUP1 REVERT JUMPDEST POP PUSH2 0x2A7 PUSH2 0x54A CALLDATASIZE PUSH1 0x4 PUSH2 0x1655 JUMP JUMPDEST PUSH2 0xB3E JUMP JUMPDEST CALLVALUE DUP1 ISZERO PUSH2 0x55A JUMPI PUSH0 DUP1 REVERT JUMPDEST POP PUSH2 0x20F PUSH2 0x569 CALLDATASIZE PUSH1 0x4 PUSH2 0x1759 JUMP JUMPDEST PUSH2 0xBE6 JUMP JUMPDEST CALLVALUE DUP1 ISZERO PUSH2 0x579 JUMPI PUSH0 DUP1 REVERT JUMPDEST POP PUSH2 0x30A PUSH2 0xC78 JUMP JUMPDEST CALLVALUE DUP1 ISZERO PUSH2 0x58D JUMPI PUSH0 DUP1 REVERT JUMPDEST POP PUSH2 0x241 PUSH2 0x59C CALLDATASIZE PUSH1 0x4 PUSH2 0x184E JUMP JUMPDEST PUSH2 0xC94 JUMP JUMPDEST CALLVALUE DUP1 ISZERO PUSH2 0x5AC JUMPI PUSH0 DUP1 REVERT JUMPDEST POP PUSH2 0x20F PUSH1 0xF SLOAD DUP2 JUMP JUMPDEST CALLVALUE DUP1 ISZERO PUSH2 0x5C1 JUMPI PUSH0 DUP1 REVERT JUMPDEST POP PUSH2 0x30A PUSH2 0x5D0 CALLDATASIZE PUSH1 0x4 PUSH2 0x15E7 JUMP JUMPDEST PUSH2 0xCC1 JUMP JUMPDEST CALLVALUE DUP1 ISZERO PUSH2 0x5E0 JUMPI PUSH0 DUP1 REVERT JUMPDEST POP PUSH2 0x30A PUSH2 0x5EF CALLDATASIZE PUSH1 0x4 PUSH2 0x1655 JUMP JUMPDEST PUSH2 0xCFB JUMP JUMPDEST CALLVALUE DUP1 ISZERO PUSH2 0x5FF JUMPI PUSH0 DUP1 REVERT JUMPDEST POP PUSH1 0xC SLOAD PUSH2 0x2D3 SWAP1 PUSH1 0x1 PUSH1 0x1 PUSH1 0xA0 SHL SUB AND DUP2 JUMP JUMPDEST PUSH0 PUSH1 0x1 PUSH1 0x1 PUSH1 0xE0 SHL SUB NOT DUP3 AND PUSH4 0x780E9D63 PUSH1 0xE0 SHL EQ DUP1 PUSH2 0x637 JUMPI POP PUSH2 0x637 DUP3 PUSH2 0xD08 JUMP JUMPDEST SWAP3 SWAP2 POP POP JUMP JUMPDEST PUSH1 0xE SLOAD CALLER PUSH0 SWAP1 DUP2 MSTORE PUSH1 0x12 PUSH1 0x20 MSTORE PUSH1 0x40 DUP2 KECCAK256 SLOAD SWAP1 SWAP2 PUSH2 0x65A SWAP2 PUSH2 0x1893 JUMP JUMPDEST SWAP1 POP SWAP1 JUMP JUMPDEST PUSH1 0x60 PUSH0 DUP1 SLOAD PUSH2 0x66D SWAP1 PUSH2 0x18A6 JUMP JUMPDEST DUP1 PUSH1 0x1F ADD PUSH1 0x20 DUP1 SWAP2 DIV MUL PUSH1 0x20 ADD PUSH1 0x40 MLOAD SWAP1 DUP2 ADD PUSH1 0x40 MSTORE DUP1 SWAP3 SWAP2 SWAP1 DUP2 DUP2 MSTORE PUSH1 0x20 ADD DUP3 DUP1 SLOAD PUSH2 0x699 SWAP1 PUSH2 0x18A6 JUMP JUMPDEST DUP1 ISZERO PUSH2 0x6E4 JUMPI DUP1 PUSH1 0x1F LT PUSH2 0x6BB JUMPI PUSH2 0x100 DUP1 DUP4 SLOAD DIV MUL DUP4 MSTORE SWAP2 PUSH1 0x20 ADD SWAP2 PUSH2 0x6E4 JUMP JUMPDEST DUP3 ADD SWAP2 SWAP1 PUSH0 MSTORE PUSH1 0x20 PUSH0 KECCAK256 SWAP1 JUMPDEST DUP2 SLOAD DUP2 MSTORE SWAP1 PUSH1 0x1 ADD SWAP1 PUSH1 0x20 ADD DUP1 DUP4 GT PUSH2 0x6C7 JUMPI DUP3 SWAP1 SUB PUSH1 0x1F AND DUP3 ADD SWAP2 JUMPDEST POP POP POP POP POP SWAP1 POP SWAP1 JUMP JUMPDEST PUSH0 PUSH2 0x6F8 DUP3 PUSH2 0xD57 JUMP JUMPDEST POP PUSH0 DUP3 DUP2 MSTORE PUSH1 0x4 PUSH1 0x20 MSTORE PUSH1 0x40 SWAP1 KECCAK256 SLOAD PUSH1 0x1 PUSH1 0x1 PUSH1 0xA0 SHL SUB AND PUSH2 0x637 JUMP JUMPDEST PUSH2 0x720 DUP3 DUP3 CALLER PUSH2 0xD8F JUMP JUMPDEST POP POP JUMP JUMPDEST PUSH1 0x11 PUSH1 0x20 MSTORE PUSH0 SWAP1 DUP2 MSTORE PUSH1 0x40 SWAP1 KECCAK256 DUP1 SLOAD PUSH2 0x73C SWAP1 PUSH2 0x18A6 JUMP JUMPDEST DUP1 PUSH1 0x1F ADD PUSH1 0x20 DUP1 SWAP2 DIV MUL PUSH1 0x20 ADD PUSH1 0x40 MLOAD SWAP1 DUP2 ADD PUSH1 0x40 MSTORE DUP1 SWAP3 SWAP2 SWAP1 DUP2 DUP2 MSTORE PUSH1 0x20 ADD DUP3 DUP1 SLOAD PUSH2 0x768 SWAP1 PUSH2 0x18A6 JUMP JUMPDEST DUP1 ISZERO PUSH2 0x7B3 JUMPI DUP1 PUSH1 0x1F LT PUSH2 0x78A JUMPI PUSH2 0x100 DUP1 DUP4 SLOAD DIV MUL DUP4 MSTORE SWAP2 PUSH1 0x20 ADD SWAP2 PUSH2 0x7B3 JUMP JUMPDEST DUP3 ADD SWAP2 SWAP1 PUSH0 MSTORE PUSH1 0x20 PUSH0 KECCAK256 SWAP1 JUMPDEST DUP2 SLOAD DUP2 MSTORE SWAP1 PUSH1 0x1 ADD SWAP1 PUSH1 0x20 ADD DUP1 DUP4 GT PUSH2 0x796 JUMPI DUP3 SWAP1 SUB PUSH1 0x1F AND DUP3 ADD SWAP2 JUMPDEST POP POP POP POP POP DUP2 JUMP JUMPDEST PUSH2 0x7C3 PUSH2 0xD9C JUMP JUMPDEST PUSH2 0x7CD DUP2 TIMESTAMP PUSH2 0x1893 JUMP JUMPDEST PUSH1 0xF SSTORE POP JUMP JUMPDEST PUSH1 0x1 PUSH1 0x1 PUSH1 0xA0 SHL SUB DUP3 AND PUSH2 0x801 JUMPI PUSH1 0x40 MLOAD PUSH4 0x32505749 PUSH1 0xE1 SHL DUP2 MSTORE PUSH0 PUSH1 0x4 DUP3 ADD MSTORE PUSH1 0x24 ADD JUMPDEST PUSH1 0x40 MLOAD DUP1 SWAP2 SUB SWAP1 REVERT JUMPDEST PUSH0 PUSH2 0x80D DUP4 DUP4 CALLER PUSH2 0xDC9 JUMP JUMPDEST SWAP1 POP DUP4 PUSH1 0x1 PUSH1 0x1 PUSH1 0xA0 SHL SUB AND DUP2 PUSH1 0x1 PUSH1 0x1 PUSH1 0xA0 SHL SUB AND EQ PUSH2 0x85B JUMPI PUSH1 0x40 MLOAD PUSH4 0x64283D7B PUSH1 0xE0 SHL DUP2 MSTORE PUSH1 0x1 PUSH1 0x1 PUSH1 0xA0 SHL SUB DUP1 DUP7 AND PUSH1 0x4 DUP4 ADD MSTORE PUSH1 0x24 DUP3 ADD DUP5 SWAP1 MSTORE DUP3 AND PUSH1 0x44 DUP3 ADD MSTORE PUSH1 0x64 ADD PUSH2 0x7F8 JUMP JUMPDEST POP POP POP POP JUMP JUMPDEST PUSH0 PUSH2 0x86B DUP4 PUSH2 0xAB5 JUMP JUMPDEST DUP3 LT PUSH2 0x89C JUMPI PUSH1 0x40 MLOAD PUSH4 0x295F44F7 PUSH1 0xE2 SHL DUP2 MSTORE PUSH1 0x1 PUSH1 0x1 PUSH1 0xA0 SHL SUB DUP5 AND PUSH1 0x4 DUP3 ADD MSTORE PUSH1 0x24 DUP2 ADD DUP4 SWAP1 MSTORE PUSH1 0x44 ADD PUSH2 0x7F8 JUMP JUMPDEST POP PUSH1 0x1 PUSH1 0x1 PUSH1 0xA0 SHL SUB SWAP2 SWAP1 SWAP2 AND PUSH0 SWAP1 DUP2 MSTORE PUSH1 0x6 PUSH1 0x20 SWAP1 DUP2 MSTORE PUSH1 0x40 DUP1 DUP4 KECCAK256 SWAP4 DUP4 MSTORE SWAP3 SWAP1 MSTORE KECCAK256 SLOAD SWAP1 JUMP JUMPDEST PUSH2 0x8CC PUSH2 0xD9C JUMP JUMPDEST PUSH1 0xA SLOAD PUSH1 0x40 MLOAD PUSH1 0x1 PUSH1 0x1 PUSH1 0xA0 SHL SUB SWAP1 SWAP2 AND SWAP1 SELFBALANCE DUP1 ISZERO PUSH2 0x8FC MUL SWAP2 PUSH0 DUP2 DUP2 DUP2 DUP6 DUP9 DUP9 CALL SWAP4 POP POP POP POP ISZERO DUP1 ISZERO PUSH2 0x902 JUMPI RETURNDATASIZE PUSH0 DUP1 RETURNDATACOPY RETURNDATASIZE PUSH0 REVERT JUMPDEST POP JUMP JUMPDEST PUSH2 0x91F DUP4 DUP4 DUP4 PUSH1 0x40 MLOAD DUP1 PUSH1 0x20 ADD PUSH1 0x40 MSTORE DUP1 PUSH0 DUP2 MSTORE POP PUSH2 0xB27 JUMP JUMPDEST POP POP POP JUMP JUMPDEST PUSH0 PUSH2 0x92E PUSH1 0x8 SLOAD SWAP1 JUMP JUMPDEST DUP3 LT PUSH2 0x956 JUMPI PUSH1 0x40 MLOAD PUSH4 0x295F44F7 PUSH1 0xE2 SHL DUP2 MSTORE PUSH0 PUSH1 0x4 DUP3 ADD MSTORE PUSH1 0x24 DUP2 ADD DUP4 SWAP1 MSTORE PUSH1 0x44 ADD PUSH2 0x7F8 JUMP JUMPDEST PUSH1 0x8 DUP3 DUP2 SLOAD DUP2 LT PUSH2 0x969 JUMPI PUSH2 0x969 PUSH2 0x18DE JUMP JUMPDEST SWAP1 PUSH0 MSTORE PUSH1 0x20 PUSH0 KECCAK256 ADD SLOAD SWAP1 POP SWAP2 SWAP1 POP JUMP JUMPDEST PUSH1 0x10 SLOAD PUSH0 SWAP1 PUSH1 0xFF AND PUSH2 0x9C2 JUMPI PUSH1 0x40 MLOAD PUSH3 0x461BCD PUSH1 0xE5 SHL DUP2 MSTORE PUSH1 0x20 PUSH1 0x4 DUP3 ADD MSTORE PUSH1 0x12 PUSH1 0x24 DUP3 ADD MSTORE PUSH18 0x53616C65206973206E6F7420616374697665 PUSH1 0x70 SHL PUSH1 0x44 DUP3 ADD MSTORE PUSH1 0x64 ADD PUSH2 0x7F8 JUMP JUMPDEST PUSH1 0xF SLOAD TIMESTAMP LT PUSH2 0xA00 JUMPI PUSH1 0x40 MLOAD PUSH3 0x461BCD PUSH1 0xE5 SHL DUP2 MSTORE PUSH1 0x20 PUSH1 0x4 DUP3 ADD MSTORE PUSH1 0xA PUSH1 0x24 DUP3 ADD MSTORE PUSH10 0x14D85B1948195B991959 PUSH1 0xB2 SHL PUSH1 0x44 DUP3 ADD MSTORE PUSH1 0x64 ADD PUSH2 0x7F8 JUMP JUMPDEST PUSH1 0xD SLOAD CALLVALUE EQ PUSH2 0xA47 JUMPI PUSH1 0x40 MLOAD PUSH3 0x461BCD PUSH1 0xE5 SHL DUP2 MSTORE PUSH1 0x20 PUSH1 0x4 DUP3 ADD MSTORE PUSH1 0x13 PUSH1 0x24 DUP3 ADD MSTORE PUSH19 0x496E636F7272656374204554482076616C7565 PUSH1 0x68 SHL PUSH1 0x44 DUP3 ADD MSTORE PUSH1 0x64 ADD PUSH2 0x7F8 JUMP JUMPDEST PUSH1 0xB PUSH0 DUP2 SLOAD PUSH2 0xA55 SWAP1 PUSH2 0x18F2 JUMP JUMPDEST SWAP1 SWAP2 SSTORE POP PUSH1 0xB SLOAD PUSH2 0xA66 CALLER DUP3 PUSH2 0xE9C JUMP JUMPDEST PUSH2 0xA70 DUP2 DUP5 PUSH2 0xEB5 JUMP JUMPDEST PUSH1 0x40 MLOAD DUP2 DUP2 MSTORE CALLER SWAP1 PUSH32 0x30385C845B448A36257A6A1716E6AD2E1BC2CBE333CDE1E69FE849AD6511ADFE SWAP1 PUSH1 0x20 ADD PUSH1 0x40 MLOAD DUP1 SWAP2 SUB SWAP1 LOG2 SWAP3 SWAP2 POP POP JUMP JUMPDEST PUSH0 PUSH2 0x637 DUP3 PUSH2 0xD57 JUMP JUMPDEST PUSH0 PUSH1 0x1 PUSH1 0x1 PUSH1 0xA0 SHL SUB DUP3 AND PUSH2 0xADF JUMPI PUSH1 0x40 MLOAD PUSH4 0x22718AD9 PUSH1 0xE2 SHL DUP2 MSTORE PUSH0 PUSH1 0x4 DUP3 ADD MSTORE PUSH1 0x24 ADD PUSH2 0x7F8 JUMP JUMPDEST POP PUSH1 0x1 PUSH1 0x1 PUSH1 0xA0 SHL SUB AND PUSH0 SWAP1 DUP2 MSTORE PUSH1 0x3 PUSH1 0x20 MSTORE PUSH1 0x40 SWAP1 KECCAK256 SLOAD SWAP1 JUMP JUMPDEST PUSH2 0xB02 PUSH2 0xD9C JUMP JUMPDEST PUSH2 0xB0B PUSH0 PUSH2 0xECC JUMP JUMPDEST JUMP JUMPDEST PUSH1 0x60 PUSH1 0x1 DUP1 SLOAD PUSH2 0x66D SWAP1 PUSH2 0x18A6 JUMP JUMPDEST PUSH2 0x720 CALLER DUP4 DUP4 PUSH2 0xF1D JUMP JUMPDEST PUSH2 0xB32 DUP5 DUP5 DUP5 PUSH2 0x7D3 JUMP JUMPDEST PUSH2 0x85B DUP5 DUP5 DUP5 DUP5 PUSH2 0xFBB JUMP JUMPDEST PUSH1 0x60 PUSH2 0xB49 DUP3 PUSH2 0xD57 JUMP JUMPDEST POP PUSH0 DUP3 DUP2 MSTORE PUSH1 0x11 PUSH1 0x20 MSTORE PUSH1 0x40 DUP2 KECCAK256 DUP1 SLOAD PUSH2 0xB62 SWAP1 PUSH2 0x18A6 JUMP JUMPDEST DUP1 PUSH1 0x1F ADD PUSH1 0x20 DUP1 SWAP2 DIV MUL PUSH1 0x20 ADD PUSH1 0x40 MLOAD SWAP1 DUP2 ADD PUSH1 0x40 MSTORE DUP1 SWAP3 SWAP2 SWAP1 DUP2 DUP2 MSTORE PUSH1 0x20 ADD DUP3 DUP1 SLOAD PUSH2 0xB8E SWAP1 PUSH2 0x18A6 JUMP JUMPDEST DUP1 ISZERO PUSH2 0xBD9 JUMPI DUP1 PUSH1 0x1F LT PUSH2 0xBB0 JUMPI PUSH2 0x100 DUP1 DUP4 SLOAD DIV MUL DUP4 MSTORE SWAP2 PUSH1 0x20 ADD SWAP2 PUSH2 0xBD9 JUMP JUMPDEST DUP3 ADD SWAP2 SWAP1 PUSH0 MSTORE PUSH1 0x20 PUSH0 KECCAK256 SWAP1 JUMPDEST DUP2 SLOAD DUP2 MSTORE SWAP1 PUSH1 0x1 ADD SWAP1 PUSH1 0x20 ADD DUP1 DUP4 GT PUSH2 0xBBC JUMPI DUP3 SWAP1 SUB PUSH1 0x1F AND DUP3 ADD SWAP2 JUMPDEST POP SWAP4 SWAP8 SWAP7 POP POP POP POP POP POP POP JUMP JUMPDEST PUSH1 0xE SLOAD CALLER PUSH0 SWAP1 DUP2 MSTORE PUSH1 0x12 PUSH1 0x20 MSTORE PUSH1 0x40 DUP2 KECCAK256 SLOAD SWAP1 SWAP2 PUSH2 0xC03 SWAP2 PUSH2 0x1893 JUMP JUMPDEST TIMESTAMP LT ISZERO PUSH2 0xC48 JUMPI PUSH1 0x40 MLOAD PUSH3 0x461BCD PUSH1 0xE5 SHL DUP2 MSTORE PUSH1 0x20 PUSH1 0x4 DUP3 ADD MSTORE PUSH1 0x13 PUSH1 0x24 DUP3 ADD MSTORE PUSH19 0x4E6F74207265616368206D696E742074696D65 PUSH1 0x68 SHL PUSH1 0x44 DUP3 ADD MSTORE PUSH1 0x64 ADD PUSH2 0x7F8 JUMP JUMPDEST PUSH1 0xB PUSH0 DUP2 SLOAD PUSH2 0xC56 SWAP1 PUSH2 0x18F2 JUMP JUMPDEST SWAP1 SWAP2 SSTORE POP PUSH1 0xB SLOAD CALLER PUSH0 DUP2 DUP2 MSTORE PUSH1 0x12 PUSH1 0x20 MSTORE PUSH1 0x40 SWAP1 KECCAK256 TIMESTAMP SWAP1 SSTORE PUSH2 0xA66 SWAP1 DUP3 PUSH2 0xE9C JUMP JUMPDEST PUSH2 0xC80 PUSH2 0xD9C JUMP JUMPDEST PUSH1 0x10 DUP1 SLOAD PUSH1 0xFF NOT DUP2 AND PUSH1 0xFF SWAP1 SWAP2 AND ISZERO OR SWAP1 SSTORE JUMP JUMPDEST PUSH1 0x1 PUSH1 0x1 PUSH1 0xA0 SHL SUB SWAP2 DUP3 AND PUSH0 SWAP1 DUP2 MSTORE PUSH1 0x5 PUSH1 0x20 SWAP1 DUP2 MSTORE PUSH1 0x40 DUP1 DUP4 KECCAK256 SWAP4 SWAP1 SWAP5 AND DUP3 MSTORE SWAP2 SWAP1 SWAP2 MSTORE KECCAK256 SLOAD PUSH1 0xFF AND SWAP1 JUMP JUMPDEST PUSH2 0xCC9 PUSH2 0xD9C JUMP JUMPDEST PUSH1 0x1 PUSH1 0x1 PUSH1 0xA0 SHL SUB DUP2 AND PUSH2 0xCF2 JUMPI PUSH1 0x40 MLOAD PUSH4 0x1E4FBDF7 PUSH1 0xE0 SHL DUP2 MSTORE PUSH0 PUSH1 0x4 DUP3 ADD MSTORE PUSH1 0x24 ADD PUSH2 0x7F8 JUMP JUMPDEST PUSH2 0x902 DUP2 PUSH2 0xECC JUMP JUMPDEST PUSH2 0xD03 PUSH2 0xD9C JUMP JUMPDEST PUSH1 0xD SSTORE JUMP JUMPDEST PUSH0 PUSH1 0x1 PUSH1 0x1 PUSH1 0xE0 SHL SUB NOT DUP3 AND PUSH4 0x80AC58CD PUSH1 0xE0 SHL EQ DUP1 PUSH2 0xD38 JUMPI POP PUSH1 0x1 PUSH1 0x1 PUSH1 0xE0 SHL SUB NOT DUP3 AND PUSH4 0x5B5E139F PUSH1 0xE0 SHL EQ JUMPDEST DUP1 PUSH2 0x637 JUMPI POP PUSH4 0x1FFC9A7 PUSH1 0xE0 SHL PUSH1 0x1 PUSH1 0x1 PUSH1 0xE0 SHL SUB NOT DUP4 AND EQ PUSH2 0x637 JUMP JUMPDEST PUSH0 DUP2 DUP2 MSTORE PUSH1 0x2 PUSH1 0x20 MSTORE PUSH1 0x40 DUP2 KECCAK256 SLOAD PUSH1 0x1 PUSH1 0x1 PUSH1 0xA0 SHL SUB AND DUP1 PUSH2 0x637 JUMPI PUSH1 0x40 MLOAD PUSH4 0x7E273289 PUSH1 0xE0 SHL DUP2 MSTORE PUSH1 0x4 DUP2 ADD DUP5 SWAP1 MSTORE PUSH1 0x24 ADD PUSH2 0x7F8 JUMP JUMPDEST PUSH2 0x91F DUP4 DUP4 DUP4 PUSH1 0x1 PUSH2 0x10E1 JUMP JUMPDEST PUSH1 0xA SLOAD PUSH1 0x1 PUSH1 0x1 PUSH1 0xA0 SHL SUB AND CALLER EQ PUSH2 0xB0B JUMPI PUSH1 0x40 MLOAD PUSH4 0x118CDAA7 PUSH1 0xE0 SHL DUP2 MSTORE CALLER PUSH1 0x4 DUP3 ADD MSTORE PUSH1 0x24 ADD PUSH2 0x7F8 JUMP JUMPDEST PUSH0 DUP1 PUSH2 0xDD6 DUP6 DUP6 DUP6 PUSH2 0x11E5 JUMP JUMPDEST SWAP1 POP PUSH1 0x1 PUSH1 0x1 PUSH1 0xA0 SHL SUB DUP2 AND PUSH2 0xE32 JUMPI PUSH2 0xE2D DUP5 PUSH1 0x8 DUP1 SLOAD PUSH0 DUP4 DUP2 MSTORE PUSH1 0x9 PUSH1 0x20 MSTORE PUSH1 0x40 DUP2 KECCAK256 DUP3 SWAP1 SSTORE PUSH1 0x1 DUP3 ADD DUP4 SSTORE SWAP2 SWAP1 SWAP2 MSTORE PUSH32 0xF3F7A9FE364FAAB93B216DA50A3214154F22A0A2B415B23A84C8169E8B636EE3 ADD SSTORE JUMP JUMPDEST PUSH2 0xE55 JUMP JUMPDEST DUP5 PUSH1 0x1 PUSH1 0x1 PUSH1 0xA0 SHL SUB AND DUP2 PUSH1 0x1 PUSH1 0x1 PUSH1 0xA0 SHL SUB AND EQ PUSH2 0xE55 JUMPI PUSH2 0xE55 DUP2 DUP6 PUSH2 0x12D7 JUMP JUMPDEST PUSH1 0x1 PUSH1 0x1 PUSH1 0xA0 SHL SUB DUP6 AND PUSH2 0xE71 JUMPI PUSH2 0xE6C DUP5 PUSH2 0x1364 JUMP JUMPDEST PUSH2 0xE94 JUMP JUMPDEST DUP5 PUSH1 0x1 PUSH1 0x1 PUSH1 0xA0 SHL SUB AND DUP2 PUSH1 0x1 PUSH1 0x1 PUSH1 0xA0 SHL SUB AND EQ PUSH2 0xE94 JUMPI PUSH2 0xE94 DUP6 DUP6 PUSH2 0x140B JUMP JUMPDEST SWAP5 SWAP4 POP POP POP POP JUMP JUMPDEST PUSH2 0x720 DUP3 DUP3 PUSH1 0x40 MLOAD DUP1 PUSH1 0x20 ADD PUSH1 0x40 MSTORE DUP1 PUSH0 DUP2 MSTORE POP PUSH2 0x1459 JUMP JUMPDEST PUSH0 DUP3 DUP2 MSTORE PUSH1 0x11 PUSH1 0x20 MSTORE PUSH1 0x40 SWAP1 KECCAK256 PUSH2 0x91F DUP3 DUP3 PUSH2 0x194E JUMP JUMPDEST PUSH1 0xA DUP1 SLOAD PUSH1 0x1 PUSH1 0x1 PUSH1 0xA0 SHL SUB DUP4 DUP2 AND PUSH1 0x1 PUSH1 0x1 PUSH1 0xA0 SHL SUB NOT DUP4 AND DUP2 OR SWAP1 SWAP4 SSTORE PUSH1 0x40 MLOAD SWAP2 AND SWAP2 SWAP1 DUP3 SWAP1 PUSH32 0x8BE0079C531659141344CD1FD0A4F28419497F9722A3DAAFE3B4186F6B6457E0 SWAP1 PUSH0 SWAP1 LOG3 POP POP JUMP JUMPDEST PUSH1 0x1 PUSH1 0x1 PUSH1 0xA0 SHL SUB DUP3 AND PUSH2 0xF4F JUMPI PUSH1 0x40 MLOAD PUSH4 0xB611743 PUSH1 0xE3 SHL DUP2 MSTORE PUSH1 0x1 PUSH1 0x1 PUSH1 0xA0 SHL SUB DUP4 AND PUSH1 0x4 DUP3 ADD MSTORE PUSH1 0x24 ADD PUSH2 0x7F8 JUMP JUMPDEST PUSH1 0x1 PUSH1 0x1 PUSH1 0xA0 SHL SUB DUP4 DUP2 AND PUSH0 DUP2 DUP2 MSTORE PUSH1 0x5 PUSH1 0x20 SWAP1 DUP2 MSTORE PUSH1 0x40 DUP1 DUP4 KECCAK256 SWAP5 DUP8 AND DUP1 DUP5 MSTORE SWAP5 DUP3 MSTORE SWAP2 DUP3 SWAP1 KECCAK256 DUP1 SLOAD PUSH1 0xFF NOT AND DUP7 ISZERO ISZERO SWAP1 DUP2 OR SWAP1 SWAP2 SSTORE SWAP2 MLOAD SWAP2 DUP3 MSTORE PUSH32 0x17307EAB39AB6107E8899845AD3D59BD9653F200F220920489CA2B5937696C31 SWAP2 ADD PUSH1 0x40 MLOAD DUP1 SWAP2 SUB SWAP1 LOG3 POP POP POP JUMP JUMPDEST PUSH1 0x1 PUSH1 0x1 PUSH1 0xA0 SHL SUB DUP4 AND EXTCODESIZE ISZERO PUSH2 0x85B JUMPI PUSH1 0x40 MLOAD PUSH4 0xA85BD01 PUSH1 0xE1 SHL DUP2 MSTORE PUSH1 0x1 PUSH1 0x1 PUSH1 0xA0 SHL SUB DUP5 AND SWAP1 PUSH4 0x150B7A02 SWAP1 PUSH2 0xFFD SWAP1 CALLER SWAP1 DUP9 SWAP1 DUP8 SWAP1 DUP8 SWAP1 PUSH1 0x4 ADD PUSH2 0x1A09 JUMP JUMPDEST PUSH1 0x20 PUSH1 0x40 MLOAD DUP1 DUP4 SUB DUP2 PUSH0 DUP8 GAS CALL SWAP3 POP POP POP DUP1 ISZERO PUSH2 0x1037 JUMPI POP PUSH1 0x40 DUP1 MLOAD PUSH1 0x1F RETURNDATASIZE SWAP1 DUP2 ADD PUSH1 0x1F NOT AND DUP3 ADD SWAP1 SWAP3 MSTORE PUSH2 0x1034 SWAP2 DUP2 ADD SWAP1 PUSH2 0x1A45 JUMP JUMPDEST PUSH1 0x1 JUMPDEST PUSH2 0x109E JUMPI RETURNDATASIZE DUP1 DUP1 ISZERO PUSH2 0x1064 JUMPI PUSH1 0x40 MLOAD SWAP2 POP PUSH1 0x1F NOT PUSH1 0x3F RETURNDATASIZE ADD AND DUP3 ADD PUSH1 0x40 MSTORE RETURNDATASIZE DUP3 MSTORE RETURNDATASIZE PUSH0 PUSH1 0x20 DUP5 ADD RETURNDATACOPY PUSH2 0x1069 JUMP JUMPDEST PUSH1 0x60 SWAP2 POP JUMPDEST POP DUP1 MLOAD PUSH0 SUB PUSH2 0x1096 JUMPI PUSH1 0x40 MLOAD PUSH4 0x32505749 PUSH1 0xE1 SHL DUP2 MSTORE PUSH1 0x1 PUSH1 0x1 PUSH1 0xA0 SHL SUB DUP6 AND PUSH1 0x4 DUP3 ADD MSTORE PUSH1 0x24 ADD PUSH2 0x7F8 JUMP JUMPDEST DUP1 MLOAD DUP2 PUSH1 0x20 ADD REVERT JUMPDEST PUSH1 0x1 PUSH1 0x1 PUSH1 0xE0 SHL SUB NOT DUP2 AND PUSH4 0xA85BD01 PUSH1 0xE1 SHL EQ PUSH2 0x10DA JUMPI PUSH1 0x40 MLOAD PUSH4 0x32505749 PUSH1 0xE1 SHL DUP2 MSTORE PUSH1 0x1 PUSH1 0x1 PUSH1 0xA0 SHL SUB DUP6 AND PUSH1 0x4 DUP3 ADD MSTORE PUSH1 0x24 ADD PUSH2 0x7F8 JUMP JUMPDEST POP POP POP POP POP JUMP JUMPDEST DUP1 DUP1 PUSH2 0x10F5 JUMPI POP PUSH1 0x1 PUSH1 0x1 PUSH1 0xA0 SHL SUB DUP3 AND ISZERO ISZERO JUMPDEST ISZERO PUSH2 0x11B6 JUMPI PUSH0 PUSH2 0x1104 DUP5 PUSH2 0xD57 JUMP JUMPDEST SWAP1 POP PUSH1 0x1 PUSH1 0x1 PUSH1 0xA0 SHL SUB DUP4 AND ISZERO DUP1 ISZERO SWAP1 PUSH2 0x1130 JUMPI POP DUP3 PUSH1 0x1 PUSH1 0x1 PUSH1 0xA0 SHL SUB AND DUP2 PUSH1 0x1 PUSH1 0x1 PUSH1 0xA0 SHL SUB AND EQ ISZERO JUMPDEST DUP1 ISZERO PUSH2 0x1143 JUMPI POP PUSH2 0x1141 DUP2 DUP5 PUSH2 0xC94 JUMP JUMPDEST ISZERO JUMPDEST ISZERO PUSH2 0x116C JUMPI PUSH1 0x40 MLOAD PUSH4 0xA9FBF51F PUSH1 0xE0 SHL DUP2 MSTORE PUSH1 0x1 PUSH1 0x1 PUSH1 0xA0 SHL SUB DUP5 AND PUSH1 0x4 DUP3 ADD MSTORE PUSH1 0x24 ADD PUSH2 0x7F8 JUMP JUMPDEST DUP2 ISZERO PUSH2 0x11B4 JUMPI DUP4 DUP6 PUSH1 0x1 PUSH1 0x1 PUSH1 0xA0 SHL SUB AND DUP3 PUSH1 0x1 PUSH1 0x1 PUSH1 0xA0 SHL SUB AND PUSH32 0x8C5BE1E5EBEC7D5BD14F71427D1E84F3DD0314C0F7B2291E5B200AC8C7C3B925 PUSH1 0x40 MLOAD PUSH1 0x40 MLOAD DUP1 SWAP2 SUB SWAP1 LOG4 JUMPDEST POP JUMPDEST POP POP PUSH0 SWAP1 DUP2 MSTORE PUSH1 0x4 PUSH1 0x20 MSTORE PUSH1 0x40 SWAP1 KECCAK256 DUP1 SLOAD PUSH1 0x1 PUSH1 0x1 PUSH1 0xA0 SHL SUB NOT AND PUSH1 0x1 PUSH1 0x1 PUSH1 0xA0 SHL SUB SWAP3 SWAP1 SWAP3 AND SWAP2 SWAP1 SWAP2 OR SWAP1 SSTORE JUMP JUMPDEST PUSH0 DUP3 DUP2 MSTORE PUSH1 0x2 PUSH1 0x20 MSTORE PUSH1 0x40 DUP2 KECCAK256 SLOAD PUSH1 0x1 PUSH1 0x1 PUSH1 0xA0 SHL SUB SWAP1 DUP2 AND SWAP1 DUP4 AND ISZERO PUSH2 0x1211 JUMPI PUSH2 0x1211 DUP2 DUP5 DUP7 PUSH2 0x146F JUMP JUMPDEST PUSH1 0x1 PUSH1 0x1 PUSH1 0xA0 SHL SUB DUP2 AND ISZERO PUSH2 0x124B JUMPI PUSH2 0x122C PUSH0 DUP6 PUSH0 DUP1 PUSH2 0x10E1 JUMP JUMPDEST PUSH1 0x1 PUSH1 0x1 PUSH1 0xA0 SHL SUB DUP2 AND PUSH0 SWAP1 DUP2 MSTORE PUSH1 0x3 PUSH1 0x20 MSTORE PUSH1 0x40 SWAP1 KECCAK256 DUP1 SLOAD PUSH0 NOT ADD SWAP1 SSTORE JUMPDEST PUSH1 0x1 PUSH1 0x1 PUSH1 0xA0 SHL SUB DUP6 AND ISZERO PUSH2 0x1279 JUMPI PUSH1 0x1 PUSH1 0x1 PUSH1 0xA0 SHL SUB DUP6 AND PUSH0 SWAP1 DUP2 MSTORE PUSH1 0x3 PUSH1 0x20 MSTORE PUSH1 0x40 SWAP1 KECCAK256 DUP1 SLOAD PUSH1 0x1 ADD SWAP1 SSTORE JUMPDEST PUSH0 DUP5 DUP2 MSTORE PUSH1 0x2 PUSH1 0x20 MSTORE PUSH1 0x40 DUP1 DUP3 KECCAK256 DUP1 SLOAD PUSH1 0x1 PUSH1 0x1 PUSH1 0xA0 SHL SUB NOT AND PUSH1 0x1 PUSH1 0x1 PUSH1 0xA0 SHL SUB DUP10 DUP2 AND SWAP2 DUP3 OR SWAP1 SWAP3 SSTORE SWAP2 MLOAD DUP8 SWAP4 SWAP2 DUP6 AND SWAP2 PUSH32 0xDDF252AD1BE2C89B69C2B068FC378DAA952BA7F163C4A11628F55A4DF523B3EF SWAP2 LOG4 SWAP5 SWAP4 POP POP POP POP JUMP JUMPDEST PUSH0 PUSH2 0x12E1 DUP4 PUSH2 0xAB5 JUMP JUMPDEST PUSH0 DUP4 DUP2 MSTORE PUSH1 0x7 PUSH1 0x20 MSTORE PUSH1 0x40 SWAP1 KECCAK256 SLOAD SWAP1 SWAP2 POP DUP1 DUP3 EQ PUSH2 0x1332 JUMPI PUSH1 0x1 PUSH1 0x1 PUSH1 0xA0 SHL SUB DUP5 AND PUSH0 SWAP1 DUP2 MSTORE PUSH1 0x6 PUSH1 0x20 SWAP1 DUP2 MSTORE PUSH1 0x40 DUP1 DUP4 KECCAK256 DUP6 DUP5 MSTORE DUP3 MSTORE DUP1 DUP4 KECCAK256 SLOAD DUP5 DUP5 MSTORE DUP2 DUP5 KECCAK256 DUP2 SWAP1 SSTORE DUP4 MSTORE PUSH1 0x7 SWAP1 SWAP2 MSTORE SWAP1 KECCAK256 DUP2 SWAP1 SSTORE JUMPDEST POP PUSH0 SWAP2 DUP3 MSTORE PUSH1 0x7 PUSH1 0x20 SWAP1 DUP2 MSTORE PUSH1 0x40 DUP1 DUP5 KECCAK256 DUP5 SWAP1 SSTORE PUSH1 0x1 PUSH1 0x1 PUSH1 0xA0 SHL SUB SWAP1 SWAP5 AND DUP4 MSTORE PUSH1 0x6 DUP2 MSTORE DUP4 DUP4 KECCAK256 SWAP2 DUP4 MSTORE MSTORE SWAP1 DUP2 KECCAK256 SSTORE JUMP JUMPDEST PUSH1 0x8 SLOAD PUSH0 SWAP1 PUSH2 0x1375 SWAP1 PUSH1 0x1 SWAP1 PUSH2 0x1A60 JUMP JUMPDEST PUSH0 DUP4 DUP2 MSTORE PUSH1 0x9 PUSH1 0x20 MSTORE PUSH1 0x40 DUP2 KECCAK256 SLOAD PUSH1 0x8 DUP1 SLOAD SWAP4 SWAP5 POP SWAP1 SWAP3 DUP5 SWAP1 DUP2 LT PUSH2 0x139C JUMPI PUSH2 0x139C PUSH2 0x18DE JUMP JUMPDEST SWAP1 PUSH0 MSTORE PUSH1 0x20 PUSH0 KECCAK256 ADD SLOAD SWAP1 POP DUP1 PUSH1 0x8 DUP4 DUP2 SLOAD DUP2 LT PUSH2 0x13BB JUMPI PUSH2 0x13BB PUSH2 0x18DE JUMP JUMPDEST PUSH0 SWAP2 DUP3 MSTORE PUSH1 0x20 DUP1 DUP4 KECCAK256 SWAP1 SWAP2 ADD SWAP3 SWAP1 SWAP3 SSTORE DUP3 DUP2 MSTORE PUSH1 0x9 SWAP1 SWAP2 MSTORE PUSH1 0x40 DUP1 DUP3 KECCAK256 DUP5 SWAP1 SSTORE DUP6 DUP3 MSTORE DUP2 KECCAK256 SSTORE PUSH1 0x8 DUP1 SLOAD DUP1 PUSH2 0x13F2 JUMPI PUSH2 0x13F2 PUSH2 0x1A73 JUMP JUMPDEST PUSH1 0x1 SWAP1 SUB DUP2 DUP2 SWAP1 PUSH0 MSTORE PUSH1 0x20 PUSH0 KECCAK256 ADD PUSH0 SWAP1 SSTORE SWAP1 SSTORE POP POP POP POP JUMP JUMPDEST PUSH0 PUSH1 0x1 PUSH2 0x1417 DUP5 PUSH2 0xAB5 JUMP JUMPDEST PUSH2 0x1421 SWAP2 SWAP1 PUSH2 0x1A60 JUMP JUMPDEST PUSH1 0x1 PUSH1 0x1 PUSH1 0xA0 SHL SUB SWAP1 SWAP4 AND PUSH0 SWAP1 DUP2 MSTORE PUSH1 0x6 PUSH1 0x20 SWAP1 DUP2 MSTORE PUSH1 0x40 DUP1 DUP4 KECCAK256 DUP7 DUP5 MSTORE DUP3 MSTORE DUP1 DUP4 KECCAK256 DUP6 SWAP1 SSTORE SWAP4 DUP3 MSTORE PUSH1 0x7 SWAP1 MSTORE SWAP2 SWAP1 SWAP2 KECCAK256 SWAP2 SWAP1 SWAP2 SSTORE POP JUMP JUMPDEST PUSH2 0x1463 DUP4 DUP4 PUSH2 0x14D3 JUMP JUMPDEST PUSH2 0x91F PUSH0 DUP5 DUP5 DUP5 PUSH2 0xFBB JUMP JUMPDEST PUSH2 0x147A DUP4 DUP4 DUP4 PUSH2 0x1534 JUMP JUMPDEST PUSH2 0x91F JUMPI PUSH1 0x1 PUSH1 0x1 PUSH1 0xA0 SHL SUB DUP4 AND PUSH2 0x14A8 JUMPI PUSH1 0x40 MLOAD PUSH4 0x7E273289 PUSH1 0xE0 SHL DUP2 MSTORE PUSH1 0x4 DUP2 ADD DUP3 SWAP1 MSTORE PUSH1 0x24 ADD PUSH2 0x7F8 JUMP JUMPDEST PUSH1 0x40 MLOAD PUSH4 0x177E802F PUSH1 0xE0 SHL DUP2 MSTORE PUSH1 0x1 PUSH1 0x1 PUSH1 0xA0 SHL SUB DUP4 AND PUSH1 0x4 DUP3 ADD MSTORE PUSH1 0x24 DUP2 ADD DUP3 SWAP1 MSTORE PUSH1 0x44 ADD PUSH2 0x7F8 JUMP JUMPDEST PUSH1 0x1 PUSH1 0x1 PUSH1 0xA0 SHL SUB DUP3 AND PUSH2 0x14FC JUMPI PUSH1 0x40 MLOAD PUSH4 0x32505749 PUSH1 0xE1 SHL DUP2 MSTORE PUSH0 PUSH1 0x4 DUP3 ADD MSTORE PUSH1 0x24 ADD PUSH2 0x7F8 JUMP JUMPDEST PUSH0 PUSH2 0x1508 DUP4 DUP4 PUSH0 PUSH2 0xDC9 JUMP JUMPDEST SWAP1 POP PUSH1 0x1 PUSH1 0x1 PUSH1 0xA0 SHL SUB DUP2 AND ISZERO PUSH2 0x91F JUMPI PUSH1 0x40 MLOAD PUSH4 0x39E35637 PUSH1 0xE1 SHL DUP2 MSTORE PUSH0 PUSH1 0x4 DUP3 ADD MSTORE PUSH1 0x24 ADD PUSH2 0x7F8 JUMP JUMPDEST PUSH0 PUSH1 0x1 PUSH1 0x1 PUSH1 0xA0 SHL SUB DUP4 AND ISZERO DUP1 ISZERO SWAP1 PUSH2 0xE94 JUMPI POP DUP3 PUSH1 0x1 PUSH1 0x1 PUSH1 0xA0 SHL SUB AND DUP5 PUSH1 0x1 PUSH1 0x1 PUSH1 0xA0 SHL SUB AND EQ DUP1 PUSH2 0x156D JUMPI POP PUSH2 0x156D DUP5 DUP5 PUSH2 0xC94 JUMP JUMPDEST DUP1 PUSH2 0xE94 JUMPI POP POP PUSH0 SWAP1 DUP2 MSTORE PUSH1 0x4 PUSH1 0x20 MSTORE PUSH1 0x40 SWAP1 KECCAK256 SLOAD PUSH1 0x1 PUSH1 0x1 PUSH1 0xA0 SHL SUB SWAP1 DUP2 AND SWAP2 AND EQ SWAP2 SWAP1 POP JUMP JUMPDEST PUSH1 0x1 PUSH1 0x1 PUSH1 0xE0 SHL SUB NOT DUP2 AND DUP2 EQ PUSH2 0x902 JUMPI PUSH0 DUP1 REVERT JUMPDEST PUSH0 PUSH1 0x20 DUP3 DUP5 SUB SLT ISZERO PUSH2 0x15BA JUMPI PUSH0 DUP1 REVERT JUMPDEST DUP2 CALLDATALOAD PUSH2 0x15C5 DUP2 PUSH2 0x1595 JUMP JUMPDEST SWAP4 SWAP3 POP POP POP JUMP JUMPDEST DUP1 CALLDATALOAD PUSH1 0x1 PUSH1 0x1 PUSH1 0xA0 SHL SUB DUP2 AND DUP2 EQ PUSH2 0x15E2 JUMPI PUSH0 DUP1 REVERT JUMPDEST SWAP2 SWAP1 POP JUMP JUMPDEST PUSH0 PUSH1 0x20 DUP3 DUP5 SUB SLT ISZERO PUSH2 0x15F7 JUMPI PUSH0 DUP1 REVERT JUMPDEST PUSH2 0x15C5 DUP3 PUSH2 0x15CC JUMP JUMPDEST PUSH0 DUP2 MLOAD DUP1 DUP5 MSTORE PUSH0 JUMPDEST DUP2 DUP2 LT ISZERO PUSH2 0x1624 JUMPI PUSH1 0x20 DUP2 DUP6 ADD DUP2 ADD MLOAD DUP7 DUP4 ADD DUP3 ADD MSTORE ADD PUSH2 0x1608 JUMP JUMPDEST POP PUSH0 PUSH1 0x20 DUP3 DUP7 ADD ADD MSTORE PUSH1 0x20 PUSH1 0x1F NOT PUSH1 0x1F DUP4 ADD AND DUP6 ADD ADD SWAP2 POP POP SWAP3 SWAP2 POP POP JUMP JUMPDEST PUSH1 0x20 DUP2 MSTORE PUSH0 PUSH2 0x15C5 PUSH1 0x20 DUP4 ADD DUP5 PUSH2 0x1600 JUMP JUMPDEST PUSH0 PUSH1 0x20 DUP3 DUP5 SUB SLT ISZERO PUSH2 0x1665 JUMPI PUSH0 DUP1 REVERT JUMPDEST POP CALLDATALOAD SWAP2 SWAP1 POP JUMP JUMPDEST PUSH0 DUP1 PUSH1 0x40 DUP4 DUP6 SUB SLT ISZERO PUSH2 0x167D JUMPI PUSH0 DUP1 REVERT JUMPDEST PUSH2 0x1686 DUP4 PUSH2 0x15CC JUMP JUMPDEST SWAP5 PUSH1 0x20 SWAP4 SWAP1 SWAP4 ADD CALLDATALOAD SWAP4 POP POP POP JUMP JUMPDEST PUSH0 DUP1 PUSH0 PUSH1 0x60 DUP5 DUP7 SUB SLT ISZERO PUSH2 0x16A6 JUMPI PUSH0 DUP1 REVERT JUMPDEST PUSH2 0x16AF DUP5 PUSH2 0x15CC JUMP JUMPDEST SWAP3 POP PUSH2 0x16BD PUSH1 0x20 DUP6 ADD PUSH2 0x15CC JUMP JUMPDEST SWAP3 SWAP6 SWAP3 SWAP5 POP POP POP PUSH1 0x40 SWAP2 SWAP1 SWAP2 ADD CALLDATALOAD SWAP1 JUMP JUMPDEST PUSH4 0x4E487B71 PUSH1 0xE0 SHL PUSH0 MSTORE PUSH1 0x41 PUSH1 0x4 MSTORE PUSH1 0x24 PUSH0 REVERT JUMPDEST PUSH0 DUP1 PUSH8 0xFFFFFFFFFFFFFFFF DUP5 GT ISZERO PUSH2 0x16FC JUMPI PUSH2 0x16FC PUSH2 0x16CE JUMP JUMPDEST POP PUSH1 0x40 MLOAD PUSH1 0x1F NOT PUSH1 0x1F DUP6 ADD DUP2 AND PUSH1 0x3F ADD AND DUP2 ADD DUP2 DUP2 LT PUSH8 0xFFFFFFFFFFFFFFFF DUP3 GT OR ISZERO PUSH2 0x172B JUMPI PUSH2 0x172B PUSH2 0x16CE JUMP JUMPDEST PUSH1 0x40 MSTORE DUP4 DUP2 MSTORE SWAP1 POP DUP1 DUP3 DUP5 ADD DUP6 LT ISZERO PUSH2 0x1742 JUMPI PUSH0 DUP1 REVERT JUMPDEST DUP4 DUP4 PUSH1 0x20 DUP4 ADD CALLDATACOPY PUSH0 PUSH1 0x20 DUP6 DUP4 ADD ADD MSTORE POP SWAP4 SWAP3 POP POP POP JUMP JUMPDEST PUSH0 PUSH1 0x20 DUP3 DUP5 SUB SLT ISZERO PUSH2 0x1769 JUMPI PUSH0 DUP1 REVERT JUMPDEST DUP2 CALLDATALOAD PUSH8 0xFFFFFFFFFFFFFFFF DUP2 GT ISZERO PUSH2 0x177F JUMPI PUSH0 DUP1 REVERT JUMPDEST DUP3 ADD PUSH1 0x1F DUP2 ADD DUP5 SGT PUSH2 0x178F JUMPI PUSH0 DUP1 REVERT JUMPDEST PUSH2 0xE94 DUP5 DUP3 CALLDATALOAD PUSH1 0x20 DUP5 ADD PUSH2 0x16E2 JUMP JUMPDEST PUSH0 DUP1 PUSH1 0x40 DUP4 DUP6 SUB SLT ISZERO PUSH2 0x17AF JUMPI PUSH0 DUP1 REVERT JUMPDEST PUSH2 0x17B8 DUP4 PUSH2 0x15CC JUMP JUMPDEST SWAP2 POP PUSH1 0x20 DUP4 ADD CALLDATALOAD DUP1 ISZERO ISZERO DUP2 EQ PUSH2 0x17CC JUMPI PUSH0 DUP1 REVERT JUMPDEST DUP1 SWAP2 POP POP SWAP3 POP SWAP3 SWAP1 POP JUMP JUMPDEST PUSH0 DUP1 PUSH0 DUP1 PUSH1 0x80 DUP6 DUP8 SUB SLT ISZERO PUSH2 0x17EA JUMPI PUSH0 DUP1 REVERT JUMPDEST PUSH2 0x17F3 DUP6 PUSH2 0x15CC JUMP JUMPDEST SWAP4 POP PUSH2 0x1801 PUSH1 0x20 DUP7 ADD PUSH2 0x15CC JUMP JUMPDEST SWAP3 POP PUSH1 0x40 DUP6 ADD CALLDATALOAD SWAP2 POP PUSH1 0x60 DUP6 ADD CALLDATALOAD PUSH8 0xFFFFFFFFFFFFFFFF DUP2 GT ISZERO PUSH2 0x1823 JUMPI PUSH0 DUP1 REVERT JUMPDEST DUP6 ADD PUSH1 0x1F DUP2 ADD DUP8 SGT PUSH2 0x1833 JUMPI PUSH0 DUP1 REVERT JUMPDEST PUSH2 0x1842 DUP8 DUP3 CALLDATALOAD PUSH1 0x20 DUP5 ADD PUSH2 0x16E2 JUMP JUMPDEST SWAP2 POP POP SWAP3 SWAP6 SWAP2 SWAP5 POP SWAP3 POP JUMP JUMPDEST PUSH0 DUP1 PUSH1 0x40 DUP4 DUP6 SUB SLT ISZERO PUSH2 0x185F JUMPI PUSH0 DUP1 REVERT JUMPDEST PUSH2 0x1868 DUP4 PUSH2 0x15CC JUMP JUMPDEST SWAP2 POP PUSH2 0x1876 PUSH1 0x20 DUP5 ADD PUSH2 0x15CC JUMP JUMPDEST SWAP1 POP SWAP3 POP SWAP3 SWAP1 POP JUMP JUMPDEST PUSH4 0x4E487B71 PUSH1 0xE0 SHL PUSH0 MSTORE PUSH1 0x11 PUSH1 0x4 MSTORE PUSH1 0x24 PUSH0 REVERT JUMPDEST DUP1 DUP3 ADD DUP1 DUP3 GT ISZERO PUSH2 0x637 JUMPI PUSH2 0x637 PUSH2 0x187F JUMP JUMPDEST PUSH1 0x1 DUP2 DUP2 SHR SWAP1 DUP3 AND DUP1 PUSH2 0x18BA JUMPI PUSH1 0x7F DUP3 AND SWAP2 POP JUMPDEST PUSH1 0x20 DUP3 LT DUP2 SUB PUSH2 0x18D8 JUMPI PUSH4 0x4E487B71 PUSH1 0xE0 SHL PUSH0 MSTORE PUSH1 0x22 PUSH1 0x4 MSTORE PUSH1 0x24 PUSH0 REVERT JUMPDEST POP SWAP2 SWAP1 POP JUMP JUMPDEST PUSH4 0x4E487B71 PUSH1 0xE0 SHL PUSH0 MSTORE PUSH1 0x32 PUSH1 0x4 MSTORE PUSH1 0x24 PUSH0 REVERT JUMPDEST PUSH0 PUSH1 0x1 DUP3 ADD PUSH2 0x1903 JUMPI PUSH2 0x1903 PUSH2 0x187F JUMP JUMPDEST POP PUSH1 0x1 ADD SWAP1 JUMP JUMPDEST PUSH1 0x1F DUP3 GT ISZERO PUSH2 0x91F JUMPI DUP1 PUSH0 MSTORE PUSH1 0x20 PUSH0 KECCAK256 PUSH1 0x1F DUP5 ADD PUSH1 0x5 SHR DUP2 ADD PUSH1 0x20 DUP6 LT ISZERO PUSH2 0x192F JUMPI POP DUP1 JUMPDEST PUSH1 0x1F DUP5 ADD PUSH1 0x5 SHR DUP3 ADD SWAP2 POP JUMPDEST DUP2 DUP2 LT ISZERO PUSH2 0x10DA JUMPI PUSH0 DUP2 SSTORE PUSH1 0x1 ADD PUSH2 0x193B JUMP JUMPDEST DUP2 MLOAD PUSH8 0xFFFFFFFFFFFFFFFF DUP2 GT ISZERO PUSH2 0x1968 JUMPI PUSH2 0x1968 PUSH2 0x16CE JUMP JUMPDEST PUSH2 0x197C DUP2 PUSH2 0x1976 DUP5 SLOAD PUSH2 0x18A6 JUMP JUMPDEST DUP5 PUSH2 0x190A JUMP JUMPDEST PUSH1 0x20 PUSH1 0x1F DUP3 GT PUSH1 0x1 DUP2 EQ PUSH2 0x19AE JUMPI PUSH0 DUP4 ISZERO PUSH2 0x1997 JUMPI POP DUP5 DUP3 ADD MLOAD JUMPDEST PUSH0 NOT PUSH1 0x3 DUP6 SWAP1 SHL SHR NOT AND PUSH1 0x1 DUP5 SWAP1 SHL OR DUP5 SSTORE PUSH2 0x10DA JUMP JUMPDEST PUSH0 DUP5 DUP2 MSTORE PUSH1 0x20 DUP2 KECCAK256 PUSH1 0x1F NOT DUP6 AND SWAP2 JUMPDEST DUP3 DUP2 LT ISZERO PUSH2 0x19DD JUMPI DUP8 DUP6 ADD MLOAD DUP3 SSTORE PUSH1 0x20 SWAP5 DUP6 ADD SWAP5 PUSH1 0x1 SWAP1 SWAP3 ADD SWAP2 ADD PUSH2 0x19BD JUMP JUMPDEST POP DUP5 DUP3 LT ISZERO PUSH2 0x19FA JUMPI DUP7 DUP5 ADD MLOAD PUSH0 NOT PUSH1 0x3 DUP8 SWAP1 SHL PUSH1 0xF8 AND SHR NOT AND DUP2 SSTORE JUMPDEST POP POP POP POP PUSH1 0x1 SWAP1 DUP2 SHL ADD SWAP1 SSTORE POP JUMP JUMPDEST PUSH1 0x1 PUSH1 0x1 PUSH1 0xA0 SHL SUB DUP6 DUP2 AND DUP3 MSTORE DUP5 AND PUSH1 0x20 DUP3 ADD MSTORE PUSH1 0x40 DUP2 ADD DUP4 SWAP1 MSTORE PUSH1 0x80 PUSH1 0x60 DUP3 ADD DUP2 SWAP1 MSTORE PUSH0 SWAP1 PUSH2 0x1A3B SWAP1 DUP4 ADD DUP5 PUSH2 0x1600 JUMP JUMPDEST SWAP7 SWAP6 POP POP POP POP POP POP JUMP JUMPDEST PUSH0 PUSH1 0x20 DUP3 DUP5 SUB SLT ISZERO PUSH2 0x1A55 JUMPI PUSH0 DUP1 REVERT JUMPDEST DUP2 MLOAD PUSH2 0x15C5 DUP2 PUSH2 0x1595 JUMP JUMPDEST DUP2 DUP2 SUB DUP2 DUP2 GT ISZERO PUSH2 0x637 JUMPI PUSH2 0x637 PUSH2 0x187F JUMP JUMPDEST PUSH4 0x4E487B71 PUSH1 0xE0 SHL PUSH0 MSTORE PUSH1 0x31 PUSH1 0x4 MSTORE PUSH1 0x24 PUSH0 REVERT INVALID LOG2 PUSH5 0x6970667358 0x22 SLT KECCAK256 0xD0 0xB6 0xDD 0xB5 0xC1 0xDA SHL 0x23 0xE9 0xC0 0xED RETURNDATASIZE SSTORE 0x2E 0x2E OR INVALID 0xD3 PUSH20 0xFD0627C037C3DD3AC043ADD8FB64736F6C634300 ADDMOD BYTE STOP CALLER "
				},
				"gasEstimates": {
					"creation": {
						"codeDepositCost": "1369000",
						"executionCost": "infinite",
						"totalCost": "infinite"
					},
					"external": {
						"_isSaleActive()": "2421",
						"_tokenURIs(uint256)": "infinite",
						"approve(address,uint256)": "31531",
						"balanceOf(address)": "2619",
						"currentTokenId()": "2316",
						"flipSaleActive()": "26657",
						"getApproved(uint256)": "infinite",
						"isApprovedForAll(address,address)": "infinite",
						"isOnline(address)": "2619",
						"judgeMint()": "4661",
						"lastMintTime(address)": "2595",
						"mint(string)": "infinite",
						"mintInterval()": "2351",
						"mintPrice()": "2351",
						"name()": "infinite",
						"owner()": "2419",
						"ownerOf(uint256)": "infinite",
						"payToMint(string)": "infinite",
						"renounceOwnership()": "infinite",
						"safeTransferFrom(address,address,uint256)": "infinite",
						"safeTransferFrom(address,address,uint256,bytes)": "infinite",
						"saleEndTime()": "2349",
						"setApprovalForAll(address,bool)": "26789",
						"setMintPrice(uint256)": "24596",
						"startSale(uint256)": "24608",
						"supportsInterface(bytes4)": "infinite",
						"symbol()": "infinite",
						"token()": "2468",
						"tokenByIndex(uint256)": "6810",
						"tokenOfOwnerByIndex(address,uint256)": "4958",
						"tokenURI(uint256)": "infinite",
						"totalSupply()": "2370",
						"transferFrom(address,address,uint256)": "infinite",
						"transferOwnership(address)": "28421",
						"withdraw()": "infinite"
					},
					"internal": {
						"_setTokenURI(uint256,string memory)": "infinite"
					}
				},
				"methodIdentifiers": {
					"_isSaleActive()": "7080d6fc",
					"_tokenURIs(uint256)": "0bb78ec1",
					"approve(address,uint256)": "095ea7b3",
					"balanceOf(address)": "70a08231",
					"currentTokenId()": "009a9b7b",
					"flipSaleActive()": "de8b51e1",
					"getApproved(uint256)": "081812fc",
					"isApprovedForAll(address,address)": "e985e9c5",
					"isOnline(address)": "03e69146",
					"judgeMint()": "06dbc131",
					"lastMintTime(address)": "6aa71d18",
					"mint(string)": "d85d3d27",
					"mintInterval()": "0e726e6b",
					"mintPrice()": "6817c76c",
					"name()": "06fdde03",
					"owner()": "8da5cb5b",
					"ownerOf(uint256)": "6352211e",
					"payToMint(string)": "537efe31",
					"renounceOwnership()": "715018a6",
					"safeTransferFrom(address,address,uint256)": "42842e0e",
					"safeTransferFrom(address,address,uint256,bytes)": "b88d4fde",
					"saleEndTime()": "ed338ff1",
					"setApprovalForAll(address,bool)": "a22cb465",
					"setMintPrice(uint256)": "f4a0a528",
					"startSale(uint256)": "0e3ab61d",
					"supportsInterface(bytes4)": "01ffc9a7",
					"symbol()": "95d89b41",
					"token()": "fc0c546a",
					"tokenByIndex(uint256)": "4f6ccce7",
					"tokenOfOwnerByIndex(address,uint256)": "2f745c59",
					"tokenURI(uint256)": "c87b56dd",
					"totalSupply()": "18160ddd",
					"transferFrom(address,address,uint256)": "23b872dd",
					"transferOwnership(address)": "f2fde38b",
					"withdraw()": "3ccfd60b"
				}
			},
			"storageLayout": {
				"storage": [
					{
						"astId": 395,
						"contract": "contracts/BananaNFT.sol:BananaNFT",
						"label": "_name",
						"offset": 0,
						"slot": "0",
						"type": "t_string_storage"
					},
					{
						"astId": 397,
						"contract": "contracts/BananaNFT.sol:BananaNFT",
						"label": "_symbol",
						"offset": 0,
						"slot": "1",
						"type": "t_string_storage"
					},
					{
						"astId": 401,
						"contract": "contracts/BananaNFT.sol:BananaNFT",
						"label": "_owners",
						"offset": 0,
						"slot": "2",
						"type": "t_mapping(t_uint256,t_address)"
					},
					{
						"astId": 405,
						"contract": "contracts/BananaNFT.sol:BananaNFT",
						"label": "_balances",
						"offset": 0,
						"slot": "3",
						"type": "t_mapping(t_address,t_uint256)"
					},
					{
						"astId": 409,
						"contract": "contracts/BananaNFT.sol:BananaNFT",
						"label": "_tokenApprovals",
						"offset": 0,
						"slot": "4",
						"type": "t_mapping(t_uint256,t_address)"
					},
					{
						"astId": 415,
						"contract": "contracts/BananaNFT.sol:BananaNFT",
						"label": "_operatorApprovals",
						"offset": 0,
						"slot": "5",
						"type": "t_mapping(t_address,t_mapping(t_address,t_bool))"
					},
					{
						"astId": 1525,
						"contract": "contracts/BananaNFT.sol:BananaNFT",
						"label": "_ownedTokens",
						"offset": 0,
						"slot": "6",
						"type": "t_mapping(t_address,t_mapping(t_uint256,t_uint256))"
					},
					{
						"astId": 1529,
						"contract": "contracts/BananaNFT.sol:BananaNFT",
						"label": "_ownedTokensIndex",
						"offset": 0,
						"slot": "7",
						"type": "t_mapping(t_uint256,t_uint256)"
					},
					{
						"astId": 1532,
						"contract": "contracts/BananaNFT.sol:BananaNFT",
						"label": "_allTokens",
						"offset": 0,
						"slot": "8",
						"type": "t_array(t_uint256)dyn_storage"
					},
					{
						"astId": 1536,
						"contract": "contracts/BananaNFT.sol:BananaNFT",
						"label": "_allTokensIndex",
						"offset": 0,
						"slot": "9",
						"type": "t_mapping(t_uint256,t_uint256)"
					},
					{
						"astId": 8,
						"contract": "contracts/BananaNFT.sol:BananaNFT",
						"label": "_owner",
						"offset": 0,
						"slot": "10",
						"type": "t_address"
					},
					{
						"astId": 3446,
						"contract": "contracts/BananaNFT.sol:BananaNFT",
						"label": "_tokenIdCounter",
						"offset": 0,
						"slot": "11",
						"type": "t_uint256"
					},
					{
						"astId": 3449,
						"contract": "contracts/BananaNFT.sol:BananaNFT",
						"label": "token",
						"offset": 0,
						"slot": "12",
						"type": "t_contract(IERC20)362"
					},
					{
						"astId": 3452,
						"contract": "contracts/BananaNFT.sol:BananaNFT",
						"label": "mintPrice",
						"offset": 0,
						"slot": "13",
						"type": "t_uint256"
					},
					{
						"astId": 3454,
						"contract": "contracts/BananaNFT.sol:BananaNFT",
						"label": "mintInterval",
						"offset": 0,
						"slot": "14",
						"type": "t_uint256"
					},
					{
						"astId": 3456,
						"contract": "contracts/BananaNFT.sol:BananaNFT",
						"label": "saleEndTime",
						"offset": 0,
						"slot": "15",
						"type": "t_uint256"
					},
					{
						"astId": 3458,
						"contract": "contracts/BananaNFT.sol:BananaNFT",
						"label": "_isSaleActive",
						"offset": 0,
						"slot": "16",
						"type": "t_bool"
					},
					{
						"astId": 3462,
						"contract": "contracts/BananaNFT.sol:BananaNFT",
						"label": "_tokenURIs",
						"offset": 0,
						"slot": "17",
						"type": "t_mapping(t_uint256,t_string_storage)"
					},
					{
						"astId": 3466,
						"contract": "contracts/BananaNFT.sol:BananaNFT",
						"label": "lastMintTime",
						"offset": 0,
						"slot": "18",
						"type": "t_mapping(t_address,t_uint256)"
					},
					{
						"astId": 3470,
						"contract": "contracts/BananaNFT.sol:BananaNFT",
						"label": "isOnline",
						"offset": 0,
						"slot": "19",
						"type": "t_mapping(t_address,t_bool)"
					}
				],
				"types": {
					"t_address": {
						"encoding": "inplace",
						"label": "address",
						"numberOfBytes": "20"
					},
					"t_array(t_uint256)dyn_storage": {
						"base": "t_uint256",
						"encoding": "dynamic_array",
						"label": "uint256[]",
						"numberOfBytes": "32"
					},
					"t_bool": {
						"encoding": "inplace",
						"label": "bool",
						"numberOfBytes": "1"
					},
					"t_contract(IERC20)362": {
						"encoding": "inplace",
						"label": "contract IERC20",
						"numberOfBytes": "20"
					},
					"t_mapping(t_address,t_bool)": {
						"encoding": "mapping",
						"key": "t_address",
						"label": "mapping(address => bool)",
						"numberOfBytes": "32",
						"value": "t_bool"
					},
					"t_mapping(t_address,t_mapping(t_address,t_bool))": {
						"encoding": "mapping",
						"key": "t_address",
						"label": "mapping(address => mapping(address => bool))",
						"numberOfBytes": "32",
						"value": "t_mapping(t_address,t_bool)"
					},
					"t_mapping(t_address,t_mapping(t_uint256,t_uint256))": {
						"encoding": "mapping",
						"key": "t_address",
						"label": "mapping(address => mapping(uint256 => uint256))",
						"numberOfBytes": "32",
						"value": "t_mapping(t_uint256,t_uint256)"
					},
					"t_mapping(t_address,t_uint256)": {
						"encoding": "mapping",
						"key": "t_address",
						"label": "mapping(address => uint256)",
						"numberOfBytes": "32",
						"value": "t_uint256"
					},
					"t_mapping(t_uint256,t_address)": {
						"encoding": "mapping",
						"key": "t_uint256",
						"label": "mapping(uint256 => address)",
						"numberOfBytes": "32",
						"value": "t_address"
					},
					"t_mapping(t_uint256,t_string_storage)": {
						"encoding": "mapping",
						"key": "t_uint256",
						"label": "mapping(uint256 => string)",
						"numberOfBytes": "32",
						"value": "t_string_storage"
					},
					"t_mapping(t_uint256,t_uint256)": {
						"encoding": "mapping",
						"key": "t_uint256",
						"label": "mapping(uint256 => uint256)",
						"numberOfBytes": "32",
						"value": "t_uint256"
					},
					"t_string_storage": {
						"encoding": "bytes",
						"label": "string",
						"numberOfBytes": "32"
					},
					"t_uint256": {
						"encoding": "inplace",
						"label": "uint256",
						"numberOfBytes": "32"
					}
				}
			},
			"userdoc": {
				"kind": "user",
				"methods": {},
				"version": 1
			}
		}
	}
}