{
	"contracts/BananaNFT.sol": {
		"BananaNFT": {
			"abi": [
				{
					"inputs": [
						{
							"internalType": "uint256",
							"name": "_mintInterval",
							"type": "uint256"
						},
						{
							"internalType": "uint256",
							"name": "whitelistMintTime",
							"type": "uint256"
						},
						{
							"internalType": "address",
							"name": "_marketingWallet",
							"type": "address"
						}
					],
					"stateMutability": "nonpayable",
					"type": "constructor"
				},
				{
					"inputs": [],
					"name": "ERC721EnumerableForbiddenBatchMint",
					"type": "error"
				},
				{
					"inputs": [
						{
							"internalType": "address",
							"name": "sender",
							"type": "address"
						},
						{
							"internalType": "uint256",
							"name": "tokenId",
							"type": "uint256"
						},
						{
							"internalType": "address",
							"name": "owner",
							"type": "address"
						}
					],
					"name": "ERC721IncorrectOwner",
					"type": "error"
				},
				{
					"inputs": [
						{
							"internalType": "address",
							"name": "operator",
							"type": "address"
						},
						{
							"internalType": "uint256",
							"name": "tokenId",
							"type": "uint256"
						}
					],
					"name": "ERC721InsufficientApproval",
					"type": "error"
				},
				{
					"inputs": [
						{
							"internalType": "address",
							"name": "approver",
							"type": "address"
						}
					],
					"name": "ERC721InvalidApprover",
					"type": "error"
				},
				{
					"inputs": [
						{
							"internalType": "address",
							"name": "operator",
							"type": "address"
						}
					],
					"name": "ERC721InvalidOperator",
					"type": "error"
				},
				{
					"inputs": [
						{
							"internalType": "address",
							"name": "owner",
							"type": "address"
						}
					],
					"name": "ERC721InvalidOwner",
					"type": "error"
				},
				{
					"inputs": [
						{
							"internalType": "address",
							"name": "receiver",
							"type": "address"
						}
					],
					"name": "ERC721InvalidReceiver",
					"type": "error"
				},
				{
					"inputs": [
						{
							"internalType": "address",
							"name": "sender",
							"type": "address"
						}
					],
					"name": "ERC721InvalidSender",
					"type": "error"
				},
				{
					"inputs": [
						{
							"internalType": "uint256",
							"name": "tokenId",
							"type": "uint256"
						}
					],
					"name": "ERC721NonexistentToken",
					"type": "error"
				},
				{
					"inputs": [
						{
							"internalType": "address",
							"name": "owner",
							"type": "address"
						},
						{
							"internalType": "uint256",
							"name": "index",
							"type": "uint256"
						}
					],
					"name": "ERC721OutOfBoundsIndex",
					"type": "error"
				},
				{
					"inputs": [
						{
							"internalType": "address",
							"name": "owner",
							"type": "address"
						}
					],
					"name": "OwnableInvalidOwner",
					"type": "error"
				},
				{
					"inputs": [
						{
							"internalType": "address",
							"name": "account",
							"type": "address"
						}
					],
					"name": "OwnableUnauthorizedAccount",
					"type": "error"
				},
				{
					"inputs": [],
					"name": "ReentrancyGuardReentrantCall",
					"type": "error"
				},
				{
					"anonymous": false,
					"inputs": [
						{
							"indexed": true,
							"internalType": "address",
							"name": "owner",
							"type": "address"
						},
						{
							"indexed": true,
							"internalType": "address",
							"name": "approved",
							"type": "address"
						},
						{
							"indexed": true,
							"internalType": "uint256",
							"name": "tokenId",
							"type": "uint256"
						}
					],
					"name": "Approval",
					"type": "event"
				},
				{
					"anonymous": false,
					"inputs": [
						{
							"indexed": true,
							"internalType": "address",
							"name": "owner",
							"type": "address"
						},
						{
							"indexed": true,
							"internalType": "address",
							"name": "operator",
							"type": "address"
						},
						{
							"indexed": false,
							"internalType": "bool",
							"name": "approved",
							"type": "bool"
						}
					],
					"name": "ApprovalForAll",
					"type": "event"
				},
				{
					"anonymous": false,
					"inputs": [
						{
							"indexed": true,
							"internalType": "address",
							"name": "user",
							"type": "address"
						},
						{
							"indexed": false,
							"internalType": "uint256",
							"name": "tokenId",
							"type": "uint256"
						}
					],
					"name": "Minted",
					"type": "event"
				},
				{
					"anonymous": false,
					"inputs": [
						{
							"indexed": true,
							"internalType": "address",
							"name": "previousOwner",
							"type": "address"
						},
						{
							"indexed": true,
							"internalType": "address",
							"name": "newOwner",
							"type": "address"
						}
					],
					"name": "OwnershipTransferred",
					"type": "event"
				},
				{
					"anonymous": false,
					"inputs": [
						{
							"indexed": true,
							"internalType": "address",
							"name": "from",
							"type": "address"
						},
						{
							"indexed": true,
							"internalType": "address",
							"name": "to",
							"type": "address"
						},
						{
							"indexed": true,
							"internalType": "uint256",
							"name": "tokenId",
							"type": "uint256"
						}
					],
					"name": "Transfer",
					"type": "event"
				},
				{
					"inputs": [],
					"name": "_isSaleActive",
					"outputs": [
						{
							"internalType": "bool",
							"name": "",
							"type": "bool"
						}
					],
					"stateMutability": "view",
					"type": "function"
				},
				{
					"inputs": [
						{
							"internalType": "uint256",
							"name": "tokenId",
							"type": "uint256"
						}
					],
					"name": "_tokenURIs",
					"outputs": [
						{
							"internalType": "string",
							"name": "",
							"type": "string"
						}
					],
					"stateMutability": "view",
					"type": "function"
				},
				{
					"inputs": [
						{
							"internalType": "address",
							"name": "user",
							"type": "address"
						}
					],
					"name": "addToWhitelist",
					"outputs": [],
					"stateMutability": "nonpayable",
					"type": "function"
				},
				{
					"inputs": [
						{
							"internalType": "address",
							"name": "to",
							"type": "address"
						},
						{
							"internalType": "uint256",
							"name": "tokenId",
							"type": "uint256"
						}
					],
					"name": "approve",
					"outputs": [],
					"stateMutability": "nonpayable",
					"type": "function"
				},
				{
					"inputs": [
						{
							"internalType": "address",
							"name": "owner",
							"type": "address"
						}
					],
					"name": "balanceOf",
					"outputs": [
						{
							"internalType": "uint256",
							"name": "",
							"type": "uint256"
						}
					],
					"stateMutability": "view",
					"type": "function"
				},
				{
					"inputs": [],
					"name": "currentTokenId",
					"outputs": [
						{
							"internalType": "uint256",
							"name": "",
							"type": "uint256"
						}
					],
					"stateMutability": "view",
					"type": "function"
				},
				{
					"inputs": [],
					"name": "endWhitelistMintTime",
					"outputs": [
						{
							"internalType": "uint256",
							"name": "",
							"type": "uint256"
						}
					],
					"stateMutability": "view",
					"type": "function"
				},
				{
					"inputs": [],
					"name": "flipSaleActive",
					"outputs": [],
					"stateMutability": "nonpayable",
					"type": "function"
				},
				{
					"inputs": [
						{
							"internalType": "uint256",
							"name": "tokenId",
							"type": "uint256"
						}
					],
					"name": "getApproved",
					"outputs": [
						{
							"internalType": "address",
							"name": "",
							"type": "address"
						}
					],
					"stateMutability": "view",
					"type": "function"
				},
				{
					"inputs": [
						{
							"internalType": "address",
							"name": "owner",
							"type": "address"
						},
						{
							"internalType": "address",
							"name": "operator",
							"type": "address"
						}
					],
					"name": "isApprovedForAll",
					"outputs": [
						{
							"internalType": "bool",
							"name": "",
							"type": "bool"
						}
					],
					"stateMutability": "view",
					"type": "function"
				},
				{
					"inputs": [
						{
							"internalType": "address",
							"name": "",
							"type": "address"
						}
					],
					"name": "lastMintTime",
					"outputs": [
						{
							"internalType": "uint256",
							"name": "",
							"type": "uint256"
						}
					],
					"stateMutability": "view",
					"type": "function"
				},
				{
					"inputs": [
						{
							"internalType": "string",
							"name": "uri",
							"type": "string"
						}
					],
					"name": "mint",
					"outputs": [],
					"stateMutability": "nonpayable",
					"type": "function"
				},
				{
					"inputs": [],
					"name": "mintInterval",
					"outputs": [
						{
							"internalType": "uint256",
							"name": "",
							"type": "uint256"
						}
					],
					"stateMutability": "view",
					"type": "function"
				},
				{
					"inputs": [],
					"name": "mintPrice",
					"outputs": [
						{
							"internalType": "uint256",
							"name": "",
							"type": "uint256"
						}
					],
					"stateMutability": "view",
					"type": "function"
				},
				{
					"inputs": [],
					"name": "name",
					"outputs": [
						{
							"internalType": "string",
							"name": "",
							"type": "string"
						}
					],
					"stateMutability": "view",
					"type": "function"
				},
				{
					"inputs": [],
					"name": "owner",
					"outputs": [
						{
							"internalType": "address",
							"name": "",
							"type": "address"
						}
					],
					"stateMutability": "view",
					"type": "function"
				},
				{
					"inputs": [
						{
							"internalType": "uint256",
							"name": "tokenId",
							"type": "uint256"
						}
					],
					"name": "ownerOf",
					"outputs": [
						{
							"internalType": "address",
							"name": "",
							"type": "address"
						}
					],
					"stateMutability": "view",
					"type": "function"
				},
				{
					"inputs": [
						{
							"internalType": "string",
							"name": "uri",
							"type": "string"
						}
					],
					"name": "payToMint",
					"outputs": [],
					"stateMutability": "payable",
					"type": "function"
				},
				{
					"inputs": [],
					"name": "renounceOwnership",
					"outputs": [],
					"stateMutability": "nonpayable",
					"type": "function"
				},
				{
					"inputs": [
						{
							"internalType": "address",
							"name": "from",
							"type": "address"
						},
						{
							"internalType": "address",
							"name": "to",
							"type": "address"
						},
						{
							"internalType": "uint256",
							"name": "tokenId",
							"type": "uint256"
						}
					],
					"name": "safeTransferFrom",
					"outputs": [],
					"stateMutability": "nonpayable",
					"type": "function"
				},
				{
					"inputs": [
						{
							"internalType": "address",
							"name": "from",
							"type": "address"
						},
						{
							"internalType": "address",
							"name": "to",
							"type": "address"
						},
						{
							"internalType": "uint256",
							"name": "tokenId",
							"type": "uint256"
						},
						{
							"internalType": "bytes",
							"name": "data",
							"type": "bytes"
						}
					],
					"name": "safeTransferFrom",
					"outputs": [],
					"stateMutability": "nonpayable",
					"type": "function"
				},
				{
					"inputs": [
						{
							"internalType": "address",
							"name": "operator",
							"type": "address"
						},
						{
							"internalType": "bool",
							"name": "approved",
							"type": "bool"
						}
					],
					"name": "setApprovalForAll",
					"outputs": [],
					"stateMutability": "nonpayable",
					"type": "function"
				},
				{
					"inputs": [
						{
							"internalType": "uint256",
							"name": "_mintInterval",
							"type": "uint256"
						}
					],
					"name": "setMintInterval",
					"outputs": [],
					"stateMutability": "nonpayable",
					"type": "function"
				},
				{
					"inputs": [
						{
							"internalType": "uint256",
							"name": "_mintPrice",
							"type": "uint256"
						}
					],
					"name": "setMintPrice",
					"outputs": [],
					"stateMutability": "nonpayable",
					"type": "function"
				},
				{
					"inputs": [
						{
							"internalType": "bytes4",
							"name": "interfaceId",
							"type": "bytes4"
						}
					],
					"name": "supportsInterface",
					"outputs": [
						{
							"internalType": "bool",
							"name": "",
							"type": "bool"
						}
					],
					"stateMutability": "view",
					"type": "function"
				},
				{
					"inputs": [],
					"name": "symbol",
					"outputs": [
						{
							"internalType": "string",
							"name": "",
							"type": "string"
						}
					],
					"stateMutability": "view",
					"type": "function"
				},
				{
					"inputs": [
						{
							"internalType": "uint256",
							"name": "index",
							"type": "uint256"
						}
					],
					"name": "tokenByIndex",
					"outputs": [
						{
							"internalType": "uint256",
							"name": "",
							"type": "uint256"
						}
					],
					"stateMutability": "view",
					"type": "function"
				},
				{
					"inputs": [
						{
							"internalType": "address",
							"name": "owner",
							"type": "address"
						},
						{
							"internalType": "uint256",
							"name": "index",
							"type": "uint256"
						}
					],
					"name": "tokenOfOwnerByIndex",
					"outputs": [
						{
							"internalType": "uint256",
							"name": "",
							"type": "uint256"
						}
					],
					"stateMutability": "view",
					"type": "function"
				},
				{
					"inputs": [
						{
							"internalType": "uint256",
							"name": "tokenId",
							"type": "uint256"
						}
					],
					"name": "tokenURI",
					"outputs": [
						{
							"internalType": "string",
							"name": "",
							"type": "string"
						}
					],
					"stateMutability": "view",
					"type": "function"
				},
				{
					"inputs": [],
					"name": "totalSupply",
					"outputs": [
						{
							"internalType": "uint256",
							"name": "",
							"type": "uint256"
						}
					],
					"stateMutability": "view",
					"type": "function"
				},
				{
					"inputs": [
						{
							"internalType": "address",
							"name": "from",
							"type": "address"
						},
						{
							"internalType": "address",
							"name": "to",
							"type": "address"
						},
						{
							"internalType": "uint256",
							"name": "tokenId",
							"type": "uint256"
						}
					],
					"name": "transferFrom",
					"outputs": [],
					"stateMutability": "nonpayable",
					"type": "function"
				},
				{
					"inputs": [
						{
							"internalType": "address",
							"name": "newOwner",
							"type": "address"
						}
					],
					"name": "transferOwnership",
					"outputs": [],
					"stateMutability": "nonpayable",
					"type": "function"
				},
				{
					"inputs": [
						{
							"internalType": "address",
							"name": "",
							"type": "address"
						}
					],
					"name": "whitelist",
					"outputs": [
						{
							"internalType": "bool",
							"name": "",
							"type": "bool"
						}
					],
					"stateMutability": "view",
					"type": "function"
				},
				{
					"inputs": [],
					"name": "withdraw",
					"outputs": [],
					"stateMutability": "nonpayable",
					"type": "function"
				}
			],
			"devdoc": {
				"errors": {
					"ERC721EnumerableForbiddenBatchMint()": [
						{
							"details": "Batch mint is not allowed."
						}
					],
					"ERC721IncorrectOwner(address,uint256,address)": [
						{
							"details": "Indicates an error related to the ownership over a particular token. Used in transfers.",
							"params": {
								"owner": "Address of the current owner of a token.",
								"sender": "Address whose tokens are being transferred.",
								"tokenId": "Identifier number of a token."
							}
						}
					],
					"ERC721InsufficientApproval(address,uint256)": [
						{
							"details": "Indicates a failure with the `operator`’s approval. Used in transfers.",
							"params": {
								"operator": "Address that may be allowed to operate on tokens without being their owner.",
								"tokenId": "Identifier number of a token."
							}
						}
					],
					"ERC721InvalidApprover(address)": [
						{
							"details": "Indicates a failure with the `approver` of a token to be approved. Used in approvals.",
							"params": {
								"approver": "Address initiating an approval operation."
							}
						}
					],
					"ERC721InvalidOperator(address)": [
						{
							"details": "Indicates a failure with the `operator` to be approved. Used in approvals.",
							"params": {
								"operator": "Address that may be allowed to operate on tokens without being their owner."
							}
						}
					],
					"ERC721InvalidOwner(address)": [
						{
							"details": "Indicates that an address can't be an owner. For example, `address(0)` is a forbidden owner in EIP-20. Used in balance queries.",
							"params": {
								"owner": "Address of the current owner of a token."
							}
						}
					],
					"ERC721InvalidReceiver(address)": [
						{
							"details": "Indicates a failure with the token `receiver`. Used in transfers.",
							"params": {
								"receiver": "Address to which tokens are being transferred."
							}
						}
					],
					"ERC721InvalidSender(address)": [
						{
							"details": "Indicates a failure with the token `sender`. Used in transfers.",
							"params": {
								"sender": "Address whose tokens are being transferred."
							}
						}
					],
					"ERC721NonexistentToken(uint256)": [
						{
							"details": "Indicates a `tokenId` whose `owner` is the zero address.",
							"params": {
								"tokenId": "Identifier number of a token."
							}
						}
					],
					"ERC721OutOfBoundsIndex(address,uint256)": [
						{
							"details": "An `owner`'s token query was out of bounds for `index`. NOTE: The owner being `address(0)` indicates a global out of bounds index."
						}
					],
					"OwnableInvalidOwner(address)": [
						{
							"details": "The owner is not a valid owner account. (eg. `address(0)`)"
						}
					],
					"OwnableUnauthorizedAccount(address)": [
						{
							"details": "The caller account is not authorized to perform an operation."
						}
					],
					"ReentrancyGuardReentrantCall()": [
						{
							"details": "Unauthorized reentrant call."
						}
					]
				},
				"events": {
					"Approval(address,address,uint256)": {
						"details": "Emitted when `owner` enables `approved` to manage the `tokenId` token."
					},
					"ApprovalForAll(address,address,bool)": {
						"details": "Emitted when `owner` enables or disables (`approved`) `operator` to manage all of its assets."
					},
					"Transfer(address,address,uint256)": {
						"details": "Emitted when `tokenId` token is transferred from `from` to `to`."
					}
				},
				"kind": "dev",
				"methods": {
					"approve(address,uint256)": {
						"details": "See {IERC721-approve}."
					},
					"balanceOf(address)": {
						"details": "See {IERC721-balanceOf}."
					},
					"getApproved(uint256)": {
						"details": "See {IERC721-getApproved}."
					},
					"isApprovedForAll(address,address)": {
						"details": "See {IERC721-isApprovedForAll}."
					},
					"name()": {
						"details": "See {IERC721Metadata-name}."
					},
					"owner()": {
						"details": "Returns the address of the current owner."
					},
					"ownerOf(uint256)": {
						"details": "See {IERC721-ownerOf}."
					},
					"renounceOwnership()": {
						"details": "Leaves the contract without owner. It will not be possible to call `onlyOwner` functions. Can only be called by the current owner. NOTE: Renouncing ownership will leave the contract without an owner, thereby disabling any functionality that is only available to the owner."
					},
					"safeTransferFrom(address,address,uint256)": {
						"details": "See {IERC721-safeTransferFrom}."
					},
					"safeTransferFrom(address,address,uint256,bytes)": {
						"details": "See {IERC721-safeTransferFrom}."
					},
					"setApprovalForAll(address,bool)": {
						"details": "See {IERC721-setApprovalForAll}."
					},
					"supportsInterface(bytes4)": {
						"details": "See {IERC165-supportsInterface}."
					},
					"symbol()": {
						"details": "See {IERC721Metadata-symbol}."
					},
					"tokenByIndex(uint256)": {
						"details": "See {IERC721Enumerable-tokenByIndex}."
					},
					"tokenOfOwnerByIndex(address,uint256)": {
						"details": "See {IERC721Enumerable-tokenOfOwnerByIndex}."
					},
					"tokenURI(uint256)": {
						"details": "See {IERC721Metadata-tokenURI}."
					},
					"totalSupply()": {
						"details": "See {IERC721Enumerable-totalSupply}."
					},
					"transferFrom(address,address,uint256)": {
						"details": "See {IERC721-transferFrom}."
					},
					"transferOwnership(address)": {
						"details": "Transfers ownership of the contract to a new account (`newOwner`). Can only be called by the current owner."
					}
				},
				"version": 1
			},
			"evm": {
				"assembly": "    /* \"contracts/BananaNFT.sol\":466:3560  contract BananaNFT is ERC721Enumerable, ReentrancyGuard, Ownable {... */\n  mstore(0x40, 0x80)\n    /* \"contracts/BananaNFT.sol\":565:576  0.005 ether */\n  0x11c37937e08000\n    /* \"contracts/BananaNFT.sol\":538:576  uint256 public mintPrice = 0.005 ether */\n  0x0c\n  sstore\n    /* \"contracts/BananaNFT.sol\":992:1323  constructor(... */\n  callvalue\n  dup1\n  iszero\n  tag_1\n  jumpi\n  0x00\n  dup1\n  revert\ntag_1:\n  pop\n  mload(0x40)\n  sub(codesize, bytecodeSize)\n  dup1\n  bytecodeSize\n  dup4\n  codecopy\n  dup2\n  add\n  0x40\n  dup2\n  swap1\n  mstore\n  tag_2\n  swap2\n  tag_3\n  jump\t// in\ntag_2:\n    /* \"contracts/BananaNFT.sol\":1150:1160  msg.sender */\n  caller\n    /* \"@openzeppelin/contracts/token/ERC721/ERC721.sol\":1381:1494  constructor(string memory name_, string memory symbol_) {... */\n  mload(0x40)\n  dup1\n  0x40\n  add\n  0x40\n  mstore\n  dup1\n  0x09\n  dup2\n  mstore\n  0x20\n  add\n  shl(0xba, 0x10985b985b98539195)\n  dup2\n  mstore\n  pop\n  mload(0x40)\n  dup1\n  0x40\n  add\n  0x40\n  mstore\n  dup1\n  0x04\n  dup2\n  mstore\n  0x20\n  add\n  shl(0xe2, 0x10939195)\n  dup2\n  mstore\n  pop\n    /* \"@openzeppelin/contracts/token/ERC721/ERC721.sol\":1455:1460  name_ */\n  dup2\n    /* \"@openzeppelin/contracts/token/ERC721/ERC721.sol\":1447:1452  _name */\n  0x00\n    /* \"@openzeppelin/contracts/token/ERC721/ERC721.sol\":1447:1460  _name = name_ */\n  swap1\n  dup2\n  tag_9\n  swap2\n  swap1\n  tag_10\n  jump\t// in\ntag_9:\n  pop\n    /* \"@openzeppelin/contracts/token/ERC721/ERC721.sol\":1470:1477  _symbol */\n  0x01\n    /* \"@openzeppelin/contracts/token/ERC721/ERC721.sol\":1470:1487  _symbol = symbol_ */\n  tag_11\n    /* \"@openzeppelin/contracts/token/ERC721/ERC721.sol\":1480:1487  symbol_ */\n  dup3\n    /* \"@openzeppelin/contracts/token/ERC721/ERC721.sol\":1470:1477  _symbol */\n  dup3\n    /* \"@openzeppelin/contracts/token/ERC721/ERC721.sol\":1470:1487  _symbol = symbol_ */\n  tag_10\n  jump\t// in\ntag_11:\n  pop\n  pop\n    /* \"@openzeppelin/contracts/utils/ReentrancyGuard.sol\":1713:1714  1 */\n  0x01\n    /* \"@openzeppelin/contracts/utils/ReentrancyGuard.sol\":1917:1924  _status */\n  0x0a\n    /* \"@openzeppelin/contracts/utils/ReentrancyGuard.sol\":1917:1938  _status = NOT_ENTERED */\n  sstore\n  pop\n  sub(shl(0xa0, 0x01), 0x01)\n    /* \"@openzeppelin/contracts/access/Ownable.sol\":1273:1299  initialOwner == address(0) */\n  dup2\n  and\n    /* \"@openzeppelin/contracts/access/Ownable.sol\":1269:1364  if (initialOwner == address(0)) {... */\n  tag_14\n  jumpi\n    /* \"@openzeppelin/contracts/access/Ownable.sol\":1322:1353  OwnableInvalidOwner(address(0)) */\n  mload(0x40)\n  shl(0xe0, 0x1e4fbdf7)\n  dup2\n  mstore\n    /* \"@openzeppelin/contracts/access/Ownable.sol\":1350:1351  0 */\n  0x00\n    /* \"@openzeppelin/contracts/access/Ownable.sol\":1322:1353  OwnableInvalidOwner(address(0)) */\n  0x04\n  dup3\n  add\n    /* \"#utility.yul\":3324:3375   */\n  mstore\n    /* \"#utility.yul\":3297:3315   */\n  0x24\n  add\n    /* \"@openzeppelin/contracts/access/Ownable.sol\":1322:1353  OwnableInvalidOwner(address(0)) */\n  mload(0x40)\n  dup1\n  swap2\n  sub\n  swap1\n  revert\n    /* \"@openzeppelin/contracts/access/Ownable.sol\":1269:1364  if (initialOwner == address(0)) {... */\ntag_14:\n    /* \"@openzeppelin/contracts/access/Ownable.sol\":1373:1405  _transferOwnership(initialOwner) */\n  tag_17\n    /* \"@openzeppelin/contracts/access/Ownable.sol\":1392:1404  initialOwner */\n  dup2\n    /* \"@openzeppelin/contracts/access/Ownable.sol\":1373:1391  _transferOwnership */\n  tag_18\n    /* \"@openzeppelin/contracts/access/Ownable.sol\":1373:1405  _transferOwnership(initialOwner) */\n  jump\t// in\ntag_17:\n  pop\n    /* \"contracts/BananaNFT.sol\":1173:1185  mintInterval */\n  0x0d\n    /* \"contracts/BananaNFT.sol\":1173:1201  mintInterval = _mintInterval */\n  dup4\n  swap1\n  sstore\n    /* \"contracts/BananaNFT.sol\":1235:1270  block.timestamp + whitelistMintTime */\n  tag_20\n    /* \"contracts/BananaNFT.sol\":1253:1270  whitelistMintTime */\n  dup3\n    /* \"contracts/BananaNFT.sol\":1235:1250  block.timestamp */\n  timestamp\n    /* \"contracts/BananaNFT.sol\":1235:1270  block.timestamp + whitelistMintTime */\n  tag_21\n  jump\t// in\ntag_20:\n    /* \"contracts/BananaNFT.sol\":1212:1232  endWhitelistMintTime */\n  0x0e\n    /* \"contracts/BananaNFT.sol\":1212:1270  endWhitelistMintTime = block.timestamp + whitelistMintTime */\n  sstore\n    /* \"contracts/BananaNFT.sol\":1281:1296  marketingWallet */\n  0x11\n    /* \"contracts/BananaNFT.sol\":1281:1315  marketingWallet = _marketingWallet */\n  dup1\n  sload\n  not(sub(shl(0xa0, 0x01), 0x01))\n  and\n  sub(shl(0xa0, 0x01), 0x01)\n  swap3\n  swap1\n  swap3\n  and\n  swap2\n  swap1\n  swap2\n  or\n  swap1\n  sstore\n  pop\n    /* \"contracts/BananaNFT.sol\":466:3560  contract BananaNFT is ERC721Enumerable, ReentrancyGuard, Ownable {... */\n  tag_29\n  swap1\n  pop\n  jump\n    /* \"@openzeppelin/contracts/access/Ownable.sol\":2912:3099  function _transferOwnership(address newOwner) internal virtual {... */\ntag_18:\n    /* \"@openzeppelin/contracts/access/Ownable.sol\":3004:3010  _owner */\n  0x0b\n  dup1\n  sload\n  sub(shl(0xa0, 0x01), 0x01)\n    /* \"@openzeppelin/contracts/access/Ownable.sol\":3020:3037  _owner = newOwner */\n  dup4\n  dup2\n  and\n  not(sub(shl(0xa0, 0x01), 0x01))\n  dup4\n  and\n  dup2\n  or\n  swap1\n  swap4\n  sstore\n    /* \"@openzeppelin/contracts/access/Ownable.sol\":3052:3092  OwnershipTransferred(oldOwner, newOwner) */\n  mload(0x40)\n    /* \"@openzeppelin/contracts/access/Ownable.sol\":3004:3010  _owner */\n  swap2\n  and\n  swap2\n    /* \"@openzeppelin/contracts/access/Ownable.sol\":3020:3037  _owner = newOwner */\n  swap1\n    /* \"@openzeppelin/contracts/access/Ownable.sol\":3004:3010  _owner */\n  dup3\n  swap1\n    /* \"@openzeppelin/contracts/access/Ownable.sol\":3052:3092  OwnershipTransferred(oldOwner, newOwner) */\n  0x8be0079c531659141344cd1fd0a4f28419497f9722a3daafe3b4186f6b6457e0\n  swap1\n    /* \"@openzeppelin/contracts/access/Ownable.sol\":2985:3001  address oldOwner */\n  0x00\n  swap1\n    /* \"@openzeppelin/contracts/access/Ownable.sol\":3052:3092  OwnershipTransferred(oldOwner, newOwner) */\n  log3\n    /* \"@openzeppelin/contracts/access/Ownable.sol\":2975:3099  {... */\n  pop\n    /* \"@openzeppelin/contracts/access/Ownable.sol\":2912:3099  function _transferOwnership(address newOwner) internal virtual {... */\n  pop\n  jump\t// out\n    /* \"#utility.yul\":14:532   */\ntag_3:\n    /* \"#utility.yul\":102:108   */\n  0x00\n    /* \"#utility.yul\":110:116   */\n  dup1\n    /* \"#utility.yul\":118:124   */\n  0x00\n    /* \"#utility.yul\":171:173   */\n  0x60\n    /* \"#utility.yul\":159:168   */\n  dup5\n    /* \"#utility.yul\":150:157   */\n  dup7\n    /* \"#utility.yul\":146:169   */\n  sub\n    /* \"#utility.yul\":142:174   */\n  slt\n    /* \"#utility.yul\":139:191   */\n  iszero\n  tag_31\n  jumpi\n    /* \"#utility.yul\":187:188   */\n  0x00\n    /* \"#utility.yul\":184:185   */\n  dup1\n    /* \"#utility.yul\":177:189   */\n  revert\n    /* \"#utility.yul\":139:191   */\ntag_31:\n    /* \"#utility.yul\":232:248   */\n  dup4\n  mload\n    /* \"#utility.yul\":338:340   */\n  0x20\n    /* \"#utility.yul\":323:341   */\n  dup6\n  add\n    /* \"#utility.yul\":317:342   */\n  mload\n    /* \"#utility.yul\":413:415   */\n  0x40\n    /* \"#utility.yul\":398:416   */\n  dup7\n  add\n    /* \"#utility.yul\":392:417   */\n  mload\n    /* \"#utility.yul\":232:248   */\n  swap2\n  swap5\n  pop\n    /* \"#utility.yul\":317:342   */\n  swap3\n  pop\n  sub(shl(0xa0, 0x01), 0x01)\n    /* \"#utility.yul\":448:481   */\n  dup2\n  and\n    /* \"#utility.yul\":436:482   */\n  dup2\n  eq\n    /* \"#utility.yul\":426:500   */\n  tag_32\n  jumpi\n    /* \"#utility.yul\":496:497   */\n  0x00\n    /* \"#utility.yul\":493:494   */\n  dup1\n    /* \"#utility.yul\":486:498   */\n  revert\n    /* \"#utility.yul\":426:500   */\ntag_32:\n    /* \"#utility.yul\":519:526   */\n  dup1\n    /* \"#utility.yul\":509:526   */\n  swap2\n  pop\n  pop\n    /* \"#utility.yul\":14:532   */\n  swap3\n  pop\n  swap3\n  pop\n  swap3\n  jump\t// out\n    /* \"#utility.yul\":537:664   */\ntag_24:\n    /* \"#utility.yul\":598:608   */\n  0x4e487b71\n    /* \"#utility.yul\":593:596   */\n  0xe0\n    /* \"#utility.yul\":589:609   */\n  shl\n    /* \"#utility.yul\":586:587   */\n  0x00\n    /* \"#utility.yul\":579:610   */\n  mstore\n    /* \"#utility.yul\":629:633   */\n  0x41\n    /* \"#utility.yul\":626:627   */\n  0x04\n    /* \"#utility.yul\":619:634   */\n  mstore\n    /* \"#utility.yul\":653:657   */\n  0x24\n    /* \"#utility.yul\":650:651   */\n  0x00\n    /* \"#utility.yul\":643:658   */\n  revert\n    /* \"#utility.yul\":669:1049   */\ntag_25:\n    /* \"#utility.yul\":748:749   */\n  0x01\n    /* \"#utility.yul\":744:756   */\n  dup2\n  dup2\n  shr\n  swap1\n    /* \"#utility.yul\":791:803   */\n  dup3\n  and\n  dup1\n    /* \"#utility.yul\":812:873   */\n  tag_35\n  jumpi\n    /* \"#utility.yul\":866:870   */\n  0x7f\n    /* \"#utility.yul\":858:864   */\n  dup3\n    /* \"#utility.yul\":854:871   */\n  and\n    /* \"#utility.yul\":844:871   */\n  swap2\n  pop\n    /* \"#utility.yul\":812:873   */\ntag_35:\n    /* \"#utility.yul\":919:921   */\n  0x20\n    /* \"#utility.yul\":911:917   */\n  dup3\n    /* \"#utility.yul\":908:922   */\n  lt\n    /* \"#utility.yul\":888:906   */\n  dup2\n    /* \"#utility.yul\":885:923   */\n  sub\n    /* \"#utility.yul\":882:1043   */\n  tag_36\n  jumpi\n    /* \"#utility.yul\":965:975   */\n  0x4e487b71\n    /* \"#utility.yul\":960:963   */\n  0xe0\n    /* \"#utility.yul\":956:976   */\n  shl\n    /* \"#utility.yul\":953:954   */\n  0x00\n    /* \"#utility.yul\":946:977   */\n  mstore\n    /* \"#utility.yul\":1000:1004   */\n  0x22\n    /* \"#utility.yul\":997:998   */\n  0x04\n    /* \"#utility.yul\":990:1005   */\n  mstore\n    /* \"#utility.yul\":1028:1032   */\n  0x24\n    /* \"#utility.yul\":1025:1026   */\n  0x00\n    /* \"#utility.yul\":1018:1033   */\n  revert\n    /* \"#utility.yul\":882:1043   */\ntag_36:\n  pop\n    /* \"#utility.yul\":669:1049   */\n  swap2\n  swap1\n  pop\n  jump\t// out\n    /* \"#utility.yul\":1180:1698   */\ntag_27:\n    /* \"#utility.yul\":1282:1284   */\n  0x1f\n    /* \"#utility.yul\":1277:1280   */\n  dup3\n    /* \"#utility.yul\":1274:1285   */\n  gt\n    /* \"#utility.yul\":1271:1692   */\n  iszero\n  tag_39\n  jumpi\n    /* \"#utility.yul\":1318:1323   */\n  dup1\n    /* \"#utility.yul\":1315:1316   */\n  0x00\n    /* \"#utility.yul\":1308:1324   */\n  mstore\n    /* \"#utility.yul\":1362:1366   */\n  0x20\n    /* \"#utility.yul\":1359:1360   */\n  0x00\n    /* \"#utility.yul\":1349:1367   */\n  keccak256\n    /* \"#utility.yul\":1432:1434   */\n  0x1f\n    /* \"#utility.yul\":1420:1430   */\n  dup5\n    /* \"#utility.yul\":1416:1435   */\n  add\n    /* \"#utility.yul\":1413:1414   */\n  0x05\n    /* \"#utility.yul\":1409:1436   */\n  shr\n    /* \"#utility.yul\":1403:1407   */\n  dup2\n    /* \"#utility.yul\":1399:1437   */\n  add\n    /* \"#utility.yul\":1468:1472   */\n  0x20\n    /* \"#utility.yul\":1456:1466   */\n  dup6\n    /* \"#utility.yul\":1453:1473   */\n  lt\n    /* \"#utility.yul\":1450:1497   */\n  iszero\n  tag_40\n  jumpi\n  pop\n    /* \"#utility.yul\":1491:1495   */\n  dup1\n    /* \"#utility.yul\":1450:1497   */\ntag_40:\n    /* \"#utility.yul\":1546:1548   */\n  0x1f\n    /* \"#utility.yul\":1541:1544   */\n  dup5\n    /* \"#utility.yul\":1537:1549   */\n  add\n    /* \"#utility.yul\":1534:1535   */\n  0x05\n    /* \"#utility.yul\":1530:1550   */\n  shr\n    /* \"#utility.yul\":1524:1528   */\n  dup3\n    /* \"#utility.yul\":1520:1551   */\n  add\n    /* \"#utility.yul\":1510:1551   */\n  swap2\n  pop\n    /* \"#utility.yul\":1601:1682   */\ntag_41:\n    /* \"#utility.yul\":1619:1621   */\n  dup2\n    /* \"#utility.yul\":1612:1617   */\n  dup2\n    /* \"#utility.yul\":1609:1622   */\n  lt\n    /* \"#utility.yul\":1601:1682   */\n  iszero\n  tag_43\n  jumpi\n    /* \"#utility.yul\":1678:1679   */\n  0x00\n    /* \"#utility.yul\":1664:1680   */\n  dup2\n  sstore\n    /* \"#utility.yul\":1645:1646   */\n  0x01\n    /* \"#utility.yul\":1634:1647   */\n  add\n    /* \"#utility.yul\":1601:1682   */\n  jump(tag_41)\ntag_43:\n    /* \"#utility.yul\":1605:1608   */\n  pop\n  pop\n    /* \"#utility.yul\":1271:1692   */\ntag_39:\n    /* \"#utility.yul\":1180:1698   */\n  pop\n  pop\n  pop\n  jump\t// out\n    /* \"#utility.yul\":1874:3173   */\ntag_10:\n    /* \"#utility.yul\":1994:2004   */\n  dup2\n  mload\n  sub(shl(0x40, 0x01), 0x01)\n    /* \"#utility.yul\":2016:2046   */\n  dup2\n  gt\n    /* \"#utility.yul\":2013:2069   */\n  iszero\n  tag_47\n  jumpi\n    /* \"#utility.yul\":2049:2067   */\n  tag_47\n  tag_24\n  jump\t// in\ntag_47:\n    /* \"#utility.yul\":2078:2175   */\n  tag_48\n    /* \"#utility.yul\":2168:2174   */\n  dup2\n    /* \"#utility.yul\":2128:2166   */\n  tag_49\n    /* \"#utility.yul\":2160:2164   */\n  dup5\n    /* \"#utility.yul\":2154:2165   */\n  sload\n    /* \"#utility.yul\":2128:2166   */\n  tag_25\n  jump\t// in\ntag_49:\n    /* \"#utility.yul\":2122:2126   */\n  dup5\n    /* \"#utility.yul\":2078:2175   */\n  tag_27\n  jump\t// in\ntag_48:\n    /* \"#utility.yul\":2224:2228   */\n  0x20\n    /* \"#utility.yul\":2255:2257   */\n  0x1f\n    /* \"#utility.yul\":2244:2258   */\n  dup3\n  gt\n    /* \"#utility.yul\":2272:2273   */\n  0x01\n    /* \"#utility.yul\":2267:2916   */\n  dup2\n  eq\n  tag_51\n  jumpi\n    /* \"#utility.yul\":2960:2961   */\n  0x00\n    /* \"#utility.yul\":2977:2983   */\n  dup4\n    /* \"#utility.yul\":2974:3063   */\n  iszero\n  tag_52\n  jumpi\n  pop\n    /* \"#utility.yul\":3029:3048   */\n  dup5\n  dup3\n  add\n    /* \"#utility.yul\":3023:3049   */\n  mload\n    /* \"#utility.yul\":2974:3063   */\ntag_52:\n  not(0x00)\n    /* \"#utility.yul\":1831:1832   */\n  0x03\n    /* \"#utility.yul\":1827:1838   */\n  dup6\n  swap1\n  shl\n    /* \"#utility.yul\":1823:1847   */\n  shr\n    /* \"#utility.yul\":1819:1848   */\n  not\n    /* \"#utility.yul\":1809:1849   */\n  and\n    /* \"#utility.yul\":1855:1856   */\n  0x01\n    /* \"#utility.yul\":1851:1862   */\n  dup5\n  swap1\n  shl\n    /* \"#utility.yul\":1806:1863   */\n  or\n    /* \"#utility.yul\":3076:3157   */\n  dup5\n  sstore\n    /* \"#utility.yul\":2237:3167   */\n  jump(tag_43)\n    /* \"#utility.yul\":2267:2916   */\ntag_51:\n    /* \"#utility.yul\":1127:1128   */\n  0x00\n    /* \"#utility.yul\":1120:1134   */\n  dup5\n  dup2\n  mstore\n    /* \"#utility.yul\":1164:1168   */\n  0x20\n    /* \"#utility.yul\":1151:1169   */\n  dup2\n  keccak256\n  not(0x1f)\n    /* \"#utility.yul\":2303:2323   */\n  dup6\n  and\n  swap2\n    /* \"#utility.yul\":2421:2643   */\ntag_55:\n    /* \"#utility.yul\":2435:2442   */\n  dup3\n    /* \"#utility.yul\":2432:2433   */\n  dup2\n    /* \"#utility.yul\":2429:2443   */\n  lt\n    /* \"#utility.yul\":2421:2643   */\n  iszero\n  tag_57\n  jumpi\n    /* \"#utility.yul\":2517:2536   */\n  dup8\n  dup6\n  add\n    /* \"#utility.yul\":2511:2537   */\n  mload\n    /* \"#utility.yul\":2496:2538   */\n  dup3\n  sstore\n    /* \"#utility.yul\":2624:2628   */\n  0x20\n    /* \"#utility.yul\":2609:2629   */\n  swap5\n  dup6\n  add\n  swap5\n    /* \"#utility.yul\":2577:2578   */\n  0x01\n    /* \"#utility.yul\":2565:2579   */\n  swap1\n  swap3\n  add\n  swap2\n    /* \"#utility.yul\":2451:2463   */\n  add\n    /* \"#utility.yul\":2421:2643   */\n  jump(tag_55)\ntag_57:\n    /* \"#utility.yul\":2425:2428   */\n  pop\n    /* \"#utility.yul\":2671:2677   */\n  dup5\n    /* \"#utility.yul\":2662:2669   */\n  dup3\n    /* \"#utility.yul\":2659:2678   */\n  lt\n    /* \"#utility.yul\":2656:2857   */\n  iszero\n  tag_58\n  jumpi\n    /* \"#utility.yul\":2732:2751   */\n  dup7\n  dup5\n  add\n    /* \"#utility.yul\":2726:2752   */\n  mload\n  not(0x00)\n    /* \"#utility.yul\":2815:2816   */\n  0x03\n    /* \"#utility.yul\":2811:2825   */\n  dup8\n  swap1\n  shl\n    /* \"#utility.yul\":2827:2830   */\n  0xf8\n    /* \"#utility.yul\":2807:2831   */\n  and\n    /* \"#utility.yul\":2803:2840   */\n  shr\n    /* \"#utility.yul\":2799:2841   */\n  not\n    /* \"#utility.yul\":2784:2842   */\n  and\n    /* \"#utility.yul\":2769:2843   */\n  dup2\n  sstore\n    /* \"#utility.yul\":2656:2857   */\ntag_58:\n  pop\n  pop\n  pop\n  pop\n    /* \"#utility.yul\":2903:2904   */\n  0x01\n    /* \"#utility.yul\":2887:2901   */\n  swap1\n  dup2\n  shl\n    /* \"#utility.yul\":2883:2905   */\n  add\n    /* \"#utility.yul\":2870:2906   */\n  swap1\n  sstore\n  pop\n    /* \"#utility.yul\":1874:3173   */\n  jump\t// out\n    /* \"#utility.yul\":3386:3608   */\ntag_21:\n    /* \"#utility.yul\":3451:3460   */\n  dup1\n  dup3\n  add\n    /* \"#utility.yul\":3472:3482   */\n  dup1\n  dup3\n  gt\n    /* \"#utility.yul\":3469:3602   */\n  iszero\n  tag_61\n  jumpi\n    /* \"#utility.yul\":3524:3534   */\n  0x4e487b71\n    /* \"#utility.yul\":3519:3522   */\n  0xe0\n    /* \"#utility.yul\":3515:3535   */\n  shl\n    /* \"#utility.yul\":3512:3513   */\n  0x00\n    /* \"#utility.yul\":3505:3536   */\n  mstore\n    /* \"#utility.yul\":3559:3563   */\n  0x11\n    /* \"#utility.yul\":3556:3557   */\n  0x04\n    /* \"#utility.yul\":3549:3564   */\n  mstore\n    /* \"#utility.yul\":3587:3591   */\n  0x24\n    /* \"#utility.yul\":3584:3585   */\n  0x00\n    /* \"#utility.yul\":3577:3592   */\n  revert\n    /* \"#utility.yul\":3469:3602   */\ntag_61:\n    /* \"#utility.yul\":3386:3608   */\n  swap3\n  swap2\n  pop\n  pop\n  jump\t// out\ntag_29:\n    /* \"contracts/BananaNFT.sol\":466:3560  contract BananaNFT is ERC721Enumerable, ReentrancyGuard, Ownable {... */\n  dataSize(sub_0)\n  dup1\n  dataOffset(sub_0)\n  0x00\n  codecopy\n  0x00\n  return\nstop\n\nsub_0: assembly {\n        /* \"contracts/BananaNFT.sol\":466:3560  contract BananaNFT is ERC721Enumerable, ReentrancyGuard, Ownable {... */\n      mstore(0x40, 0x80)\n      jumpi(tag_1, lt(calldatasize, 0x04))\n      shr(0xe0, calldataload(0x00))\n      dup1\n      0x6aa71d18\n      gt\n      tag_36\n      jumpi\n      dup1\n      0xb88d4fde\n      gt\n      tag_37\n      jumpi\n      dup1\n      0xde8b51e1\n      gt\n      tag_38\n      jumpi\n      dup1\n      0xde8b51e1\n      eq\n      tag_31\n      jumpi\n      dup1\n      0xe43252d7\n      eq\n      tag_32\n      jumpi\n      dup1\n      0xe985e9c5\n      eq\n      tag_33\n      jumpi\n      dup1\n      0xf2fde38b\n      eq\n      tag_34\n      jumpi\n      dup1\n      0xf4a0a528\n      eq\n      tag_35\n      jumpi\n      0x00\n      dup1\n      revert\n    tag_38:\n      dup1\n      0xb88d4fde\n      eq\n      tag_27\n      jumpi\n      dup1\n      0xc87b56dd\n      eq\n      tag_28\n      jumpi\n      dup1\n      0xcada2a18\n      eq\n      tag_29\n      jumpi\n      dup1\n      0xd85d3d27\n      eq\n      tag_30\n      jumpi\n      0x00\n      dup1\n      revert\n    tag_37:\n      dup1\n      0x8da5cb5b\n      gt\n      tag_39\n      jumpi\n      dup1\n      0x8da5cb5b\n      eq\n      tag_23\n      jumpi\n      dup1\n      0x95d89b41\n      eq\n      tag_24\n      jumpi\n      dup1\n      0x9b19251a\n      eq\n      tag_25\n      jumpi\n      dup1\n      0xa22cb465\n      eq\n      tag_26\n      jumpi\n      0x00\n      dup1\n      revert\n    tag_39:\n      dup1\n      0x6aa71d18\n      eq\n      tag_19\n      jumpi\n      dup1\n      0x7080d6fc\n      eq\n      tag_20\n      jumpi\n      dup1\n      0x70a08231\n      eq\n      tag_21\n      jumpi\n      dup1\n      0x715018a6\n      eq\n      tag_22\n      jumpi\n      0x00\n      dup1\n      revert\n    tag_36:\n      dup1\n      0x232e623e\n      gt\n      tag_40\n      jumpi\n      dup1\n      0x42842e0e\n      gt\n      tag_41\n      jumpi\n      dup1\n      0x42842e0e\n      eq\n      tag_14\n      jumpi\n      dup1\n      0x4f6ccce7\n      eq\n      tag_15\n      jumpi\n      dup1\n      0x537efe31\n      eq\n      tag_16\n      jumpi\n      dup1\n      0x6352211e\n      eq\n      tag_17\n      jumpi\n      dup1\n      0x6817c76c\n      eq\n      tag_18\n      jumpi\n      0x00\n      dup1\n      revert\n    tag_41:\n      dup1\n      0x232e623e\n      eq\n      tag_10\n      jumpi\n      dup1\n      0x23b872dd\n      eq\n      tag_11\n      jumpi\n      dup1\n      0x2f745c59\n      eq\n      tag_12\n      jumpi\n      dup1\n      0x3ccfd60b\n      eq\n      tag_13\n      jumpi\n      0x00\n      dup1\n      revert\n    tag_40:\n      dup1\n      0x095ea7b3\n      gt\n      tag_42\n      jumpi\n      dup1\n      0x095ea7b3\n      eq\n      tag_6\n      jumpi\n      dup1\n      0x0bb78ec1\n      eq\n      tag_7\n      jumpi\n      dup1\n      0x0e726e6b\n      eq\n      tag_8\n      jumpi\n      dup1\n      0x18160ddd\n      eq\n      tag_9\n      jumpi\n      0x00\n      dup1\n      revert\n    tag_42:\n      dup1\n      0x9a9b7b\n      eq\n      tag_2\n      jumpi\n      dup1\n      0x01ffc9a7\n      eq\n      tag_3\n      jumpi\n      dup1\n      0x06fdde03\n      eq\n      tag_4\n      jumpi\n      dup1\n      0x081812fc\n      eq\n      tag_5\n      jumpi\n    tag_1:\n      0x00\n      dup1\n      revert\n        /* \"contracts/BananaNFT.sol\":3329:3426  function currentTokenId() public view returns (uint256) {... */\n    tag_2:\n      callvalue\n      dup1\n      iszero\n      tag_43\n      jumpi\n      0x00\n      dup1\n      revert\n    tag_43:\n      pop\n        /* \"contracts/BananaNFT.sol\":3403:3418  _tokenIdCounter */\n      sload(0x10)\n        /* \"contracts/BananaNFT.sol\":3329:3426  function currentTokenId() public view returns (uint256) {... */\n    tag_44:\n      mload(0x40)\n        /* \"#utility.yul\":160:185   */\n      swap1\n      dup2\n      mstore\n        /* \"#utility.yul\":148:150   */\n      0x20\n        /* \"#utility.yul\":133:151   */\n      add\n        /* \"contracts/BananaNFT.sol\":3329:3426  function currentTokenId() public view returns (uint256) {... */\n    tag_46:\n      mload(0x40)\n      dup1\n      swap2\n      sub\n      swap1\n      return\n        /* \"@openzeppelin/contracts/token/ERC721/extensions/ERC721Enumerable.sol\":1435:1657  function supportsInterface(bytes4 interfaceId) public view virtual override(IERC165, ERC721) returns (bool) {... */\n    tag_3:\n      callvalue\n      dup1\n      iszero\n      tag_48\n      jumpi\n      0x00\n      dup1\n      revert\n    tag_48:\n      pop\n      tag_49\n      tag_50\n      calldatasize\n      0x04\n      tag_51\n      jump\t// in\n    tag_50:\n      tag_52\n      jump\t// in\n    tag_49:\n      mload(0x40)\n        /* \"#utility.yul\":747:761   */\n      swap1\n      iszero\n        /* \"#utility.yul\":740:762   */\n      iszero\n        /* \"#utility.yul\":722:763   */\n      dup2\n      mstore\n        /* \"#utility.yul\":710:712   */\n      0x20\n        /* \"#utility.yul\":695:713   */\n      add\n        /* \"@openzeppelin/contracts/token/ERC721/extensions/ERC721Enumerable.sol\":1435:1657  function supportsInterface(bytes4 interfaceId) public view virtual override(IERC165, ERC721) returns (bool) {... */\n      tag_46\n        /* \"#utility.yul\":582:769   */\n      jump\n        /* \"@openzeppelin/contracts/token/ERC721/ERC721.sol\":2365:2454  function name() public view virtual returns (string memory) {... */\n    tag_4:\n      callvalue\n      dup1\n      iszero\n      tag_55\n      jumpi\n      0x00\n      dup1\n      revert\n    tag_55:\n      pop\n      tag_56\n      tag_57\n      jump\t// in\n    tag_56:\n      mload(0x40)\n      tag_46\n      swap2\n      swap1\n      tag_59\n      jump\t// in\n        /* \"@openzeppelin/contracts/token/ERC721/ERC721.sol\":3497:3651  function getApproved(uint256 tokenId) public view virtual returns (address) {... */\n    tag_5:\n      callvalue\n      dup1\n      iszero\n      tag_60\n      jumpi\n      0x00\n      dup1\n      revert\n    tag_60:\n      pop\n      tag_61\n      tag_62\n      calldatasize\n      0x04\n      tag_63\n      jump\t// in\n    tag_62:\n      tag_64\n      jump\t// in\n    tag_61:\n      mload(0x40)\n      sub(shl(0xa0, 0x01), 0x01)\n        /* \"#utility.yul\":1799:1831   */\n      swap1\n      swap2\n      and\n        /* \"#utility.yul\":1781:1832   */\n      dup2\n      mstore\n        /* \"#utility.yul\":1769:1771   */\n      0x20\n        /* \"#utility.yul\":1754:1772   */\n      add\n        /* \"@openzeppelin/contracts/token/ERC721/ERC721.sol\":3497:3651  function getApproved(uint256 tokenId) public view virtual returns (address) {... */\n      tag_46\n        /* \"#utility.yul\":1635:1838   */\n      jump\n        /* \"@openzeppelin/contracts/token/ERC721/ERC721.sol\":3323:3436  function approve(address to, uint256 tokenId) public virtual {... */\n    tag_6:\n      callvalue\n      dup1\n      iszero\n      tag_67\n      jumpi\n      0x00\n      dup1\n      revert\n    tag_67:\n      pop\n      tag_68\n      tag_69\n      calldatasize\n      0x04\n      tag_70\n      jump\t// in\n    tag_69:\n      tag_71\n      jump\t// in\n    tag_68:\n      stop\n        /* \"contracts/BananaNFT.sol\":769:821  mapping(uint256 tokenId => string) public _tokenURIs */\n    tag_7:\n      callvalue\n      dup1\n      iszero\n      tag_72\n      jumpi\n      0x00\n      dup1\n      revert\n    tag_72:\n      pop\n      tag_56\n      tag_74\n      calldatasize\n      0x04\n      tag_63\n      jump\t// in\n    tag_74:\n      tag_75\n      jump\t// in\n        /* \"contracts/BananaNFT.sol\":583:610  uint256 public mintInterval */\n    tag_8:\n      callvalue\n      dup1\n      iszero\n      tag_77\n      jumpi\n      0x00\n      dup1\n      revert\n    tag_77:\n      pop\n      tag_44\n      sload(0x0d)\n      dup2\n      jump\n        /* \"@openzeppelin/contracts/token/ERC721/extensions/ERC721Enumerable.sol\":2062:2164  function totalSupply() public view virtual returns (uint256) {... */\n    tag_9:\n      callvalue\n      dup1\n      iszero\n      tag_81\n      jumpi\n      0x00\n      dup1\n      revert\n    tag_81:\n      pop\n        /* \"@openzeppelin/contracts/token/ERC721/extensions/ERC721Enumerable.sol\":2140:2150  _allTokens */\n      0x08\n        /* \"@openzeppelin/contracts/token/ERC721/extensions/ERC721Enumerable.sol\":2140:2157  _allTokens.length */\n      sload\n        /* \"@openzeppelin/contracts/token/ERC721/extensions/ERC721Enumerable.sol\":2062:2164  function totalSupply() public view virtual returns (uint256) {... */\n      jump(tag_44)\n        /* \"contracts/BananaNFT.sol\":617:652  uint256 public endWhitelistMintTime */\n    tag_10:\n      callvalue\n      dup1\n      iszero\n      tag_85\n      jumpi\n      0x00\n      dup1\n      revert\n    tag_85:\n      pop\n      tag_44\n      sload(0x0e)\n      dup2\n      jump\n        /* \"@openzeppelin/contracts/token/ERC721/ERC721.sol\":4143:4721  function transferFrom(address from, address to, uint256 tokenId) public virtual {... */\n    tag_11:\n      callvalue\n      dup1\n      iszero\n      tag_89\n      jumpi\n      0x00\n      dup1\n      revert\n    tag_89:\n      pop\n      tag_68\n      tag_91\n      calldatasize\n      0x04\n      tag_92\n      jump\t// in\n    tag_91:\n      tag_93\n      jump\t// in\n        /* \"@openzeppelin/contracts/token/ERC721/extensions/ERC721Enumerable.sol\":1736:1991  function tokenOfOwnerByIndex(address owner, uint256 index) public view virtual returns (uint256) {... */\n    tag_12:\n      callvalue\n      dup1\n      iszero\n      tag_94\n      jumpi\n      0x00\n      dup1\n      revert\n    tag_94:\n      pop\n      tag_44\n      tag_96\n      calldatasize\n      0x04\n      tag_70\n      jump\t// in\n    tag_96:\n      tag_97\n      jump\t// in\n        /* \"contracts/BananaNFT.sol\":3207:3321  function withdraw() external onlyOwner {... */\n    tag_13:\n      callvalue\n      dup1\n      iszero\n      tag_99\n      jumpi\n      0x00\n      dup1\n      revert\n    tag_99:\n      pop\n      tag_68\n      tag_101\n      jump\t// in\n        /* \"@openzeppelin/contracts/token/ERC721/ERC721.sol\":4787:4919  function safeTransferFrom(address from, address to, uint256 tokenId) public {... */\n    tag_14:\n      callvalue\n      dup1\n      iszero\n      tag_102\n      jumpi\n      0x00\n      dup1\n      revert\n    tag_102:\n      pop\n      tag_68\n      tag_104\n      calldatasize\n      0x04\n      tag_92\n      jump\t// in\n    tag_104:\n      tag_105\n      jump\t// in\n        /* \"@openzeppelin/contracts/token/ERC721/extensions/ERC721Enumerable.sol\":2236:2462  function tokenByIndex(uint256 index) public view virtual returns (uint256) {... */\n    tag_15:\n      callvalue\n      dup1\n      iszero\n      tag_106\n      jumpi\n      0x00\n      dup1\n      revert\n    tag_106:\n      pop\n      tag_44\n      tag_108\n      calldatasize\n      0x04\n      tag_63\n      jump\t// in\n    tag_108:\n      tag_109\n      jump\t// in\n        /* \"contracts/BananaNFT.sol\":1559:2159  function payToMint(string memory uri) external payable nonReentrant {... */\n    tag_16:\n      tag_68\n      tag_112\n      calldatasize\n      0x04\n      tag_113\n      jump\t// in\n    tag_112:\n      tag_114\n      jump\t// in\n        /* \"@openzeppelin/contracts/token/ERC721/ERC721.sol\":2185:2303  function ownerOf(uint256 tokenId) public view virtual returns (address) {... */\n    tag_17:\n      callvalue\n      dup1\n      iszero\n      tag_115\n      jumpi\n      0x00\n      dup1\n      revert\n    tag_115:\n      pop\n      tag_61\n      tag_117\n      calldatasize\n      0x04\n      tag_63\n      jump\t// in\n    tag_117:\n      tag_118\n      jump\t// in\n        /* \"contracts/BananaNFT.sol\":538:576  uint256 public mintPrice = 0.005 ether */\n    tag_18:\n      callvalue\n      dup1\n      iszero\n      tag_120\n      jumpi\n      0x00\n      dup1\n      revert\n    tag_120:\n      pop\n      tag_44\n      sload(0x0c)\n      dup2\n      jump\n        /* \"contracts/BananaNFT.sol\":876:923  mapping(address => uint256) public lastMintTime */\n    tag_19:\n      callvalue\n      dup1\n      iszero\n      tag_124\n      jumpi\n      0x00\n      dup1\n      revert\n    tag_124:\n      pop\n      tag_44\n      tag_126\n      calldatasize\n      0x04\n      tag_127\n      jump\t// in\n    tag_126:\n      mstore(0x20, 0x14)\n      0x00\n      swap1\n      dup2\n      mstore\n      0x40\n      swap1\n      keccak256\n      sload\n      dup2\n      jump\n        /* \"contracts/BananaNFT.sol\":659:684  bool public _isSaleActive */\n    tag_20:\n      callvalue\n      dup1\n      iszero\n      tag_130\n      jumpi\n      0x00\n      dup1\n      revert\n    tag_130:\n      pop\n      sload(0x0f)\n      tag_49\n      swap1\n      0xff\n      and\n      dup2\n      jump\n        /* \"@openzeppelin/contracts/token/ERC721/ERC721.sol\":1920:2128  function balanceOf(address owner) public view virtual returns (uint256) {... */\n    tag_21:\n      callvalue\n      dup1\n      iszero\n      tag_134\n      jumpi\n      0x00\n      dup1\n      revert\n    tag_134:\n      pop\n      tag_44\n      tag_136\n      calldatasize\n      0x04\n      tag_127\n      jump\t// in\n    tag_136:\n      tag_137\n      jump\t// in\n        /* \"@openzeppelin/contracts/access/Ownable.sol\":2293:2394  function renounceOwnership() public virtual onlyOwner {... */\n    tag_22:\n      callvalue\n      dup1\n      iszero\n      tag_139\n      jumpi\n      0x00\n      dup1\n      revert\n    tag_139:\n      pop\n      tag_68\n      tag_141\n      jump\t// in\n        /* \"@openzeppelin/contracts/access/Ownable.sol\":1638:1723  function owner() public view virtual returns (address) {... */\n    tag_23:\n      callvalue\n      dup1\n      iszero\n      tag_142\n      jumpi\n      0x00\n      dup1\n      revert\n    tag_142:\n      pop\n        /* \"@openzeppelin/contracts/access/Ownable.sol\":1710:1716  _owner */\n      and(sub(shl(0xa0, 0x01), 0x01), sload(0x0b))\n        /* \"@openzeppelin/contracts/access/Ownable.sol\":1638:1723  function owner() public view virtual returns (address) {... */\n      jump(tag_61)\n        /* \"@openzeppelin/contracts/token/ERC721/ERC721.sol\":2518:2611  function symbol() public view virtual returns (string memory) {... */\n    tag_24:\n      callvalue\n      dup1\n      iszero\n      tag_146\n      jumpi\n      0x00\n      dup1\n      revert\n    tag_146:\n      pop\n      tag_56\n      tag_148\n      jump\t// in\n        /* \"contracts/BananaNFT.sol\":828:869  mapping(address => bool) public whitelist */\n    tag_25:\n      callvalue\n      dup1\n      iszero\n      tag_150\n      jumpi\n      0x00\n      dup1\n      revert\n    tag_150:\n      pop\n      tag_49\n      tag_152\n      calldatasize\n      0x04\n      tag_127\n      jump\t// in\n    tag_152:\n      mstore(0x20, 0x13)\n      0x00\n      swap1\n      dup2\n      mstore\n      0x40\n      swap1\n      keccak256\n      sload\n      0xff\n      and\n      dup2\n      jump\n        /* \"@openzeppelin/contracts/token/ERC721/ERC721.sol\":3718:3862  function setApprovalForAll(address operator, bool approved) public virtual {... */\n    tag_26:\n      callvalue\n      dup1\n      iszero\n      tag_155\n      jumpi\n      0x00\n      dup1\n      revert\n    tag_155:\n      pop\n      tag_68\n      tag_157\n      calldatasize\n      0x04\n      tag_158\n      jump\t// in\n    tag_157:\n      tag_159\n      jump\t// in\n        /* \"@openzeppelin/contracts/token/ERC721/ERC721.sol\":4985:5193  function safeTransferFrom(address from, address to, uint256 tokenId, bytes memory data) public virtual {... */\n    tag_27:\n      callvalue\n      dup1\n      iszero\n      tag_160\n      jumpi\n      0x00\n      dup1\n      revert\n    tag_160:\n      pop\n      tag_68\n      tag_162\n      calldatasize\n      0x04\n      tag_163\n      jump\t// in\n    tag_162:\n      tag_164\n      jump\t// in\n        /* \"contracts/BananaNFT.sol\":1331:1551  function tokenURI(... */\n    tag_28:\n      callvalue\n      dup1\n      iszero\n      tag_165\n      jumpi\n      0x00\n      dup1\n      revert\n    tag_165:\n      pop\n      tag_56\n      tag_167\n      calldatasize\n      0x04\n      tag_63\n      jump\t// in\n    tag_167:\n      tag_168\n      jump\t// in\n        /* \"contracts/BananaNFT.sol\":2873:2987  function setMintInterval(uint256 _mintInterval) external onlyOwner {... */\n    tag_29:\n      callvalue\n      dup1\n      iszero\n      tag_170\n      jumpi\n      0x00\n      dup1\n      revert\n    tag_170:\n      pop\n      tag_68\n      tag_172\n      calldatasize\n      0x04\n      tag_63\n      jump\t// in\n    tag_172:\n      tag_173\n      jump\t// in\n        /* \"contracts/BananaNFT.sol\":2167:2759  function mint(string memory uri) external nonReentrant {... */\n    tag_30:\n      callvalue\n      dup1\n      iszero\n      tag_174\n      jumpi\n      0x00\n      dup1\n      revert\n    tag_174:\n      pop\n      tag_68\n      tag_176\n      calldatasize\n      0x04\n      tag_113\n      jump\t// in\n    tag_176:\n      tag_177\n      jump\t// in\n        /* \"contracts/BananaNFT.sol\":2995:3089  function flipSaleActive() external onlyOwner {... */\n    tag_31:\n      callvalue\n      dup1\n      iszero\n      tag_178\n      jumpi\n      0x00\n      dup1\n      revert\n    tag_178:\n      pop\n      tag_68\n      tag_180\n      jump\t// in\n        /* \"contracts/BananaNFT.sol\":2767:2865  function addToWhitelist(address user) external onlyOwner {... */\n    tag_32:\n      callvalue\n      dup1\n      iszero\n      tag_181\n      jumpi\n      0x00\n      dup1\n      revert\n    tag_181:\n      pop\n      tag_68\n      tag_183\n      calldatasize\n      0x04\n      tag_127\n      jump\t// in\n    tag_183:\n      tag_184\n      jump\t// in\n        /* \"@openzeppelin/contracts/token/ERC721/ERC721.sol\":3928:4081  function isApprovedForAll(address owner, address operator) public view virtual returns (bool) {... */\n    tag_33:\n      callvalue\n      dup1\n      iszero\n      tag_185\n      jumpi\n      0x00\n      dup1\n      revert\n    tag_185:\n      pop\n      tag_49\n      tag_187\n      calldatasize\n      0x04\n      tag_188\n      jump\t// in\n    tag_187:\n      tag_189\n      jump\t// in\n        /* \"@openzeppelin/contracts/access/Ownable.sol\":2543:2758  function transferOwnership(address newOwner) public virtual onlyOwner {... */\n    tag_34:\n      callvalue\n      dup1\n      iszero\n      tag_191\n      jumpi\n      0x00\n      dup1\n      revert\n    tag_191:\n      pop\n      tag_68\n      tag_193\n      calldatasize\n      0x04\n      tag_127\n      jump\t// in\n    tag_193:\n      tag_194\n      jump\t// in\n        /* \"contracts/BananaNFT.sol\":3097:3199  function setMintPrice(uint256 _mintPrice) external onlyOwner {... */\n    tag_35:\n      callvalue\n      dup1\n      iszero\n      tag_195\n      jumpi\n      0x00\n      dup1\n      revert\n    tag_195:\n      pop\n      tag_68\n      tag_197\n      calldatasize\n      0x04\n      tag_63\n      jump\t// in\n    tag_197:\n      tag_198\n      jump\t// in\n        /* \"@openzeppelin/contracts/token/ERC721/extensions/ERC721Enumerable.sol\":1435:1657  function supportsInterface(bytes4 interfaceId) public view virtual override(IERC165, ERC721) returns (bool) {... */\n    tag_52:\n        /* \"@openzeppelin/contracts/token/ERC721/extensions/ERC721Enumerable.sol\":1537:1541  bool */\n      0x00\n      not(sub(shl(0xe0, 0x01), 0x01))\n        /* \"@openzeppelin/contracts/token/ERC721/extensions/ERC721Enumerable.sol\":1560:1610  interfaceId == type(IERC721Enumerable).interfaceId */\n      dup3\n      and\n      shl(0xe0, 0x780e9d63)\n      eq\n      dup1\n        /* \"@openzeppelin/contracts/token/ERC721/extensions/ERC721Enumerable.sol\":1560:1650  interfaceId == type(IERC721Enumerable).interfaceId || super.supportsInterface(interfaceId) */\n      tag_202\n      jumpi\n      pop\n        /* \"@openzeppelin/contracts/token/ERC721/extensions/ERC721Enumerable.sol\":1614:1650  super.supportsInterface(interfaceId) */\n      tag_202\n        /* \"@openzeppelin/contracts/token/ERC721/extensions/ERC721Enumerable.sol\":1638:1649  interfaceId */\n      dup3\n        /* \"@openzeppelin/contracts/token/ERC721/extensions/ERC721Enumerable.sol\":1614:1637  super.supportsInterface */\n      tag_203\n        /* \"@openzeppelin/contracts/token/ERC721/extensions/ERC721Enumerable.sol\":1614:1650  super.supportsInterface(interfaceId) */\n      jump\t// in\n    tag_202:\n        /* \"@openzeppelin/contracts/token/ERC721/extensions/ERC721Enumerable.sol\":1553:1650  return interfaceId == type(IERC721Enumerable).interfaceId || super.supportsInterface(interfaceId) */\n      swap3\n        /* \"@openzeppelin/contracts/token/ERC721/extensions/ERC721Enumerable.sol\":1435:1657  function supportsInterface(bytes4 interfaceId) public view virtual override(IERC165, ERC721) returns (bool) {... */\n      swap2\n      pop\n      pop\n      jump\t// out\n        /* \"@openzeppelin/contracts/token/ERC721/ERC721.sol\":2365:2454  function name() public view virtual returns (string memory) {... */\n    tag_57:\n        /* \"@openzeppelin/contracts/token/ERC721/ERC721.sol\":2410:2423  string memory */\n      0x60\n        /* \"@openzeppelin/contracts/token/ERC721/ERC721.sol\":2442:2447  _name */\n      0x00\n        /* \"@openzeppelin/contracts/token/ERC721/ERC721.sol\":2435:2447  return _name */\n      dup1\n      sload\n      tag_205\n      swap1\n      tag_206\n      jump\t// in\n    tag_205:\n      dup1\n      0x1f\n      add\n      0x20\n      dup1\n      swap2\n      div\n      mul\n      0x20\n      add\n      mload(0x40)\n      swap1\n      dup2\n      add\n      0x40\n      mstore\n      dup1\n      swap3\n      swap2\n      swap1\n      dup2\n      dup2\n      mstore\n      0x20\n      add\n      dup3\n      dup1\n      sload\n      tag_207\n      swap1\n      tag_206\n      jump\t// in\n    tag_207:\n      dup1\n      iszero\n      tag_208\n      jumpi\n      dup1\n      0x1f\n      lt\n      tag_209\n      jumpi\n      0x0100\n      dup1\n      dup4\n      sload\n      div\n      mul\n      dup4\n      mstore\n      swap2\n      0x20\n      add\n      swap2\n      jump(tag_208)\n    tag_209:\n      dup3\n      add\n      swap2\n      swap1\n      0x00\n      mstore\n      keccak256(0x00, 0x20)\n      swap1\n    tag_210:\n      dup2\n      sload\n      dup2\n      mstore\n      swap1\n      0x01\n      add\n      swap1\n      0x20\n      add\n      dup1\n      dup4\n      gt\n      tag_210\n      jumpi\n      dup3\n      swap1\n      sub\n      0x1f\n      and\n      dup3\n      add\n      swap2\n    tag_208:\n      pop\n      pop\n      pop\n      pop\n      pop\n      swap1\n      pop\n        /* \"@openzeppelin/contracts/token/ERC721/ERC721.sol\":2365:2454  function name() public view virtual returns (string memory) {... */\n      swap1\n      jump\t// out\n        /* \"@openzeppelin/contracts/token/ERC721/ERC721.sol\":3497:3651  function getApproved(uint256 tokenId) public view virtual returns (address) {... */\n    tag_64:\n        /* \"@openzeppelin/contracts/token/ERC721/ERC721.sol\":3564:3571  address */\n      0x00\n        /* \"@openzeppelin/contracts/token/ERC721/ERC721.sol\":3583:3605  _requireOwned(tokenId) */\n      tag_212\n        /* \"@openzeppelin/contracts/token/ERC721/ERC721.sol\":3597:3604  tokenId */\n      dup3\n        /* \"@openzeppelin/contracts/token/ERC721/ERC721.sol\":3583:3596  _requireOwned */\n      tag_213\n        /* \"@openzeppelin/contracts/token/ERC721/ERC721.sol\":3583:3605  _requireOwned(tokenId) */\n      jump\t// in\n    tag_212:\n      pop\n        /* \"@openzeppelin/contracts/token/ERC721/ERC721.sol\":6008:6015  address */\n      0x00\n        /* \"@openzeppelin/contracts/token/ERC721/ERC721.sol\":6034:6058  _tokenApprovals[tokenId] */\n      dup3\n      dup2\n      mstore\n        /* \"@openzeppelin/contracts/token/ERC721/ERC721.sol\":6034:6049  _tokenApprovals */\n      0x04\n        /* \"@openzeppelin/contracts/token/ERC721/ERC721.sol\":6034:6058  _tokenApprovals[tokenId] */\n      0x20\n      mstore\n      0x40\n      swap1\n      keccak256\n      sload\n      sub(shl(0xa0, 0x01), 0x01)\n      and\n        /* \"@openzeppelin/contracts/token/ERC721/ERC721.sol\":3623:3644  _getApproved(tokenId) */\n      tag_202\n        /* \"@openzeppelin/contracts/token/ERC721/ERC721.sol\":5938:6065  function _getApproved(uint256 tokenId) internal view virtual returns (address) {... */\n      jump\n        /* \"@openzeppelin/contracts/token/ERC721/ERC721.sol\":3323:3436  function approve(address to, uint256 tokenId) public virtual {... */\n    tag_71:\n        /* \"@openzeppelin/contracts/token/ERC721/ERC721.sol\":3394:3429  _approve(to, tokenId, _msgSender()) */\n      tag_217\n        /* \"@openzeppelin/contracts/token/ERC721/ERC721.sol\":3403:3405  to */\n      dup3\n        /* \"@openzeppelin/contracts/token/ERC721/ERC721.sol\":3407:3414  tokenId */\n      dup3\n        /* \"@openzeppelin/contracts/utils/Context.sol\":735:745  msg.sender */\n      caller\n        /* \"@openzeppelin/contracts/token/ERC721/ERC721.sol\":3394:3402  _approve */\n      tag_220\n        /* \"@openzeppelin/contracts/token/ERC721/ERC721.sol\":3394:3429  _approve(to, tokenId, _msgSender()) */\n      jump\t// in\n    tag_217:\n        /* \"@openzeppelin/contracts/token/ERC721/ERC721.sol\":3323:3436  function approve(address to, uint256 tokenId) public virtual {... */\n      pop\n      pop\n      jump\t// out\n        /* \"contracts/BananaNFT.sol\":769:821  mapping(uint256 tokenId => string) public _tokenURIs */\n    tag_75:\n      mstore(0x20, 0x12)\n      0x00\n      swap1\n      dup2\n      mstore\n      0x40\n      swap1\n      keccak256\n      dup1\n      sload\n      tag_221\n      swap1\n      tag_206\n      jump\t// in\n    tag_221:\n      dup1\n      0x1f\n      add\n      0x20\n      dup1\n      swap2\n      div\n      mul\n      0x20\n      add\n      mload(0x40)\n      swap1\n      dup2\n      add\n      0x40\n      mstore\n      dup1\n      swap3\n      swap2\n      swap1\n      dup2\n      dup2\n      mstore\n      0x20\n      add\n      dup3\n      dup1\n      sload\n      tag_222\n      swap1\n      tag_206\n      jump\t// in\n    tag_222:\n      dup1\n      iszero\n      tag_223\n      jumpi\n      dup1\n      0x1f\n      lt\n      tag_224\n      jumpi\n      0x0100\n      dup1\n      dup4\n      sload\n      div\n      mul\n      dup4\n      mstore\n      swap2\n      0x20\n      add\n      swap2\n      jump(tag_223)\n    tag_224:\n      dup3\n      add\n      swap2\n      swap1\n      0x00\n      mstore\n      keccak256(0x00, 0x20)\n      swap1\n    tag_225:\n      dup2\n      sload\n      dup2\n      mstore\n      swap1\n      0x01\n      add\n      swap1\n      0x20\n      add\n      dup1\n      dup4\n      gt\n      tag_225\n      jumpi\n      dup3\n      swap1\n      sub\n      0x1f\n      and\n      dup3\n      add\n      swap2\n    tag_223:\n      pop\n      pop\n      pop\n      pop\n      pop\n      dup2\n      jump\t// out\n        /* \"@openzeppelin/contracts/token/ERC721/ERC721.sol\":4143:4721  function transferFrom(address from, address to, uint256 tokenId) public virtual {... */\n    tag_93:\n      sub(shl(0xa0, 0x01), 0x01)\n        /* \"@openzeppelin/contracts/token/ERC721/ERC721.sol\":4237:4253  to == address(0) */\n      dup3\n      and\n        /* \"@openzeppelin/contracts/token/ERC721/ERC721.sol\":4233:4320  if (to == address(0)) {... */\n      tag_228\n      jumpi\n        /* \"@openzeppelin/contracts/token/ERC721/ERC721.sol\":4276:4309  ERC721InvalidReceiver(address(0)) */\n      mload(0x40)\n      shl(0xe1, 0x32505749)\n      dup2\n      mstore\n        /* \"@openzeppelin/contracts/token/ERC721/ERC721.sol\":4306:4307  0 */\n      0x00\n        /* \"@openzeppelin/contracts/token/ERC721/ERC721.sol\":4276:4309  ERC721InvalidReceiver(address(0)) */\n      0x04\n      dup3\n      add\n        /* \"#utility.yul\":1781:1832   */\n      mstore\n        /* \"#utility.yul\":1754:1772   */\n      0x24\n      add\n        /* \"@openzeppelin/contracts/token/ERC721/ERC721.sol\":4276:4309  ERC721InvalidReceiver(address(0)) */\n    tag_229:\n      mload(0x40)\n      dup1\n      swap2\n      sub\n      swap1\n      revert\n        /* \"@openzeppelin/contracts/token/ERC721/ERC721.sol\":4233:4320  if (to == address(0)) {... */\n    tag_228:\n        /* \"@openzeppelin/contracts/token/ERC721/ERC721.sol\":4538:4559  address previousOwner */\n      0x00\n        /* \"@openzeppelin/contracts/token/ERC721/ERC721.sol\":4562:4596  _update(to, tokenId, _msgSender()) */\n      tag_230\n        /* \"@openzeppelin/contracts/token/ERC721/ERC721.sol\":4570:4572  to */\n      dup4\n        /* \"@openzeppelin/contracts/token/ERC721/ERC721.sol\":4574:4581  tokenId */\n      dup4\n        /* \"@openzeppelin/contracts/utils/Context.sol\":735:745  msg.sender */\n      caller\n        /* \"@openzeppelin/contracts/token/ERC721/ERC721.sol\":4562:4569  _update */\n      tag_232\n        /* \"@openzeppelin/contracts/token/ERC721/ERC721.sol\":4562:4596  _update(to, tokenId, _msgSender()) */\n      jump\t// in\n    tag_230:\n        /* \"@openzeppelin/contracts/token/ERC721/ERC721.sol\":4538:4596  address previousOwner = _update(to, tokenId, _msgSender()) */\n      swap1\n      pop\n        /* \"@openzeppelin/contracts/token/ERC721/ERC721.sol\":4627:4631  from */\n      dup4\n      sub(shl(0xa0, 0x01), 0x01)\n        /* \"@openzeppelin/contracts/token/ERC721/ERC721.sol\":4610:4631  previousOwner != from */\n      and\n        /* \"@openzeppelin/contracts/token/ERC721/ERC721.sol\":4610:4623  previousOwner */\n      dup2\n      sub(shl(0xa0, 0x01), 0x01)\n        /* \"@openzeppelin/contracts/token/ERC721/ERC721.sol\":4610:4631  previousOwner != from */\n      and\n      eq\n        /* \"@openzeppelin/contracts/token/ERC721/ERC721.sol\":4606:4715  if (previousOwner != from) {... */\n      tag_233\n      jumpi\n        /* \"@openzeppelin/contracts/token/ERC721/ERC721.sol\":4654:4704  ERC721IncorrectOwner(from, tokenId, previousOwner) */\n      mload(0x40)\n      shl(0xe0, 0x64283d7b)\n      dup2\n      mstore\n      sub(shl(0xa0, 0x01), 0x01)\n        /* \"#utility.yul\":6145:6177   */\n      dup1\n      dup7\n      and\n        /* \"@openzeppelin/contracts/token/ERC721/ERC721.sol\":4654:4704  ERC721IncorrectOwner(from, tokenId, previousOwner) */\n      0x04\n      dup4\n      add\n        /* \"#utility.yul\":6127:6178   */\n      mstore\n        /* \"#utility.yul\":6194:6212   */\n      0x24\n      dup3\n      add\n        /* \"#utility.yul\":6187:6221   */\n      dup5\n      swap1\n      mstore\n        /* \"#utility.yul\":6257:6289   */\n      dup3\n      and\n        /* \"#utility.yul\":6237:6255   */\n      0x44\n      dup3\n      add\n        /* \"#utility.yul\":6230:6290   */\n      mstore\n        /* \"#utility.yul\":6100:6118   */\n      0x64\n      add\n        /* \"@openzeppelin/contracts/token/ERC721/ERC721.sol\":4654:4704  ERC721IncorrectOwner(from, tokenId, previousOwner) */\n      tag_229\n        /* \"#utility.yul\":5925:6296   */\n      jump\n        /* \"@openzeppelin/contracts/token/ERC721/ERC721.sol\":4606:4715  if (previousOwner != from) {... */\n    tag_233:\n        /* \"@openzeppelin/contracts/token/ERC721/ERC721.sol\":4223:4721  {... */\n      pop\n        /* \"@openzeppelin/contracts/token/ERC721/ERC721.sol\":4143:4721  function transferFrom(address from, address to, uint256 tokenId) public virtual {... */\n      pop\n      pop\n      pop\n      jump\t// out\n        /* \"@openzeppelin/contracts/token/ERC721/extensions/ERC721Enumerable.sol\":1736:1991  function tokenOfOwnerByIndex(address owner, uint256 index) public view virtual returns (uint256) {... */\n    tag_97:\n        /* \"@openzeppelin/contracts/token/ERC721/extensions/ERC721Enumerable.sol\":1824:1831  uint256 */\n      0x00\n        /* \"@openzeppelin/contracts/token/ERC721/extensions/ERC721Enumerable.sol\":1856:1872  balanceOf(owner) */\n      tag_237\n        /* \"@openzeppelin/contracts/token/ERC721/extensions/ERC721Enumerable.sol\":1866:1871  owner */\n      dup4\n        /* \"@openzeppelin/contracts/token/ERC721/extensions/ERC721Enumerable.sol\":1856:1865  balanceOf */\n      tag_137\n        /* \"@openzeppelin/contracts/token/ERC721/extensions/ERC721Enumerable.sol\":1856:1872  balanceOf(owner) */\n      jump\t// in\n    tag_237:\n        /* \"@openzeppelin/contracts/token/ERC721/extensions/ERC721Enumerable.sol\":1847:1852  index */\n      dup3\n        /* \"@openzeppelin/contracts/token/ERC721/extensions/ERC721Enumerable.sol\":1847:1872  index >= balanceOf(owner) */\n      lt\n        /* \"@openzeppelin/contracts/token/ERC721/extensions/ERC721Enumerable.sol\":1843:1942  if (index >= balanceOf(owner)) {... */\n      tag_238\n      jumpi\n        /* \"@openzeppelin/contracts/token/ERC721/extensions/ERC721Enumerable.sol\":1895:1931  ERC721OutOfBoundsIndex(owner, index) */\n      mload(0x40)\n      shl(0xe2, 0x295f44f7)\n      dup2\n      mstore\n      sub(shl(0xa0, 0x01), 0x01)\n        /* \"#utility.yul\":6493:6525   */\n      dup5\n      and\n        /* \"@openzeppelin/contracts/token/ERC721/extensions/ERC721Enumerable.sol\":1895:1931  ERC721OutOfBoundsIndex(owner, index) */\n      0x04\n      dup3\n      add\n        /* \"#utility.yul\":6475:6526   */\n      mstore\n        /* \"#utility.yul\":6542:6560   */\n      0x24\n      dup2\n      add\n        /* \"#utility.yul\":6535:6569   */\n      dup4\n      swap1\n      mstore\n        /* \"#utility.yul\":6448:6466   */\n      0x44\n      add\n        /* \"@openzeppelin/contracts/token/ERC721/extensions/ERC721Enumerable.sol\":1895:1931  ERC721OutOfBoundsIndex(owner, index) */\n      tag_229\n        /* \"#utility.yul\":6301:6575   */\n      jump\n        /* \"@openzeppelin/contracts/token/ERC721/extensions/ERC721Enumerable.sol\":1843:1942  if (index >= balanceOf(owner)) {... */\n    tag_238:\n      pop\n      sub(shl(0xa0, 0x01), 0x01)\n        /* \"@openzeppelin/contracts/token/ERC721/extensions/ERC721Enumerable.sol\":1958:1977  _ownedTokens[owner] */\n      swap2\n      swap1\n      swap2\n      and\n      0x00\n      swap1\n      dup2\n      mstore\n        /* \"@openzeppelin/contracts/token/ERC721/extensions/ERC721Enumerable.sol\":1958:1970  _ownedTokens */\n      0x06\n        /* \"@openzeppelin/contracts/token/ERC721/extensions/ERC721Enumerable.sol\":1958:1977  _ownedTokens[owner] */\n      0x20\n      swap1\n      dup2\n      mstore\n      0x40\n      dup1\n      dup4\n      keccak256\n        /* \"@openzeppelin/contracts/token/ERC721/extensions/ERC721Enumerable.sol\":1958:1984  _ownedTokens[owner][index] */\n      swap4\n      dup4\n      mstore\n      swap3\n      swap1\n      mstore\n      keccak256\n      sload\n      swap1\n        /* \"@openzeppelin/contracts/token/ERC721/extensions/ERC721Enumerable.sol\":1736:1991  function tokenOfOwnerByIndex(address owner, uint256 index) public view virtual returns (uint256) {... */\n      jump\t// out\n        /* \"contracts/BananaNFT.sol\":3207:3321  function withdraw() external onlyOwner {... */\n    tag_101:\n        /* \"@openzeppelin/contracts/access/Ownable.sol\":1531:1544  _checkOwner() */\n      tag_242\n        /* \"@openzeppelin/contracts/access/Ownable.sol\":1531:1542  _checkOwner */\n      tag_243\n        /* \"@openzeppelin/contracts/access/Ownable.sol\":1531:1544  _checkOwner() */\n      jump\t// in\n    tag_242:\n        /* \"contracts/BananaNFT.sol\":3265:3280  marketingWallet */\n      sload(0x11)\n        /* \"contracts/BananaNFT.sol\":3257:3313  payable(marketingWallet).transfer(address(this).balance) */\n      mload(0x40)\n      sub(shl(0xa0, 0x01), 0x01)\n        /* \"contracts/BananaNFT.sol\":3265:3280  marketingWallet */\n      swap1\n      swap2\n      and\n      swap1\n        /* \"contracts/BananaNFT.sol\":3291:3312  address(this).balance */\n      selfbalance\n        /* \"contracts/BananaNFT.sol\":3257:3313  payable(marketingWallet).transfer(address(this).balance) */\n      dup1\n      iszero\n      0x08fc\n      mul\n      swap2\n        /* \"contracts/BananaNFT.sol\":3265:3280  marketingWallet */\n      0x00\n        /* \"contracts/BananaNFT.sol\":3257:3313  payable(marketingWallet).transfer(address(this).balance) */\n      dup2\n        /* \"contracts/BananaNFT.sol\":3265:3280  marketingWallet */\n      dup2\n        /* \"contracts/BananaNFT.sol\":3257:3313  payable(marketingWallet).transfer(address(this).balance) */\n      dup2\n        /* \"contracts/BananaNFT.sol\":3291:3312  address(this).balance */\n      dup6\n        /* \"contracts/BananaNFT.sol\":3265:3280  marketingWallet */\n      dup9\n        /* \"contracts/BananaNFT.sol\":3257:3313  payable(marketingWallet).transfer(address(this).balance) */\n      dup9\n      call\n      swap4\n      pop\n      pop\n      pop\n      pop\n      iszero\n      dup1\n      iszero\n      tag_246\n      jumpi\n      returndatasize\n      0x00\n      dup1\n      returndatacopy\n      revert(0x00, returndatasize)\n    tag_246:\n      pop\n        /* \"contracts/BananaNFT.sol\":3207:3321  function withdraw() external onlyOwner {... */\n      jump\t// out\n        /* \"@openzeppelin/contracts/token/ERC721/ERC721.sol\":4787:4919  function safeTransferFrom(address from, address to, uint256 tokenId) public {... */\n    tag_105:\n        /* \"@openzeppelin/contracts/token/ERC721/ERC721.sol\":4873:4912  safeTransferFrom(from, to, tokenId, \"\") */\n      tag_248\n        /* \"@openzeppelin/contracts/token/ERC721/ERC721.sol\":4890:4894  from */\n      dup4\n        /* \"@openzeppelin/contracts/token/ERC721/ERC721.sol\":4896:4898  to */\n      dup4\n        /* \"@openzeppelin/contracts/token/ERC721/ERC721.sol\":4900:4907  tokenId */\n      dup4\n        /* \"@openzeppelin/contracts/token/ERC721/ERC721.sol\":4873:4912  safeTransferFrom(from, to, tokenId, \"\") */\n      mload(0x40)\n      dup1\n      0x20\n      add\n      0x40\n      mstore\n      dup1\n      0x00\n      dup2\n      mstore\n      pop\n        /* \"@openzeppelin/contracts/token/ERC721/ERC721.sol\":4873:4889  safeTransferFrom */\n      tag_164\n        /* \"@openzeppelin/contracts/token/ERC721/ERC721.sol\":4873:4912  safeTransferFrom(from, to, tokenId, \"\") */\n      jump\t// in\n    tag_248:\n        /* \"@openzeppelin/contracts/token/ERC721/ERC721.sol\":4787:4919  function safeTransferFrom(address from, address to, uint256 tokenId) public {... */\n      pop\n      pop\n      pop\n      jump\t// out\n        /* \"@openzeppelin/contracts/token/ERC721/extensions/ERC721Enumerable.sol\":2236:2462  function tokenByIndex(uint256 index) public view virtual returns (uint256) {... */\n    tag_109:\n        /* \"@openzeppelin/contracts/token/ERC721/extensions/ERC721Enumerable.sol\":2302:2309  uint256 */\n      0x00\n        /* \"@openzeppelin/contracts/token/ERC721/extensions/ERC721Enumerable.sol\":2334:2347  totalSupply() */\n      tag_250\n        /* \"@openzeppelin/contracts/token/ERC721/extensions/ERC721Enumerable.sol\":2140:2150  _allTokens */\n      0x08\n        /* \"@openzeppelin/contracts/token/ERC721/extensions/ERC721Enumerable.sol\":2140:2157  _allTokens.length */\n      sload\n      swap1\n        /* \"@openzeppelin/contracts/token/ERC721/extensions/ERC721Enumerable.sol\":2062:2164  function totalSupply() public view virtual returns (uint256) {... */\n      jump\n        /* \"@openzeppelin/contracts/token/ERC721/extensions/ERC721Enumerable.sol\":2334:2347  totalSupply() */\n    tag_250:\n        /* \"@openzeppelin/contracts/token/ERC721/extensions/ERC721Enumerable.sol\":2325:2330  index */\n      dup3\n        /* \"@openzeppelin/contracts/token/ERC721/extensions/ERC721Enumerable.sol\":2325:2347  index >= totalSupply() */\n      lt\n        /* \"@openzeppelin/contracts/token/ERC721/extensions/ERC721Enumerable.sol\":2321:2422  if (index >= totalSupply()) {... */\n      tag_251\n      jumpi\n        /* \"@openzeppelin/contracts/token/ERC721/extensions/ERC721Enumerable.sol\":2370:2411  ERC721OutOfBoundsIndex(address(0), index) */\n      mload(0x40)\n      shl(0xe2, 0x295f44f7)\n      dup2\n      mstore\n        /* \"@openzeppelin/contracts/token/ERC721/extensions/ERC721Enumerable.sol\":2401:2402  0 */\n      0x00\n        /* \"@openzeppelin/contracts/token/ERC721/extensions/ERC721Enumerable.sol\":2370:2411  ERC721OutOfBoundsIndex(address(0), index) */\n      0x04\n      dup3\n      add\n        /* \"#utility.yul\":6475:6526   */\n      mstore\n        /* \"#utility.yul\":6542:6560   */\n      0x24\n      dup2\n      add\n        /* \"#utility.yul\":6535:6569   */\n      dup4\n      swap1\n      mstore\n        /* \"#utility.yul\":6448:6466   */\n      0x44\n      add\n        /* \"@openzeppelin/contracts/token/ERC721/extensions/ERC721Enumerable.sol\":2370:2411  ERC721OutOfBoundsIndex(address(0), index) */\n      tag_229\n        /* \"#utility.yul\":6301:6575   */\n      jump\n        /* \"@openzeppelin/contracts/token/ERC721/extensions/ERC721Enumerable.sol\":2321:2422  if (index >= totalSupply()) {... */\n    tag_251:\n        /* \"@openzeppelin/contracts/token/ERC721/extensions/ERC721Enumerable.sol\":2438:2448  _allTokens */\n      0x08\n        /* \"@openzeppelin/contracts/token/ERC721/extensions/ERC721Enumerable.sol\":2449:2454  index */\n      dup3\n        /* \"@openzeppelin/contracts/token/ERC721/extensions/ERC721Enumerable.sol\":2438:2455  _allTokens[index] */\n      dup2\n      sload\n      dup2\n      lt\n      tag_254\n      jumpi\n      tag_254\n      tag_255\n      jump\t// in\n    tag_254:\n      swap1\n      0x00\n      mstore\n      keccak256(0x00, 0x20)\n      add\n      sload\n        /* \"@openzeppelin/contracts/token/ERC721/extensions/ERC721Enumerable.sol\":2431:2455  return _allTokens[index] */\n      swap1\n      pop\n        /* \"@openzeppelin/contracts/token/ERC721/extensions/ERC721Enumerable.sol\":2236:2462  function tokenByIndex(uint256 index) public view virtual returns (uint256) {... */\n      swap2\n      swap1\n      pop\n      jump\t// out\n        /* \"contracts/BananaNFT.sol\":1559:2159  function payToMint(string memory uri) external payable nonReentrant {... */\n    tag_114:\n        /* \"@openzeppelin/contracts/utils/ReentrancyGuard.sol\":2356:2377  _nonReentrantBefore() */\n      tag_258\n        /* \"@openzeppelin/contracts/utils/ReentrancyGuard.sol\":2356:2375  _nonReentrantBefore */\n      tag_259\n        /* \"@openzeppelin/contracts/utils/ReentrancyGuard.sol\":2356:2377  _nonReentrantBefore() */\n      jump\t// in\n    tag_258:\n        /* \"contracts/BananaNFT.sol\":1646:1659  _isSaleActive */\n      and(0xff, sload(0x0f))\n        /* \"contracts/BananaNFT.sol\":1638:1682  require(_isSaleActive, \"Sale is not active\") */\n      tag_261\n      jumpi\n      mload(0x40)\n      shl(0xe5, 0x461bcd)\n      dup2\n      mstore\n        /* \"#utility.yul\":6914:6916   */\n      0x20\n        /* \"contracts/BananaNFT.sol\":1638:1682  require(_isSaleActive, \"Sale is not active\") */\n      0x04\n      dup3\n      add\n        /* \"#utility.yul\":6896:6917   */\n      mstore\n        /* \"#utility.yul\":6953:6955   */\n      0x12\n        /* \"#utility.yul\":6933:6951   */\n      0x24\n      dup3\n      add\n        /* \"#utility.yul\":6926:6956   */\n      mstore\n      shl(0x70, 0x53616c65206973206e6f7420616374697665)\n        /* \"#utility.yul\":6972:6990   */\n      0x44\n      dup3\n      add\n        /* \"#utility.yul\":6965:7013   */\n      mstore\n        /* \"#utility.yul\":7030:7048   */\n      0x64\n      add\n        /* \"contracts/BananaNFT.sol\":1638:1682  require(_isSaleActive, \"Sale is not active\") */\n      tag_229\n        /* \"#utility.yul\":6712:7054   */\n      jump\n        /* \"contracts/BananaNFT.sol\":1638:1682  require(_isSaleActive, \"Sale is not active\") */\n    tag_261:\n        /* \"contracts/BananaNFT.sol\":1714:1723  mintPrice */\n      sload(0x0c)\n        /* \"contracts/BananaNFT.sol\":1701:1710  msg.value */\n      callvalue\n        /* \"contracts/BananaNFT.sol\":1701:1723  msg.value == mintPrice */\n      eq\n        /* \"contracts/BananaNFT.sol\":1693:1747  require(msg.value == mintPrice, \"Incorrect ETH value\") */\n      tag_264\n      jumpi\n      mload(0x40)\n      shl(0xe5, 0x461bcd)\n      dup2\n      mstore\n        /* \"#utility.yul\":7261:7263   */\n      0x20\n        /* \"contracts/BananaNFT.sol\":1693:1747  require(msg.value == mintPrice, \"Incorrect ETH value\") */\n      0x04\n      dup3\n      add\n        /* \"#utility.yul\":7243:7264   */\n      mstore\n        /* \"#utility.yul\":7300:7302   */\n      0x13\n        /* \"#utility.yul\":7280:7298   */\n      0x24\n      dup3\n      add\n        /* \"#utility.yul\":7273:7303   */\n      mstore\n      shl(0x68, 0x496e636f7272656374204554482076616c7565)\n        /* \"#utility.yul\":7319:7337   */\n      0x44\n      dup3\n      add\n        /* \"#utility.yul\":7312:7361   */\n      mstore\n        /* \"#utility.yul\":7378:7396   */\n      0x64\n      add\n        /* \"contracts/BananaNFT.sol\":1693:1747  require(msg.value == mintPrice, \"Incorrect ETH value\") */\n      tag_229\n        /* \"#utility.yul\":7059:7402   */\n      jump\n        /* \"contracts/BananaNFT.sol\":1693:1747  require(msg.value == mintPrice, \"Incorrect ETH value\") */\n    tag_264:\n        /* \"contracts/BananaNFT.sol\":1762:1777  _tokenIdCounter */\n      0x10\n      0x00\n        /* \"contracts/BananaNFT.sol\":1760:1777  ++_tokenIdCounter */\n      dup2\n      sload\n      tag_267\n      swap1\n      tag_268\n      jump\t// in\n    tag_267:\n      swap1\n      swap2\n      sstore\n      pop\n        /* \"contracts/BananaNFT.sol\":1806:1821  _tokenIdCounter */\n      sload(0x10)\n        /* \"contracts/BananaNFT.sol\":1859:1874  marketingWallet */\n      sload(0x11)\n        /* \"contracts/BananaNFT.sol\":1851:1902  payable(marketingWallet).call{value: msg.value}(\"\") */\n      mload(0x40)\n        /* \"contracts/BananaNFT.sol\":1788:1803  uint256 tokenId */\n      0x00\n      swap2\n      sub(shl(0xa0, 0x01), 0x01)\n        /* \"contracts/BananaNFT.sol\":1859:1874  marketingWallet */\n      and\n      swap1\n        /* \"contracts/BananaNFT.sol\":1888:1897  msg.value */\n      callvalue\n      swap1\n        /* \"contracts/BananaNFT.sol\":1788:1803  uint256 tokenId */\n      dup4\n        /* \"contracts/BananaNFT.sol\":1851:1902  payable(marketingWallet).call{value: msg.value}(\"\") */\n      dup2\n        /* \"contracts/BananaNFT.sol\":1788:1803  uint256 tokenId */\n      dup2\n        /* \"contracts/BananaNFT.sol\":1851:1902  payable(marketingWallet).call{value: msg.value}(\"\") */\n      dup2\n        /* \"contracts/BananaNFT.sol\":1888:1897  msg.value */\n      dup6\n        /* \"contracts/BananaNFT.sol\":1859:1874  marketingWallet */\n      dup8\n        /* \"contracts/BananaNFT.sol\":1851:1902  payable(marketingWallet).call{value: msg.value}(\"\") */\n      gas\n      call\n      swap3\n      pop\n      pop\n      pop\n      returndatasize\n      dup1\n      0x00\n      dup2\n      eq\n      tag_273\n      jumpi\n      mload(0x40)\n      swap2\n      pop\n      and(add(returndatasize, 0x3f), not(0x1f))\n      dup3\n      add\n      0x40\n      mstore\n      returndatasize\n      dup3\n      mstore\n      returndatasize\n      0x00\n      0x20\n      dup5\n      add\n      returndatacopy\n      jump(tag_272)\n    tag_273:\n      0x60\n      swap2\n      pop\n    tag_272:\n      pop\n        /* \"contracts/BananaNFT.sol\":1832:1902  (bool success, ) = payable(marketingWallet).call{value: msg.value}(\"\") */\n      pop\n      swap1\n      pop\n        /* \"contracts/BananaNFT.sol\":1935:1942  success */\n      dup1\n        /* \"contracts/BananaNFT.sol\":1913:2028  require(... */\n      tag_274\n      jumpi\n      mload(0x40)\n      shl(0xe5, 0x461bcd)\n      dup2\n      mstore\n        /* \"#utility.yul\":8091:8093   */\n      0x20\n        /* \"contracts/BananaNFT.sol\":1913:2028  require(... */\n      0x04\n      dup3\n      add\n        /* \"#utility.yul\":8073:8094   */\n      mstore\n        /* \"#utility.yul\":8130:8132   */\n      0x3a\n        /* \"#utility.yul\":8110:8128   */\n      0x24\n      dup3\n      add\n        /* \"#utility.yul\":8103:8133   */\n      mstore\n        /* \"#utility.yul\":8169:8203   */\n      0x416464726573733a20756e61626c6520746f2073656e642076616c75652c2072\n        /* \"#utility.yul\":8149:8167   */\n      0x44\n      dup3\n      add\n        /* \"#utility.yul\":8142:8204   */\n      mstore\n        /* \"#utility.yul\":8240:8268   */\n      0x6563697069656e74206d61792068617665207265766572746564000000000000\n        /* \"#utility.yul\":8220:8238   */\n      0x64\n      dup3\n      add\n        /* \"#utility.yul\":8213:8269   */\n      mstore\n        /* \"#utility.yul\":8286:8305   */\n      0x84\n      add\n        /* \"contracts/BananaNFT.sol\":1913:2028  require(... */\n      tag_229\n        /* \"#utility.yul\":7889:8311   */\n      jump\n        /* \"contracts/BananaNFT.sol\":1913:2028  require(... */\n    tag_274:\n        /* \"contracts/BananaNFT.sol\":2039:2069  _safeMint(msg.sender, tokenId) */\n      tag_277\n        /* \"contracts/BananaNFT.sol\":2049:2059  msg.sender */\n      caller\n        /* \"contracts/BananaNFT.sol\":2061:2068  tokenId */\n      dup4\n        /* \"contracts/BananaNFT.sol\":2039:2048  _safeMint */\n      tag_278\n        /* \"contracts/BananaNFT.sol\":2039:2069  _safeMint(msg.sender, tokenId) */\n      jump\t// in\n    tag_277:\n        /* \"contracts/BananaNFT.sol\":2080:2106  _setTokenURI(tokenId, uri) */\n      tag_279\n        /* \"contracts/BananaNFT.sol\":2093:2100  tokenId */\n      dup3\n        /* \"contracts/BananaNFT.sol\":2102:2105  uri */\n      dup5\n        /* \"contracts/BananaNFT.sol\":2080:2092  _setTokenURI */\n      tag_280\n        /* \"contracts/BananaNFT.sol\":2080:2106  _setTokenURI(tokenId, uri) */\n      jump\t// in\n    tag_279:\n        /* \"contracts/BananaNFT.sol\":2124:2151  Minted(msg.sender, tokenId) */\n      mload(0x40)\n        /* \"#utility.yul\":160:185   */\n      dup3\n      dup2\n      mstore\n        /* \"contracts/BananaNFT.sol\":2131:2141  msg.sender */\n      caller\n      swap1\n        /* \"contracts/BananaNFT.sol\":2124:2151  Minted(msg.sender, tokenId) */\n      0x30385c845b448a36257a6a1716e6ad2e1bc2cbe333cde1e69fe849ad6511adfe\n      swap1\n        /* \"#utility.yul\":148:150   */\n      0x20\n        /* \"#utility.yul\":133:151   */\n      add\n        /* \"contracts/BananaNFT.sol\":2124:2151  Minted(msg.sender, tokenId) */\n      mload(0x40)\n      dup1\n      swap2\n      sub\n      swap1\n      log2\n        /* \"contracts/BananaNFT.sol\":1627:2159  {... */\n      pop\n      pop\n        /* \"@openzeppelin/contracts/utils/ReentrancyGuard.sol\":2398:2418  _nonReentrantAfter() */\n      tag_246\n        /* \"@openzeppelin/contracts/utils/ReentrancyGuard.sol\":1713:1714  1 */\n      0x01\n        /* \"@openzeppelin/contracts/utils/ReentrancyGuard.sol\":2924:2931  _status */\n      0x0a\n        /* \"@openzeppelin/contracts/utils/ReentrancyGuard.sol\":2924:2945  _status = NOT_ENTERED */\n      sstore\n        /* \"@openzeppelin/contracts/utils/ReentrancyGuard.sol\":2744:2952  function _nonReentrantAfter() private {... */\n      jump\n        /* \"@openzeppelin/contracts/token/ERC721/ERC721.sol\":2185:2303  function ownerOf(uint256 tokenId) public view virtual returns (address) {... */\n    tag_118:\n        /* \"@openzeppelin/contracts/token/ERC721/ERC721.sol\":2248:2255  address */\n      0x00\n        /* \"@openzeppelin/contracts/token/ERC721/ERC721.sol\":2274:2296  _requireOwned(tokenId) */\n      tag_202\n        /* \"@openzeppelin/contracts/token/ERC721/ERC721.sol\":2288:2295  tokenId */\n      dup3\n        /* \"@openzeppelin/contracts/token/ERC721/ERC721.sol\":2274:2287  _requireOwned */\n      tag_213\n        /* \"@openzeppelin/contracts/token/ERC721/ERC721.sol\":2274:2296  _requireOwned(tokenId) */\n      jump\t// in\n        /* \"@openzeppelin/contracts/token/ERC721/ERC721.sol\":1920:2128  function balanceOf(address owner) public view virtual returns (uint256) {... */\n    tag_137:\n        /* \"@openzeppelin/contracts/token/ERC721/ERC721.sol\":1983:1990  uint256 */\n      0x00\n      sub(shl(0xa0, 0x01), 0x01)\n        /* \"@openzeppelin/contracts/token/ERC721/ERC721.sol\":2006:2025  owner == address(0) */\n      dup3\n      and\n        /* \"@openzeppelin/contracts/token/ERC721/ERC721.sol\":2002:2089  if (owner == address(0)) {... */\n      tag_287\n      jumpi\n        /* \"@openzeppelin/contracts/token/ERC721/ERC721.sol\":2048:2078  ERC721InvalidOwner(address(0)) */\n      mload(0x40)\n      shl(0xe2, 0x22718ad9)\n      dup2\n      mstore\n        /* \"@openzeppelin/contracts/token/ERC721/ERC721.sol\":2075:2076  0 */\n      0x00\n        /* \"@openzeppelin/contracts/token/ERC721/ERC721.sol\":2048:2078  ERC721InvalidOwner(address(0)) */\n      0x04\n      dup3\n      add\n        /* \"#utility.yul\":1781:1832   */\n      mstore\n        /* \"#utility.yul\":1754:1772   */\n      0x24\n      add\n        /* \"@openzeppelin/contracts/token/ERC721/ERC721.sol\":2048:2078  ERC721InvalidOwner(address(0)) */\n      tag_229\n        /* \"#utility.yul\":1635:1838   */\n      jump\n        /* \"@openzeppelin/contracts/token/ERC721/ERC721.sol\":2002:2089  if (owner == address(0)) {... */\n    tag_287:\n      pop\n      sub(shl(0xa0, 0x01), 0x01)\n        /* \"@openzeppelin/contracts/token/ERC721/ERC721.sol\":2105:2121  _balances[owner] */\n      and\n      0x00\n      swap1\n      dup2\n      mstore\n        /* \"@openzeppelin/contracts/token/ERC721/ERC721.sol\":2105:2114  _balances */\n      0x03\n        /* \"@openzeppelin/contracts/token/ERC721/ERC721.sol\":2105:2121  _balances[owner] */\n      0x20\n      mstore\n      0x40\n      swap1\n      keccak256\n      sload\n      swap1\n        /* \"@openzeppelin/contracts/token/ERC721/ERC721.sol\":1920:2128  function balanceOf(address owner) public view virtual returns (uint256) {... */\n      jump\t// out\n        /* \"@openzeppelin/contracts/access/Ownable.sol\":2293:2394  function renounceOwnership() public virtual onlyOwner {... */\n    tag_141:\n        /* \"@openzeppelin/contracts/access/Ownable.sol\":1531:1544  _checkOwner() */\n      tag_290\n        /* \"@openzeppelin/contracts/access/Ownable.sol\":1531:1542  _checkOwner */\n      tag_243\n        /* \"@openzeppelin/contracts/access/Ownable.sol\":1531:1544  _checkOwner() */\n      jump\t// in\n    tag_290:\n        /* \"@openzeppelin/contracts/access/Ownable.sol\":2357:2387  _transferOwnership(address(0)) */\n      tag_292\n        /* \"@openzeppelin/contracts/access/Ownable.sol\":2384:2385  0 */\n      0x00\n        /* \"@openzeppelin/contracts/access/Ownable.sol\":2357:2375  _transferOwnership */\n      tag_293\n        /* \"@openzeppelin/contracts/access/Ownable.sol\":2357:2387  _transferOwnership(address(0)) */\n      jump\t// in\n    tag_292:\n        /* \"@openzeppelin/contracts/access/Ownable.sol\":2293:2394  function renounceOwnership() public virtual onlyOwner {... */\n      jump\t// out\n        /* \"@openzeppelin/contracts/token/ERC721/ERC721.sol\":2518:2611  function symbol() public view virtual returns (string memory) {... */\n    tag_148:\n        /* \"@openzeppelin/contracts/token/ERC721/ERC721.sol\":2565:2578  string memory */\n      0x60\n        /* \"@openzeppelin/contracts/token/ERC721/ERC721.sol\":2597:2604  _symbol */\n      0x01\n        /* \"@openzeppelin/contracts/token/ERC721/ERC721.sol\":2590:2604  return _symbol */\n      dup1\n      sload\n      tag_205\n      swap1\n      tag_206\n      jump\t// in\n        /* \"@openzeppelin/contracts/token/ERC721/ERC721.sol\":3718:3862  function setApprovalForAll(address operator, bool approved) public virtual {... */\n    tag_159:\n        /* \"@openzeppelin/contracts/token/ERC721/ERC721.sol\":3803:3855  _setApprovalForAll(_msgSender(), operator, approved) */\n      tag_217\n        /* \"@openzeppelin/contracts/utils/Context.sol\":735:745  msg.sender */\n      caller\n        /* \"@openzeppelin/contracts/token/ERC721/ERC721.sol\":3836:3844  operator */\n      dup4\n        /* \"@openzeppelin/contracts/token/ERC721/ERC721.sol\":3846:3854  approved */\n      dup4\n        /* \"@openzeppelin/contracts/token/ERC721/ERC721.sol\":3803:3821  _setApprovalForAll */\n      tag_304\n        /* \"@openzeppelin/contracts/token/ERC721/ERC721.sol\":3803:3855  _setApprovalForAll(_msgSender(), operator, approved) */\n      jump\t// in\n        /* \"@openzeppelin/contracts/token/ERC721/ERC721.sol\":4985:5193  function safeTransferFrom(address from, address to, uint256 tokenId, bytes memory data) public virtual {... */\n    tag_164:\n        /* \"@openzeppelin/contracts/token/ERC721/ERC721.sol\":5098:5129  transferFrom(from, to, tokenId) */\n      tag_306\n        /* \"@openzeppelin/contracts/token/ERC721/ERC721.sol\":5111:5115  from */\n      dup5\n        /* \"@openzeppelin/contracts/token/ERC721/ERC721.sol\":5117:5119  to */\n      dup5\n        /* \"@openzeppelin/contracts/token/ERC721/ERC721.sol\":5121:5128  tokenId */\n      dup5\n        /* \"@openzeppelin/contracts/token/ERC721/ERC721.sol\":5098:5110  transferFrom */\n      tag_93\n        /* \"@openzeppelin/contracts/token/ERC721/ERC721.sol\":5098:5129  transferFrom(from, to, tokenId) */\n      jump\t// in\n    tag_306:\n        /* \"@openzeppelin/contracts/token/ERC721/ERC721.sol\":5139:5186  _checkOnERC721Received(from, to, tokenId, data) */\n      tag_233\n        /* \"@openzeppelin/contracts/token/ERC721/ERC721.sol\":5162:5166  from */\n      dup5\n        /* \"@openzeppelin/contracts/token/ERC721/ERC721.sol\":5168:5170  to */\n      dup5\n        /* \"@openzeppelin/contracts/token/ERC721/ERC721.sol\":5172:5179  tokenId */\n      dup5\n        /* \"@openzeppelin/contracts/token/ERC721/ERC721.sol\":5181:5185  data */\n      dup5\n        /* \"@openzeppelin/contracts/token/ERC721/ERC721.sol\":5139:5161  _checkOnERC721Received */\n      tag_308\n        /* \"@openzeppelin/contracts/token/ERC721/ERC721.sol\":5139:5186  _checkOnERC721Received(from, to, tokenId, data) */\n      jump\t// in\n        /* \"contracts/BananaNFT.sol\":1331:1551  function tokenURI(... */\n    tag_168:\n        /* \"contracts/BananaNFT.sol\":1412:1425  string memory */\n      0x60\n        /* \"contracts/BananaNFT.sol\":1438:1460  _requireOwned(tokenId) */\n      tag_310\n        /* \"contracts/BananaNFT.sol\":1452:1459  tokenId */\n      dup3\n        /* \"contracts/BananaNFT.sol\":1438:1451  _requireOwned */\n      tag_213\n        /* \"contracts/BananaNFT.sol\":1438:1460  _requireOwned(tokenId) */\n      jump\t// in\n    tag_310:\n      pop\n        /* \"contracts/BananaNFT.sol\":1471:1494  string memory _tokenURI */\n      0x00\n        /* \"contracts/BananaNFT.sol\":1497:1516  _tokenURIs[tokenId] */\n      dup3\n      dup2\n      mstore\n        /* \"contracts/BananaNFT.sol\":1497:1507  _tokenURIs */\n      0x12\n        /* \"contracts/BananaNFT.sol\":1497:1516  _tokenURIs[tokenId] */\n      0x20\n      mstore\n      0x40\n      dup2\n      keccak256\n        /* \"contracts/BananaNFT.sol\":1471:1516  string memory _tokenURI = _tokenURIs[tokenId] */\n      dup1\n      sload\n      tag_311\n      swap1\n      tag_206\n      jump\t// in\n    tag_311:\n      dup1\n      0x1f\n      add\n      0x20\n      dup1\n      swap2\n      div\n      mul\n      0x20\n      add\n      mload(0x40)\n      swap1\n      dup2\n      add\n      0x40\n      mstore\n      dup1\n      swap3\n      swap2\n      swap1\n      dup2\n      dup2\n      mstore\n      0x20\n      add\n      dup3\n      dup1\n      sload\n      tag_312\n      swap1\n      tag_206\n      jump\t// in\n    tag_312:\n      dup1\n      iszero\n      tag_313\n      jumpi\n      dup1\n      0x1f\n      lt\n      tag_314\n      jumpi\n      0x0100\n      dup1\n      dup4\n      sload\n      div\n      mul\n      dup4\n      mstore\n      swap2\n      0x20\n      add\n      swap2\n      jump(tag_313)\n    tag_314:\n      dup3\n      add\n      swap2\n      swap1\n      0x00\n      mstore\n      keccak256(0x00, 0x20)\n      swap1\n    tag_315:\n      dup2\n      sload\n      dup2\n      mstore\n      swap1\n      0x01\n      add\n      swap1\n      0x20\n      add\n      dup1\n      dup4\n      gt\n      tag_315\n      jumpi\n      dup3\n      swap1\n      sub\n      0x1f\n      and\n      dup3\n      add\n      swap2\n    tag_313:\n      pop\n      swap4\n      swap8\n        /* \"contracts/BananaNFT.sol\":1331:1551  function tokenURI(... */\n      swap7\n      pop\n      pop\n      pop\n      pop\n      pop\n      pop\n      pop\n      jump\t// out\n        /* \"contracts/BananaNFT.sol\":2873:2987  function setMintInterval(uint256 _mintInterval) external onlyOwner {... */\n    tag_173:\n        /* \"@openzeppelin/contracts/access/Ownable.sol\":1531:1544  _checkOwner() */\n      tag_317\n        /* \"@openzeppelin/contracts/access/Ownable.sol\":1531:1542  _checkOwner */\n      tag_243\n        /* \"@openzeppelin/contracts/access/Ownable.sol\":1531:1544  _checkOwner() */\n      jump\t// in\n    tag_317:\n        /* \"contracts/BananaNFT.sol\":2951:2963  mintInterval */\n      0x0d\n        /* \"contracts/BananaNFT.sol\":2951:2979  mintInterval = _mintInterval */\n      sstore\n        /* \"contracts/BananaNFT.sol\":2873:2987  function setMintInterval(uint256 _mintInterval) external onlyOwner {... */\n      jump\t// out\n        /* \"contracts/BananaNFT.sol\":2167:2759  function mint(string memory uri) external nonReentrant {... */\n    tag_177:\n        /* \"@openzeppelin/contracts/utils/ReentrancyGuard.sol\":2356:2377  _nonReentrantBefore() */\n      tag_320\n        /* \"@openzeppelin/contracts/utils/ReentrancyGuard.sol\":2356:2375  _nonReentrantBefore */\n      tag_259\n        /* \"@openzeppelin/contracts/utils/ReentrancyGuard.sol\":2356:2377  _nonReentrantBefore() */\n      jump\t// in\n    tag_320:\n        /* \"contracts/BananaNFT.sol\":2301:2313  mintInterval */\n      sload(0x0d)\n        /* \"contracts/BananaNFT.sol\":2287:2297  msg.sender */\n      caller\n        /* \"contracts/BananaNFT.sol\":2274:2298  lastMintTime[msg.sender] */\n      0x00\n      swap1\n      dup2\n      mstore\n        /* \"contracts/BananaNFT.sol\":2274:2286  lastMintTime */\n      0x14\n        /* \"contracts/BananaNFT.sol\":2274:2298  lastMintTime[msg.sender] */\n      0x20\n      mstore\n      0x40\n      swap1\n      keccak256\n      sload\n        /* \"contracts/BananaNFT.sol\":2274:2313  lastMintTime[msg.sender] + mintInterval */\n      tag_322\n      swap2\n        /* \"contracts/BananaNFT.sol\":2301:2313  mintInterval */\n      swap1\n        /* \"contracts/BananaNFT.sol\":2274:2313  lastMintTime[msg.sender] + mintInterval */\n      tag_323\n      jump\t// in\n    tag_322:\n        /* \"contracts/BananaNFT.sol\":2255:2270  block.timestamp */\n      timestamp\n        /* \"contracts/BananaNFT.sol\":2255:2313  block.timestamp >= lastMintTime[msg.sender] + mintInterval */\n      lt\n      iszero\n        /* \"contracts/BananaNFT.sol\":2233:2360  require(... */\n      tag_324\n      jumpi\n      mload(0x40)\n      shl(0xe5, 0x461bcd)\n      dup2\n      mstore\n        /* \"#utility.yul\":8648:8650   */\n      0x20\n        /* \"contracts/BananaNFT.sol\":2233:2360  require(... */\n      0x04\n      dup3\n      add\n        /* \"#utility.yul\":8630:8651   */\n      mstore\n        /* \"#utility.yul\":8687:8689   */\n      0x13\n        /* \"#utility.yul\":8667:8685   */\n      0x24\n      dup3\n      add\n        /* \"#utility.yul\":8660:8690   */\n      mstore\n      shl(0x68, 0x4e6f74207265616368206d696e742074696d65)\n        /* \"#utility.yul\":8706:8724   */\n      0x44\n      dup3\n      add\n        /* \"#utility.yul\":8699:8748   */\n      mstore\n        /* \"#utility.yul\":8765:8783   */\n      0x64\n      add\n        /* \"contracts/BananaNFT.sol\":2233:2360  require(... */\n      tag_229\n        /* \"#utility.yul\":8446:8789   */\n      jump\n        /* \"contracts/BananaNFT.sol\":2233:2360  require(... */\n    tag_324:\n        /* \"contracts/BananaNFT.sol\":2393:2413  endWhitelistMintTime */\n      sload(0x0e)\n        /* \"contracts/BananaNFT.sol\":2375:2390  block.timestamp */\n      timestamp\n        /* \"contracts/BananaNFT.sol\":2375:2413  block.timestamp < endWhitelistMintTime */\n      lt\n        /* \"contracts/BananaNFT.sol\":2371:2504  if (block.timestamp < endWhitelistMintTime) {... */\n      iszero\n      tag_328\n      jumpi\n        /* \"contracts/BananaNFT.sol\":2448:2458  msg.sender */\n      caller\n        /* \"contracts/BananaNFT.sol\":2438:2459  whitelist[msg.sender] */\n      0x00\n      swap1\n      dup2\n      mstore\n        /* \"contracts/BananaNFT.sol\":2438:2447  whitelist */\n      0x13\n        /* \"contracts/BananaNFT.sol\":2438:2459  whitelist[msg.sender] */\n      0x20\n      mstore\n      0x40\n      swap1\n      keccak256\n      sload\n      0xff\n      and\n        /* \"contracts/BananaNFT.sol\":2430:2492  require(whitelist[msg.sender], \"Only whitelist user can mint\") */\n      tag_328\n      jumpi\n      mload(0x40)\n      shl(0xe5, 0x461bcd)\n      dup2\n      mstore\n        /* \"#utility.yul\":8996:8998   */\n      0x20\n        /* \"contracts/BananaNFT.sol\":2430:2492  require(whitelist[msg.sender], \"Only whitelist user can mint\") */\n      0x04\n      dup3\n      add\n        /* \"#utility.yul\":8978:8999   */\n      mstore\n        /* \"#utility.yul\":9035:9037   */\n      0x1c\n        /* \"#utility.yul\":9015:9033   */\n      0x24\n      dup3\n      add\n        /* \"#utility.yul\":9008:9038   */\n      mstore\n        /* \"#utility.yul\":9074:9104   */\n      0x4f6e6c792077686974656c69737420757365722063616e206d696e7400000000\n        /* \"#utility.yul\":9054:9072   */\n      0x44\n      dup3\n      add\n        /* \"#utility.yul\":9047:9105   */\n      mstore\n        /* \"#utility.yul\":9122:9140   */\n      0x64\n      add\n        /* \"contracts/BananaNFT.sol\":2430:2492  require(whitelist[msg.sender], \"Only whitelist user can mint\") */\n      tag_229\n        /* \"#utility.yul\":8794:9146   */\n      jump\n        /* \"contracts/BananaNFT.sol\":2430:2492  require(whitelist[msg.sender], \"Only whitelist user can mint\") */\n    tag_328:\n        /* \"contracts/BananaNFT.sol\":2516:2531  _tokenIdCounter */\n      0x10\n      0x00\n        /* \"contracts/BananaNFT.sol\":2514:2531  ++_tokenIdCounter */\n      dup2\n      sload\n      tag_331\n      swap1\n      tag_268\n      jump\t// in\n    tag_331:\n      swap1\n      swap2\n      sstore\n      pop\n        /* \"contracts/BananaNFT.sol\":2560:2575  _tokenIdCounter */\n      sload(0x10)\n        /* \"contracts/BananaNFT.sol\":2599:2609  msg.sender */\n      caller\n        /* \"contracts/BananaNFT.sol\":2542:2557  uint256 tokenId */\n      0x00\n        /* \"contracts/BananaNFT.sol\":2586:2610  lastMintTime[msg.sender] */\n      dup2\n      dup2\n      mstore\n        /* \"contracts/BananaNFT.sol\":2586:2598  lastMintTime */\n      0x14\n        /* \"contracts/BananaNFT.sol\":2586:2610  lastMintTime[msg.sender] */\n      0x20\n      mstore\n      0x40\n      swap1\n      keccak256\n        /* \"contracts/BananaNFT.sol\":2613:2628  block.timestamp */\n      timestamp\n        /* \"contracts/BananaNFT.sol\":2586:2628  lastMintTime[msg.sender] = block.timestamp */\n      swap1\n      sstore\n        /* \"contracts/BananaNFT.sol\":2639:2669  _safeMint(msg.sender, tokenId) */\n      tag_332\n      swap1\n        /* \"contracts/BananaNFT.sol\":2560:2575  _tokenIdCounter */\n      dup3\n        /* \"contracts/BananaNFT.sol\":2639:2648  _safeMint */\n      tag_278\n        /* \"contracts/BananaNFT.sol\":2639:2669  _safeMint(msg.sender, tokenId) */\n      jump\t// in\n    tag_332:\n        /* \"contracts/BananaNFT.sol\":2680:2706  _setTokenURI(tokenId, uri) */\n      tag_333\n        /* \"contracts/BananaNFT.sol\":2693:2700  tokenId */\n      dup2\n        /* \"contracts/BananaNFT.sol\":2702:2705  uri */\n      dup4\n        /* \"contracts/BananaNFT.sol\":2680:2692  _setTokenURI */\n      tag_280\n        /* \"contracts/BananaNFT.sol\":2680:2706  _setTokenURI(tokenId, uri) */\n      jump\t// in\n    tag_333:\n        /* \"contracts/BananaNFT.sol\":2724:2751  Minted(msg.sender, tokenId) */\n      mload(0x40)\n        /* \"#utility.yul\":160:185   */\n      dup2\n      dup2\n      mstore\n        /* \"contracts/BananaNFT.sol\":2731:2741  msg.sender */\n      caller\n      swap1\n        /* \"contracts/BananaNFT.sol\":2724:2751  Minted(msg.sender, tokenId) */\n      0x30385c845b448a36257a6a1716e6ad2e1bc2cbe333cde1e69fe849ad6511adfe\n      swap1\n        /* \"#utility.yul\":148:150   */\n      0x20\n        /* \"#utility.yul\":133:151   */\n      add\n        /* \"contracts/BananaNFT.sol\":2724:2751  Minted(msg.sender, tokenId) */\n      mload(0x40)\n      dup1\n      swap2\n      sub\n      swap1\n      log2\n        /* \"contracts/BananaNFT.sol\":2222:2759  {... */\n      pop\n        /* \"@openzeppelin/contracts/utils/ReentrancyGuard.sol\":2398:2418  _nonReentrantAfter() */\n      tag_246\n        /* \"@openzeppelin/contracts/utils/ReentrancyGuard.sol\":1713:1714  1 */\n      0x01\n        /* \"@openzeppelin/contracts/utils/ReentrancyGuard.sol\":2924:2931  _status */\n      0x0a\n        /* \"@openzeppelin/contracts/utils/ReentrancyGuard.sol\":2924:2945  _status = NOT_ENTERED */\n      sstore\n        /* \"@openzeppelin/contracts/utils/ReentrancyGuard.sol\":2744:2952  function _nonReentrantAfter() private {... */\n      jump\n        /* \"contracts/BananaNFT.sol\":2995:3089  function flipSaleActive() external onlyOwner {... */\n    tag_180:\n        /* \"@openzeppelin/contracts/access/Ownable.sol\":1531:1544  _checkOwner() */\n      tag_337\n        /* \"@openzeppelin/contracts/access/Ownable.sol\":1531:1542  _checkOwner */\n      tag_243\n        /* \"@openzeppelin/contracts/access/Ownable.sol\":1531:1544  _checkOwner() */\n      jump\t// in\n    tag_337:\n        /* \"contracts/BananaNFT.sol\":3068:3081  _isSaleActive */\n      0x0f\n      dup1\n      sload\n      not(0xff)\n        /* \"contracts/BananaNFT.sol\":3051:3081  _isSaleActive = !_isSaleActive */\n      dup2\n      and\n        /* \"contracts/BananaNFT.sol\":3068:3081  _isSaleActive */\n      0xff\n      swap1\n      swap2\n      and\n        /* \"contracts/BananaNFT.sol\":3067:3081  !_isSaleActive */\n      iszero\n        /* \"contracts/BananaNFT.sol\":3051:3081  _isSaleActive = !_isSaleActive */\n      or\n      swap1\n      sstore\n        /* \"contracts/BananaNFT.sol\":2995:3089  function flipSaleActive() external onlyOwner {... */\n      jump\t// out\n        /* \"contracts/BananaNFT.sol\":2767:2865  function addToWhitelist(address user) external onlyOwner {... */\n    tag_184:\n        /* \"@openzeppelin/contracts/access/Ownable.sol\":1531:1544  _checkOwner() */\n      tag_340\n        /* \"@openzeppelin/contracts/access/Ownable.sol\":1531:1542  _checkOwner */\n      tag_243\n        /* \"@openzeppelin/contracts/access/Ownable.sol\":1531:1544  _checkOwner() */\n      jump\t// in\n    tag_340:\n      sub(shl(0xa0, 0x01), 0x01)\n        /* \"contracts/BananaNFT.sol\":2835:2850  whitelist[user] */\n      and\n      0x00\n      swap1\n      dup2\n      mstore\n        /* \"contracts/BananaNFT.sol\":2835:2844  whitelist */\n      0x13\n        /* \"contracts/BananaNFT.sol\":2835:2850  whitelist[user] */\n      0x20\n      mstore\n      0x40\n      swap1\n      keccak256\n        /* \"contracts/BananaNFT.sol\":2835:2857  whitelist[user] = true */\n      dup1\n      sload\n      not(0xff)\n      and\n        /* \"contracts/BananaNFT.sol\":2853:2857  true */\n      0x01\n        /* \"contracts/BananaNFT.sol\":2835:2857  whitelist[user] = true */\n      or\n      swap1\n      sstore\n        /* \"contracts/BananaNFT.sol\":2767:2865  function addToWhitelist(address user) external onlyOwner {... */\n      jump\t// out\n        /* \"@openzeppelin/contracts/token/ERC721/ERC721.sol\":3928:4081  function isApprovedForAll(address owner, address operator) public view virtual returns (bool) {... */\n    tag_189:\n      sub(shl(0xa0, 0x01), 0x01)\n        /* \"@openzeppelin/contracts/token/ERC721/ERC721.sol\":4039:4064  _operatorApprovals[owner] */\n      swap2\n      dup3\n      and\n        /* \"@openzeppelin/contracts/token/ERC721/ERC721.sol\":4016:4020  bool */\n      0x00\n        /* \"@openzeppelin/contracts/token/ERC721/ERC721.sol\":4039:4064  _operatorApprovals[owner] */\n      swap1\n      dup2\n      mstore\n        /* \"@openzeppelin/contracts/token/ERC721/ERC721.sol\":4039:4057  _operatorApprovals */\n      0x05\n        /* \"@openzeppelin/contracts/token/ERC721/ERC721.sol\":4039:4064  _operatorApprovals[owner] */\n      0x20\n      swap1\n      dup2\n      mstore\n      0x40\n      dup1\n      dup4\n      keccak256\n        /* \"@openzeppelin/contracts/token/ERC721/ERC721.sol\":4039:4074  _operatorApprovals[owner][operator] */\n      swap4\n      swap1\n      swap5\n      and\n      dup3\n      mstore\n      swap2\n      swap1\n      swap2\n      mstore\n      keccak256\n      sload\n      0xff\n      and\n      swap1\n        /* \"@openzeppelin/contracts/token/ERC721/ERC721.sol\":3928:4081  function isApprovedForAll(address owner, address operator) public view virtual returns (bool) {... */\n      jump\t// out\n        /* \"@openzeppelin/contracts/access/Ownable.sol\":2543:2758  function transferOwnership(address newOwner) public virtual onlyOwner {... */\n    tag_194:\n        /* \"@openzeppelin/contracts/access/Ownable.sol\":1531:1544  _checkOwner() */\n      tag_344\n        /* \"@openzeppelin/contracts/access/Ownable.sol\":1531:1542  _checkOwner */\n      tag_243\n        /* \"@openzeppelin/contracts/access/Ownable.sol\":1531:1544  _checkOwner() */\n      jump\t// in\n    tag_344:\n      sub(shl(0xa0, 0x01), 0x01)\n        /* \"@openzeppelin/contracts/access/Ownable.sol\":2627:2649  newOwner == address(0) */\n      dup2\n      and\n        /* \"@openzeppelin/contracts/access/Ownable.sol\":2623:2714  if (newOwner == address(0)) {... */\n      tag_346\n      jumpi\n        /* \"@openzeppelin/contracts/access/Ownable.sol\":2672:2703  OwnableInvalidOwner(address(0)) */\n      mload(0x40)\n      shl(0xe0, 0x1e4fbdf7)\n      dup2\n      mstore\n        /* \"@openzeppelin/contracts/access/Ownable.sol\":2700:2701  0 */\n      0x00\n        /* \"@openzeppelin/contracts/access/Ownable.sol\":2672:2703  OwnableInvalidOwner(address(0)) */\n      0x04\n      dup3\n      add\n        /* \"#utility.yul\":1781:1832   */\n      mstore\n        /* \"#utility.yul\":1754:1772   */\n      0x24\n      add\n        /* \"@openzeppelin/contracts/access/Ownable.sol\":2672:2703  OwnableInvalidOwner(address(0)) */\n      tag_229\n        /* \"#utility.yul\":1635:1838   */\n      jump\n        /* \"@openzeppelin/contracts/access/Ownable.sol\":2623:2714  if (newOwner == address(0)) {... */\n    tag_346:\n        /* \"@openzeppelin/contracts/access/Ownable.sol\":2723:2751  _transferOwnership(newOwner) */\n      tag_246\n        /* \"@openzeppelin/contracts/access/Ownable.sol\":2742:2750  newOwner */\n      dup2\n        /* \"@openzeppelin/contracts/access/Ownable.sol\":2723:2741  _transferOwnership */\n      tag_293\n        /* \"@openzeppelin/contracts/access/Ownable.sol\":2723:2751  _transferOwnership(newOwner) */\n      jump\t// in\n        /* \"contracts/BananaNFT.sol\":3097:3199  function setMintPrice(uint256 _mintPrice) external onlyOwner {... */\n    tag_198:\n        /* \"@openzeppelin/contracts/access/Ownable.sol\":1531:1544  _checkOwner() */\n      tag_350\n        /* \"@openzeppelin/contracts/access/Ownable.sol\":1531:1542  _checkOwner */\n      tag_243\n        /* \"@openzeppelin/contracts/access/Ownable.sol\":1531:1544  _checkOwner() */\n      jump\t// in\n    tag_350:\n        /* \"contracts/BananaNFT.sol\":3169:3178  mintPrice */\n      0x0c\n        /* \"contracts/BananaNFT.sol\":3169:3191  mintPrice = _mintPrice */\n      sstore\n        /* \"contracts/BananaNFT.sol\":3097:3199  function setMintPrice(uint256 _mintPrice) external onlyOwner {... */\n      jump\t// out\n        /* \"@openzeppelin/contracts/token/ERC721/ERC721.sol\":1561:1861  function supportsInterface(bytes4 interfaceId) public view virtual override(ERC165, IERC165) returns (bool) {... */\n    tag_203:\n        /* \"@openzeppelin/contracts/token/ERC721/ERC721.sol\":1663:1667  bool */\n      0x00\n      not(sub(shl(0xe0, 0x01), 0x01))\n        /* \"@openzeppelin/contracts/token/ERC721/ERC721.sol\":1698:1738  interfaceId == type(IERC721).interfaceId */\n      dup3\n      and\n      shl(0xe0, 0x80ac58cd)\n      eq\n      dup1\n        /* \"@openzeppelin/contracts/token/ERC721/ERC721.sol\":1698:1802  interfaceId == type(IERC721).interfaceId ||... */\n      tag_353\n      jumpi\n      pop\n      not(sub(shl(0xe0, 0x01), 0x01))\n        /* \"@openzeppelin/contracts/token/ERC721/ERC721.sol\":1754:1802  interfaceId == type(IERC721Metadata).interfaceId */\n      dup3\n      and\n      shl(0xe0, 0x5b5e139f)\n      eq\n        /* \"@openzeppelin/contracts/token/ERC721/ERC721.sol\":1698:1802  interfaceId == type(IERC721).interfaceId ||... */\n    tag_353:\n        /* \"@openzeppelin/contracts/token/ERC721/ERC721.sol\":1698:1854  interfaceId == type(IERC721).interfaceId ||... */\n      dup1\n      tag_202\n      jumpi\n      pop\n      shl(0xe0, 0x01ffc9a7)\n      not(sub(shl(0xe0, 0x01), 0x01))\n        /* \"@openzeppelin/contracts/utils/introspection/ERC165.sol\":861:901  interfaceId == type(IERC165).interfaceId */\n      dup4\n      and\n      eq\n        /* \"@openzeppelin/contracts/token/ERC721/ERC721.sol\":1818:1854  super.supportsInterface(interfaceId) */\n      tag_202\n        /* \"@openzeppelin/contracts/utils/introspection/ERC165.sol\":762:908  function supportsInterface(bytes4 interfaceId) public view virtual returns (bool) {... */\n      jump\n        /* \"@openzeppelin/contracts/token/ERC721/ERC721.sol\":16138:16379  function _requireOwned(uint256 tokenId) internal view returns (address) {... */\n    tag_213:\n        /* \"@openzeppelin/contracts/token/ERC721/ERC721.sol\":16201:16208  address */\n      0x00\n        /* \"@openzeppelin/contracts/token/ERC721/ERC721.sol\":5799:5815  _owners[tokenId] */\n      dup2\n      dup2\n      mstore\n        /* \"@openzeppelin/contracts/token/ERC721/ERC721.sol\":5799:5806  _owners */\n      0x02\n        /* \"@openzeppelin/contracts/token/ERC721/ERC721.sol\":5799:5815  _owners[tokenId] */\n      0x20\n      mstore\n      0x40\n      dup2\n      keccak256\n      sload\n      sub(shl(0xa0, 0x01), 0x01)\n      and\n      dup1\n        /* \"@openzeppelin/contracts/token/ERC721/ERC721.sol\":16263:16351  if (owner == address(0)) {... */\n      tag_202\n      jumpi\n        /* \"@openzeppelin/contracts/token/ERC721/ERC721.sol\":16309:16340  ERC721NonexistentToken(tokenId) */\n      mload(0x40)\n      shl(0xe0, 0x7e273289)\n      dup2\n      mstore\n      0x04\n      dup2\n      add\n        /* \"#utility.yul\":160:185   */\n      dup5\n      swap1\n      mstore\n        /* \"#utility.yul\":133:151   */\n      0x24\n      add\n        /* \"@openzeppelin/contracts/token/ERC721/ERC721.sol\":16309:16340  ERC721NonexistentToken(tokenId) */\n      tag_229\n        /* \"#utility.yul\":14:191   */\n      jump\n        /* \"@openzeppelin/contracts/token/ERC721/ERC721.sol\":14418:14538  function _approve(address to, uint256 tokenId, address auth) internal {... */\n    tag_220:\n        /* \"@openzeppelin/contracts/token/ERC721/ERC721.sol\":14498:14531  _approve(to, tokenId, auth, true) */\n      tag_248\n        /* \"@openzeppelin/contracts/token/ERC721/ERC721.sol\":14507:14509  to */\n      dup4\n        /* \"@openzeppelin/contracts/token/ERC721/ERC721.sol\":14511:14518  tokenId */\n      dup4\n        /* \"@openzeppelin/contracts/token/ERC721/ERC721.sol\":14520:14524  auth */\n      dup4\n        /* \"@openzeppelin/contracts/token/ERC721/ERC721.sol\":14526:14530  true */\n      0x01\n        /* \"@openzeppelin/contracts/token/ERC721/ERC721.sol\":14498:14506  _approve */\n      tag_366\n        /* \"@openzeppelin/contracts/token/ERC721/ERC721.sol\":14498:14531  _approve(to, tokenId, auth, true) */\n      jump\t// in\n        /* \"@openzeppelin/contracts/token/ERC721/extensions/ERC721Enumerable.sol\":2518:3143  function _update(address to, uint256 tokenId, address auth) internal virtual override returns (address) {... */\n    tag_232:\n        /* \"@openzeppelin/contracts/token/ERC721/extensions/ERC721Enumerable.sol\":2613:2620  address */\n      0x00\n        /* \"@openzeppelin/contracts/token/ERC721/extensions/ERC721Enumerable.sol\":2632:2653  address previousOwner */\n      dup1\n        /* \"@openzeppelin/contracts/token/ERC721/extensions/ERC721Enumerable.sol\":2656:2688  super._update(to, tokenId, auth) */\n      tag_368\n        /* \"@openzeppelin/contracts/token/ERC721/extensions/ERC721Enumerable.sol\":2670:2672  to */\n      dup6\n        /* \"@openzeppelin/contracts/token/ERC721/extensions/ERC721Enumerable.sol\":2674:2681  tokenId */\n      dup6\n        /* \"@openzeppelin/contracts/token/ERC721/extensions/ERC721Enumerable.sol\":2683:2687  auth */\n      dup6\n        /* \"@openzeppelin/contracts/token/ERC721/extensions/ERC721Enumerable.sol\":2656:2669  super._update */\n      tag_369\n        /* \"@openzeppelin/contracts/token/ERC721/extensions/ERC721Enumerable.sol\":2656:2688  super._update(to, tokenId, auth) */\n      jump\t// in\n    tag_368:\n        /* \"@openzeppelin/contracts/token/ERC721/extensions/ERC721Enumerable.sol\":2632:2688  address previousOwner = super._update(to, tokenId, auth) */\n      swap1\n      pop\n      sub(shl(0xa0, 0x01), 0x01)\n        /* \"@openzeppelin/contracts/token/ERC721/extensions/ERC721Enumerable.sol\":2703:2730  previousOwner == address(0) */\n      dup2\n      and\n        /* \"@openzeppelin/contracts/token/ERC721/extensions/ERC721Enumerable.sol\":2699:2909  if (previousOwner == address(0)) {... */\n      tag_370\n      jumpi\n        /* \"@openzeppelin/contracts/token/ERC721/extensions/ERC721Enumerable.sol\":2746:2786  _addTokenToAllTokensEnumeration(tokenId) */\n      tag_371\n        /* \"@openzeppelin/contracts/token/ERC721/extensions/ERC721Enumerable.sol\":2778:2785  tokenId */\n      dup5\n        /* \"@openzeppelin/contracts/token/ERC721/extensions/ERC721Enumerable.sol\":3949:3959  _allTokens */\n      0x08\n        /* \"@openzeppelin/contracts/token/ERC721/extensions/ERC721Enumerable.sol\":3949:3966  _allTokens.length */\n      dup1\n      sload\n        /* \"@openzeppelin/contracts/token/ERC721/extensions/ERC721Enumerable.sol\":3922:3946  _allTokensIndex[tokenId] */\n      0x00\n      dup4\n      dup2\n      mstore\n        /* \"@openzeppelin/contracts/token/ERC721/extensions/ERC721Enumerable.sol\":3922:3937  _allTokensIndex */\n      0x09\n        /* \"@openzeppelin/contracts/token/ERC721/extensions/ERC721Enumerable.sol\":3922:3946  _allTokensIndex[tokenId] */\n      0x20\n      mstore\n      0x40\n      dup2\n      keccak256\n        /* \"@openzeppelin/contracts/token/ERC721/extensions/ERC721Enumerable.sol\":3922:3966  _allTokensIndex[tokenId] = _allTokens.length */\n      dup3\n      swap1\n      sstore\n        /* \"@openzeppelin/contracts/token/ERC721/extensions/ERC721Enumerable.sol\":3976:4000  _allTokens.push(tokenId) */\n      0x01\n      dup3\n      add\n      dup4\n      sstore\n      swap2\n      swap1\n      swap2\n      mstore\n      0xf3f7a9fe364faab93b216da50a3214154f22a0a2b415b23a84c8169e8b636ee3\n      add\n      sstore\n        /* \"@openzeppelin/contracts/token/ERC721/extensions/ERC721Enumerable.sol\":3846:4007  function _addTokenToAllTokensEnumeration(uint256 tokenId) private {... */\n      jump\n        /* \"@openzeppelin/contracts/token/ERC721/extensions/ERC721Enumerable.sol\":2746:2786  _addTokenToAllTokensEnumeration(tokenId) */\n    tag_371:\n        /* \"@openzeppelin/contracts/token/ERC721/extensions/ERC721Enumerable.sol\":2699:2909  if (previousOwner == address(0)) {... */\n      jump(tag_375)\n    tag_370:\n        /* \"@openzeppelin/contracts/token/ERC721/extensions/ERC721Enumerable.sol\":2824:2826  to */\n      dup5\n      sub(shl(0xa0, 0x01), 0x01)\n        /* \"@openzeppelin/contracts/token/ERC721/extensions/ERC721Enumerable.sol\":2807:2826  previousOwner != to */\n      and\n        /* \"@openzeppelin/contracts/token/ERC721/extensions/ERC721Enumerable.sol\":2807:2820  previousOwner */\n      dup2\n      sub(shl(0xa0, 0x01), 0x01)\n        /* \"@openzeppelin/contracts/token/ERC721/extensions/ERC721Enumerable.sol\":2807:2826  previousOwner != to */\n      and\n      eq\n        /* \"@openzeppelin/contracts/token/ERC721/extensions/ERC721Enumerable.sol\":2803:2909  if (previousOwner != to) {... */\n      tag_375\n      jumpi\n        /* \"@openzeppelin/contracts/token/ERC721/extensions/ERC721Enumerable.sol\":2842:2898  _removeTokenFromOwnerEnumeration(previousOwner, tokenId) */\n      tag_375\n        /* \"@openzeppelin/contracts/token/ERC721/extensions/ERC721Enumerable.sol\":2875:2888  previousOwner */\n      dup2\n        /* \"@openzeppelin/contracts/token/ERC721/extensions/ERC721Enumerable.sol\":2890:2897  tokenId */\n      dup6\n        /* \"@openzeppelin/contracts/token/ERC721/extensions/ERC721Enumerable.sol\":2842:2874  _removeTokenFromOwnerEnumeration */\n      tag_376\n        /* \"@openzeppelin/contracts/token/ERC721/extensions/ERC721Enumerable.sol\":2842:2898  _removeTokenFromOwnerEnumeration(previousOwner, tokenId) */\n      jump\t// in\n    tag_375:\n      sub(shl(0xa0, 0x01), 0x01)\n        /* \"@openzeppelin/contracts/token/ERC721/extensions/ERC721Enumerable.sol\":2922:2938  to == address(0) */\n      dup6\n      and\n        /* \"@openzeppelin/contracts/token/ERC721/extensions/ERC721Enumerable.sol\":2918:3106  if (to == address(0)) {... */\n      tag_377\n      jumpi\n        /* \"@openzeppelin/contracts/token/ERC721/extensions/ERC721Enumerable.sol\":2954:2999  _removeTokenFromAllTokensEnumeration(tokenId) */\n      tag_378\n        /* \"@openzeppelin/contracts/token/ERC721/extensions/ERC721Enumerable.sol\":2991:2998  tokenId */\n      dup5\n        /* \"@openzeppelin/contracts/token/ERC721/extensions/ERC721Enumerable.sol\":2954:2990  _removeTokenFromAllTokensEnumeration */\n      tag_379\n        /* \"@openzeppelin/contracts/token/ERC721/extensions/ERC721Enumerable.sol\":2954:2999  _removeTokenFromAllTokensEnumeration(tokenId) */\n      jump\t// in\n    tag_378:\n        /* \"@openzeppelin/contracts/token/ERC721/extensions/ERC721Enumerable.sol\":2918:3106  if (to == address(0)) {... */\n      jump(tag_382)\n    tag_377:\n        /* \"@openzeppelin/contracts/token/ERC721/extensions/ERC721Enumerable.sol\":3037:3039  to */\n      dup5\n      sub(shl(0xa0, 0x01), 0x01)\n        /* \"@openzeppelin/contracts/token/ERC721/extensions/ERC721Enumerable.sol\":3020:3039  previousOwner != to */\n      and\n        /* \"@openzeppelin/contracts/token/ERC721/extensions/ERC721Enumerable.sol\":3020:3033  previousOwner */\n      dup2\n      sub(shl(0xa0, 0x01), 0x01)\n        /* \"@openzeppelin/contracts/token/ERC721/extensions/ERC721Enumerable.sol\":3020:3039  previousOwner != to */\n      and\n      eq\n        /* \"@openzeppelin/contracts/token/ERC721/extensions/ERC721Enumerable.sol\":3016:3106  if (previousOwner != to) {... */\n      tag_382\n      jumpi\n        /* \"@openzeppelin/contracts/token/ERC721/extensions/ERC721Enumerable.sol\":3055:3095  _addTokenToOwnerEnumeration(to, tokenId) */\n      tag_382\n        /* \"@openzeppelin/contracts/token/ERC721/extensions/ERC721Enumerable.sol\":3083:3085  to */\n      dup6\n        /* \"@openzeppelin/contracts/token/ERC721/extensions/ERC721Enumerable.sol\":3087:3094  tokenId */\n      dup6\n        /* \"@openzeppelin/contracts/token/ERC721/extensions/ERC721Enumerable.sol\":3055:3082  _addTokenToOwnerEnumeration */\n      tag_383\n        /* \"@openzeppelin/contracts/token/ERC721/extensions/ERC721Enumerable.sol\":3055:3095  _addTokenToOwnerEnumeration(to, tokenId) */\n      jump\t// in\n    tag_382:\n        /* \"@openzeppelin/contracts/token/ERC721/extensions/ERC721Enumerable.sol\":3123:3136  previousOwner */\n      swap5\n        /* \"@openzeppelin/contracts/token/ERC721/extensions/ERC721Enumerable.sol\":2518:3143  function _update(address to, uint256 tokenId, address auth) internal virtual override returns (address) {... */\n      swap4\n      pop\n      pop\n      pop\n      pop\n      jump\t// out\n        /* \"@openzeppelin/contracts/access/Ownable.sol\":1796:1958  function _checkOwner() internal view virtual {... */\n    tag_243:\n        /* \"@openzeppelin/contracts/access/Ownable.sol\":1710:1716  _owner */\n      and(sub(shl(0xa0, 0x01), 0x01), sload(0x0b))\n        /* \"@openzeppelin/contracts/utils/Context.sol\":735:745  msg.sender */\n      caller\n        /* \"@openzeppelin/contracts/access/Ownable.sol\":1855:1878  owner() != _msgSender() */\n      eq\n        /* \"@openzeppelin/contracts/access/Ownable.sol\":1851:1952  if (owner() != _msgSender()) {... */\n      tag_292\n      jumpi\n        /* \"@openzeppelin/contracts/access/Ownable.sol\":1901:1941  OwnableUnauthorizedAccount(_msgSender()) */\n      mload(0x40)\n      shl(0xe0, 0x118cdaa7)\n      dup2\n      mstore\n        /* \"@openzeppelin/contracts/utils/Context.sol\":735:745  msg.sender */\n      caller\n        /* \"@openzeppelin/contracts/access/Ownable.sol\":1901:1941  OwnableUnauthorizedAccount(_msgSender()) */\n      0x04\n      dup3\n      add\n        /* \"#utility.yul\":1781:1832   */\n      mstore\n        /* \"#utility.yul\":1754:1772   */\n      0x24\n      add\n        /* \"@openzeppelin/contracts/access/Ownable.sol\":1901:1941  OwnableUnauthorizedAccount(_msgSender()) */\n      tag_229\n        /* \"#utility.yul\":1635:1838   */\n      jump\n        /* \"@openzeppelin/contracts/utils/ReentrancyGuard.sol\":2431:2738  function _nonReentrantBefore() private {... */\n    tag_259:\n        /* \"@openzeppelin/contracts/utils/ReentrancyGuard.sol\":1755:1756  2 */\n      0x02\n        /* \"@openzeppelin/contracts/utils/ReentrancyGuard.sol\":2558:2565  _status */\n      sload(0x0a)\n        /* \"@openzeppelin/contracts/utils/ReentrancyGuard.sol\":2558:2576  _status == ENTERED */\n      sub\n        /* \"@openzeppelin/contracts/utils/ReentrancyGuard.sol\":2554:2640  if (_status == ENTERED) {... */\n      tag_391\n      jumpi\n        /* \"@openzeppelin/contracts/utils/ReentrancyGuard.sol\":2599:2629  ReentrancyGuardReentrantCall() */\n      mload(0x40)\n      shl(0xe0, 0x3ee5aeb5)\n      dup2\n      mstore\n      0x04\n      add\n      mload(0x40)\n      dup1\n      swap2\n      sub\n      swap1\n      revert\n        /* \"@openzeppelin/contracts/utils/ReentrancyGuard.sol\":2554:2640  if (_status == ENTERED) {... */\n    tag_391:\n        /* \"@openzeppelin/contracts/utils/ReentrancyGuard.sol\":1755:1756  2 */\n      0x02\n        /* \"@openzeppelin/contracts/utils/ReentrancyGuard.sol\":2714:2721  _status */\n      0x0a\n        /* \"@openzeppelin/contracts/utils/ReentrancyGuard.sol\":2714:2731  _status = ENTERED */\n      sstore\n        /* \"@openzeppelin/contracts/utils/ReentrancyGuard.sol\":2431:2738  function _nonReentrantBefore() private {... */\n      jump\t// out\n        /* \"@openzeppelin/contracts/token/ERC721/ERC721.sol\":10633:10733  function _safeMint(address to, uint256 tokenId) internal {... */\n    tag_278:\n        /* \"@openzeppelin/contracts/token/ERC721/ERC721.sol\":10700:10726  _safeMint(to, tokenId, \"\") */\n      tag_217\n        /* \"@openzeppelin/contracts/token/ERC721/ERC721.sol\":10710:10712  to */\n      dup3\n        /* \"@openzeppelin/contracts/token/ERC721/ERC721.sol\":10714:10721  tokenId */\n      dup3\n        /* \"@openzeppelin/contracts/token/ERC721/ERC721.sol\":10700:10726  _safeMint(to, tokenId, \"\") */\n      mload(0x40)\n      dup1\n      0x20\n      add\n      0x40\n      mstore\n      dup1\n      0x00\n      dup2\n      mstore\n      pop\n        /* \"@openzeppelin/contracts/token/ERC721/ERC721.sol\":10700:10709  _safeMint */\n      tag_394\n        /* \"@openzeppelin/contracts/token/ERC721/ERC721.sol\":10700:10726  _safeMint(to, tokenId, \"\") */\n      jump\t// in\n        /* \"contracts/BananaNFT.sol\":3434:3557  function _setTokenURI(uint256 tokenId, string memory _tokenURI) internal {... */\n    tag_280:\n        /* \"contracts/BananaNFT.sol\":3518:3537  _tokenURIs[tokenId] */\n      0x00\n      dup3\n      dup2\n      mstore\n        /* \"contracts/BananaNFT.sol\":3518:3528  _tokenURIs */\n      0x12\n        /* \"contracts/BananaNFT.sol\":3518:3537  _tokenURIs[tokenId] */\n      0x20\n      mstore\n      0x40\n      swap1\n      keccak256\n        /* \"contracts/BananaNFT.sol\":3518:3549  _tokenURIs[tokenId] = _tokenURI */\n      tag_248\n        /* \"contracts/BananaNFT.sol\":3540:3549  _tokenURI */\n      dup3\n        /* \"contracts/BananaNFT.sol\":3518:3537  _tokenURIs[tokenId] */\n      dup3\n        /* \"contracts/BananaNFT.sol\":3518:3549  _tokenURIs[tokenId] = _tokenURI */\n      tag_397\n      jump\t// in\n        /* \"@openzeppelin/contracts/access/Ownable.sol\":2912:3099  function _transferOwnership(address newOwner) internal virtual {... */\n    tag_293:\n        /* \"@openzeppelin/contracts/access/Ownable.sol\":3004:3010  _owner */\n      0x0b\n      dup1\n      sload\n      sub(shl(0xa0, 0x01), 0x01)\n        /* \"@openzeppelin/contracts/access/Ownable.sol\":3020:3037  _owner = newOwner */\n      dup4\n      dup2\n      and\n      not(sub(shl(0xa0, 0x01), 0x01))\n      dup4\n      and\n      dup2\n      or\n      swap1\n      swap4\n      sstore\n        /* \"@openzeppelin/contracts/access/Ownable.sol\":3052:3092  OwnershipTransferred(oldOwner, newOwner) */\n      mload(0x40)\n        /* \"@openzeppelin/contracts/access/Ownable.sol\":3004:3010  _owner */\n      swap2\n      and\n      swap2\n        /* \"@openzeppelin/contracts/access/Ownable.sol\":3020:3037  _owner = newOwner */\n      swap1\n        /* \"@openzeppelin/contracts/access/Ownable.sol\":3004:3010  _owner */\n      dup3\n      swap1\n        /* \"@openzeppelin/contracts/access/Ownable.sol\":3052:3092  OwnershipTransferred(oldOwner, newOwner) */\n      0x8be0079c531659141344cd1fd0a4f28419497f9722a3daafe3b4186f6b6457e0\n      swap1\n        /* \"@openzeppelin/contracts/access/Ownable.sol\":2985:3001  address oldOwner */\n      0x00\n      swap1\n        /* \"@openzeppelin/contracts/access/Ownable.sol\":3052:3092  OwnershipTransferred(oldOwner, newOwner) */\n      log3\n        /* \"@openzeppelin/contracts/access/Ownable.sol\":2975:3099  {... */\n      pop\n        /* \"@openzeppelin/contracts/access/Ownable.sol\":2912:3099  function _transferOwnership(address newOwner) internal virtual {... */\n      pop\n      jump\t// out\n        /* \"@openzeppelin/contracts/token/ERC721/ERC721.sol\":15591:15903  function _setApprovalForAll(address owner, address operator, bool approved) internal virtual {... */\n    tag_304:\n      sub(shl(0xa0, 0x01), 0x01)\n        /* \"@openzeppelin/contracts/token/ERC721/ERC721.sol\":15698:15720  operator == address(0) */\n      dup3\n      and\n        /* \"@openzeppelin/contracts/token/ERC721/ERC721.sol\":15694:15785  if (operator == address(0)) {... */\n      tag_401\n      jumpi\n        /* \"@openzeppelin/contracts/token/ERC721/ERC721.sol\":15743:15774  ERC721InvalidOperator(operator) */\n      mload(0x40)\n      shl(0xe3, 0x0b611743)\n      dup2\n      mstore\n      sub(shl(0xa0, 0x01), 0x01)\n        /* \"#utility.yul\":1799:1831   */\n      dup4\n      and\n        /* \"@openzeppelin/contracts/token/ERC721/ERC721.sol\":15743:15774  ERC721InvalidOperator(operator) */\n      0x04\n      dup3\n      add\n        /* \"#utility.yul\":1781:1832   */\n      mstore\n        /* \"#utility.yul\":1754:1772   */\n      0x24\n      add\n        /* \"@openzeppelin/contracts/token/ERC721/ERC721.sol\":15743:15774  ERC721InvalidOperator(operator) */\n      tag_229\n        /* \"#utility.yul\":1635:1838   */\n      jump\n        /* \"@openzeppelin/contracts/token/ERC721/ERC721.sol\":15694:15785  if (operator == address(0)) {... */\n    tag_401:\n      sub(shl(0xa0, 0x01), 0x01)\n        /* \"@openzeppelin/contracts/token/ERC721/ERC721.sol\":15794:15819  _operatorApprovals[owner] */\n      dup4\n      dup2\n      and\n      0x00\n      dup2\n      dup2\n      mstore\n        /* \"@openzeppelin/contracts/token/ERC721/ERC721.sol\":15794:15812  _operatorApprovals */\n      0x05\n        /* \"@openzeppelin/contracts/token/ERC721/ERC721.sol\":15794:15819  _operatorApprovals[owner] */\n      0x20\n      swap1\n      dup2\n      mstore\n      0x40\n      dup1\n      dup4\n      keccak256\n        /* \"@openzeppelin/contracts/token/ERC721/ERC721.sol\":15794:15829  _operatorApprovals[owner][operator] */\n      swap5\n      dup8\n      and\n      dup1\n      dup5\n      mstore\n      swap5\n      dup3\n      mstore\n      swap2\n      dup3\n      swap1\n      keccak256\n        /* \"@openzeppelin/contracts/token/ERC721/ERC721.sol\":15794:15840  _operatorApprovals[owner][operator] = approved */\n      dup1\n      sload\n      not(0xff)\n      and\n      dup7\n      iszero\n      iszero\n      swap1\n      dup2\n      or\n      swap1\n      swap2\n      sstore\n        /* \"@openzeppelin/contracts/token/ERC721/ERC721.sol\":15855:15896  ApprovalForAll(owner, operator, approved) */\n      swap2\n      mload\n        /* \"#utility.yul\":722:763   */\n      swap2\n      dup3\n      mstore\n        /* \"@openzeppelin/contracts/token/ERC721/ERC721.sol\":15855:15896  ApprovalForAll(owner, operator, approved) */\n      0x17307eab39ab6107e8899845ad3d59bd9653f200f220920489ca2b5937696c31\n      swap2\n        /* \"#utility.yul\":695:713   */\n      add\n        /* \"@openzeppelin/contracts/token/ERC721/ERC721.sol\":15855:15896  ApprovalForAll(owner, operator, approved) */\n      mload(0x40)\n      dup1\n      swap2\n      sub\n      swap1\n      log3\n        /* \"@openzeppelin/contracts/token/ERC721/ERC721.sol\":15591:15903  function _setApprovalForAll(address owner, address operator, bool approved) internal virtual {... */\n      pop\n      pop\n      pop\n      jump\t// out\n        /* \"@openzeppelin/contracts/token/ERC721/ERC721.sol\":16918:17700  function _checkOnERC721Received(address from, address to, uint256 tokenId, bytes memory data) private {... */\n    tag_308:\n      sub(shl(0xa0, 0x01), 0x01)\n        /* \"@openzeppelin/contracts/token/ERC721/ERC721.sol\":17034:17048  to.code.length */\n      dup4\n      and\n      extcodesize\n        /* \"@openzeppelin/contracts/token/ERC721/ERC721.sol\":17034:17052  to.code.length > 0 */\n      iszero\n        /* \"@openzeppelin/contracts/token/ERC721/ERC721.sol\":17030:17694  if (to.code.length > 0) {... */\n      tag_233\n      jumpi\n        /* \"@openzeppelin/contracts/token/ERC721/ERC721.sol\":17072:17143  IERC721Receiver(to).onERC721Received(_msgSender(), from, tokenId, data) */\n      mload(0x40)\n      shl(0xe1, 0x0a85bd01)\n      dup2\n      mstore\n      sub(shl(0xa0, 0x01), 0x01)\n        /* \"@openzeppelin/contracts/token/ERC721/ERC721.sol\":17072:17108  IERC721Receiver(to).onERC721Received */\n      dup5\n      and\n      swap1\n      0x150b7a02\n      swap1\n        /* \"@openzeppelin/contracts/token/ERC721/ERC721.sol\":17072:17143  IERC721Receiver(to).onERC721Received(_msgSender(), from, tokenId, data) */\n      tag_407\n      swap1\n        /* \"@openzeppelin/contracts/utils/Context.sol\":735:745  msg.sender */\n      caller\n      swap1\n        /* \"@openzeppelin/contracts/token/ERC721/ERC721.sol\":17123:17127  from */\n      dup9\n      swap1\n        /* \"@openzeppelin/contracts/token/ERC721/ERC721.sol\":17129:17136  tokenId */\n      dup8\n      swap1\n        /* \"@openzeppelin/contracts/token/ERC721/ERC721.sol\":17138:17142  data */\n      dup8\n      swap1\n        /* \"@openzeppelin/contracts/token/ERC721/ERC721.sol\":17072:17143  IERC721Receiver(to).onERC721Received(_msgSender(), from, tokenId, data) */\n      0x04\n      add\n      tag_408\n      jump\t// in\n    tag_407:\n      0x20\n      mload(0x40)\n      dup1\n      dup4\n      sub\n      dup2\n      0x00\n      dup8\n      gas\n      call\n      swap3\n      pop\n      pop\n      pop\n      dup1\n      iszero\n      tag_409\n      jumpi\n      pop\n      0x40\n      dup1\n      mload\n      0x1f\n      returndatasize\n      swap1\n      dup2\n      add\n      not(0x1f)\n      and\n      dup3\n      add\n      swap1\n      swap3\n      mstore\n      tag_410\n      swap2\n      dup2\n      add\n      swap1\n      tag_411\n      jump\t// in\n    tag_410:\n      0x01\n    tag_409:\n        /* \"@openzeppelin/contracts/token/ERC721/ERC721.sol\":17068:17684  try IERC721Receiver(to).onERC721Received(_msgSender(), from, tokenId, data) returns (bytes4 retval) {... */\n      tag_412\n      jumpi\n      returndatasize\n      dup1\n      dup1\n      iszero\n      tag_417\n      jumpi\n      mload(0x40)\n      swap2\n      pop\n      and(add(returndatasize, 0x3f), not(0x1f))\n      dup3\n      add\n      0x40\n      mstore\n      returndatasize\n      dup3\n      mstore\n      returndatasize\n      0x00\n      0x20\n      dup5\n      add\n      returndatacopy\n      jump(tag_416)\n    tag_417:\n      0x60\n      swap2\n      pop\n    tag_416:\n      pop\n        /* \"@openzeppelin/contracts/token/ERC721/ERC721.sol\":17381:17387  reason */\n      dup1\n        /* \"@openzeppelin/contracts/token/ERC721/ERC721.sol\":17381:17394  reason.length */\n      mload\n        /* \"@openzeppelin/contracts/token/ERC721/ERC721.sol\":17398:17399  0 */\n      0x00\n        /* \"@openzeppelin/contracts/token/ERC721/ERC721.sol\":17381:17399  reason.length == 0 */\n      sub\n        /* \"@openzeppelin/contracts/token/ERC721/ERC721.sol\":17377:17670  if (reason.length == 0) {... */\n      tag_418\n      jumpi\n        /* \"@openzeppelin/contracts/token/ERC721/ERC721.sol\":17430:17455  ERC721InvalidReceiver(to) */\n      mload(0x40)\n      shl(0xe1, 0x32505749)\n      dup2\n      mstore\n      sub(shl(0xa0, 0x01), 0x01)\n        /* \"#utility.yul\":1799:1831   */\n      dup6\n      and\n        /* \"@openzeppelin/contracts/token/ERC721/ERC721.sol\":17430:17455  ERC721InvalidReceiver(to) */\n      0x04\n      dup3\n      add\n        /* \"#utility.yul\":1781:1832   */\n      mstore\n        /* \"#utility.yul\":1754:1772   */\n      0x24\n      add\n        /* \"@openzeppelin/contracts/token/ERC721/ERC721.sol\":17430:17455  ERC721InvalidReceiver(to) */\n      tag_229\n        /* \"#utility.yul\":1635:1838   */\n      jump\n        /* \"@openzeppelin/contracts/token/ERC721/ERC721.sol\":17377:17670  if (reason.length == 0) {... */\n    tag_418:\n        /* \"@openzeppelin/contracts/token/ERC721/ERC721.sol\":17622:17628  reason */\n      dup1\n        /* \"@openzeppelin/contracts/token/ERC721/ERC721.sol\":17616:17629  mload(reason) */\n      mload\n        /* \"@openzeppelin/contracts/token/ERC721/ERC721.sol\":17607:17613  reason */\n      dup2\n        /* \"@openzeppelin/contracts/token/ERC721/ERC721.sol\":17603:17605  32 */\n      0x20\n        /* \"@openzeppelin/contracts/token/ERC721/ERC721.sol\":17599:17614  add(32, reason) */\n      add\n        /* \"@openzeppelin/contracts/token/ERC721/ERC721.sol\":17592:17630  revert(add(32, reason), mload(reason)) */\n      revert\n        /* \"@openzeppelin/contracts/token/ERC721/ERC721.sol\":17068:17684  try IERC721Receiver(to).onERC721Received(_msgSender(), from, tokenId, data) returns (bytes4 retval) {... */\n    tag_412:\n      not(sub(shl(0xe0, 0x01), 0x01))\n        /* \"@openzeppelin/contracts/token/ERC721/ERC721.sol\":17190:17241  retval != IERC721Receiver.onERC721Received.selector */\n      dup2\n      and\n      shl(0xe1, 0x0a85bd01)\n      eq\n        /* \"@openzeppelin/contracts/token/ERC721/ERC721.sol\":17186:17316  if (retval != IERC721Receiver.onERC721Received.selector) {... */\n      tag_422\n      jumpi\n        /* \"@openzeppelin/contracts/token/ERC721/ERC721.sol\":17272:17297  ERC721InvalidReceiver(to) */\n      mload(0x40)\n      shl(0xe1, 0x32505749)\n      dup2\n      mstore\n      sub(shl(0xa0, 0x01), 0x01)\n        /* \"#utility.yul\":1799:1831   */\n      dup6\n      and\n        /* \"@openzeppelin/contracts/token/ERC721/ERC721.sol\":17272:17297  ERC721InvalidReceiver(to) */\n      0x04\n      dup3\n      add\n        /* \"#utility.yul\":1781:1832   */\n      mstore\n        /* \"#utility.yul\":1754:1772   */\n      0x24\n      add\n        /* \"@openzeppelin/contracts/token/ERC721/ERC721.sol\":17272:17297  ERC721InvalidReceiver(to) */\n      tag_229\n        /* \"#utility.yul\":1635:1838   */\n      jump\n        /* \"@openzeppelin/contracts/token/ERC721/ERC721.sol\":17186:17316  if (retval != IERC721Receiver.onERC721Received.selector) {... */\n    tag_422:\n        /* \"@openzeppelin/contracts/token/ERC721/ERC721.sol\":17144:17330  returns (bytes4 retval) {... */\n      pop\n        /* \"@openzeppelin/contracts/token/ERC721/ERC721.sol\":16918:17700  function _checkOnERC721Received(address from, address to, uint256 tokenId, bytes memory data) private {... */\n      pop\n      pop\n      pop\n      pop\n      jump\t// out\n        /* \"@openzeppelin/contracts/token/ERC721/ERC721.sol\":14720:15382  function _approve(address to, uint256 tokenId, address auth, bool emitEvent) internal virtual {... */\n    tag_366:\n        /* \"@openzeppelin/contracts/token/ERC721/ERC721.sol\":14880:14889  emitEvent */\n      dup1\n        /* \"@openzeppelin/contracts/token/ERC721/ERC721.sol\":14880:14911  emitEvent || auth != address(0) */\n      dup1\n      tag_427\n      jumpi\n      pop\n      sub(shl(0xa0, 0x01), 0x01)\n        /* \"@openzeppelin/contracts/token/ERC721/ERC721.sol\":14893:14911  auth != address(0) */\n      dup3\n      and\n      iszero\n      iszero\n        /* \"@openzeppelin/contracts/token/ERC721/ERC721.sol\":14880:14911  emitEvent || auth != address(0) */\n    tag_427:\n        /* \"@openzeppelin/contracts/token/ERC721/ERC721.sol\":14876:15336  if (emitEvent || auth != address(0)) {... */\n      iszero\n      tag_428\n      jumpi\n        /* \"@openzeppelin/contracts/token/ERC721/ERC721.sol\":14927:14940  address owner */\n      0x00\n        /* \"@openzeppelin/contracts/token/ERC721/ERC721.sol\":14943:14965  _requireOwned(tokenId) */\n      tag_429\n        /* \"@openzeppelin/contracts/token/ERC721/ERC721.sol\":14957:14964  tokenId */\n      dup5\n        /* \"@openzeppelin/contracts/token/ERC721/ERC721.sol\":14943:14956  _requireOwned */\n      tag_213\n        /* \"@openzeppelin/contracts/token/ERC721/ERC721.sol\":14943:14965  _requireOwned(tokenId) */\n      jump\t// in\n    tag_429:\n        /* \"@openzeppelin/contracts/token/ERC721/ERC721.sol\":14927:14965  address owner = _requireOwned(tokenId) */\n      swap1\n      pop\n      sub(shl(0xa0, 0x01), 0x01)\n        /* \"@openzeppelin/contracts/token/ERC721/ERC721.sol\":15093:15111  auth != address(0) */\n      dup4\n      and\n      iszero\n      dup1\n      iszero\n      swap1\n        /* \"@openzeppelin/contracts/token/ERC721/ERC721.sol\":15093:15128  auth != address(0) && owner != auth */\n      tag_430\n      jumpi\n      pop\n        /* \"@openzeppelin/contracts/token/ERC721/ERC721.sol\":15124:15128  auth */\n      dup3\n      sub(shl(0xa0, 0x01), 0x01)\n        /* \"@openzeppelin/contracts/token/ERC721/ERC721.sol\":15115:15128  owner != auth */\n      and\n        /* \"@openzeppelin/contracts/token/ERC721/ERC721.sol\":15115:15120  owner */\n      dup2\n      sub(shl(0xa0, 0x01), 0x01)\n        /* \"@openzeppelin/contracts/token/ERC721/ERC721.sol\":15115:15128  owner != auth */\n      and\n      eq\n      iszero\n        /* \"@openzeppelin/contracts/token/ERC721/ERC721.sol\":15093:15128  auth != address(0) && owner != auth */\n    tag_430:\n        /* \"@openzeppelin/contracts/token/ERC721/ERC721.sol\":15093:15162  auth != address(0) && owner != auth && !isApprovedForAll(owner, auth) */\n      dup1\n      iszero\n      tag_431\n      jumpi\n      pop\n        /* \"@openzeppelin/contracts/token/ERC721/ERC721.sol\":15133:15162  isApprovedForAll(owner, auth) */\n      tag_432\n        /* \"@openzeppelin/contracts/token/ERC721/ERC721.sol\":15150:15155  owner */\n      dup2\n        /* \"@openzeppelin/contracts/token/ERC721/ERC721.sol\":15157:15161  auth */\n      dup5\n        /* \"@openzeppelin/contracts/token/ERC721/ERC721.sol\":15133:15149  isApprovedForAll */\n      tag_189\n        /* \"@openzeppelin/contracts/token/ERC721/ERC721.sol\":15133:15162  isApprovedForAll(owner, auth) */\n      jump\t// in\n    tag_432:\n        /* \"@openzeppelin/contracts/token/ERC721/ERC721.sol\":15132:15162  !isApprovedForAll(owner, auth) */\n      iszero\n        /* \"@openzeppelin/contracts/token/ERC721/ERC721.sol\":15093:15162  auth != address(0) && owner != auth && !isApprovedForAll(owner, auth) */\n    tag_431:\n        /* \"@openzeppelin/contracts/token/ERC721/ERC721.sol\":15089:15231  if (auth != address(0) && owner != auth && !isApprovedForAll(owner, auth)) {... */\n      iszero\n      tag_433\n      jumpi\n        /* \"@openzeppelin/contracts/token/ERC721/ERC721.sol\":15189:15216  ERC721InvalidApprover(auth) */\n      mload(0x40)\n      shl(0xe0, 0xa9fbf51f)\n      dup2\n      mstore\n      sub(shl(0xa0, 0x01), 0x01)\n        /* \"#utility.yul\":1799:1831   */\n      dup5\n      and\n        /* \"@openzeppelin/contracts/token/ERC721/ERC721.sol\":15189:15216  ERC721InvalidApprover(auth) */\n      0x04\n      dup3\n      add\n        /* \"#utility.yul\":1781:1832   */\n      mstore\n        /* \"#utility.yul\":1754:1772   */\n      0x24\n      add\n        /* \"@openzeppelin/contracts/token/ERC721/ERC721.sol\":15189:15216  ERC721InvalidApprover(auth) */\n      tag_229\n        /* \"#utility.yul\":1635:1838   */\n      jump\n        /* \"@openzeppelin/contracts/token/ERC721/ERC721.sol\":15089:15231  if (auth != address(0) && owner != auth && !isApprovedForAll(owner, auth)) {... */\n    tag_433:\n        /* \"@openzeppelin/contracts/token/ERC721/ERC721.sol\":15249:15258  emitEvent */\n      dup2\n        /* \"@openzeppelin/contracts/token/ERC721/ERC721.sol\":15245:15326  if (emitEvent) {... */\n      iszero\n      tag_435\n      jumpi\n        /* \"@openzeppelin/contracts/token/ERC721/ERC721.sol\":15303:15310  tokenId */\n      dup4\n        /* \"@openzeppelin/contracts/token/ERC721/ERC721.sol\":15299:15301  to */\n      dup6\n      sub(shl(0xa0, 0x01), 0x01)\n        /* \"@openzeppelin/contracts/token/ERC721/ERC721.sol\":15283:15311  Approval(owner, to, tokenId) */\n      and\n        /* \"@openzeppelin/contracts/token/ERC721/ERC721.sol\":15292:15297  owner */\n      dup3\n      sub(shl(0xa0, 0x01), 0x01)\n        /* \"@openzeppelin/contracts/token/ERC721/ERC721.sol\":15283:15311  Approval(owner, to, tokenId) */\n      and\n      0x8c5be1e5ebec7d5bd14f71427d1e84f3dd0314c0f7b2291e5b200ac8c7c3b925\n      mload(0x40)\n      mload(0x40)\n      dup1\n      swap2\n      sub\n      swap1\n      log4\n        /* \"@openzeppelin/contracts/token/ERC721/ERC721.sol\":15245:15326  if (emitEvent) {... */\n    tag_435:\n        /* \"@openzeppelin/contracts/token/ERC721/ERC721.sol\":14913:15336  {... */\n      pop\n        /* \"@openzeppelin/contracts/token/ERC721/ERC721.sol\":14876:15336  if (emitEvent || auth != address(0)) {... */\n    tag_428:\n      pop\n      pop\n        /* \"@openzeppelin/contracts/token/ERC721/ERC721.sol\":15346:15370  _tokenApprovals[tokenId] */\n      0x00\n      swap1\n      dup2\n      mstore\n        /* \"@openzeppelin/contracts/token/ERC721/ERC721.sol\":15346:15361  _tokenApprovals */\n      0x04\n        /* \"@openzeppelin/contracts/token/ERC721/ERC721.sol\":15346:15370  _tokenApprovals[tokenId] */\n      0x20\n      mstore\n      0x40\n      swap1\n      keccak256\n        /* \"@openzeppelin/contracts/token/ERC721/ERC721.sol\":15346:15375  _tokenApprovals[tokenId] = to */\n      dup1\n      sload\n      not(sub(shl(0xa0, 0x01), 0x01))\n      and\n      sub(shl(0xa0, 0x01), 0x01)\n      swap3\n      swap1\n      swap3\n      and\n      swap2\n      swap1\n      swap2\n      or\n      swap1\n      sstore\n        /* \"@openzeppelin/contracts/token/ERC721/ERC721.sol\":14720:15382  function _approve(address to, uint256 tokenId, address auth, bool emitEvent) internal virtual {... */\n      jump\t// out\n        /* \"@openzeppelin/contracts/token/ERC721/ERC721.sol\":8838:9633  function _update(address to, uint256 tokenId, address auth) internal virtual returns (address) {... */\n    tag_369:\n        /* \"@openzeppelin/contracts/token/ERC721/ERC721.sol\":8924:8931  address */\n      0x00\n        /* \"@openzeppelin/contracts/token/ERC721/ERC721.sol\":5799:5815  _owners[tokenId] */\n      dup3\n      dup2\n      mstore\n        /* \"@openzeppelin/contracts/token/ERC721/ERC721.sol\":5799:5806  _owners */\n      0x02\n        /* \"@openzeppelin/contracts/token/ERC721/ERC721.sol\":5799:5815  _owners[tokenId] */\n      0x20\n      mstore\n      0x40\n      dup2\n      keccak256\n      sload\n      sub(shl(0xa0, 0x01), 0x01)\n      swap1\n      dup2\n      and\n      swap1\n        /* \"@openzeppelin/contracts/token/ERC721/ERC721.sol\":9035:9053  auth != address(0) */\n      dup4\n      and\n      iszero\n        /* \"@openzeppelin/contracts/token/ERC721/ERC721.sol\":9031:9117  if (auth != address(0)) {... */\n      tag_439\n      jumpi\n        /* \"@openzeppelin/contracts/token/ERC721/ERC721.sol\":9069:9106  _checkAuthorized(from, auth, tokenId) */\n      tag_439\n        /* \"@openzeppelin/contracts/token/ERC721/ERC721.sol\":9086:9090  from */\n      dup2\n        /* \"@openzeppelin/contracts/token/ERC721/ERC721.sol\":9092:9096  auth */\n      dup5\n        /* \"@openzeppelin/contracts/token/ERC721/ERC721.sol\":9098:9105  tokenId */\n      dup7\n        /* \"@openzeppelin/contracts/token/ERC721/ERC721.sol\":9069:9085  _checkAuthorized */\n      tag_440\n        /* \"@openzeppelin/contracts/token/ERC721/ERC721.sol\":9069:9106  _checkAuthorized(from, auth, tokenId) */\n      jump\t// in\n    tag_439:\n      sub(shl(0xa0, 0x01), 0x01)\n        /* \"@openzeppelin/contracts/token/ERC721/ERC721.sol\":9161:9179  from != address(0) */\n      dup2\n      and\n      iszero\n        /* \"@openzeppelin/contracts/token/ERC721/ERC721.sol\":9157:9413  if (from != address(0)) {... */\n      tag_441\n      jumpi\n        /* \"@openzeppelin/contracts/token/ERC721/ERC721.sol\":9277:9325  _approve(address(0), tokenId, address(0), false) */\n      tag_442\n        /* \"@openzeppelin/contracts/token/ERC721/ERC721.sol\":9294:9295  0 */\n      0x00\n        /* \"@openzeppelin/contracts/token/ERC721/ERC721.sol\":9298:9305  tokenId */\n      dup6\n        /* \"@openzeppelin/contracts/token/ERC721/ERC721.sol\":9315:9316  0 */\n      0x00\n        /* \"@openzeppelin/contracts/token/ERC721/ERC721.sol\":9319:9324  false */\n      dup1\n        /* \"@openzeppelin/contracts/token/ERC721/ERC721.sol\":9277:9285  _approve */\n      tag_366\n        /* \"@openzeppelin/contracts/token/ERC721/ERC721.sol\":9277:9325  _approve(address(0), tokenId, address(0), false) */\n      jump\t// in\n    tag_442:\n      sub(shl(0xa0, 0x01), 0x01)\n        /* \"@openzeppelin/contracts/token/ERC721/ERC721.sol\":9368:9383  _balances[from] */\n      dup2\n      and\n      0x00\n      swap1\n      dup2\n      mstore\n        /* \"@openzeppelin/contracts/token/ERC721/ERC721.sol\":9368:9377  _balances */\n      0x03\n        /* \"@openzeppelin/contracts/token/ERC721/ERC721.sol\":9368:9383  _balances[from] */\n      0x20\n      mstore\n      0x40\n      swap1\n      keccak256\n        /* \"@openzeppelin/contracts/token/ERC721/ERC721.sol\":9368:9388  _balances[from] -= 1 */\n      dup1\n      sload\n      not(0x00)\n      add\n      swap1\n      sstore\n        /* \"@openzeppelin/contracts/token/ERC721/ERC721.sol\":9157:9413  if (from != address(0)) {... */\n    tag_441:\n      sub(shl(0xa0, 0x01), 0x01)\n        /* \"@openzeppelin/contracts/token/ERC721/ERC721.sol\":9427:9443  to != address(0) */\n      dup6\n      and\n      iszero\n        /* \"@openzeppelin/contracts/token/ERC721/ERC721.sol\":9423:9530  if (to != address(0)) {... */\n      tag_443\n      jumpi\n      sub(shl(0xa0, 0x01), 0x01)\n        /* \"@openzeppelin/contracts/token/ERC721/ERC721.sol\":9487:9500  _balances[to] */\n      dup6\n      and\n      0x00\n      swap1\n      dup2\n      mstore\n        /* \"@openzeppelin/contracts/token/ERC721/ERC721.sol\":9487:9496  _balances */\n      0x03\n        /* \"@openzeppelin/contracts/token/ERC721/ERC721.sol\":9487:9500  _balances[to] */\n      0x20\n      mstore\n      0x40\n      swap1\n      keccak256\n        /* \"@openzeppelin/contracts/token/ERC721/ERC721.sol\":9487:9505  _balances[to] += 1 */\n      dup1\n      sload\n        /* \"@openzeppelin/contracts/token/ERC721/ERC721.sol\":9504:9505  1 */\n      0x01\n        /* \"@openzeppelin/contracts/token/ERC721/ERC721.sol\":9487:9505  _balances[to] += 1 */\n      add\n      swap1\n      sstore\n        /* \"@openzeppelin/contracts/token/ERC721/ERC721.sol\":9423:9530  if (to != address(0)) {... */\n    tag_443:\n        /* \"@openzeppelin/contracts/token/ERC721/ERC721.sol\":9540:9556  _owners[tokenId] */\n      0x00\n      dup5\n      dup2\n      mstore\n        /* \"@openzeppelin/contracts/token/ERC721/ERC721.sol\":9540:9547  _owners */\n      0x02\n        /* \"@openzeppelin/contracts/token/ERC721/ERC721.sol\":9540:9556  _owners[tokenId] */\n      0x20\n      mstore\n      0x40\n      dup1\n      dup3\n      keccak256\n        /* \"@openzeppelin/contracts/token/ERC721/ERC721.sol\":9540:9561  _owners[tokenId] = to */\n      dup1\n      sload\n      not(sub(shl(0xa0, 0x01), 0x01))\n      and\n      sub(shl(0xa0, 0x01), 0x01)\n      dup10\n      dup2\n      and\n      swap2\n      dup3\n      or\n      swap1\n      swap3\n      sstore\n        /* \"@openzeppelin/contracts/token/ERC721/ERC721.sol\":9577:9604  Transfer(from, to, tokenId) */\n      swap2\n      mload\n        /* \"@openzeppelin/contracts/token/ERC721/ERC721.sol\":9540:9556  _owners[tokenId] */\n      dup8\n      swap4\n        /* \"@openzeppelin/contracts/token/ERC721/ERC721.sol\":9577:9604  Transfer(from, to, tokenId) */\n      swap2\n      dup6\n      and\n      swap2\n      0xddf252ad1be2c89b69c2b068fc378daa952ba7f163c4a11628f55a4df523b3ef\n      swap2\n      log4\n        /* \"@openzeppelin/contracts/token/ERC721/ERC721.sol\":9622:9626  from */\n      swap5\n        /* \"@openzeppelin/contracts/token/ERC721/ERC721.sol\":8838:9633  function _update(address to, uint256 tokenId, address auth) internal virtual returns (address) {... */\n      swap4\n      pop\n      pop\n      pop\n      pop\n      jump\t// out\n        /* \"@openzeppelin/contracts/token/ERC721/extensions/ERC721Enumerable.sol\":4624:5583  function _removeTokenFromOwnerEnumeration(address from, uint256 tokenId) private {... */\n    tag_376:\n        /* \"@openzeppelin/contracts/token/ERC721/extensions/ERC721Enumerable.sol\":4886:4908  uint256 lastTokenIndex */\n      0x00\n        /* \"@openzeppelin/contracts/token/ERC721/extensions/ERC721Enumerable.sol\":4911:4926  balanceOf(from) */\n      tag_447\n        /* \"@openzeppelin/contracts/token/ERC721/extensions/ERC721Enumerable.sol\":4921:4925  from */\n      dup4\n        /* \"@openzeppelin/contracts/token/ERC721/extensions/ERC721Enumerable.sol\":4911:4920  balanceOf */\n      tag_137\n        /* \"@openzeppelin/contracts/token/ERC721/extensions/ERC721Enumerable.sol\":4911:4926  balanceOf(from) */\n      jump\t// in\n    tag_447:\n        /* \"@openzeppelin/contracts/token/ERC721/extensions/ERC721Enumerable.sol\":4936:4954  uint256 tokenIndex */\n      0x00\n        /* \"@openzeppelin/contracts/token/ERC721/extensions/ERC721Enumerable.sol\":4957:4983  _ownedTokensIndex[tokenId] */\n      dup4\n      dup2\n      mstore\n        /* \"@openzeppelin/contracts/token/ERC721/extensions/ERC721Enumerable.sol\":4957:4974  _ownedTokensIndex */\n      0x07\n        /* \"@openzeppelin/contracts/token/ERC721/extensions/ERC721Enumerable.sol\":4957:4983  _ownedTokensIndex[tokenId] */\n      0x20\n      mstore\n      0x40\n      swap1\n      keccak256\n      sload\n        /* \"@openzeppelin/contracts/token/ERC721/extensions/ERC721Enumerable.sol\":4886:4926  uint256 lastTokenIndex = balanceOf(from) */\n      swap1\n      swap2\n      pop\n        /* \"@openzeppelin/contracts/token/ERC721/extensions/ERC721Enumerable.sol\":5087:5115  tokenIndex != lastTokenIndex */\n      dup1\n      dup3\n      eq\n        /* \"@openzeppelin/contracts/token/ERC721/extensions/ERC721Enumerable.sol\":5083:5406  if (tokenIndex != lastTokenIndex) {... */\n      tag_448\n      jumpi\n      sub(shl(0xa0, 0x01), 0x01)\n        /* \"@openzeppelin/contracts/token/ERC721/extensions/ERC721Enumerable.sol\":5153:5171  _ownedTokens[from] */\n      dup5\n      and\n        /* \"@openzeppelin/contracts/token/ERC721/extensions/ERC721Enumerable.sol\":5131:5150  uint256 lastTokenId */\n      0x00\n        /* \"@openzeppelin/contracts/token/ERC721/extensions/ERC721Enumerable.sol\":5153:5171  _ownedTokens[from] */\n      swap1\n      dup2\n      mstore\n        /* \"@openzeppelin/contracts/token/ERC721/extensions/ERC721Enumerable.sol\":5153:5165  _ownedTokens */\n      0x06\n        /* \"@openzeppelin/contracts/token/ERC721/extensions/ERC721Enumerable.sol\":5153:5171  _ownedTokens[from] */\n      0x20\n      swap1\n      dup2\n      mstore\n      0x40\n      dup1\n      dup4\n      keccak256\n        /* \"@openzeppelin/contracts/token/ERC721/extensions/ERC721Enumerable.sol\":5153:5187  _ownedTokens[from][lastTokenIndex] */\n      dup6\n      dup5\n      mstore\n      dup3\n      mstore\n      dup1\n      dup4\n      keccak256\n      sload\n        /* \"@openzeppelin/contracts/token/ERC721/extensions/ERC721Enumerable.sol\":5202:5232  _ownedTokens[from][tokenIndex] */\n      dup5\n      dup5\n      mstore\n      dup2\n      dup5\n      keccak256\n        /* \"@openzeppelin/contracts/token/ERC721/extensions/ERC721Enumerable.sol\":5202:5246  _ownedTokens[from][tokenIndex] = lastTokenId */\n      dup2\n      swap1\n      sstore\n        /* \"@openzeppelin/contracts/token/ERC721/extensions/ERC721Enumerable.sol\":5318:5348  _ownedTokensIndex[lastTokenId] */\n      dup4\n      mstore\n        /* \"@openzeppelin/contracts/token/ERC721/extensions/ERC721Enumerable.sol\":5318:5335  _ownedTokensIndex */\n      0x07\n        /* \"@openzeppelin/contracts/token/ERC721/extensions/ERC721Enumerable.sol\":5318:5348  _ownedTokensIndex[lastTokenId] */\n      swap1\n      swap2\n      mstore\n      swap1\n      keccak256\n        /* \"@openzeppelin/contracts/token/ERC721/extensions/ERC721Enumerable.sol\":5318:5361  _ownedTokensIndex[lastTokenId] = tokenIndex */\n      dup2\n      swap1\n      sstore\n        /* \"@openzeppelin/contracts/token/ERC721/extensions/ERC721Enumerable.sol\":5083:5406  if (tokenIndex != lastTokenIndex) {... */\n    tag_448:\n      pop\n        /* \"@openzeppelin/contracts/token/ERC721/extensions/ERC721Enumerable.sol\":5499:5525  _ownedTokensIndex[tokenId] */\n      0x00\n      swap2\n      dup3\n      mstore\n        /* \"@openzeppelin/contracts/token/ERC721/extensions/ERC721Enumerable.sol\":5499:5516  _ownedTokensIndex */\n      0x07\n        /* \"@openzeppelin/contracts/token/ERC721/extensions/ERC721Enumerable.sol\":5499:5525  _ownedTokensIndex[tokenId] */\n      0x20\n      swap1\n      dup2\n      mstore\n      0x40\n      dup1\n      dup5\n      keccak256\n        /* \"@openzeppelin/contracts/token/ERC721/extensions/ERC721Enumerable.sol\":5492:5525  delete _ownedTokensIndex[tokenId] */\n      dup5\n      swap1\n      sstore\n      sub(shl(0xa0, 0x01), 0x01)\n        /* \"@openzeppelin/contracts/token/ERC721/extensions/ERC721Enumerable.sol\":5542:5560  _ownedTokens[from] */\n      swap1\n      swap5\n      and\n      dup4\n      mstore\n        /* \"@openzeppelin/contracts/token/ERC721/extensions/ERC721Enumerable.sol\":5542:5554  _ownedTokens */\n      0x06\n        /* \"@openzeppelin/contracts/token/ERC721/extensions/ERC721Enumerable.sol\":5542:5560  _ownedTokens[from] */\n      dup2\n      mstore\n      dup4\n      dup4\n      keccak256\n        /* \"@openzeppelin/contracts/token/ERC721/extensions/ERC721Enumerable.sol\":5542:5576  _ownedTokens[from][lastTokenIndex] */\n      swap2\n      dup4\n      mstore\n      mstore\n      swap1\n      dup2\n      keccak256\n        /* \"@openzeppelin/contracts/token/ERC721/extensions/ERC721Enumerable.sol\":5535:5576  delete _ownedTokens[from][lastTokenIndex] */\n      sstore\n        /* \"@openzeppelin/contracts/token/ERC721/extensions/ERC721Enumerable.sol\":4624:5583  function _removeTokenFromOwnerEnumeration(address from, uint256 tokenId) private {... */\n      jump\t// out\n        /* \"@openzeppelin/contracts/token/ERC721/extensions/ERC721Enumerable.sol\":5871:6932  function _removeTokenFromAllTokensEnumeration(uint256 tokenId) private {... */\n    tag_379:\n        /* \"@openzeppelin/contracts/token/ERC721/extensions/ERC721Enumerable.sol\":6145:6155  _allTokens */\n      0x08\n        /* \"@openzeppelin/contracts/token/ERC721/extensions/ERC721Enumerable.sol\":6145:6162  _allTokens.length */\n      sload\n        /* \"@openzeppelin/contracts/token/ERC721/extensions/ERC721Enumerable.sol\":6120:6142  uint256 lastTokenIndex */\n      0x00\n      swap1\n        /* \"@openzeppelin/contracts/token/ERC721/extensions/ERC721Enumerable.sol\":6145:6166  _allTokens.length - 1 */\n      tag_450\n      swap1\n        /* \"@openzeppelin/contracts/token/ERC721/extensions/ERC721Enumerable.sol\":6165:6166  1 */\n      0x01\n      swap1\n        /* \"@openzeppelin/contracts/token/ERC721/extensions/ERC721Enumerable.sol\":6145:6166  _allTokens.length - 1 */\n      tag_451\n      jump\t// in\n    tag_450:\n        /* \"@openzeppelin/contracts/token/ERC721/extensions/ERC721Enumerable.sol\":6176:6194  uint256 tokenIndex */\n      0x00\n        /* \"@openzeppelin/contracts/token/ERC721/extensions/ERC721Enumerable.sol\":6197:6221  _allTokensIndex[tokenId] */\n      dup4\n      dup2\n      mstore\n        /* \"@openzeppelin/contracts/token/ERC721/extensions/ERC721Enumerable.sol\":6197:6212  _allTokensIndex */\n      0x09\n        /* \"@openzeppelin/contracts/token/ERC721/extensions/ERC721Enumerable.sol\":6197:6221  _allTokensIndex[tokenId] */\n      0x20\n      mstore\n      0x40\n      dup2\n      keccak256\n      sload\n        /* \"@openzeppelin/contracts/token/ERC721/extensions/ERC721Enumerable.sol\":6565:6575  _allTokens */\n      0x08\n        /* \"@openzeppelin/contracts/token/ERC721/extensions/ERC721Enumerable.sol\":6565:6591  _allTokens[lastTokenIndex] */\n      dup1\n      sload\n        /* \"@openzeppelin/contracts/token/ERC721/extensions/ERC721Enumerable.sol\":6120:6166  uint256 lastTokenIndex = _allTokens.length - 1 */\n      swap4\n      swap5\n      pop\n        /* \"@openzeppelin/contracts/token/ERC721/extensions/ERC721Enumerable.sol\":6197:6221  _allTokensIndex[tokenId] */\n      swap1\n      swap3\n        /* \"@openzeppelin/contracts/token/ERC721/extensions/ERC721Enumerable.sol\":6120:6166  uint256 lastTokenIndex = _allTokens.length - 1 */\n      dup5\n      swap1\n        /* \"@openzeppelin/contracts/token/ERC721/extensions/ERC721Enumerable.sol\":6565:6591  _allTokens[lastTokenIndex] */\n      dup2\n      lt\n      tag_453\n      jumpi\n      tag_453\n      tag_255\n      jump\t// in\n    tag_453:\n      swap1\n      0x00\n      mstore\n      keccak256(0x00, 0x20)\n      add\n      sload\n        /* \"@openzeppelin/contracts/token/ERC721/extensions/ERC721Enumerable.sol\":6543:6591  uint256 lastTokenId = _allTokens[lastTokenIndex] */\n      swap1\n      pop\n        /* \"@openzeppelin/contracts/token/ERC721/extensions/ERC721Enumerable.sol\":6627:6638  lastTokenId */\n      dup1\n        /* \"@openzeppelin/contracts/token/ERC721/extensions/ERC721Enumerable.sol\":6602:6612  _allTokens */\n      0x08\n        /* \"@openzeppelin/contracts/token/ERC721/extensions/ERC721Enumerable.sol\":6613:6623  tokenIndex */\n      dup4\n        /* \"@openzeppelin/contracts/token/ERC721/extensions/ERC721Enumerable.sol\":6602:6624  _allTokens[tokenIndex] */\n      dup2\n      sload\n      dup2\n      lt\n      tag_456\n      jumpi\n      tag_456\n      tag_255\n      jump\t// in\n    tag_456:\n      0x00\n      swap2\n      dup3\n      mstore\n      0x20\n      dup1\n      dup4\n      keccak256\n      swap1\n      swap2\n      add\n        /* \"@openzeppelin/contracts/token/ERC721/extensions/ERC721Enumerable.sol\":6602:6638  _allTokens[tokenIndex] = lastTokenId */\n      swap3\n      swap1\n      swap3\n      sstore\n        /* \"@openzeppelin/contracts/token/ERC721/extensions/ERC721Enumerable.sol\":6706:6734  _allTokensIndex[lastTokenId] */\n      dup3\n      dup2\n      mstore\n        /* \"@openzeppelin/contracts/token/ERC721/extensions/ERC721Enumerable.sol\":6706:6721  _allTokensIndex */\n      0x09\n        /* \"@openzeppelin/contracts/token/ERC721/extensions/ERC721Enumerable.sol\":6706:6734  _allTokensIndex[lastTokenId] */\n      swap1\n      swap2\n      mstore\n      0x40\n      dup1\n      dup3\n      keccak256\n        /* \"@openzeppelin/contracts/token/ERC721/extensions/ERC721Enumerable.sol\":6706:6747  _allTokensIndex[lastTokenId] = tokenIndex */\n      dup5\n      swap1\n      sstore\n        /* \"@openzeppelin/contracts/token/ERC721/extensions/ERC721Enumerable.sol\":6875:6899  _allTokensIndex[tokenId] */\n      dup6\n      dup3\n      mstore\n      dup2\n      keccak256\n        /* \"@openzeppelin/contracts/token/ERC721/extensions/ERC721Enumerable.sol\":6868:6899  delete _allTokensIndex[tokenId] */\n      sstore\n        /* \"@openzeppelin/contracts/token/ERC721/extensions/ERC721Enumerable.sol\":6909:6919  _allTokens */\n      0x08\n        /* \"@openzeppelin/contracts/token/ERC721/extensions/ERC721Enumerable.sol\":6909:6925  _allTokens.pop() */\n      dup1\n      sload\n      dup1\n      tag_459\n      jumpi\n      tag_459\n      tag_460\n      jump\t// in\n    tag_459:\n      0x01\n      swap1\n      sub\n      dup2\n      dup2\n      swap1\n      0x00\n      mstore\n      keccak256(0x00, 0x20)\n      add\n      0x00\n      swap1\n      sstore\n      swap1\n      sstore\n        /* \"@openzeppelin/contracts/token/ERC721/extensions/ERC721Enumerable.sol\":5942:6932  {... */\n      pop\n      pop\n      pop\n        /* \"@openzeppelin/contracts/token/ERC721/extensions/ERC721Enumerable.sol\":5871:6932  function _removeTokenFromAllTokensEnumeration(uint256 tokenId) private {... */\n      pop\n      jump\t// out\n        /* \"@openzeppelin/contracts/token/ERC721/extensions/ERC721Enumerable.sol\":3437:3651  function _addTokenToOwnerEnumeration(address to, uint256 tokenId) private {... */\n    tag_383:\n        /* \"@openzeppelin/contracts/token/ERC721/extensions/ERC721Enumerable.sol\":3521:3535  uint256 length */\n      0x00\n        /* \"@openzeppelin/contracts/token/ERC721/extensions/ERC721Enumerable.sol\":3554:3555  1 */\n      0x01\n        /* \"@openzeppelin/contracts/token/ERC721/extensions/ERC721Enumerable.sol\":3538:3551  balanceOf(to) */\n      tag_463\n        /* \"@openzeppelin/contracts/token/ERC721/extensions/ERC721Enumerable.sol\":3548:3550  to */\n      dup5\n        /* \"@openzeppelin/contracts/token/ERC721/extensions/ERC721Enumerable.sol\":3538:3547  balanceOf */\n      tag_137\n        /* \"@openzeppelin/contracts/token/ERC721/extensions/ERC721Enumerable.sol\":3538:3551  balanceOf(to) */\n      jump\t// in\n    tag_463:\n        /* \"@openzeppelin/contracts/token/ERC721/extensions/ERC721Enumerable.sol\":3538:3555  balanceOf(to) - 1 */\n      tag_464\n      swap2\n      swap1\n      tag_451\n      jump\t// in\n    tag_464:\n      sub(shl(0xa0, 0x01), 0x01)\n        /* \"@openzeppelin/contracts/token/ERC721/extensions/ERC721Enumerable.sol\":3565:3581  _ownedTokens[to] */\n      swap1\n      swap4\n      and\n      0x00\n      swap1\n      dup2\n      mstore\n        /* \"@openzeppelin/contracts/token/ERC721/extensions/ERC721Enumerable.sol\":3565:3577  _ownedTokens */\n      0x06\n        /* \"@openzeppelin/contracts/token/ERC721/extensions/ERC721Enumerable.sol\":3565:3581  _ownedTokens[to] */\n      0x20\n      swap1\n      dup2\n      mstore\n      0x40\n      dup1\n      dup4\n      keccak256\n        /* \"@openzeppelin/contracts/token/ERC721/extensions/ERC721Enumerable.sol\":3565:3589  _ownedTokens[to][length] */\n      dup7\n      dup5\n      mstore\n      dup3\n      mstore\n      dup1\n      dup4\n      keccak256\n        /* \"@openzeppelin/contracts/token/ERC721/extensions/ERC721Enumerable.sol\":3565:3599  _ownedTokens[to][length] = tokenId */\n      dup6\n      swap1\n      sstore\n        /* \"@openzeppelin/contracts/token/ERC721/extensions/ERC721Enumerable.sol\":3609:3635  _ownedTokensIndex[tokenId] */\n      swap4\n      dup3\n      mstore\n        /* \"@openzeppelin/contracts/token/ERC721/extensions/ERC721Enumerable.sol\":3609:3626  _ownedTokensIndex */\n      0x07\n        /* \"@openzeppelin/contracts/token/ERC721/extensions/ERC721Enumerable.sol\":3609:3635  _ownedTokensIndex[tokenId] */\n      swap1\n      mstore\n      swap2\n      swap1\n      swap2\n      keccak256\n        /* \"@openzeppelin/contracts/token/ERC721/extensions/ERC721Enumerable.sol\":3609:3644  _ownedTokensIndex[tokenId] = length */\n      swap2\n      swap1\n      swap2\n      sstore\n      pop\n        /* \"@openzeppelin/contracts/token/ERC721/extensions/ERC721Enumerable.sol\":3437:3651  function _addTokenToOwnerEnumeration(address to, uint256 tokenId) private {... */\n      jump\t// out\n        /* \"@openzeppelin/contracts/token/ERC721/ERC721.sol\":10954:11136  function _safeMint(address to, uint256 tokenId, bytes memory data) internal virtual {... */\n    tag_394:\n        /* \"@openzeppelin/contracts/token/ERC721/ERC721.sol\":11048:11066  _mint(to, tokenId) */\n      tag_466\n        /* \"@openzeppelin/contracts/token/ERC721/ERC721.sol\":11054:11056  to */\n      dup4\n        /* \"@openzeppelin/contracts/token/ERC721/ERC721.sol\":11058:11065  tokenId */\n      dup4\n        /* \"@openzeppelin/contracts/token/ERC721/ERC721.sol\":11048:11053  _mint */\n      tag_467\n        /* \"@openzeppelin/contracts/token/ERC721/ERC721.sol\":11048:11066  _mint(to, tokenId) */\n      jump\t// in\n    tag_466:\n        /* \"@openzeppelin/contracts/token/ERC721/ERC721.sol\":11076:11129  _checkOnERC721Received(address(0), to, tokenId, data) */\n      tag_248\n        /* \"@openzeppelin/contracts/token/ERC721/ERC721.sol\":11107:11108  0 */\n      0x00\n        /* \"@openzeppelin/contracts/token/ERC721/ERC721.sol\":11111:11113  to */\n      dup5\n        /* \"@openzeppelin/contracts/token/ERC721/ERC721.sol\":11115:11122  tokenId */\n      dup5\n        /* \"@openzeppelin/contracts/token/ERC721/ERC721.sol\":11124:11128  data */\n      dup5\n        /* \"@openzeppelin/contracts/token/ERC721/ERC721.sol\":11076:11098  _checkOnERC721Received */\n      tag_308\n        /* \"@openzeppelin/contracts/token/ERC721/ERC721.sol\":11076:11129  _checkOnERC721Received(address(0), to, tokenId, data) */\n      jump\t// in\n        /* \"@openzeppelin/contracts/token/ERC721/ERC721.sol\":7082:7450  function _checkAuthorized(address owner, address spender, uint256 tokenId) internal view virtual {... */\n    tag_440:\n        /* \"@openzeppelin/contracts/token/ERC721/ERC721.sol\":7194:7232  _isAuthorized(owner, spender, tokenId) */\n      tag_470\n        /* \"@openzeppelin/contracts/token/ERC721/ERC721.sol\":7208:7213  owner */\n      dup4\n        /* \"@openzeppelin/contracts/token/ERC721/ERC721.sol\":7215:7222  spender */\n      dup4\n        /* \"@openzeppelin/contracts/token/ERC721/ERC721.sol\":7224:7231  tokenId */\n      dup4\n        /* \"@openzeppelin/contracts/token/ERC721/ERC721.sol\":7194:7207  _isAuthorized */\n      tag_471\n        /* \"@openzeppelin/contracts/token/ERC721/ERC721.sol\":7194:7232  _isAuthorized(owner, spender, tokenId) */\n      jump\t// in\n    tag_470:\n        /* \"@openzeppelin/contracts/token/ERC721/ERC721.sol\":7189:7444  if (!_isAuthorized(owner, spender, tokenId)) {... */\n      tag_248\n      jumpi\n      sub(shl(0xa0, 0x01), 0x01)\n        /* \"@openzeppelin/contracts/token/ERC721/ERC721.sol\":7252:7271  owner == address(0) */\n      dup4\n      and\n        /* \"@openzeppelin/contracts/token/ERC721/ERC721.sol\":7248:7434  if (owner == address(0)) {... */\n      tag_473\n      jumpi\n        /* \"@openzeppelin/contracts/token/ERC721/ERC721.sol\":7298:7329  ERC721NonexistentToken(tokenId) */\n      mload(0x40)\n      shl(0xe0, 0x7e273289)\n      dup2\n      mstore\n      0x04\n      dup2\n      add\n        /* \"#utility.yul\":160:185   */\n      dup3\n      swap1\n      mstore\n        /* \"#utility.yul\":133:151   */\n      0x24\n      add\n        /* \"@openzeppelin/contracts/token/ERC721/ERC721.sol\":7298:7329  ERC721NonexistentToken(tokenId) */\n      tag_229\n        /* \"#utility.yul\":14:191   */\n      jump\n        /* \"@openzeppelin/contracts/token/ERC721/ERC721.sol\":7248:7434  if (owner == address(0)) {... */\n    tag_473:\n        /* \"@openzeppelin/contracts/token/ERC721/ERC721.sol\":7375:7419  ERC721InsufficientApproval(spender, tokenId) */\n      mload(0x40)\n      shl(0xe0, 0x177e802f)\n      dup2\n      mstore\n      sub(shl(0xa0, 0x01), 0x01)\n        /* \"#utility.yul\":6493:6525   */\n      dup4\n      and\n        /* \"@openzeppelin/contracts/token/ERC721/ERC721.sol\":7375:7419  ERC721InsufficientApproval(spender, tokenId) */\n      0x04\n      dup3\n      add\n        /* \"#utility.yul\":6475:6526   */\n      mstore\n        /* \"#utility.yul\":6542:6560   */\n      0x24\n      dup2\n      add\n        /* \"#utility.yul\":6535:6569   */\n      dup3\n      swap1\n      mstore\n        /* \"#utility.yul\":6448:6466   */\n      0x44\n      add\n        /* \"@openzeppelin/contracts/token/ERC721/ERC721.sol\":7375:7419  ERC721InsufficientApproval(spender, tokenId) */\n      tag_229\n        /* \"#utility.yul\":6301:6575   */\n      jump\n        /* \"@openzeppelin/contracts/token/ERC721/ERC721.sol\":9955:10282  function _mint(address to, uint256 tokenId) internal {... */\n    tag_467:\n      sub(shl(0xa0, 0x01), 0x01)\n        /* \"@openzeppelin/contracts/token/ERC721/ERC721.sol\":10022:10038  to == address(0) */\n      dup3\n      and\n        /* \"@openzeppelin/contracts/token/ERC721/ERC721.sol\":10018:10105  if (to == address(0)) {... */\n      tag_478\n      jumpi\n        /* \"@openzeppelin/contracts/token/ERC721/ERC721.sol\":10061:10094  ERC721InvalidReceiver(address(0)) */\n      mload(0x40)\n      shl(0xe1, 0x32505749)\n      dup2\n      mstore\n        /* \"@openzeppelin/contracts/token/ERC721/ERC721.sol\":10091:10092  0 */\n      0x00\n        /* \"@openzeppelin/contracts/token/ERC721/ERC721.sol\":10061:10094  ERC721InvalidReceiver(address(0)) */\n      0x04\n      dup3\n      add\n        /* \"#utility.yul\":1781:1832   */\n      mstore\n        /* \"#utility.yul\":1754:1772   */\n      0x24\n      add\n        /* \"@openzeppelin/contracts/token/ERC721/ERC721.sol\":10061:10094  ERC721InvalidReceiver(address(0)) */\n      tag_229\n        /* \"#utility.yul\":1635:1838   */\n      jump\n        /* \"@openzeppelin/contracts/token/ERC721/ERC721.sol\":10018:10105  if (to == address(0)) {... */\n    tag_478:\n        /* \"@openzeppelin/contracts/token/ERC721/ERC721.sol\":10114:10135  address previousOwner */\n      0x00\n        /* \"@openzeppelin/contracts/token/ERC721/ERC721.sol\":10138:10170  _update(to, tokenId, address(0)) */\n      tag_480\n        /* \"@openzeppelin/contracts/token/ERC721/ERC721.sol\":10146:10148  to */\n      dup4\n        /* \"@openzeppelin/contracts/token/ERC721/ERC721.sol\":10150:10157  tokenId */\n      dup4\n        /* \"@openzeppelin/contracts/token/ERC721/ERC721.sol\":10167:10168  0 */\n      0x00\n        /* \"@openzeppelin/contracts/token/ERC721/ERC721.sol\":10138:10145  _update */\n      tag_232\n        /* \"@openzeppelin/contracts/token/ERC721/ERC721.sol\":10138:10170  _update(to, tokenId, address(0)) */\n      jump\t// in\n    tag_480:\n        /* \"@openzeppelin/contracts/token/ERC721/ERC721.sol\":10114:10170  address previousOwner = _update(to, tokenId, address(0)) */\n      swap1\n      pop\n      sub(shl(0xa0, 0x01), 0x01)\n        /* \"@openzeppelin/contracts/token/ERC721/ERC721.sol\":10184:10211  previousOwner != address(0) */\n      dup2\n      and\n      iszero\n        /* \"@openzeppelin/contracts/token/ERC721/ERC721.sol\":10180:10276  if (previousOwner != address(0)) {... */\n      tag_248\n      jumpi\n        /* \"@openzeppelin/contracts/token/ERC721/ERC721.sol\":10234:10265  ERC721InvalidSender(address(0)) */\n      mload(0x40)\n      shl(0xe1, 0x39e35637)\n      dup2\n      mstore\n        /* \"@openzeppelin/contracts/token/ERC721/ERC721.sol\":10262:10263  0 */\n      0x00\n        /* \"@openzeppelin/contracts/token/ERC721/ERC721.sol\":10234:10265  ERC721InvalidSender(address(0)) */\n      0x04\n      dup3\n      add\n        /* \"#utility.yul\":1781:1832   */\n      mstore\n        /* \"#utility.yul\":1754:1772   */\n      0x24\n      add\n        /* \"@openzeppelin/contracts/token/ERC721/ERC721.sol\":10234:10265  ERC721InvalidSender(address(0)) */\n      tag_229\n        /* \"#utility.yul\":1635:1838   */\n      jump\n        /* \"@openzeppelin/contracts/token/ERC721/ERC721.sol\":6376:6648  function _isAuthorized(address owner, address spender, uint256 tokenId) internal view virtual returns (bool) {... */\n    tag_471:\n        /* \"@openzeppelin/contracts/token/ERC721/ERC721.sol\":6479:6483  bool */\n      0x00\n      sub(shl(0xa0, 0x01), 0x01)\n        /* \"@openzeppelin/contracts/token/ERC721/ERC721.sol\":6514:6535  spender != address(0) */\n      dup4\n      and\n      iszero\n      dup1\n      iszero\n      swap1\n        /* \"@openzeppelin/contracts/token/ERC721/ERC721.sol\":6514:6641  spender != address(0) &&... */\n      tag_382\n      jumpi\n      pop\n        /* \"@openzeppelin/contracts/token/ERC721/ERC721.sol\":6561:6568  spender */\n      dup3\n      sub(shl(0xa0, 0x01), 0x01)\n        /* \"@openzeppelin/contracts/token/ERC721/ERC721.sol\":6552:6568  owner == spender */\n      and\n        /* \"@openzeppelin/contracts/token/ERC721/ERC721.sol\":6552:6557  owner */\n      dup5\n      sub(shl(0xa0, 0x01), 0x01)\n        /* \"@openzeppelin/contracts/token/ERC721/ERC721.sol\":6552:6568  owner == spender */\n      and\n      eq\n        /* \"@openzeppelin/contracts/token/ERC721/ERC721.sol\":6552:6604  owner == spender || isApprovedForAll(owner, spender) */\n      dup1\n      tag_486\n      jumpi\n      pop\n        /* \"@openzeppelin/contracts/token/ERC721/ERC721.sol\":6572:6604  isApprovedForAll(owner, spender) */\n      tag_486\n        /* \"@openzeppelin/contracts/token/ERC721/ERC721.sol\":6589:6594  owner */\n      dup5\n        /* \"@openzeppelin/contracts/token/ERC721/ERC721.sol\":6596:6603  spender */\n      dup5\n        /* \"@openzeppelin/contracts/token/ERC721/ERC721.sol\":6572:6588  isApprovedForAll */\n      tag_189\n        /* \"@openzeppelin/contracts/token/ERC721/ERC721.sol\":6572:6604  isApprovedForAll(owner, spender) */\n      jump\t// in\n    tag_486:\n        /* \"@openzeppelin/contracts/token/ERC721/ERC721.sol\":6552:6640  owner == spender || isApprovedForAll(owner, spender) || _getApproved(tokenId) == spender */\n      dup1\n      tag_382\n      jumpi\n      pop\n      pop\n        /* \"@openzeppelin/contracts/token/ERC721/ERC721.sol\":6008:6015  address */\n      0x00\n        /* \"@openzeppelin/contracts/token/ERC721/ERC721.sol\":6034:6058  _tokenApprovals[tokenId] */\n      swap1\n      dup2\n      mstore\n        /* \"@openzeppelin/contracts/token/ERC721/ERC721.sol\":6034:6049  _tokenApprovals */\n      0x04\n        /* \"@openzeppelin/contracts/token/ERC721/ERC721.sol\":6034:6058  _tokenApprovals[tokenId] */\n      0x20\n      mstore\n      0x40\n      swap1\n      keccak256\n      sload\n      sub(shl(0xa0, 0x01), 0x01)\n      swap1\n      dup2\n      and\n        /* \"@openzeppelin/contracts/token/ERC721/ERC721.sol\":6608:6640  _getApproved(tokenId) == spender */\n      swap2\n      and\n      eq\n      swap2\n        /* \"@openzeppelin/contracts/token/ERC721/ERC721.sol\":6495:6641  return... */\n      swap1\n      pop\n        /* \"@openzeppelin/contracts/token/ERC721/ERC721.sol\":6376:6648  function _isAuthorized(address owner, address spender, uint256 tokenId) internal view virtual returns (bool) {... */\n      jump\t// out\n        /* \"#utility.yul\":196:327   */\n    tag_489:\n      not(sub(shl(0xe0, 0x01), 0x01))\n        /* \"#utility.yul\":270:302   */\n      dup2\n      and\n        /* \"#utility.yul\":260:303   */\n      dup2\n      eq\n        /* \"#utility.yul\":250:321   */\n      tag_246\n      jumpi\n        /* \"#utility.yul\":317:318   */\n      0x00\n        /* \"#utility.yul\":314:315   */\n      dup1\n        /* \"#utility.yul\":307:319   */\n      revert\n        /* \"#utility.yul\":332:577   */\n    tag_51:\n        /* \"#utility.yul\":390:396   */\n      0x00\n        /* \"#utility.yul\":443:445   */\n      0x20\n        /* \"#utility.yul\":431:440   */\n      dup3\n        /* \"#utility.yul\":422:429   */\n      dup5\n        /* \"#utility.yul\":418:441   */\n      sub\n        /* \"#utility.yul\":414:446   */\n      slt\n        /* \"#utility.yul\":411:463   */\n      iszero\n      tag_503\n      jumpi\n        /* \"#utility.yul\":459:460   */\n      0x00\n        /* \"#utility.yul\":456:457   */\n      dup1\n        /* \"#utility.yul\":449:461   */\n      revert\n        /* \"#utility.yul\":411:463   */\n    tag_503:\n        /* \"#utility.yul\":498:507   */\n      dup2\n        /* \"#utility.yul\":485:508   */\n      calldataload\n        /* \"#utility.yul\":517:547   */\n      tag_504\n        /* \"#utility.yul\":541:546   */\n      dup2\n        /* \"#utility.yul\":517:547   */\n      tag_489\n      jump\t// in\n    tag_504:\n        /* \"#utility.yul\":566:571   */\n      swap4\n        /* \"#utility.yul\":332:577   */\n      swap3\n      pop\n      pop\n      pop\n      jump\t// out\n        /* \"#utility.yul\":774:1174   */\n    tag_490:\n        /* \"#utility.yul\":816:819   */\n      0x00\n        /* \"#utility.yul\":854:859   */\n      dup2\n        /* \"#utility.yul\":848:860   */\n      mload\n        /* \"#utility.yul\":881:887   */\n      dup1\n        /* \"#utility.yul\":876:879   */\n      dup5\n        /* \"#utility.yul\":869:888   */\n      mstore\n        /* \"#utility.yul\":906:907   */\n      0x00\n        /* \"#utility.yul\":916:1055   */\n    tag_507:\n        /* \"#utility.yul\":930:936   */\n      dup2\n        /* \"#utility.yul\":927:928   */\n      dup2\n        /* \"#utility.yul\":924:937   */\n      lt\n        /* \"#utility.yul\":916:1055   */\n      iszero\n      tag_509\n      jumpi\n        /* \"#utility.yul\":1038:1042   */\n      0x20\n        /* \"#utility.yul\":1023:1036   */\n      dup2\n      dup6\n      add\n        /* \"#utility.yul\":1019:1043   */\n      dup2\n      add\n        /* \"#utility.yul\":1013:1044   */\n      mload\n        /* \"#utility.yul\":993:1004   */\n      dup7\n      dup4\n      add\n        /* \"#utility.yul\":989:1011   */\n      dup3\n      add\n        /* \"#utility.yul\":982:1045   */\n      mstore\n        /* \"#utility.yul\":945:957   */\n      add\n        /* \"#utility.yul\":916:1055   */\n      jump(tag_507)\n    tag_509:\n        /* \"#utility.yul\":920:923   */\n      pop\n        /* \"#utility.yul\":1100:1101   */\n      0x00\n        /* \"#utility.yul\":1093:1097   */\n      0x20\n        /* \"#utility.yul\":1084:1090   */\n      dup3\n        /* \"#utility.yul\":1079:1082   */\n      dup7\n        /* \"#utility.yul\":1075:1091   */\n      add\n        /* \"#utility.yul\":1071:1098   */\n      add\n        /* \"#utility.yul\":1064:1102   */\n      mstore\n        /* \"#utility.yul\":1163:1167   */\n      0x20\n        /* \"#utility.yul\":1156:1158   */\n      0x1f\n        /* \"#utility.yul\":1152:1159   */\n      not\n        /* \"#utility.yul\":1147:1149   */\n      0x1f\n        /* \"#utility.yul\":1139:1145   */\n      dup4\n        /* \"#utility.yul\":1135:1150   */\n      add\n        /* \"#utility.yul\":1131:1160   */\n      and\n        /* \"#utility.yul\":1126:1129   */\n      dup6\n        /* \"#utility.yul\":1122:1161   */\n      add\n        /* \"#utility.yul\":1118:1168   */\n      add\n        /* \"#utility.yul\":1111:1168   */\n      swap2\n      pop\n      pop\n        /* \"#utility.yul\":774:1174   */\n      swap3\n      swap2\n      pop\n      pop\n      jump\t// out\n        /* \"#utility.yul\":1179:1399   */\n    tag_59:\n        /* \"#utility.yul\":1328:1330   */\n      0x20\n        /* \"#utility.yul\":1317:1326   */\n      dup2\n        /* \"#utility.yul\":1310:1331   */\n      mstore\n        /* \"#utility.yul\":1291:1295   */\n      0x00\n        /* \"#utility.yul\":1348:1393   */\n      tag_504\n        /* \"#utility.yul\":1389:1391   */\n      0x20\n        /* \"#utility.yul\":1378:1387   */\n      dup4\n        /* \"#utility.yul\":1374:1392   */\n      add\n        /* \"#utility.yul\":1366:1372   */\n      dup5\n        /* \"#utility.yul\":1348:1393   */\n      tag_490\n      jump\t// in\n        /* \"#utility.yul\":1404:1630   */\n    tag_63:\n        /* \"#utility.yul\":1463:1469   */\n      0x00\n        /* \"#utility.yul\":1516:1518   */\n      0x20\n        /* \"#utility.yul\":1504:1513   */\n      dup3\n        /* \"#utility.yul\":1495:1502   */\n      dup5\n        /* \"#utility.yul\":1491:1514   */\n      sub\n        /* \"#utility.yul\":1487:1519   */\n      slt\n        /* \"#utility.yul\":1484:1536   */\n      iszero\n      tag_513\n      jumpi\n        /* \"#utility.yul\":1532:1533   */\n      0x00\n        /* \"#utility.yul\":1529:1530   */\n      dup1\n        /* \"#utility.yul\":1522:1534   */\n      revert\n        /* \"#utility.yul\":1484:1536   */\n    tag_513:\n      pop\n        /* \"#utility.yul\":1577:1600   */\n      calldataload\n      swap2\n        /* \"#utility.yul\":1404:1630   */\n      swap1\n      pop\n      jump\t// out\n        /* \"#utility.yul\":1843:2016   */\n    tag_491:\n        /* \"#utility.yul\":1911:1931   */\n      dup1\n      calldataload\n      sub(shl(0xa0, 0x01), 0x01)\n        /* \"#utility.yul\":1960:1991   */\n      dup2\n      and\n        /* \"#utility.yul\":1950:1992   */\n      dup2\n      eq\n        /* \"#utility.yul\":1940:2010   */\n      tag_516\n      jumpi\n        /* \"#utility.yul\":2006:2007   */\n      0x00\n        /* \"#utility.yul\":2003:2004   */\n      dup1\n        /* \"#utility.yul\":1996:2008   */\n      revert\n        /* \"#utility.yul\":1940:2010   */\n    tag_516:\n        /* \"#utility.yul\":1843:2016   */\n      swap2\n      swap1\n      pop\n      jump\t// out\n        /* \"#utility.yul\":2021:2321   */\n    tag_70:\n        /* \"#utility.yul\":2089:2095   */\n      0x00\n        /* \"#utility.yul\":2097:2103   */\n      dup1\n        /* \"#utility.yul\":2150:2152   */\n      0x40\n        /* \"#utility.yul\":2138:2147   */\n      dup4\n        /* \"#utility.yul\":2129:2136   */\n      dup6\n        /* \"#utility.yul\":2125:2148   */\n      sub\n        /* \"#utility.yul\":2121:2153   */\n      slt\n        /* \"#utility.yul\":2118:2170   */\n      iszero\n      tag_518\n      jumpi\n        /* \"#utility.yul\":2166:2167   */\n      0x00\n        /* \"#utility.yul\":2163:2164   */\n      dup1\n        /* \"#utility.yul\":2156:2168   */\n      revert\n        /* \"#utility.yul\":2118:2170   */\n    tag_518:\n        /* \"#utility.yul\":2189:2218   */\n      tag_519\n        /* \"#utility.yul\":2208:2217   */\n      dup4\n        /* \"#utility.yul\":2189:2218   */\n      tag_491\n      jump\t// in\n    tag_519:\n        /* \"#utility.yul\":2179:2218   */\n      swap5\n        /* \"#utility.yul\":2287:2289   */\n      0x20\n        /* \"#utility.yul\":2272:2290   */\n      swap4\n      swap1\n      swap4\n      add\n        /* \"#utility.yul\":2259:2291   */\n      calldataload\n      swap4\n      pop\n      pop\n      pop\n        /* \"#utility.yul\":2021:2321   */\n      jump\t// out\n        /* \"#utility.yul\":2326:2700   */\n    tag_92:\n        /* \"#utility.yul\":2403:2409   */\n      0x00\n        /* \"#utility.yul\":2411:2417   */\n      dup1\n        /* \"#utility.yul\":2419:2425   */\n      0x00\n        /* \"#utility.yul\":2472:2474   */\n      0x60\n        /* \"#utility.yul\":2460:2469   */\n      dup5\n        /* \"#utility.yul\":2451:2458   */\n      dup7\n        /* \"#utility.yul\":2447:2470   */\n      sub\n        /* \"#utility.yul\":2443:2475   */\n      slt\n        /* \"#utility.yul\":2440:2492   */\n      iszero\n      tag_521\n      jumpi\n        /* \"#utility.yul\":2488:2489   */\n      0x00\n        /* \"#utility.yul\":2485:2486   */\n      dup1\n        /* \"#utility.yul\":2478:2490   */\n      revert\n        /* \"#utility.yul\":2440:2492   */\n    tag_521:\n        /* \"#utility.yul\":2511:2540   */\n      tag_522\n        /* \"#utility.yul\":2530:2539   */\n      dup5\n        /* \"#utility.yul\":2511:2540   */\n      tag_491\n      jump\t// in\n    tag_522:\n        /* \"#utility.yul\":2501:2540   */\n      swap3\n      pop\n        /* \"#utility.yul\":2559:2597   */\n      tag_523\n        /* \"#utility.yul\":2593:2595   */\n      0x20\n        /* \"#utility.yul\":2582:2591   */\n      dup6\n        /* \"#utility.yul\":2578:2596   */\n      add\n        /* \"#utility.yul\":2559:2597   */\n      tag_491\n      jump\t// in\n    tag_523:\n        /* \"#utility.yul\":2326:2700   */\n      swap3\n      swap6\n        /* \"#utility.yul\":2549:2597   */\n      swap3\n      swap5\n      pop\n      pop\n      pop\n        /* \"#utility.yul\":2666:2668   */\n      0x40\n        /* \"#utility.yul\":2651:2669   */\n      swap2\n      swap1\n      swap2\n      add\n        /* \"#utility.yul\":2638:2670   */\n      calldataload\n      swap1\n        /* \"#utility.yul\":2326:2700   */\n      jump\t// out\n        /* \"#utility.yul\":2705:2832   */\n    tag_492:\n        /* \"#utility.yul\":2766:2776   */\n      0x4e487b71\n        /* \"#utility.yul\":2761:2764   */\n      0xe0\n        /* \"#utility.yul\":2757:2777   */\n      shl\n        /* \"#utility.yul\":2754:2755   */\n      0x00\n        /* \"#utility.yul\":2747:2778   */\n      mstore\n        /* \"#utility.yul\":2797:2801   */\n      0x41\n        /* \"#utility.yul\":2794:2795   */\n      0x04\n        /* \"#utility.yul\":2787:2802   */\n      mstore\n        /* \"#utility.yul\":2821:2825   */\n      0x24\n        /* \"#utility.yul\":2818:2819   */\n      0x00\n        /* \"#utility.yul\":2811:2826   */\n      revert\n        /* \"#utility.yul\":2837:3553   */\n    tag_493:\n        /* \"#utility.yul\":2902:2907   */\n      0x00\n        /* \"#utility.yul\":2934:2935   */\n      dup1\n        /* \"#utility.yul\":2958:2976   */\n      0xffffffffffffffff\n        /* \"#utility.yul\":2950:2956   */\n      dup5\n        /* \"#utility.yul\":2947:2977   */\n      gt\n        /* \"#utility.yul\":2944:3000   */\n      iszero\n      tag_527\n      jumpi\n        /* \"#utility.yul\":2980:2998   */\n      tag_527\n      tag_492\n      jump\t// in\n    tag_527:\n      pop\n        /* \"#utility.yul\":3135:3137   */\n      0x40\n        /* \"#utility.yul\":3129:3138   */\n      mload\n      not(0x1f)\n        /* \"#utility.yul\":3048:3050   */\n      0x1f\n        /* \"#utility.yul\":3027:3042   */\n      dup6\n      add\n        /* \"#utility.yul\":3023:3052   */\n      dup2\n      and\n        /* \"#utility.yul\":3193:3195   */\n      0x3f\n        /* \"#utility.yul\":3181:3196   */\n      add\n        /* \"#utility.yul\":3177:3206   */\n      and\n        /* \"#utility.yul\":3165:3207   */\n      dup2\n      add\n        /* \"#utility.yul\":3258:3280   */\n      dup2\n      dup2\n      lt\n        /* \"#utility.yul\":3237:3255   */\n      0xffffffffffffffff\n        /* \"#utility.yul\":3222:3256   */\n      dup3\n      gt\n        /* \"#utility.yul\":3219:3281   */\n      or\n        /* \"#utility.yul\":3216:3304   */\n      iszero\n      tag_529\n      jumpi\n        /* \"#utility.yul\":3284:3302   */\n      tag_529\n      tag_492\n      jump\t// in\n    tag_529:\n        /* \"#utility.yul\":3320:3322   */\n      0x40\n        /* \"#utility.yul\":3313:3335   */\n      mstore\n        /* \"#utility.yul\":3368:3390   */\n      dup4\n      dup2\n      mstore\n        /* \"#utility.yul\":3353:3359   */\n      swap1\n      pop\n      dup1\n        /* \"#utility.yul\":3405:3421   */\n      dup3\n      dup5\n      add\n        /* \"#utility.yul\":3402:3427   */\n      dup6\n      lt\n        /* \"#utility.yul\":3399:3444   */\n      iszero\n      tag_530\n      jumpi\n        /* \"#utility.yul\":3440:3441   */\n      0x00\n        /* \"#utility.yul\":3437:3438   */\n      dup1\n        /* \"#utility.yul\":3430:3442   */\n      revert\n        /* \"#utility.yul\":3399:3444   */\n    tag_530:\n        /* \"#utility.yul\":3490:3496   */\n      dup4\n        /* \"#utility.yul\":3485:3488   */\n      dup4\n        /* \"#utility.yul\":3478:3482   */\n      0x20\n        /* \"#utility.yul\":3470:3476   */\n      dup4\n        /* \"#utility.yul\":3466:3483   */\n      add\n        /* \"#utility.yul\":3453:3497   */\n      calldatacopy\n        /* \"#utility.yul\":3545:3546   */\n      0x00\n        /* \"#utility.yul\":3538:3542   */\n      0x20\n        /* \"#utility.yul\":3529:3535   */\n      dup6\n        /* \"#utility.yul\":3521:3527   */\n      dup4\n        /* \"#utility.yul\":3517:3536   */\n      add\n        /* \"#utility.yul\":3513:3543   */\n      add\n        /* \"#utility.yul\":3506:3547   */\n      mstore\n      pop\n        /* \"#utility.yul\":2837:3553   */\n      swap4\n      swap3\n      pop\n      pop\n      pop\n      jump\t// out\n        /* \"#utility.yul\":3558:4009   */\n    tag_113:\n        /* \"#utility.yul\":3627:3633   */\n      0x00\n        /* \"#utility.yul\":3680:3682   */\n      0x20\n        /* \"#utility.yul\":3668:3677   */\n      dup3\n        /* \"#utility.yul\":3659:3666   */\n      dup5\n        /* \"#utility.yul\":3655:3678   */\n      sub\n        /* \"#utility.yul\":3651:3683   */\n      slt\n        /* \"#utility.yul\":3648:3700   */\n      iszero\n      tag_532\n      jumpi\n        /* \"#utility.yul\":3696:3697   */\n      0x00\n        /* \"#utility.yul\":3693:3694   */\n      dup1\n        /* \"#utility.yul\":3686:3698   */\n      revert\n        /* \"#utility.yul\":3648:3700   */\n    tag_532:\n        /* \"#utility.yul\":3736:3745   */\n      dup2\n        /* \"#utility.yul\":3723:3746   */\n      calldataload\n        /* \"#utility.yul\":3769:3787   */\n      0xffffffffffffffff\n        /* \"#utility.yul\":3761:3767   */\n      dup2\n        /* \"#utility.yul\":3758:3788   */\n      gt\n        /* \"#utility.yul\":3755:3805   */\n      iszero\n      tag_533\n      jumpi\n        /* \"#utility.yul\":3801:3802   */\n      0x00\n        /* \"#utility.yul\":3798:3799   */\n      dup1\n        /* \"#utility.yul\":3791:3803   */\n      revert\n        /* \"#utility.yul\":3755:3805   */\n    tag_533:\n        /* \"#utility.yul\":3824:3846   */\n      dup3\n      add\n        /* \"#utility.yul\":3877:3881   */\n      0x1f\n        /* \"#utility.yul\":3869:3882   */\n      dup2\n      add\n        /* \"#utility.yul\":3865:3892   */\n      dup5\n      sgt\n        /* \"#utility.yul\":3855:3910   */\n      tag_534\n      jumpi\n        /* \"#utility.yul\":3906:3907   */\n      0x00\n        /* \"#utility.yul\":3903:3904   */\n      dup1\n        /* \"#utility.yul\":3896:3908   */\n      revert\n        /* \"#utility.yul\":3855:3910   */\n    tag_534:\n        /* \"#utility.yul\":3929:4003   */\n      tag_382\n        /* \"#utility.yul\":3995:4002   */\n      dup5\n        /* \"#utility.yul\":3990:3992   */\n      dup3\n        /* \"#utility.yul\":3977:3993   */\n      calldataload\n        /* \"#utility.yul\":3972:3974   */\n      0x20\n        /* \"#utility.yul\":3968:3970   */\n      dup5\n        /* \"#utility.yul\":3964:3975   */\n      add\n        /* \"#utility.yul\":3929:4003   */\n      tag_493\n      jump\t// in\n        /* \"#utility.yul\":4014:4200   */\n    tag_127:\n        /* \"#utility.yul\":4073:4079   */\n      0x00\n        /* \"#utility.yul\":4126:4128   */\n      0x20\n        /* \"#utility.yul\":4114:4123   */\n      dup3\n        /* \"#utility.yul\":4105:4112   */\n      dup5\n        /* \"#utility.yul\":4101:4124   */\n      sub\n        /* \"#utility.yul\":4097:4129   */\n      slt\n        /* \"#utility.yul\":4094:4146   */\n      iszero\n      tag_537\n      jumpi\n        /* \"#utility.yul\":4142:4143   */\n      0x00\n        /* \"#utility.yul\":4139:4140   */\n      dup1\n        /* \"#utility.yul\":4132:4144   */\n      revert\n        /* \"#utility.yul\":4094:4146   */\n    tag_537:\n        /* \"#utility.yul\":4165:4194   */\n      tag_504\n        /* \"#utility.yul\":4184:4193   */\n      dup3\n        /* \"#utility.yul\":4165:4194   */\n      tag_491\n      jump\t// in\n        /* \"#utility.yul\":4205:4552   */\n    tag_158:\n        /* \"#utility.yul\":4270:4276   */\n      0x00\n        /* \"#utility.yul\":4278:4284   */\n      dup1\n        /* \"#utility.yul\":4331:4333   */\n      0x40\n        /* \"#utility.yul\":4319:4328   */\n      dup4\n        /* \"#utility.yul\":4310:4317   */\n      dup6\n        /* \"#utility.yul\":4306:4329   */\n      sub\n        /* \"#utility.yul\":4302:4334   */\n      slt\n        /* \"#utility.yul\":4299:4351   */\n      iszero\n      tag_540\n      jumpi\n        /* \"#utility.yul\":4347:4348   */\n      0x00\n        /* \"#utility.yul\":4344:4345   */\n      dup1\n        /* \"#utility.yul\":4337:4349   */\n      revert\n        /* \"#utility.yul\":4299:4351   */\n    tag_540:\n        /* \"#utility.yul\":4370:4399   */\n      tag_541\n        /* \"#utility.yul\":4389:4398   */\n      dup4\n        /* \"#utility.yul\":4370:4399   */\n      tag_491\n      jump\t// in\n    tag_541:\n        /* \"#utility.yul\":4360:4399   */\n      swap2\n      pop\n        /* \"#utility.yul\":4449:4451   */\n      0x20\n        /* \"#utility.yul\":4438:4447   */\n      dup4\n        /* \"#utility.yul\":4434:4452   */\n      add\n        /* \"#utility.yul\":4421:4453   */\n      calldataload\n        /* \"#utility.yul\":4496:4501   */\n      dup1\n        /* \"#utility.yul\":4489:4502   */\n      iszero\n        /* \"#utility.yul\":4482:4503   */\n      iszero\n        /* \"#utility.yul\":4475:4480   */\n      dup2\n        /* \"#utility.yul\":4472:4504   */\n      eq\n        /* \"#utility.yul\":4462:4522   */\n      tag_542\n      jumpi\n        /* \"#utility.yul\":4518:4519   */\n      0x00\n        /* \"#utility.yul\":4515:4516   */\n      dup1\n        /* \"#utility.yul\":4508:4520   */\n      revert\n        /* \"#utility.yul\":4462:4522   */\n    tag_542:\n        /* \"#utility.yul\":4541:4546   */\n      dup1\n        /* \"#utility.yul\":4531:4546   */\n      swap2\n      pop\n      pop\n        /* \"#utility.yul\":4205:4552   */\n      swap3\n      pop\n      swap3\n      swap1\n      pop\n      jump\t// out\n        /* \"#utility.yul\":4557:5270   */\n    tag_163:\n        /* \"#utility.yul\":4652:4658   */\n      0x00\n        /* \"#utility.yul\":4660:4666   */\n      dup1\n        /* \"#utility.yul\":4668:4674   */\n      0x00\n        /* \"#utility.yul\":4676:4682   */\n      dup1\n        /* \"#utility.yul\":4729:4732   */\n      0x80\n        /* \"#utility.yul\":4717:4726   */\n      dup6\n        /* \"#utility.yul\":4708:4715   */\n      dup8\n        /* \"#utility.yul\":4704:4727   */\n      sub\n        /* \"#utility.yul\":4700:4733   */\n      slt\n        /* \"#utility.yul\":4697:4750   */\n      iszero\n      tag_544\n      jumpi\n        /* \"#utility.yul\":4746:4747   */\n      0x00\n        /* \"#utility.yul\":4743:4744   */\n      dup1\n        /* \"#utility.yul\":4736:4748   */\n      revert\n        /* \"#utility.yul\":4697:4750   */\n    tag_544:\n        /* \"#utility.yul\":4769:4798   */\n      tag_545\n        /* \"#utility.yul\":4788:4797   */\n      dup6\n        /* \"#utility.yul\":4769:4798   */\n      tag_491\n      jump\t// in\n    tag_545:\n        /* \"#utility.yul\":4759:4798   */\n      swap4\n      pop\n        /* \"#utility.yul\":4817:4855   */\n      tag_546\n        /* \"#utility.yul\":4851:4853   */\n      0x20\n        /* \"#utility.yul\":4840:4849   */\n      dup7\n        /* \"#utility.yul\":4836:4854   */\n      add\n        /* \"#utility.yul\":4817:4855   */\n      tag_491\n      jump\t// in\n    tag_546:\n        /* \"#utility.yul\":4807:4855   */\n      swap3\n      pop\n        /* \"#utility.yul\":4924:4926   */\n      0x40\n        /* \"#utility.yul\":4909:4927   */\n      dup6\n      add\n        /* \"#utility.yul\":4896:4928   */\n      calldataload\n      swap2\n      pop\n        /* \"#utility.yul\":5003:5005   */\n      0x60\n        /* \"#utility.yul\":4988:5006   */\n      dup6\n      add\n        /* \"#utility.yul\":4975:5007   */\n      calldataload\n        /* \"#utility.yul\":5030:5048   */\n      0xffffffffffffffff\n        /* \"#utility.yul\":5019:5049   */\n      dup2\n      gt\n        /* \"#utility.yul\":5016:5066   */\n      iszero\n      tag_547\n      jumpi\n        /* \"#utility.yul\":5062:5063   */\n      0x00\n        /* \"#utility.yul\":5059:5060   */\n      dup1\n        /* \"#utility.yul\":5052:5064   */\n      revert\n        /* \"#utility.yul\":5016:5066   */\n    tag_547:\n        /* \"#utility.yul\":5085:5107   */\n      dup6\n      add\n        /* \"#utility.yul\":5138:5142   */\n      0x1f\n        /* \"#utility.yul\":5130:5143   */\n      dup2\n      add\n        /* \"#utility.yul\":5126:5153   */\n      dup8\n      sgt\n        /* \"#utility.yul\":5116:5171   */\n      tag_548\n      jumpi\n        /* \"#utility.yul\":5167:5168   */\n      0x00\n        /* \"#utility.yul\":5164:5165   */\n      dup1\n        /* \"#utility.yul\":5157:5169   */\n      revert\n        /* \"#utility.yul\":5116:5171   */\n    tag_548:\n        /* \"#utility.yul\":5190:5264   */\n      tag_549\n        /* \"#utility.yul\":5256:5263   */\n      dup8\n        /* \"#utility.yul\":5251:5253   */\n      dup3\n        /* \"#utility.yul\":5238:5254   */\n      calldataload\n        /* \"#utility.yul\":5233:5235   */\n      0x20\n        /* \"#utility.yul\":5229:5231   */\n      dup5\n        /* \"#utility.yul\":5225:5236   */\n      add\n        /* \"#utility.yul\":5190:5264   */\n      tag_493\n      jump\t// in\n    tag_549:\n        /* \"#utility.yul\":5180:5264   */\n      swap2\n      pop\n      pop\n        /* \"#utility.yul\":4557:5270   */\n      swap3\n      swap6\n      swap2\n      swap5\n      pop\n      swap3\n      pop\n      jump\t// out\n        /* \"#utility.yul\":5275:5535   */\n    tag_188:\n        /* \"#utility.yul\":5343:5349   */\n      0x00\n        /* \"#utility.yul\":5351:5357   */\n      dup1\n        /* \"#utility.yul\":5404:5406   */\n      0x40\n        /* \"#utility.yul\":5392:5401   */\n      dup4\n        /* \"#utility.yul\":5383:5390   */\n      dup6\n        /* \"#utility.yul\":5379:5402   */\n      sub\n        /* \"#utility.yul\":5375:5407   */\n      slt\n        /* \"#utility.yul\":5372:5424   */\n      iszero\n      tag_551\n      jumpi\n        /* \"#utility.yul\":5420:5421   */\n      0x00\n        /* \"#utility.yul\":5417:5418   */\n      dup1\n        /* \"#utility.yul\":5410:5422   */\n      revert\n        /* \"#utility.yul\":5372:5424   */\n    tag_551:\n        /* \"#utility.yul\":5443:5472   */\n      tag_552\n        /* \"#utility.yul\":5462:5471   */\n      dup4\n        /* \"#utility.yul\":5443:5472   */\n      tag_491\n      jump\t// in\n    tag_552:\n        /* \"#utility.yul\":5433:5472   */\n      swap2\n      pop\n        /* \"#utility.yul\":5491:5529   */\n      tag_553\n        /* \"#utility.yul\":5525:5527   */\n      0x20\n        /* \"#utility.yul\":5514:5523   */\n      dup5\n        /* \"#utility.yul\":5510:5528   */\n      add\n        /* \"#utility.yul\":5491:5529   */\n      tag_491\n      jump\t// in\n    tag_553:\n        /* \"#utility.yul\":5481:5529   */\n      swap1\n      pop\n        /* \"#utility.yul\":5275:5535   */\n      swap3\n      pop\n      swap3\n      swap1\n      pop\n      jump\t// out\n        /* \"#utility.yul\":5540:5920   */\n    tag_206:\n        /* \"#utility.yul\":5619:5620   */\n      0x01\n        /* \"#utility.yul\":5615:5627   */\n      dup2\n      dup2\n      shr\n      swap1\n        /* \"#utility.yul\":5662:5674   */\n      dup3\n      and\n      dup1\n        /* \"#utility.yul\":5683:5744   */\n      tag_555\n      jumpi\n        /* \"#utility.yul\":5737:5741   */\n      0x7f\n        /* \"#utility.yul\":5729:5735   */\n      dup3\n        /* \"#utility.yul\":5725:5742   */\n      and\n        /* \"#utility.yul\":5715:5742   */\n      swap2\n      pop\n        /* \"#utility.yul\":5683:5744   */\n    tag_555:\n        /* \"#utility.yul\":5790:5792   */\n      0x20\n        /* \"#utility.yul\":5782:5788   */\n      dup3\n        /* \"#utility.yul\":5779:5793   */\n      lt\n        /* \"#utility.yul\":5759:5777   */\n      dup2\n        /* \"#utility.yul\":5756:5794   */\n      sub\n        /* \"#utility.yul\":5753:5914   */\n      tag_556\n      jumpi\n        /* \"#utility.yul\":5836:5846   */\n      0x4e487b71\n        /* \"#utility.yul\":5831:5834   */\n      0xe0\n        /* \"#utility.yul\":5827:5847   */\n      shl\n        /* \"#utility.yul\":5824:5825   */\n      0x00\n        /* \"#utility.yul\":5817:5848   */\n      mstore\n        /* \"#utility.yul\":5871:5875   */\n      0x22\n        /* \"#utility.yul\":5868:5869   */\n      0x04\n        /* \"#utility.yul\":5861:5876   */\n      mstore\n        /* \"#utility.yul\":5899:5903   */\n      0x24\n        /* \"#utility.yul\":5896:5897   */\n      0x00\n        /* \"#utility.yul\":5889:5904   */\n      revert\n        /* \"#utility.yul\":5753:5914   */\n    tag_556:\n      pop\n        /* \"#utility.yul\":5540:5920   */\n      swap2\n      swap1\n      pop\n      jump\t// out\n        /* \"#utility.yul\":6580:6707   */\n    tag_255:\n        /* \"#utility.yul\":6641:6651   */\n      0x4e487b71\n        /* \"#utility.yul\":6636:6639   */\n      0xe0\n        /* \"#utility.yul\":6632:6652   */\n      shl\n        /* \"#utility.yul\":6629:6630   */\n      0x00\n        /* \"#utility.yul\":6622:6653   */\n      mstore\n        /* \"#utility.yul\":6672:6676   */\n      0x32\n        /* \"#utility.yul\":6669:6670   */\n      0x04\n        /* \"#utility.yul\":6662:6677   */\n      mstore\n        /* \"#utility.yul\":6696:6700   */\n      0x24\n        /* \"#utility.yul\":6693:6694   */\n      0x00\n        /* \"#utility.yul\":6686:6701   */\n      revert\n        /* \"#utility.yul\":7407:7534   */\n    tag_494:\n        /* \"#utility.yul\":7468:7478   */\n      0x4e487b71\n        /* \"#utility.yul\":7463:7466   */\n      0xe0\n        /* \"#utility.yul\":7459:7479   */\n      shl\n        /* \"#utility.yul\":7456:7457   */\n      0x00\n        /* \"#utility.yul\":7449:7480   */\n      mstore\n        /* \"#utility.yul\":7499:7503   */\n      0x11\n        /* \"#utility.yul\":7496:7497   */\n      0x04\n        /* \"#utility.yul\":7489:7504   */\n      mstore\n        /* \"#utility.yul\":7523:7527   */\n      0x24\n        /* \"#utility.yul\":7520:7521   */\n      0x00\n        /* \"#utility.yul\":7513:7528   */\n      revert\n        /* \"#utility.yul\":7539:7674   */\n    tag_268:\n        /* \"#utility.yul\":7578:7581   */\n      0x00\n        /* \"#utility.yul\":7599:7616   */\n      0x01\n      dup3\n      add\n        /* \"#utility.yul\":7596:7639   */\n      tag_565\n      jumpi\n        /* \"#utility.yul\":7619:7637   */\n      tag_565\n      tag_494\n      jump\t// in\n    tag_565:\n      pop\n        /* \"#utility.yul\":7666:7667   */\n      0x01\n        /* \"#utility.yul\":7655:7668   */\n      add\n      swap1\n        /* \"#utility.yul\":7539:7674   */\n      jump\t// out\n        /* \"#utility.yul\":8316:8441   */\n    tag_323:\n        /* \"#utility.yul\":8381:8390   */\n      dup1\n      dup3\n      add\n        /* \"#utility.yul\":8402:8412   */\n      dup1\n      dup3\n      gt\n        /* \"#utility.yul\":8399:8435   */\n      iszero\n      tag_202\n      jumpi\n        /* \"#utility.yul\":8415:8433   */\n      tag_202\n      tag_494\n      jump\t// in\n        /* \"#utility.yul\":9277:9795   */\n    tag_496:\n        /* \"#utility.yul\":9379:9381   */\n      0x1f\n        /* \"#utility.yul\":9374:9377   */\n      dup3\n        /* \"#utility.yul\":9371:9382   */\n      gt\n        /* \"#utility.yul\":9368:9789   */\n      iszero\n      tag_248\n      jumpi\n        /* \"#utility.yul\":9415:9420   */\n      dup1\n        /* \"#utility.yul\":9412:9413   */\n      0x00\n        /* \"#utility.yul\":9405:9421   */\n      mstore\n        /* \"#utility.yul\":9459:9463   */\n      0x20\n        /* \"#utility.yul\":9456:9457   */\n      0x00\n        /* \"#utility.yul\":9446:9464   */\n      keccak256\n        /* \"#utility.yul\":9529:9531   */\n      0x1f\n        /* \"#utility.yul\":9517:9527   */\n      dup5\n        /* \"#utility.yul\":9513:9532   */\n      add\n        /* \"#utility.yul\":9510:9511   */\n      0x05\n        /* \"#utility.yul\":9506:9533   */\n      shr\n        /* \"#utility.yul\":9500:9504   */\n      dup2\n        /* \"#utility.yul\":9496:9534   */\n      add\n        /* \"#utility.yul\":9565:9569   */\n      0x20\n        /* \"#utility.yul\":9553:9563   */\n      dup6\n        /* \"#utility.yul\":9550:9570   */\n      lt\n        /* \"#utility.yul\":9547:9594   */\n      iszero\n      tag_576\n      jumpi\n      pop\n        /* \"#utility.yul\":9588:9592   */\n      dup1\n        /* \"#utility.yul\":9547:9594   */\n    tag_576:\n        /* \"#utility.yul\":9643:9645   */\n      0x1f\n        /* \"#utility.yul\":9638:9641   */\n      dup5\n        /* \"#utility.yul\":9634:9646   */\n      add\n        /* \"#utility.yul\":9631:9632   */\n      0x05\n        /* \"#utility.yul\":9627:9647   */\n      shr\n        /* \"#utility.yul\":9621:9625   */\n      dup3\n        /* \"#utility.yul\":9617:9648   */\n      add\n        /* \"#utility.yul\":9607:9648   */\n      swap2\n      pop\n        /* \"#utility.yul\":9698:9779   */\n    tag_577:\n        /* \"#utility.yul\":9716:9718   */\n      dup2\n        /* \"#utility.yul\":9709:9714   */\n      dup2\n        /* \"#utility.yul\":9706:9719   */\n      lt\n        /* \"#utility.yul\":9698:9779   */\n      iszero\n      tag_422\n      jumpi\n        /* \"#utility.yul\":9775:9776   */\n      0x00\n        /* \"#utility.yul\":9761:9777   */\n      dup2\n      sstore\n        /* \"#utility.yul\":9742:9743   */\n      0x01\n        /* \"#utility.yul\":9731:9744   */\n      add\n        /* \"#utility.yul\":9698:9779   */\n      jump(tag_577)\n        /* \"#utility.yul\":9971:11270   */\n    tag_397:\n        /* \"#utility.yul\":10097:10100   */\n      dup2\n        /* \"#utility.yul\":10091:10101   */\n      mload\n        /* \"#utility.yul\":10124:10142   */\n      0xffffffffffffffff\n        /* \"#utility.yul\":10116:10122   */\n      dup2\n        /* \"#utility.yul\":10113:10143   */\n      gt\n        /* \"#utility.yul\":10110:10166   */\n      iszero\n      tag_583\n      jumpi\n        /* \"#utility.yul\":10146:10164   */\n      tag_583\n      tag_492\n      jump\t// in\n    tag_583:\n        /* \"#utility.yul\":10175:10272   */\n      tag_584\n        /* \"#utility.yul\":10265:10271   */\n      dup2\n        /* \"#utility.yul\":10225:10263   */\n      tag_585\n        /* \"#utility.yul\":10257:10261   */\n      dup5\n        /* \"#utility.yul\":10251:10262   */\n      sload\n        /* \"#utility.yul\":10225:10263   */\n      tag_206\n      jump\t// in\n    tag_585:\n        /* \"#utility.yul\":10219:10223   */\n      dup5\n        /* \"#utility.yul\":10175:10272   */\n      tag_496\n      jump\t// in\n    tag_584:\n        /* \"#utility.yul\":10321:10325   */\n      0x20\n        /* \"#utility.yul\":10352:10354   */\n      0x1f\n        /* \"#utility.yul\":10341:10355   */\n      dup3\n      gt\n        /* \"#utility.yul\":10369:10370   */\n      0x01\n        /* \"#utility.yul\":10364:11013   */\n      dup2\n      eq\n      tag_587\n      jumpi\n        /* \"#utility.yul\":11057:11058   */\n      0x00\n        /* \"#utility.yul\":11074:11080   */\n      dup4\n        /* \"#utility.yul\":11071:11160   */\n      iszero\n      tag_588\n      jumpi\n      pop\n        /* \"#utility.yul\":11126:11145   */\n      dup5\n      dup3\n      add\n        /* \"#utility.yul\":11120:11146   */\n      mload\n        /* \"#utility.yul\":11071:11160   */\n    tag_588:\n      not(0x00)\n        /* \"#utility.yul\":9928:9929   */\n      0x03\n        /* \"#utility.yul\":9924:9935   */\n      dup6\n      swap1\n      shl\n        /* \"#utility.yul\":9920:9944   */\n      shr\n        /* \"#utility.yul\":9916:9945   */\n      not\n        /* \"#utility.yul\":9906:9946   */\n      and\n        /* \"#utility.yul\":9952:9953   */\n      0x01\n        /* \"#utility.yul\":9948:9959   */\n      dup5\n      swap1\n      shl\n        /* \"#utility.yul\":9903:9960   */\n      or\n        /* \"#utility.yul\":11173:11254   */\n      dup5\n      sstore\n        /* \"#utility.yul\":10334:11264   */\n      jump(tag_422)\n        /* \"#utility.yul\":10364:11013   */\n    tag_587:\n        /* \"#utility.yul\":9224:9225   */\n      0x00\n        /* \"#utility.yul\":9217:9231   */\n      dup5\n      dup2\n      mstore\n        /* \"#utility.yul\":9261:9265   */\n      0x20\n        /* \"#utility.yul\":9248:9266   */\n      dup2\n      keccak256\n      not(0x1f)\n        /* \"#utility.yul\":10400:10420   */\n      dup6\n      and\n      swap2\n        /* \"#utility.yul\":10518:10740   */\n    tag_591:\n        /* \"#utility.yul\":10532:10539   */\n      dup3\n        /* \"#utility.yul\":10529:10530   */\n      dup2\n        /* \"#utility.yul\":10526:10540   */\n      lt\n        /* \"#utility.yul\":10518:10740   */\n      iszero\n      tag_593\n      jumpi\n        /* \"#utility.yul\":10614:10633   */\n      dup8\n      dup6\n      add\n        /* \"#utility.yul\":10608:10634   */\n      mload\n        /* \"#utility.yul\":10593:10635   */\n      dup3\n      sstore\n        /* \"#utility.yul\":10721:10725   */\n      0x20\n        /* \"#utility.yul\":10706:10726   */\n      swap5\n      dup6\n      add\n      swap5\n        /* \"#utility.yul\":10674:10675   */\n      0x01\n        /* \"#utility.yul\":10662:10676   */\n      swap1\n      swap3\n      add\n      swap2\n        /* \"#utility.yul\":10548:10560   */\n      add\n        /* \"#utility.yul\":10518:10740   */\n      jump(tag_591)\n    tag_593:\n        /* \"#utility.yul\":10522:10525   */\n      pop\n        /* \"#utility.yul\":10768:10774   */\n      dup5\n        /* \"#utility.yul\":10759:10766   */\n      dup3\n        /* \"#utility.yul\":10756:10775   */\n      lt\n        /* \"#utility.yul\":10753:10954   */\n      iszero\n      tag_594\n      jumpi\n        /* \"#utility.yul\":10829:10848   */\n      dup7\n      dup5\n      add\n        /* \"#utility.yul\":10823:10849   */\n      mload\n      not(0x00)\n        /* \"#utility.yul\":10912:10913   */\n      0x03\n        /* \"#utility.yul\":10908:10922   */\n      dup8\n      swap1\n      shl\n        /* \"#utility.yul\":10924:10927   */\n      0xf8\n        /* \"#utility.yul\":10904:10928   */\n      and\n        /* \"#utility.yul\":10900:10937   */\n      shr\n        /* \"#utility.yul\":10896:10938   */\n      not\n        /* \"#utility.yul\":10881:10939   */\n      and\n        /* \"#utility.yul\":10866:10940   */\n      dup2\n      sstore\n        /* \"#utility.yul\":10753:10954   */\n    tag_594:\n      pop\n      pop\n      pop\n      pop\n        /* \"#utility.yul\":11000:11001   */\n      0x01\n        /* \"#utility.yul\":10984:10998   */\n      swap1\n      dup2\n      shl\n        /* \"#utility.yul\":10980:11002   */\n      add\n        /* \"#utility.yul\":10967:11003   */\n      swap1\n      sstore\n      pop\n        /* \"#utility.yul\":9971:11270   */\n      jump\t// out\n        /* \"#utility.yul\":11275:11760   */\n    tag_408:\n      sub(shl(0xa0, 0x01), 0x01)\n        /* \"#utility.yul\":11506:11538   */\n      dup6\n      dup2\n      and\n        /* \"#utility.yul\":11488:11539   */\n      dup3\n      mstore\n        /* \"#utility.yul\":11575:11607   */\n      dup5\n      and\n        /* \"#utility.yul\":11570:11572   */\n      0x20\n        /* \"#utility.yul\":11555:11573   */\n      dup3\n      add\n        /* \"#utility.yul\":11548:11608   */\n      mstore\n        /* \"#utility.yul\":11639:11641   */\n      0x40\n        /* \"#utility.yul\":11624:11642   */\n      dup2\n      add\n        /* \"#utility.yul\":11617:11651   */\n      dup4\n      swap1\n      mstore\n        /* \"#utility.yul\":11687:11690   */\n      0x80\n        /* \"#utility.yul\":11682:11684   */\n      0x60\n        /* \"#utility.yul\":11667:11685   */\n      dup3\n      add\n        /* \"#utility.yul\":11660:11691   */\n      dup2\n      swap1\n      mstore\n      0x00\n      swap1\n        /* \"#utility.yul\":11708:11754   */\n      tag_596\n      swap1\n        /* \"#utility.yul\":11734:11753   */\n      dup4\n      add\n        /* \"#utility.yul\":11726:11732   */\n      dup5\n        /* \"#utility.yul\":11708:11754   */\n      tag_490\n      jump\t// in\n    tag_596:\n        /* \"#utility.yul\":11700:11754   */\n      swap7\n        /* \"#utility.yul\":11275:11760   */\n      swap6\n      pop\n      pop\n      pop\n      pop\n      pop\n      pop\n      jump\t// out\n        /* \"#utility.yul\":11765:12014   */\n    tag_411:\n        /* \"#utility.yul\":11834:11840   */\n      0x00\n        /* \"#utility.yul\":11887:11889   */\n      0x20\n        /* \"#utility.yul\":11875:11884   */\n      dup3\n        /* \"#utility.yul\":11866:11873   */\n      dup5\n        /* \"#utility.yul\":11862:11885   */\n      sub\n        /* \"#utility.yul\":11858:11890   */\n      slt\n        /* \"#utility.yul\":11855:11907   */\n      iszero\n      tag_598\n      jumpi\n        /* \"#utility.yul\":11903:11904   */\n      0x00\n        /* \"#utility.yul\":11900:11901   */\n      dup1\n        /* \"#utility.yul\":11893:11905   */\n      revert\n        /* \"#utility.yul\":11855:11907   */\n    tag_598:\n        /* \"#utility.yul\":11935:11944   */\n      dup2\n        /* \"#utility.yul\":11929:11945   */\n      mload\n        /* \"#utility.yul\":11954:11984   */\n      tag_504\n        /* \"#utility.yul\":11978:11983   */\n      dup2\n        /* \"#utility.yul\":11954:11984   */\n      tag_489\n      jump\t// in\n        /* \"#utility.yul\":12019:12147   */\n    tag_451:\n        /* \"#utility.yul\":12086:12095   */\n      dup2\n      dup2\n      sub\n        /* \"#utility.yul\":12107:12118   */\n      dup2\n      dup2\n      gt\n        /* \"#utility.yul\":12104:12141   */\n      iszero\n      tag_202\n      jumpi\n        /* \"#utility.yul\":12121:12139   */\n      tag_202\n      tag_494\n      jump\t// in\n        /* \"#utility.yul\":12152:12279   */\n    tag_460:\n        /* \"#utility.yul\":12213:12223   */\n      0x4e487b71\n        /* \"#utility.yul\":12208:12211   */\n      0xe0\n        /* \"#utility.yul\":12204:12224   */\n      shl\n        /* \"#utility.yul\":12201:12202   */\n      0x00\n        /* \"#utility.yul\":12194:12225   */\n      mstore\n        /* \"#utility.yul\":12244:12248   */\n      0x31\n        /* \"#utility.yul\":12241:12242   */\n      0x04\n        /* \"#utility.yul\":12234:12249   */\n      mstore\n        /* \"#utility.yul\":12268:12272   */\n      0x24\n        /* \"#utility.yul\":12265:12266   */\n      0x00\n        /* \"#utility.yul\":12258:12273   */\n      revert\n\n    auxdata: 0xa26469706673582212208af7857e107af6582f25e2e73e2d1ed4ccd936aedd0d0394277abb964b940e5d64736f6c634300081a0033\n}\n",
				"bytecode": {
					"linkReferences": {},
					"object": "60806040526611c37937e08000600c5534801561001a575f80fd5b50604051611f37380380611f378339810160408190526100399161015e565b336040518060400160405280600981526020016810985b985b9853919560ba1b815250604051806040016040528060048152602001631093919560e21b815250815f90816100879190610238565b5060016100948282610238565b50506001600a55506001600160a01b0381166100c957604051631e4fbdf760e01b81525f600482015260240160405180910390fd5b6100d28161010d565b50600d8390556100e282426102f2565b600e55601180546001600160a01b0319166001600160a01b0392909216919091179055506103179050565b600b80546001600160a01b038381166001600160a01b0319831681179093556040519116919082907f8be0079c531659141344cd1fd0a4f28419497f9722a3daafe3b4186f6b6457e0905f90a35050565b5f805f60608486031215610170575f80fd5b83516020850151604086015191945092506001600160a01b0381168114610195575f80fd5b809150509250925092565b634e487b7160e01b5f52604160045260245ffd5b600181811c908216806101c857607f821691505b6020821081036101e657634e487b7160e01b5f52602260045260245ffd5b50919050565b601f82111561023357805f5260205f20601f840160051c810160208510156102115750805b601f840160051c820191505b81811015610230575f815560010161021d565b50505b505050565b81516001600160401b03811115610251576102516101a0565b6102658161025f84546101b4565b846101ec565b6020601f821160018114610297575f83156102805750848201515b5f19600385901b1c1916600184901b178455610230565b5f84815260208120601f198516915b828110156102c657878501518255602094850194600190920191016102a6565b50848210156102e357868401515f19600387901b60f8161c191681555b50505050600190811b01905550565b8082018082111561031157634e487b7160e01b5f52601160045260245ffd5b92915050565b611c13806103245f395ff3fe6080604052600436106101f0575f3560e01c80636aa71d1811610108578063b88d4fde1161009d578063de8b51e11161006d578063de8b51e114610564578063e43252d714610578578063e985e9c514610597578063f2fde38b146105b6578063f4a0a528146105d5575f80fd5b8063b88d4fde146104e8578063c87b56dd14610507578063cada2a1814610526578063d85d3d2714610545575f80fd5b80638da5cb5b116100d85780638da5cb5b1461046a57806395d89b41146104875780639b19251a1461049b578063a22cb465146104c9575f80fd5b80636aa71d18146103f35780637080d6fc1461041e57806370a0823114610437578063715018a614610456575f80fd5b8063232e623e1161018957806342842e0e1161015957806342842e0e1461036e5780634f6ccce71461038d578063537efe31146103ac5780636352211e146103bf5780636817c76c146103de575f80fd5b8063232e623e1461030757806323b872dd1461031c5780632f745c591461033b5780633ccfd60b1461035a575f80fd5b8063095ea7b3116101c4578063095ea7b31461029e5780630bb78ec1146102bf5780630e726e6b146102de57806318160ddd146102f3575f80fd5b80629a9b7b146101f457806301ffc9a71461021757806306fdde0314610246578063081812fc14610267575b5f80fd5b3480156101ff575f80fd5b506010545b6040519081526020015b60405180910390f35b348015610222575f80fd5b50610236610231366004611700565b6105f4565b604051901515815260200161020e565b348015610251575f80fd5b5061025a61061e565b60405161020e9190611765565b348015610272575f80fd5b50610286610281366004611777565b6106ad565b6040516001600160a01b03909116815260200161020e565b3480156102a9575f80fd5b506102bd6102b83660046117a9565b6106d4565b005b3480156102ca575f80fd5b5061025a6102d9366004611777565b6106e3565b3480156102e9575f80fd5b50610204600d5481565b3480156102fe575f80fd5b50600854610204565b348015610312575f80fd5b50610204600e5481565b348015610327575f80fd5b506102bd6103363660046117d1565b61077a565b348015610346575f80fd5b506102046103553660046117a9565b610808565b348015610365575f80fd5b506102bd61086b565b348015610379575f80fd5b506102bd6103883660046117d1565b6108ac565b348015610398575f80fd5b506102046103a7366004611777565b6108cb565b6102bd6103ba366004611896565b610920565b3480156103ca575f80fd5b506102866103d9366004611777565b610ae6565b3480156103e9575f80fd5b50610204600c5481565b3480156103fe575f80fd5b5061020461040d3660046118db565b60146020525f908152604090205481565b348015610429575f80fd5b50600f546102369060ff1681565b348015610442575f80fd5b506102046104513660046118db565b610af0565b348015610461575f80fd5b506102bd610b35565b348015610475575f80fd5b50600b546001600160a01b0316610286565b348015610492575f80fd5b5061025a610b48565b3480156104a6575f80fd5b506102366104b53660046118db565b60136020525f908152604090205460ff1681565b3480156104d4575f80fd5b506102bd6104e33660046118f4565b610b57565b3480156104f3575f80fd5b506102bd61050236600461192d565b610b62565b348015610512575f80fd5b5061025a610521366004611777565b610b79565b348015610531575f80fd5b506102bd610540366004611777565b610c21565b348015610550575f80fd5b506102bd61055f366004611896565b610c2e565b34801561056f575f80fd5b506102bd610d79565b348015610583575f80fd5b506102bd6105923660046118db565b610d95565b3480156105a2575f80fd5b506102366105b13660046119a4565b610dc0565b3480156105c1575f80fd5b506102bd6105d03660046118db565b610ded565b3480156105e0575f80fd5b506102bd6105ef366004611777565b610e27565b5f6001600160e01b0319821663780e9d6360e01b1480610618575061061882610e34565b92915050565b60605f805461062c906119d5565b80601f0160208091040260200160405190810160405280929190818152602001828054610658906119d5565b80156106a35780601f1061067a576101008083540402835291602001916106a3565b820191905f5260205f20905b81548152906001019060200180831161068657829003601f168201915b5050505050905090565b5f6106b782610e83565b505f828152600460205260409020546001600160a01b0316610618565b6106df828233610ebb565b5050565b60126020525f9081526040902080546106fb906119d5565b80601f0160208091040260200160405190810160405280929190818152602001828054610727906119d5565b80156107725780601f1061074957610100808354040283529160200191610772565b820191905f5260205f20905b81548152906001019060200180831161075557829003601f168201915b505050505081565b6001600160a01b0382166107a857604051633250574960e11b81525f60048201526024015b60405180910390fd5b5f6107b4838333610ec8565b9050836001600160a01b0316816001600160a01b031614610802576040516364283d7b60e01b81526001600160a01b038086166004830152602482018490528216604482015260640161079f565b50505050565b5f61081283610af0565b82106108435760405163295f44f760e21b81526001600160a01b03841660048201526024810183905260440161079f565b506001600160a01b03919091165f908152600660209081526040808320938352929052205490565b610873610f9b565b6011546040516001600160a01b03909116904780156108fc02915f818181858888f193505050501580156108a9573d5f803e3d5ffd5b50565b6108c683838360405180602001604052805f815250610b62565b505050565b5f6108d560085490565b82106108fd5760405163295f44f760e21b81525f60048201526024810183905260440161079f565b6008828154811061091057610910611a0d565b905f5260205f2001549050919050565b610928610fc8565b600f5460ff1661096f5760405162461bcd60e51b815260206004820152601260248201527153616c65206973206e6f742061637469766560701b604482015260640161079f565b600c5434146109b65760405162461bcd60e51b8152602060048201526013602482015272496e636f7272656374204554482076616c756560681b604482015260640161079f565b60105f81546109c490611a35565b909155506010546011546040515f916001600160a01b03169034908381818185875af1925050503d805f8114610a15576040519150601f19603f3d011682016040523d82523d5f602084013e610a1a565b606091505b5050905080610a915760405162461bcd60e51b815260206004820152603a60248201527f416464726573733a20756e61626c6520746f2073656e642076616c75652c207260448201527f6563697069656e74206d61792068617665207265766572746564000000000000606482015260840161079f565b610a9b3383610ff2565b610aa5828461100b565b60405182815233907f30385c845b448a36257a6a1716e6ad2e1bc2cbe333cde1e69fe849ad6511adfe9060200160405180910390a250506108a96001600a55565b5f61061882610e83565b5f6001600160a01b038216610b1a576040516322718ad960e21b81525f600482015260240161079f565b506001600160a01b03165f9081526003602052604090205490565b610b3d610f9b565b610b465f611022565b565b60606001805461062c906119d5565b6106df338383611073565b610b6d84848461077a565b61080284848484611111565b6060610b8482610e83565b505f8281526012602052604081208054610b9d906119d5565b80601f0160208091040260200160405190810160405280929190818152602001828054610bc9906119d5565b8015610c145780601f10610beb57610100808354040283529160200191610c14565b820191905f5260205f20905b815481529060010190602001808311610bf757829003601f168201915b5093979650505050505050565b610c29610f9b565b600d55565b610c36610fc8565b600d54335f90815260146020526040902054610c529190611a4d565b421015610c975760405162461bcd60e51b81526020600482015260136024820152724e6f74207265616368206d696e742074696d6560681b604482015260640161079f565b600e54421015610cff57335f9081526013602052604090205460ff16610cff5760405162461bcd60e51b815260206004820152601c60248201527f4f6e6c792077686974656c69737420757365722063616e206d696e7400000000604482015260640161079f565b60105f8154610d0d90611a35565b90915550601054335f818152601460205260409020429055610d2f9082610ff2565b610d39818361100b565b60405181815233907f30385c845b448a36257a6a1716e6ad2e1bc2cbe333cde1e69fe849ad6511adfe9060200160405180910390a2506108a96001600a55565b610d81610f9b565b600f805460ff19811660ff90911615179055565b610d9d610f9b565b6001600160a01b03165f908152601360205260409020805460ff19166001179055565b6001600160a01b039182165f90815260056020908152604080832093909416825291909152205460ff1690565b610df5610f9b565b6001600160a01b038116610e1e57604051631e4fbdf760e01b81525f600482015260240161079f565b6108a981611022565b610e2f610f9b565b600c55565b5f6001600160e01b031982166380ac58cd60e01b1480610e6457506001600160e01b03198216635b5e139f60e01b145b8061061857506301ffc9a760e01b6001600160e01b0319831614610618565b5f818152600260205260408120546001600160a01b03168061061857604051637e27328960e01b81526004810184905260240161079f565b6108c68383836001611237565b5f80610ed585858561133b565b90506001600160a01b038116610f3157610f2c84600880545f838152600960205260408120829055600182018355919091527ff3f7a9fe364faab93b216da50a3214154f22a0a2b415b23a84c8169e8b636ee30155565b610f54565b846001600160a01b0316816001600160a01b031614610f5457610f54818561142d565b6001600160a01b038516610f7057610f6b846114ba565b610f93565b846001600160a01b0316816001600160a01b031614610f9357610f938585611561565b949350505050565b600b546001600160a01b03163314610b465760405163118cdaa760e01b815233600482015260240161079f565b6002600a5403610feb57604051633ee5aeb560e01b815260040160405180910390fd5b6002600a55565b6106df828260405180602001604052805f8152506115af565b5f8281526012602052604090206108c68282611aa4565b600b80546001600160a01b038381166001600160a01b0319831681179093556040519116919082907f8be0079c531659141344cd1fd0a4f28419497f9722a3daafe3b4186f6b6457e0905f90a35050565b6001600160a01b0382166110a557604051630b61174360e31b81526001600160a01b038316600482015260240161079f565b6001600160a01b038381165f81815260056020908152604080832094871680845294825291829020805460ff191686151590811790915591519182527f17307eab39ab6107e8899845ad3d59bd9653f200f220920489ca2b5937696c31910160405180910390a3505050565b6001600160a01b0383163b1561080257604051630a85bd0160e11b81526001600160a01b0384169063150b7a0290611153903390889087908790600401611b5f565b6020604051808303815f875af192505050801561118d575060408051601f3d908101601f1916820190925261118a91810190611b9b565b60015b6111f4573d8080156111ba576040519150601f19603f3d011682016040523d82523d5f602084013e6111bf565b606091505b5080515f036111ec57604051633250574960e11b81526001600160a01b038516600482015260240161079f565b805181602001fd5b6001600160e01b03198116630a85bd0160e11b1461123057604051633250574960e11b81526001600160a01b038516600482015260240161079f565b5050505050565b808061124b57506001600160a01b03821615155b1561130c575f61125a84610e83565b90506001600160a01b038316158015906112865750826001600160a01b0316816001600160a01b031614155b801561129957506112978184610dc0565b155b156112c25760405163a9fbf51f60e01b81526001600160a01b038416600482015260240161079f565b811561130a5783856001600160a01b0316826001600160a01b03167f8c5be1e5ebec7d5bd14f71427d1e84f3dd0314c0f7b2291e5b200ac8c7c3b92560405160405180910390a45b505b50505f90815260046020526040902080546001600160a01b0319166001600160a01b0392909216919091179055565b5f828152600260205260408120546001600160a01b0390811690831615611367576113678184866115c5565b6001600160a01b038116156113a1576113825f855f80611237565b6001600160a01b0381165f90815260036020526040902080545f190190555b6001600160a01b038516156113cf576001600160a01b0385165f908152600360205260409020805460010190555b5f8481526002602052604080822080546001600160a01b0319166001600160a01b0389811691821790925591518793918516917fddf252ad1be2c89b69c2b068fc378daa952ba7f163c4a11628f55a4df523b3ef91a4949350505050565b5f61143783610af0565b5f83815260076020526040902054909150808214611488576001600160a01b0384165f9081526006602090815260408083208584528252808320548484528184208190558352600790915290208190555b505f9182526007602090815260408084208490556001600160a01b039094168352600681528383209183525290812055565b6008545f906114cb90600190611bb6565b5f83815260096020526040812054600880549394509092849081106114f2576114f2611a0d565b905f5260205f2001549050806008838154811061151157611511611a0d565b5f91825260208083209091019290925582815260099091526040808220849055858252812055600880548061154857611548611bc9565b600190038181905f5260205f20015f9055905550505050565b5f600161156d84610af0565b6115779190611bb6565b6001600160a01b039093165f908152600660209081526040808320868452825280832085905593825260079052919091209190915550565b6115b98383611629565b6108c65f848484611111565b6115d083838361168a565b6108c6576001600160a01b0383166115fe57604051637e27328960e01b81526004810182905260240161079f565b60405163177e802f60e01b81526001600160a01b03831660048201526024810182905260440161079f565b6001600160a01b03821661165257604051633250574960e11b81525f600482015260240161079f565b5f61165e83835f610ec8565b90506001600160a01b038116156108c6576040516339e3563760e11b81525f600482015260240161079f565b5f6001600160a01b03831615801590610f935750826001600160a01b0316846001600160a01b031614806116c357506116c38484610dc0565b80610f935750505f908152600460205260409020546001600160a01b03908116911614919050565b6001600160e01b0319811681146108a9575f80fd5b5f60208284031215611710575f80fd5b813561171b816116eb565b9392505050565b5f81518084525f5b818110156117465760208185018101518683018201520161172a565b505f602082860101526020601f19601f83011685010191505092915050565b602081525f61171b6020830184611722565b5f60208284031215611787575f80fd5b5035919050565b80356001600160a01b03811681146117a4575f80fd5b919050565b5f80604083850312156117ba575f80fd5b6117c38361178e565b946020939093013593505050565b5f805f606084860312156117e3575f80fd5b6117ec8461178e565b92506117fa6020850161178e565b929592945050506040919091013590565b634e487b7160e01b5f52604160045260245ffd5b5f8067ffffffffffffffff8411156118395761183961180b565b50604051601f19601f85018116603f0116810181811067ffffffffffffffff821117156118685761186861180b565b60405283815290508082840185101561187f575f80fd5b838360208301375f60208583010152509392505050565b5f602082840312156118a6575f80fd5b813567ffffffffffffffff8111156118bc575f80fd5b8201601f810184136118cc575f80fd5b610f938482356020840161181f565b5f602082840312156118eb575f80fd5b61171b8261178e565b5f8060408385031215611905575f80fd5b61190e8361178e565b915060208301358015158114611922575f80fd5b809150509250929050565b5f805f8060808587031215611940575f80fd5b6119498561178e565b93506119576020860161178e565b925060408501359150606085013567ffffffffffffffff811115611979575f80fd5b8501601f81018713611989575f80fd5b6119988782356020840161181f565b91505092959194509250565b5f80604083850312156119b5575f80fd5b6119be8361178e565b91506119cc6020840161178e565b90509250929050565b600181811c908216806119e957607f821691505b602082108103611a0757634e487b7160e01b5f52602260045260245ffd5b50919050565b634e487b7160e01b5f52603260045260245ffd5b634e487b7160e01b5f52601160045260245ffd5b5f60018201611a4657611a46611a21565b5060010190565b8082018082111561061857610618611a21565b601f8211156108c657805f5260205f20601f840160051c81016020851015611a855750805b601f840160051c820191505b81811015611230575f8155600101611a91565b815167ffffffffffffffff811115611abe57611abe61180b565b611ad281611acc84546119d5565b84611a60565b6020601f821160018114611b04575f8315611aed5750848201515b5f19600385901b1c1916600184901b178455611230565b5f84815260208120601f198516915b82811015611b335787850151825560209485019460019092019101611b13565b5084821015611b5057868401515f19600387901b60f8161c191681555b50505050600190811b01905550565b6001600160a01b03858116825284166020820152604081018390526080606082018190525f90611b9190830184611722565b9695505050505050565b5f60208284031215611bab575f80fd5b815161171b816116eb565b8181038181111561061857610618611a21565b634e487b7160e01b5f52603160045260245ffdfea26469706673582212208af7857e107af6582f25e2e73e2d1ed4ccd936aedd0d0394277abb964b940e5d64736f6c634300081a0033",
					"opcodes": "PUSH1 0x80 PUSH1 0x40 MSTORE PUSH7 0x11C37937E08000 PUSH1 0xC SSTORE CALLVALUE DUP1 ISZERO PUSH2 0x1A JUMPI PUSH0 DUP1 REVERT JUMPDEST POP PUSH1 0x40 MLOAD PUSH2 0x1F37 CODESIZE SUB DUP1 PUSH2 0x1F37 DUP4 CODECOPY DUP2 ADD PUSH1 0x40 DUP2 SWAP1 MSTORE PUSH2 0x39 SWAP2 PUSH2 0x15E JUMP JUMPDEST CALLER PUSH1 0x40 MLOAD DUP1 PUSH1 0x40 ADD PUSH1 0x40 MSTORE DUP1 PUSH1 0x9 DUP2 MSTORE PUSH1 0x20 ADD PUSH9 0x10985B985B98539195 PUSH1 0xBA SHL DUP2 MSTORE POP PUSH1 0x40 MLOAD DUP1 PUSH1 0x40 ADD PUSH1 0x40 MSTORE DUP1 PUSH1 0x4 DUP2 MSTORE PUSH1 0x20 ADD PUSH4 0x10939195 PUSH1 0xE2 SHL DUP2 MSTORE POP DUP2 PUSH0 SWAP1 DUP2 PUSH2 0x87 SWAP2 SWAP1 PUSH2 0x238 JUMP JUMPDEST POP PUSH1 0x1 PUSH2 0x94 DUP3 DUP3 PUSH2 0x238 JUMP JUMPDEST POP POP PUSH1 0x1 PUSH1 0xA SSTORE POP PUSH1 0x1 PUSH1 0x1 PUSH1 0xA0 SHL SUB DUP2 AND PUSH2 0xC9 JUMPI PUSH1 0x40 MLOAD PUSH4 0x1E4FBDF7 PUSH1 0xE0 SHL DUP2 MSTORE PUSH0 PUSH1 0x4 DUP3 ADD MSTORE PUSH1 0x24 ADD PUSH1 0x40 MLOAD DUP1 SWAP2 SUB SWAP1 REVERT JUMPDEST PUSH2 0xD2 DUP2 PUSH2 0x10D JUMP JUMPDEST POP PUSH1 0xD DUP4 SWAP1 SSTORE PUSH2 0xE2 DUP3 TIMESTAMP PUSH2 0x2F2 JUMP JUMPDEST PUSH1 0xE SSTORE PUSH1 0x11 DUP1 SLOAD PUSH1 0x1 PUSH1 0x1 PUSH1 0xA0 SHL SUB NOT AND PUSH1 0x1 PUSH1 0x1 PUSH1 0xA0 SHL SUB SWAP3 SWAP1 SWAP3 AND SWAP2 SWAP1 SWAP2 OR SWAP1 SSTORE POP PUSH2 0x317 SWAP1 POP JUMP JUMPDEST PUSH1 0xB DUP1 SLOAD PUSH1 0x1 PUSH1 0x1 PUSH1 0xA0 SHL SUB DUP4 DUP2 AND PUSH1 0x1 PUSH1 0x1 PUSH1 0xA0 SHL SUB NOT DUP4 AND DUP2 OR SWAP1 SWAP4 SSTORE PUSH1 0x40 MLOAD SWAP2 AND SWAP2 SWAP1 DUP3 SWAP1 PUSH32 0x8BE0079C531659141344CD1FD0A4F28419497F9722A3DAAFE3B4186F6B6457E0 SWAP1 PUSH0 SWAP1 LOG3 POP POP JUMP JUMPDEST PUSH0 DUP1 PUSH0 PUSH1 0x60 DUP5 DUP7 SUB SLT ISZERO PUSH2 0x170 JUMPI PUSH0 DUP1 REVERT JUMPDEST DUP4 MLOAD PUSH1 0x20 DUP6 ADD MLOAD PUSH1 0x40 DUP7 ADD MLOAD SWAP2 SWAP5 POP SWAP3 POP PUSH1 0x1 PUSH1 0x1 PUSH1 0xA0 SHL SUB DUP2 AND DUP2 EQ PUSH2 0x195 JUMPI PUSH0 DUP1 REVERT JUMPDEST DUP1 SWAP2 POP POP SWAP3 POP SWAP3 POP SWAP3 JUMP JUMPDEST PUSH4 0x4E487B71 PUSH1 0xE0 SHL PUSH0 MSTORE PUSH1 0x41 PUSH1 0x4 MSTORE PUSH1 0x24 PUSH0 REVERT JUMPDEST PUSH1 0x1 DUP2 DUP2 SHR SWAP1 DUP3 AND DUP1 PUSH2 0x1C8 JUMPI PUSH1 0x7F DUP3 AND SWAP2 POP JUMPDEST PUSH1 0x20 DUP3 LT DUP2 SUB PUSH2 0x1E6 JUMPI PUSH4 0x4E487B71 PUSH1 0xE0 SHL PUSH0 MSTORE PUSH1 0x22 PUSH1 0x4 MSTORE PUSH1 0x24 PUSH0 REVERT JUMPDEST POP SWAP2 SWAP1 POP JUMP JUMPDEST PUSH1 0x1F DUP3 GT ISZERO PUSH2 0x233 JUMPI DUP1 PUSH0 MSTORE PUSH1 0x20 PUSH0 KECCAK256 PUSH1 0x1F DUP5 ADD PUSH1 0x5 SHR DUP2 ADD PUSH1 0x20 DUP6 LT ISZERO PUSH2 0x211 JUMPI POP DUP1 JUMPDEST PUSH1 0x1F DUP5 ADD PUSH1 0x5 SHR DUP3 ADD SWAP2 POP JUMPDEST DUP2 DUP2 LT ISZERO PUSH2 0x230 JUMPI PUSH0 DUP2 SSTORE PUSH1 0x1 ADD PUSH2 0x21D JUMP JUMPDEST POP POP JUMPDEST POP POP POP JUMP JUMPDEST DUP2 MLOAD PUSH1 0x1 PUSH1 0x1 PUSH1 0x40 SHL SUB DUP2 GT ISZERO PUSH2 0x251 JUMPI PUSH2 0x251 PUSH2 0x1A0 JUMP JUMPDEST PUSH2 0x265 DUP2 PUSH2 0x25F DUP5 SLOAD PUSH2 0x1B4 JUMP JUMPDEST DUP5 PUSH2 0x1EC JUMP JUMPDEST PUSH1 0x20 PUSH1 0x1F DUP3 GT PUSH1 0x1 DUP2 EQ PUSH2 0x297 JUMPI PUSH0 DUP4 ISZERO PUSH2 0x280 JUMPI POP DUP5 DUP3 ADD MLOAD JUMPDEST PUSH0 NOT PUSH1 0x3 DUP6 SWAP1 SHL SHR NOT AND PUSH1 0x1 DUP5 SWAP1 SHL OR DUP5 SSTORE PUSH2 0x230 JUMP JUMPDEST PUSH0 DUP5 DUP2 MSTORE PUSH1 0x20 DUP2 KECCAK256 PUSH1 0x1F NOT DUP6 AND SWAP2 JUMPDEST DUP3 DUP2 LT ISZERO PUSH2 0x2C6 JUMPI DUP8 DUP6 ADD MLOAD DUP3 SSTORE PUSH1 0x20 SWAP5 DUP6 ADD SWAP5 PUSH1 0x1 SWAP1 SWAP3 ADD SWAP2 ADD PUSH2 0x2A6 JUMP JUMPDEST POP DUP5 DUP3 LT ISZERO PUSH2 0x2E3 JUMPI DUP7 DUP5 ADD MLOAD PUSH0 NOT PUSH1 0x3 DUP8 SWAP1 SHL PUSH1 0xF8 AND SHR NOT AND DUP2 SSTORE JUMPDEST POP POP POP POP PUSH1 0x1 SWAP1 DUP2 SHL ADD SWAP1 SSTORE POP JUMP JUMPDEST DUP1 DUP3 ADD DUP1 DUP3 GT ISZERO PUSH2 0x311 JUMPI PUSH4 0x4E487B71 PUSH1 0xE0 SHL PUSH0 MSTORE PUSH1 0x11 PUSH1 0x4 MSTORE PUSH1 0x24 PUSH0 REVERT JUMPDEST SWAP3 SWAP2 POP POP JUMP JUMPDEST PUSH2 0x1C13 DUP1 PUSH2 0x324 PUSH0 CODECOPY PUSH0 RETURN INVALID PUSH1 0x80 PUSH1 0x40 MSTORE PUSH1 0x4 CALLDATASIZE LT PUSH2 0x1F0 JUMPI PUSH0 CALLDATALOAD PUSH1 0xE0 SHR DUP1 PUSH4 0x6AA71D18 GT PUSH2 0x108 JUMPI DUP1 PUSH4 0xB88D4FDE GT PUSH2 0x9D JUMPI DUP1 PUSH4 0xDE8B51E1 GT PUSH2 0x6D JUMPI DUP1 PUSH4 0xDE8B51E1 EQ PUSH2 0x564 JUMPI DUP1 PUSH4 0xE43252D7 EQ PUSH2 0x578 JUMPI DUP1 PUSH4 0xE985E9C5 EQ PUSH2 0x597 JUMPI DUP1 PUSH4 0xF2FDE38B EQ PUSH2 0x5B6 JUMPI DUP1 PUSH4 0xF4A0A528 EQ PUSH2 0x5D5 JUMPI PUSH0 DUP1 REVERT JUMPDEST DUP1 PUSH4 0xB88D4FDE EQ PUSH2 0x4E8 JUMPI DUP1 PUSH4 0xC87B56DD EQ PUSH2 0x507 JUMPI DUP1 PUSH4 0xCADA2A18 EQ PUSH2 0x526 JUMPI DUP1 PUSH4 0xD85D3D27 EQ PUSH2 0x545 JUMPI PUSH0 DUP1 REVERT JUMPDEST DUP1 PUSH4 0x8DA5CB5B GT PUSH2 0xD8 JUMPI DUP1 PUSH4 0x8DA5CB5B EQ PUSH2 0x46A JUMPI DUP1 PUSH4 0x95D89B41 EQ PUSH2 0x487 JUMPI DUP1 PUSH4 0x9B19251A EQ PUSH2 0x49B JUMPI DUP1 PUSH4 0xA22CB465 EQ PUSH2 0x4C9 JUMPI PUSH0 DUP1 REVERT JUMPDEST DUP1 PUSH4 0x6AA71D18 EQ PUSH2 0x3F3 JUMPI DUP1 PUSH4 0x7080D6FC EQ PUSH2 0x41E JUMPI DUP1 PUSH4 0x70A08231 EQ PUSH2 0x437 JUMPI DUP1 PUSH4 0x715018A6 EQ PUSH2 0x456 JUMPI PUSH0 DUP1 REVERT JUMPDEST DUP1 PUSH4 0x232E623E GT PUSH2 0x189 JUMPI DUP1 PUSH4 0x42842E0E GT PUSH2 0x159 JUMPI DUP1 PUSH4 0x42842E0E EQ PUSH2 0x36E JUMPI DUP1 PUSH4 0x4F6CCCE7 EQ PUSH2 0x38D JUMPI DUP1 PUSH4 0x537EFE31 EQ PUSH2 0x3AC JUMPI DUP1 PUSH4 0x6352211E EQ PUSH2 0x3BF JUMPI DUP1 PUSH4 0x6817C76C EQ PUSH2 0x3DE JUMPI PUSH0 DUP1 REVERT JUMPDEST DUP1 PUSH4 0x232E623E EQ PUSH2 0x307 JUMPI DUP1 PUSH4 0x23B872DD EQ PUSH2 0x31C JUMPI DUP1 PUSH4 0x2F745C59 EQ PUSH2 0x33B JUMPI DUP1 PUSH4 0x3CCFD60B EQ PUSH2 0x35A JUMPI PUSH0 DUP1 REVERT JUMPDEST DUP1 PUSH4 0x95EA7B3 GT PUSH2 0x1C4 JUMPI DUP1 PUSH4 0x95EA7B3 EQ PUSH2 0x29E JUMPI DUP1 PUSH4 0xBB78EC1 EQ PUSH2 0x2BF JUMPI DUP1 PUSH4 0xE726E6B EQ PUSH2 0x2DE JUMPI DUP1 PUSH4 0x18160DDD EQ PUSH2 0x2F3 JUMPI PUSH0 DUP1 REVERT JUMPDEST DUP1 PUSH3 0x9A9B7B EQ PUSH2 0x1F4 JUMPI DUP1 PUSH4 0x1FFC9A7 EQ PUSH2 0x217 JUMPI DUP1 PUSH4 0x6FDDE03 EQ PUSH2 0x246 JUMPI DUP1 PUSH4 0x81812FC EQ PUSH2 0x267 JUMPI JUMPDEST PUSH0 DUP1 REVERT JUMPDEST CALLVALUE DUP1 ISZERO PUSH2 0x1FF JUMPI PUSH0 DUP1 REVERT JUMPDEST POP PUSH1 0x10 SLOAD JUMPDEST PUSH1 0x40 MLOAD SWAP1 DUP2 MSTORE PUSH1 0x20 ADD JUMPDEST PUSH1 0x40 MLOAD DUP1 SWAP2 SUB SWAP1 RETURN JUMPDEST CALLVALUE DUP1 ISZERO PUSH2 0x222 JUMPI PUSH0 DUP1 REVERT JUMPDEST POP PUSH2 0x236 PUSH2 0x231 CALLDATASIZE PUSH1 0x4 PUSH2 0x1700 JUMP JUMPDEST PUSH2 0x5F4 JUMP JUMPDEST PUSH1 0x40 MLOAD SWAP1 ISZERO ISZERO DUP2 MSTORE PUSH1 0x20 ADD PUSH2 0x20E JUMP JUMPDEST CALLVALUE DUP1 ISZERO PUSH2 0x251 JUMPI PUSH0 DUP1 REVERT JUMPDEST POP PUSH2 0x25A PUSH2 0x61E JUMP JUMPDEST PUSH1 0x40 MLOAD PUSH2 0x20E SWAP2 SWAP1 PUSH2 0x1765 JUMP JUMPDEST CALLVALUE DUP1 ISZERO PUSH2 0x272 JUMPI PUSH0 DUP1 REVERT JUMPDEST POP PUSH2 0x286 PUSH2 0x281 CALLDATASIZE PUSH1 0x4 PUSH2 0x1777 JUMP JUMPDEST PUSH2 0x6AD JUMP JUMPDEST PUSH1 0x40 MLOAD PUSH1 0x1 PUSH1 0x1 PUSH1 0xA0 SHL SUB SWAP1 SWAP2 AND DUP2 MSTORE PUSH1 0x20 ADD PUSH2 0x20E JUMP JUMPDEST CALLVALUE DUP1 ISZERO PUSH2 0x2A9 JUMPI PUSH0 DUP1 REVERT JUMPDEST POP PUSH2 0x2BD PUSH2 0x2B8 CALLDATASIZE PUSH1 0x4 PUSH2 0x17A9 JUMP JUMPDEST PUSH2 0x6D4 JUMP JUMPDEST STOP JUMPDEST CALLVALUE DUP1 ISZERO PUSH2 0x2CA JUMPI PUSH0 DUP1 REVERT JUMPDEST POP PUSH2 0x25A PUSH2 0x2D9 CALLDATASIZE PUSH1 0x4 PUSH2 0x1777 JUMP JUMPDEST PUSH2 0x6E3 JUMP JUMPDEST CALLVALUE DUP1 ISZERO PUSH2 0x2E9 JUMPI PUSH0 DUP1 REVERT JUMPDEST POP PUSH2 0x204 PUSH1 0xD SLOAD DUP2 JUMP JUMPDEST CALLVALUE DUP1 ISZERO PUSH2 0x2FE JUMPI PUSH0 DUP1 REVERT JUMPDEST POP PUSH1 0x8 SLOAD PUSH2 0x204 JUMP JUMPDEST CALLVALUE DUP1 ISZERO PUSH2 0x312 JUMPI PUSH0 DUP1 REVERT JUMPDEST POP PUSH2 0x204 PUSH1 0xE SLOAD DUP2 JUMP JUMPDEST CALLVALUE DUP1 ISZERO PUSH2 0x327 JUMPI PUSH0 DUP1 REVERT JUMPDEST POP PUSH2 0x2BD PUSH2 0x336 CALLDATASIZE PUSH1 0x4 PUSH2 0x17D1 JUMP JUMPDEST PUSH2 0x77A JUMP JUMPDEST CALLVALUE DUP1 ISZERO PUSH2 0x346 JUMPI PUSH0 DUP1 REVERT JUMPDEST POP PUSH2 0x204 PUSH2 0x355 CALLDATASIZE PUSH1 0x4 PUSH2 0x17A9 JUMP JUMPDEST PUSH2 0x808 JUMP JUMPDEST CALLVALUE DUP1 ISZERO PUSH2 0x365 JUMPI PUSH0 DUP1 REVERT JUMPDEST POP PUSH2 0x2BD PUSH2 0x86B JUMP JUMPDEST CALLVALUE DUP1 ISZERO PUSH2 0x379 JUMPI PUSH0 DUP1 REVERT JUMPDEST POP PUSH2 0x2BD PUSH2 0x388 CALLDATASIZE PUSH1 0x4 PUSH2 0x17D1 JUMP JUMPDEST PUSH2 0x8AC JUMP JUMPDEST CALLVALUE DUP1 ISZERO PUSH2 0x398 JUMPI PUSH0 DUP1 REVERT JUMPDEST POP PUSH2 0x204 PUSH2 0x3A7 CALLDATASIZE PUSH1 0x4 PUSH2 0x1777 JUMP JUMPDEST PUSH2 0x8CB JUMP JUMPDEST PUSH2 0x2BD PUSH2 0x3BA CALLDATASIZE PUSH1 0x4 PUSH2 0x1896 JUMP JUMPDEST PUSH2 0x920 JUMP JUMPDEST CALLVALUE DUP1 ISZERO PUSH2 0x3CA JUMPI PUSH0 DUP1 REVERT JUMPDEST POP PUSH2 0x286 PUSH2 0x3D9 CALLDATASIZE PUSH1 0x4 PUSH2 0x1777 JUMP JUMPDEST PUSH2 0xAE6 JUMP JUMPDEST CALLVALUE DUP1 ISZERO PUSH2 0x3E9 JUMPI PUSH0 DUP1 REVERT JUMPDEST POP PUSH2 0x204 PUSH1 0xC SLOAD DUP2 JUMP JUMPDEST CALLVALUE DUP1 ISZERO PUSH2 0x3FE JUMPI PUSH0 DUP1 REVERT JUMPDEST POP PUSH2 0x204 PUSH2 0x40D CALLDATASIZE PUSH1 0x4 PUSH2 0x18DB JUMP JUMPDEST PUSH1 0x14 PUSH1 0x20 MSTORE PUSH0 SWAP1 DUP2 MSTORE PUSH1 0x40 SWAP1 KECCAK256 SLOAD DUP2 JUMP JUMPDEST CALLVALUE DUP1 ISZERO PUSH2 0x429 JUMPI PUSH0 DUP1 REVERT JUMPDEST POP PUSH1 0xF SLOAD PUSH2 0x236 SWAP1 PUSH1 0xFF AND DUP2 JUMP JUMPDEST CALLVALUE DUP1 ISZERO PUSH2 0x442 JUMPI PUSH0 DUP1 REVERT JUMPDEST POP PUSH2 0x204 PUSH2 0x451 CALLDATASIZE PUSH1 0x4 PUSH2 0x18DB JUMP JUMPDEST PUSH2 0xAF0 JUMP JUMPDEST CALLVALUE DUP1 ISZERO PUSH2 0x461 JUMPI PUSH0 DUP1 REVERT JUMPDEST POP PUSH2 0x2BD PUSH2 0xB35 JUMP JUMPDEST CALLVALUE DUP1 ISZERO PUSH2 0x475 JUMPI PUSH0 DUP1 REVERT JUMPDEST POP PUSH1 0xB SLOAD PUSH1 0x1 PUSH1 0x1 PUSH1 0xA0 SHL SUB AND PUSH2 0x286 JUMP JUMPDEST CALLVALUE DUP1 ISZERO PUSH2 0x492 JUMPI PUSH0 DUP1 REVERT JUMPDEST POP PUSH2 0x25A PUSH2 0xB48 JUMP JUMPDEST CALLVALUE DUP1 ISZERO PUSH2 0x4A6 JUMPI PUSH0 DUP1 REVERT JUMPDEST POP PUSH2 0x236 PUSH2 0x4B5 CALLDATASIZE PUSH1 0x4 PUSH2 0x18DB JUMP JUMPDEST PUSH1 0x13 PUSH1 0x20 MSTORE PUSH0 SWAP1 DUP2 MSTORE PUSH1 0x40 SWAP1 KECCAK256 SLOAD PUSH1 0xFF AND DUP2 JUMP JUMPDEST CALLVALUE DUP1 ISZERO PUSH2 0x4D4 JUMPI PUSH0 DUP1 REVERT JUMPDEST POP PUSH2 0x2BD PUSH2 0x4E3 CALLDATASIZE PUSH1 0x4 PUSH2 0x18F4 JUMP JUMPDEST PUSH2 0xB57 JUMP JUMPDEST CALLVALUE DUP1 ISZERO PUSH2 0x4F3 JUMPI PUSH0 DUP1 REVERT JUMPDEST POP PUSH2 0x2BD PUSH2 0x502 CALLDATASIZE PUSH1 0x4 PUSH2 0x192D JUMP JUMPDEST PUSH2 0xB62 JUMP JUMPDEST CALLVALUE DUP1 ISZERO PUSH2 0x512 JUMPI PUSH0 DUP1 REVERT JUMPDEST POP PUSH2 0x25A PUSH2 0x521 CALLDATASIZE PUSH1 0x4 PUSH2 0x1777 JUMP JUMPDEST PUSH2 0xB79 JUMP JUMPDEST CALLVALUE DUP1 ISZERO PUSH2 0x531 JUMPI PUSH0 DUP1 REVERT JUMPDEST POP PUSH2 0x2BD PUSH2 0x540 CALLDATASIZE PUSH1 0x4 PUSH2 0x1777 JUMP JUMPDEST PUSH2 0xC21 JUMP JUMPDEST CALLVALUE DUP1 ISZERO PUSH2 0x550 JUMPI PUSH0 DUP1 REVERT JUMPDEST POP PUSH2 0x2BD PUSH2 0x55F CALLDATASIZE PUSH1 0x4 PUSH2 0x1896 JUMP JUMPDEST PUSH2 0xC2E JUMP JUMPDEST CALLVALUE DUP1 ISZERO PUSH2 0x56F JUMPI PUSH0 DUP1 REVERT JUMPDEST POP PUSH2 0x2BD PUSH2 0xD79 JUMP JUMPDEST CALLVALUE DUP1 ISZERO PUSH2 0x583 JUMPI PUSH0 DUP1 REVERT JUMPDEST POP PUSH2 0x2BD PUSH2 0x592 CALLDATASIZE PUSH1 0x4 PUSH2 0x18DB JUMP JUMPDEST PUSH2 0xD95 JUMP JUMPDEST CALLVALUE DUP1 ISZERO PUSH2 0x5A2 JUMPI PUSH0 DUP1 REVERT JUMPDEST POP PUSH2 0x236 PUSH2 0x5B1 CALLDATASIZE PUSH1 0x4 PUSH2 0x19A4 JUMP JUMPDEST PUSH2 0xDC0 JUMP JUMPDEST CALLVALUE DUP1 ISZERO PUSH2 0x5C1 JUMPI PUSH0 DUP1 REVERT JUMPDEST POP PUSH2 0x2BD PUSH2 0x5D0 CALLDATASIZE PUSH1 0x4 PUSH2 0x18DB JUMP JUMPDEST PUSH2 0xDED JUMP JUMPDEST CALLVALUE DUP1 ISZERO PUSH2 0x5E0 JUMPI PUSH0 DUP1 REVERT JUMPDEST POP PUSH2 0x2BD PUSH2 0x5EF CALLDATASIZE PUSH1 0x4 PUSH2 0x1777 JUMP JUMPDEST PUSH2 0xE27 JUMP JUMPDEST PUSH0 PUSH1 0x1 PUSH1 0x1 PUSH1 0xE0 SHL SUB NOT DUP3 AND PUSH4 0x780E9D63 PUSH1 0xE0 SHL EQ DUP1 PUSH2 0x618 JUMPI POP PUSH2 0x618 DUP3 PUSH2 0xE34 JUMP JUMPDEST SWAP3 SWAP2 POP POP JUMP JUMPDEST PUSH1 0x60 PUSH0 DUP1 SLOAD PUSH2 0x62C SWAP1 PUSH2 0x19D5 JUMP JUMPDEST DUP1 PUSH1 0x1F ADD PUSH1 0x20 DUP1 SWAP2 DIV MUL PUSH1 0x20 ADD PUSH1 0x40 MLOAD SWAP1 DUP2 ADD PUSH1 0x40 MSTORE DUP1 SWAP3 SWAP2 SWAP1 DUP2 DUP2 MSTORE PUSH1 0x20 ADD DUP3 DUP1 SLOAD PUSH2 0x658 SWAP1 PUSH2 0x19D5 JUMP JUMPDEST DUP1 ISZERO PUSH2 0x6A3 JUMPI DUP1 PUSH1 0x1F LT PUSH2 0x67A JUMPI PUSH2 0x100 DUP1 DUP4 SLOAD DIV MUL DUP4 MSTORE SWAP2 PUSH1 0x20 ADD SWAP2 PUSH2 0x6A3 JUMP JUMPDEST DUP3 ADD SWAP2 SWAP1 PUSH0 MSTORE PUSH1 0x20 PUSH0 KECCAK256 SWAP1 JUMPDEST DUP2 SLOAD DUP2 MSTORE SWAP1 PUSH1 0x1 ADD SWAP1 PUSH1 0x20 ADD DUP1 DUP4 GT PUSH2 0x686 JUMPI DUP3 SWAP1 SUB PUSH1 0x1F AND DUP3 ADD SWAP2 JUMPDEST POP POP POP POP POP SWAP1 POP SWAP1 JUMP JUMPDEST PUSH0 PUSH2 0x6B7 DUP3 PUSH2 0xE83 JUMP JUMPDEST POP PUSH0 DUP3 DUP2 MSTORE PUSH1 0x4 PUSH1 0x20 MSTORE PUSH1 0x40 SWAP1 KECCAK256 SLOAD PUSH1 0x1 PUSH1 0x1 PUSH1 0xA0 SHL SUB AND PUSH2 0x618 JUMP JUMPDEST PUSH2 0x6DF DUP3 DUP3 CALLER PUSH2 0xEBB JUMP JUMPDEST POP POP JUMP JUMPDEST PUSH1 0x12 PUSH1 0x20 MSTORE PUSH0 SWAP1 DUP2 MSTORE PUSH1 0x40 SWAP1 KECCAK256 DUP1 SLOAD PUSH2 0x6FB SWAP1 PUSH2 0x19D5 JUMP JUMPDEST DUP1 PUSH1 0x1F ADD PUSH1 0x20 DUP1 SWAP2 DIV MUL PUSH1 0x20 ADD PUSH1 0x40 MLOAD SWAP1 DUP2 ADD PUSH1 0x40 MSTORE DUP1 SWAP3 SWAP2 SWAP1 DUP2 DUP2 MSTORE PUSH1 0x20 ADD DUP3 DUP1 SLOAD PUSH2 0x727 SWAP1 PUSH2 0x19D5 JUMP JUMPDEST DUP1 ISZERO PUSH2 0x772 JUMPI DUP1 PUSH1 0x1F LT PUSH2 0x749 JUMPI PUSH2 0x100 DUP1 DUP4 SLOAD DIV MUL DUP4 MSTORE SWAP2 PUSH1 0x20 ADD SWAP2 PUSH2 0x772 JUMP JUMPDEST DUP3 ADD SWAP2 SWAP1 PUSH0 MSTORE PUSH1 0x20 PUSH0 KECCAK256 SWAP1 JUMPDEST DUP2 SLOAD DUP2 MSTORE SWAP1 PUSH1 0x1 ADD SWAP1 PUSH1 0x20 ADD DUP1 DUP4 GT PUSH2 0x755 JUMPI DUP3 SWAP1 SUB PUSH1 0x1F AND DUP3 ADD SWAP2 JUMPDEST POP POP POP POP POP DUP2 JUMP JUMPDEST PUSH1 0x1 PUSH1 0x1 PUSH1 0xA0 SHL SUB DUP3 AND PUSH2 0x7A8 JUMPI PUSH1 0x40 MLOAD PUSH4 0x32505749 PUSH1 0xE1 SHL DUP2 MSTORE PUSH0 PUSH1 0x4 DUP3 ADD MSTORE PUSH1 0x24 ADD JUMPDEST PUSH1 0x40 MLOAD DUP1 SWAP2 SUB SWAP1 REVERT JUMPDEST PUSH0 PUSH2 0x7B4 DUP4 DUP4 CALLER PUSH2 0xEC8 JUMP JUMPDEST SWAP1 POP DUP4 PUSH1 0x1 PUSH1 0x1 PUSH1 0xA0 SHL SUB AND DUP2 PUSH1 0x1 PUSH1 0x1 PUSH1 0xA0 SHL SUB AND EQ PUSH2 0x802 JUMPI PUSH1 0x40 MLOAD PUSH4 0x64283D7B PUSH1 0xE0 SHL DUP2 MSTORE PUSH1 0x1 PUSH1 0x1 PUSH1 0xA0 SHL SUB DUP1 DUP7 AND PUSH1 0x4 DUP4 ADD MSTORE PUSH1 0x24 DUP3 ADD DUP5 SWAP1 MSTORE DUP3 AND PUSH1 0x44 DUP3 ADD MSTORE PUSH1 0x64 ADD PUSH2 0x79F JUMP JUMPDEST POP POP POP POP JUMP JUMPDEST PUSH0 PUSH2 0x812 DUP4 PUSH2 0xAF0 JUMP JUMPDEST DUP3 LT PUSH2 0x843 JUMPI PUSH1 0x40 MLOAD PUSH4 0x295F44F7 PUSH1 0xE2 SHL DUP2 MSTORE PUSH1 0x1 PUSH1 0x1 PUSH1 0xA0 SHL SUB DUP5 AND PUSH1 0x4 DUP3 ADD MSTORE PUSH1 0x24 DUP2 ADD DUP4 SWAP1 MSTORE PUSH1 0x44 ADD PUSH2 0x79F JUMP JUMPDEST POP PUSH1 0x1 PUSH1 0x1 PUSH1 0xA0 SHL SUB SWAP2 SWAP1 SWAP2 AND PUSH0 SWAP1 DUP2 MSTORE PUSH1 0x6 PUSH1 0x20 SWAP1 DUP2 MSTORE PUSH1 0x40 DUP1 DUP4 KECCAK256 SWAP4 DUP4 MSTORE SWAP3 SWAP1 MSTORE KECCAK256 SLOAD SWAP1 JUMP JUMPDEST PUSH2 0x873 PUSH2 0xF9B JUMP JUMPDEST PUSH1 0x11 SLOAD PUSH1 0x40 MLOAD PUSH1 0x1 PUSH1 0x1 PUSH1 0xA0 SHL SUB SWAP1 SWAP2 AND SWAP1 SELFBALANCE DUP1 ISZERO PUSH2 0x8FC MUL SWAP2 PUSH0 DUP2 DUP2 DUP2 DUP6 DUP9 DUP9 CALL SWAP4 POP POP POP POP ISZERO DUP1 ISZERO PUSH2 0x8A9 JUMPI RETURNDATASIZE PUSH0 DUP1 RETURNDATACOPY RETURNDATASIZE PUSH0 REVERT JUMPDEST POP JUMP JUMPDEST PUSH2 0x8C6 DUP4 DUP4 DUP4 PUSH1 0x40 MLOAD DUP1 PUSH1 0x20 ADD PUSH1 0x40 MSTORE DUP1 PUSH0 DUP2 MSTORE POP PUSH2 0xB62 JUMP JUMPDEST POP POP POP JUMP JUMPDEST PUSH0 PUSH2 0x8D5 PUSH1 0x8 SLOAD SWAP1 JUMP JUMPDEST DUP3 LT PUSH2 0x8FD JUMPI PUSH1 0x40 MLOAD PUSH4 0x295F44F7 PUSH1 0xE2 SHL DUP2 MSTORE PUSH0 PUSH1 0x4 DUP3 ADD MSTORE PUSH1 0x24 DUP2 ADD DUP4 SWAP1 MSTORE PUSH1 0x44 ADD PUSH2 0x79F JUMP JUMPDEST PUSH1 0x8 DUP3 DUP2 SLOAD DUP2 LT PUSH2 0x910 JUMPI PUSH2 0x910 PUSH2 0x1A0D JUMP JUMPDEST SWAP1 PUSH0 MSTORE PUSH1 0x20 PUSH0 KECCAK256 ADD SLOAD SWAP1 POP SWAP2 SWAP1 POP JUMP JUMPDEST PUSH2 0x928 PUSH2 0xFC8 JUMP JUMPDEST PUSH1 0xF SLOAD PUSH1 0xFF AND PUSH2 0x96F JUMPI PUSH1 0x40 MLOAD PUSH3 0x461BCD PUSH1 0xE5 SHL DUP2 MSTORE PUSH1 0x20 PUSH1 0x4 DUP3 ADD MSTORE PUSH1 0x12 PUSH1 0x24 DUP3 ADD MSTORE PUSH18 0x53616C65206973206E6F7420616374697665 PUSH1 0x70 SHL PUSH1 0x44 DUP3 ADD MSTORE PUSH1 0x64 ADD PUSH2 0x79F JUMP JUMPDEST PUSH1 0xC SLOAD CALLVALUE EQ PUSH2 0x9B6 JUMPI PUSH1 0x40 MLOAD PUSH3 0x461BCD PUSH1 0xE5 SHL DUP2 MSTORE PUSH1 0x20 PUSH1 0x4 DUP3 ADD MSTORE PUSH1 0x13 PUSH1 0x24 DUP3 ADD MSTORE PUSH19 0x496E636F7272656374204554482076616C7565 PUSH1 0x68 SHL PUSH1 0x44 DUP3 ADD MSTORE PUSH1 0x64 ADD PUSH2 0x79F JUMP JUMPDEST PUSH1 0x10 PUSH0 DUP2 SLOAD PUSH2 0x9C4 SWAP1 PUSH2 0x1A35 JUMP JUMPDEST SWAP1 SWAP2 SSTORE POP PUSH1 0x10 SLOAD PUSH1 0x11 SLOAD PUSH1 0x40 MLOAD PUSH0 SWAP2 PUSH1 0x1 PUSH1 0x1 PUSH1 0xA0 SHL SUB AND SWAP1 CALLVALUE SWAP1 DUP4 DUP2 DUP2 DUP2 DUP6 DUP8 GAS CALL SWAP3 POP POP POP RETURNDATASIZE DUP1 PUSH0 DUP2 EQ PUSH2 0xA15 JUMPI PUSH1 0x40 MLOAD SWAP2 POP PUSH1 0x1F NOT PUSH1 0x3F RETURNDATASIZE ADD AND DUP3 ADD PUSH1 0x40 MSTORE RETURNDATASIZE DUP3 MSTORE RETURNDATASIZE PUSH0 PUSH1 0x20 DUP5 ADD RETURNDATACOPY PUSH2 0xA1A JUMP JUMPDEST PUSH1 0x60 SWAP2 POP JUMPDEST POP POP SWAP1 POP DUP1 PUSH2 0xA91 JUMPI PUSH1 0x40 MLOAD PUSH3 0x461BCD PUSH1 0xE5 SHL DUP2 MSTORE PUSH1 0x20 PUSH1 0x4 DUP3 ADD MSTORE PUSH1 0x3A PUSH1 0x24 DUP3 ADD MSTORE PUSH32 0x416464726573733A20756E61626C6520746F2073656E642076616C75652C2072 PUSH1 0x44 DUP3 ADD MSTORE PUSH32 0x6563697069656E74206D61792068617665207265766572746564000000000000 PUSH1 0x64 DUP3 ADD MSTORE PUSH1 0x84 ADD PUSH2 0x79F JUMP JUMPDEST PUSH2 0xA9B CALLER DUP4 PUSH2 0xFF2 JUMP JUMPDEST PUSH2 0xAA5 DUP3 DUP5 PUSH2 0x100B JUMP JUMPDEST PUSH1 0x40 MLOAD DUP3 DUP2 MSTORE CALLER SWAP1 PUSH32 0x30385C845B448A36257A6A1716E6AD2E1BC2CBE333CDE1E69FE849AD6511ADFE SWAP1 PUSH1 0x20 ADD PUSH1 0x40 MLOAD DUP1 SWAP2 SUB SWAP1 LOG2 POP POP PUSH2 0x8A9 PUSH1 0x1 PUSH1 0xA SSTORE JUMP JUMPDEST PUSH0 PUSH2 0x618 DUP3 PUSH2 0xE83 JUMP JUMPDEST PUSH0 PUSH1 0x1 PUSH1 0x1 PUSH1 0xA0 SHL SUB DUP3 AND PUSH2 0xB1A JUMPI PUSH1 0x40 MLOAD PUSH4 0x22718AD9 PUSH1 0xE2 SHL DUP2 MSTORE PUSH0 PUSH1 0x4 DUP3 ADD MSTORE PUSH1 0x24 ADD PUSH2 0x79F JUMP JUMPDEST POP PUSH1 0x1 PUSH1 0x1 PUSH1 0xA0 SHL SUB AND PUSH0 SWAP1 DUP2 MSTORE PUSH1 0x3 PUSH1 0x20 MSTORE PUSH1 0x40 SWAP1 KECCAK256 SLOAD SWAP1 JUMP JUMPDEST PUSH2 0xB3D PUSH2 0xF9B JUMP JUMPDEST PUSH2 0xB46 PUSH0 PUSH2 0x1022 JUMP JUMPDEST JUMP JUMPDEST PUSH1 0x60 PUSH1 0x1 DUP1 SLOAD PUSH2 0x62C SWAP1 PUSH2 0x19D5 JUMP JUMPDEST PUSH2 0x6DF CALLER DUP4 DUP4 PUSH2 0x1073 JUMP JUMPDEST PUSH2 0xB6D DUP5 DUP5 DUP5 PUSH2 0x77A JUMP JUMPDEST PUSH2 0x802 DUP5 DUP5 DUP5 DUP5 PUSH2 0x1111 JUMP JUMPDEST PUSH1 0x60 PUSH2 0xB84 DUP3 PUSH2 0xE83 JUMP JUMPDEST POP PUSH0 DUP3 DUP2 MSTORE PUSH1 0x12 PUSH1 0x20 MSTORE PUSH1 0x40 DUP2 KECCAK256 DUP1 SLOAD PUSH2 0xB9D SWAP1 PUSH2 0x19D5 JUMP JUMPDEST DUP1 PUSH1 0x1F ADD PUSH1 0x20 DUP1 SWAP2 DIV MUL PUSH1 0x20 ADD PUSH1 0x40 MLOAD SWAP1 DUP2 ADD PUSH1 0x40 MSTORE DUP1 SWAP3 SWAP2 SWAP1 DUP2 DUP2 MSTORE PUSH1 0x20 ADD DUP3 DUP1 SLOAD PUSH2 0xBC9 SWAP1 PUSH2 0x19D5 JUMP JUMPDEST DUP1 ISZERO PUSH2 0xC14 JUMPI DUP1 PUSH1 0x1F LT PUSH2 0xBEB JUMPI PUSH2 0x100 DUP1 DUP4 SLOAD DIV MUL DUP4 MSTORE SWAP2 PUSH1 0x20 ADD SWAP2 PUSH2 0xC14 JUMP JUMPDEST DUP3 ADD SWAP2 SWAP1 PUSH0 MSTORE PUSH1 0x20 PUSH0 KECCAK256 SWAP1 JUMPDEST DUP2 SLOAD DUP2 MSTORE SWAP1 PUSH1 0x1 ADD SWAP1 PUSH1 0x20 ADD DUP1 DUP4 GT PUSH2 0xBF7 JUMPI DUP3 SWAP1 SUB PUSH1 0x1F AND DUP3 ADD SWAP2 JUMPDEST POP SWAP4 SWAP8 SWAP7 POP POP POP POP POP POP POP JUMP JUMPDEST PUSH2 0xC29 PUSH2 0xF9B JUMP JUMPDEST PUSH1 0xD SSTORE JUMP JUMPDEST PUSH2 0xC36 PUSH2 0xFC8 JUMP JUMPDEST PUSH1 0xD SLOAD CALLER PUSH0 SWAP1 DUP2 MSTORE PUSH1 0x14 PUSH1 0x20 MSTORE PUSH1 0x40 SWAP1 KECCAK256 SLOAD PUSH2 0xC52 SWAP2 SWAP1 PUSH2 0x1A4D JUMP JUMPDEST TIMESTAMP LT ISZERO PUSH2 0xC97 JUMPI PUSH1 0x40 MLOAD PUSH3 0x461BCD PUSH1 0xE5 SHL DUP2 MSTORE PUSH1 0x20 PUSH1 0x4 DUP3 ADD MSTORE PUSH1 0x13 PUSH1 0x24 DUP3 ADD MSTORE PUSH19 0x4E6F74207265616368206D696E742074696D65 PUSH1 0x68 SHL PUSH1 0x44 DUP3 ADD MSTORE PUSH1 0x64 ADD PUSH2 0x79F JUMP JUMPDEST PUSH1 0xE SLOAD TIMESTAMP LT ISZERO PUSH2 0xCFF JUMPI CALLER PUSH0 SWAP1 DUP2 MSTORE PUSH1 0x13 PUSH1 0x20 MSTORE PUSH1 0x40 SWAP1 KECCAK256 SLOAD PUSH1 0xFF AND PUSH2 0xCFF JUMPI PUSH1 0x40 MLOAD PUSH3 0x461BCD PUSH1 0xE5 SHL DUP2 MSTORE PUSH1 0x20 PUSH1 0x4 DUP3 ADD MSTORE PUSH1 0x1C PUSH1 0x24 DUP3 ADD MSTORE PUSH32 0x4F6E6C792077686974656C69737420757365722063616E206D696E7400000000 PUSH1 0x44 DUP3 ADD MSTORE PUSH1 0x64 ADD PUSH2 0x79F JUMP JUMPDEST PUSH1 0x10 PUSH0 DUP2 SLOAD PUSH2 0xD0D SWAP1 PUSH2 0x1A35 JUMP JUMPDEST SWAP1 SWAP2 SSTORE POP PUSH1 0x10 SLOAD CALLER PUSH0 DUP2 DUP2 MSTORE PUSH1 0x14 PUSH1 0x20 MSTORE PUSH1 0x40 SWAP1 KECCAK256 TIMESTAMP SWAP1 SSTORE PUSH2 0xD2F SWAP1 DUP3 PUSH2 0xFF2 JUMP JUMPDEST PUSH2 0xD39 DUP2 DUP4 PUSH2 0x100B JUMP JUMPDEST PUSH1 0x40 MLOAD DUP2 DUP2 MSTORE CALLER SWAP1 PUSH32 0x30385C845B448A36257A6A1716E6AD2E1BC2CBE333CDE1E69FE849AD6511ADFE SWAP1 PUSH1 0x20 ADD PUSH1 0x40 MLOAD DUP1 SWAP2 SUB SWAP1 LOG2 POP PUSH2 0x8A9 PUSH1 0x1 PUSH1 0xA SSTORE JUMP JUMPDEST PUSH2 0xD81 PUSH2 0xF9B JUMP JUMPDEST PUSH1 0xF DUP1 SLOAD PUSH1 0xFF NOT DUP2 AND PUSH1 0xFF SWAP1 SWAP2 AND ISZERO OR SWAP1 SSTORE JUMP JUMPDEST PUSH2 0xD9D PUSH2 0xF9B JUMP JUMPDEST PUSH1 0x1 PUSH1 0x1 PUSH1 0xA0 SHL SUB AND PUSH0 SWAP1 DUP2 MSTORE PUSH1 0x13 PUSH1 0x20 MSTORE PUSH1 0x40 SWAP1 KECCAK256 DUP1 SLOAD PUSH1 0xFF NOT AND PUSH1 0x1 OR SWAP1 SSTORE JUMP JUMPDEST PUSH1 0x1 PUSH1 0x1 PUSH1 0xA0 SHL SUB SWAP2 DUP3 AND PUSH0 SWAP1 DUP2 MSTORE PUSH1 0x5 PUSH1 0x20 SWAP1 DUP2 MSTORE PUSH1 0x40 DUP1 DUP4 KECCAK256 SWAP4 SWAP1 SWAP5 AND DUP3 MSTORE SWAP2 SWAP1 SWAP2 MSTORE KECCAK256 SLOAD PUSH1 0xFF AND SWAP1 JUMP JUMPDEST PUSH2 0xDF5 PUSH2 0xF9B JUMP JUMPDEST PUSH1 0x1 PUSH1 0x1 PUSH1 0xA0 SHL SUB DUP2 AND PUSH2 0xE1E JUMPI PUSH1 0x40 MLOAD PUSH4 0x1E4FBDF7 PUSH1 0xE0 SHL DUP2 MSTORE PUSH0 PUSH1 0x4 DUP3 ADD MSTORE PUSH1 0x24 ADD PUSH2 0x79F JUMP JUMPDEST PUSH2 0x8A9 DUP2 PUSH2 0x1022 JUMP JUMPDEST PUSH2 0xE2F PUSH2 0xF9B JUMP JUMPDEST PUSH1 0xC SSTORE JUMP JUMPDEST PUSH0 PUSH1 0x1 PUSH1 0x1 PUSH1 0xE0 SHL SUB NOT DUP3 AND PUSH4 0x80AC58CD PUSH1 0xE0 SHL EQ DUP1 PUSH2 0xE64 JUMPI POP PUSH1 0x1 PUSH1 0x1 PUSH1 0xE0 SHL SUB NOT DUP3 AND PUSH4 0x5B5E139F PUSH1 0xE0 SHL EQ JUMPDEST DUP1 PUSH2 0x618 JUMPI POP PUSH4 0x1FFC9A7 PUSH1 0xE0 SHL PUSH1 0x1 PUSH1 0x1 PUSH1 0xE0 SHL SUB NOT DUP4 AND EQ PUSH2 0x618 JUMP JUMPDEST PUSH0 DUP2 DUP2 MSTORE PUSH1 0x2 PUSH1 0x20 MSTORE PUSH1 0x40 DUP2 KECCAK256 SLOAD PUSH1 0x1 PUSH1 0x1 PUSH1 0xA0 SHL SUB AND DUP1 PUSH2 0x618 JUMPI PUSH1 0x40 MLOAD PUSH4 0x7E273289 PUSH1 0xE0 SHL DUP2 MSTORE PUSH1 0x4 DUP2 ADD DUP5 SWAP1 MSTORE PUSH1 0x24 ADD PUSH2 0x79F JUMP JUMPDEST PUSH2 0x8C6 DUP4 DUP4 DUP4 PUSH1 0x1 PUSH2 0x1237 JUMP JUMPDEST PUSH0 DUP1 PUSH2 0xED5 DUP6 DUP6 DUP6 PUSH2 0x133B JUMP JUMPDEST SWAP1 POP PUSH1 0x1 PUSH1 0x1 PUSH1 0xA0 SHL SUB DUP2 AND PUSH2 0xF31 JUMPI PUSH2 0xF2C DUP5 PUSH1 0x8 DUP1 SLOAD PUSH0 DUP4 DUP2 MSTORE PUSH1 0x9 PUSH1 0x20 MSTORE PUSH1 0x40 DUP2 KECCAK256 DUP3 SWAP1 SSTORE PUSH1 0x1 DUP3 ADD DUP4 SSTORE SWAP2 SWAP1 SWAP2 MSTORE PUSH32 0xF3F7A9FE364FAAB93B216DA50A3214154F22A0A2B415B23A84C8169E8B636EE3 ADD SSTORE JUMP JUMPDEST PUSH2 0xF54 JUMP JUMPDEST DUP5 PUSH1 0x1 PUSH1 0x1 PUSH1 0xA0 SHL SUB AND DUP2 PUSH1 0x1 PUSH1 0x1 PUSH1 0xA0 SHL SUB AND EQ PUSH2 0xF54 JUMPI PUSH2 0xF54 DUP2 DUP6 PUSH2 0x142D JUMP JUMPDEST PUSH1 0x1 PUSH1 0x1 PUSH1 0xA0 SHL SUB DUP6 AND PUSH2 0xF70 JUMPI PUSH2 0xF6B DUP5 PUSH2 0x14BA JUMP JUMPDEST PUSH2 0xF93 JUMP JUMPDEST DUP5 PUSH1 0x1 PUSH1 0x1 PUSH1 0xA0 SHL SUB AND DUP2 PUSH1 0x1 PUSH1 0x1 PUSH1 0xA0 SHL SUB AND EQ PUSH2 0xF93 JUMPI PUSH2 0xF93 DUP6 DUP6 PUSH2 0x1561 JUMP JUMPDEST SWAP5 SWAP4 POP POP POP POP JUMP JUMPDEST PUSH1 0xB SLOAD PUSH1 0x1 PUSH1 0x1 PUSH1 0xA0 SHL SUB AND CALLER EQ PUSH2 0xB46 JUMPI PUSH1 0x40 MLOAD PUSH4 0x118CDAA7 PUSH1 0xE0 SHL DUP2 MSTORE CALLER PUSH1 0x4 DUP3 ADD MSTORE PUSH1 0x24 ADD PUSH2 0x79F JUMP JUMPDEST PUSH1 0x2 PUSH1 0xA SLOAD SUB PUSH2 0xFEB JUMPI PUSH1 0x40 MLOAD PUSH4 0x3EE5AEB5 PUSH1 0xE0 SHL DUP2 MSTORE PUSH1 0x4 ADD PUSH1 0x40 MLOAD DUP1 SWAP2 SUB SWAP1 REVERT JUMPDEST PUSH1 0x2 PUSH1 0xA SSTORE JUMP JUMPDEST PUSH2 0x6DF DUP3 DUP3 PUSH1 0x40 MLOAD DUP1 PUSH1 0x20 ADD PUSH1 0x40 MSTORE DUP1 PUSH0 DUP2 MSTORE POP PUSH2 0x15AF JUMP JUMPDEST PUSH0 DUP3 DUP2 MSTORE PUSH1 0x12 PUSH1 0x20 MSTORE PUSH1 0x40 SWAP1 KECCAK256 PUSH2 0x8C6 DUP3 DUP3 PUSH2 0x1AA4 JUMP JUMPDEST PUSH1 0xB DUP1 SLOAD PUSH1 0x1 PUSH1 0x1 PUSH1 0xA0 SHL SUB DUP4 DUP2 AND PUSH1 0x1 PUSH1 0x1 PUSH1 0xA0 SHL SUB NOT DUP4 AND DUP2 OR SWAP1 SWAP4 SSTORE PUSH1 0x40 MLOAD SWAP2 AND SWAP2 SWAP1 DUP3 SWAP1 PUSH32 0x8BE0079C531659141344CD1FD0A4F28419497F9722A3DAAFE3B4186F6B6457E0 SWAP1 PUSH0 SWAP1 LOG3 POP POP JUMP JUMPDEST PUSH1 0x1 PUSH1 0x1 PUSH1 0xA0 SHL SUB DUP3 AND PUSH2 0x10A5 JUMPI PUSH1 0x40 MLOAD PUSH4 0xB611743 PUSH1 0xE3 SHL DUP2 MSTORE PUSH1 0x1 PUSH1 0x1 PUSH1 0xA0 SHL SUB DUP4 AND PUSH1 0x4 DUP3 ADD MSTORE PUSH1 0x24 ADD PUSH2 0x79F JUMP JUMPDEST PUSH1 0x1 PUSH1 0x1 PUSH1 0xA0 SHL SUB DUP4 DUP2 AND PUSH0 DUP2 DUP2 MSTORE PUSH1 0x5 PUSH1 0x20 SWAP1 DUP2 MSTORE PUSH1 0x40 DUP1 DUP4 KECCAK256 SWAP5 DUP8 AND DUP1 DUP5 MSTORE SWAP5 DUP3 MSTORE SWAP2 DUP3 SWAP1 KECCAK256 DUP1 SLOAD PUSH1 0xFF NOT AND DUP7 ISZERO ISZERO SWAP1 DUP2 OR SWAP1 SWAP2 SSTORE SWAP2 MLOAD SWAP2 DUP3 MSTORE PUSH32 0x17307EAB39AB6107E8899845AD3D59BD9653F200F220920489CA2B5937696C31 SWAP2 ADD PUSH1 0x40 MLOAD DUP1 SWAP2 SUB SWAP1 LOG3 POP POP POP JUMP JUMPDEST PUSH1 0x1 PUSH1 0x1 PUSH1 0xA0 SHL SUB DUP4 AND EXTCODESIZE ISZERO PUSH2 0x802 JUMPI PUSH1 0x40 MLOAD PUSH4 0xA85BD01 PUSH1 0xE1 SHL DUP2 MSTORE PUSH1 0x1 PUSH1 0x1 PUSH1 0xA0 SHL SUB DUP5 AND SWAP1 PUSH4 0x150B7A02 SWAP1 PUSH2 0x1153 SWAP1 CALLER SWAP1 DUP9 SWAP1 DUP8 SWAP1 DUP8 SWAP1 PUSH1 0x4 ADD PUSH2 0x1B5F JUMP JUMPDEST PUSH1 0x20 PUSH1 0x40 MLOAD DUP1 DUP4 SUB DUP2 PUSH0 DUP8 GAS CALL SWAP3 POP POP POP DUP1 ISZERO PUSH2 0x118D JUMPI POP PUSH1 0x40 DUP1 MLOAD PUSH1 0x1F RETURNDATASIZE SWAP1 DUP2 ADD PUSH1 0x1F NOT AND DUP3 ADD SWAP1 SWAP3 MSTORE PUSH2 0x118A SWAP2 DUP2 ADD SWAP1 PUSH2 0x1B9B JUMP JUMPDEST PUSH1 0x1 JUMPDEST PUSH2 0x11F4 JUMPI RETURNDATASIZE DUP1 DUP1 ISZERO PUSH2 0x11BA JUMPI PUSH1 0x40 MLOAD SWAP2 POP PUSH1 0x1F NOT PUSH1 0x3F RETURNDATASIZE ADD AND DUP3 ADD PUSH1 0x40 MSTORE RETURNDATASIZE DUP3 MSTORE RETURNDATASIZE PUSH0 PUSH1 0x20 DUP5 ADD RETURNDATACOPY PUSH2 0x11BF JUMP JUMPDEST PUSH1 0x60 SWAP2 POP JUMPDEST POP DUP1 MLOAD PUSH0 SUB PUSH2 0x11EC JUMPI PUSH1 0x40 MLOAD PUSH4 0x32505749 PUSH1 0xE1 SHL DUP2 MSTORE PUSH1 0x1 PUSH1 0x1 PUSH1 0xA0 SHL SUB DUP6 AND PUSH1 0x4 DUP3 ADD MSTORE PUSH1 0x24 ADD PUSH2 0x79F JUMP JUMPDEST DUP1 MLOAD DUP2 PUSH1 0x20 ADD REVERT JUMPDEST PUSH1 0x1 PUSH1 0x1 PUSH1 0xE0 SHL SUB NOT DUP2 AND PUSH4 0xA85BD01 PUSH1 0xE1 SHL EQ PUSH2 0x1230 JUMPI PUSH1 0x40 MLOAD PUSH4 0x32505749 PUSH1 0xE1 SHL DUP2 MSTORE PUSH1 0x1 PUSH1 0x1 PUSH1 0xA0 SHL SUB DUP6 AND PUSH1 0x4 DUP3 ADD MSTORE PUSH1 0x24 ADD PUSH2 0x79F JUMP JUMPDEST POP POP POP POP POP JUMP JUMPDEST DUP1 DUP1 PUSH2 0x124B JUMPI POP PUSH1 0x1 PUSH1 0x1 PUSH1 0xA0 SHL SUB DUP3 AND ISZERO ISZERO JUMPDEST ISZERO PUSH2 0x130C JUMPI PUSH0 PUSH2 0x125A DUP5 PUSH2 0xE83 JUMP JUMPDEST SWAP1 POP PUSH1 0x1 PUSH1 0x1 PUSH1 0xA0 SHL SUB DUP4 AND ISZERO DUP1 ISZERO SWAP1 PUSH2 0x1286 JUMPI POP DUP3 PUSH1 0x1 PUSH1 0x1 PUSH1 0xA0 SHL SUB AND DUP2 PUSH1 0x1 PUSH1 0x1 PUSH1 0xA0 SHL SUB AND EQ ISZERO JUMPDEST DUP1 ISZERO PUSH2 0x1299 JUMPI POP PUSH2 0x1297 DUP2 DUP5 PUSH2 0xDC0 JUMP JUMPDEST ISZERO JUMPDEST ISZERO PUSH2 0x12C2 JUMPI PUSH1 0x40 MLOAD PUSH4 0xA9FBF51F PUSH1 0xE0 SHL DUP2 MSTORE PUSH1 0x1 PUSH1 0x1 PUSH1 0xA0 SHL SUB DUP5 AND PUSH1 0x4 DUP3 ADD MSTORE PUSH1 0x24 ADD PUSH2 0x79F JUMP JUMPDEST DUP2 ISZERO PUSH2 0x130A JUMPI DUP4 DUP6 PUSH1 0x1 PUSH1 0x1 PUSH1 0xA0 SHL SUB AND DUP3 PUSH1 0x1 PUSH1 0x1 PUSH1 0xA0 SHL SUB AND PUSH32 0x8C5BE1E5EBEC7D5BD14F71427D1E84F3DD0314C0F7B2291E5B200AC8C7C3B925 PUSH1 0x40 MLOAD PUSH1 0x40 MLOAD DUP1 SWAP2 SUB SWAP1 LOG4 JUMPDEST POP JUMPDEST POP POP PUSH0 SWAP1 DUP2 MSTORE PUSH1 0x4 PUSH1 0x20 MSTORE PUSH1 0x40 SWAP1 KECCAK256 DUP1 SLOAD PUSH1 0x1 PUSH1 0x1 PUSH1 0xA0 SHL SUB NOT AND PUSH1 0x1 PUSH1 0x1 PUSH1 0xA0 SHL SUB SWAP3 SWAP1 SWAP3 AND SWAP2 SWAP1 SWAP2 OR SWAP1 SSTORE JUMP JUMPDEST PUSH0 DUP3 DUP2 MSTORE PUSH1 0x2 PUSH1 0x20 MSTORE PUSH1 0x40 DUP2 KECCAK256 SLOAD PUSH1 0x1 PUSH1 0x1 PUSH1 0xA0 SHL SUB SWAP1 DUP2 AND SWAP1 DUP4 AND ISZERO PUSH2 0x1367 JUMPI PUSH2 0x1367 DUP2 DUP5 DUP7 PUSH2 0x15C5 JUMP JUMPDEST PUSH1 0x1 PUSH1 0x1 PUSH1 0xA0 SHL SUB DUP2 AND ISZERO PUSH2 0x13A1 JUMPI PUSH2 0x1382 PUSH0 DUP6 PUSH0 DUP1 PUSH2 0x1237 JUMP JUMPDEST PUSH1 0x1 PUSH1 0x1 PUSH1 0xA0 SHL SUB DUP2 AND PUSH0 SWAP1 DUP2 MSTORE PUSH1 0x3 PUSH1 0x20 MSTORE PUSH1 0x40 SWAP1 KECCAK256 DUP1 SLOAD PUSH0 NOT ADD SWAP1 SSTORE JUMPDEST PUSH1 0x1 PUSH1 0x1 PUSH1 0xA0 SHL SUB DUP6 AND ISZERO PUSH2 0x13CF JUMPI PUSH1 0x1 PUSH1 0x1 PUSH1 0xA0 SHL SUB DUP6 AND PUSH0 SWAP1 DUP2 MSTORE PUSH1 0x3 PUSH1 0x20 MSTORE PUSH1 0x40 SWAP1 KECCAK256 DUP1 SLOAD PUSH1 0x1 ADD SWAP1 SSTORE JUMPDEST PUSH0 DUP5 DUP2 MSTORE PUSH1 0x2 PUSH1 0x20 MSTORE PUSH1 0x40 DUP1 DUP3 KECCAK256 DUP1 SLOAD PUSH1 0x1 PUSH1 0x1 PUSH1 0xA0 SHL SUB NOT AND PUSH1 0x1 PUSH1 0x1 PUSH1 0xA0 SHL SUB DUP10 DUP2 AND SWAP2 DUP3 OR SWAP1 SWAP3 SSTORE SWAP2 MLOAD DUP8 SWAP4 SWAP2 DUP6 AND SWAP2 PUSH32 0xDDF252AD1BE2C89B69C2B068FC378DAA952BA7F163C4A11628F55A4DF523B3EF SWAP2 LOG4 SWAP5 SWAP4 POP POP POP POP JUMP JUMPDEST PUSH0 PUSH2 0x1437 DUP4 PUSH2 0xAF0 JUMP JUMPDEST PUSH0 DUP4 DUP2 MSTORE PUSH1 0x7 PUSH1 0x20 MSTORE PUSH1 0x40 SWAP1 KECCAK256 SLOAD SWAP1 SWAP2 POP DUP1 DUP3 EQ PUSH2 0x1488 JUMPI PUSH1 0x1 PUSH1 0x1 PUSH1 0xA0 SHL SUB DUP5 AND PUSH0 SWAP1 DUP2 MSTORE PUSH1 0x6 PUSH1 0x20 SWAP1 DUP2 MSTORE PUSH1 0x40 DUP1 DUP4 KECCAK256 DUP6 DUP5 MSTORE DUP3 MSTORE DUP1 DUP4 KECCAK256 SLOAD DUP5 DUP5 MSTORE DUP2 DUP5 KECCAK256 DUP2 SWAP1 SSTORE DUP4 MSTORE PUSH1 0x7 SWAP1 SWAP2 MSTORE SWAP1 KECCAK256 DUP2 SWAP1 SSTORE JUMPDEST POP PUSH0 SWAP2 DUP3 MSTORE PUSH1 0x7 PUSH1 0x20 SWAP1 DUP2 MSTORE PUSH1 0x40 DUP1 DUP5 KECCAK256 DUP5 SWAP1 SSTORE PUSH1 0x1 PUSH1 0x1 PUSH1 0xA0 SHL SUB SWAP1 SWAP5 AND DUP4 MSTORE PUSH1 0x6 DUP2 MSTORE DUP4 DUP4 KECCAK256 SWAP2 DUP4 MSTORE MSTORE SWAP1 DUP2 KECCAK256 SSTORE JUMP JUMPDEST PUSH1 0x8 SLOAD PUSH0 SWAP1 PUSH2 0x14CB SWAP1 PUSH1 0x1 SWAP1 PUSH2 0x1BB6 JUMP JUMPDEST PUSH0 DUP4 DUP2 MSTORE PUSH1 0x9 PUSH1 0x20 MSTORE PUSH1 0x40 DUP2 KECCAK256 SLOAD PUSH1 0x8 DUP1 SLOAD SWAP4 SWAP5 POP SWAP1 SWAP3 DUP5 SWAP1 DUP2 LT PUSH2 0x14F2 JUMPI PUSH2 0x14F2 PUSH2 0x1A0D JUMP JUMPDEST SWAP1 PUSH0 MSTORE PUSH1 0x20 PUSH0 KECCAK256 ADD SLOAD SWAP1 POP DUP1 PUSH1 0x8 DUP4 DUP2 SLOAD DUP2 LT PUSH2 0x1511 JUMPI PUSH2 0x1511 PUSH2 0x1A0D JUMP JUMPDEST PUSH0 SWAP2 DUP3 MSTORE PUSH1 0x20 DUP1 DUP4 KECCAK256 SWAP1 SWAP2 ADD SWAP3 SWAP1 SWAP3 SSTORE DUP3 DUP2 MSTORE PUSH1 0x9 SWAP1 SWAP2 MSTORE PUSH1 0x40 DUP1 DUP3 KECCAK256 DUP5 SWAP1 SSTORE DUP6 DUP3 MSTORE DUP2 KECCAK256 SSTORE PUSH1 0x8 DUP1 SLOAD DUP1 PUSH2 0x1548 JUMPI PUSH2 0x1548 PUSH2 0x1BC9 JUMP JUMPDEST PUSH1 0x1 SWAP1 SUB DUP2 DUP2 SWAP1 PUSH0 MSTORE PUSH1 0x20 PUSH0 KECCAK256 ADD PUSH0 SWAP1 SSTORE SWAP1 SSTORE POP POP POP POP JUMP JUMPDEST PUSH0 PUSH1 0x1 PUSH2 0x156D DUP5 PUSH2 0xAF0 JUMP JUMPDEST PUSH2 0x1577 SWAP2 SWAP1 PUSH2 0x1BB6 JUMP JUMPDEST PUSH1 0x1 PUSH1 0x1 PUSH1 0xA0 SHL SUB SWAP1 SWAP4 AND PUSH0 SWAP1 DUP2 MSTORE PUSH1 0x6 PUSH1 0x20 SWAP1 DUP2 MSTORE PUSH1 0x40 DUP1 DUP4 KECCAK256 DUP7 DUP5 MSTORE DUP3 MSTORE DUP1 DUP4 KECCAK256 DUP6 SWAP1 SSTORE SWAP4 DUP3 MSTORE PUSH1 0x7 SWAP1 MSTORE SWAP2 SWAP1 SWAP2 KECCAK256 SWAP2 SWAP1 SWAP2 SSTORE POP JUMP JUMPDEST PUSH2 0x15B9 DUP4 DUP4 PUSH2 0x1629 JUMP JUMPDEST PUSH2 0x8C6 PUSH0 DUP5 DUP5 DUP5 PUSH2 0x1111 JUMP JUMPDEST PUSH2 0x15D0 DUP4 DUP4 DUP4 PUSH2 0x168A JUMP JUMPDEST PUSH2 0x8C6 JUMPI PUSH1 0x1 PUSH1 0x1 PUSH1 0xA0 SHL SUB DUP4 AND PUSH2 0x15FE JUMPI PUSH1 0x40 MLOAD PUSH4 0x7E273289 PUSH1 0xE0 SHL DUP2 MSTORE PUSH1 0x4 DUP2 ADD DUP3 SWAP1 MSTORE PUSH1 0x24 ADD PUSH2 0x79F JUMP JUMPDEST PUSH1 0x40 MLOAD PUSH4 0x177E802F PUSH1 0xE0 SHL DUP2 MSTORE PUSH1 0x1 PUSH1 0x1 PUSH1 0xA0 SHL SUB DUP4 AND PUSH1 0x4 DUP3 ADD MSTORE PUSH1 0x24 DUP2 ADD DUP3 SWAP1 MSTORE PUSH1 0x44 ADD PUSH2 0x79F JUMP JUMPDEST PUSH1 0x1 PUSH1 0x1 PUSH1 0xA0 SHL SUB DUP3 AND PUSH2 0x1652 JUMPI PUSH1 0x40 MLOAD PUSH4 0x32505749 PUSH1 0xE1 SHL DUP2 MSTORE PUSH0 PUSH1 0x4 DUP3 ADD MSTORE PUSH1 0x24 ADD PUSH2 0x79F JUMP JUMPDEST PUSH0 PUSH2 0x165E DUP4 DUP4 PUSH0 PUSH2 0xEC8 JUMP JUMPDEST SWAP1 POP PUSH1 0x1 PUSH1 0x1 PUSH1 0xA0 SHL SUB DUP2 AND ISZERO PUSH2 0x8C6 JUMPI PUSH1 0x40 MLOAD PUSH4 0x39E35637 PUSH1 0xE1 SHL DUP2 MSTORE PUSH0 PUSH1 0x4 DUP3 ADD MSTORE PUSH1 0x24 ADD PUSH2 0x79F JUMP JUMPDEST PUSH0 PUSH1 0x1 PUSH1 0x1 PUSH1 0xA0 SHL SUB DUP4 AND ISZERO DUP1 ISZERO SWAP1 PUSH2 0xF93 JUMPI POP DUP3 PUSH1 0x1 PUSH1 0x1 PUSH1 0xA0 SHL SUB AND DUP5 PUSH1 0x1 PUSH1 0x1 PUSH1 0xA0 SHL SUB AND EQ DUP1 PUSH2 0x16C3 JUMPI POP PUSH2 0x16C3 DUP5 DUP5 PUSH2 0xDC0 JUMP JUMPDEST DUP1 PUSH2 0xF93 JUMPI POP POP PUSH0 SWAP1 DUP2 MSTORE PUSH1 0x4 PUSH1 0x20 MSTORE PUSH1 0x40 SWAP1 KECCAK256 SLOAD PUSH1 0x1 PUSH1 0x1 PUSH1 0xA0 SHL SUB SWAP1 DUP2 AND SWAP2 AND EQ SWAP2 SWAP1 POP JUMP JUMPDEST PUSH1 0x1 PUSH1 0x1 PUSH1 0xE0 SHL SUB NOT DUP2 AND DUP2 EQ PUSH2 0x8A9 JUMPI PUSH0 DUP1 REVERT JUMPDEST PUSH0 PUSH1 0x20 DUP3 DUP5 SUB SLT ISZERO PUSH2 0x1710 JUMPI PUSH0 DUP1 REVERT JUMPDEST DUP2 CALLDATALOAD PUSH2 0x171B DUP2 PUSH2 0x16EB JUMP JUMPDEST SWAP4 SWAP3 POP POP POP JUMP JUMPDEST PUSH0 DUP2 MLOAD DUP1 DUP5 MSTORE PUSH0 JUMPDEST DUP2 DUP2 LT ISZERO PUSH2 0x1746 JUMPI PUSH1 0x20 DUP2 DUP6 ADD DUP2 ADD MLOAD DUP7 DUP4 ADD DUP3 ADD MSTORE ADD PUSH2 0x172A JUMP JUMPDEST POP PUSH0 PUSH1 0x20 DUP3 DUP7 ADD ADD MSTORE PUSH1 0x20 PUSH1 0x1F NOT PUSH1 0x1F DUP4 ADD AND DUP6 ADD ADD SWAP2 POP POP SWAP3 SWAP2 POP POP JUMP JUMPDEST PUSH1 0x20 DUP2 MSTORE PUSH0 PUSH2 0x171B PUSH1 0x20 DUP4 ADD DUP5 PUSH2 0x1722 JUMP JUMPDEST PUSH0 PUSH1 0x20 DUP3 DUP5 SUB SLT ISZERO PUSH2 0x1787 JUMPI PUSH0 DUP1 REVERT JUMPDEST POP CALLDATALOAD SWAP2 SWAP1 POP JUMP JUMPDEST DUP1 CALLDATALOAD PUSH1 0x1 PUSH1 0x1 PUSH1 0xA0 SHL SUB DUP2 AND DUP2 EQ PUSH2 0x17A4 JUMPI PUSH0 DUP1 REVERT JUMPDEST SWAP2 SWAP1 POP JUMP JUMPDEST PUSH0 DUP1 PUSH1 0x40 DUP4 DUP6 SUB SLT ISZERO PUSH2 0x17BA JUMPI PUSH0 DUP1 REVERT JUMPDEST PUSH2 0x17C3 DUP4 PUSH2 0x178E JUMP JUMPDEST SWAP5 PUSH1 0x20 SWAP4 SWAP1 SWAP4 ADD CALLDATALOAD SWAP4 POP POP POP JUMP JUMPDEST PUSH0 DUP1 PUSH0 PUSH1 0x60 DUP5 DUP7 SUB SLT ISZERO PUSH2 0x17E3 JUMPI PUSH0 DUP1 REVERT JUMPDEST PUSH2 0x17EC DUP5 PUSH2 0x178E JUMP JUMPDEST SWAP3 POP PUSH2 0x17FA PUSH1 0x20 DUP6 ADD PUSH2 0x178E JUMP JUMPDEST SWAP3 SWAP6 SWAP3 SWAP5 POP POP POP PUSH1 0x40 SWAP2 SWAP1 SWAP2 ADD CALLDATALOAD SWAP1 JUMP JUMPDEST PUSH4 0x4E487B71 PUSH1 0xE0 SHL PUSH0 MSTORE PUSH1 0x41 PUSH1 0x4 MSTORE PUSH1 0x24 PUSH0 REVERT JUMPDEST PUSH0 DUP1 PUSH8 0xFFFFFFFFFFFFFFFF DUP5 GT ISZERO PUSH2 0x1839 JUMPI PUSH2 0x1839 PUSH2 0x180B JUMP JUMPDEST POP PUSH1 0x40 MLOAD PUSH1 0x1F NOT PUSH1 0x1F DUP6 ADD DUP2 AND PUSH1 0x3F ADD AND DUP2 ADD DUP2 DUP2 LT PUSH8 0xFFFFFFFFFFFFFFFF DUP3 GT OR ISZERO PUSH2 0x1868 JUMPI PUSH2 0x1868 PUSH2 0x180B JUMP JUMPDEST PUSH1 0x40 MSTORE DUP4 DUP2 MSTORE SWAP1 POP DUP1 DUP3 DUP5 ADD DUP6 LT ISZERO PUSH2 0x187F JUMPI PUSH0 DUP1 REVERT JUMPDEST DUP4 DUP4 PUSH1 0x20 DUP4 ADD CALLDATACOPY PUSH0 PUSH1 0x20 DUP6 DUP4 ADD ADD MSTORE POP SWAP4 SWAP3 POP POP POP JUMP JUMPDEST PUSH0 PUSH1 0x20 DUP3 DUP5 SUB SLT ISZERO PUSH2 0x18A6 JUMPI PUSH0 DUP1 REVERT JUMPDEST DUP2 CALLDATALOAD PUSH8 0xFFFFFFFFFFFFFFFF DUP2 GT ISZERO PUSH2 0x18BC JUMPI PUSH0 DUP1 REVERT JUMPDEST DUP3 ADD PUSH1 0x1F DUP2 ADD DUP5 SGT PUSH2 0x18CC JUMPI PUSH0 DUP1 REVERT JUMPDEST PUSH2 0xF93 DUP5 DUP3 CALLDATALOAD PUSH1 0x20 DUP5 ADD PUSH2 0x181F JUMP JUMPDEST PUSH0 PUSH1 0x20 DUP3 DUP5 SUB SLT ISZERO PUSH2 0x18EB JUMPI PUSH0 DUP1 REVERT JUMPDEST PUSH2 0x171B DUP3 PUSH2 0x178E JUMP JUMPDEST PUSH0 DUP1 PUSH1 0x40 DUP4 DUP6 SUB SLT ISZERO PUSH2 0x1905 JUMPI PUSH0 DUP1 REVERT JUMPDEST PUSH2 0x190E DUP4 PUSH2 0x178E JUMP JUMPDEST SWAP2 POP PUSH1 0x20 DUP4 ADD CALLDATALOAD DUP1 ISZERO ISZERO DUP2 EQ PUSH2 0x1922 JUMPI PUSH0 DUP1 REVERT JUMPDEST DUP1 SWAP2 POP POP SWAP3 POP SWAP3 SWAP1 POP JUMP JUMPDEST PUSH0 DUP1 PUSH0 DUP1 PUSH1 0x80 DUP6 DUP8 SUB SLT ISZERO PUSH2 0x1940 JUMPI PUSH0 DUP1 REVERT JUMPDEST PUSH2 0x1949 DUP6 PUSH2 0x178E JUMP JUMPDEST SWAP4 POP PUSH2 0x1957 PUSH1 0x20 DUP7 ADD PUSH2 0x178E JUMP JUMPDEST SWAP3 POP PUSH1 0x40 DUP6 ADD CALLDATALOAD SWAP2 POP PUSH1 0x60 DUP6 ADD CALLDATALOAD PUSH8 0xFFFFFFFFFFFFFFFF DUP2 GT ISZERO PUSH2 0x1979 JUMPI PUSH0 DUP1 REVERT JUMPDEST DUP6 ADD PUSH1 0x1F DUP2 ADD DUP8 SGT PUSH2 0x1989 JUMPI PUSH0 DUP1 REVERT JUMPDEST PUSH2 0x1998 DUP8 DUP3 CALLDATALOAD PUSH1 0x20 DUP5 ADD PUSH2 0x181F JUMP JUMPDEST SWAP2 POP POP SWAP3 SWAP6 SWAP2 SWAP5 POP SWAP3 POP JUMP JUMPDEST PUSH0 DUP1 PUSH1 0x40 DUP4 DUP6 SUB SLT ISZERO PUSH2 0x19B5 JUMPI PUSH0 DUP1 REVERT JUMPDEST PUSH2 0x19BE DUP4 PUSH2 0x178E JUMP JUMPDEST SWAP2 POP PUSH2 0x19CC PUSH1 0x20 DUP5 ADD PUSH2 0x178E JUMP JUMPDEST SWAP1 POP SWAP3 POP SWAP3 SWAP1 POP JUMP JUMPDEST PUSH1 0x1 DUP2 DUP2 SHR SWAP1 DUP3 AND DUP1 PUSH2 0x19E9 JUMPI PUSH1 0x7F DUP3 AND SWAP2 POP JUMPDEST PUSH1 0x20 DUP3 LT DUP2 SUB PUSH2 0x1A07 JUMPI PUSH4 0x4E487B71 PUSH1 0xE0 SHL PUSH0 MSTORE PUSH1 0x22 PUSH1 0x4 MSTORE PUSH1 0x24 PUSH0 REVERT JUMPDEST POP SWAP2 SWAP1 POP JUMP JUMPDEST PUSH4 0x4E487B71 PUSH1 0xE0 SHL PUSH0 MSTORE PUSH1 0x32 PUSH1 0x4 MSTORE PUSH1 0x24 PUSH0 REVERT JUMPDEST PUSH4 0x4E487B71 PUSH1 0xE0 SHL PUSH0 MSTORE PUSH1 0x11 PUSH1 0x4 MSTORE PUSH1 0x24 PUSH0 REVERT JUMPDEST PUSH0 PUSH1 0x1 DUP3 ADD PUSH2 0x1A46 JUMPI PUSH2 0x1A46 PUSH2 0x1A21 JUMP JUMPDEST POP PUSH1 0x1 ADD SWAP1 JUMP JUMPDEST DUP1 DUP3 ADD DUP1 DUP3 GT ISZERO PUSH2 0x618 JUMPI PUSH2 0x618 PUSH2 0x1A21 JUMP JUMPDEST PUSH1 0x1F DUP3 GT ISZERO PUSH2 0x8C6 JUMPI DUP1 PUSH0 MSTORE PUSH1 0x20 PUSH0 KECCAK256 PUSH1 0x1F DUP5 ADD PUSH1 0x5 SHR DUP2 ADD PUSH1 0x20 DUP6 LT ISZERO PUSH2 0x1A85 JUMPI POP DUP1 JUMPDEST PUSH1 0x1F DUP5 ADD PUSH1 0x5 SHR DUP3 ADD SWAP2 POP JUMPDEST DUP2 DUP2 LT ISZERO PUSH2 0x1230 JUMPI PUSH0 DUP2 SSTORE PUSH1 0x1 ADD PUSH2 0x1A91 JUMP JUMPDEST DUP2 MLOAD PUSH8 0xFFFFFFFFFFFFFFFF DUP2 GT ISZERO PUSH2 0x1ABE JUMPI PUSH2 0x1ABE PUSH2 0x180B JUMP JUMPDEST PUSH2 0x1AD2 DUP2 PUSH2 0x1ACC DUP5 SLOAD PUSH2 0x19D5 JUMP JUMPDEST DUP5 PUSH2 0x1A60 JUMP JUMPDEST PUSH1 0x20 PUSH1 0x1F DUP3 GT PUSH1 0x1 DUP2 EQ PUSH2 0x1B04 JUMPI PUSH0 DUP4 ISZERO PUSH2 0x1AED JUMPI POP DUP5 DUP3 ADD MLOAD JUMPDEST PUSH0 NOT PUSH1 0x3 DUP6 SWAP1 SHL SHR NOT AND PUSH1 0x1 DUP5 SWAP1 SHL OR DUP5 SSTORE PUSH2 0x1230 JUMP JUMPDEST PUSH0 DUP5 DUP2 MSTORE PUSH1 0x20 DUP2 KECCAK256 PUSH1 0x1F NOT DUP6 AND SWAP2 JUMPDEST DUP3 DUP2 LT ISZERO PUSH2 0x1B33 JUMPI DUP8 DUP6 ADD MLOAD DUP3 SSTORE PUSH1 0x20 SWAP5 DUP6 ADD SWAP5 PUSH1 0x1 SWAP1 SWAP3 ADD SWAP2 ADD PUSH2 0x1B13 JUMP JUMPDEST POP DUP5 DUP3 LT ISZERO PUSH2 0x1B50 JUMPI DUP7 DUP5 ADD MLOAD PUSH0 NOT PUSH1 0x3 DUP8 SWAP1 SHL PUSH1 0xF8 AND SHR NOT AND DUP2 SSTORE JUMPDEST POP POP POP POP PUSH1 0x1 SWAP1 DUP2 SHL ADD SWAP1 SSTORE POP JUMP JUMPDEST PUSH1 0x1 PUSH1 0x1 PUSH1 0xA0 SHL SUB DUP6 DUP2 AND DUP3 MSTORE DUP5 AND PUSH1 0x20 DUP3 ADD MSTORE PUSH1 0x40 DUP2 ADD DUP4 SWAP1 MSTORE PUSH1 0x80 PUSH1 0x60 DUP3 ADD DUP2 SWAP1 MSTORE PUSH0 SWAP1 PUSH2 0x1B91 SWAP1 DUP4 ADD DUP5 PUSH2 0x1722 JUMP JUMPDEST SWAP7 SWAP6 POP POP POP POP POP POP JUMP JUMPDEST PUSH0 PUSH1 0x20 DUP3 DUP5 SUB SLT ISZERO PUSH2 0x1BAB JUMPI PUSH0 DUP1 REVERT JUMPDEST DUP2 MLOAD PUSH2 0x171B DUP2 PUSH2 0x16EB JUMP JUMPDEST DUP2 DUP2 SUB DUP2 DUP2 GT ISZERO PUSH2 0x618 JUMPI PUSH2 0x618 PUSH2 0x1A21 JUMP JUMPDEST PUSH4 0x4E487B71 PUSH1 0xE0 SHL PUSH0 MSTORE PUSH1 0x31 PUSH1 0x4 MSTORE PUSH1 0x24 PUSH0 REVERT INVALID LOG2 PUSH5 0x6970667358 0x22 SLT KECCAK256 DUP11 0xF7 DUP6 PUSH31 0x107AF6582F25E2E73E2D1ED4CCD936AEDD0D0394277ABB964B940E5D64736F PUSH13 0x634300081A0033000000000000 "
				},
				"gasEstimates": {
					"creation": {
						"codeDepositCost": "1437400",
						"executionCost": "infinite",
						"totalCost": "infinite"
					},
					"external": {
						"_isSaleActive()": "2377",
						"_tokenURIs(uint256)": "infinite",
						"addToWhitelist(address)": "26837",
						"approve(address,uint256)": "31487",
						"balanceOf(address)": "2664",
						"currentTokenId()": "2316",
						"endWhitelistMintTime()": "2329",
						"flipSaleActive()": "26590",
						"getApproved(uint256)": "infinite",
						"isApprovedForAll(address,address)": "infinite",
						"lastMintTime(address)": "2551",
						"mint(string)": "infinite",
						"mintInterval()": "2373",
						"mintPrice()": "2416",
						"name()": "infinite",
						"owner()": "2375",
						"ownerOf(uint256)": "infinite",
						"payToMint(string)": "infinite",
						"renounceOwnership()": "infinite",
						"safeTransferFrom(address,address,uint256)": "infinite",
						"safeTransferFrom(address,address,uint256,bytes)": "infinite",
						"setApprovalForAll(address,bool)": "26767",
						"setMintInterval(uint256)": "24575",
						"setMintPrice(uint256)": "24618",
						"supportsInterface(bytes4)": "infinite",
						"symbol()": "infinite",
						"tokenByIndex(uint256)": "6766",
						"tokenOfOwnerByIndex(address,uint256)": "5003",
						"tokenURI(uint256)": "infinite",
						"totalSupply()": "2392",
						"transferFrom(address,address,uint256)": "infinite",
						"transferOwnership(address)": "28443",
						"whitelist(address)": "2617",
						"withdraw()": "infinite"
					},
					"internal": {
						"_setTokenURI(uint256,string memory)": "infinite"
					}
				},
				"methodIdentifiers": {
					"_isSaleActive()": "7080d6fc",
					"_tokenURIs(uint256)": "0bb78ec1",
					"addToWhitelist(address)": "e43252d7",
					"approve(address,uint256)": "095ea7b3",
					"balanceOf(address)": "70a08231",
					"currentTokenId()": "009a9b7b",
					"endWhitelistMintTime()": "232e623e",
					"flipSaleActive()": "de8b51e1",
					"getApproved(uint256)": "081812fc",
					"isApprovedForAll(address,address)": "e985e9c5",
					"lastMintTime(address)": "6aa71d18",
					"mint(string)": "d85d3d27",
					"mintInterval()": "0e726e6b",
					"mintPrice()": "6817c76c",
					"name()": "06fdde03",
					"owner()": "8da5cb5b",
					"ownerOf(uint256)": "6352211e",
					"payToMint(string)": "537efe31",
					"renounceOwnership()": "715018a6",
					"safeTransferFrom(address,address,uint256)": "42842e0e",
					"safeTransferFrom(address,address,uint256,bytes)": "b88d4fde",
					"setApprovalForAll(address,bool)": "a22cb465",
					"setMintInterval(uint256)": "cada2a18",
					"setMintPrice(uint256)": "f4a0a528",
					"supportsInterface(bytes4)": "01ffc9a7",
					"symbol()": "95d89b41",
					"tokenByIndex(uint256)": "4f6ccce7",
					"tokenOfOwnerByIndex(address,uint256)": "2f745c59",
					"tokenURI(uint256)": "c87b56dd",
					"totalSupply()": "18160ddd",
					"transferFrom(address,address,uint256)": "23b872dd",
					"transferOwnership(address)": "f2fde38b",
					"whitelist(address)": "9b19251a",
					"withdraw()": "3ccfd60b"
				}
			},
			"storageLayout": {
				"storage": [
					{
						"astId": 395,
						"contract": "contracts/BananaNFT.sol:BananaNFT",
						"label": "_name",
						"offset": 0,
						"slot": "0",
						"type": "t_string_storage"
					},
					{
						"astId": 397,
						"contract": "contracts/BananaNFT.sol:BananaNFT",
						"label": "_symbol",
						"offset": 0,
						"slot": "1",
						"type": "t_string_storage"
					},
					{
						"astId": 401,
						"contract": "contracts/BananaNFT.sol:BananaNFT",
						"label": "_owners",
						"offset": 0,
						"slot": "2",
						"type": "t_mapping(t_uint256,t_address)"
					},
					{
						"astId": 405,
						"contract": "contracts/BananaNFT.sol:BananaNFT",
						"label": "_balances",
						"offset": 0,
						"slot": "3",
						"type": "t_mapping(t_address,t_uint256)"
					},
					{
						"astId": 409,
						"contract": "contracts/BananaNFT.sol:BananaNFT",
						"label": "_tokenApprovals",
						"offset": 0,
						"slot": "4",
						"type": "t_mapping(t_uint256,t_address)"
					},
					{
						"astId": 415,
						"contract": "contracts/BananaNFT.sol:BananaNFT",
						"label": "_operatorApprovals",
						"offset": 0,
						"slot": "5",
						"type": "t_mapping(t_address,t_mapping(t_address,t_bool))"
					},
					{
						"astId": 1525,
						"contract": "contracts/BananaNFT.sol:BananaNFT",
						"label": "_ownedTokens",
						"offset": 0,
						"slot": "6",
						"type": "t_mapping(t_address,t_mapping(t_uint256,t_uint256))"
					},
					{
						"astId": 1529,
						"contract": "contracts/BananaNFT.sol:BananaNFT",
						"label": "_ownedTokensIndex",
						"offset": 0,
						"slot": "7",
						"type": "t_mapping(t_uint256,t_uint256)"
					},
					{
						"astId": 1532,
						"contract": "contracts/BananaNFT.sol:BananaNFT",
						"label": "_allTokens",
						"offset": 0,
						"slot": "8",
						"type": "t_array(t_uint256)dyn_storage"
					},
					{
						"astId": 1536,
						"contract": "contracts/BananaNFT.sol:BananaNFT",
						"label": "_allTokensIndex",
						"offset": 0,
						"slot": "9",
						"type": "t_mapping(t_uint256,t_uint256)"
					},
					{
						"astId": 1991,
						"contract": "contracts/BananaNFT.sol:BananaNFT",
						"label": "_status",
						"offset": 0,
						"slot": "10",
						"type": "t_uint256"
					},
					{
						"astId": 8,
						"contract": "contracts/BananaNFT.sol:BananaNFT",
						"label": "_owner",
						"offset": 0,
						"slot": "11",
						"type": "t_address"
					},
					{
						"astId": 3520,
						"contract": "contracts/BananaNFT.sol:BananaNFT",
						"label": "mintPrice",
						"offset": 0,
						"slot": "12",
						"type": "t_uint256"
					},
					{
						"astId": 3522,
						"contract": "contracts/BananaNFT.sol:BananaNFT",
						"label": "mintInterval",
						"offset": 0,
						"slot": "13",
						"type": "t_uint256"
					},
					{
						"astId": 3524,
						"contract": "contracts/BananaNFT.sol:BananaNFT",
						"label": "endWhitelistMintTime",
						"offset": 0,
						"slot": "14",
						"type": "t_uint256"
					},
					{
						"astId": 3526,
						"contract": "contracts/BananaNFT.sol:BananaNFT",
						"label": "_isSaleActive",
						"offset": 0,
						"slot": "15",
						"type": "t_bool"
					},
					{
						"astId": 3528,
						"contract": "contracts/BananaNFT.sol:BananaNFT",
						"label": "_tokenIdCounter",
						"offset": 0,
						"slot": "16",
						"type": "t_uint256"
					},
					{
						"astId": 3530,
						"contract": "contracts/BananaNFT.sol:BananaNFT",
						"label": "marketingWallet",
						"offset": 0,
						"slot": "17",
						"type": "t_address"
					},
					{
						"astId": 3534,
						"contract": "contracts/BananaNFT.sol:BananaNFT",
						"label": "_tokenURIs",
						"offset": 0,
						"slot": "18",
						"type": "t_mapping(t_uint256,t_string_storage)"
					},
					{
						"astId": 3538,
						"contract": "contracts/BananaNFT.sol:BananaNFT",
						"label": "whitelist",
						"offset": 0,
						"slot": "19",
						"type": "t_mapping(t_address,t_bool)"
					},
					{
						"astId": 3542,
						"contract": "contracts/BananaNFT.sol:BananaNFT",
						"label": "lastMintTime",
						"offset": 0,
						"slot": "20",
						"type": "t_mapping(t_address,t_uint256)"
					}
				],
				"types": {
					"t_address": {
						"encoding": "inplace",
						"label": "address",
						"numberOfBytes": "20"
					},
					"t_array(t_uint256)dyn_storage": {
						"base": "t_uint256",
						"encoding": "dynamic_array",
						"label": "uint256[]",
						"numberOfBytes": "32"
					},
					"t_bool": {
						"encoding": "inplace",
						"label": "bool",
						"numberOfBytes": "1"
					},
					"t_mapping(t_address,t_bool)": {
						"encoding": "mapping",
						"key": "t_address",
						"label": "mapping(address => bool)",
						"numberOfBytes": "32",
						"value": "t_bool"
					},
					"t_mapping(t_address,t_mapping(t_address,t_bool))": {
						"encoding": "mapping",
						"key": "t_address",
						"label": "mapping(address => mapping(address => bool))",
						"numberOfBytes": "32",
						"value": "t_mapping(t_address,t_bool)"
					},
					"t_mapping(t_address,t_mapping(t_uint256,t_uint256))": {
						"encoding": "mapping",
						"key": "t_address",
						"label": "mapping(address => mapping(uint256 => uint256))",
						"numberOfBytes": "32",
						"value": "t_mapping(t_uint256,t_uint256)"
					},
					"t_mapping(t_address,t_uint256)": {
						"encoding": "mapping",
						"key": "t_address",
						"label": "mapping(address => uint256)",
						"numberOfBytes": "32",
						"value": "t_uint256"
					},
					"t_mapping(t_uint256,t_address)": {
						"encoding": "mapping",
						"key": "t_uint256",
						"label": "mapping(uint256 => address)",
						"numberOfBytes": "32",
						"value": "t_address"
					},
					"t_mapping(t_uint256,t_string_storage)": {
						"encoding": "mapping",
						"key": "t_uint256",
						"label": "mapping(uint256 => string)",
						"numberOfBytes": "32",
						"value": "t_string_storage"
					},
					"t_mapping(t_uint256,t_uint256)": {
						"encoding": "mapping",
						"key": "t_uint256",
						"label": "mapping(uint256 => uint256)",
						"numberOfBytes": "32",
						"value": "t_uint256"
					},
					"t_string_storage": {
						"encoding": "bytes",
						"label": "string",
						"numberOfBytes": "32"
					},
					"t_uint256": {
						"encoding": "inplace",
						"label": "uint256",
						"numberOfBytes": "32"
					}
				}
			},
			"userdoc": {
				"kind": "user",
				"methods": {},
				"version": 1
			}
		}
	}
}