{
	"contracts/PrivateSale.sol": {
		"PrivateSale": {
			"abi": [
				{
					"inputs": [
						{
							"internalType": "address",
							"name": "_token",
							"type": "address"
						}
					],
					"stateMutability": "nonpayable",
					"type": "constructor"
				},
				{
					"anonymous": false,
					"inputs": [
						{
							"indexed": true,
							"internalType": "address",
							"name": "claimer",
							"type": "address"
						},
						{
							"indexed": false,
							"internalType": "uint256",
							"name": "amount",
							"type": "uint256"
						}
					],
					"name": "TokensClaimed",
					"type": "event"
				},
				{
					"anonymous": false,
					"inputs": [
						{
							"indexed": true,
							"internalType": "address",
							"name": "buyer",
							"type": "address"
						},
						{
							"indexed": false,
							"internalType": "uint256",
							"name": "amount",
							"type": "uint256"
						}
					],
					"name": "TokensPurchased",
					"type": "event"
				},
				{
					"inputs": [],
					"name": "MINI_AMOUNT",
					"outputs": [
						{
							"internalType": "uint256",
							"name": "",
							"type": "uint256"
						}
					],
					"stateMutability": "view",
					"type": "function"
				},
				{
					"inputs": [],
					"name": "TARGET",
					"outputs": [
						{
							"internalType": "uint256",
							"name": "",
							"type": "uint256"
						}
					],
					"stateMutability": "view",
					"type": "function"
				},
				{
					"inputs": [
						{
							"internalType": "uint256",
							"name": "tier",
							"type": "uint256"
						}
					],
					"name": "buyTokens",
					"outputs": [],
					"stateMutability": "payable",
					"type": "function"
				},
				{
					"inputs": [],
					"name": "claimTokens",
					"outputs": [],
					"stateMutability": "nonpayable",
					"type": "function"
				},
				{
					"inputs": [
						{
							"internalType": "address",
							"name": "",
							"type": "address"
						}
					],
					"name": "contributions",
					"outputs": [
						{
							"internalType": "uint256",
							"name": "",
							"type": "uint256"
						}
					],
					"stateMutability": "view",
					"type": "function"
				},
				{
					"inputs": [],
					"name": "endSale",
					"outputs": [],
					"stateMutability": "nonpayable",
					"type": "function"
				},
				{
					"inputs": [],
					"name": "getETHBalance",
					"outputs": [
						{
							"internalType": "uint256",
							"name": "",
							"type": "uint256"
						}
					],
					"stateMutability": "view",
					"type": "function"
				},
				{
					"inputs": [],
					"name": "getTokenBalance",
					"outputs": [
						{
							"internalType": "uint256",
							"name": "",
							"type": "uint256"
						}
					],
					"stateMutability": "view",
					"type": "function"
				},
				{
					"inputs": [
						{
							"internalType": "uint256",
							"name": "",
							"type": "uint256"
						}
					],
					"name": "limits",
					"outputs": [
						{
							"internalType": "uint256",
							"name": "",
							"type": "uint256"
						}
					],
					"stateMutability": "view",
					"type": "function"
				},
				{
					"inputs": [],
					"name": "owner",
					"outputs": [
						{
							"internalType": "address",
							"name": "",
							"type": "address"
						}
					],
					"stateMutability": "view",
					"type": "function"
				},
				{
					"inputs": [],
					"name": "saleActive",
					"outputs": [
						{
							"internalType": "bool",
							"name": "",
							"type": "bool"
						}
					],
					"stateMutability": "view",
					"type": "function"
				},
				{
					"inputs": [],
					"name": "token",
					"outputs": [
						{
							"internalType": "contract IERC20",
							"name": "",
							"type": "address"
						}
					],
					"stateMutability": "view",
					"type": "function"
				},
				{
					"inputs": [],
					"name": "totalSold",
					"outputs": [
						{
							"internalType": "uint256",
							"name": "",
							"type": "uint256"
						}
					],
					"stateMutability": "view",
					"type": "function"
				},
				{
					"inputs": [
						{
							"internalType": "address",
							"name": "treasury",
							"type": "address"
						},
						{
							"internalType": "uint256",
							"name": "ethAmount",
							"type": "uint256"
						}
					],
					"name": "withdrawETH",
					"outputs": [],
					"stateMutability": "nonpayable",
					"type": "function"
				},
				{
					"inputs": [
						{
							"internalType": "address",
							"name": "treasury",
							"type": "address"
						},
						{
							"internalType": "uint256",
							"name": "tokenAmount",
							"type": "uint256"
						}
					],
					"name": "withdrawToken",
					"outputs": [],
					"stateMutability": "nonpayable",
					"type": "function"
				},
				{
					"stateMutability": "payable",
					"type": "receive"
				}
			],
			"devdoc": {
				"kind": "dev",
				"methods": {},
				"version": 1
			},
			"evm": {
				"assembly": "    /* \"contracts/PrivateSale.sol\":130:3266  contract PrivateSale {... */\n  mstore(0x40, 0x80)\n    /* \"contracts/PrivateSale.sol\":704:1030  constructor(address _token) {... */\n  callvalue\n  dup1\n  iszero\n  tag_1\n  jumpi\n  0x00\n  dup1\n  revert\ntag_1:\n  pop\n  mload(0x40)\n  sub(codesize, bytecodeSize)\n  dup1\n  bytecodeSize\n  dup4\n  codecopy\n  dup2\n  dup2\n  add\n  0x40\n  mstore\n  dup2\n  add\n  swap1\n  tag_2\n  swap2\n  swap1\n  tag_3\n  jump\t// in\ntag_2:\n    /* \"contracts/PrivateSale.sol\":750:760  msg.sender */\n  caller\n    /* \"contracts/PrivateSale.sol\":742:747  owner */\n  0x00\n  dup1\n    /* \"contracts/PrivateSale.sol\":742:760  owner = msg.sender */\n  0x0100\n  exp\n  dup2\n  sload\n  dup2\n  0xffffffffffffffffffffffffffffffffffffffff\n  mul\n  not\n  and\n  swap1\n  dup4\n  0xffffffffffffffffffffffffffffffffffffffff\n  and\n  mul\n  or\n  swap1\n  sstore\n  pop\n    /* \"contracts/PrivateSale.sol\":785:791  _token */\n  dup1\n    /* \"contracts/PrivateSale.sol\":770:775  token */\n  0x02\n  0x01\n    /* \"contracts/PrivateSale.sol\":770:792  token = IERC20(_token) */\n  0x0100\n  exp\n  dup2\n  sload\n  dup2\n  0xffffffffffffffffffffffffffffffffffffffff\n  mul\n  not\n  and\n  swap1\n  dup4\n  0xffffffffffffffffffffffffffffffffffffffff\n  and\n  mul\n  or\n  swap1\n  sstore\n  pop\n    /* \"contracts/PrivateSale.sol\":815:819  true */\n  0x01\n    /* \"contracts/PrivateSale.sol\":802:812  saleActive */\n  0x02\n  0x00\n    /* \"contracts/PrivateSale.sol\":802:819  saleActive = true */\n  0x0100\n  exp\n  dup2\n  sload\n  dup2\n  0xff\n  mul\n  not\n  and\n  swap1\n  dup4\n  iszero\n  iszero\n  mul\n  or\n  swap1\n  sstore\n  pop\n    /* \"contracts/PrivateSale.sol\":841:848  1 ether */\n  0x0de0b6b3a7640000\n    /* \"contracts/PrivateSale.sol\":829:835  limits */\n  0x04\n    /* \"contracts/PrivateSale.sol\":829:838  limits[1] */\n  0x00\n    /* \"contracts/PrivateSale.sol\":836:837  1 */\n  0x01\n    /* \"contracts/PrivateSale.sol\":829:838  limits[1] */\n  dup2\n  mstore\n  0x20\n  add\n  swap1\n  dup2\n  mstore\n  0x20\n  add\n  0x00\n  keccak256\n    /* \"contracts/PrivateSale.sol\":829:848  limits[1] = 1 ether */\n  dup2\n  swap1\n  sstore\n  pop\n    /* \"contracts/PrivateSale.sol\":892:899  5 ether */\n  0x4563918244f40000\n    /* \"contracts/PrivateSale.sol\":880:886  limits */\n  0x04\n    /* \"contracts/PrivateSale.sol\":880:889  limits[2] */\n  0x00\n    /* \"contracts/PrivateSale.sol\":887:888  2 */\n  0x02\n    /* \"contracts/PrivateSale.sol\":880:889  limits[2] */\n  dup2\n  mstore\n  0x20\n  add\n  swap1\n  dup2\n  mstore\n  0x20\n  add\n  0x00\n  keccak256\n    /* \"contracts/PrivateSale.sol\":880:899  limits[2] = 5 ether */\n  dup2\n  swap1\n  sstore\n  pop\n    /* \"contracts/PrivateSale.sol\":943:951  10 ether */\n  0x8ac7230489e80000\n    /* \"contracts/PrivateSale.sol\":931:937  limits */\n  0x04\n    /* \"contracts/PrivateSale.sol\":931:940  limits[3] */\n  0x00\n    /* \"contracts/PrivateSale.sol\":938:939  3 */\n  0x03\n    /* \"contracts/PrivateSale.sol\":931:940  limits[3] */\n  dup2\n  mstore\n  0x20\n  add\n  swap1\n  dup2\n  mstore\n  0x20\n  add\n  0x00\n  keccak256\n    /* \"contracts/PrivateSale.sol\":931:951  limits[3] = 10 ether */\n  dup2\n  swap1\n  sstore\n  pop\n    /* \"contracts/PrivateSale.sol\":994:1002  20 ether */\n  0x01158e460913d00000\n    /* \"contracts/PrivateSale.sol\":982:988  limits */\n  0x04\n    /* \"contracts/PrivateSale.sol\":982:991  limits[4] */\n  0x00\n    /* \"contracts/PrivateSale.sol\":989:990  4 */\n  0x04\n    /* \"contracts/PrivateSale.sol\":982:991  limits[4] */\n  dup2\n  mstore\n  0x20\n  add\n  swap1\n  dup2\n  mstore\n  0x20\n  add\n  0x00\n  keccak256\n    /* \"contracts/PrivateSale.sol\":982:1002  limits[4] = 20 ether */\n  dup2\n  swap1\n  sstore\n  pop\n    /* \"contracts/PrivateSale.sol\":704:1030  constructor(address _token) {... */\n  pop\n    /* \"contracts/PrivateSale.sol\":130:3266  contract PrivateSale {... */\n  jump(tag_6)\n    /* \"#utility.yul\":88:205   */\ntag_8:\n    /* \"#utility.yul\":197:198   */\n  0x00\n    /* \"#utility.yul\":194:195   */\n  dup1\n    /* \"#utility.yul\":187:199   */\n  revert\n    /* \"#utility.yul\":334:460   */\ntag_10:\n    /* \"#utility.yul\":371:378   */\n  0x00\n    /* \"#utility.yul\":411:453   */\n  0xffffffffffffffffffffffffffffffffffffffff\n    /* \"#utility.yul\":404:409   */\n  dup3\n    /* \"#utility.yul\":400:454   */\n  and\n    /* \"#utility.yul\":389:454   */\n  swap1\n  pop\n    /* \"#utility.yul\":334:460   */\n  swap2\n  swap1\n  pop\n  jump\t// out\n    /* \"#utility.yul\":466:562   */\ntag_11:\n    /* \"#utility.yul\":503:510   */\n  0x00\n    /* \"#utility.yul\":532:556   */\n  tag_20\n    /* \"#utility.yul\":550:555   */\n  dup3\n    /* \"#utility.yul\":532:556   */\n  tag_10\n  jump\t// in\ntag_20:\n    /* \"#utility.yul\":521:556   */\n  swap1\n  pop\n    /* \"#utility.yul\":466:562   */\n  swap2\n  swap1\n  pop\n  jump\t// out\n    /* \"#utility.yul\":568:690   */\ntag_12:\n    /* \"#utility.yul\":641:665   */\n  tag_22\n    /* \"#utility.yul\":659:664   */\n  dup2\n    /* \"#utility.yul\":641:665   */\n  tag_11\n  jump\t// in\ntag_22:\n    /* \"#utility.yul\":634:639   */\n  dup2\n    /* \"#utility.yul\":631:666   */\n  eq\n    /* \"#utility.yul\":621:684   */\n  tag_23\n  jumpi\n    /* \"#utility.yul\":680:681   */\n  0x00\n    /* \"#utility.yul\":677:678   */\n  dup1\n    /* \"#utility.yul\":670:682   */\n  revert\n    /* \"#utility.yul\":621:684   */\ntag_23:\n    /* \"#utility.yul\":568:690   */\n  pop\n  jump\t// out\n    /* \"#utility.yul\":696:839   */\ntag_13:\n    /* \"#utility.yul\":753:758   */\n  0x00\n    /* \"#utility.yul\":784:790   */\n  dup2\n    /* \"#utility.yul\":778:791   */\n  mload\n    /* \"#utility.yul\":769:791   */\n  swap1\n  pop\n    /* \"#utility.yul\":800:833   */\n  tag_25\n    /* \"#utility.yul\":827:832   */\n  dup2\n    /* \"#utility.yul\":800:833   */\n  tag_12\n  jump\t// in\ntag_25:\n    /* \"#utility.yul\":696:839   */\n  swap3\n  swap2\n  pop\n  pop\n  jump\t// out\n    /* \"#utility.yul\":845:1196   */\ntag_3:\n    /* \"#utility.yul\":915:921   */\n  0x00\n    /* \"#utility.yul\":964:966   */\n  0x20\n    /* \"#utility.yul\":952:961   */\n  dup3\n    /* \"#utility.yul\":943:950   */\n  dup5\n    /* \"#utility.yul\":939:962   */\n  sub\n    /* \"#utility.yul\":935:967   */\n  slt\n    /* \"#utility.yul\":932:1051   */\n  iszero\n  tag_27\n  jumpi\n    /* \"#utility.yul\":970:1049   */\n  tag_28\n  tag_8\n  jump\t// in\ntag_28:\n    /* \"#utility.yul\":932:1051   */\ntag_27:\n    /* \"#utility.yul\":1090:1091   */\n  0x00\n    /* \"#utility.yul\":1115:1179   */\n  tag_29\n    /* \"#utility.yul\":1171:1178   */\n  dup5\n    /* \"#utility.yul\":1162:1168   */\n  dup3\n    /* \"#utility.yul\":1151:1160   */\n  dup6\n    /* \"#utility.yul\":1147:1169   */\n  add\n    /* \"#utility.yul\":1115:1179   */\n  tag_13\n  jump\t// in\ntag_29:\n    /* \"#utility.yul\":1105:1179   */\n  swap2\n  pop\n    /* \"#utility.yul\":1061:1189   */\n  pop\n    /* \"#utility.yul\":845:1196   */\n  swap3\n  swap2\n  pop\n  pop\n  jump\t// out\n    /* \"contracts/PrivateSale.sol\":130:3266  contract PrivateSale {... */\ntag_6:\n  dataSize(sub_0)\n  dup1\n  dataOffset(sub_0)\n  0x00\n  codecopy\n  0x00\n  return\nstop\n\nsub_0: assembly {\n        /* \"contracts/PrivateSale.sol\":130:3266  contract PrivateSale {... */\n      mstore(0x40, 0x80)\n      jumpi(tag_1, lt(calldatasize, 0x04))\n      shr(0xe0, calldataload(0x00))\n      dup1\n      0x6e947298\n      gt\n      tag_18\n      jumpi\n      dup1\n      0x9e281a98\n      gt\n      tag_19\n      jumpi\n      dup1\n      0x9e281a98\n      eq\n      tag_14\n      jumpi\n      dup1\n      0xcc1f2afa\n      eq\n      tag_15\n      jumpi\n      dup1\n      0xf32a914c\n      eq\n      tag_16\n      jumpi\n      dup1\n      0xfc0c546a\n      eq\n      tag_17\n      jumpi\n      jump(tag_2)\n    tag_19:\n      dup1\n      0x6e947298\n      eq\n      tag_10\n      jumpi\n      dup1\n      0x82b2e257\n      eq\n      tag_11\n      jumpi\n      dup1\n      0x8da5cb5b\n      eq\n      tag_12\n      jumpi\n      dup1\n      0x9106d7ba\n      eq\n      tag_13\n      jumpi\n      jump(tag_2)\n    tag_18:\n      dup1\n      0x42e94c90\n      gt\n      tag_20\n      jumpi\n      dup1\n      0x42e94c90\n      eq\n      tag_6\n      jumpi\n      dup1\n      0x4782f779\n      eq\n      tag_7\n      jumpi\n      dup1\n      0x48c54b9d\n      eq\n      tag_8\n      jumpi\n      dup1\n      0x68428a1b\n      eq\n      tag_9\n      jumpi\n      jump(tag_2)\n    tag_20:\n      dup1\n      0x20e9daf1\n      eq\n      tag_3\n      jumpi\n      dup1\n      0x3610724e\n      eq\n      tag_4\n      jumpi\n      dup1\n      0x380d831b\n      eq\n      tag_5\n      jumpi\n      jump(tag_2)\n    tag_1:\n      jumpi(tag_2, calldatasize)\n        /* \"contracts/PrivateSale.sol\":1073:1113  revert(\"Direct sending ETHs disallowed\") */\n      mload(0x40)\n      0x08c379a000000000000000000000000000000000000000000000000000000000\n      dup2\n      mstore\n      0x04\n      add\n      tag_23\n      swap1\n      tag_24\n      jump\t// in\n    tag_23:\n      mload(0x40)\n      dup1\n      swap2\n      sub\n      swap1\n      revert\n        /* \"contracts/PrivateSale.sol\":130:3266  contract PrivateSale {... */\n    tag_2:\n      0x00\n      dup1\n      revert\n        /* \"contracts/PrivateSale.sol\":427:468  mapping(uint256 => uint256) public limits */\n    tag_3:\n      callvalue\n      dup1\n      iszero\n      tag_25\n      jumpi\n      0x00\n      dup1\n      revert\n    tag_25:\n      pop\n      tag_26\n      0x04\n      dup1\n      calldatasize\n      sub\n      dup2\n      add\n      swap1\n      tag_27\n      swap2\n      swap1\n      tag_28\n      jump\t// in\n    tag_27:\n      tag_29\n      jump\t// in\n    tag_26:\n      mload(0x40)\n      tag_30\n      swap2\n      swap1\n      tag_31\n      jump\t// in\n    tag_30:\n      mload(0x40)\n      dup1\n      swap2\n      sub\n      swap1\n      return\n        /* \"contracts/PrivateSale.sol\":1126:1714  function buyTokens(uint256 tier) external payable {... */\n    tag_4:\n      tag_32\n      0x04\n      dup1\n      calldatasize\n      sub\n      dup2\n      add\n      swap1\n      tag_33\n      swap2\n      swap1\n      tag_28\n      jump\t// in\n    tag_33:\n      tag_34\n      jump\t// in\n    tag_32:\n      stop\n        /* \"contracts/PrivateSale.sol\":2805:2878  function endSale() external onlyOwner {... */\n    tag_5:\n      callvalue\n      dup1\n      iszero\n      tag_35\n      jumpi\n      0x00\n      dup1\n      revert\n    tag_35:\n      pop\n      tag_36\n      tag_37\n      jump\t// in\n    tag_36:\n      stop\n        /* \"contracts/PrivateSale.sol\":373:421  mapping(address => uint256) public contributions */\n    tag_6:\n      callvalue\n      dup1\n      iszero\n      tag_38\n      jumpi\n      0x00\n      dup1\n      revert\n    tag_38:\n      pop\n      tag_39\n      0x04\n      dup1\n      calldatasize\n      sub\n      dup2\n      add\n      swap1\n      tag_40\n      swap2\n      swap1\n      tag_41\n      jump\t// in\n    tag_40:\n      tag_42\n      jump\t// in\n    tag_39:\n      mload(0x40)\n      tag_43\n      swap2\n      swap1\n      tag_31\n      jump\t// in\n    tag_43:\n      mload(0x40)\n      dup1\n      swap2\n      sub\n      swap1\n      return\n        /* \"contracts/PrivateSale.sol\":2209:2498  function withdrawETH(address treasury, uint256 ethAmount) external onlyOwner {... */\n    tag_7:\n      callvalue\n      dup1\n      iszero\n      tag_44\n      jumpi\n      0x00\n      dup1\n      revert\n    tag_44:\n      pop\n      tag_45\n      0x04\n      dup1\n      calldatasize\n      sub\n      dup2\n      add\n      swap1\n      tag_46\n      swap2\n      swap1\n      tag_47\n      jump\t// in\n    tag_46:\n      tag_48\n      jump\t// in\n    tag_45:\n      stop\n        /* \"contracts/PrivateSale.sol\":1720:2203  function claimTokens() external {... */\n    tag_8:\n      callvalue\n      dup1\n      iszero\n      tag_49\n      jumpi\n      0x00\n      dup1\n      revert\n    tag_49:\n      pop\n      tag_50\n      tag_51\n      jump\t// in\n    tag_50:\n      stop\n        /* \"contracts/PrivateSale.sol\":315:337  bool public saleActive */\n    tag_9:\n      callvalue\n      dup1\n      iszero\n      tag_52\n      jumpi\n      0x00\n      dup1\n      revert\n    tag_52:\n      pop\n      tag_53\n      tag_54\n      jump\t// in\n    tag_53:\n      mload(0x40)\n      tag_55\n      swap2\n      swap1\n      tag_56\n      jump\t// in\n    tag_55:\n      mload(0x40)\n      dup1\n      swap2\n      sub\n      swap1\n      return\n        /* \"contracts/PrivateSale.sol\":2884:2986  function getETHBalance() external view returns (uint256) {... */\n    tag_10:\n      callvalue\n      dup1\n      iszero\n      tag_57\n      jumpi\n      0x00\n      dup1\n      revert\n    tag_57:\n      pop\n      tag_58\n      tag_59\n      jump\t// in\n    tag_58:\n      mload(0x40)\n      tag_60\n      swap2\n      swap1\n      tag_31\n      jump\t// in\n    tag_60:\n      mload(0x40)\n      dup1\n      swap2\n      sub\n      swap1\n      return\n        /* \"contracts/PrivateSale.sol\":2992:3105  function getTokenBalance() external view returns (uint256) {... */\n    tag_11:\n      callvalue\n      dup1\n      iszero\n      tag_61\n      jumpi\n      0x00\n      dup1\n      revert\n    tag_61:\n      pop\n      tag_62\n      tag_63\n      jump\t// in\n    tag_62:\n      mload(0x40)\n      tag_64\n      swap2\n      swap1\n      tag_31\n      jump\t// in\n    tag_64:\n      mload(0x40)\n      dup1\n      swap2\n      sub\n      swap1\n      return\n        /* \"contracts/PrivateSale.sol\":259:279  address public owner */\n    tag_12:\n      callvalue\n      dup1\n      iszero\n      tag_65\n      jumpi\n      0x00\n      dup1\n      revert\n    tag_65:\n      pop\n      tag_66\n      tag_67\n      jump\t// in\n    tag_66:\n      mload(0x40)\n      tag_68\n      swap2\n      swap1\n      tag_69\n      jump\t// in\n    tag_68:\n      mload(0x40)\n      dup1\n      swap2\n      sub\n      swap1\n      return\n        /* \"contracts/PrivateSale.sol\":285:309  uint256 public totalSold */\n    tag_13:\n      callvalue\n      dup1\n      iszero\n      tag_70\n      jumpi\n      0x00\n      dup1\n      revert\n    tag_70:\n      pop\n      tag_71\n      tag_72\n      jump\t// in\n    tag_71:\n      mload(0x40)\n      tag_73\n      swap2\n      swap1\n      tag_31\n      jump\t// in\n    tag_73:\n      mload(0x40)\n      dup1\n      swap2\n      sub\n      swap1\n      return\n        /* \"contracts/PrivateSale.sol\":2504:2799  function withdrawToken(address treasury, uint256 tokenAmount) external onlyOwner {... */\n    tag_14:\n      callvalue\n      dup1\n      iszero\n      tag_74\n      jumpi\n      0x00\n      dup1\n      revert\n    tag_74:\n      pop\n      tag_75\n      0x04\n      dup1\n      calldatasize\n      sub\n      dup2\n      add\n      swap1\n      tag_76\n      swap2\n      swap1\n      tag_47\n      jump\t// in\n    tag_76:\n      tag_77\n      jump\t// in\n    tag_75:\n      stop\n        /* \"contracts/PrivateSale.sol\":157:199  uint256 public constant TARGET = 500 ether */\n    tag_15:\n      callvalue\n      dup1\n      iszero\n      tag_78\n      jumpi\n      0x00\n      dup1\n      revert\n    tag_78:\n      pop\n      tag_79\n      tag_80\n      jump\t// in\n    tag_79:\n      mload(0x40)\n      tag_81\n      swap2\n      swap1\n      tag_31\n      jump\t// in\n    tag_81:\n      mload(0x40)\n      dup1\n      swap2\n      sub\n      swap1\n      return\n        /* \"contracts/PrivateSale.sol\":205:252  uint256 public constant MINI_AMOUNT = 0.1 ether */\n    tag_16:\n      callvalue\n      dup1\n      iszero\n      tag_82\n      jumpi\n      0x00\n      dup1\n      revert\n    tag_82:\n      pop\n      tag_83\n      tag_84\n      jump\t// in\n    tag_83:\n      mload(0x40)\n      tag_85\n      swap2\n      swap1\n      tag_31\n      jump\t// in\n    tag_85:\n      mload(0x40)\n      dup1\n      swap2\n      sub\n      swap1\n      return\n        /* \"contracts/PrivateSale.sol\":343:362  IERC20 public token */\n    tag_17:\n      callvalue\n      dup1\n      iszero\n      tag_86\n      jumpi\n      0x00\n      dup1\n      revert\n    tag_86:\n      pop\n      tag_87\n      tag_88\n      jump\t// in\n    tag_87:\n      mload(0x40)\n      tag_89\n      swap2\n      swap1\n      tag_90\n      jump\t// in\n    tag_89:\n      mload(0x40)\n      dup1\n      swap2\n      sub\n      swap1\n      return\n        /* \"contracts/PrivateSale.sol\":427:468  mapping(uint256 => uint256) public limits */\n    tag_29:\n      mstore(0x20, 0x04)\n      dup1\n      0x00\n      mstore\n      keccak256(0x00, 0x40)\n      0x00\n      swap2\n      pop\n      swap1\n      pop\n      sload\n      dup2\n      jump\t// out\n        /* \"contracts/PrivateSale.sol\":1126:1714  function buyTokens(uint256 tier) external payable {... */\n    tag_34:\n        /* \"contracts/PrivateSale.sol\":1194:1204  saleActive */\n      0x02\n      0x00\n      swap1\n      sload\n      swap1\n      0x0100\n      exp\n      swap1\n      div\n      0xff\n      and\n        /* \"contracts/PrivateSale.sol\":1186:1227  require(saleActive, \"Sale is not active\") */\n      tag_92\n      jumpi\n      mload(0x40)\n      0x08c379a000000000000000000000000000000000000000000000000000000000\n      dup2\n      mstore\n      0x04\n      add\n      tag_93\n      swap1\n      tag_94\n      jump\t// in\n    tag_93:\n      mload(0x40)\n      dup1\n      swap2\n      sub\n      swap1\n      revert\n    tag_92:\n        /* \"contracts/PrivateSale.sol\":1253:1254  1 */\n      0x01\n        /* \"contracts/PrivateSale.sol\":1245:1249  tier */\n      dup2\n        /* \"contracts/PrivateSale.sol\":1245:1254  tier >= 1 */\n      lt\n      iszero\n        /* \"contracts/PrivateSale.sol\":1245:1267  tier >= 1 && tier <= 4 */\n      dup1\n      iszero\n      tag_95\n      jumpi\n      pop\n        /* \"contracts/PrivateSale.sol\":1266:1267  4 */\n      0x04\n        /* \"contracts/PrivateSale.sol\":1258:1262  tier */\n      dup2\n        /* \"contracts/PrivateSale.sol\":1258:1267  tier <= 4 */\n      gt\n      iszero\n        /* \"contracts/PrivateSale.sol\":1245:1267  tier >= 1 && tier <= 4 */\n    tag_95:\n        /* \"contracts/PrivateSale.sol\":1237:1284  require(tier >= 1 && tier <= 4, \"Invalid tier\") */\n      tag_96\n      jumpi\n      mload(0x40)\n      0x08c379a000000000000000000000000000000000000000000000000000000000\n      dup2\n      mstore\n      0x04\n      add\n      tag_97\n      swap1\n      tag_98\n      jump\t// in\n    tag_97:\n      mload(0x40)\n      dup1\n      swap2\n      sub\n      swap1\n      revert\n    tag_96:\n        /* \"contracts/PrivateSale.sol\":243:252  0.1 ether */\n      0x016345785d8a0000\n        /* \"contracts/PrivateSale.sol\":1302:1311  msg.value */\n      callvalue\n        /* \"contracts/PrivateSale.sol\":1302:1326  msg.value >= MINI_AMOUNT */\n      lt\n      iszero\n        /* \"contracts/PrivateSale.sol\":1294:1361  require(msg.value >= MINI_AMOUNT, \"Must exceed the minimum amount\") */\n      tag_99\n      jumpi\n      mload(0x40)\n      0x08c379a000000000000000000000000000000000000000000000000000000000\n      dup2\n      mstore\n      0x04\n      add\n      tag_100\n      swap1\n      tag_101\n      jump\t// in\n    tag_100:\n      mload(0x40)\n      dup1\n      swap2\n      sub\n      swap1\n      revert\n    tag_99:\n        /* \"contracts/PrivateSale.sol\":1392:1398  limits */\n      0x04\n        /* \"contracts/PrivateSale.sol\":1392:1404  limits[tier] */\n      0x00\n        /* \"contracts/PrivateSale.sol\":1399:1403  tier */\n      dup3\n        /* \"contracts/PrivateSale.sol\":1392:1404  limits[tier] */\n      dup2\n      mstore\n      0x20\n      add\n      swap1\n      dup2\n      mstore\n      0x20\n      add\n      0x00\n      keccak256\n      sload\n        /* \"contracts/PrivateSale.sol\":1379:1388  msg.value */\n      callvalue\n        /* \"contracts/PrivateSale.sol\":1379:1404  msg.value <= limits[tier] */\n      gt\n      iszero\n        /* \"contracts/PrivateSale.sol\":1371:1427  require(msg.value <= limits[tier], \"Exceeds tier limit\") */\n      tag_102\n      jumpi\n      mload(0x40)\n      0x08c379a000000000000000000000000000000000000000000000000000000000\n      dup2\n      mstore\n      0x04\n      add\n      tag_103\n      swap1\n      tag_104\n      jump\t// in\n    tag_103:\n      mload(0x40)\n      dup1\n      swap2\n      sub\n      swap1\n      revert\n    tag_102:\n        /* \"contracts/PrivateSale.sol\":1457:1463  limits */\n      0x04\n        /* \"contracts/PrivateSale.sol\":1457:1472  limits[tier -1] */\n      0x00\n        /* \"contracts/PrivateSale.sol\":1470:1471  1 */\n      0x01\n        /* \"contracts/PrivateSale.sol\":1464:1468  tier */\n      dup4\n        /* \"contracts/PrivateSale.sol\":1464:1471  tier -1 */\n      tag_105\n      swap2\n      swap1\n      tag_106\n      jump\t// in\n    tag_105:\n        /* \"contracts/PrivateSale.sol\":1457:1472  limits[tier -1] */\n      dup2\n      mstore\n      0x20\n      add\n      swap1\n      dup2\n      mstore\n      0x20\n      add\n      0x00\n      keccak256\n      sload\n        /* \"contracts/PrivateSale.sol\":1445:1454  msg.value */\n      callvalue\n        /* \"contracts/PrivateSale.sol\":1445:1472  msg.value > limits[tier -1] */\n      gt\n        /* \"contracts/PrivateSale.sol\":1437:1506  require(msg.value > limits[tier -1], \"Should greater than last tier\") */\n      tag_107\n      jumpi\n      mload(0x40)\n      0x08c379a000000000000000000000000000000000000000000000000000000000\n      dup2\n      mstore\n      0x04\n      add\n      tag_108\n      swap1\n      tag_109\n      jump\t// in\n    tag_108:\n      mload(0x40)\n      dup1\n      swap2\n      sub\n      swap1\n      revert\n    tag_107:\n        /* \"contracts/PrivateSale.sol\":190:199  500 ether */\n      0x1b1ae4d6e2ef500000\n        /* \"contracts/PrivateSale.sol\":1536:1545  msg.value */\n      callvalue\n        /* \"contracts/PrivateSale.sol\":1524:1533  totalSold */\n      sload(0x01)\n        /* \"contracts/PrivateSale.sol\":1524:1545  totalSold + msg.value */\n      tag_110\n      swap2\n      swap1\n      tag_111\n      jump\t// in\n    tag_110:\n        /* \"contracts/PrivateSale.sol\":1524:1555  totalSold + msg.value <= TARGET */\n      gt\n      iszero\n        /* \"contracts/PrivateSale.sol\":1516:1574  require(totalSold + msg.value <= TARGET, \"Exceeds target\") */\n      tag_112\n      jumpi\n      mload(0x40)\n      0x08c379a000000000000000000000000000000000000000000000000000000000\n      dup2\n      mstore\n      0x04\n      add\n      tag_113\n      swap1\n      tag_114\n      jump\t// in\n    tag_113:\n      mload(0x40)\n      dup1\n      swap2\n      sub\n      swap1\n      revert\n    tag_112:\n        /* \"contracts/PrivateSale.sol\":1613:1622  msg.value */\n      callvalue\n        /* \"contracts/PrivateSale.sol\":1584:1597  contributions */\n      0x03\n        /* \"contracts/PrivateSale.sol\":1584:1609  contributions[msg.sender] */\n      0x00\n        /* \"contracts/PrivateSale.sol\":1598:1608  msg.sender */\n      caller\n        /* \"contracts/PrivateSale.sol\":1584:1609  contributions[msg.sender] */\n      0xffffffffffffffffffffffffffffffffffffffff\n      and\n      0xffffffffffffffffffffffffffffffffffffffff\n      and\n      dup2\n      mstore\n      0x20\n      add\n      swap1\n      dup2\n      mstore\n      0x20\n      add\n      0x00\n      keccak256\n      0x00\n        /* \"contracts/PrivateSale.sol\":1584:1622  contributions[msg.sender] += msg.value */\n      dup3\n      dup3\n      sload\n      tag_115\n      swap2\n      swap1\n      tag_111\n      jump\t// in\n    tag_115:\n      swap3\n      pop\n      pop\n      dup2\n      swap1\n      sstore\n      pop\n        /* \"contracts/PrivateSale.sol\":1645:1654  msg.value */\n      callvalue\n        /* \"contracts/PrivateSale.sol\":1632:1641  totalSold */\n      0x01\n      0x00\n        /* \"contracts/PrivateSale.sol\":1632:1654  totalSold += msg.value */\n      dup3\n      dup3\n      sload\n      tag_116\n      swap2\n      swap1\n      tag_111\n      jump\t// in\n    tag_116:\n      swap3\n      pop\n      pop\n      dup2\n      swap1\n      sstore\n      pop\n        /* \"contracts/PrivateSale.sol\":1685:1695  msg.sender */\n      caller\n        /* \"contracts/PrivateSale.sol\":1669:1707  TokensPurchased(msg.sender, msg.value) */\n      0xffffffffffffffffffffffffffffffffffffffff\n      and\n      0x8f28852646c20cc973d3a8218f7eefed58c25c909f78f0265af4818c3d4dc271\n        /* \"contracts/PrivateSale.sol\":1697:1706  msg.value */\n      callvalue\n        /* \"contracts/PrivateSale.sol\":1669:1707  TokensPurchased(msg.sender, msg.value) */\n      mload(0x40)\n      tag_117\n      swap2\n      swap1\n      tag_31\n      jump\t// in\n    tag_117:\n      mload(0x40)\n      dup1\n      swap2\n      sub\n      swap1\n      log2\n        /* \"contracts/PrivateSale.sol\":1126:1714  function buyTokens(uint256 tier) external payable {... */\n      pop\n      jump\t// out\n        /* \"contracts/PrivateSale.sol\":2805:2878  function endSale() external onlyOwner {... */\n    tag_37:\n        /* \"contracts/PrivateSale.sol\":661:666  owner */\n      0x00\n      dup1\n      sload\n      swap1\n      0x0100\n      exp\n      swap1\n      div\n      0xffffffffffffffffffffffffffffffffffffffff\n      and\n        /* \"contracts/PrivateSale.sol\":647:666  msg.sender == owner */\n      0xffffffffffffffffffffffffffffffffffffffff\n      and\n        /* \"contracts/PrivateSale.sol\":647:657  msg.sender */\n      caller\n        /* \"contracts/PrivateSale.sol\":647:666  msg.sender == owner */\n      0xffffffffffffffffffffffffffffffffffffffff\n      and\n      eq\n        /* \"contracts/PrivateSale.sol\":639:680  require(msg.sender == owner, \"Not owner\") */\n      tag_119\n      jumpi\n      mload(0x40)\n      0x08c379a000000000000000000000000000000000000000000000000000000000\n      dup2\n      mstore\n      0x04\n      add\n      tag_120\n      swap1\n      tag_121\n      jump\t// in\n    tag_120:\n      mload(0x40)\n      dup1\n      swap2\n      sub\n      swap1\n      revert\n    tag_119:\n        /* \"contracts/PrivateSale.sol\":2866:2871  false */\n      0x00\n        /* \"contracts/PrivateSale.sol\":2853:2863  saleActive */\n      0x02\n      0x00\n        /* \"contracts/PrivateSale.sol\":2853:2871  saleActive = false */\n      0x0100\n      exp\n      dup2\n      sload\n      dup2\n      0xff\n      mul\n      not\n      and\n      swap1\n      dup4\n      iszero\n      iszero\n      mul\n      or\n      swap1\n      sstore\n      pop\n        /* \"contracts/PrivateSale.sol\":2805:2878  function endSale() external onlyOwner {... */\n      jump\t// out\n        /* \"contracts/PrivateSale.sol\":373:421  mapping(address => uint256) public contributions */\n    tag_42:\n      mstore(0x20, 0x03)\n      dup1\n      0x00\n      mstore\n      keccak256(0x00, 0x40)\n      0x00\n      swap2\n      pop\n      swap1\n      pop\n      sload\n      dup2\n      jump\t// out\n        /* \"contracts/PrivateSale.sol\":2209:2498  function withdrawETH(address treasury, uint256 ethAmount) external onlyOwner {... */\n    tag_48:\n        /* \"contracts/PrivateSale.sol\":661:666  owner */\n      0x00\n      dup1\n      sload\n      swap1\n      0x0100\n      exp\n      swap1\n      div\n      0xffffffffffffffffffffffffffffffffffffffff\n      and\n        /* \"contracts/PrivateSale.sol\":647:666  msg.sender == owner */\n      0xffffffffffffffffffffffffffffffffffffffff\n      and\n        /* \"contracts/PrivateSale.sol\":647:657  msg.sender */\n      caller\n        /* \"contracts/PrivateSale.sol\":647:666  msg.sender == owner */\n      0xffffffffffffffffffffffffffffffffffffffff\n      and\n      eq\n        /* \"contracts/PrivateSale.sol\":639:680  require(msg.sender == owner, \"Not owner\") */\n      tag_124\n      jumpi\n      mload(0x40)\n      0x08c379a000000000000000000000000000000000000000000000000000000000\n      dup2\n      mstore\n      0x04\n      add\n      tag_125\n      swap1\n      tag_121\n      jump\t// in\n    tag_125:\n      mload(0x40)\n      dup1\n      swap2\n      sub\n      swap1\n      revert\n    tag_124:\n        /* \"contracts/PrivateSale.sol\":2329:2338  ethAmount */\n      dup1\n        /* \"contracts/PrivateSale.sol\":2304:2325  address(this).balance */\n      selfbalance\n        /* \"contracts/PrivateSale.sol\":2304:2338  address(this).balance >= ethAmount */\n      lt\n      iszero\n        /* \"contracts/PrivateSale.sol\":2296:2363  require(address(this).balance >= ethAmount, \"Insufficient balance\") */\n      tag_127\n      jumpi\n      mload(0x40)\n      0x08c379a000000000000000000000000000000000000000000000000000000000\n      dup2\n      mstore\n      0x04\n      add\n      tag_128\n      swap1\n      tag_129\n      jump\t// in\n    tag_128:\n      mload(0x40)\n      dup1\n      swap2\n      sub\n      swap1\n      revert\n    tag_127:\n        /* \"contracts/PrivateSale.sol\":2374:2386  bool success */\n      0x00\n        /* \"contracts/PrivateSale.sol\":2400:2408  treasury */\n      dup3\n        /* \"contracts/PrivateSale.sol\":2392:2414  payable(treasury).call */\n      0xffffffffffffffffffffffffffffffffffffffff\n      and\n        /* \"contracts/PrivateSale.sol\":2422:2431  ethAmount */\n      dup3\n        /* \"contracts/PrivateSale.sol\":2392:2436  payable(treasury).call{value: ethAmount}(\"\") */\n      mload(0x40)\n      tag_130\n      swap1\n      tag_131\n      jump\t// in\n    tag_130:\n      0x00\n      mload(0x40)\n      dup1\n      dup4\n      sub\n      dup2\n      dup6\n      dup8\n      gas\n      call\n      swap3\n      pop\n      pop\n      pop\n      returndatasize\n      dup1\n      0x00\n      dup2\n      eq\n      tag_134\n      jumpi\n      mload(0x40)\n      swap2\n      pop\n      and(add(returndatasize, 0x3f), not(0x1f))\n      dup3\n      add\n      0x40\n      mstore\n      returndatasize\n      dup3\n      mstore\n      returndatasize\n      0x00\n      0x20\n      dup5\n      add\n      returndatacopy\n      jump(tag_133)\n    tag_134:\n      0x60\n      swap2\n      pop\n    tag_133:\n      pop\n        /* \"contracts/PrivateSale.sol\":2373:2436  (bool success, ) = payable(treasury).call{value: ethAmount}(\"\") */\n      pop\n      swap1\n      pop\n        /* \"contracts/PrivateSale.sol\":2454:2461  success */\n      dup1\n        /* \"contracts/PrivateSale.sol\":2446:2491  require(success, \"Payment is not successful\") */\n      tag_135\n      jumpi\n      mload(0x40)\n      0x08c379a000000000000000000000000000000000000000000000000000000000\n      dup2\n      mstore\n      0x04\n      add\n      tag_136\n      swap1\n      tag_137\n      jump\t// in\n    tag_136:\n      mload(0x40)\n      dup1\n      swap2\n      sub\n      swap1\n      revert\n    tag_135:\n        /* \"contracts/PrivateSale.sol\":2286:2498  {... */\n      pop\n        /* \"contracts/PrivateSale.sol\":2209:2498  function withdrawETH(address treasury, uint256 ethAmount) external onlyOwner {... */\n      pop\n      pop\n      jump\t// out\n        /* \"contracts/PrivateSale.sol\":1720:2203  function claimTokens() external {... */\n    tag_51:\n        /* \"contracts/PrivateSale.sol\":1762:1782  uint256 contribution */\n      0x00\n        /* \"contracts/PrivateSale.sol\":1785:1798  contributions */\n      0x03\n        /* \"contracts/PrivateSale.sol\":1785:1810  contributions[msg.sender] */\n      0x00\n        /* \"contracts/PrivateSale.sol\":1799:1809  msg.sender */\n      caller\n        /* \"contracts/PrivateSale.sol\":1785:1810  contributions[msg.sender] */\n      0xffffffffffffffffffffffffffffffffffffffff\n      and\n      0xffffffffffffffffffffffffffffffffffffffff\n      and\n      dup2\n      mstore\n      0x20\n      add\n      swap1\n      dup2\n      mstore\n      0x20\n      add\n      0x00\n      keccak256\n      sload\n        /* \"contracts/PrivateSale.sol\":1762:1810  uint256 contribution = contributions[msg.sender] */\n      swap1\n      pop\n        /* \"contracts/PrivateSale.sol\":1843:1844  0 */\n      0x00\n        /* \"contracts/PrivateSale.sol\":1828:1840  contribution */\n      dup2\n        /* \"contracts/PrivateSale.sol\":1828:1844  contribution > 0 */\n      gt\n        /* \"contracts/PrivateSale.sol\":1820:1865  require(contribution > 0, \"No contributions\") */\n      tag_139\n      jumpi\n      mload(0x40)\n      0x08c379a000000000000000000000000000000000000000000000000000000000\n      dup2\n      mstore\n      0x04\n      add\n      tag_140\n      swap1\n      tag_141\n      jump\t// in\n    tag_140:\n      mload(0x40)\n      dup1\n      swap2\n      sub\n      swap1\n      revert\n    tag_139:\n        /* \"contracts/PrivateSale.sol\":1884:1894  saleActive */\n      0x02\n      0x00\n      swap1\n      sload\n      swap1\n      0x0100\n      exp\n      swap1\n      div\n      0xff\n      and\n        /* \"contracts/PrivateSale.sol\":1883:1894  !saleActive */\n      iszero\n        /* \"contracts/PrivateSale.sol\":1875:1919  require(!saleActive, \"Sale is still active\") */\n      tag_142\n      jumpi\n      mload(0x40)\n      0x08c379a000000000000000000000000000000000000000000000000000000000\n      dup2\n      mstore\n      0x04\n      add\n      tag_143\n      swap1\n      tag_144\n      jump\t// in\n    tag_143:\n      mload(0x40)\n      dup1\n      swap2\n      sub\n      swap1\n      revert\n    tag_142:\n        /* \"contracts/PrivateSale.sol\":1938:1957  uint256 tokenAmount */\n      0x00\n        /* \"contracts/PrivateSale.sol\":1960:1989  _getTokenAmount(contribution) */\n      tag_145\n        /* \"contracts/PrivateSale.sol\":1976:1988  contribution */\n      dup3\n        /* \"contracts/PrivateSale.sol\":1960:1975  _getTokenAmount */\n      tag_146\n        /* \"contracts/PrivateSale.sol\":1960:1989  _getTokenAmount(contribution) */\n      jump\t// in\n    tag_145:\n        /* \"contracts/PrivateSale.sol\":1938:1989  uint256 tokenAmount = _getTokenAmount(contribution) */\n      swap1\n      pop\n        /* \"contracts/PrivateSale.sol\":2027:2028  0 */\n      0x00\n        /* \"contracts/PrivateSale.sol\":1999:2012  contributions */\n      0x03\n        /* \"contracts/PrivateSale.sol\":1999:2024  contributions[msg.sender] */\n      0x00\n        /* \"contracts/PrivateSale.sol\":2013:2023  msg.sender */\n      caller\n        /* \"contracts/PrivateSale.sol\":1999:2024  contributions[msg.sender] */\n      0xffffffffffffffffffffffffffffffffffffffff\n      and\n      0xffffffffffffffffffffffffffffffffffffffff\n      and\n      dup2\n      mstore\n      0x20\n      add\n      swap1\n      dup2\n      mstore\n      0x20\n      add\n      0x00\n      keccak256\n        /* \"contracts/PrivateSale.sol\":1999:2028  contributions[msg.sender] = 0 */\n      dup2\n      swap1\n      sstore\n      pop\n        /* \"contracts/PrivateSale.sol\":2038:2050  bool success */\n      0x00\n        /* \"contracts/PrivateSale.sol\":2053:2058  token */\n      0x02\n      0x01\n      swap1\n      sload\n      swap1\n      0x0100\n      exp\n      swap1\n      div\n      0xffffffffffffffffffffffffffffffffffffffff\n      and\n        /* \"contracts/PrivateSale.sol\":2053:2067  token.transfer */\n      0xffffffffffffffffffffffffffffffffffffffff\n      and\n      0xa9059cbb\n        /* \"contracts/PrivateSale.sol\":2068:2078  msg.sender */\n      caller\n        /* \"contracts/PrivateSale.sol\":2080:2091  tokenAmount */\n      dup5\n        /* \"contracts/PrivateSale.sol\":2053:2092  token.transfer(msg.sender, tokenAmount) */\n      mload(0x40)\n      dup4\n      0xffffffff\n      and\n      0xe0\n      shl\n      dup2\n      mstore\n      0x04\n      add\n      tag_147\n      swap3\n      swap2\n      swap1\n      tag_148\n      jump\t// in\n    tag_147:\n      0x20\n      mload(0x40)\n      dup1\n      dup4\n      sub\n      dup2\n      0x00\n      dup8\n      gas\n      call\n      iszero\n      dup1\n      iszero\n      tag_150\n      jumpi\n      returndatasize\n      0x00\n      dup1\n      returndatacopy\n      revert(0x00, returndatasize)\n    tag_150:\n      pop\n      pop\n      pop\n      pop\n      mload(0x40)\n      returndatasize\n      not(0x1f)\n      0x1f\n      dup3\n      add\n      and\n      dup3\n      add\n      dup1\n      0x40\n      mstore\n      pop\n      dup2\n      add\n      swap1\n      tag_151\n      swap2\n      swap1\n      tag_152\n      jump\t// in\n    tag_151:\n        /* \"contracts/PrivateSale.sol\":2038:2092  bool success = token.transfer(msg.sender, tokenAmount) */\n      swap1\n      pop\n        /* \"contracts/PrivateSale.sol\":2110:2117  success */\n      dup1\n        /* \"contracts/PrivateSale.sol\":2102:2143  require(success, \"Token transfer failed\") */\n      tag_153\n      jumpi\n      mload(0x40)\n      0x08c379a000000000000000000000000000000000000000000000000000000000\n      dup2\n      mstore\n      0x04\n      add\n      tag_154\n      swap1\n      tag_155\n      jump\t// in\n    tag_154:\n      mload(0x40)\n      dup1\n      swap2\n      sub\n      swap1\n      revert\n    tag_153:\n        /* \"contracts/PrivateSale.sol\":2172:2182  msg.sender */\n      caller\n        /* \"contracts/PrivateSale.sol\":2158:2196  TokensClaimed(msg.sender, tokenAmount) */\n      0xffffffffffffffffffffffffffffffffffffffff\n      and\n      0x896e034966eaaf1adc54acc0f257056febbd300c9e47182cf761982cf1f5e430\n        /* \"contracts/PrivateSale.sol\":2184:2195  tokenAmount */\n      dup4\n        /* \"contracts/PrivateSale.sol\":2158:2196  TokensClaimed(msg.sender, tokenAmount) */\n      mload(0x40)\n      tag_156\n      swap2\n      swap1\n      tag_31\n      jump\t// in\n    tag_156:\n      mload(0x40)\n      dup1\n      swap2\n      sub\n      swap1\n      log2\n        /* \"contracts/PrivateSale.sol\":1752:2203  {... */\n      pop\n      pop\n      pop\n        /* \"contracts/PrivateSale.sol\":1720:2203  function claimTokens() external {... */\n      jump\t// out\n        /* \"contracts/PrivateSale.sol\":315:337  bool public saleActive */\n    tag_54:\n      0x02\n      0x00\n      swap1\n      sload\n      swap1\n      0x0100\n      exp\n      swap1\n      div\n      0xff\n      and\n      dup2\n      jump\t// out\n        /* \"contracts/PrivateSale.sol\":2884:2986  function getETHBalance() external view returns (uint256) {... */\n    tag_59:\n        /* \"contracts/PrivateSale.sol\":2932:2939  uint256 */\n      0x00\n        /* \"contracts/PrivateSale.sol\":2958:2979  address(this).balance */\n      selfbalance\n        /* \"contracts/PrivateSale.sol\":2951:2979  return address(this).balance */\n      swap1\n      pop\n        /* \"contracts/PrivateSale.sol\":2884:2986  function getETHBalance() external view returns (uint256) {... */\n      swap1\n      jump\t// out\n        /* \"contracts/PrivateSale.sol\":2992:3105  function getTokenBalance() external view returns (uint256) {... */\n    tag_63:\n        /* \"contracts/PrivateSale.sol\":3042:3049  uint256 */\n      0x00\n        /* \"contracts/PrivateSale.sol\":3068:3073  token */\n      0x02\n      0x01\n      swap1\n      sload\n      swap1\n      0x0100\n      exp\n      swap1\n      div\n      0xffffffffffffffffffffffffffffffffffffffff\n      and\n        /* \"contracts/PrivateSale.sol\":3068:3083  token.balanceOf */\n      0xffffffffffffffffffffffffffffffffffffffff\n      and\n      0x70a08231\n        /* \"contracts/PrivateSale.sol\":3092:3096  this */\n      address\n        /* \"contracts/PrivateSale.sol\":3068:3098  token.balanceOf(address(this)) */\n      mload(0x40)\n      dup3\n      0xffffffff\n      and\n      0xe0\n      shl\n      dup2\n      mstore\n      0x04\n      add\n      tag_159\n      swap2\n      swap1\n      tag_69\n      jump\t// in\n    tag_159:\n      0x20\n      mload(0x40)\n      dup1\n      dup4\n      sub\n      dup2\n      dup7\n      gas\n      staticcall\n      iszero\n      dup1\n      iszero\n      tag_161\n      jumpi\n      returndatasize\n      0x00\n      dup1\n      returndatacopy\n      revert(0x00, returndatasize)\n    tag_161:\n      pop\n      pop\n      pop\n      pop\n      mload(0x40)\n      returndatasize\n      not(0x1f)\n      0x1f\n      dup3\n      add\n      and\n      dup3\n      add\n      dup1\n      0x40\n      mstore\n      pop\n      dup2\n      add\n      swap1\n      tag_162\n      swap2\n      swap1\n      tag_163\n      jump\t// in\n    tag_162:\n        /* \"contracts/PrivateSale.sol\":3061:3098  return token.balanceOf(address(this)) */\n      swap1\n      pop\n        /* \"contracts/PrivateSale.sol\":2992:3105  function getTokenBalance() external view returns (uint256) {... */\n      swap1\n      jump\t// out\n        /* \"contracts/PrivateSale.sol\":259:279  address public owner */\n    tag_67:\n      0x00\n      dup1\n      sload\n      swap1\n      0x0100\n      exp\n      swap1\n      div\n      0xffffffffffffffffffffffffffffffffffffffff\n      and\n      dup2\n      jump\t// out\n        /* \"contracts/PrivateSale.sol\":285:309  uint256 public totalSold */\n    tag_72:\n      sload(0x01)\n      dup2\n      jump\t// out\n        /* \"contracts/PrivateSale.sol\":2504:2799  function withdrawToken(address treasury, uint256 tokenAmount) external onlyOwner {... */\n    tag_77:\n        /* \"contracts/PrivateSale.sol\":661:666  owner */\n      0x00\n      dup1\n      sload\n      swap1\n      0x0100\n      exp\n      swap1\n      div\n      0xffffffffffffffffffffffffffffffffffffffff\n      and\n        /* \"contracts/PrivateSale.sol\":647:666  msg.sender == owner */\n      0xffffffffffffffffffffffffffffffffffffffff\n      and\n        /* \"contracts/PrivateSale.sol\":647:657  msg.sender */\n      caller\n        /* \"contracts/PrivateSale.sol\":647:666  msg.sender == owner */\n      0xffffffffffffffffffffffffffffffffffffffff\n      and\n      eq\n        /* \"contracts/PrivateSale.sol\":639:680  require(msg.sender == owner, \"Not owner\") */\n      tag_165\n      jumpi\n      mload(0x40)\n      0x08c379a000000000000000000000000000000000000000000000000000000000\n      dup2\n      mstore\n      0x04\n      add\n      tag_166\n      swap1\n      tag_121\n      jump\t// in\n    tag_166:\n      mload(0x40)\n      dup1\n      swap2\n      sub\n      swap1\n      revert\n    tag_165:\n        /* \"contracts/PrivateSale.sol\":2637:2648  tokenAmount */\n      dup1\n        /* \"contracts/PrivateSale.sol\":2603:2608  token */\n      0x02\n      0x01\n      swap1\n      sload\n      swap1\n      0x0100\n      exp\n      swap1\n      div\n      0xffffffffffffffffffffffffffffffffffffffff\n      and\n        /* \"contracts/PrivateSale.sol\":2603:2618  token.balanceOf */\n      0xffffffffffffffffffffffffffffffffffffffff\n      and\n      0x70a08231\n        /* \"contracts/PrivateSale.sol\":2627:2631  this */\n      address\n        /* \"contracts/PrivateSale.sol\":2603:2633  token.balanceOf(address(this)) */\n      mload(0x40)\n      dup3\n      0xffffffff\n      and\n      0xe0\n      shl\n      dup2\n      mstore\n      0x04\n      add\n      tag_168\n      swap2\n      swap1\n      tag_69\n      jump\t// in\n    tag_168:\n      0x20\n      mload(0x40)\n      dup1\n      dup4\n      sub\n      dup2\n      dup7\n      gas\n      staticcall\n      iszero\n      dup1\n      iszero\n      tag_170\n      jumpi\n      returndatasize\n      0x00\n      dup1\n      returndatacopy\n      revert(0x00, returndatasize)\n    tag_170:\n      pop\n      pop\n      pop\n      pop\n      mload(0x40)\n      returndatasize\n      not(0x1f)\n      0x1f\n      dup3\n      add\n      and\n      dup3\n      add\n      dup1\n      0x40\n      mstore\n      pop\n      dup2\n      add\n      swap1\n      tag_171\n      swap2\n      swap1\n      tag_163\n      jump\t// in\n    tag_171:\n        /* \"contracts/PrivateSale.sol\":2603:2648  token.balanceOf(address(this)) >= tokenAmount */\n      lt\n      iszero\n        /* \"contracts/PrivateSale.sol\":2595:2679  require(token.balanceOf(address(this)) >= tokenAmount, \"Insufficient token balance\") */\n      tag_172\n      jumpi\n      mload(0x40)\n      0x08c379a000000000000000000000000000000000000000000000000000000000\n      dup2\n      mstore\n      0x04\n      add\n      tag_173\n      swap1\n      tag_174\n      jump\t// in\n    tag_173:\n      mload(0x40)\n      dup1\n      swap2\n      sub\n      swap1\n      revert\n    tag_172:\n        /* \"contracts/PrivateSale.sol\":2689:2701  bool success */\n      0x00\n        /* \"contracts/PrivateSale.sol\":2704:2709  token */\n      0x02\n      0x01\n      swap1\n      sload\n      swap1\n      0x0100\n      exp\n      swap1\n      div\n      0xffffffffffffffffffffffffffffffffffffffff\n      and\n        /* \"contracts/PrivateSale.sol\":2704:2718  token.transfer */\n      0xffffffffffffffffffffffffffffffffffffffff\n      and\n      0xa9059cbb\n        /* \"contracts/PrivateSale.sol\":2719:2727  treasury */\n      dup5\n        /* \"contracts/PrivateSale.sol\":2729:2740  tokenAmount */\n      dup5\n        /* \"contracts/PrivateSale.sol\":2704:2741  token.transfer(treasury, tokenAmount) */\n      mload(0x40)\n      dup4\n      0xffffffff\n      and\n      0xe0\n      shl\n      dup2\n      mstore\n      0x04\n      add\n      tag_175\n      swap3\n      swap2\n      swap1\n      tag_148\n      jump\t// in\n    tag_175:\n      0x20\n      mload(0x40)\n      dup1\n      dup4\n      sub\n      dup2\n      0x00\n      dup8\n      gas\n      call\n      iszero\n      dup1\n      iszero\n      tag_177\n      jumpi\n      returndatasize\n      0x00\n      dup1\n      returndatacopy\n      revert(0x00, returndatasize)\n    tag_177:\n      pop\n      pop\n      pop\n      pop\n      mload(0x40)\n      returndatasize\n      not(0x1f)\n      0x1f\n      dup3\n      add\n      and\n      dup3\n      add\n      dup1\n      0x40\n      mstore\n      pop\n      dup2\n      add\n      swap1\n      tag_178\n      swap2\n      swap1\n      tag_152\n      jump\t// in\n    tag_178:\n        /* \"contracts/PrivateSale.sol\":2689:2741  bool success = token.transfer(treasury, tokenAmount) */\n      swap1\n      pop\n        /* \"contracts/PrivateSale.sol\":2759:2766  success */\n      dup1\n        /* \"contracts/PrivateSale.sol\":2751:2792  require(success, \"Token transfer failed\") */\n      tag_179\n      jumpi\n      mload(0x40)\n      0x08c379a000000000000000000000000000000000000000000000000000000000\n      dup2\n      mstore\n      0x04\n      add\n      tag_180\n      swap1\n      tag_155\n      jump\t// in\n    tag_180:\n      mload(0x40)\n      dup1\n      swap2\n      sub\n      swap1\n      revert\n    tag_179:\n        /* \"contracts/PrivateSale.sol\":2585:2799  {... */\n      pop\n        /* \"contracts/PrivateSale.sol\":2504:2799  function withdrawToken(address treasury, uint256 tokenAmount) external onlyOwner {... */\n      pop\n      pop\n      jump\t// out\n        /* \"contracts/PrivateSale.sol\":157:199  uint256 public constant TARGET = 500 ether */\n    tag_80:\n        /* \"contracts/PrivateSale.sol\":190:199  500 ether */\n      0x1b1ae4d6e2ef500000\n        /* \"contracts/PrivateSale.sol\":157:199  uint256 public constant TARGET = 500 ether */\n      dup2\n      jump\t// out\n        /* \"contracts/PrivateSale.sol\":205:252  uint256 public constant MINI_AMOUNT = 0.1 ether */\n    tag_84:\n        /* \"contracts/PrivateSale.sol\":243:252  0.1 ether */\n      0x016345785d8a0000\n        /* \"contracts/PrivateSale.sol\":205:252  uint256 public constant MINI_AMOUNT = 0.1 ether */\n      dup2\n      jump\t// out\n        /* \"contracts/PrivateSale.sol\":343:362  IERC20 public token */\n    tag_88:\n      0x02\n      0x01\n      swap1\n      sload\n      swap1\n      0x0100\n      exp\n      swap1\n      div\n      0xffffffffffffffffffffffffffffffffffffffff\n      and\n      dup2\n      jump\t// out\n        /* \"contracts/PrivateSale.sol\":3111:3264  function _getTokenAmount(uint256 contribution) internal pure returns (uint256) {... */\n    tag_146:\n        /* \"contracts/PrivateSale.sol\":3181:3188  uint256 */\n      0x00\n        /* \"contracts/PrivateSale.sol\":3222:3226  1000 */\n      0x03e8\n        /* \"contracts/PrivateSale.sol\":3207:3219  contribution */\n      dup3\n        /* \"contracts/PrivateSale.sol\":3207:3226  contribution * 1000 */\n      tag_182\n      swap2\n      swap1\n      tag_183\n      jump\t// in\n    tag_182:\n        /* \"contracts/PrivateSale.sol\":3200:3226  return contribution * 1000 */\n      swap1\n      pop\n        /* \"contracts/PrivateSale.sol\":3111:3264  function _getTokenAmount(uint256 contribution) internal pure returns (uint256) {... */\n      swap2\n      swap1\n      pop\n      jump\t// out\n        /* \"#utility.yul\":7:176   */\n    tag_184:\n        /* \"#utility.yul\":91:102   */\n      0x00\n        /* \"#utility.yul\":125:131   */\n      dup3\n        /* \"#utility.yul\":120:123   */\n      dup3\n        /* \"#utility.yul\":113:132   */\n      mstore\n        /* \"#utility.yul\":165:169   */\n      0x20\n        /* \"#utility.yul\":160:163   */\n      dup3\n        /* \"#utility.yul\":156:170   */\n      add\n        /* \"#utility.yul\":141:170   */\n      swap1\n      pop\n        /* \"#utility.yul\":7:176   */\n      swap3\n      swap2\n      pop\n      pop\n      jump\t// out\n        /* \"#utility.yul\":182:362   */\n    tag_185:\n        /* \"#utility.yul\":322:354   */\n      0x4469726563742073656e64696e67204554487320646973616c6c6f7765640000\n        /* \"#utility.yul\":318:319   */\n      0x00\n        /* \"#utility.yul\":310:316   */\n      dup3\n        /* \"#utility.yul\":306:320   */\n      add\n        /* \"#utility.yul\":299:355   */\n      mstore\n        /* \"#utility.yul\":182:362   */\n      pop\n      jump\t// out\n        /* \"#utility.yul\":368:734   */\n    tag_186:\n        /* \"#utility.yul\":510:513   */\n      0x00\n        /* \"#utility.yul\":531:598   */\n      tag_243\n        /* \"#utility.yul\":595:597   */\n      0x1e\n        /* \"#utility.yul\":590:593   */\n      dup4\n        /* \"#utility.yul\":531:598   */\n      tag_184\n      jump\t// in\n    tag_243:\n        /* \"#utility.yul\":524:598   */\n      swap2\n      pop\n        /* \"#utility.yul\":607:700   */\n      tag_244\n        /* \"#utility.yul\":696:699   */\n      dup3\n        /* \"#utility.yul\":607:700   */\n      tag_185\n      jump\t// in\n    tag_244:\n        /* \"#utility.yul\":725:727   */\n      0x20\n        /* \"#utility.yul\":720:723   */\n      dup3\n        /* \"#utility.yul\":716:728   */\n      add\n        /* \"#utility.yul\":709:728   */\n      swap1\n      pop\n        /* \"#utility.yul\":368:734   */\n      swap2\n      swap1\n      pop\n      jump\t// out\n        /* \"#utility.yul\":740:1159   */\n    tag_24:\n        /* \"#utility.yul\":906:910   */\n      0x00\n        /* \"#utility.yul\":944:946   */\n      0x20\n        /* \"#utility.yul\":933:942   */\n      dup3\n        /* \"#utility.yul\":929:947   */\n      add\n        /* \"#utility.yul\":921:947   */\n      swap1\n      pop\n        /* \"#utility.yul\":993:1002   */\n      dup2\n        /* \"#utility.yul\":987:991   */\n      dup2\n        /* \"#utility.yul\":983:1003   */\n      sub\n        /* \"#utility.yul\":979:980   */\n      0x00\n        /* \"#utility.yul\":968:977   */\n      dup4\n        /* \"#utility.yul\":964:981   */\n      add\n        /* \"#utility.yul\":957:1004   */\n      mstore\n        /* \"#utility.yul\":1021:1152   */\n      tag_246\n        /* \"#utility.yul\":1147:1151   */\n      dup2\n        /* \"#utility.yul\":1021:1152   */\n      tag_186\n      jump\t// in\n    tag_246:\n        /* \"#utility.yul\":1013:1152   */\n      swap1\n      pop\n        /* \"#utility.yul\":740:1159   */\n      swap2\n      swap1\n      pop\n      jump\t// out\n        /* \"#utility.yul\":1246:1363   */\n    tag_188:\n        /* \"#utility.yul\":1355:1356   */\n      0x00\n        /* \"#utility.yul\":1352:1353   */\n      dup1\n        /* \"#utility.yul\":1345:1357   */\n      revert\n        /* \"#utility.yul\":1492:1569   */\n    tag_190:\n        /* \"#utility.yul\":1529:1536   */\n      0x00\n        /* \"#utility.yul\":1558:1563   */\n      dup2\n        /* \"#utility.yul\":1547:1563   */\n      swap1\n      pop\n        /* \"#utility.yul\":1492:1569   */\n      swap2\n      swap1\n      pop\n      jump\t// out\n        /* \"#utility.yul\":1575:1697   */\n    tag_191:\n        /* \"#utility.yul\":1648:1672   */\n      tag_252\n        /* \"#utility.yul\":1666:1671   */\n      dup2\n        /* \"#utility.yul\":1648:1672   */\n      tag_190\n      jump\t// in\n    tag_252:\n        /* \"#utility.yul\":1641:1646   */\n      dup2\n        /* \"#utility.yul\":1638:1673   */\n      eq\n        /* \"#utility.yul\":1628:1691   */\n      tag_253\n      jumpi\n        /* \"#utility.yul\":1687:1688   */\n      0x00\n        /* \"#utility.yul\":1684:1685   */\n      dup1\n        /* \"#utility.yul\":1677:1689   */\n      revert\n        /* \"#utility.yul\":1628:1691   */\n    tag_253:\n        /* \"#utility.yul\":1575:1697   */\n      pop\n      jump\t// out\n        /* \"#utility.yul\":1703:1842   */\n    tag_192:\n        /* \"#utility.yul\":1749:1754   */\n      0x00\n        /* \"#utility.yul\":1787:1793   */\n      dup2\n        /* \"#utility.yul\":1774:1794   */\n      calldataload\n        /* \"#utility.yul\":1765:1794   */\n      swap1\n      pop\n        /* \"#utility.yul\":1803:1836   */\n      tag_255\n        /* \"#utility.yul\":1830:1835   */\n      dup2\n        /* \"#utility.yul\":1803:1836   */\n      tag_191\n      jump\t// in\n    tag_255:\n        /* \"#utility.yul\":1703:1842   */\n      swap3\n      swap2\n      pop\n      pop\n      jump\t// out\n        /* \"#utility.yul\":1848:2177   */\n    tag_28:\n        /* \"#utility.yul\":1907:1913   */\n      0x00\n        /* \"#utility.yul\":1956:1958   */\n      0x20\n        /* \"#utility.yul\":1944:1953   */\n      dup3\n        /* \"#utility.yul\":1935:1942   */\n      dup5\n        /* \"#utility.yul\":1931:1954   */\n      sub\n        /* \"#utility.yul\":1927:1959   */\n      slt\n        /* \"#utility.yul\":1924:2043   */\n      iszero\n      tag_257\n      jumpi\n        /* \"#utility.yul\":1962:2041   */\n      tag_258\n      tag_188\n      jump\t// in\n    tag_258:\n        /* \"#utility.yul\":1924:2043   */\n    tag_257:\n        /* \"#utility.yul\":2082:2083   */\n      0x00\n        /* \"#utility.yul\":2107:2160   */\n      tag_259\n        /* \"#utility.yul\":2152:2159   */\n      dup5\n        /* \"#utility.yul\":2143:2149   */\n      dup3\n        /* \"#utility.yul\":2132:2141   */\n      dup6\n        /* \"#utility.yul\":2128:2150   */\n      add\n        /* \"#utility.yul\":2107:2160   */\n      tag_192\n      jump\t// in\n    tag_259:\n        /* \"#utility.yul\":2097:2160   */\n      swap2\n      pop\n        /* \"#utility.yul\":2053:2170   */\n      pop\n        /* \"#utility.yul\":1848:2177   */\n      swap3\n      swap2\n      pop\n      pop\n      jump\t// out\n        /* \"#utility.yul\":2183:2301   */\n    tag_193:\n        /* \"#utility.yul\":2270:2294   */\n      tag_261\n        /* \"#utility.yul\":2288:2293   */\n      dup2\n        /* \"#utility.yul\":2270:2294   */\n      tag_190\n      jump\t// in\n    tag_261:\n        /* \"#utility.yul\":2265:2268   */\n      dup3\n        /* \"#utility.yul\":2258:2295   */\n      mstore\n        /* \"#utility.yul\":2183:2301   */\n      pop\n      pop\n      jump\t// out\n        /* \"#utility.yul\":2307:2529   */\n    tag_31:\n        /* \"#utility.yul\":2400:2404   */\n      0x00\n        /* \"#utility.yul\":2438:2440   */\n      0x20\n        /* \"#utility.yul\":2427:2436   */\n      dup3\n        /* \"#utility.yul\":2423:2441   */\n      add\n        /* \"#utility.yul\":2415:2441   */\n      swap1\n      pop\n        /* \"#utility.yul\":2451:2522   */\n      tag_263\n        /* \"#utility.yul\":2519:2520   */\n      0x00\n        /* \"#utility.yul\":2508:2517   */\n      dup4\n        /* \"#utility.yul\":2504:2521   */\n      add\n        /* \"#utility.yul\":2495:2501   */\n      dup5\n        /* \"#utility.yul\":2451:2522   */\n      tag_193\n      jump\t// in\n    tag_263:\n        /* \"#utility.yul\":2307:2529   */\n      swap3\n      swap2\n      pop\n      pop\n      jump\t// out\n        /* \"#utility.yul\":2535:2661   */\n    tag_194:\n        /* \"#utility.yul\":2572:2579   */\n      0x00\n        /* \"#utility.yul\":2612:2654   */\n      0xffffffffffffffffffffffffffffffffffffffff\n        /* \"#utility.yul\":2605:2610   */\n      dup3\n        /* \"#utility.yul\":2601:2655   */\n      and\n        /* \"#utility.yul\":2590:2655   */\n      swap1\n      pop\n        /* \"#utility.yul\":2535:2661   */\n      swap2\n      swap1\n      pop\n      jump\t// out\n        /* \"#utility.yul\":2667:2763   */\n    tag_195:\n        /* \"#utility.yul\":2704:2711   */\n      0x00\n        /* \"#utility.yul\":2733:2757   */\n      tag_266\n        /* \"#utility.yul\":2751:2756   */\n      dup3\n        /* \"#utility.yul\":2733:2757   */\n      tag_194\n      jump\t// in\n    tag_266:\n        /* \"#utility.yul\":2722:2757   */\n      swap1\n      pop\n        /* \"#utility.yul\":2667:2763   */\n      swap2\n      swap1\n      pop\n      jump\t// out\n        /* \"#utility.yul\":2769:2891   */\n    tag_196:\n        /* \"#utility.yul\":2842:2866   */\n      tag_268\n        /* \"#utility.yul\":2860:2865   */\n      dup2\n        /* \"#utility.yul\":2842:2866   */\n      tag_195\n      jump\t// in\n    tag_268:\n        /* \"#utility.yul\":2835:2840   */\n      dup2\n        /* \"#utility.yul\":2832:2867   */\n      eq\n        /* \"#utility.yul\":2822:2885   */\n      tag_269\n      jumpi\n        /* \"#utility.yul\":2881:2882   */\n      0x00\n        /* \"#utility.yul\":2878:2879   */\n      dup1\n        /* \"#utility.yul\":2871:2883   */\n      revert\n        /* \"#utility.yul\":2822:2885   */\n    tag_269:\n        /* \"#utility.yul\":2769:2891   */\n      pop\n      jump\t// out\n        /* \"#utility.yul\":2897:3036   */\n    tag_197:\n        /* \"#utility.yul\":2943:2948   */\n      0x00\n        /* \"#utility.yul\":2981:2987   */\n      dup2\n        /* \"#utility.yul\":2968:2988   */\n      calldataload\n        /* \"#utility.yul\":2959:2988   */\n      swap1\n      pop\n        /* \"#utility.yul\":2997:3030   */\n      tag_271\n        /* \"#utility.yul\":3024:3029   */\n      dup2\n        /* \"#utility.yul\":2997:3030   */\n      tag_196\n      jump\t// in\n    tag_271:\n        /* \"#utility.yul\":2897:3036   */\n      swap3\n      swap2\n      pop\n      pop\n      jump\t// out\n        /* \"#utility.yul\":3042:3371   */\n    tag_41:\n        /* \"#utility.yul\":3101:3107   */\n      0x00\n        /* \"#utility.yul\":3150:3152   */\n      0x20\n        /* \"#utility.yul\":3138:3147   */\n      dup3\n        /* \"#utility.yul\":3129:3136   */\n      dup5\n        /* \"#utility.yul\":3125:3148   */\n      sub\n        /* \"#utility.yul\":3121:3153   */\n      slt\n        /* \"#utility.yul\":3118:3237   */\n      iszero\n      tag_273\n      jumpi\n        /* \"#utility.yul\":3156:3235   */\n      tag_274\n      tag_188\n      jump\t// in\n    tag_274:\n        /* \"#utility.yul\":3118:3237   */\n    tag_273:\n        /* \"#utility.yul\":3276:3277   */\n      0x00\n        /* \"#utility.yul\":3301:3354   */\n      tag_275\n        /* \"#utility.yul\":3346:3353   */\n      dup5\n        /* \"#utility.yul\":3337:3343   */\n      dup3\n        /* \"#utility.yul\":3326:3335   */\n      dup6\n        /* \"#utility.yul\":3322:3344   */\n      add\n        /* \"#utility.yul\":3301:3354   */\n      tag_197\n      jump\t// in\n    tag_275:\n        /* \"#utility.yul\":3291:3354   */\n      swap2\n      pop\n        /* \"#utility.yul\":3247:3364   */\n      pop\n        /* \"#utility.yul\":3042:3371   */\n      swap3\n      swap2\n      pop\n      pop\n      jump\t// out\n        /* \"#utility.yul\":3377:3851   */\n    tag_47:\n        /* \"#utility.yul\":3445:3451   */\n      0x00\n        /* \"#utility.yul\":3453:3459   */\n      dup1\n        /* \"#utility.yul\":3502:3504   */\n      0x40\n        /* \"#utility.yul\":3490:3499   */\n      dup4\n        /* \"#utility.yul\":3481:3488   */\n      dup6\n        /* \"#utility.yul\":3477:3500   */\n      sub\n        /* \"#utility.yul\":3473:3505   */\n      slt\n        /* \"#utility.yul\":3470:3589   */\n      iszero\n      tag_277\n      jumpi\n        /* \"#utility.yul\":3508:3587   */\n      tag_278\n      tag_188\n      jump\t// in\n    tag_278:\n        /* \"#utility.yul\":3470:3589   */\n    tag_277:\n        /* \"#utility.yul\":3628:3629   */\n      0x00\n        /* \"#utility.yul\":3653:3706   */\n      tag_279\n        /* \"#utility.yul\":3698:3705   */\n      dup6\n        /* \"#utility.yul\":3689:3695   */\n      dup3\n        /* \"#utility.yul\":3678:3687   */\n      dup7\n        /* \"#utility.yul\":3674:3696   */\n      add\n        /* \"#utility.yul\":3653:3706   */\n      tag_197\n      jump\t// in\n    tag_279:\n        /* \"#utility.yul\":3643:3706   */\n      swap3\n      pop\n        /* \"#utility.yul\":3599:3716   */\n      pop\n        /* \"#utility.yul\":3755:3757   */\n      0x20\n        /* \"#utility.yul\":3781:3834   */\n      tag_280\n        /* \"#utility.yul\":3826:3833   */\n      dup6\n        /* \"#utility.yul\":3817:3823   */\n      dup3\n        /* \"#utility.yul\":3806:3815   */\n      dup7\n        /* \"#utility.yul\":3802:3824   */\n      add\n        /* \"#utility.yul\":3781:3834   */\n      tag_192\n      jump\t// in\n    tag_280:\n        /* \"#utility.yul\":3771:3834   */\n      swap2\n      pop\n        /* \"#utility.yul\":3726:3844   */\n      pop\n        /* \"#utility.yul\":3377:3851   */\n      swap3\n      pop\n      swap3\n      swap1\n      pop\n      jump\t// out\n        /* \"#utility.yul\":3857:3947   */\n    tag_198:\n        /* \"#utility.yul\":3891:3898   */\n      0x00\n        /* \"#utility.yul\":3934:3939   */\n      dup2\n        /* \"#utility.yul\":3927:3940   */\n      iszero\n        /* \"#utility.yul\":3920:3941   */\n      iszero\n        /* \"#utility.yul\":3909:3941   */\n      swap1\n      pop\n        /* \"#utility.yul\":3857:3947   */\n      swap2\n      swap1\n      pop\n      jump\t// out\n        /* \"#utility.yul\":3953:4062   */\n    tag_199:\n        /* \"#utility.yul\":4034:4055   */\n      tag_283\n        /* \"#utility.yul\":4049:4054   */\n      dup2\n        /* \"#utility.yul\":4034:4055   */\n      tag_198\n      jump\t// in\n    tag_283:\n        /* \"#utility.yul\":4029:4032   */\n      dup3\n        /* \"#utility.yul\":4022:4056   */\n      mstore\n        /* \"#utility.yul\":3953:4062   */\n      pop\n      pop\n      jump\t// out\n        /* \"#utility.yul\":4068:4278   */\n    tag_56:\n        /* \"#utility.yul\":4155:4159   */\n      0x00\n        /* \"#utility.yul\":4193:4195   */\n      0x20\n        /* \"#utility.yul\":4182:4191   */\n      dup3\n        /* \"#utility.yul\":4178:4196   */\n      add\n        /* \"#utility.yul\":4170:4196   */\n      swap1\n      pop\n        /* \"#utility.yul\":4206:4271   */\n      tag_285\n        /* \"#utility.yul\":4268:4269   */\n      0x00\n        /* \"#utility.yul\":4257:4266   */\n      dup4\n        /* \"#utility.yul\":4253:4270   */\n      add\n        /* \"#utility.yul\":4244:4250   */\n      dup5\n        /* \"#utility.yul\":4206:4271   */\n      tag_199\n      jump\t// in\n    tag_285:\n        /* \"#utility.yul\":4068:4278   */\n      swap3\n      swap2\n      pop\n      pop\n      jump\t// out\n        /* \"#utility.yul\":4284:4402   */\n    tag_200:\n        /* \"#utility.yul\":4371:4395   */\n      tag_287\n        /* \"#utility.yul\":4389:4394   */\n      dup2\n        /* \"#utility.yul\":4371:4395   */\n      tag_195\n      jump\t// in\n    tag_287:\n        /* \"#utility.yul\":4366:4369   */\n      dup3\n        /* \"#utility.yul\":4359:4396   */\n      mstore\n        /* \"#utility.yul\":4284:4402   */\n      pop\n      pop\n      jump\t// out\n        /* \"#utility.yul\":4408:4630   */\n    tag_69:\n        /* \"#utility.yul\":4501:4505   */\n      0x00\n        /* \"#utility.yul\":4539:4541   */\n      0x20\n        /* \"#utility.yul\":4528:4537   */\n      dup3\n        /* \"#utility.yul\":4524:4542   */\n      add\n        /* \"#utility.yul\":4516:4542   */\n      swap1\n      pop\n        /* \"#utility.yul\":4552:4623   */\n      tag_289\n        /* \"#utility.yul\":4620:4621   */\n      0x00\n        /* \"#utility.yul\":4609:4618   */\n      dup4\n        /* \"#utility.yul\":4605:4622   */\n      add\n        /* \"#utility.yul\":4596:4602   */\n      dup5\n        /* \"#utility.yul\":4552:4623   */\n      tag_200\n      jump\t// in\n    tag_289:\n        /* \"#utility.yul\":4408:4630   */\n      swap3\n      swap2\n      pop\n      pop\n      jump\t// out\n        /* \"#utility.yul\":4636:4696   */\n    tag_201:\n        /* \"#utility.yul\":4664:4667   */\n      0x00\n        /* \"#utility.yul\":4685:4690   */\n      dup2\n        /* \"#utility.yul\":4678:4690   */\n      swap1\n      pop\n        /* \"#utility.yul\":4636:4696   */\n      swap2\n      swap1\n      pop\n      jump\t// out\n        /* \"#utility.yul\":4702:4844   */\n    tag_202:\n        /* \"#utility.yul\":4752:4761   */\n      0x00\n        /* \"#utility.yul\":4785:4838   */\n      tag_292\n        /* \"#utility.yul\":4803:4837   */\n      tag_293\n        /* \"#utility.yul\":4812:4836   */\n      tag_294\n        /* \"#utility.yul\":4830:4835   */\n      dup5\n        /* \"#utility.yul\":4812:4836   */\n      tag_194\n      jump\t// in\n    tag_294:\n        /* \"#utility.yul\":4803:4837   */\n      tag_201\n      jump\t// in\n    tag_293:\n        /* \"#utility.yul\":4785:4838   */\n      tag_194\n      jump\t// in\n    tag_292:\n        /* \"#utility.yul\":4772:4838   */\n      swap1\n      pop\n        /* \"#utility.yul\":4702:4844   */\n      swap2\n      swap1\n      pop\n      jump\t// out\n        /* \"#utility.yul\":4850:4976   */\n    tag_203:\n        /* \"#utility.yul\":4900:4909   */\n      0x00\n        /* \"#utility.yul\":4933:4970   */\n      tag_296\n        /* \"#utility.yul\":4964:4969   */\n      dup3\n        /* \"#utility.yul\":4933:4970   */\n      tag_202\n      jump\t// in\n    tag_296:\n        /* \"#utility.yul\":4920:4970   */\n      swap1\n      pop\n        /* \"#utility.yul\":4850:4976   */\n      swap2\n      swap1\n      pop\n      jump\t// out\n        /* \"#utility.yul\":4982:5121   */\n    tag_204:\n        /* \"#utility.yul\":5045:5054   */\n      0x00\n        /* \"#utility.yul\":5078:5115   */\n      tag_298\n        /* \"#utility.yul\":5109:5114   */\n      dup3\n        /* \"#utility.yul\":5078:5115   */\n      tag_203\n      jump\t// in\n    tag_298:\n        /* \"#utility.yul\":5065:5115   */\n      swap1\n      pop\n        /* \"#utility.yul\":4982:5121   */\n      swap2\n      swap1\n      pop\n      jump\t// out\n        /* \"#utility.yul\":5127:5284   */\n    tag_205:\n        /* \"#utility.yul\":5227:5277   */\n      tag_300\n        /* \"#utility.yul\":5271:5276   */\n      dup2\n        /* \"#utility.yul\":5227:5277   */\n      tag_204\n      jump\t// in\n    tag_300:\n        /* \"#utility.yul\":5222:5225   */\n      dup3\n        /* \"#utility.yul\":5215:5278   */\n      mstore\n        /* \"#utility.yul\":5127:5284   */\n      pop\n      pop\n      jump\t// out\n        /* \"#utility.yul\":5290:5538   */\n    tag_90:\n        /* \"#utility.yul\":5396:5400   */\n      0x00\n        /* \"#utility.yul\":5434:5436   */\n      0x20\n        /* \"#utility.yul\":5423:5432   */\n      dup3\n        /* \"#utility.yul\":5419:5437   */\n      add\n        /* \"#utility.yul\":5411:5437   */\n      swap1\n      pop\n        /* \"#utility.yul\":5447:5531   */\n      tag_302\n        /* \"#utility.yul\":5528:5529   */\n      0x00\n        /* \"#utility.yul\":5517:5526   */\n      dup4\n        /* \"#utility.yul\":5513:5530   */\n      add\n        /* \"#utility.yul\":5504:5510   */\n      dup5\n        /* \"#utility.yul\":5447:5531   */\n      tag_205\n      jump\t// in\n    tag_302:\n        /* \"#utility.yul\":5290:5538   */\n      swap3\n      swap2\n      pop\n      pop\n      jump\t// out\n        /* \"#utility.yul\":5544:5712   */\n    tag_206:\n        /* \"#utility.yul\":5684:5704   */\n      0x53616c65206973206e6f74206163746976650000000000000000000000000000\n        /* \"#utility.yul\":5680:5681   */\n      0x00\n        /* \"#utility.yul\":5672:5678   */\n      dup3\n        /* \"#utility.yul\":5668:5682   */\n      add\n        /* \"#utility.yul\":5661:5705   */\n      mstore\n        /* \"#utility.yul\":5544:5712   */\n      pop\n      jump\t// out\n        /* \"#utility.yul\":5718:6084   */\n    tag_207:\n        /* \"#utility.yul\":5860:5863   */\n      0x00\n        /* \"#utility.yul\":5881:5948   */\n      tag_305\n        /* \"#utility.yul\":5945:5947   */\n      0x12\n        /* \"#utility.yul\":5940:5943   */\n      dup4\n        /* \"#utility.yul\":5881:5948   */\n      tag_184\n      jump\t// in\n    tag_305:\n        /* \"#utility.yul\":5874:5948   */\n      swap2\n      pop\n        /* \"#utility.yul\":5957:6050   */\n      tag_306\n        /* \"#utility.yul\":6046:6049   */\n      dup3\n        /* \"#utility.yul\":5957:6050   */\n      tag_206\n      jump\t// in\n    tag_306:\n        /* \"#utility.yul\":6075:6077   */\n      0x20\n        /* \"#utility.yul\":6070:6073   */\n      dup3\n        /* \"#utility.yul\":6066:6078   */\n      add\n        /* \"#utility.yul\":6059:6078   */\n      swap1\n      pop\n        /* \"#utility.yul\":5718:6084   */\n      swap2\n      swap1\n      pop\n      jump\t// out\n        /* \"#utility.yul\":6090:6509   */\n    tag_94:\n        /* \"#utility.yul\":6256:6260   */\n      0x00\n        /* \"#utility.yul\":6294:6296   */\n      0x20\n        /* \"#utility.yul\":6283:6292   */\n      dup3\n        /* \"#utility.yul\":6279:6297   */\n      add\n        /* \"#utility.yul\":6271:6297   */\n      swap1\n      pop\n        /* \"#utility.yul\":6343:6352   */\n      dup2\n        /* \"#utility.yul\":6337:6341   */\n      dup2\n        /* \"#utility.yul\":6333:6353   */\n      sub\n        /* \"#utility.yul\":6329:6330   */\n      0x00\n        /* \"#utility.yul\":6318:6327   */\n      dup4\n        /* \"#utility.yul\":6314:6331   */\n      add\n        /* \"#utility.yul\":6307:6354   */\n      mstore\n        /* \"#utility.yul\":6371:6502   */\n      tag_308\n        /* \"#utility.yul\":6497:6501   */\n      dup2\n        /* \"#utility.yul\":6371:6502   */\n      tag_207\n      jump\t// in\n    tag_308:\n        /* \"#utility.yul\":6363:6502   */\n      swap1\n      pop\n        /* \"#utility.yul\":6090:6509   */\n      swap2\n      swap1\n      pop\n      jump\t// out\n        /* \"#utility.yul\":6515:6677   */\n    tag_208:\n        /* \"#utility.yul\":6655:6669   */\n      0x496e76616c696420746965720000000000000000000000000000000000000000\n        /* \"#utility.yul\":6651:6652   */\n      0x00\n        /* \"#utility.yul\":6643:6649   */\n      dup3\n        /* \"#utility.yul\":6639:6653   */\n      add\n        /* \"#utility.yul\":6632:6670   */\n      mstore\n        /* \"#utility.yul\":6515:6677   */\n      pop\n      jump\t// out\n        /* \"#utility.yul\":6683:7049   */\n    tag_209:\n        /* \"#utility.yul\":6825:6828   */\n      0x00\n        /* \"#utility.yul\":6846:6913   */\n      tag_311\n        /* \"#utility.yul\":6910:6912   */\n      0x0c\n        /* \"#utility.yul\":6905:6908   */\n      dup4\n        /* \"#utility.yul\":6846:6913   */\n      tag_184\n      jump\t// in\n    tag_311:\n        /* \"#utility.yul\":6839:6913   */\n      swap2\n      pop\n        /* \"#utility.yul\":6922:7015   */\n      tag_312\n        /* \"#utility.yul\":7011:7014   */\n      dup3\n        /* \"#utility.yul\":6922:7015   */\n      tag_208\n      jump\t// in\n    tag_312:\n        /* \"#utility.yul\":7040:7042   */\n      0x20\n        /* \"#utility.yul\":7035:7038   */\n      dup3\n        /* \"#utility.yul\":7031:7043   */\n      add\n        /* \"#utility.yul\":7024:7043   */\n      swap1\n      pop\n        /* \"#utility.yul\":6683:7049   */\n      swap2\n      swap1\n      pop\n      jump\t// out\n        /* \"#utility.yul\":7055:7474   */\n    tag_98:\n        /* \"#utility.yul\":7221:7225   */\n      0x00\n        /* \"#utility.yul\":7259:7261   */\n      0x20\n        /* \"#utility.yul\":7248:7257   */\n      dup3\n        /* \"#utility.yul\":7244:7262   */\n      add\n        /* \"#utility.yul\":7236:7262   */\n      swap1\n      pop\n        /* \"#utility.yul\":7308:7317   */\n      dup2\n        /* \"#utility.yul\":7302:7306   */\n      dup2\n        /* \"#utility.yul\":7298:7318   */\n      sub\n        /* \"#utility.yul\":7294:7295   */\n      0x00\n        /* \"#utility.yul\":7283:7292   */\n      dup4\n        /* \"#utility.yul\":7279:7296   */\n      add\n        /* \"#utility.yul\":7272:7319   */\n      mstore\n        /* \"#utility.yul\":7336:7467   */\n      tag_314\n        /* \"#utility.yul\":7462:7466   */\n      dup2\n        /* \"#utility.yul\":7336:7467   */\n      tag_209\n      jump\t// in\n    tag_314:\n        /* \"#utility.yul\":7328:7467   */\n      swap1\n      pop\n        /* \"#utility.yul\":7055:7474   */\n      swap2\n      swap1\n      pop\n      jump\t// out\n        /* \"#utility.yul\":7480:7660   */\n    tag_210:\n        /* \"#utility.yul\":7620:7652   */\n      0x4d7573742065786365656420746865206d696e696d756d20616d6f756e740000\n        /* \"#utility.yul\":7616:7617   */\n      0x00\n        /* \"#utility.yul\":7608:7614   */\n      dup3\n        /* \"#utility.yul\":7604:7618   */\n      add\n        /* \"#utility.yul\":7597:7653   */\n      mstore\n        /* \"#utility.yul\":7480:7660   */\n      pop\n      jump\t// out\n        /* \"#utility.yul\":7666:8032   */\n    tag_211:\n        /* \"#utility.yul\":7808:7811   */\n      0x00\n        /* \"#utility.yul\":7829:7896   */\n      tag_317\n        /* \"#utility.yul\":7893:7895   */\n      0x1e\n        /* \"#utility.yul\":7888:7891   */\n      dup4\n        /* \"#utility.yul\":7829:7896   */\n      tag_184\n      jump\t// in\n    tag_317:\n        /* \"#utility.yul\":7822:7896   */\n      swap2\n      pop\n        /* \"#utility.yul\":7905:7998   */\n      tag_318\n        /* \"#utility.yul\":7994:7997   */\n      dup3\n        /* \"#utility.yul\":7905:7998   */\n      tag_210\n      jump\t// in\n    tag_318:\n        /* \"#utility.yul\":8023:8025   */\n      0x20\n        /* \"#utility.yul\":8018:8021   */\n      dup3\n        /* \"#utility.yul\":8014:8026   */\n      add\n        /* \"#utility.yul\":8007:8026   */\n      swap1\n      pop\n        /* \"#utility.yul\":7666:8032   */\n      swap2\n      swap1\n      pop\n      jump\t// out\n        /* \"#utility.yul\":8038:8457   */\n    tag_101:\n        /* \"#utility.yul\":8204:8208   */\n      0x00\n        /* \"#utility.yul\":8242:8244   */\n      0x20\n        /* \"#utility.yul\":8231:8240   */\n      dup3\n        /* \"#utility.yul\":8227:8245   */\n      add\n        /* \"#utility.yul\":8219:8245   */\n      swap1\n      pop\n        /* \"#utility.yul\":8291:8300   */\n      dup2\n        /* \"#utility.yul\":8285:8289   */\n      dup2\n        /* \"#utility.yul\":8281:8301   */\n      sub\n        /* \"#utility.yul\":8277:8278   */\n      0x00\n        /* \"#utility.yul\":8266:8275   */\n      dup4\n        /* \"#utility.yul\":8262:8279   */\n      add\n        /* \"#utility.yul\":8255:8302   */\n      mstore\n        /* \"#utility.yul\":8319:8450   */\n      tag_320\n        /* \"#utility.yul\":8445:8449   */\n      dup2\n        /* \"#utility.yul\":8319:8450   */\n      tag_211\n      jump\t// in\n    tag_320:\n        /* \"#utility.yul\":8311:8450   */\n      swap1\n      pop\n        /* \"#utility.yul\":8038:8457   */\n      swap2\n      swap1\n      pop\n      jump\t// out\n        /* \"#utility.yul\":8463:8631   */\n    tag_212:\n        /* \"#utility.yul\":8603:8623   */\n      0x457863656564732074696572206c696d69740000000000000000000000000000\n        /* \"#utility.yul\":8599:8600   */\n      0x00\n        /* \"#utility.yul\":8591:8597   */\n      dup3\n        /* \"#utility.yul\":8587:8601   */\n      add\n        /* \"#utility.yul\":8580:8624   */\n      mstore\n        /* \"#utility.yul\":8463:8631   */\n      pop\n      jump\t// out\n        /* \"#utility.yul\":8637:9003   */\n    tag_213:\n        /* \"#utility.yul\":8779:8782   */\n      0x00\n        /* \"#utility.yul\":8800:8867   */\n      tag_323\n        /* \"#utility.yul\":8864:8866   */\n      0x12\n        /* \"#utility.yul\":8859:8862   */\n      dup4\n        /* \"#utility.yul\":8800:8867   */\n      tag_184\n      jump\t// in\n    tag_323:\n        /* \"#utility.yul\":8793:8867   */\n      swap2\n      pop\n        /* \"#utility.yul\":8876:8969   */\n      tag_324\n        /* \"#utility.yul\":8965:8968   */\n      dup3\n        /* \"#utility.yul\":8876:8969   */\n      tag_212\n      jump\t// in\n    tag_324:\n        /* \"#utility.yul\":8994:8996   */\n      0x20\n        /* \"#utility.yul\":8989:8992   */\n      dup3\n        /* \"#utility.yul\":8985:8997   */\n      add\n        /* \"#utility.yul\":8978:8997   */\n      swap1\n      pop\n        /* \"#utility.yul\":8637:9003   */\n      swap2\n      swap1\n      pop\n      jump\t// out\n        /* \"#utility.yul\":9009:9428   */\n    tag_104:\n        /* \"#utility.yul\":9175:9179   */\n      0x00\n        /* \"#utility.yul\":9213:9215   */\n      0x20\n        /* \"#utility.yul\":9202:9211   */\n      dup3\n        /* \"#utility.yul\":9198:9216   */\n      add\n        /* \"#utility.yul\":9190:9216   */\n      swap1\n      pop\n        /* \"#utility.yul\":9262:9271   */\n      dup2\n        /* \"#utility.yul\":9256:9260   */\n      dup2\n        /* \"#utility.yul\":9252:9272   */\n      sub\n        /* \"#utility.yul\":9248:9249   */\n      0x00\n        /* \"#utility.yul\":9237:9246   */\n      dup4\n        /* \"#utility.yul\":9233:9250   */\n      add\n        /* \"#utility.yul\":9226:9273   */\n      mstore\n        /* \"#utility.yul\":9290:9421   */\n      tag_326\n        /* \"#utility.yul\":9416:9420   */\n      dup2\n        /* \"#utility.yul\":9290:9421   */\n      tag_213\n      jump\t// in\n    tag_326:\n        /* \"#utility.yul\":9282:9421   */\n      swap1\n      pop\n        /* \"#utility.yul\":9009:9428   */\n      swap2\n      swap1\n      pop\n      jump\t// out\n        /* \"#utility.yul\":9434:9614   */\n    tag_214:\n        /* \"#utility.yul\":9482:9559   */\n      0x4e487b7100000000000000000000000000000000000000000000000000000000\n        /* \"#utility.yul\":9479:9480   */\n      0x00\n        /* \"#utility.yul\":9472:9560   */\n      mstore\n        /* \"#utility.yul\":9579:9583   */\n      0x11\n        /* \"#utility.yul\":9576:9577   */\n      0x04\n        /* \"#utility.yul\":9569:9584   */\n      mstore\n        /* \"#utility.yul\":9603:9607   */\n      0x24\n        /* \"#utility.yul\":9600:9601   */\n      0x00\n        /* \"#utility.yul\":9593:9608   */\n      revert\n        /* \"#utility.yul\":9620:9814   */\n    tag_106:\n        /* \"#utility.yul\":9660:9664   */\n      0x00\n        /* \"#utility.yul\":9680:9700   */\n      tag_329\n        /* \"#utility.yul\":9698:9699   */\n      dup3\n        /* \"#utility.yul\":9680:9700   */\n      tag_190\n      jump\t// in\n    tag_329:\n        /* \"#utility.yul\":9675:9700   */\n      swap2\n      pop\n        /* \"#utility.yul\":9714:9734   */\n      tag_330\n        /* \"#utility.yul\":9732:9733   */\n      dup4\n        /* \"#utility.yul\":9714:9734   */\n      tag_190\n      jump\t// in\n    tag_330:\n        /* \"#utility.yul\":9709:9734   */\n      swap3\n      pop\n        /* \"#utility.yul\":9758:9759   */\n      dup3\n        /* \"#utility.yul\":9755:9756   */\n      dup3\n        /* \"#utility.yul\":9751:9760   */\n      sub\n        /* \"#utility.yul\":9743:9760   */\n      swap1\n      pop\n        /* \"#utility.yul\":9782:9783   */\n      dup2\n        /* \"#utility.yul\":9776:9780   */\n      dup2\n        /* \"#utility.yul\":9773:9784   */\n      gt\n        /* \"#utility.yul\":9770:9807   */\n      iszero\n      tag_331\n      jumpi\n        /* \"#utility.yul\":9787:9805   */\n      tag_332\n      tag_214\n      jump\t// in\n    tag_332:\n        /* \"#utility.yul\":9770:9807   */\n    tag_331:\n        /* \"#utility.yul\":9620:9814   */\n      swap3\n      swap2\n      pop\n      pop\n      jump\t// out\n        /* \"#utility.yul\":9820:9999   */\n    tag_215:\n        /* \"#utility.yul\":9960:9991   */\n      0x53686f756c642067726561746572207468616e206c6173742074696572000000\n        /* \"#utility.yul\":9956:9957   */\n      0x00\n        /* \"#utility.yul\":9948:9954   */\n      dup3\n        /* \"#utility.yul\":9944:9958   */\n      add\n        /* \"#utility.yul\":9937:9992   */\n      mstore\n        /* \"#utility.yul\":9820:9999   */\n      pop\n      jump\t// out\n        /* \"#utility.yul\":10005:10371   */\n    tag_216:\n        /* \"#utility.yul\":10147:10150   */\n      0x00\n        /* \"#utility.yul\":10168:10235   */\n      tag_335\n        /* \"#utility.yul\":10232:10234   */\n      0x1d\n        /* \"#utility.yul\":10227:10230   */\n      dup4\n        /* \"#utility.yul\":10168:10235   */\n      tag_184\n      jump\t// in\n    tag_335:\n        /* \"#utility.yul\":10161:10235   */\n      swap2\n      pop\n        /* \"#utility.yul\":10244:10337   */\n      tag_336\n        /* \"#utility.yul\":10333:10336   */\n      dup3\n        /* \"#utility.yul\":10244:10337   */\n      tag_215\n      jump\t// in\n    tag_336:\n        /* \"#utility.yul\":10362:10364   */\n      0x20\n        /* \"#utility.yul\":10357:10360   */\n      dup3\n        /* \"#utility.yul\":10353:10365   */\n      add\n        /* \"#utility.yul\":10346:10365   */\n      swap1\n      pop\n        /* \"#utility.yul\":10005:10371   */\n      swap2\n      swap1\n      pop\n      jump\t// out\n        /* \"#utility.yul\":10377:10796   */\n    tag_109:\n        /* \"#utility.yul\":10543:10547   */\n      0x00\n        /* \"#utility.yul\":10581:10583   */\n      0x20\n        /* \"#utility.yul\":10570:10579   */\n      dup3\n        /* \"#utility.yul\":10566:10584   */\n      add\n        /* \"#utility.yul\":10558:10584   */\n      swap1\n      pop\n        /* \"#utility.yul\":10630:10639   */\n      dup2\n        /* \"#utility.yul\":10624:10628   */\n      dup2\n        /* \"#utility.yul\":10620:10640   */\n      sub\n        /* \"#utility.yul\":10616:10617   */\n      0x00\n        /* \"#utility.yul\":10605:10614   */\n      dup4\n        /* \"#utility.yul\":10601:10618   */\n      add\n        /* \"#utility.yul\":10594:10641   */\n      mstore\n        /* \"#utility.yul\":10658:10789   */\n      tag_338\n        /* \"#utility.yul\":10784:10788   */\n      dup2\n        /* \"#utility.yul\":10658:10789   */\n      tag_216\n      jump\t// in\n    tag_338:\n        /* \"#utility.yul\":10650:10789   */\n      swap1\n      pop\n        /* \"#utility.yul\":10377:10796   */\n      swap2\n      swap1\n      pop\n      jump\t// out\n        /* \"#utility.yul\":10802:10993   */\n    tag_111:\n        /* \"#utility.yul\":10842:10845   */\n      0x00\n        /* \"#utility.yul\":10861:10881   */\n      tag_340\n        /* \"#utility.yul\":10879:10880   */\n      dup3\n        /* \"#utility.yul\":10861:10881   */\n      tag_190\n      jump\t// in\n    tag_340:\n        /* \"#utility.yul\":10856:10881   */\n      swap2\n      pop\n        /* \"#utility.yul\":10895:10915   */\n      tag_341\n        /* \"#utility.yul\":10913:10914   */\n      dup4\n        /* \"#utility.yul\":10895:10915   */\n      tag_190\n      jump\t// in\n    tag_341:\n        /* \"#utility.yul\":10890:10915   */\n      swap3\n      pop\n        /* \"#utility.yul\":10938:10939   */\n      dup3\n        /* \"#utility.yul\":10935:10936   */\n      dup3\n        /* \"#utility.yul\":10931:10940   */\n      add\n        /* \"#utility.yul\":10924:10940   */\n      swap1\n      pop\n        /* \"#utility.yul\":10959:10962   */\n      dup1\n        /* \"#utility.yul\":10956:10957   */\n      dup3\n        /* \"#utility.yul\":10953:10963   */\n      gt\n        /* \"#utility.yul\":10950:10986   */\n      iszero\n      tag_342\n      jumpi\n        /* \"#utility.yul\":10966:10984   */\n      tag_343\n      tag_214\n      jump\t// in\n    tag_343:\n        /* \"#utility.yul\":10950:10986   */\n    tag_342:\n        /* \"#utility.yul\":10802:10993   */\n      swap3\n      swap2\n      pop\n      pop\n      jump\t// out\n        /* \"#utility.yul\":10999:11163   */\n    tag_217:\n        /* \"#utility.yul\":11139:11155   */\n      0x4578636565647320746172676574000000000000000000000000000000000000\n        /* \"#utility.yul\":11135:11136   */\n      0x00\n        /* \"#utility.yul\":11127:11133   */\n      dup3\n        /* \"#utility.yul\":11123:11137   */\n      add\n        /* \"#utility.yul\":11116:11156   */\n      mstore\n        /* \"#utility.yul\":10999:11163   */\n      pop\n      jump\t// out\n        /* \"#utility.yul\":11169:11535   */\n    tag_218:\n        /* \"#utility.yul\":11311:11314   */\n      0x00\n        /* \"#utility.yul\":11332:11399   */\n      tag_346\n        /* \"#utility.yul\":11396:11398   */\n      0x0e\n        /* \"#utility.yul\":11391:11394   */\n      dup4\n        /* \"#utility.yul\":11332:11399   */\n      tag_184\n      jump\t// in\n    tag_346:\n        /* \"#utility.yul\":11325:11399   */\n      swap2\n      pop\n        /* \"#utility.yul\":11408:11501   */\n      tag_347\n        /* \"#utility.yul\":11497:11500   */\n      dup3\n        /* \"#utility.yul\":11408:11501   */\n      tag_217\n      jump\t// in\n    tag_347:\n        /* \"#utility.yul\":11526:11528   */\n      0x20\n        /* \"#utility.yul\":11521:11524   */\n      dup3\n        /* \"#utility.yul\":11517:11529   */\n      add\n        /* \"#utility.yul\":11510:11529   */\n      swap1\n      pop\n        /* \"#utility.yul\":11169:11535   */\n      swap2\n      swap1\n      pop\n      jump\t// out\n        /* \"#utility.yul\":11541:11960   */\n    tag_114:\n        /* \"#utility.yul\":11707:11711   */\n      0x00\n        /* \"#utility.yul\":11745:11747   */\n      0x20\n        /* \"#utility.yul\":11734:11743   */\n      dup3\n        /* \"#utility.yul\":11730:11748   */\n      add\n        /* \"#utility.yul\":11722:11748   */\n      swap1\n      pop\n        /* \"#utility.yul\":11794:11803   */\n      dup2\n        /* \"#utility.yul\":11788:11792   */\n      dup2\n        /* \"#utility.yul\":11784:11804   */\n      sub\n        /* \"#utility.yul\":11780:11781   */\n      0x00\n        /* \"#utility.yul\":11769:11778   */\n      dup4\n        /* \"#utility.yul\":11765:11782   */\n      add\n        /* \"#utility.yul\":11758:11805   */\n      mstore\n        /* \"#utility.yul\":11822:11953   */\n      tag_349\n        /* \"#utility.yul\":11948:11952   */\n      dup2\n        /* \"#utility.yul\":11822:11953   */\n      tag_218\n      jump\t// in\n    tag_349:\n        /* \"#utility.yul\":11814:11953   */\n      swap1\n      pop\n        /* \"#utility.yul\":11541:11960   */\n      swap2\n      swap1\n      pop\n      jump\t// out\n        /* \"#utility.yul\":11966:12125   */\n    tag_219:\n        /* \"#utility.yul\":12106:12117   */\n      0x4e6f74206f776e65720000000000000000000000000000000000000000000000\n        /* \"#utility.yul\":12102:12103   */\n      0x00\n        /* \"#utility.yul\":12094:12100   */\n      dup3\n        /* \"#utility.yul\":12090:12104   */\n      add\n        /* \"#utility.yul\":12083:12118   */\n      mstore\n        /* \"#utility.yul\":11966:12125   */\n      pop\n      jump\t// out\n        /* \"#utility.yul\":12131:12496   */\n    tag_220:\n        /* \"#utility.yul\":12273:12276   */\n      0x00\n        /* \"#utility.yul\":12294:12360   */\n      tag_352\n        /* \"#utility.yul\":12358:12359   */\n      0x09\n        /* \"#utility.yul\":12353:12356   */\n      dup4\n        /* \"#utility.yul\":12294:12360   */\n      tag_184\n      jump\t// in\n    tag_352:\n        /* \"#utility.yul\":12287:12360   */\n      swap2\n      pop\n        /* \"#utility.yul\":12369:12462   */\n      tag_353\n        /* \"#utility.yul\":12458:12461   */\n      dup3\n        /* \"#utility.yul\":12369:12462   */\n      tag_219\n      jump\t// in\n    tag_353:\n        /* \"#utility.yul\":12487:12489   */\n      0x20\n        /* \"#utility.yul\":12482:12485   */\n      dup3\n        /* \"#utility.yul\":12478:12490   */\n      add\n        /* \"#utility.yul\":12471:12490   */\n      swap1\n      pop\n        /* \"#utility.yul\":12131:12496   */\n      swap2\n      swap1\n      pop\n      jump\t// out\n        /* \"#utility.yul\":12502:12921   */\n    tag_121:\n        /* \"#utility.yul\":12668:12672   */\n      0x00\n        /* \"#utility.yul\":12706:12708   */\n      0x20\n        /* \"#utility.yul\":12695:12704   */\n      dup3\n        /* \"#utility.yul\":12691:12709   */\n      add\n        /* \"#utility.yul\":12683:12709   */\n      swap1\n      pop\n        /* \"#utility.yul\":12755:12764   */\n      dup2\n        /* \"#utility.yul\":12749:12753   */\n      dup2\n        /* \"#utility.yul\":12745:12765   */\n      sub\n        /* \"#utility.yul\":12741:12742   */\n      0x00\n        /* \"#utility.yul\":12730:12739   */\n      dup4\n        /* \"#utility.yul\":12726:12743   */\n      add\n        /* \"#utility.yul\":12719:12766   */\n      mstore\n        /* \"#utility.yul\":12783:12914   */\n      tag_355\n        /* \"#utility.yul\":12909:12913   */\n      dup2\n        /* \"#utility.yul\":12783:12914   */\n      tag_220\n      jump\t// in\n    tag_355:\n        /* \"#utility.yul\":12775:12914   */\n      swap1\n      pop\n        /* \"#utility.yul\":12502:12921   */\n      swap2\n      swap1\n      pop\n      jump\t// out\n        /* \"#utility.yul\":12927:13097   */\n    tag_221:\n        /* \"#utility.yul\":13067:13089   */\n      0x496e73756666696369656e742062616c616e6365000000000000000000000000\n        /* \"#utility.yul\":13063:13064   */\n      0x00\n        /* \"#utility.yul\":13055:13061   */\n      dup3\n        /* \"#utility.yul\":13051:13065   */\n      add\n        /* \"#utility.yul\":13044:13090   */\n      mstore\n        /* \"#utility.yul\":12927:13097   */\n      pop\n      jump\t// out\n        /* \"#utility.yul\":13103:13469   */\n    tag_222:\n        /* \"#utility.yul\":13245:13248   */\n      0x00\n        /* \"#utility.yul\":13266:13333   */\n      tag_358\n        /* \"#utility.yul\":13330:13332   */\n      0x14\n        /* \"#utility.yul\":13325:13328   */\n      dup4\n        /* \"#utility.yul\":13266:13333   */\n      tag_184\n      jump\t// in\n    tag_358:\n        /* \"#utility.yul\":13259:13333   */\n      swap2\n      pop\n        /* \"#utility.yul\":13342:13435   */\n      tag_359\n        /* \"#utility.yul\":13431:13434   */\n      dup3\n        /* \"#utility.yul\":13342:13435   */\n      tag_221\n      jump\t// in\n    tag_359:\n        /* \"#utility.yul\":13460:13462   */\n      0x20\n        /* \"#utility.yul\":13455:13458   */\n      dup3\n        /* \"#utility.yul\":13451:13463   */\n      add\n        /* \"#utility.yul\":13444:13463   */\n      swap1\n      pop\n        /* \"#utility.yul\":13103:13469   */\n      swap2\n      swap1\n      pop\n      jump\t// out\n        /* \"#utility.yul\":13475:13894   */\n    tag_129:\n        /* \"#utility.yul\":13641:13645   */\n      0x00\n        /* \"#utility.yul\":13679:13681   */\n      0x20\n        /* \"#utility.yul\":13668:13677   */\n      dup3\n        /* \"#utility.yul\":13664:13682   */\n      add\n        /* \"#utility.yul\":13656:13682   */\n      swap1\n      pop\n        /* \"#utility.yul\":13728:13737   */\n      dup2\n        /* \"#utility.yul\":13722:13726   */\n      dup2\n        /* \"#utility.yul\":13718:13738   */\n      sub\n        /* \"#utility.yul\":13714:13715   */\n      0x00\n        /* \"#utility.yul\":13703:13712   */\n      dup4\n        /* \"#utility.yul\":13699:13716   */\n      add\n        /* \"#utility.yul\":13692:13739   */\n      mstore\n        /* \"#utility.yul\":13756:13887   */\n      tag_361\n        /* \"#utility.yul\":13882:13886   */\n      dup2\n        /* \"#utility.yul\":13756:13887   */\n      tag_222\n      jump\t// in\n    tag_361:\n        /* \"#utility.yul\":13748:13887   */\n      swap1\n      pop\n        /* \"#utility.yul\":13475:13894   */\n      swap2\n      swap1\n      pop\n      jump\t// out\n        /* \"#utility.yul\":13900:14047   */\n    tag_223:\n        /* \"#utility.yul\":14001:14012   */\n      0x00\n        /* \"#utility.yul\":14038:14041   */\n      dup2\n        /* \"#utility.yul\":14023:14041   */\n      swap1\n      pop\n        /* \"#utility.yul\":13900:14047   */\n      swap3\n      swap2\n      pop\n      pop\n      jump\t// out\n        /* \"#utility.yul\":14053:14167   */\n    tag_224:\n      pop\n      jump\t// out\n        /* \"#utility.yul\":14173:14571   */\n    tag_225:\n        /* \"#utility.yul\":14332:14335   */\n      0x00\n        /* \"#utility.yul\":14353:14436   */\n      tag_365\n        /* \"#utility.yul\":14434:14435   */\n      0x00\n        /* \"#utility.yul\":14429:14432   */\n      dup4\n        /* \"#utility.yul\":14353:14436   */\n      tag_223\n      jump\t// in\n    tag_365:\n        /* \"#utility.yul\":14346:14436   */\n      swap2\n      pop\n        /* \"#utility.yul\":14445:14538   */\n      tag_366\n        /* \"#utility.yul\":14534:14537   */\n      dup3\n        /* \"#utility.yul\":14445:14538   */\n      tag_224\n      jump\t// in\n    tag_366:\n        /* \"#utility.yul\":14563:14564   */\n      0x00\n        /* \"#utility.yul\":14558:14561   */\n      dup3\n        /* \"#utility.yul\":14554:14565   */\n      add\n        /* \"#utility.yul\":14547:14565   */\n      swap1\n      pop\n        /* \"#utility.yul\":14173:14571   */\n      swap2\n      swap1\n      pop\n      jump\t// out\n        /* \"#utility.yul\":14577:14956   */\n    tag_131:\n        /* \"#utility.yul\":14761:14764   */\n      0x00\n        /* \"#utility.yul\":14783:14930   */\n      tag_368\n        /* \"#utility.yul\":14926:14929   */\n      dup3\n        /* \"#utility.yul\":14783:14930   */\n      tag_225\n      jump\t// in\n    tag_368:\n        /* \"#utility.yul\":14776:14930   */\n      swap2\n      pop\n        /* \"#utility.yul\":14947:14950   */\n      dup2\n        /* \"#utility.yul\":14940:14950   */\n      swap1\n      pop\n        /* \"#utility.yul\":14577:14956   */\n      swap2\n      swap1\n      pop\n      jump\t// out\n        /* \"#utility.yul\":14962:15137   */\n    tag_226:\n        /* \"#utility.yul\":15102:15129   */\n      0x5061796d656e74206973206e6f74207375636365737366756c00000000000000\n        /* \"#utility.yul\":15098:15099   */\n      0x00\n        /* \"#utility.yul\":15090:15096   */\n      dup3\n        /* \"#utility.yul\":15086:15100   */\n      add\n        /* \"#utility.yul\":15079:15130   */\n      mstore\n        /* \"#utility.yul\":14962:15137   */\n      pop\n      jump\t// out\n        /* \"#utility.yul\":15143:15509   */\n    tag_227:\n        /* \"#utility.yul\":15285:15288   */\n      0x00\n        /* \"#utility.yul\":15306:15373   */\n      tag_371\n        /* \"#utility.yul\":15370:15372   */\n      0x19\n        /* \"#utility.yul\":15365:15368   */\n      dup4\n        /* \"#utility.yul\":15306:15373   */\n      tag_184\n      jump\t// in\n    tag_371:\n        /* \"#utility.yul\":15299:15373   */\n      swap2\n      pop\n        /* \"#utility.yul\":15382:15475   */\n      tag_372\n        /* \"#utility.yul\":15471:15474   */\n      dup3\n        /* \"#utility.yul\":15382:15475   */\n      tag_226\n      jump\t// in\n    tag_372:\n        /* \"#utility.yul\":15500:15502   */\n      0x20\n        /* \"#utility.yul\":15495:15498   */\n      dup3\n        /* \"#utility.yul\":15491:15503   */\n      add\n        /* \"#utility.yul\":15484:15503   */\n      swap1\n      pop\n        /* \"#utility.yul\":15143:15509   */\n      swap2\n      swap1\n      pop\n      jump\t// out\n        /* \"#utility.yul\":15515:15934   */\n    tag_137:\n        /* \"#utility.yul\":15681:15685   */\n      0x00\n        /* \"#utility.yul\":15719:15721   */\n      0x20\n        /* \"#utility.yul\":15708:15717   */\n      dup3\n        /* \"#utility.yul\":15704:15722   */\n      add\n        /* \"#utility.yul\":15696:15722   */\n      swap1\n      pop\n        /* \"#utility.yul\":15768:15777   */\n      dup2\n        /* \"#utility.yul\":15762:15766   */\n      dup2\n        /* \"#utility.yul\":15758:15778   */\n      sub\n        /* \"#utility.yul\":15754:15755   */\n      0x00\n        /* \"#utility.yul\":15743:15752   */\n      dup4\n        /* \"#utility.yul\":15739:15756   */\n      add\n        /* \"#utility.yul\":15732:15779   */\n      mstore\n        /* \"#utility.yul\":15796:15927   */\n      tag_374\n        /* \"#utility.yul\":15922:15926   */\n      dup2\n        /* \"#utility.yul\":15796:15927   */\n      tag_227\n      jump\t// in\n    tag_374:\n        /* \"#utility.yul\":15788:15927   */\n      swap1\n      pop\n        /* \"#utility.yul\":15515:15934   */\n      swap2\n      swap1\n      pop\n      jump\t// out\n        /* \"#utility.yul\":15940:16106   */\n    tag_228:\n        /* \"#utility.yul\":16080:16098   */\n      0x4e6f20636f6e747269627574696f6e7300000000000000000000000000000000\n        /* \"#utility.yul\":16076:16077   */\n      0x00\n        /* \"#utility.yul\":16068:16074   */\n      dup3\n        /* \"#utility.yul\":16064:16078   */\n      add\n        /* \"#utility.yul\":16057:16099   */\n      mstore\n        /* \"#utility.yul\":15940:16106   */\n      pop\n      jump\t// out\n        /* \"#utility.yul\":16112:16478   */\n    tag_229:\n        /* \"#utility.yul\":16254:16257   */\n      0x00\n        /* \"#utility.yul\":16275:16342   */\n      tag_377\n        /* \"#utility.yul\":16339:16341   */\n      0x10\n        /* \"#utility.yul\":16334:16337   */\n      dup4\n        /* \"#utility.yul\":16275:16342   */\n      tag_184\n      jump\t// in\n    tag_377:\n        /* \"#utility.yul\":16268:16342   */\n      swap2\n      pop\n        /* \"#utility.yul\":16351:16444   */\n      tag_378\n        /* \"#utility.yul\":16440:16443   */\n      dup3\n        /* \"#utility.yul\":16351:16444   */\n      tag_228\n      jump\t// in\n    tag_378:\n        /* \"#utility.yul\":16469:16471   */\n      0x20\n        /* \"#utility.yul\":16464:16467   */\n      dup3\n        /* \"#utility.yul\":16460:16472   */\n      add\n        /* \"#utility.yul\":16453:16472   */\n      swap1\n      pop\n        /* \"#utility.yul\":16112:16478   */\n      swap2\n      swap1\n      pop\n      jump\t// out\n        /* \"#utility.yul\":16484:16903   */\n    tag_141:\n        /* \"#utility.yul\":16650:16654   */\n      0x00\n        /* \"#utility.yul\":16688:16690   */\n      0x20\n        /* \"#utility.yul\":16677:16686   */\n      dup3\n        /* \"#utility.yul\":16673:16691   */\n      add\n        /* \"#utility.yul\":16665:16691   */\n      swap1\n      pop\n        /* \"#utility.yul\":16737:16746   */\n      dup2\n        /* \"#utility.yul\":16731:16735   */\n      dup2\n        /* \"#utility.yul\":16727:16747   */\n      sub\n        /* \"#utility.yul\":16723:16724   */\n      0x00\n        /* \"#utility.yul\":16712:16721   */\n      dup4\n        /* \"#utility.yul\":16708:16725   */\n      add\n        /* \"#utility.yul\":16701:16748   */\n      mstore\n        /* \"#utility.yul\":16765:16896   */\n      tag_380\n        /* \"#utility.yul\":16891:16895   */\n      dup2\n        /* \"#utility.yul\":16765:16896   */\n      tag_229\n      jump\t// in\n    tag_380:\n        /* \"#utility.yul\":16757:16896   */\n      swap1\n      pop\n        /* \"#utility.yul\":16484:16903   */\n      swap2\n      swap1\n      pop\n      jump\t// out\n        /* \"#utility.yul\":16909:17079   */\n    tag_230:\n        /* \"#utility.yul\":17049:17071   */\n      0x53616c65206973207374696c6c20616374697665000000000000000000000000\n        /* \"#utility.yul\":17045:17046   */\n      0x00\n        /* \"#utility.yul\":17037:17043   */\n      dup3\n        /* \"#utility.yul\":17033:17047   */\n      add\n        /* \"#utility.yul\":17026:17072   */\n      mstore\n        /* \"#utility.yul\":16909:17079   */\n      pop\n      jump\t// out\n        /* \"#utility.yul\":17085:17451   */\n    tag_231:\n        /* \"#utility.yul\":17227:17230   */\n      0x00\n        /* \"#utility.yul\":17248:17315   */\n      tag_383\n        /* \"#utility.yul\":17312:17314   */\n      0x14\n        /* \"#utility.yul\":17307:17310   */\n      dup4\n        /* \"#utility.yul\":17248:17315   */\n      tag_184\n      jump\t// in\n    tag_383:\n        /* \"#utility.yul\":17241:17315   */\n      swap2\n      pop\n        /* \"#utility.yul\":17324:17417   */\n      tag_384\n        /* \"#utility.yul\":17413:17416   */\n      dup3\n        /* \"#utility.yul\":17324:17417   */\n      tag_230\n      jump\t// in\n    tag_384:\n        /* \"#utility.yul\":17442:17444   */\n      0x20\n        /* \"#utility.yul\":17437:17440   */\n      dup3\n        /* \"#utility.yul\":17433:17445   */\n      add\n        /* \"#utility.yul\":17426:17445   */\n      swap1\n      pop\n        /* \"#utility.yul\":17085:17451   */\n      swap2\n      swap1\n      pop\n      jump\t// out\n        /* \"#utility.yul\":17457:17876   */\n    tag_144:\n        /* \"#utility.yul\":17623:17627   */\n      0x00\n        /* \"#utility.yul\":17661:17663   */\n      0x20\n        /* \"#utility.yul\":17650:17659   */\n      dup3\n        /* \"#utility.yul\":17646:17664   */\n      add\n        /* \"#utility.yul\":17638:17664   */\n      swap1\n      pop\n        /* \"#utility.yul\":17710:17719   */\n      dup2\n        /* \"#utility.yul\":17704:17708   */\n      dup2\n        /* \"#utility.yul\":17700:17720   */\n      sub\n        /* \"#utility.yul\":17696:17697   */\n      0x00\n        /* \"#utility.yul\":17685:17694   */\n      dup4\n        /* \"#utility.yul\":17681:17698   */\n      add\n        /* \"#utility.yul\":17674:17721   */\n      mstore\n        /* \"#utility.yul\":17738:17869   */\n      tag_386\n        /* \"#utility.yul\":17864:17868   */\n      dup2\n        /* \"#utility.yul\":17738:17869   */\n      tag_231\n      jump\t// in\n    tag_386:\n        /* \"#utility.yul\":17730:17869   */\n      swap1\n      pop\n        /* \"#utility.yul\":17457:17876   */\n      swap2\n      swap1\n      pop\n      jump\t// out\n        /* \"#utility.yul\":17882:18214   */\n    tag_148:\n        /* \"#utility.yul\":18003:18007   */\n      0x00\n        /* \"#utility.yul\":18041:18043   */\n      0x40\n        /* \"#utility.yul\":18030:18039   */\n      dup3\n        /* \"#utility.yul\":18026:18044   */\n      add\n        /* \"#utility.yul\":18018:18044   */\n      swap1\n      pop\n        /* \"#utility.yul\":18054:18125   */\n      tag_388\n        /* \"#utility.yul\":18122:18123   */\n      0x00\n        /* \"#utility.yul\":18111:18120   */\n      dup4\n        /* \"#utility.yul\":18107:18124   */\n      add\n        /* \"#utility.yul\":18098:18104   */\n      dup6\n        /* \"#utility.yul\":18054:18125   */\n      tag_200\n      jump\t// in\n    tag_388:\n        /* \"#utility.yul\":18135:18207   */\n      tag_389\n        /* \"#utility.yul\":18203:18205   */\n      0x20\n        /* \"#utility.yul\":18192:18201   */\n      dup4\n        /* \"#utility.yul\":18188:18206   */\n      add\n        /* \"#utility.yul\":18179:18185   */\n      dup5\n        /* \"#utility.yul\":18135:18207   */\n      tag_193\n      jump\t// in\n    tag_389:\n        /* \"#utility.yul\":17882:18214   */\n      swap4\n      swap3\n      pop\n      pop\n      pop\n      jump\t// out\n        /* \"#utility.yul\":18220:18336   */\n    tag_232:\n        /* \"#utility.yul\":18290:18311   */\n      tag_391\n        /* \"#utility.yul\":18305:18310   */\n      dup2\n        /* \"#utility.yul\":18290:18311   */\n      tag_198\n      jump\t// in\n    tag_391:\n        /* \"#utility.yul\":18283:18288   */\n      dup2\n        /* \"#utility.yul\":18280:18312   */\n      eq\n        /* \"#utility.yul\":18270:18330   */\n      tag_392\n      jumpi\n        /* \"#utility.yul\":18326:18327   */\n      0x00\n        /* \"#utility.yul\":18323:18324   */\n      dup1\n        /* \"#utility.yul\":18316:18328   */\n      revert\n        /* \"#utility.yul\":18270:18330   */\n    tag_392:\n        /* \"#utility.yul\":18220:18336   */\n      pop\n      jump\t// out\n        /* \"#utility.yul\":18342:18479   */\n    tag_233:\n        /* \"#utility.yul\":18396:18401   */\n      0x00\n        /* \"#utility.yul\":18427:18433   */\n      dup2\n        /* \"#utility.yul\":18421:18434   */\n      mload\n        /* \"#utility.yul\":18412:18434   */\n      swap1\n      pop\n        /* \"#utility.yul\":18443:18473   */\n      tag_394\n        /* \"#utility.yul\":18467:18472   */\n      dup2\n        /* \"#utility.yul\":18443:18473   */\n      tag_232\n      jump\t// in\n    tag_394:\n        /* \"#utility.yul\":18342:18479   */\n      swap3\n      swap2\n      pop\n      pop\n      jump\t// out\n        /* \"#utility.yul\":18485:18830   */\n    tag_152:\n        /* \"#utility.yul\":18552:18558   */\n      0x00\n        /* \"#utility.yul\":18601:18603   */\n      0x20\n        /* \"#utility.yul\":18589:18598   */\n      dup3\n        /* \"#utility.yul\":18580:18587   */\n      dup5\n        /* \"#utility.yul\":18576:18599   */\n      sub\n        /* \"#utility.yul\":18572:18604   */\n      slt\n        /* \"#utility.yul\":18569:18688   */\n      iszero\n      tag_396\n      jumpi\n        /* \"#utility.yul\":18607:18686   */\n      tag_397\n      tag_188\n      jump\t// in\n    tag_397:\n        /* \"#utility.yul\":18569:18688   */\n    tag_396:\n        /* \"#utility.yul\":18727:18728   */\n      0x00\n        /* \"#utility.yul\":18752:18813   */\n      tag_398\n        /* \"#utility.yul\":18805:18812   */\n      dup5\n        /* \"#utility.yul\":18796:18802   */\n      dup3\n        /* \"#utility.yul\":18785:18794   */\n      dup6\n        /* \"#utility.yul\":18781:18803   */\n      add\n        /* \"#utility.yul\":18752:18813   */\n      tag_233\n      jump\t// in\n    tag_398:\n        /* \"#utility.yul\":18742:18813   */\n      swap2\n      pop\n        /* \"#utility.yul\":18698:18823   */\n      pop\n        /* \"#utility.yul\":18485:18830   */\n      swap3\n      swap2\n      pop\n      pop\n      jump\t// out\n        /* \"#utility.yul\":18836:19007   */\n    tag_234:\n        /* \"#utility.yul\":18976:18999   */\n      0x546f6b656e207472616e73666572206661696c65640000000000000000000000\n        /* \"#utility.yul\":18972:18973   */\n      0x00\n        /* \"#utility.yul\":18964:18970   */\n      dup3\n        /* \"#utility.yul\":18960:18974   */\n      add\n        /* \"#utility.yul\":18953:19000   */\n      mstore\n        /* \"#utility.yul\":18836:19007   */\n      pop\n      jump\t// out\n        /* \"#utility.yul\":19013:19379   */\n    tag_235:\n        /* \"#utility.yul\":19155:19158   */\n      0x00\n        /* \"#utility.yul\":19176:19243   */\n      tag_401\n        /* \"#utility.yul\":19240:19242   */\n      0x15\n        /* \"#utility.yul\":19235:19238   */\n      dup4\n        /* \"#utility.yul\":19176:19243   */\n      tag_184\n      jump\t// in\n    tag_401:\n        /* \"#utility.yul\":19169:19243   */\n      swap2\n      pop\n        /* \"#utility.yul\":19252:19345   */\n      tag_402\n        /* \"#utility.yul\":19341:19344   */\n      dup3\n        /* \"#utility.yul\":19252:19345   */\n      tag_234\n      jump\t// in\n    tag_402:\n        /* \"#utility.yul\":19370:19372   */\n      0x20\n        /* \"#utility.yul\":19365:19368   */\n      dup3\n        /* \"#utility.yul\":19361:19373   */\n      add\n        /* \"#utility.yul\":19354:19373   */\n      swap1\n      pop\n        /* \"#utility.yul\":19013:19379   */\n      swap2\n      swap1\n      pop\n      jump\t// out\n        /* \"#utility.yul\":19385:19804   */\n    tag_155:\n        /* \"#utility.yul\":19551:19555   */\n      0x00\n        /* \"#utility.yul\":19589:19591   */\n      0x20\n        /* \"#utility.yul\":19578:19587   */\n      dup3\n        /* \"#utility.yul\":19574:19592   */\n      add\n        /* \"#utility.yul\":19566:19592   */\n      swap1\n      pop\n        /* \"#utility.yul\":19638:19647   */\n      dup2\n        /* \"#utility.yul\":19632:19636   */\n      dup2\n        /* \"#utility.yul\":19628:19648   */\n      sub\n        /* \"#utility.yul\":19624:19625   */\n      0x00\n        /* \"#utility.yul\":19613:19622   */\n      dup4\n        /* \"#utility.yul\":19609:19626   */\n      add\n        /* \"#utility.yul\":19602:19649   */\n      mstore\n        /* \"#utility.yul\":19666:19797   */\n      tag_404\n        /* \"#utility.yul\":19792:19796   */\n      dup2\n        /* \"#utility.yul\":19666:19797   */\n      tag_235\n      jump\t// in\n    tag_404:\n        /* \"#utility.yul\":19658:19797   */\n      swap1\n      pop\n        /* \"#utility.yul\":19385:19804   */\n      swap2\n      swap1\n      pop\n      jump\t// out\n        /* \"#utility.yul\":19810:19953   */\n    tag_236:\n        /* \"#utility.yul\":19867:19872   */\n      0x00\n        /* \"#utility.yul\":19898:19904   */\n      dup2\n        /* \"#utility.yul\":19892:19905   */\n      mload\n        /* \"#utility.yul\":19883:19905   */\n      swap1\n      pop\n        /* \"#utility.yul\":19914:19947   */\n      tag_406\n        /* \"#utility.yul\":19941:19946   */\n      dup2\n        /* \"#utility.yul\":19914:19947   */\n      tag_191\n      jump\t// in\n    tag_406:\n        /* \"#utility.yul\":19810:19953   */\n      swap3\n      swap2\n      pop\n      pop\n      jump\t// out\n        /* \"#utility.yul\":19959:20310   */\n    tag_163:\n        /* \"#utility.yul\":20029:20035   */\n      0x00\n        /* \"#utility.yul\":20078:20080   */\n      0x20\n        /* \"#utility.yul\":20066:20075   */\n      dup3\n        /* \"#utility.yul\":20057:20064   */\n      dup5\n        /* \"#utility.yul\":20053:20076   */\n      sub\n        /* \"#utility.yul\":20049:20081   */\n      slt\n        /* \"#utility.yul\":20046:20165   */\n      iszero\n      tag_408\n      jumpi\n        /* \"#utility.yul\":20084:20163   */\n      tag_409\n      tag_188\n      jump\t// in\n    tag_409:\n        /* \"#utility.yul\":20046:20165   */\n    tag_408:\n        /* \"#utility.yul\":20204:20205   */\n      0x00\n        /* \"#utility.yul\":20229:20293   */\n      tag_410\n        /* \"#utility.yul\":20285:20292   */\n      dup5\n        /* \"#utility.yul\":20276:20282   */\n      dup3\n        /* \"#utility.yul\":20265:20274   */\n      dup6\n        /* \"#utility.yul\":20261:20283   */\n      add\n        /* \"#utility.yul\":20229:20293   */\n      tag_236\n      jump\t// in\n    tag_410:\n        /* \"#utility.yul\":20219:20293   */\n      swap2\n      pop\n        /* \"#utility.yul\":20175:20303   */\n      pop\n        /* \"#utility.yul\":19959:20310   */\n      swap3\n      swap2\n      pop\n      pop\n      jump\t// out\n        /* \"#utility.yul\":20316:20492   */\n    tag_237:\n        /* \"#utility.yul\":20456:20484   */\n      0x496e73756666696369656e7420746f6b656e2062616c616e6365000000000000\n        /* \"#utility.yul\":20452:20453   */\n      0x00\n        /* \"#utility.yul\":20444:20450   */\n      dup3\n        /* \"#utility.yul\":20440:20454   */\n      add\n        /* \"#utility.yul\":20433:20485   */\n      mstore\n        /* \"#utility.yul\":20316:20492   */\n      pop\n      jump\t// out\n        /* \"#utility.yul\":20498:20864   */\n    tag_238:\n        /* \"#utility.yul\":20640:20643   */\n      0x00\n        /* \"#utility.yul\":20661:20728   */\n      tag_413\n        /* \"#utility.yul\":20725:20727   */\n      0x1a\n        /* \"#utility.yul\":20720:20723   */\n      dup4\n        /* \"#utility.yul\":20661:20728   */\n      tag_184\n      jump\t// in\n    tag_413:\n        /* \"#utility.yul\":20654:20728   */\n      swap2\n      pop\n        /* \"#utility.yul\":20737:20830   */\n      tag_414\n        /* \"#utility.yul\":20826:20829   */\n      dup3\n        /* \"#utility.yul\":20737:20830   */\n      tag_237\n      jump\t// in\n    tag_414:\n        /* \"#utility.yul\":20855:20857   */\n      0x20\n        /* \"#utility.yul\":20850:20853   */\n      dup3\n        /* \"#utility.yul\":20846:20858   */\n      add\n        /* \"#utility.yul\":20839:20858   */\n      swap1\n      pop\n        /* \"#utility.yul\":20498:20864   */\n      swap2\n      swap1\n      pop\n      jump\t// out\n        /* \"#utility.yul\":20870:21289   */\n    tag_174:\n        /* \"#utility.yul\":21036:21040   */\n      0x00\n        /* \"#utility.yul\":21074:21076   */\n      0x20\n        /* \"#utility.yul\":21063:21072   */\n      dup3\n        /* \"#utility.yul\":21059:21077   */\n      add\n        /* \"#utility.yul\":21051:21077   */\n      swap1\n      pop\n        /* \"#utility.yul\":21123:21132   */\n      dup2\n        /* \"#utility.yul\":21117:21121   */\n      dup2\n        /* \"#utility.yul\":21113:21133   */\n      sub\n        /* \"#utility.yul\":21109:21110   */\n      0x00\n        /* \"#utility.yul\":21098:21107   */\n      dup4\n        /* \"#utility.yul\":21094:21111   */\n      add\n        /* \"#utility.yul\":21087:21134   */\n      mstore\n        /* \"#utility.yul\":21151:21282   */\n      tag_416\n        /* \"#utility.yul\":21277:21281   */\n      dup2\n        /* \"#utility.yul\":21151:21282   */\n      tag_238\n      jump\t// in\n    tag_416:\n        /* \"#utility.yul\":21143:21282   */\n      swap1\n      pop\n        /* \"#utility.yul\":20870:21289   */\n      swap2\n      swap1\n      pop\n      jump\t// out\n        /* \"#utility.yul\":21295:21705   */\n    tag_183:\n        /* \"#utility.yul\":21335:21342   */\n      0x00\n        /* \"#utility.yul\":21358:21378   */\n      tag_418\n        /* \"#utility.yul\":21376:21377   */\n      dup3\n        /* \"#utility.yul\":21358:21378   */\n      tag_190\n      jump\t// in\n    tag_418:\n        /* \"#utility.yul\":21353:21378   */\n      swap2\n      pop\n        /* \"#utility.yul\":21392:21412   */\n      tag_419\n        /* \"#utility.yul\":21410:21411   */\n      dup4\n        /* \"#utility.yul\":21392:21412   */\n      tag_190\n      jump\t// in\n    tag_419:\n        /* \"#utility.yul\":21387:21412   */\n      swap3\n      pop\n        /* \"#utility.yul\":21447:21448   */\n      dup3\n        /* \"#utility.yul\":21444:21445   */\n      dup3\n        /* \"#utility.yul\":21440:21449   */\n      mul\n        /* \"#utility.yul\":21469:21499   */\n      tag_420\n        /* \"#utility.yul\":21487:21498   */\n      dup2\n        /* \"#utility.yul\":21469:21499   */\n      tag_190\n      jump\t// in\n    tag_420:\n        /* \"#utility.yul\":21458:21499   */\n      swap2\n      pop\n        /* \"#utility.yul\":21648:21649   */\n      dup3\n        /* \"#utility.yul\":21639:21646   */\n      dup3\n        /* \"#utility.yul\":21635:21650   */\n      div\n        /* \"#utility.yul\":21632:21633   */\n      dup5\n        /* \"#utility.yul\":21629:21651   */\n      eq\n        /* \"#utility.yul\":21609:21610   */\n      dup4\n        /* \"#utility.yul\":21602:21611   */\n      iszero\n        /* \"#utility.yul\":21582:21665   */\n      or\n        /* \"#utility.yul\":21559:21698   */\n      tag_421\n      jumpi\n        /* \"#utility.yul\":21678:21696   */\n      tag_422\n      tag_214\n      jump\t// in\n    tag_422:\n        /* \"#utility.yul\":21559:21698   */\n    tag_421:\n        /* \"#utility.yul\":21343:21705   */\n      pop\n        /* \"#utility.yul\":21295:21705   */\n      swap3\n      swap2\n      pop\n      pop\n      jump\t// out\n\n    auxdata: 0xa26469706673582212208d12d2dade1c7fd2a46a4b4abfe94652e5c16b044d98b2379792ad2f51b4bedd64736f6c63430008180033\n}\n",
				"bytecode": {
					"linkReferences": {},
					"object": "608060405234801562000010575f80fd5b5060405162001a4138038062001a418339818101604052810190620000369190620001b9565b335f806101000a81548173ffffffffffffffffffffffffffffffffffffffff021916908373ffffffffffffffffffffffffffffffffffffffff16021790555080600260016101000a81548173ffffffffffffffffffffffffffffffffffffffff021916908373ffffffffffffffffffffffffffffffffffffffff160217905550600160025f6101000a81548160ff021916908315150217905550670de0b6b3a764000060045f600181526020019081526020015f2081905550674563918244f4000060045f600281526020019081526020015f2081905550678ac7230489e8000060045f600381526020019081526020015f20819055506801158e460913d0000060045f600481526020019081526020015f208190555050620001e9565b5f80fd5b5f73ffffffffffffffffffffffffffffffffffffffff82169050919050565b5f620001838262000158565b9050919050565b620001958162000177565b8114620001a0575f80fd5b50565b5f81519050620001b3816200018a565b92915050565b5f60208284031215620001d157620001d062000154565b5b5f620001e084828501620001a3565b91505092915050565b61184a80620001f75f395ff3fe6080604052600436106100eb575f3560e01c80636e947298116100895780639e281a98116100585780639e281a98146102e9578063cc1f2afa14610311578063f32a914c1461033b578063fc0c546a146103655761012b565b80636e9472981461024157806382b2e2571461026b5780638da5cb5b146102955780639106d7ba146102bf5761012b565b806342e94c90116100c557806342e94c901461019d5780634782f779146101d957806348c54b9d1461020157806368428a1b146102175761012b565b806320e9daf11461012f5780633610724e1461016b578063380d831b146101875761012b565b3661012b576040517f08c379a000000000000000000000000000000000000000000000000000000000815260040161012290610ec2565b60405180910390fd5b5f80fd5b34801561013a575f80fd5b5061015560048036038101906101509190610f17565b61038f565b6040516101629190610f51565b60405180910390f35b61018560048036038101906101809190610f17565b6103a4565b005b348015610192575f80fd5b5061019b610656565b005b3480156101a8575f80fd5b506101c360048036038101906101be9190610fc4565b6106fe565b6040516101d09190610f51565b60405180910390f35b3480156101e4575f80fd5b506101ff60048036038101906101fa9190610fef565b610713565b005b34801561020c575f80fd5b50610215610890565b005b348015610222575f80fd5b5061022b610ae3565b6040516102389190611047565b60405180910390f35b34801561024c575f80fd5b50610255610af5565b6040516102629190610f51565b60405180910390f35b348015610276575f80fd5b5061027f610afc565b60405161028c9190610f51565b60405180910390f35b3480156102a0575f80fd5b506102a9610b9c565b6040516102b6919061106f565b60405180910390f35b3480156102ca575f80fd5b506102d3610bbf565b6040516102e09190610f51565b60405180910390f35b3480156102f4575f80fd5b5061030f600480360381019061030a9190610fef565b610bc5565b005b34801561031c575f80fd5b50610325610e13565b6040516103329190610f51565b60405180910390f35b348015610346575f80fd5b5061034f610e20565b60405161035c9190610f51565b60405180910390f35b348015610370575f80fd5b50610379610e2c565b60405161038691906110e3565b60405180910390f35b6004602052805f5260405f205f915090505481565b60025f9054906101000a900460ff166103f2576040517f08c379a00000000000000000000000000000000000000000000000000000000081526004016103e990611146565b60405180910390fd5b60018110158015610404575060048111155b610443576040517f08c379a000000000000000000000000000000000000000000000000000000000815260040161043a906111ae565b60405180910390fd5b67016345785d8a000034101561048e576040517f08c379a000000000000000000000000000000000000000000000000000000000815260040161048590611216565b60405180910390fd5b60045f8281526020019081526020015f20543411156104e2576040517f08c379a00000000000000000000000000000000000000000000000000000000081526004016104d99061127e565b60405180910390fd5b60045f6001836104f291906112c9565b81526020019081526020015f20543411610541576040517f08c379a000000000000000000000000000000000000000000000000000000000815260040161053890611346565b60405180910390fd5b681b1ae4d6e2ef500000346001546105599190611364565b111561059a576040517f08c379a0000000000000000000000000000000000000000000000000000000008152600401610591906113e1565b60405180910390fd5b3460035f3373ffffffffffffffffffffffffffffffffffffffff1673ffffffffffffffffffffffffffffffffffffffff1681526020019081526020015f205f8282546105e69190611364565b925050819055503460015f8282546105fe9190611364565b925050819055503373ffffffffffffffffffffffffffffffffffffffff167f8f28852646c20cc973d3a8218f7eefed58c25c909f78f0265af4818c3d4dc2713460405161064b9190610f51565b60405180910390a250565b5f8054906101000a900473ffffffffffffffffffffffffffffffffffffffff1673ffffffffffffffffffffffffffffffffffffffff163373ffffffffffffffffffffffffffffffffffffffff16146106e3576040517f08c379a00000000000000000000000000000000000000000000000000000000081526004016106da90611449565b60405180910390fd5b5f60025f6101000a81548160ff021916908315150217905550565b6003602052805f5260405f205f915090505481565b5f8054906101000a900473ffffffffffffffffffffffffffffffffffffffff1673ffffffffffffffffffffffffffffffffffffffff163373ffffffffffffffffffffffffffffffffffffffff16146107a0576040517f08c379a000000000000000000000000000000000000000000000000000000000815260040161079790611449565b60405180910390fd5b804710156107e3576040517f08c379a00000000000000000000000000000000000000000000000000000000081526004016107da906114b1565b60405180910390fd5b5f8273ffffffffffffffffffffffffffffffffffffffff1682604051610808906114fc565b5f6040518083038185875af1925050503d805f8114610842576040519150601f19603f3d011682016040523d82523d5f602084013e610847565b606091505b505090508061088b576040517f08c379a00000000000000000000000000000000000000000000000000000000081526004016108829061155a565b60405180910390fd5b505050565b5f60035f3373ffffffffffffffffffffffffffffffffffffffff1673ffffffffffffffffffffffffffffffffffffffff1681526020019081526020015f205490505f8111610913576040517f08c379a000000000000000000000000000000000000000000000000000000000815260040161090a906115c2565b60405180910390fd5b60025f9054906101000a900460ff1615610962576040517f08c379a00000000000000000000000000000000000000000000000000000000081526004016109599061162a565b60405180910390fd5b5f61096c82610e52565b90505f60035f3373ffffffffffffffffffffffffffffffffffffffff1673ffffffffffffffffffffffffffffffffffffffff1681526020019081526020015f20819055505f600260019054906101000a900473ffffffffffffffffffffffffffffffffffffffff1673ffffffffffffffffffffffffffffffffffffffff1663a9059cbb33846040518363ffffffff1660e01b8152600401610a0e929190611648565b6020604051808303815f875af1158015610a2a573d5f803e3d5ffd5b505050506040513d601f19601f82011682018060405250810190610a4e9190611699565b905080610a90576040517f08c379a0000000000000000000000000000000000000000000000000000000008152600401610a879061170e565b60405180910390fd5b3373ffffffffffffffffffffffffffffffffffffffff167f896e034966eaaf1adc54acc0f257056febbd300c9e47182cf761982cf1f5e43083604051610ad69190610f51565b60405180910390a2505050565b60025f9054906101000a900460ff1681565b5f47905090565b5f600260019054906101000a900473ffffffffffffffffffffffffffffffffffffffff1673ffffffffffffffffffffffffffffffffffffffff166370a08231306040518263ffffffff1660e01b8152600401610b58919061106f565b602060405180830381865afa158015610b73573d5f803e3d5ffd5b505050506040513d601f19601f82011682018060405250810190610b979190611740565b905090565b5f8054906101000a900473ffffffffffffffffffffffffffffffffffffffff1681565b60015481565b5f8054906101000a900473ffffffffffffffffffffffffffffffffffffffff1673ffffffffffffffffffffffffffffffffffffffff163373ffffffffffffffffffffffffffffffffffffffff1614610c52576040517f08c379a0000000000000000000000000000000000000000000000000000000008152600401610c4990611449565b60405180910390fd5b80600260019054906101000a900473ffffffffffffffffffffffffffffffffffffffff1673ffffffffffffffffffffffffffffffffffffffff166370a08231306040518263ffffffff1660e01b8152600401610cae919061106f565b602060405180830381865afa158015610cc9573d5f803e3d5ffd5b505050506040513d601f19601f82011682018060405250810190610ced9190611740565b1015610d2e576040517f08c379a0000000000000000000000000000000000000000000000000000000008152600401610d25906117b5565b60405180910390fd5b5f600260019054906101000a900473ffffffffffffffffffffffffffffffffffffffff1673ffffffffffffffffffffffffffffffffffffffff1663a9059cbb84846040518363ffffffff1660e01b8152600401610d8c929190611648565b6020604051808303815f875af1158015610da8573d5f803e3d5ffd5b505050506040513d601f19601f82011682018060405250810190610dcc9190611699565b905080610e0e576040517f08c379a0000000000000000000000000000000000000000000000000000000008152600401610e059061170e565b60405180910390fd5b505050565b681b1ae4d6e2ef50000081565b67016345785d8a000081565b600260019054906101000a900473ffffffffffffffffffffffffffffffffffffffff1681565b5f6103e882610e6191906117d3565b9050919050565b5f82825260208201905092915050565b7f4469726563742073656e64696e67204554487320646973616c6c6f77656400005f82015250565b5f610eac601e83610e68565b9150610eb782610e78565b602082019050919050565b5f6020820190508181035f830152610ed981610ea0565b9050919050565b5f80fd5b5f819050919050565b610ef681610ee4565b8114610f00575f80fd5b50565b5f81359050610f1181610eed565b92915050565b5f60208284031215610f2c57610f2b610ee0565b5b5f610f3984828501610f03565b91505092915050565b610f4b81610ee4565b82525050565b5f602082019050610f645f830184610f42565b92915050565b5f73ffffffffffffffffffffffffffffffffffffffff82169050919050565b5f610f9382610f6a565b9050919050565b610fa381610f89565b8114610fad575f80fd5b50565b5f81359050610fbe81610f9a565b92915050565b5f60208284031215610fd957610fd8610ee0565b5b5f610fe684828501610fb0565b91505092915050565b5f806040838503121561100557611004610ee0565b5b5f61101285828601610fb0565b925050602061102385828601610f03565b9150509250929050565b5f8115159050919050565b6110418161102d565b82525050565b5f60208201905061105a5f830184611038565b92915050565b61106981610f89565b82525050565b5f6020820190506110825f830184611060565b92915050565b5f819050919050565b5f6110ab6110a66110a184610f6a565b611088565b610f6a565b9050919050565b5f6110bc82611091565b9050919050565b5f6110cd826110b2565b9050919050565b6110dd816110c3565b82525050565b5f6020820190506110f65f8301846110d4565b92915050565b7f53616c65206973206e6f742061637469766500000000000000000000000000005f82015250565b5f611130601283610e68565b915061113b826110fc565b602082019050919050565b5f6020820190508181035f83015261115d81611124565b9050919050565b7f496e76616c6964207469657200000000000000000000000000000000000000005f82015250565b5f611198600c83610e68565b91506111a382611164565b602082019050919050565b5f6020820190508181035f8301526111c58161118c565b9050919050565b7f4d7573742065786365656420746865206d696e696d756d20616d6f756e7400005f82015250565b5f611200601e83610e68565b915061120b826111cc565b602082019050919050565b5f6020820190508181035f83015261122d816111f4565b9050919050565b7f457863656564732074696572206c696d697400000000000000000000000000005f82015250565b5f611268601283610e68565b915061127382611234565b602082019050919050565b5f6020820190508181035f8301526112958161125c565b9050919050565b7f4e487b71000000000000000000000000000000000000000000000000000000005f52601160045260245ffd5b5f6112d382610ee4565b91506112de83610ee4565b92508282039050818111156112f6576112f561129c565b5b92915050565b7f53686f756c642067726561746572207468616e206c61737420746965720000005f82015250565b5f611330601d83610e68565b915061133b826112fc565b602082019050919050565b5f6020820190508181035f83015261135d81611324565b9050919050565b5f61136e82610ee4565b915061137983610ee4565b92508282019050808211156113915761139061129c565b5b92915050565b7f45786365656473207461726765740000000000000000000000000000000000005f82015250565b5f6113cb600e83610e68565b91506113d682611397565b602082019050919050565b5f6020820190508181035f8301526113f8816113bf565b9050919050565b7f4e6f74206f776e657200000000000000000000000000000000000000000000005f82015250565b5f611433600983610e68565b915061143e826113ff565b602082019050919050565b5f6020820190508181035f83015261146081611427565b9050919050565b7f496e73756666696369656e742062616c616e63650000000000000000000000005f82015250565b5f61149b601483610e68565b91506114a682611467565b602082019050919050565b5f6020820190508181035f8301526114c88161148f565b9050919050565b5f81905092915050565b50565b5f6114e75f836114cf565b91506114f2826114d9565b5f82019050919050565b5f611506826114dc565b9150819050919050565b7f5061796d656e74206973206e6f74207375636365737366756c000000000000005f82015250565b5f611544601983610e68565b915061154f82611510565b602082019050919050565b5f6020820190508181035f83015261157181611538565b9050919050565b7f4e6f20636f6e747269627574696f6e73000000000000000000000000000000005f82015250565b5f6115ac601083610e68565b91506115b782611578565b602082019050919050565b5f6020820190508181035f8301526115d9816115a0565b9050919050565b7f53616c65206973207374696c6c206163746976650000000000000000000000005f82015250565b5f611614601483610e68565b915061161f826115e0565b602082019050919050565b5f6020820190508181035f83015261164181611608565b9050919050565b5f60408201905061165b5f830185611060565b6116686020830184610f42565b9392505050565b6116788161102d565b8114611682575f80fd5b50565b5f815190506116938161166f565b92915050565b5f602082840312156116ae576116ad610ee0565b5b5f6116bb84828501611685565b91505092915050565b7f546f6b656e207472616e73666572206661696c656400000000000000000000005f82015250565b5f6116f8601583610e68565b9150611703826116c4565b602082019050919050565b5f6020820190508181035f830152611725816116ec565b9050919050565b5f8151905061173a81610eed565b92915050565b5f6020828403121561175557611754610ee0565b5b5f6117628482850161172c565b91505092915050565b7f496e73756666696369656e7420746f6b656e2062616c616e63650000000000005f82015250565b5f61179f601a83610e68565b91506117aa8261176b565b602082019050919050565b5f6020820190508181035f8301526117cc81611793565b9050919050565b5f6117dd82610ee4565b91506117e883610ee4565b92508282026117f681610ee4565b9150828204841483151761180d5761180c61129c565b5b509291505056fea26469706673582212208d12d2dade1c7fd2a46a4b4abfe94652e5c16b044d98b2379792ad2f51b4bedd64736f6c63430008180033",
					"opcodes": "PUSH1 0x80 PUSH1 0x40 MSTORE CALLVALUE DUP1 ISZERO PUSH3 0x10 JUMPI PUSH0 DUP1 REVERT JUMPDEST POP PUSH1 0x40 MLOAD PUSH3 0x1A41 CODESIZE SUB DUP1 PUSH3 0x1A41 DUP4 CODECOPY DUP2 DUP2 ADD PUSH1 0x40 MSTORE DUP2 ADD SWAP1 PUSH3 0x36 SWAP2 SWAP1 PUSH3 0x1B9 JUMP JUMPDEST CALLER PUSH0 DUP1 PUSH2 0x100 EXP DUP2 SLOAD DUP2 PUSH20 0xFFFFFFFFFFFFFFFFFFFFFFFFFFFFFFFFFFFFFFFF MUL NOT AND SWAP1 DUP4 PUSH20 0xFFFFFFFFFFFFFFFFFFFFFFFFFFFFFFFFFFFFFFFF AND MUL OR SWAP1 SSTORE POP DUP1 PUSH1 0x2 PUSH1 0x1 PUSH2 0x100 EXP DUP2 SLOAD DUP2 PUSH20 0xFFFFFFFFFFFFFFFFFFFFFFFFFFFFFFFFFFFFFFFF MUL NOT AND SWAP1 DUP4 PUSH20 0xFFFFFFFFFFFFFFFFFFFFFFFFFFFFFFFFFFFFFFFF AND MUL OR SWAP1 SSTORE POP PUSH1 0x1 PUSH1 0x2 PUSH0 PUSH2 0x100 EXP DUP2 SLOAD DUP2 PUSH1 0xFF MUL NOT AND SWAP1 DUP4 ISZERO ISZERO MUL OR SWAP1 SSTORE POP PUSH8 0xDE0B6B3A7640000 PUSH1 0x4 PUSH0 PUSH1 0x1 DUP2 MSTORE PUSH1 0x20 ADD SWAP1 DUP2 MSTORE PUSH1 0x20 ADD PUSH0 KECCAK256 DUP2 SWAP1 SSTORE POP PUSH8 0x4563918244F40000 PUSH1 0x4 PUSH0 PUSH1 0x2 DUP2 MSTORE PUSH1 0x20 ADD SWAP1 DUP2 MSTORE PUSH1 0x20 ADD PUSH0 KECCAK256 DUP2 SWAP1 SSTORE POP PUSH8 0x8AC7230489E80000 PUSH1 0x4 PUSH0 PUSH1 0x3 DUP2 MSTORE PUSH1 0x20 ADD SWAP1 DUP2 MSTORE PUSH1 0x20 ADD PUSH0 KECCAK256 DUP2 SWAP1 SSTORE POP PUSH9 0x1158E460913D00000 PUSH1 0x4 PUSH0 PUSH1 0x4 DUP2 MSTORE PUSH1 0x20 ADD SWAP1 DUP2 MSTORE PUSH1 0x20 ADD PUSH0 KECCAK256 DUP2 SWAP1 SSTORE POP POP PUSH3 0x1E9 JUMP JUMPDEST PUSH0 DUP1 REVERT JUMPDEST PUSH0 PUSH20 0xFFFFFFFFFFFFFFFFFFFFFFFFFFFFFFFFFFFFFFFF DUP3 AND SWAP1 POP SWAP2 SWAP1 POP JUMP JUMPDEST PUSH0 PUSH3 0x183 DUP3 PUSH3 0x158 JUMP JUMPDEST SWAP1 POP SWAP2 SWAP1 POP JUMP JUMPDEST PUSH3 0x195 DUP2 PUSH3 0x177 JUMP JUMPDEST DUP2 EQ PUSH3 0x1A0 JUMPI PUSH0 DUP1 REVERT JUMPDEST POP JUMP JUMPDEST PUSH0 DUP2 MLOAD SWAP1 POP PUSH3 0x1B3 DUP2 PUSH3 0x18A JUMP JUMPDEST SWAP3 SWAP2 POP POP JUMP JUMPDEST PUSH0 PUSH1 0x20 DUP3 DUP5 SUB SLT ISZERO PUSH3 0x1D1 JUMPI PUSH3 0x1D0 PUSH3 0x154 JUMP JUMPDEST JUMPDEST PUSH0 PUSH3 0x1E0 DUP5 DUP3 DUP6 ADD PUSH3 0x1A3 JUMP JUMPDEST SWAP2 POP POP SWAP3 SWAP2 POP POP JUMP JUMPDEST PUSH2 0x184A DUP1 PUSH3 0x1F7 PUSH0 CODECOPY PUSH0 RETURN INVALID PUSH1 0x80 PUSH1 0x40 MSTORE PUSH1 0x4 CALLDATASIZE LT PUSH2 0xEB JUMPI PUSH0 CALLDATALOAD PUSH1 0xE0 SHR DUP1 PUSH4 0x6E947298 GT PUSH2 0x89 JUMPI DUP1 PUSH4 0x9E281A98 GT PUSH2 0x58 JUMPI DUP1 PUSH4 0x9E281A98 EQ PUSH2 0x2E9 JUMPI DUP1 PUSH4 0xCC1F2AFA EQ PUSH2 0x311 JUMPI DUP1 PUSH4 0xF32A914C EQ PUSH2 0x33B JUMPI DUP1 PUSH4 0xFC0C546A EQ PUSH2 0x365 JUMPI PUSH2 0x12B JUMP JUMPDEST DUP1 PUSH4 0x6E947298 EQ PUSH2 0x241 JUMPI DUP1 PUSH4 0x82B2E257 EQ PUSH2 0x26B JUMPI DUP1 PUSH4 0x8DA5CB5B EQ PUSH2 0x295 JUMPI DUP1 PUSH4 0x9106D7BA EQ PUSH2 0x2BF JUMPI PUSH2 0x12B JUMP JUMPDEST DUP1 PUSH4 0x42E94C90 GT PUSH2 0xC5 JUMPI DUP1 PUSH4 0x42E94C90 EQ PUSH2 0x19D JUMPI DUP1 PUSH4 0x4782F779 EQ PUSH2 0x1D9 JUMPI DUP1 PUSH4 0x48C54B9D EQ PUSH2 0x201 JUMPI DUP1 PUSH4 0x68428A1B EQ PUSH2 0x217 JUMPI PUSH2 0x12B JUMP JUMPDEST DUP1 PUSH4 0x20E9DAF1 EQ PUSH2 0x12F JUMPI DUP1 PUSH4 0x3610724E EQ PUSH2 0x16B JUMPI DUP1 PUSH4 0x380D831B EQ PUSH2 0x187 JUMPI PUSH2 0x12B JUMP JUMPDEST CALLDATASIZE PUSH2 0x12B JUMPI PUSH1 0x40 MLOAD PUSH32 0x8C379A000000000000000000000000000000000000000000000000000000000 DUP2 MSTORE PUSH1 0x4 ADD PUSH2 0x122 SWAP1 PUSH2 0xEC2 JUMP JUMPDEST PUSH1 0x40 MLOAD DUP1 SWAP2 SUB SWAP1 REVERT JUMPDEST PUSH0 DUP1 REVERT JUMPDEST CALLVALUE DUP1 ISZERO PUSH2 0x13A JUMPI PUSH0 DUP1 REVERT JUMPDEST POP PUSH2 0x155 PUSH1 0x4 DUP1 CALLDATASIZE SUB DUP2 ADD SWAP1 PUSH2 0x150 SWAP2 SWAP1 PUSH2 0xF17 JUMP JUMPDEST PUSH2 0x38F JUMP JUMPDEST PUSH1 0x40 MLOAD PUSH2 0x162 SWAP2 SWAP1 PUSH2 0xF51 JUMP JUMPDEST PUSH1 0x40 MLOAD DUP1 SWAP2 SUB SWAP1 RETURN JUMPDEST PUSH2 0x185 PUSH1 0x4 DUP1 CALLDATASIZE SUB DUP2 ADD SWAP1 PUSH2 0x180 SWAP2 SWAP1 PUSH2 0xF17 JUMP JUMPDEST PUSH2 0x3A4 JUMP JUMPDEST STOP JUMPDEST CALLVALUE DUP1 ISZERO PUSH2 0x192 JUMPI PUSH0 DUP1 REVERT JUMPDEST POP PUSH2 0x19B PUSH2 0x656 JUMP JUMPDEST STOP JUMPDEST CALLVALUE DUP1 ISZERO PUSH2 0x1A8 JUMPI PUSH0 DUP1 REVERT JUMPDEST POP PUSH2 0x1C3 PUSH1 0x4 DUP1 CALLDATASIZE SUB DUP2 ADD SWAP1 PUSH2 0x1BE SWAP2 SWAP1 PUSH2 0xFC4 JUMP JUMPDEST PUSH2 0x6FE JUMP JUMPDEST PUSH1 0x40 MLOAD PUSH2 0x1D0 SWAP2 SWAP1 PUSH2 0xF51 JUMP JUMPDEST PUSH1 0x40 MLOAD DUP1 SWAP2 SUB SWAP1 RETURN JUMPDEST CALLVALUE DUP1 ISZERO PUSH2 0x1E4 JUMPI PUSH0 DUP1 REVERT JUMPDEST POP PUSH2 0x1FF PUSH1 0x4 DUP1 CALLDATASIZE SUB DUP2 ADD SWAP1 PUSH2 0x1FA SWAP2 SWAP1 PUSH2 0xFEF JUMP JUMPDEST PUSH2 0x713 JUMP JUMPDEST STOP JUMPDEST CALLVALUE DUP1 ISZERO PUSH2 0x20C JUMPI PUSH0 DUP1 REVERT JUMPDEST POP PUSH2 0x215 PUSH2 0x890 JUMP JUMPDEST STOP JUMPDEST CALLVALUE DUP1 ISZERO PUSH2 0x222 JUMPI PUSH0 DUP1 REVERT JUMPDEST POP PUSH2 0x22B PUSH2 0xAE3 JUMP JUMPDEST PUSH1 0x40 MLOAD PUSH2 0x238 SWAP2 SWAP1 PUSH2 0x1047 JUMP JUMPDEST PUSH1 0x40 MLOAD DUP1 SWAP2 SUB SWAP1 RETURN JUMPDEST CALLVALUE DUP1 ISZERO PUSH2 0x24C JUMPI PUSH0 DUP1 REVERT JUMPDEST POP PUSH2 0x255 PUSH2 0xAF5 JUMP JUMPDEST PUSH1 0x40 MLOAD PUSH2 0x262 SWAP2 SWAP1 PUSH2 0xF51 JUMP JUMPDEST PUSH1 0x40 MLOAD DUP1 SWAP2 SUB SWAP1 RETURN JUMPDEST CALLVALUE DUP1 ISZERO PUSH2 0x276 JUMPI PUSH0 DUP1 REVERT JUMPDEST POP PUSH2 0x27F PUSH2 0xAFC JUMP JUMPDEST PUSH1 0x40 MLOAD PUSH2 0x28C SWAP2 SWAP1 PUSH2 0xF51 JUMP JUMPDEST PUSH1 0x40 MLOAD DUP1 SWAP2 SUB SWAP1 RETURN JUMPDEST CALLVALUE DUP1 ISZERO PUSH2 0x2A0 JUMPI PUSH0 DUP1 REVERT JUMPDEST POP PUSH2 0x2A9 PUSH2 0xB9C JUMP JUMPDEST PUSH1 0x40 MLOAD PUSH2 0x2B6 SWAP2 SWAP1 PUSH2 0x106F JUMP JUMPDEST PUSH1 0x40 MLOAD DUP1 SWAP2 SUB SWAP1 RETURN JUMPDEST CALLVALUE DUP1 ISZERO PUSH2 0x2CA JUMPI PUSH0 DUP1 REVERT JUMPDEST POP PUSH2 0x2D3 PUSH2 0xBBF JUMP JUMPDEST PUSH1 0x40 MLOAD PUSH2 0x2E0 SWAP2 SWAP1 PUSH2 0xF51 JUMP JUMPDEST PUSH1 0x40 MLOAD DUP1 SWAP2 SUB SWAP1 RETURN JUMPDEST CALLVALUE DUP1 ISZERO PUSH2 0x2F4 JUMPI PUSH0 DUP1 REVERT JUMPDEST POP PUSH2 0x30F PUSH1 0x4 DUP1 CALLDATASIZE SUB DUP2 ADD SWAP1 PUSH2 0x30A SWAP2 SWAP1 PUSH2 0xFEF JUMP JUMPDEST PUSH2 0xBC5 JUMP JUMPDEST STOP JUMPDEST CALLVALUE DUP1 ISZERO PUSH2 0x31C JUMPI PUSH0 DUP1 REVERT JUMPDEST POP PUSH2 0x325 PUSH2 0xE13 JUMP JUMPDEST PUSH1 0x40 MLOAD PUSH2 0x332 SWAP2 SWAP1 PUSH2 0xF51 JUMP JUMPDEST PUSH1 0x40 MLOAD DUP1 SWAP2 SUB SWAP1 RETURN JUMPDEST CALLVALUE DUP1 ISZERO PUSH2 0x346 JUMPI PUSH0 DUP1 REVERT JUMPDEST POP PUSH2 0x34F PUSH2 0xE20 JUMP JUMPDEST PUSH1 0x40 MLOAD PUSH2 0x35C SWAP2 SWAP1 PUSH2 0xF51 JUMP JUMPDEST PUSH1 0x40 MLOAD DUP1 SWAP2 SUB SWAP1 RETURN JUMPDEST CALLVALUE DUP1 ISZERO PUSH2 0x370 JUMPI PUSH0 DUP1 REVERT JUMPDEST POP PUSH2 0x379 PUSH2 0xE2C JUMP JUMPDEST PUSH1 0x40 MLOAD PUSH2 0x386 SWAP2 SWAP1 PUSH2 0x10E3 JUMP JUMPDEST PUSH1 0x40 MLOAD DUP1 SWAP2 SUB SWAP1 RETURN JUMPDEST PUSH1 0x4 PUSH1 0x20 MSTORE DUP1 PUSH0 MSTORE PUSH1 0x40 PUSH0 KECCAK256 PUSH0 SWAP2 POP SWAP1 POP SLOAD DUP2 JUMP JUMPDEST PUSH1 0x2 PUSH0 SWAP1 SLOAD SWAP1 PUSH2 0x100 EXP SWAP1 DIV PUSH1 0xFF AND PUSH2 0x3F2 JUMPI PUSH1 0x40 MLOAD PUSH32 0x8C379A000000000000000000000000000000000000000000000000000000000 DUP2 MSTORE PUSH1 0x4 ADD PUSH2 0x3E9 SWAP1 PUSH2 0x1146 JUMP JUMPDEST PUSH1 0x40 MLOAD DUP1 SWAP2 SUB SWAP1 REVERT JUMPDEST PUSH1 0x1 DUP2 LT ISZERO DUP1 ISZERO PUSH2 0x404 JUMPI POP PUSH1 0x4 DUP2 GT ISZERO JUMPDEST PUSH2 0x443 JUMPI PUSH1 0x40 MLOAD PUSH32 0x8C379A000000000000000000000000000000000000000000000000000000000 DUP2 MSTORE PUSH1 0x4 ADD PUSH2 0x43A SWAP1 PUSH2 0x11AE JUMP JUMPDEST PUSH1 0x40 MLOAD DUP1 SWAP2 SUB SWAP1 REVERT JUMPDEST PUSH8 0x16345785D8A0000 CALLVALUE LT ISZERO PUSH2 0x48E JUMPI PUSH1 0x40 MLOAD PUSH32 0x8C379A000000000000000000000000000000000000000000000000000000000 DUP2 MSTORE PUSH1 0x4 ADD PUSH2 0x485 SWAP1 PUSH2 0x1216 JUMP JUMPDEST PUSH1 0x40 MLOAD DUP1 SWAP2 SUB SWAP1 REVERT JUMPDEST PUSH1 0x4 PUSH0 DUP3 DUP2 MSTORE PUSH1 0x20 ADD SWAP1 DUP2 MSTORE PUSH1 0x20 ADD PUSH0 KECCAK256 SLOAD CALLVALUE GT ISZERO PUSH2 0x4E2 JUMPI PUSH1 0x40 MLOAD PUSH32 0x8C379A000000000000000000000000000000000000000000000000000000000 DUP2 MSTORE PUSH1 0x4 ADD PUSH2 0x4D9 SWAP1 PUSH2 0x127E JUMP JUMPDEST PUSH1 0x40 MLOAD DUP1 SWAP2 SUB SWAP1 REVERT JUMPDEST PUSH1 0x4 PUSH0 PUSH1 0x1 DUP4 PUSH2 0x4F2 SWAP2 SWAP1 PUSH2 0x12C9 JUMP JUMPDEST DUP2 MSTORE PUSH1 0x20 ADD SWAP1 DUP2 MSTORE PUSH1 0x20 ADD PUSH0 KECCAK256 SLOAD CALLVALUE GT PUSH2 0x541 JUMPI PUSH1 0x40 MLOAD PUSH32 0x8C379A000000000000000000000000000000000000000000000000000000000 DUP2 MSTORE PUSH1 0x4 ADD PUSH2 0x538 SWAP1 PUSH2 0x1346 JUMP JUMPDEST PUSH1 0x40 MLOAD DUP1 SWAP2 SUB SWAP1 REVERT JUMPDEST PUSH9 0x1B1AE4D6E2EF500000 CALLVALUE PUSH1 0x1 SLOAD PUSH2 0x559 SWAP2 SWAP1 PUSH2 0x1364 JUMP JUMPDEST GT ISZERO PUSH2 0x59A JUMPI PUSH1 0x40 MLOAD PUSH32 0x8C379A000000000000000000000000000000000000000000000000000000000 DUP2 MSTORE PUSH1 0x4 ADD PUSH2 0x591 SWAP1 PUSH2 0x13E1 JUMP JUMPDEST PUSH1 0x40 MLOAD DUP1 SWAP2 SUB SWAP1 REVERT JUMPDEST CALLVALUE PUSH1 0x3 PUSH0 CALLER PUSH20 0xFFFFFFFFFFFFFFFFFFFFFFFFFFFFFFFFFFFFFFFF AND PUSH20 0xFFFFFFFFFFFFFFFFFFFFFFFFFFFFFFFFFFFFFFFF AND DUP2 MSTORE PUSH1 0x20 ADD SWAP1 DUP2 MSTORE PUSH1 0x20 ADD PUSH0 KECCAK256 PUSH0 DUP3 DUP3 SLOAD PUSH2 0x5E6 SWAP2 SWAP1 PUSH2 0x1364 JUMP JUMPDEST SWAP3 POP POP DUP2 SWAP1 SSTORE POP CALLVALUE PUSH1 0x1 PUSH0 DUP3 DUP3 SLOAD PUSH2 0x5FE SWAP2 SWAP1 PUSH2 0x1364 JUMP JUMPDEST SWAP3 POP POP DUP2 SWAP1 SSTORE POP CALLER PUSH20 0xFFFFFFFFFFFFFFFFFFFFFFFFFFFFFFFFFFFFFFFF AND PUSH32 0x8F28852646C20CC973D3A8218F7EEFED58C25C909F78F0265AF4818C3D4DC271 CALLVALUE PUSH1 0x40 MLOAD PUSH2 0x64B SWAP2 SWAP1 PUSH2 0xF51 JUMP JUMPDEST PUSH1 0x40 MLOAD DUP1 SWAP2 SUB SWAP1 LOG2 POP JUMP JUMPDEST PUSH0 DUP1 SLOAD SWAP1 PUSH2 0x100 EXP SWAP1 DIV PUSH20 0xFFFFFFFFFFFFFFFFFFFFFFFFFFFFFFFFFFFFFFFF AND PUSH20 0xFFFFFFFFFFFFFFFFFFFFFFFFFFFFFFFFFFFFFFFF AND CALLER PUSH20 0xFFFFFFFFFFFFFFFFFFFFFFFFFFFFFFFFFFFFFFFF AND EQ PUSH2 0x6E3 JUMPI PUSH1 0x40 MLOAD PUSH32 0x8C379A000000000000000000000000000000000000000000000000000000000 DUP2 MSTORE PUSH1 0x4 ADD PUSH2 0x6DA SWAP1 PUSH2 0x1449 JUMP JUMPDEST PUSH1 0x40 MLOAD DUP1 SWAP2 SUB SWAP1 REVERT JUMPDEST PUSH0 PUSH1 0x2 PUSH0 PUSH2 0x100 EXP DUP2 SLOAD DUP2 PUSH1 0xFF MUL NOT AND SWAP1 DUP4 ISZERO ISZERO MUL OR SWAP1 SSTORE POP JUMP JUMPDEST PUSH1 0x3 PUSH1 0x20 MSTORE DUP1 PUSH0 MSTORE PUSH1 0x40 PUSH0 KECCAK256 PUSH0 SWAP2 POP SWAP1 POP SLOAD DUP2 JUMP JUMPDEST PUSH0 DUP1 SLOAD SWAP1 PUSH2 0x100 EXP SWAP1 DIV PUSH20 0xFFFFFFFFFFFFFFFFFFFFFFFFFFFFFFFFFFFFFFFF AND PUSH20 0xFFFFFFFFFFFFFFFFFFFFFFFFFFFFFFFFFFFFFFFF AND CALLER PUSH20 0xFFFFFFFFFFFFFFFFFFFFFFFFFFFFFFFFFFFFFFFF AND EQ PUSH2 0x7A0 JUMPI PUSH1 0x40 MLOAD PUSH32 0x8C379A000000000000000000000000000000000000000000000000000000000 DUP2 MSTORE PUSH1 0x4 ADD PUSH2 0x797 SWAP1 PUSH2 0x1449 JUMP JUMPDEST PUSH1 0x40 MLOAD DUP1 SWAP2 SUB SWAP1 REVERT JUMPDEST DUP1 SELFBALANCE LT ISZERO PUSH2 0x7E3 JUMPI PUSH1 0x40 MLOAD PUSH32 0x8C379A000000000000000000000000000000000000000000000000000000000 DUP2 MSTORE PUSH1 0x4 ADD PUSH2 0x7DA SWAP1 PUSH2 0x14B1 JUMP JUMPDEST PUSH1 0x40 MLOAD DUP1 SWAP2 SUB SWAP1 REVERT JUMPDEST PUSH0 DUP3 PUSH20 0xFFFFFFFFFFFFFFFFFFFFFFFFFFFFFFFFFFFFFFFF AND DUP3 PUSH1 0x40 MLOAD PUSH2 0x808 SWAP1 PUSH2 0x14FC JUMP JUMPDEST PUSH0 PUSH1 0x40 MLOAD DUP1 DUP4 SUB DUP2 DUP6 DUP8 GAS CALL SWAP3 POP POP POP RETURNDATASIZE DUP1 PUSH0 DUP2 EQ PUSH2 0x842 JUMPI PUSH1 0x40 MLOAD SWAP2 POP PUSH1 0x1F NOT PUSH1 0x3F RETURNDATASIZE ADD AND DUP3 ADD PUSH1 0x40 MSTORE RETURNDATASIZE DUP3 MSTORE RETURNDATASIZE PUSH0 PUSH1 0x20 DUP5 ADD RETURNDATACOPY PUSH2 0x847 JUMP JUMPDEST PUSH1 0x60 SWAP2 POP JUMPDEST POP POP SWAP1 POP DUP1 PUSH2 0x88B JUMPI PUSH1 0x40 MLOAD PUSH32 0x8C379A000000000000000000000000000000000000000000000000000000000 DUP2 MSTORE PUSH1 0x4 ADD PUSH2 0x882 SWAP1 PUSH2 0x155A JUMP JUMPDEST PUSH1 0x40 MLOAD DUP1 SWAP2 SUB SWAP1 REVERT JUMPDEST POP POP POP JUMP JUMPDEST PUSH0 PUSH1 0x3 PUSH0 CALLER PUSH20 0xFFFFFFFFFFFFFFFFFFFFFFFFFFFFFFFFFFFFFFFF AND PUSH20 0xFFFFFFFFFFFFFFFFFFFFFFFFFFFFFFFFFFFFFFFF AND DUP2 MSTORE PUSH1 0x20 ADD SWAP1 DUP2 MSTORE PUSH1 0x20 ADD PUSH0 KECCAK256 SLOAD SWAP1 POP PUSH0 DUP2 GT PUSH2 0x913 JUMPI PUSH1 0x40 MLOAD PUSH32 0x8C379A000000000000000000000000000000000000000000000000000000000 DUP2 MSTORE PUSH1 0x4 ADD PUSH2 0x90A SWAP1 PUSH2 0x15C2 JUMP JUMPDEST PUSH1 0x40 MLOAD DUP1 SWAP2 SUB SWAP1 REVERT JUMPDEST PUSH1 0x2 PUSH0 SWAP1 SLOAD SWAP1 PUSH2 0x100 EXP SWAP1 DIV PUSH1 0xFF AND ISZERO PUSH2 0x962 JUMPI PUSH1 0x40 MLOAD PUSH32 0x8C379A000000000000000000000000000000000000000000000000000000000 DUP2 MSTORE PUSH1 0x4 ADD PUSH2 0x959 SWAP1 PUSH2 0x162A JUMP JUMPDEST PUSH1 0x40 MLOAD DUP1 SWAP2 SUB SWAP1 REVERT JUMPDEST PUSH0 PUSH2 0x96C DUP3 PUSH2 0xE52 JUMP JUMPDEST SWAP1 POP PUSH0 PUSH1 0x3 PUSH0 CALLER PUSH20 0xFFFFFFFFFFFFFFFFFFFFFFFFFFFFFFFFFFFFFFFF AND PUSH20 0xFFFFFFFFFFFFFFFFFFFFFFFFFFFFFFFFFFFFFFFF AND DUP2 MSTORE PUSH1 0x20 ADD SWAP1 DUP2 MSTORE PUSH1 0x20 ADD PUSH0 KECCAK256 DUP2 SWAP1 SSTORE POP PUSH0 PUSH1 0x2 PUSH1 0x1 SWAP1 SLOAD SWAP1 PUSH2 0x100 EXP SWAP1 DIV PUSH20 0xFFFFFFFFFFFFFFFFFFFFFFFFFFFFFFFFFFFFFFFF AND PUSH20 0xFFFFFFFFFFFFFFFFFFFFFFFFFFFFFFFFFFFFFFFF AND PUSH4 0xA9059CBB CALLER DUP5 PUSH1 0x40 MLOAD DUP4 PUSH4 0xFFFFFFFF AND PUSH1 0xE0 SHL DUP2 MSTORE PUSH1 0x4 ADD PUSH2 0xA0E SWAP3 SWAP2 SWAP1 PUSH2 0x1648 JUMP JUMPDEST PUSH1 0x20 PUSH1 0x40 MLOAD DUP1 DUP4 SUB DUP2 PUSH0 DUP8 GAS CALL ISZERO DUP1 ISZERO PUSH2 0xA2A JUMPI RETURNDATASIZE PUSH0 DUP1 RETURNDATACOPY RETURNDATASIZE PUSH0 REVERT JUMPDEST POP POP POP POP PUSH1 0x40 MLOAD RETURNDATASIZE PUSH1 0x1F NOT PUSH1 0x1F DUP3 ADD AND DUP3 ADD DUP1 PUSH1 0x40 MSTORE POP DUP2 ADD SWAP1 PUSH2 0xA4E SWAP2 SWAP1 PUSH2 0x1699 JUMP JUMPDEST SWAP1 POP DUP1 PUSH2 0xA90 JUMPI PUSH1 0x40 MLOAD PUSH32 0x8C379A000000000000000000000000000000000000000000000000000000000 DUP2 MSTORE PUSH1 0x4 ADD PUSH2 0xA87 SWAP1 PUSH2 0x170E JUMP JUMPDEST PUSH1 0x40 MLOAD DUP1 SWAP2 SUB SWAP1 REVERT JUMPDEST CALLER PUSH20 0xFFFFFFFFFFFFFFFFFFFFFFFFFFFFFFFFFFFFFFFF AND PUSH32 0x896E034966EAAF1ADC54ACC0F257056FEBBD300C9E47182CF761982CF1F5E430 DUP4 PUSH1 0x40 MLOAD PUSH2 0xAD6 SWAP2 SWAP1 PUSH2 0xF51 JUMP JUMPDEST PUSH1 0x40 MLOAD DUP1 SWAP2 SUB SWAP1 LOG2 POP POP POP JUMP JUMPDEST PUSH1 0x2 PUSH0 SWAP1 SLOAD SWAP1 PUSH2 0x100 EXP SWAP1 DIV PUSH1 0xFF AND DUP2 JUMP JUMPDEST PUSH0 SELFBALANCE SWAP1 POP SWAP1 JUMP JUMPDEST PUSH0 PUSH1 0x2 PUSH1 0x1 SWAP1 SLOAD SWAP1 PUSH2 0x100 EXP SWAP1 DIV PUSH20 0xFFFFFFFFFFFFFFFFFFFFFFFFFFFFFFFFFFFFFFFF AND PUSH20 0xFFFFFFFFFFFFFFFFFFFFFFFFFFFFFFFFFFFFFFFF AND PUSH4 0x70A08231 ADDRESS PUSH1 0x40 MLOAD DUP3 PUSH4 0xFFFFFFFF AND PUSH1 0xE0 SHL DUP2 MSTORE PUSH1 0x4 ADD PUSH2 0xB58 SWAP2 SWAP1 PUSH2 0x106F JUMP JUMPDEST PUSH1 0x20 PUSH1 0x40 MLOAD DUP1 DUP4 SUB DUP2 DUP7 GAS STATICCALL ISZERO DUP1 ISZERO PUSH2 0xB73 JUMPI RETURNDATASIZE PUSH0 DUP1 RETURNDATACOPY RETURNDATASIZE PUSH0 REVERT JUMPDEST POP POP POP POP PUSH1 0x40 MLOAD RETURNDATASIZE PUSH1 0x1F NOT PUSH1 0x1F DUP3 ADD AND DUP3 ADD DUP1 PUSH1 0x40 MSTORE POP DUP2 ADD SWAP1 PUSH2 0xB97 SWAP2 SWAP1 PUSH2 0x1740 JUMP JUMPDEST SWAP1 POP SWAP1 JUMP JUMPDEST PUSH0 DUP1 SLOAD SWAP1 PUSH2 0x100 EXP SWAP1 DIV PUSH20 0xFFFFFFFFFFFFFFFFFFFFFFFFFFFFFFFFFFFFFFFF AND DUP2 JUMP JUMPDEST PUSH1 0x1 SLOAD DUP2 JUMP JUMPDEST PUSH0 DUP1 SLOAD SWAP1 PUSH2 0x100 EXP SWAP1 DIV PUSH20 0xFFFFFFFFFFFFFFFFFFFFFFFFFFFFFFFFFFFFFFFF AND PUSH20 0xFFFFFFFFFFFFFFFFFFFFFFFFFFFFFFFFFFFFFFFF AND CALLER PUSH20 0xFFFFFFFFFFFFFFFFFFFFFFFFFFFFFFFFFFFFFFFF AND EQ PUSH2 0xC52 JUMPI PUSH1 0x40 MLOAD PUSH32 0x8C379A000000000000000000000000000000000000000000000000000000000 DUP2 MSTORE PUSH1 0x4 ADD PUSH2 0xC49 SWAP1 PUSH2 0x1449 JUMP JUMPDEST PUSH1 0x40 MLOAD DUP1 SWAP2 SUB SWAP1 REVERT JUMPDEST DUP1 PUSH1 0x2 PUSH1 0x1 SWAP1 SLOAD SWAP1 PUSH2 0x100 EXP SWAP1 DIV PUSH20 0xFFFFFFFFFFFFFFFFFFFFFFFFFFFFFFFFFFFFFFFF AND PUSH20 0xFFFFFFFFFFFFFFFFFFFFFFFFFFFFFFFFFFFFFFFF AND PUSH4 0x70A08231 ADDRESS PUSH1 0x40 MLOAD DUP3 PUSH4 0xFFFFFFFF AND PUSH1 0xE0 SHL DUP2 MSTORE PUSH1 0x4 ADD PUSH2 0xCAE SWAP2 SWAP1 PUSH2 0x106F JUMP JUMPDEST PUSH1 0x20 PUSH1 0x40 MLOAD DUP1 DUP4 SUB DUP2 DUP7 GAS STATICCALL ISZERO DUP1 ISZERO PUSH2 0xCC9 JUMPI RETURNDATASIZE PUSH0 DUP1 RETURNDATACOPY RETURNDATASIZE PUSH0 REVERT JUMPDEST POP POP POP POP PUSH1 0x40 MLOAD RETURNDATASIZE PUSH1 0x1F NOT PUSH1 0x1F DUP3 ADD AND DUP3 ADD DUP1 PUSH1 0x40 MSTORE POP DUP2 ADD SWAP1 PUSH2 0xCED SWAP2 SWAP1 PUSH2 0x1740 JUMP JUMPDEST LT ISZERO PUSH2 0xD2E JUMPI PUSH1 0x40 MLOAD PUSH32 0x8C379A000000000000000000000000000000000000000000000000000000000 DUP2 MSTORE PUSH1 0x4 ADD PUSH2 0xD25 SWAP1 PUSH2 0x17B5 JUMP JUMPDEST PUSH1 0x40 MLOAD DUP1 SWAP2 SUB SWAP1 REVERT JUMPDEST PUSH0 PUSH1 0x2 PUSH1 0x1 SWAP1 SLOAD SWAP1 PUSH2 0x100 EXP SWAP1 DIV PUSH20 0xFFFFFFFFFFFFFFFFFFFFFFFFFFFFFFFFFFFFFFFF AND PUSH20 0xFFFFFFFFFFFFFFFFFFFFFFFFFFFFFFFFFFFFFFFF AND PUSH4 0xA9059CBB DUP5 DUP5 PUSH1 0x40 MLOAD DUP4 PUSH4 0xFFFFFFFF AND PUSH1 0xE0 SHL DUP2 MSTORE PUSH1 0x4 ADD PUSH2 0xD8C SWAP3 SWAP2 SWAP1 PUSH2 0x1648 JUMP JUMPDEST PUSH1 0x20 PUSH1 0x40 MLOAD DUP1 DUP4 SUB DUP2 PUSH0 DUP8 GAS CALL ISZERO DUP1 ISZERO PUSH2 0xDA8 JUMPI RETURNDATASIZE PUSH0 DUP1 RETURNDATACOPY RETURNDATASIZE PUSH0 REVERT JUMPDEST POP POP POP POP PUSH1 0x40 MLOAD RETURNDATASIZE PUSH1 0x1F NOT PUSH1 0x1F DUP3 ADD AND DUP3 ADD DUP1 PUSH1 0x40 MSTORE POP DUP2 ADD SWAP1 PUSH2 0xDCC SWAP2 SWAP1 PUSH2 0x1699 JUMP JUMPDEST SWAP1 POP DUP1 PUSH2 0xE0E JUMPI PUSH1 0x40 MLOAD PUSH32 0x8C379A000000000000000000000000000000000000000000000000000000000 DUP2 MSTORE PUSH1 0x4 ADD PUSH2 0xE05 SWAP1 PUSH2 0x170E JUMP JUMPDEST PUSH1 0x40 MLOAD DUP1 SWAP2 SUB SWAP1 REVERT JUMPDEST POP POP POP JUMP JUMPDEST PUSH9 0x1B1AE4D6E2EF500000 DUP2 JUMP JUMPDEST PUSH8 0x16345785D8A0000 DUP2 JUMP JUMPDEST PUSH1 0x2 PUSH1 0x1 SWAP1 SLOAD SWAP1 PUSH2 0x100 EXP SWAP1 DIV PUSH20 0xFFFFFFFFFFFFFFFFFFFFFFFFFFFFFFFFFFFFFFFF AND DUP2 JUMP JUMPDEST PUSH0 PUSH2 0x3E8 DUP3 PUSH2 0xE61 SWAP2 SWAP1 PUSH2 0x17D3 JUMP JUMPDEST SWAP1 POP SWAP2 SWAP1 POP JUMP JUMPDEST PUSH0 DUP3 DUP3 MSTORE PUSH1 0x20 DUP3 ADD SWAP1 POP SWAP3 SWAP2 POP POP JUMP JUMPDEST PUSH32 0x4469726563742073656E64696E67204554487320646973616C6C6F7765640000 PUSH0 DUP3 ADD MSTORE POP JUMP JUMPDEST PUSH0 PUSH2 0xEAC PUSH1 0x1E DUP4 PUSH2 0xE68 JUMP JUMPDEST SWAP2 POP PUSH2 0xEB7 DUP3 PUSH2 0xE78 JUMP JUMPDEST PUSH1 0x20 DUP3 ADD SWAP1 POP SWAP2 SWAP1 POP JUMP JUMPDEST PUSH0 PUSH1 0x20 DUP3 ADD SWAP1 POP DUP2 DUP2 SUB PUSH0 DUP4 ADD MSTORE PUSH2 0xED9 DUP2 PUSH2 0xEA0 JUMP JUMPDEST SWAP1 POP SWAP2 SWAP1 POP JUMP JUMPDEST PUSH0 DUP1 REVERT JUMPDEST PUSH0 DUP2 SWAP1 POP SWAP2 SWAP1 POP JUMP JUMPDEST PUSH2 0xEF6 DUP2 PUSH2 0xEE4 JUMP JUMPDEST DUP2 EQ PUSH2 0xF00 JUMPI PUSH0 DUP1 REVERT JUMPDEST POP JUMP JUMPDEST PUSH0 DUP2 CALLDATALOAD SWAP1 POP PUSH2 0xF11 DUP2 PUSH2 0xEED JUMP JUMPDEST SWAP3 SWAP2 POP POP JUMP JUMPDEST PUSH0 PUSH1 0x20 DUP3 DUP5 SUB SLT ISZERO PUSH2 0xF2C JUMPI PUSH2 0xF2B PUSH2 0xEE0 JUMP JUMPDEST JUMPDEST PUSH0 PUSH2 0xF39 DUP5 DUP3 DUP6 ADD PUSH2 0xF03 JUMP JUMPDEST SWAP2 POP POP SWAP3 SWAP2 POP POP JUMP JUMPDEST PUSH2 0xF4B DUP2 PUSH2 0xEE4 JUMP JUMPDEST DUP3 MSTORE POP POP JUMP JUMPDEST PUSH0 PUSH1 0x20 DUP3 ADD SWAP1 POP PUSH2 0xF64 PUSH0 DUP4 ADD DUP5 PUSH2 0xF42 JUMP JUMPDEST SWAP3 SWAP2 POP POP JUMP JUMPDEST PUSH0 PUSH20 0xFFFFFFFFFFFFFFFFFFFFFFFFFFFFFFFFFFFFFFFF DUP3 AND SWAP1 POP SWAP2 SWAP1 POP JUMP JUMPDEST PUSH0 PUSH2 0xF93 DUP3 PUSH2 0xF6A JUMP JUMPDEST SWAP1 POP SWAP2 SWAP1 POP JUMP JUMPDEST PUSH2 0xFA3 DUP2 PUSH2 0xF89 JUMP JUMPDEST DUP2 EQ PUSH2 0xFAD JUMPI PUSH0 DUP1 REVERT JUMPDEST POP JUMP JUMPDEST PUSH0 DUP2 CALLDATALOAD SWAP1 POP PUSH2 0xFBE DUP2 PUSH2 0xF9A JUMP JUMPDEST SWAP3 SWAP2 POP POP JUMP JUMPDEST PUSH0 PUSH1 0x20 DUP3 DUP5 SUB SLT ISZERO PUSH2 0xFD9 JUMPI PUSH2 0xFD8 PUSH2 0xEE0 JUMP JUMPDEST JUMPDEST PUSH0 PUSH2 0xFE6 DUP5 DUP3 DUP6 ADD PUSH2 0xFB0 JUMP JUMPDEST SWAP2 POP POP SWAP3 SWAP2 POP POP JUMP JUMPDEST PUSH0 DUP1 PUSH1 0x40 DUP4 DUP6 SUB SLT ISZERO PUSH2 0x1005 JUMPI PUSH2 0x1004 PUSH2 0xEE0 JUMP JUMPDEST JUMPDEST PUSH0 PUSH2 0x1012 DUP6 DUP3 DUP7 ADD PUSH2 0xFB0 JUMP JUMPDEST SWAP3 POP POP PUSH1 0x20 PUSH2 0x1023 DUP6 DUP3 DUP7 ADD PUSH2 0xF03 JUMP JUMPDEST SWAP2 POP POP SWAP3 POP SWAP3 SWAP1 POP JUMP JUMPDEST PUSH0 DUP2 ISZERO ISZERO SWAP1 POP SWAP2 SWAP1 POP JUMP JUMPDEST PUSH2 0x1041 DUP2 PUSH2 0x102D JUMP JUMPDEST DUP3 MSTORE POP POP JUMP JUMPDEST PUSH0 PUSH1 0x20 DUP3 ADD SWAP1 POP PUSH2 0x105A PUSH0 DUP4 ADD DUP5 PUSH2 0x1038 JUMP JUMPDEST SWAP3 SWAP2 POP POP JUMP JUMPDEST PUSH2 0x1069 DUP2 PUSH2 0xF89 JUMP JUMPDEST DUP3 MSTORE POP POP JUMP JUMPDEST PUSH0 PUSH1 0x20 DUP3 ADD SWAP1 POP PUSH2 0x1082 PUSH0 DUP4 ADD DUP5 PUSH2 0x1060 JUMP JUMPDEST SWAP3 SWAP2 POP POP JUMP JUMPDEST PUSH0 DUP2 SWAP1 POP SWAP2 SWAP1 POP JUMP JUMPDEST PUSH0 PUSH2 0x10AB PUSH2 0x10A6 PUSH2 0x10A1 DUP5 PUSH2 0xF6A JUMP JUMPDEST PUSH2 0x1088 JUMP JUMPDEST PUSH2 0xF6A JUMP JUMPDEST SWAP1 POP SWAP2 SWAP1 POP JUMP JUMPDEST PUSH0 PUSH2 0x10BC DUP3 PUSH2 0x1091 JUMP JUMPDEST SWAP1 POP SWAP2 SWAP1 POP JUMP JUMPDEST PUSH0 PUSH2 0x10CD DUP3 PUSH2 0x10B2 JUMP JUMPDEST SWAP1 POP SWAP2 SWAP1 POP JUMP JUMPDEST PUSH2 0x10DD DUP2 PUSH2 0x10C3 JUMP JUMPDEST DUP3 MSTORE POP POP JUMP JUMPDEST PUSH0 PUSH1 0x20 DUP3 ADD SWAP1 POP PUSH2 0x10F6 PUSH0 DUP4 ADD DUP5 PUSH2 0x10D4 JUMP JUMPDEST SWAP3 SWAP2 POP POP JUMP JUMPDEST PUSH32 0x53616C65206973206E6F74206163746976650000000000000000000000000000 PUSH0 DUP3 ADD MSTORE POP JUMP JUMPDEST PUSH0 PUSH2 0x1130 PUSH1 0x12 DUP4 PUSH2 0xE68 JUMP JUMPDEST SWAP2 POP PUSH2 0x113B DUP3 PUSH2 0x10FC JUMP JUMPDEST PUSH1 0x20 DUP3 ADD SWAP1 POP SWAP2 SWAP1 POP JUMP JUMPDEST PUSH0 PUSH1 0x20 DUP3 ADD SWAP1 POP DUP2 DUP2 SUB PUSH0 DUP4 ADD MSTORE PUSH2 0x115D DUP2 PUSH2 0x1124 JUMP JUMPDEST SWAP1 POP SWAP2 SWAP1 POP JUMP JUMPDEST PUSH32 0x496E76616C696420746965720000000000000000000000000000000000000000 PUSH0 DUP3 ADD MSTORE POP JUMP JUMPDEST PUSH0 PUSH2 0x1198 PUSH1 0xC DUP4 PUSH2 0xE68 JUMP JUMPDEST SWAP2 POP PUSH2 0x11A3 DUP3 PUSH2 0x1164 JUMP JUMPDEST PUSH1 0x20 DUP3 ADD SWAP1 POP SWAP2 SWAP1 POP JUMP JUMPDEST PUSH0 PUSH1 0x20 DUP3 ADD SWAP1 POP DUP2 DUP2 SUB PUSH0 DUP4 ADD MSTORE PUSH2 0x11C5 DUP2 PUSH2 0x118C JUMP JUMPDEST SWAP1 POP SWAP2 SWAP1 POP JUMP JUMPDEST PUSH32 0x4D7573742065786365656420746865206D696E696D756D20616D6F756E740000 PUSH0 DUP3 ADD MSTORE POP JUMP JUMPDEST PUSH0 PUSH2 0x1200 PUSH1 0x1E DUP4 PUSH2 0xE68 JUMP JUMPDEST SWAP2 POP PUSH2 0x120B DUP3 PUSH2 0x11CC JUMP JUMPDEST PUSH1 0x20 DUP3 ADD SWAP1 POP SWAP2 SWAP1 POP JUMP JUMPDEST PUSH0 PUSH1 0x20 DUP3 ADD SWAP1 POP DUP2 DUP2 SUB PUSH0 DUP4 ADD MSTORE PUSH2 0x122D DUP2 PUSH2 0x11F4 JUMP JUMPDEST SWAP1 POP SWAP2 SWAP1 POP JUMP JUMPDEST PUSH32 0x457863656564732074696572206C696D69740000000000000000000000000000 PUSH0 DUP3 ADD MSTORE POP JUMP JUMPDEST PUSH0 PUSH2 0x1268 PUSH1 0x12 DUP4 PUSH2 0xE68 JUMP JUMPDEST SWAP2 POP PUSH2 0x1273 DUP3 PUSH2 0x1234 JUMP JUMPDEST PUSH1 0x20 DUP3 ADD SWAP1 POP SWAP2 SWAP1 POP JUMP JUMPDEST PUSH0 PUSH1 0x20 DUP3 ADD SWAP1 POP DUP2 DUP2 SUB PUSH0 DUP4 ADD MSTORE PUSH2 0x1295 DUP2 PUSH2 0x125C JUMP JUMPDEST SWAP1 POP SWAP2 SWAP1 POP JUMP JUMPDEST PUSH32 0x4E487B7100000000000000000000000000000000000000000000000000000000 PUSH0 MSTORE PUSH1 0x11 PUSH1 0x4 MSTORE PUSH1 0x24 PUSH0 REVERT JUMPDEST PUSH0 PUSH2 0x12D3 DUP3 PUSH2 0xEE4 JUMP JUMPDEST SWAP2 POP PUSH2 0x12DE DUP4 PUSH2 0xEE4 JUMP JUMPDEST SWAP3 POP DUP3 DUP3 SUB SWAP1 POP DUP2 DUP2 GT ISZERO PUSH2 0x12F6 JUMPI PUSH2 0x12F5 PUSH2 0x129C JUMP JUMPDEST JUMPDEST SWAP3 SWAP2 POP POP JUMP JUMPDEST PUSH32 0x53686F756C642067726561746572207468616E206C6173742074696572000000 PUSH0 DUP3 ADD MSTORE POP JUMP JUMPDEST PUSH0 PUSH2 0x1330 PUSH1 0x1D DUP4 PUSH2 0xE68 JUMP JUMPDEST SWAP2 POP PUSH2 0x133B DUP3 PUSH2 0x12FC JUMP JUMPDEST PUSH1 0x20 DUP3 ADD SWAP1 POP SWAP2 SWAP1 POP JUMP JUMPDEST PUSH0 PUSH1 0x20 DUP3 ADD SWAP1 POP DUP2 DUP2 SUB PUSH0 DUP4 ADD MSTORE PUSH2 0x135D DUP2 PUSH2 0x1324 JUMP JUMPDEST SWAP1 POP SWAP2 SWAP1 POP JUMP JUMPDEST PUSH0 PUSH2 0x136E DUP3 PUSH2 0xEE4 JUMP JUMPDEST SWAP2 POP PUSH2 0x1379 DUP4 PUSH2 0xEE4 JUMP JUMPDEST SWAP3 POP DUP3 DUP3 ADD SWAP1 POP DUP1 DUP3 GT ISZERO PUSH2 0x1391 JUMPI PUSH2 0x1390 PUSH2 0x129C JUMP JUMPDEST JUMPDEST SWAP3 SWAP2 POP POP JUMP JUMPDEST PUSH32 0x4578636565647320746172676574000000000000000000000000000000000000 PUSH0 DUP3 ADD MSTORE POP JUMP JUMPDEST PUSH0 PUSH2 0x13CB PUSH1 0xE DUP4 PUSH2 0xE68 JUMP JUMPDEST SWAP2 POP PUSH2 0x13D6 DUP3 PUSH2 0x1397 JUMP JUMPDEST PUSH1 0x20 DUP3 ADD SWAP1 POP SWAP2 SWAP1 POP JUMP JUMPDEST PUSH0 PUSH1 0x20 DUP3 ADD SWAP1 POP DUP2 DUP2 SUB PUSH0 DUP4 ADD MSTORE PUSH2 0x13F8 DUP2 PUSH2 0x13BF JUMP JUMPDEST SWAP1 POP SWAP2 SWAP1 POP JUMP JUMPDEST PUSH32 0x4E6F74206F776E65720000000000000000000000000000000000000000000000 PUSH0 DUP3 ADD MSTORE POP JUMP JUMPDEST PUSH0 PUSH2 0x1433 PUSH1 0x9 DUP4 PUSH2 0xE68 JUMP JUMPDEST SWAP2 POP PUSH2 0x143E DUP3 PUSH2 0x13FF JUMP JUMPDEST PUSH1 0x20 DUP3 ADD SWAP1 POP SWAP2 SWAP1 POP JUMP JUMPDEST PUSH0 PUSH1 0x20 DUP3 ADD SWAP1 POP DUP2 DUP2 SUB PUSH0 DUP4 ADD MSTORE PUSH2 0x1460 DUP2 PUSH2 0x1427 JUMP JUMPDEST SWAP1 POP SWAP2 SWAP1 POP JUMP JUMPDEST PUSH32 0x496E73756666696369656E742062616C616E6365000000000000000000000000 PUSH0 DUP3 ADD MSTORE POP JUMP JUMPDEST PUSH0 PUSH2 0x149B PUSH1 0x14 DUP4 PUSH2 0xE68 JUMP JUMPDEST SWAP2 POP PUSH2 0x14A6 DUP3 PUSH2 0x1467 JUMP JUMPDEST PUSH1 0x20 DUP3 ADD SWAP1 POP SWAP2 SWAP1 POP JUMP JUMPDEST PUSH0 PUSH1 0x20 DUP3 ADD SWAP1 POP DUP2 DUP2 SUB PUSH0 DUP4 ADD MSTORE PUSH2 0x14C8 DUP2 PUSH2 0x148F JUMP JUMPDEST SWAP1 POP SWAP2 SWAP1 POP JUMP JUMPDEST PUSH0 DUP2 SWAP1 POP SWAP3 SWAP2 POP POP JUMP JUMPDEST POP JUMP JUMPDEST PUSH0 PUSH2 0x14E7 PUSH0 DUP4 PUSH2 0x14CF JUMP JUMPDEST SWAP2 POP PUSH2 0x14F2 DUP3 PUSH2 0x14D9 JUMP JUMPDEST PUSH0 DUP3 ADD SWAP1 POP SWAP2 SWAP1 POP JUMP JUMPDEST PUSH0 PUSH2 0x1506 DUP3 PUSH2 0x14DC JUMP JUMPDEST SWAP2 POP DUP2 SWAP1 POP SWAP2 SWAP1 POP JUMP JUMPDEST PUSH32 0x5061796D656E74206973206E6F74207375636365737366756C00000000000000 PUSH0 DUP3 ADD MSTORE POP JUMP JUMPDEST PUSH0 PUSH2 0x1544 PUSH1 0x19 DUP4 PUSH2 0xE68 JUMP JUMPDEST SWAP2 POP PUSH2 0x154F DUP3 PUSH2 0x1510 JUMP JUMPDEST PUSH1 0x20 DUP3 ADD SWAP1 POP SWAP2 SWAP1 POP JUMP JUMPDEST PUSH0 PUSH1 0x20 DUP3 ADD SWAP1 POP DUP2 DUP2 SUB PUSH0 DUP4 ADD MSTORE PUSH2 0x1571 DUP2 PUSH2 0x1538 JUMP JUMPDEST SWAP1 POP SWAP2 SWAP1 POP JUMP JUMPDEST PUSH32 0x4E6F20636F6E747269627574696F6E7300000000000000000000000000000000 PUSH0 DUP3 ADD MSTORE POP JUMP JUMPDEST PUSH0 PUSH2 0x15AC PUSH1 0x10 DUP4 PUSH2 0xE68 JUMP JUMPDEST SWAP2 POP PUSH2 0x15B7 DUP3 PUSH2 0x1578 JUMP JUMPDEST PUSH1 0x20 DUP3 ADD SWAP1 POP SWAP2 SWAP1 POP JUMP JUMPDEST PUSH0 PUSH1 0x20 DUP3 ADD SWAP1 POP DUP2 DUP2 SUB PUSH0 DUP4 ADD MSTORE PUSH2 0x15D9 DUP2 PUSH2 0x15A0 JUMP JUMPDEST SWAP1 POP SWAP2 SWAP1 POP JUMP JUMPDEST PUSH32 0x53616C65206973207374696C6C20616374697665000000000000000000000000 PUSH0 DUP3 ADD MSTORE POP JUMP JUMPDEST PUSH0 PUSH2 0x1614 PUSH1 0x14 DUP4 PUSH2 0xE68 JUMP JUMPDEST SWAP2 POP PUSH2 0x161F DUP3 PUSH2 0x15E0 JUMP JUMPDEST PUSH1 0x20 DUP3 ADD SWAP1 POP SWAP2 SWAP1 POP JUMP JUMPDEST PUSH0 PUSH1 0x20 DUP3 ADD SWAP1 POP DUP2 DUP2 SUB PUSH0 DUP4 ADD MSTORE PUSH2 0x1641 DUP2 PUSH2 0x1608 JUMP JUMPDEST SWAP1 POP SWAP2 SWAP1 POP JUMP JUMPDEST PUSH0 PUSH1 0x40 DUP3 ADD SWAP1 POP PUSH2 0x165B PUSH0 DUP4 ADD DUP6 PUSH2 0x1060 JUMP JUMPDEST PUSH2 0x1668 PUSH1 0x20 DUP4 ADD DUP5 PUSH2 0xF42 JUMP JUMPDEST SWAP4 SWAP3 POP POP POP JUMP JUMPDEST PUSH2 0x1678 DUP2 PUSH2 0x102D JUMP JUMPDEST DUP2 EQ PUSH2 0x1682 JUMPI PUSH0 DUP1 REVERT JUMPDEST POP JUMP JUMPDEST PUSH0 DUP2 MLOAD SWAP1 POP PUSH2 0x1693 DUP2 PUSH2 0x166F JUMP JUMPDEST SWAP3 SWAP2 POP POP JUMP JUMPDEST PUSH0 PUSH1 0x20 DUP3 DUP5 SUB SLT ISZERO PUSH2 0x16AE JUMPI PUSH2 0x16AD PUSH2 0xEE0 JUMP JUMPDEST JUMPDEST PUSH0 PUSH2 0x16BB DUP5 DUP3 DUP6 ADD PUSH2 0x1685 JUMP JUMPDEST SWAP2 POP POP SWAP3 SWAP2 POP POP JUMP JUMPDEST PUSH32 0x546F6B656E207472616E73666572206661696C65640000000000000000000000 PUSH0 DUP3 ADD MSTORE POP JUMP JUMPDEST PUSH0 PUSH2 0x16F8 PUSH1 0x15 DUP4 PUSH2 0xE68 JUMP JUMPDEST SWAP2 POP PUSH2 0x1703 DUP3 PUSH2 0x16C4 JUMP JUMPDEST PUSH1 0x20 DUP3 ADD SWAP1 POP SWAP2 SWAP1 POP JUMP JUMPDEST PUSH0 PUSH1 0x20 DUP3 ADD SWAP1 POP DUP2 DUP2 SUB PUSH0 DUP4 ADD MSTORE PUSH2 0x1725 DUP2 PUSH2 0x16EC JUMP JUMPDEST SWAP1 POP SWAP2 SWAP1 POP JUMP JUMPDEST PUSH0 DUP2 MLOAD SWAP1 POP PUSH2 0x173A DUP2 PUSH2 0xEED JUMP JUMPDEST SWAP3 SWAP2 POP POP JUMP JUMPDEST PUSH0 PUSH1 0x20 DUP3 DUP5 SUB SLT ISZERO PUSH2 0x1755 JUMPI PUSH2 0x1754 PUSH2 0xEE0 JUMP JUMPDEST JUMPDEST PUSH0 PUSH2 0x1762 DUP5 DUP3 DUP6 ADD PUSH2 0x172C JUMP JUMPDEST SWAP2 POP POP SWAP3 SWAP2 POP POP JUMP JUMPDEST PUSH32 0x496E73756666696369656E7420746F6B656E2062616C616E6365000000000000 PUSH0 DUP3 ADD MSTORE POP JUMP JUMPDEST PUSH0 PUSH2 0x179F PUSH1 0x1A DUP4 PUSH2 0xE68 JUMP JUMPDEST SWAP2 POP PUSH2 0x17AA DUP3 PUSH2 0x176B JUMP JUMPDEST PUSH1 0x20 DUP3 ADD SWAP1 POP SWAP2 SWAP1 POP JUMP JUMPDEST PUSH0 PUSH1 0x20 DUP3 ADD SWAP1 POP DUP2 DUP2 SUB PUSH0 DUP4 ADD MSTORE PUSH2 0x17CC DUP2 PUSH2 0x1793 JUMP JUMPDEST SWAP1 POP SWAP2 SWAP1 POP JUMP JUMPDEST PUSH0 PUSH2 0x17DD DUP3 PUSH2 0xEE4 JUMP JUMPDEST SWAP2 POP PUSH2 0x17E8 DUP4 PUSH2 0xEE4 JUMP JUMPDEST SWAP3 POP DUP3 DUP3 MUL PUSH2 0x17F6 DUP2 PUSH2 0xEE4 JUMP JUMPDEST SWAP2 POP DUP3 DUP3 DIV DUP5 EQ DUP4 ISZERO OR PUSH2 0x180D JUMPI PUSH2 0x180C PUSH2 0x129C JUMP JUMPDEST JUMPDEST POP SWAP3 SWAP2 POP POP JUMP INVALID LOG2 PUSH5 0x6970667358 0x22 SLT KECCAK256 DUP14 SLT 0xD2 0xDA 0xDE SHR PUSH32 0xD2A46A4B4ABFE94652E5C16B044D98B2379792AD2F51B4BEDD64736F6C634300 ADDMOD XOR STOP CALLER "
				},
				"gasEstimates": {
					"creation": {
						"codeDepositCost": "1243600",
						"executionCost": "infinite",
						"totalCost": "infinite"
					},
					"external": {
						"MINI_AMOUNT()": "391",
						"TARGET()": "369",
						"buyTokens(uint256)": "infinite",
						"claimTokens()": "infinite",
						"contributions(address)": "2825",
						"endSale()": "26642",
						"getETHBalance()": "357",
						"getTokenBalance()": "infinite",
						"limits(uint256)": "infinite",
						"owner()": "2572",
						"saleActive()": "2555",
						"token()": "infinite",
						"totalSold()": "2514",
						"withdrawETH(address,uint256)": "infinite",
						"withdrawToken(address,uint256)": "infinite"
					},
					"internal": {
						"_getTokenAmount(uint256)": "infinite"
					}
				},
				"methodIdentifiers": {
					"MINI_AMOUNT()": "f32a914c",
					"TARGET()": "cc1f2afa",
					"buyTokens(uint256)": "3610724e",
					"claimTokens()": "48c54b9d",
					"contributions(address)": "42e94c90",
					"endSale()": "380d831b",
					"getETHBalance()": "6e947298",
					"getTokenBalance()": "82b2e257",
					"limits(uint256)": "20e9daf1",
					"owner()": "8da5cb5b",
					"saleActive()": "68428a1b",
					"token()": "fc0c546a",
					"totalSold()": "9106d7ba",
					"withdrawETH(address,uint256)": "4782f779",
					"withdrawToken(address,uint256)": "9e281a98"
				}
			},
			"storageLayout": {
				"storage": [
					{
						"astId": 89,
						"contract": "contracts/PrivateSale.sol:PrivateSale",
						"label": "owner",
						"offset": 0,
						"slot": "0",
						"type": "t_address"
					},
					{
						"astId": 91,
						"contract": "contracts/PrivateSale.sol:PrivateSale",
						"label": "totalSold",
						"offset": 0,
						"slot": "1",
						"type": "t_uint256"
					},
					{
						"astId": 93,
						"contract": "contracts/PrivateSale.sol:PrivateSale",
						"label": "saleActive",
						"offset": 0,
						"slot": "2",
						"type": "t_bool"
					},
					{
						"astId": 96,
						"contract": "contracts/PrivateSale.sol:PrivateSale",
						"label": "token",
						"offset": 1,
						"slot": "2",
						"type": "t_contract(IERC20)77"
					},
					{
						"astId": 100,
						"contract": "contracts/PrivateSale.sol:PrivateSale",
						"label": "contributions",
						"offset": 0,
						"slot": "3",
						"type": "t_mapping(t_address,t_uint256)"
					},
					{
						"astId": 104,
						"contract": "contracts/PrivateSale.sol:PrivateSale",
						"label": "limits",
						"offset": 0,
						"slot": "4",
						"type": "t_mapping(t_uint256,t_uint256)"
					}
				],
				"types": {
					"t_address": {
						"encoding": "inplace",
						"label": "address",
						"numberOfBytes": "20"
					},
					"t_bool": {
						"encoding": "inplace",
						"label": "bool",
						"numberOfBytes": "1"
					},
					"t_contract(IERC20)77": {
						"encoding": "inplace",
						"label": "contract IERC20",
						"numberOfBytes": "20"
					},
					"t_mapping(t_address,t_uint256)": {
						"encoding": "mapping",
						"key": "t_address",
						"label": "mapping(address => uint256)",
						"numberOfBytes": "32",
						"value": "t_uint256"
					},
					"t_mapping(t_uint256,t_uint256)": {
						"encoding": "mapping",
						"key": "t_uint256",
						"label": "mapping(uint256 => uint256)",
						"numberOfBytes": "32",
						"value": "t_uint256"
					},
					"t_uint256": {
						"encoding": "inplace",
						"label": "uint256",
						"numberOfBytes": "32"
					}
				}
			},
			"userdoc": {
				"kind": "user",
				"methods": {},
				"version": 1
			}
		}
	}
}