{"abi":[{"type":"constructor","inputs":[],"stateMutability":"nonpayable"},{"type":"receive","stateMutability":"payable"},{"type":"function","name":"allowance","inputs":[{"name":"owner","type":"address","internalType":"address"},{"name":"spender","type":"address","internalType":"address"}],"outputs":[{"name":"","type":"uint256","internalType":"uint256"}],"stateMutability":"view"},{"type":"function","name":"approve","inputs":[{"name":"spender","type":"address","internalType":"address"},{"name":"amount","type":"uint256","internalType":"uint256"}],"outputs":[{"name":"","type":"bool","internalType":"bool"}],"stateMutability":"nonpayable"},{"type":"function","name":"balanceOf","inputs":[{"name":"account","type":"address","internalType":"address"}],"outputs":[{"name":"","type":"uint256","internalType":"uint256"}],"stateMutability":"view"},{"type":"function","name":"decimals","inputs":[],"outputs":[{"name":"","type":"uint8","internalType":"uint8"}],"stateMutability":"view"},{"type":"function","name":"decreaseAllowance","inputs":[{"name":"spender","type":"address","internalType":"address"},{"name":"subtractedValue","type":"uint256","internalType":"uint256"}],"outputs":[{"name":"","type":"bool","internalType":"bool"}],"stateMutability":"nonpayable"},{"type":"function","name":"exemptFee","inputs":[{"name":"account","type":"address","internalType":"address"},{"name":"status","type":"bool","internalType":"bool"}],"outputs":[],"stateMutability":"nonpayable"},{"type":"function","name":"increaseAllowance","inputs":[{"name":"spender","type":"address","internalType":"address"},{"name":"addedValue","type":"uint256","internalType":"uint256"}],"outputs":[{"name":"","type":"bool","internalType":"bool"}],"stateMutability":"nonpayable"},{"type":"function","name":"name","inputs":[],"outputs":[{"name":"","type":"string","internalType":"string"}],"stateMutability":"view"},{"type":"function","name":"openTrading","inputs":[],"outputs":[],"stateMutability":"nonpayable"},{"type":"function","name":"owner","inputs":[],"outputs":[{"name":"","type":"address","internalType":"address"}],"stateMutability":"view"},{"type":"function","name":"removeETH","inputs":[],"outputs":[],"stateMutability":"nonpayable"},{"type":"function","name":"removeErrorToken","inputs":[{"name":"_address","type":"address","internalType":"address"}],"outputs":[],"stateMutability":"nonpayable"},{"type":"function","name":"renounceOwnership","inputs":[],"outputs":[],"stateMutability":"nonpayable"},{"type":"function","name":"rmvLimits","inputs":[],"outputs":[],"stateMutability":"nonpayable"},{"type":"function","name":"setMkt","inputs":[{"name":"marketingWallet","type":"address","internalType":"address payable"}],"outputs":[],"stateMutability":"nonpayable"},{"type":"function","name":"setSwapback","inputs":[{"name":"taxSwapThreshold","type":"uint256","internalType":"uint256"},{"name":"maxTaxSwap","type":"uint256","internalType":"uint256"}],"outputs":[],"stateMutability":"nonpayable"},{"type":"function","name":"setTax","inputs":[{"name":"buyTax","type":"uint256","internalType":"uint256"},{"name":"sellTax","type":"uint256","internalType":"uint256"}],"outputs":[],"stateMutability":"nonpayable"},{"type":"function","name":"setTx","inputs":[{"name":"newValue","type":"uint256","internalType":"uint256"}],"outputs":[],"stateMutability":"nonpayable"},{"type":"function","name":"symbol","inputs":[],"outputs":[{"name":"","type":"string","internalType":"string"}],"stateMutability":"view"},{"type":"function","name":"totalSupply","inputs":[],"outputs":[{"name":"","type":"uint256","internalType":"uint256"}],"stateMutability":"view"},{"type":"function","name":"transfer","inputs":[{"name":"recipient","type":"address","internalType":"address"},{"name":"amount","type":"uint256","internalType":"uint256"}],"outputs":[{"name":"","type":"bool","internalType":"bool"}],"stateMutability":"nonpayable"},{"type":"function","name":"transferFrom","inputs":[{"name":"sender","type":"address","internalType":"address"},{"name":"recipient","type":"address","internalType":"address"},{"name":"amount","type":"uint256","internalType":"uint256"}],"outputs":[{"name":"","type":"bool","internalType":"bool"}],"stateMutability":"nonpayable"},{"type":"function","name":"transferOwnership","inputs":[{"name":"newOwner","type":"address","internalType":"address"}],"outputs":[],"stateMutability":"nonpayable"},{"type":"function","name":"triggerSwap","inputs":[],"outputs":[],"stateMutability":"nonpayable"},{"type":"function","name":"viewInfo","inputs":[],"outputs":[{"name":"_buyFee","type":"uint256","internalType":"uint256"},{"name":"_sellFee","type":"uint256","internalType":"uint256"},{"name":"maxTxAmount","type":"uint256","internalType":"uint256"},{"name":"taxSwapThreshold","type":"uint256","internalType":"uint256"},{"name":"maxTaxSwap","type":"uint256","internalType":"uint256"}],"stateMutability":"view"},{"type":"event","name":"Approval","inputs":[{"name":"owner","type":"address","indexed":true,"internalType":"address"},{"name":"spender","type":"address","indexed":true,"internalType":"address"},{"name":"value","type":"uint256","indexed":false,"internalType":"uint256"}],"anonymous":false},{"type":"event","name":"ExcludedFromFee","inputs":[{"name":"account","type":"address","indexed":false,"internalType":"address"},{"name":"status","type":"bool","indexed":false,"internalType":"bool"}],"anonymous":false},{"type":"event","name":"FeeReceiverUpdated","inputs":[{"name":"_taxWallet","type":"address","indexed":false,"internalType":"address"}],"anonymous":false},{"type":"event","name":"FeesUpdated","inputs":[{"name":"buyFee","type":"uint256","indexed":false,"internalType":"uint256"},{"name":"sellFee","type":"uint256","indexed":false,"internalType":"uint256"}],"anonymous":false},{"type":"event","name":"MaxTxAmountUpdated","inputs":[{"name":"_txAmountLimit","type":"uint256","indexed":false,"internalType":"uint256"}],"anonymous":false},{"type":"event","name":"OwnershipTransferred","inputs":[{"name":"previousOwner","type":"address","indexed":true,"internalType":"address"},{"name":"newOwner","type":"address","indexed":true,"internalType":"address"}],"anonymous":false},{"type":"event","name":"SwapbackUpdated","inputs":[{"name":"_swapbackMin","type":"uint256","indexed":false,"internalType":"uint256"},{"name":"_swapbackMax","type":"uint256","indexed":false,"internalType":"uint256"}],"anonymous":false},{"type":"event","name":"TradingOpened","inputs":[],"anonymous":false},{"type":"event","name":"Transfer","inputs":[{"name":"from","type":"address","indexed":true,"internalType":"address"},{"name":"to","type":"address","indexed":true,"internalType":"address"},{"name":"value","type":"uint256","indexed":false,"internalType":"uint256"}],"anonymous":false}],"bytecode":{"object":"0x60806040526019600a819055600b556017600c556000600d556012805461ffff60a81b1916905534801561003257600080fd5b506040518060400160405280600c81526020016b2130b730b730902a37b5b2b760a11b8152506040518060400160405280600481526020016342414e4160e01b815250816003908161008491906103e7565b50600461009182826103e7565b5050506100aa6100a561020b60201b60201c565b61020f565b6aadb53acfa41aee120000006103e86100c48260146104bb565b6100ce91906104d8565b600e556127106100df8260016104bb565b6100e991906104d8565b600f556127106100fa8260c86104bb565b61010491906104d8565b601055600780546001600160a01b0319167305593a1dc1c52ba9c898ff3d5fcba2df637b3cd91790556001600660006101456005546001600160a01b031690565b6001600160a01b03908116825260208083019390935260409182016000908120805495151560ff199687161790553081526006909352818320805485166001908117909155600754909116835290822080548416821790557f54cdd369e4e8a8515e52ca72ec816c2101831ad1f18bf44102ed171459c9b4f8805484168217905561dead9091527f1aecba4ebe7a4e0673e4891b2b092b2228e4322380b579fb494fad3da8586e2280549092161790556102056101ff3390565b82610261565b5061050d565b3390565b600580546001600160a01b038381166001600160a01b0319831681179093556040519116919082907f8be0079c531659141344cd1fd0a4f28419497f9722a3daafe3b4186f6b6457e090600090a35050565b6001600160a01b0382166102bb5760405162461bcd60e51b815260206004820152601f60248201527f45524332303a206d696e7420746f20746865207a65726f206164647265737300604482015260640160405180910390fd5b80600260008282546102cd91906104fa565b90915550506001600160a01b038216600090815260208190526040812080548392906102fa9084906104fa565b90915550506040518181526001600160a01b038316906000907fddf252ad1be2c89b69c2b068fc378daa952ba7f163c4a11628f55a4df523b3ef9060200160405180910390a35050565b505050565b634e487b7160e01b600052604160045260246000fd5b600181811c9082168061037357607f821691505b60208210810361039357634e487b7160e01b600052602260045260246000fd5b50919050565b601f82111561034457806000526020600020601f840160051c810160208510156103c05750805b601f840160051c820191505b818110156103e057600081556001016103cc565b5050505050565b81516001600160401b0381111561040057610400610349565b6104148161040e845461035f565b84610399565b6020601f82116001811461044857600083156104305750848201515b600019600385901b1c1916600184901b1784556103e0565b600084815260208120601f198516915b828110156104785787850151825560209485019460019092019101610458565b50848210156104965786840151600019600387901b60f8161c191681555b50505050600190811b01905550565b634e487b7160e01b600052601160045260246000fd5b80820281158282048414176104d2576104d26104a5565b92915050565b6000826104f557634e487b7160e01b600052601260045260246000fd5b500490565b808201808211156104d2576104d26104a5565b611f088061051c6000396000f3fe60806040526004361061016a5760003560e01c806370a08231116100d1578063a9059cbb1161008a578063c8e0a45d11610064578063c8e0a45d14610439578063c9567bf914610459578063dd62ed3e1461046e578063f2fde38b146104b457600080fd5b8063a9059cbb146103b5578063ae601480146103d5578063b5973bd41461041957600080fd5b806370a08231146102f8578063715018a61461032e5780638da5cb5b146103435780638f937cc41461036b57806395d89b4114610380578063a457c2d71461039557600080fd5b80632dc4f5e6116101235780632dc4f5e614610247578063313ce567146102675780633950935114610283578063620cc86c146102a3578063667f6526146102c35780636ed6a48d146102e357600080fd5b80630313fc4b1461017657806306fdde0314610198578063095ea7b3146101c357806318160ddd146101f3578063217b6da61461021257806323b872dd1461022757600080fd5b3661017157005b600080fd5b34801561018257600080fd5b50610196610191366004611a76565b6104d4565b005b3480156101a457600080fd5b506101ad61058d565b6040516101ba9190611a98565b60405180910390f35b3480156101cf57600080fd5b506101e36101de366004611afb565b61061f565b60405190151581526020016101ba565b3480156101ff57600080fd5b506002545b6040519081526020016101ba565b34801561021e57600080fd5b50610196610636565b34801561023357600080fd5b506101e3610242366004611b27565b61069c565b34801561025357600080fd5b50610196610262366004611b76565b610746565b34801561027357600080fd5b50604051601281526020016101ba565b34801561028f57600080fd5b506101e361029e366004611afb565b6107cc565b3480156102af57600080fd5b506101966102be366004611baf565b610808565b3480156102cf57600080fd5b506101966102de366004611a76565b6108e0565b3480156102ef57600080fd5b506101966109dd565b34801561030457600080fd5b50610204610313366004611bc8565b6001600160a01b031660009081526020819052604090205490565b34801561033a57600080fd5b50610196610a4a565b34801561034f57600080fd5b506005546040516001600160a01b0390911681526020016101ba565b34801561037757600080fd5b50610196610a80565b34801561038c57600080fd5b506101ad610aeb565b3480156103a157600080fd5b506101e36103b0366004611afb565b610afa565b3480156103c157600080fd5b506101e36103d0366004611afb565b610b93565b3480156103e157600080fd5b50600a54600b54600e54600f54601054604080519586526020860194909452928401919091526060830152608082015260a0016101ba565b34801561042557600080fd5b50610196610434366004611bc8565b610ba0565b34801561044557600080fd5b50610196610454366004611bc8565b610c18565b34801561046557600080fd5b50610196610d28565b34801561047a57600080fd5b50610204610489366004611be5565b6001600160a01b03918216600090815260016020908152604080832093909416825291909152205490565b3480156104c057600080fd5b506101966104cf366004611bc8565b611144565b6005546001600160a01b031633146105075760405162461bcd60e51b81526004016104fe90611c13565b60405180910390fd5b6127108261051460025490565b61051e9190611c5e565b6105289190611c75565b600f556127108161053860025490565b6105429190611c5e565b61054c9190611c75565b60105560408051838152602081018390527f2b3f4c022d9943b151090e389857495bb9d8493714259cc19a540f5a11475fb191015b60405180910390a15050565b60606003805461059c90611c97565b80601f01602080910402602001604051908101604052809291908181526020018280546105c890611c97565b80156106155780601f106105ea57610100808354040283529160200191610615565b820191906000526020600020905b8154815290600101906020018083116105f857829003601f168201915b5050505050905090565b600061062c3384846111dc565b5060015b92915050565b6007546001600160a01b031633146106605760405162461bcd60e51b81526004016104fe90611ccb565b6007546040516001600160a01b03909116904780156108fc02916000818181858888f19350505050158015610699573d6000803e3d6000fd5b50565b60006106a9848484611300565b6001600160a01b03841660009081526001602090815260408083203384529091529020548281101561072e5760405162461bcd60e51b815260206004820152602860248201527f45524332303a207472616e7366657220616d6f756e74206578636565647320616044820152676c6c6f77616e636560c01b60648201526084016104fe565b61073b85338584036111dc565b506001949350505050565b6005546001600160a01b031633146107705760405162461bcd60e51b81526004016104fe90611c13565b6001600160a01b038216600081815260066020908152604091829020805460ff19168515159081179091558251938452908301527f2d43abd87b27cee7b0aa8c6f7e0b4a3247b683262a83cbc2318b0df398a49aa99101610581565b3360008181526001602090815260408083206001600160a01b0387168452909152812054909161062c918590610803908690611d02565b6111dc565b6005546001600160a01b031633146108325760405162461bcd60e51b81526004016104fe90611c13565b60018110156108835760405162461bcd60e51b815260206004820152601e60248201527f4d61782074782063616e74206265206c6f776572207468616e20302e3125000060448201526064016104fe565b6103e88161089060025490565b61089a9190611c5e565b6108a49190611c75565b600e8190556040519081527f947f344d56e1e8c70dc492fb94c4ddddd490c016aab685f5e7e47b2e85cb44cf906020015b60405180910390a150565b6005546001600160a01b0316331461090a5760405162461bcd60e51b81526004016104fe90611c13565b60198211156109535760405162461bcd60e51b8152602060048201526015602482015274496e76616c696420627579207461782076616c756560581b60448201526064016104fe565b601981111561099d5760405162461bcd60e51b8152602060048201526016602482015275496e76616c69642073656c6c207461782076616c756560501b60448201526064016104fe565b600a829055600b81905560408051838152602081018390527f5c6323bf1c2d7aaea2c091a4751c1c87af7f2864650c336507a77d0557af37a19101610581565b6005546001600160a01b03163314610a075760405162461bcd60e51b81526004016104fe90611c13565b600254600e557f947f344d56e1e8c70dc492fb94c4ddddd490c016aab685f5e7e47b2e85cb44cf610a3760025490565b60405190815260200160405180910390a1565b6005546001600160a01b03163314610a745760405162461bcd60e51b81526004016104fe90611c13565b610a7e60006116aa565b565b6007546001600160a01b0316331480610aa357506005546001600160a01b031633145b610abf5760405162461bcd60e51b81526004016104fe90611ccb565b30600090815260208190526040902054610ad8816116fc565b478015610ae757610ae7611895565b5050565b60606004805461059c90611c97565b3360009081526001602090815260408083206001600160a01b038616845290915281205482811015610b7c5760405162461bcd60e51b815260206004820152602560248201527f45524332303a2064656372656173656420616c6c6f77616e63652062656c6f77604482015264207a65726f60d81b60648201526084016104fe565b610b8933858584036111dc565b5060019392505050565b600061062c338484611300565b6005546001600160a01b03163314610bca5760405162461bcd60e51b81526004016104fe90611c13565b600780546001600160a01b0319166001600160a01b0383169081179091556040519081527f27aae5db36d94179909d019ae0b1ac7c16d96d953148f63c0f6a0a9c8ead79ee906020016108d5565b6007546001600160a01b03163314610c425760405162461bcd60e51b81526004016104fe90611ccb565b6007546040516370a0823160e01b81523060048201526001600160a01b038381169263a9059cbb9291169083906370a0823190602401602060405180830381865afa158015610c95573d6000803e3d6000fd5b505050506040513d601f19601f82011682018060405250810190610cb99190611d15565b6040516001600160e01b031960e085901b1681526001600160a01b03909216600483015260248201526044016020604051808303816000875af1158015610d04573d6000803e3d6000fd5b505050506040513d601f19601f82011682018060405250810190610ae79190611d2e565b6005546001600160a01b03163314610d525760405162461bcd60e51b81526004016104fe90611c13565b601254600160a01b900460ff1615610dac5760405162461bcd60e51b815260206004820152601760248201527f74726164696e6720697320616c7265616479206f70656e00000000000000000060448201526064016104fe565b601180546001600160a01b0319167310ed43c718714eb63d5aa57b78b54704e256024e908117909155610de490309061080360025490565b601160009054906101000a90046001600160a01b03166001600160a01b031663c45a01556040518163ffffffff1660e01b8152600401602060405180830381865afa158015610e37573d6000803e3d6000fd5b505050506040513d601f19601f82011682018060405250810190610e5b9190611d4b565b6001600160a01b031663c9c6539630601160009054906101000a90046001600160a01b03166001600160a01b031663ad5c46486040518163ffffffff1660e01b8152600401602060405180830381865afa158015610ebd573d6000803e3d6000fd5b505050506040513d601f19601f82011682018060405250810190610ee19190611d4b565b6040516001600160e01b031960e085901b1681526001600160a01b039283166004820152911660248201526044016020604051808303816000875af1158015610f2e573d6000803e3d6000fd5b505050506040513d601f19601f82011682018060405250810190610f529190611d4b565b601280546001600160a01b039283166001600160a01b03199091161790556011541663f305d7194730610f9a816001600160a01b031660009081526020819052604090205490565b600080610faf6005546001600160a01b031690565b60405160e088901b6001600160e01b03191681526001600160a01b03958616600482015260248101949094526044840192909252606483015290911660848201524260a482015260c40160606040518083038185885af1158015611017573d6000803e3d6000fd5b50505050506040513d601f19601f8201168201806040525081019061103c9190611d68565b505060125460115460405163095ea7b360e01b81526001600160a01b03918216600482015260001960248201529116915063095ea7b3906044016020604051808303816000875af1158015611095573d6000803e3d6000fd5b505050506040513d601f19601f820116820180604052508101906110b99190611d2e565b506012805462ff00ff60a01b19166201000160a01b1790554360088190556009805467ffffffffffffffff191667ffffffffffffffff90921691909117905530600090815260066020526040808220805460ff191660011790556017600a819055600b55517fea4359d5c4b8f0945a64ab9c37fe830b3407d45e0e6e6f84275977a570457d6f9190a1565b6005546001600160a01b0316331461116e5760405162461bcd60e51b81526004016104fe90611c13565b6001600160a01b0381166111d35760405162461bcd60e51b815260206004820152602660248201527f4f776e61626c653a206e6577206f776e657220697320746865207a65726f206160448201526564647265737360d01b60648201526084016104fe565b610699816116aa565b6001600160a01b03831661123e5760405162461bcd60e51b8152602060048201526024808201527f45524332303a20617070726f76652066726f6d20746865207a65726f206164646044820152637265737360e01b60648201526084016104fe565b6001600160a01b03821661129f5760405162461bcd60e51b815260206004820152602260248201527f45524332303a20617070726f766520746f20746865207a65726f206164647265604482015261737360f01b60648201526084016104fe565b6001600160a01b0383811660008181526001602090815260408083209487168084529482529182902085905590518481527f8c5be1e5ebec7d5bd14f71427d1e84f3dd0314c0f7b2291e5b200ac8c7c3b925910160405180910390a3505050565b6001600160a01b0383166113265760405162461bcd60e51b81526004016104fe90611d96565b6001600160a01b03821661134c5760405162461bcd60e51b81526004016104fe90611ddb565b600081116113ae5760405162461bcd60e51b815260206004820152602960248201527f5472616e7366657220616d6f756e74206d7573742062652067726561746572206044820152687468616e207a65726f60b81b60648201526084016104fe565b60006113c26005546001600160a01b031690565b6001600160a01b0316846001600160a01b0316141580156113f157506005546001600160a01b03848116911614155b80156114075750601254600160a81b900460ff16155b801561145057506001600160a01b03841660009081526006602052604090205460ff1615801561145057506001600160a01b03831660009081526006602052604090205460ff16155b801561148057506012546001600160a01b038581169116148061148057506012546001600160a01b038481169116145b1561167f576114a5606461149f600a54856118e290919063ffffffff16565b906118f5565b6012549091506001600160a01b0385811691161480156114d357506011546001600160a01b03848116911614155b80156114f857506001600160a01b03831660009081526006602052604090205460ff16155b1561158757600e5482111561154f5760405162461bcd60e51b815260206004820152601b60248201527f4578636565647320746865205f7478416d6f756e744c696d69742e000000000060448201526064016104fe565b43600854600361155f9190611d02565b111561157157823b1561157157600080fd5b600d805490600061158183611e1e565b91905055505b6012546001600160a01b0384811691161480156115ad57506001600160a01b0384163014155b156115cf576115cc606461149f600b54856118e290919063ffffffff16565b90505b30600090815260208190526040902054601254600160a81b900460ff1615801561160657506012546001600160a01b038581169116145b801561161b5750601254600160b01b900460ff165b80156116285750600f5481115b80156116375750600c54600d54115b801561165357506009544367ffffffffffffffff908116911614155b1561167d5761166c61166782601054611901565b6116fc565b47801561167b5761167b611895565b505b505b801561169057611690843083611916565b6116a4848461169f8585611a6a565b611916565b50505050565b600580546001600160a01b038381166001600160a01b0319831681179093556040519116919082907f8be0079c531659141344cd1fd0a4f28419497f9722a3daafe3b4186f6b6457e090600090a35050565b6012805460ff60a81b1916600160a81b1790556009805467ffffffffffffffff431667ffffffffffffffff19909116179055604080516002808252606082018352600092602083019080368337019050509050308160008151811061176357611763611e37565b6001600160a01b03928316602091820292909201810191909152601154604080516315ab88c960e31b81529051919093169263ad5c46489260048083019391928290030181865afa1580156117bc573d6000803e3d6000fd5b505050506040513d601f19601f820116820180604052508101906117e09190611d4b565b816001815181106117f3576117f3611e37565b6001600160a01b03928316602091820292909201015260115461181991309116846111dc565b60115460405163791ac94760e01b81526001600160a01b039091169063791ac94790611852908590600090869030904290600401611e4d565b600060405180830381600087803b15801561186c57600080fd5b505af1158015611880573d6000803e3d6000fd5b50506012805460ff60a81b1916905550505050565b6007546040516000916001600160a01b03169047908381818185875af1925050503d80600081146116a4576040519150601f19603f3d011682016040523d82523d6000602084013e6116a4565b60006118ee8284611c5e565b9392505050565b60006118ee8284611c75565b600081831161191057826118ee565b50919050565b6001600160a01b03831661193c5760405162461bcd60e51b81526004016104fe90611d96565b6001600160a01b0382166119625760405162461bcd60e51b81526004016104fe90611ddb565b6001600160a01b038316600090815260208190526040902054818110156119da5760405162461bcd60e51b815260206004820152602660248201527f45524332303a207472616e7366657220616d6f756e7420657863656564732062604482015265616c616e636560d01b60648201526084016104fe565b6001600160a01b03808516600090815260208190526040808220858503905591851681529081208054849290611a11908490611d02565b92505081905550826001600160a01b0316846001600160a01b03167fddf252ad1be2c89b69c2b068fc378daa952ba7f163c4a11628f55a4df523b3ef84604051611a5d91815260200190565b60405180910390a36116a4565b60006118ee8284611ebf565b60008060408385031215611a8957600080fd5b50508035926020909101359150565b602081526000825180602084015260005b81811015611ac65760208186018101516040868401015201611aa9565b506000604082850101526040601f19601f83011684010191505092915050565b6001600160a01b038116811461069957600080fd5b60008060408385031215611b0e57600080fd5b8235611b1981611ae6565b946020939093013593505050565b600080600060608486031215611b3c57600080fd5b8335611b4781611ae6565b92506020840135611b5781611ae6565b929592945050506040919091013590565b801515811461069957600080fd5b60008060408385031215611b8957600080fd5b8235611b9481611ae6565b91506020830135611ba481611b68565b809150509250929050565b600060208284031215611bc157600080fd5b5035919050565b600060208284031215611bda57600080fd5b81356118ee81611ae6565b60008060408385031215611bf857600080fd5b8235611c0381611ae6565b91506020830135611ba481611ae6565b6020808252818101527f4f776e61626c653a2063616c6c6572206973206e6f7420746865206f776e6572604082015260600190565b634e487b7160e01b600052601160045260246000fd5b808202811582820484141761063057610630611c48565b600082611c9257634e487b7160e01b600052601260045260246000fd5b500490565b600181811c90821680611cab57607f821691505b60208210810361191057634e487b7160e01b600052602260045260246000fd5b6020808252601d908201527f4f6e6c79206665652072656365697665722063616e2074726967676572000000604082015260600190565b8082018082111561063057610630611c48565b600060208284031215611d2757600080fd5b5051919050565b600060208284031215611d4057600080fd5b81516118ee81611b68565b600060208284031215611d5d57600080fd5b81516118ee81611ae6565b600080600060608486031215611d7d57600080fd5b5050815160208301516040909301519094929350919050565b60208082526025908201527f45524332303a207472616e736665722066726f6d20746865207a65726f206164604082015264647265737360d81b606082015260800190565b60208082526023908201527f45524332303a207472616e7366657220746f20746865207a65726f206164647260408201526265737360e81b606082015260800190565b600060018201611e3057611e30611c48565b5060010190565b634e487b7160e01b600052603260045260246000fd5b600060a0820187835286602084015260a0604084015280865180835260c08501915060208801925060005b81811015611e9f5783516001600160a01b0316835260209384019390920191600101611e78565b50506001600160a01b039590951660608401525050608001529392505050565b8181038181111561063057610630611c4856fea264697066735822122032c6d21c1a44971e5039008def52f69d0c1c8a0cc49e0c8daddb42b7bf8486ee64736f6c634300081a0033","linkReferences":{}},"methodIdentifiers":{"allowance(address,address)":"dd62ed3e","approve(address,uint256)":"095ea7b3","balanceOf(address)":"70a08231","decimals()":"313ce567","decreaseAllowance(address,uint256)":"a457c2d7","exemptFee(address,bool)":"2dc4f5e6","increaseAllowance(address,uint256)":"39509351","name()":"06fdde03","openTrading()":"c9567bf9","owner()":"8da5cb5b","removeETH()":"217b6da6","removeErrorToken(address)":"c8e0a45d","renounceOwnership()":"715018a6","rmvLimits()":"6ed6a48d","setMkt(address)":"b5973bd4","setSwapback(uint256,uint256)":"0313fc4b","setTax(uint256,uint256)":"667f6526","setTx(uint256)":"620cc86c","symbol()":"95d89b41","totalSupply()":"18160ddd","transfer(address,uint256)":"a9059cbb","transferFrom(address,address,uint256)":"23b872dd","transferOwnership(address)":"f2fde38b","triggerSwap()":"8f937cc4","viewInfo()":"ae601480"},"id":0}