{
  "_format": "hh-sol-artifact-1",
  "contractName": "BananaMarketplace",
  "sourceName": "contracts/BananaMarketplace.sol",
  "abi": [
    {
      "inputs": [
        {
          "internalType": "contract IERC20",
          "name": "_token",
          "type": "address"
        },
        {
          "internalType": "contract BananaNFT",
          "name": "_nft",
          "type": "address"
        }
      ],
      "stateMutability": "nonpayable",
      "type": "constructor"
    },
    {
      "inputs": [
        {
          "internalType": "address",
          "name": "owner",
          "type": "address"
        }
      ],
      "name": "OwnableInvalidOwner",
      "type": "error"
    },
    {
      "inputs": [
        {
          "internalType": "address",
          "name": "account",
          "type": "address"
        }
      ],
      "name": "OwnableUnauthorizedAccount",
      "type": "error"
    },
    {
      "anonymous": false,
      "inputs": [
        {
          "indexed": true,
          "internalType": "uint256",
          "name": "tokenId",
          "type": "uint256"
        },
        {
          "indexed": false,
          "internalType": "address",
          "name": "seller",
          "type": "address"
        },
        {
          "indexed": false,
          "internalType": "uint256",
          "name": "price",
          "type": "uint256"
        }
      ],
      "name": "Listed",
      "type": "event"
    },
    {
      "anonymous": false,
      "inputs": [
        {
          "indexed": true,
          "internalType": "address",
          "name": "previousOwner",
          "type": "address"
        },
        {
          "indexed": true,
          "internalType": "address",
          "name": "newOwner",
          "type": "address"
        }
      ],
      "name": "OwnershipTransferred",
      "type": "event"
    },
    {
      "anonymous": false,
      "inputs": [
        {
          "indexed": true,
          "internalType": "uint256",
          "name": "tokenId",
          "type": "uint256"
        },
        {
          "indexed": false,
          "internalType": "address",
          "name": "buyer",
          "type": "address"
        },
        {
          "indexed": false,
          "internalType": "uint256",
          "name": "price",
          "type": "uint256"
        }
      ],
      "name": "Purchased",
      "type": "event"
    },
    {
      "inputs": [],
      "name": "bananaNFT",
      "outputs": [
        {
          "internalType": "contract BananaNFT",
          "name": "",
          "type": "address"
        }
      ],
      "stateMutability": "view",
      "type": "function"
    },
    {
      "inputs": [],
      "name": "burnRate",
      "outputs": [
        {
          "internalType": "uint256",
          "name": "",
          "type": "uint256"
        }
      ],
      "stateMutability": "view",
      "type": "function"
    },
    {
      "inputs": [
        {
          "internalType": "uint256",
          "name": "tokenId",
          "type": "uint256"
        }
      ],
      "name": "buyNFT",
      "outputs": [],
      "stateMutability": "nonpayable",
      "type": "function"
    },
    {
      "inputs": [
        {
          "internalType": "uint256",
          "name": "tokenId",
          "type": "uint256"
        },
        {
          "internalType": "uint256",
          "name": "price",
          "type": "uint256"
        }
      ],
      "name": "listNFT",
      "outputs": [],
      "stateMutability": "nonpayable",
      "type": "function"
    },
    {
      "inputs": [
        {
          "internalType": "uint256",
          "name": "",
          "type": "uint256"
        }
      ],
      "name": "listings",
      "outputs": [
        {
          "internalType": "address",
          "name": "seller",
          "type": "address"
        },
        {
          "internalType": "uint256",
          "name": "price",
          "type": "uint256"
        }
      ],
      "stateMutability": "view",
      "type": "function"
    },
    {
      "inputs": [
        {
          "internalType": "address",
          "name": "",
          "type": "address"
        },
        {
          "internalType": "address",
          "name": "",
          "type": "address"
        },
        {
          "internalType": "uint256",
          "name": "",
          "type": "uint256"
        },
        {
          "internalType": "bytes",
          "name": "",
          "type": "bytes"
        }
      ],
      "name": "onERC721Received",
      "outputs": [
        {
          "internalType": "bytes4",
          "name": "",
          "type": "bytes4"
        }
      ],
      "stateMutability": "pure",
      "type": "function"
    },
    {
      "inputs": [],
      "name": "owner",
      "outputs": [
        {
          "internalType": "address",
          "name": "",
          "type": "address"
        }
      ],
      "stateMutability": "view",
      "type": "function"
    },
    {
      "inputs": [],
      "name": "renounceOwnership",
      "outputs": [],
      "stateMutability": "nonpayable",
      "type": "function"
    },
    {
      "inputs": [
        {
          "internalType": "uint256",
          "name": "_burnRate",
          "type": "uint256"
        }
      ],
      "name": "setBurnRate",
      "outputs": [],
      "stateMutability": "nonpayable",
      "type": "function"
    },
    {
      "inputs": [],
      "name": "token",
      "outputs": [
        {
          "internalType": "contract IERC20",
          "name": "",
          "type": "address"
        }
      ],
      "stateMutability": "view",
      "type": "function"
    },
    {
      "inputs": [
        {
          "internalType": "address",
          "name": "newOwner",
          "type": "address"
        }
      ],
      "name": "transferOwnership",
      "outputs": [],
      "stateMutability": "nonpayable",
      "type": "function"
    },
    {
      "inputs": [],
      "name": "withdrawBurnedTokens",
      "outputs": [],
      "stateMutability": "nonpayable",
      "type": "function"
    }
  ],
  "bytecode": "0x6080604052600560035534801561001557600080fd5b5060405161181a38038061181a833981810160405281019061003791906102ba565b33600073ffffffffffffffffffffffffffffffffffffffff168173ffffffffffffffffffffffffffffffffffffffff16036100aa5760006040517f1e4fbdf70000000000000000000000000000000000000000000000000000000081526004016100a19190610309565b60405180910390fd5b6100b98161014360201b60201c565b5081600160006101000a81548173ffffffffffffffffffffffffffffffffffffffff021916908373ffffffffffffffffffffffffffffffffffffffff16021790555080600260006101000a81548173ffffffffffffffffffffffffffffffffffffffff021916908373ffffffffffffffffffffffffffffffffffffffff1602179055505050610324565b60008060009054906101000a900473ffffffffffffffffffffffffffffffffffffffff169050816000806101000a81548173ffffffffffffffffffffffffffffffffffffffff021916908373ffffffffffffffffffffffffffffffffffffffff1602179055508173ffffffffffffffffffffffffffffffffffffffff168173ffffffffffffffffffffffffffffffffffffffff167f8be0079c531659141344cd1fd0a4f28419497f9722a3daafe3b4186f6b6457e060405160405180910390a35050565b600080fd5b600073ffffffffffffffffffffffffffffffffffffffff82169050919050565b60006102378261020c565b9050919050565b60006102498261022c565b9050919050565b6102598161023e565b811461026457600080fd5b50565b60008151905061027681610250565b92915050565b60006102878261022c565b9050919050565b6102978161027c565b81146102a257600080fd5b50565b6000815190506102b48161028e565b92915050565b600080604083850312156102d1576102d0610207565b5b60006102df85828601610267565b92505060206102f0858286016102a5565b9150509250929050565b6103038161022c565b82525050565b600060208201905061031e60008301846102fa565b92915050565b6114e7806103336000396000f3fe608060405234801561001057600080fd5b50600436106100b45760003560e01c8063acf7793111610071578063acf7793114610165578063bed9985014610183578063de74e57b146101a1578063e14ed3e5146101d2578063f2fde38b146101dc578063fc0c546a146101f8576100b4565b8063150b7a02146100b9578063189d165e146100e957806351ed828814610105578063715018a6146101215780638da5cb5b1461012b57806394383f1414610149575b600080fd5b6100d360048036038101906100ce9190610e20565b610216565b6040516100e09190610ee3565b60405180910390f35b61010360048036038101906100fe9190610efe565b61022b565b005b61011f600480360381019061011a9190610efe565b610280565b005b61012961060f565b005b610133610623565b6040516101409190610f3a565b60405180910390f35b610163600480360381019061015e9190610f55565b61064c565b005b61016d61095b565b60405161017a9190610ff4565b60405180910390f35b61018b610981565b604051610198919061101e565b60405180910390f35b6101bb60048036038101906101b69190610efe565b610987565b6040516101c9929190611039565b60405180910390f35b6101da6109cb565b005b6101f660048036038101906101f19190611062565b610b1e565b005b610200610ba4565b60405161020d91906110b0565b60405180910390f35b600063150b7a0260e01b905095945050505050565b610233610bca565b60148110610276576040517f08c379a000000000000000000000000000000000000000000000000000000000815260040161026d90611128565b60405180910390fd5b8060038190555050565b6000600460008381526020019081526020016000206040518060400160405290816000820160009054906101000a900473ffffffffffffffffffffffffffffffffffffffff1673ffffffffffffffffffffffffffffffffffffffff1673ffffffffffffffffffffffffffffffffffffffff1681526020016001820154815250509050600073ffffffffffffffffffffffffffffffffffffffff16816000015173ffffffffffffffffffffffffffffffffffffffff1603610375576040517f08c379a000000000000000000000000000000000000000000000000000000000815260040161036c90611194565b60405180910390fd5b60006064600354836020015161038b91906111e3565b6103959190611254565b905060008183602001516103a99190611285565b9050600160009054906101000a900473ffffffffffffffffffffffffffffffffffffffff1673ffffffffffffffffffffffffffffffffffffffff166323b872dd3330856040518463ffffffff1660e01b815260040161040a939291906112b9565b6020604051808303816000875af1158015610429573d6000803e3d6000fd5b505050506040513d601f19601f8201168201806040525081019061044d9190611328565b50600160009054906101000a900473ffffffffffffffffffffffffffffffffffffffff1673ffffffffffffffffffffffffffffffffffffffff166323b872dd338560000151846040518463ffffffff1660e01b81526004016104b1939291906112b9565b6020604051808303816000875af11580156104d0573d6000803e3d6000fd5b505050506040513d601f19601f820116820180604052508101906104f49190611328565b50600260009054906101000a900473ffffffffffffffffffffffffffffffffffffffff1673ffffffffffffffffffffffffffffffffffffffff166323b872dd3033876040518463ffffffff1660e01b8152600401610554939291906112b9565b600060405180830381600087803b15801561056e57600080fd5b505af1158015610582573d6000803e3d6000fd5b5050505060046000858152602001908152602001600020600080820160006101000a81549073ffffffffffffffffffffffffffffffffffffffff021916905560018201600090555050837ffd51b2c9f55c42d2b72ac683526519563be02fc0107f034ff430c05185ff1b66338560200151604051610601929190611039565b60405180910390a250505050565b610617610bca565b6106216000610c51565b565b60008060009054906101000a900473ffffffffffffffffffffffffffffffffffffffff16905090565b3373ffffffffffffffffffffffffffffffffffffffff16600260009054906101000a900473ffffffffffffffffffffffffffffffffffffffff1673ffffffffffffffffffffffffffffffffffffffff16636352211e846040518263ffffffff1660e01b81526004016106be919061101e565b602060405180830381865afa1580156106db573d6000803e3d6000fd5b505050506040513d601f19601f820116820180604052508101906106ff919061136a565b73ffffffffffffffffffffffffffffffffffffffff1614610755576040517f08c379a000000000000000000000000000000000000000000000000000000000815260040161074c906113e3565b60405180910390fd5b600073ffffffffffffffffffffffffffffffffffffffff166004600084815260200190815260200160002060000160009054906101000a900473ffffffffffffffffffffffffffffffffffffffff1673ffffffffffffffffffffffffffffffffffffffff16146107fa576040517f08c379a00000000000000000000000000000000000000000000000000000000081526004016107f19061144f565b60405180910390fd5b600260009054906101000a900473ffffffffffffffffffffffffffffffffffffffff1673ffffffffffffffffffffffffffffffffffffffff166323b872dd3330856040518463ffffffff1660e01b8152600401610859939291906112b9565b600060405180830381600087803b15801561087357600080fd5b505af1158015610887573d6000803e3d6000fd5b5050505060405180604001604052803373ffffffffffffffffffffffffffffffffffffffff168152602001828152506004600084815260200190815260200160002060008201518160000160006101000a81548173ffffffffffffffffffffffffffffffffffffffff021916908373ffffffffffffffffffffffffffffffffffffffff16021790555060208201518160010155905050817f50955776c5778c3b7d968d86d8c51fb6b29a7a74c20866b533268e209fc08343338360405161094f929190611039565b60405180910390a25050565b600260009054906101000a900473ffffffffffffffffffffffffffffffffffffffff1681565b60035481565b60046020528060005260406000206000915090508060000160009054906101000a900473ffffffffffffffffffffffffffffffffffffffff16908060010154905082565b6109d3610bca565b6000600160009054906101000a900473ffffffffffffffffffffffffffffffffffffffff1673ffffffffffffffffffffffffffffffffffffffff166370a08231306040518263ffffffff1660e01b8152600401610a309190610f3a565b602060405180830381865afa158015610a4d573d6000803e3d6000fd5b505050506040513d601f19601f82011682018060405250810190610a719190611484565b9050600160009054906101000a900473ffffffffffffffffffffffffffffffffffffffff1673ffffffffffffffffffffffffffffffffffffffff1663a9059cbb610ab9610623565b836040518363ffffffff1660e01b8152600401610ad7929190611039565b6020604051808303816000875af1158015610af6573d6000803e3d6000fd5b505050506040513d601f19601f82011682018060405250810190610b1a9190611328565b5050565b610b26610bca565b600073ffffffffffffffffffffffffffffffffffffffff168173ffffffffffffffffffffffffffffffffffffffff1603610b985760006040517f1e4fbdf7000000000000000000000000000000000000000000000000000000008152600401610b8f9190610f3a565b60405180910390fd5b610ba181610c51565b50565b600160009054906101000a900473ffffffffffffffffffffffffffffffffffffffff1681565b610bd2610d15565b73ffffffffffffffffffffffffffffffffffffffff16610bf0610623565b73ffffffffffffffffffffffffffffffffffffffff1614610c4f57610c13610d15565b6040517f118cdaa7000000000000000000000000000000000000000000000000000000008152600401610c469190610f3a565b60405180910390fd5b565b60008060009054906101000a900473ffffffffffffffffffffffffffffffffffffffff169050816000806101000a81548173ffffffffffffffffffffffffffffffffffffffff021916908373ffffffffffffffffffffffffffffffffffffffff1602179055508173ffffffffffffffffffffffffffffffffffffffff168173ffffffffffffffffffffffffffffffffffffffff167f8be0079c531659141344cd1fd0a4f28419497f9722a3daafe3b4186f6b6457e060405160405180910390a35050565b600033905090565b600080fd5b600080fd5b600073ffffffffffffffffffffffffffffffffffffffff82169050919050565b6000610d5282610d27565b9050919050565b610d6281610d47565b8114610d6d57600080fd5b50565b600081359050610d7f81610d59565b92915050565b6000819050919050565b610d9881610d85565b8114610da357600080fd5b50565b600081359050610db581610d8f565b92915050565b600080fd5b600080fd5b600080fd5b60008083601f840112610de057610ddf610dbb565b5b8235905067ffffffffffffffff811115610dfd57610dfc610dc0565b5b602083019150836001820283011115610e1957610e18610dc5565b5b9250929050565b600080600080600060808688031215610e3c57610e3b610d1d565b5b6000610e4a88828901610d70565b9550506020610e5b88828901610d70565b9450506040610e6c88828901610da6565b935050606086013567ffffffffffffffff811115610e8d57610e8c610d22565b5b610e9988828901610dca565b92509250509295509295909350565b60007fffffffff0000000000000000000000000000000000000000000000000000000082169050919050565b610edd81610ea8565b82525050565b6000602082019050610ef86000830184610ed4565b92915050565b600060208284031215610f1457610f13610d1d565b5b6000610f2284828501610da6565b91505092915050565b610f3481610d47565b82525050565b6000602082019050610f4f6000830184610f2b565b92915050565b60008060408385031215610f6c57610f6b610d1d565b5b6000610f7a85828601610da6565b9250506020610f8b85828601610da6565b9150509250929050565b6000819050919050565b6000610fba610fb5610fb084610d27565b610f95565b610d27565b9050919050565b6000610fcc82610f9f565b9050919050565b6000610fde82610fc1565b9050919050565b610fee81610fd3565b82525050565b60006020820190506110096000830184610fe5565b92915050565b61101881610d85565b82525050565b6000602082019050611033600083018461100f565b92915050565b600060408201905061104e6000830185610f2b565b61105b602083018461100f565b9392505050565b60006020828403121561107857611077610d1d565b5b600061108684828501610d70565b91505092915050565b600061109a82610fc1565b9050919050565b6110aa8161108f565b82525050565b60006020820190506110c560008301846110a1565b92915050565b600082825260208201905092915050565b7f496e76616c6964205f6275726e52617465000000000000000000000000000000600082015250565b60006111126011836110cb565b915061111d826110dc565b602082019050919050565b6000602082019050818103600083015261114181611105565b9050919050565b7f4e6f74206c697374656400000000000000000000000000000000000000000000600082015250565b600061117e600a836110cb565b915061118982611148565b602082019050919050565b600060208201905081810360008301526111ad81611171565b9050919050565b7f4e487b7100000000000000000000000000000000000000000000000000000000600052601160045260246000fd5b60006111ee82610d85565b91506111f983610d85565b925082820261120781610d85565b9150828204841483151761121e5761121d6111b4565b5b5092915050565b7f4e487b7100000000000000000000000000000000000000000000000000000000600052601260045260246000fd5b600061125f82610d85565b915061126a83610d85565b92508261127a57611279611225565b5b828204905092915050565b600061129082610d85565b915061129b83610d85565b92508282039050818111156112b3576112b26111b4565b5b92915050565b60006060820190506112ce6000830186610f2b565b6112db6020830185610f2b565b6112e8604083018461100f565b949350505050565b60008115159050919050565b611305816112f0565b811461131057600080fd5b50565b600081519050611322816112fc565b92915050565b60006020828403121561133e5761133d610d1d565b5b600061134c84828501611313565b91505092915050565b60008151905061136481610d59565b92915050565b6000602082840312156113805761137f610d1d565b5b600061138e84828501611355565b91505092915050565b7f4e6f74206f776e65720000000000000000000000000000000000000000000000600082015250565b60006113cd6009836110cb565b91506113d882611397565b602082019050919050565b600060208201905081810360008301526113fc816113c0565b9050919050565b7f416c7265616479206c6973746564000000000000000000000000000000000000600082015250565b6000611439600e836110cb565b915061144482611403565b602082019050919050565b600060208201905081810360008301526114688161142c565b9050919050565b60008151905061147e81610d8f565b92915050565b60006020828403121561149a57611499610d1d565b5b60006114a88482850161146f565b9150509291505056fea264697066735822122093c14013c748b5e1273621e925135769e99edeaeee7cc15e2dacec6552defbb464736f6c634300081a0033",
  "linkReferences": {},
  "deployedLinkReferences": {}
}