{
  "_format": "hh-sol-artifact-1",
  "contractName": "BananaNFT",
  "sourceName": "contracts/BananaNFT.sol",
  "abi": [
    {
      "inputs": [
        {
          "internalType": "uint256",
          "name": "_mintInterval",
          "type": "uint256"
        },
        {
          "internalType": "contract IERC20",
          "name": "_token",
          "type": "address"
        }
      ],
      "stateMutability": "nonpayable",
      "type": "constructor"
    },
    {
      "inputs": [],
      "name": "ERC721EnumerableForbiddenBatchMint",
      "type": "error"
    },
    {
      "inputs": [
        {
          "internalType": "address",
          "name": "sender",
          "type": "address"
        },
        {
          "internalType": "uint256",
          "name": "tokenId",
          "type": "uint256"
        },
        {
          "internalType": "address",
          "name": "owner",
          "type": "address"
        }
      ],
      "name": "ERC721IncorrectOwner",
      "type": "error"
    },
    {
      "inputs": [
        {
          "internalType": "address",
          "name": "operator",
          "type": "address"
        },
        {
          "internalType": "uint256",
          "name": "tokenId",
          "type": "uint256"
        }
      ],
      "name": "ERC721InsufficientApproval",
      "type": "error"
    },
    {
      "inputs": [
        {
          "internalType": "address",
          "name": "approver",
          "type": "address"
        }
      ],
      "name": "ERC721InvalidApprover",
      "type": "error"
    },
    {
      "inputs": [
        {
          "internalType": "address",
          "name": "operator",
          "type": "address"
        }
      ],
      "name": "ERC721InvalidOperator",
      "type": "error"
    },
    {
      "inputs": [
        {
          "internalType": "address",
          "name": "owner",
          "type": "address"
        }
      ],
      "name": "ERC721InvalidOwner",
      "type": "error"
    },
    {
      "inputs": [
        {
          "internalType": "address",
          "name": "receiver",
          "type": "address"
        }
      ],
      "name": "ERC721InvalidReceiver",
      "type": "error"
    },
    {
      "inputs": [
        {
          "internalType": "address",
          "name": "sender",
          "type": "address"
        }
      ],
      "name": "ERC721InvalidSender",
      "type": "error"
    },
    {
      "inputs": [
        {
          "internalType": "uint256",
          "name": "tokenId",
          "type": "uint256"
        }
      ],
      "name": "ERC721NonexistentToken",
      "type": "error"
    },
    {
      "inputs": [
        {
          "internalType": "address",
          "name": "owner",
          "type": "address"
        },
        {
          "internalType": "uint256",
          "name": "index",
          "type": "uint256"
        }
      ],
      "name": "ERC721OutOfBoundsIndex",
      "type": "error"
    },
    {
      "inputs": [
        {
          "internalType": "address",
          "name": "owner",
          "type": "address"
        }
      ],
      "name": "OwnableInvalidOwner",
      "type": "error"
    },
    {
      "inputs": [
        {
          "internalType": "address",
          "name": "account",
          "type": "address"
        }
      ],
      "name": "OwnableUnauthorizedAccount",
      "type": "error"
    },
    {
      "anonymous": false,
      "inputs": [
        {
          "indexed": true,
          "internalType": "address",
          "name": "owner",
          "type": "address"
        },
        {
          "indexed": true,
          "internalType": "address",
          "name": "approved",
          "type": "address"
        },
        {
          "indexed": true,
          "internalType": "uint256",
          "name": "tokenId",
          "type": "uint256"
        }
      ],
      "name": "Approval",
      "type": "event"
    },
    {
      "anonymous": false,
      "inputs": [
        {
          "indexed": true,
          "internalType": "address",
          "name": "owner",
          "type": "address"
        },
        {
          "indexed": true,
          "internalType": "address",
          "name": "operator",
          "type": "address"
        },
        {
          "indexed": false,
          "internalType": "bool",
          "name": "approved",
          "type": "bool"
        }
      ],
      "name": "ApprovalForAll",
      "type": "event"
    },
    {
      "anonymous": false,
      "inputs": [
        {
          "indexed": true,
          "internalType": "address",
          "name": "user",
          "type": "address"
        },
        {
          "indexed": false,
          "internalType": "uint256",
          "name": "tokenId",
          "type": "uint256"
        },
        {
          "indexed": false,
          "internalType": "uint256",
          "name": "level",
          "type": "uint256"
        }
      ],
      "name": "Minted",
      "type": "event"
    },
    {
      "anonymous": false,
      "inputs": [
        {
          "indexed": true,
          "internalType": "address",
          "name": "previousOwner",
          "type": "address"
        },
        {
          "indexed": true,
          "internalType": "address",
          "name": "newOwner",
          "type": "address"
        }
      ],
      "name": "OwnershipTransferred",
      "type": "event"
    },
    {
      "anonymous": false,
      "inputs": [
        {
          "indexed": true,
          "internalType": "address",
          "name": "from",
          "type": "address"
        },
        {
          "indexed": true,
          "internalType": "address",
          "name": "to",
          "type": "address"
        },
        {
          "indexed": true,
          "internalType": "uint256",
          "name": "tokenId",
          "type": "uint256"
        }
      ],
      "name": "Transfer",
      "type": "event"
    },
    {
      "inputs": [],
      "name": "_isSaleActive",
      "outputs": [
        {
          "internalType": "bool",
          "name": "",
          "type": "bool"
        }
      ],
      "stateMutability": "view",
      "type": "function"
    },
    {
      "inputs": [],
      "name": "_revealed",
      "outputs": [
        {
          "internalType": "bool",
          "name": "",
          "type": "bool"
        }
      ],
      "stateMutability": "view",
      "type": "function"
    },
    {
      "inputs": [
        {
          "internalType": "uint256",
          "name": "tokenId",
          "type": "uint256"
        }
      ],
      "name": "_tokenURIs",
      "outputs": [
        {
          "internalType": "string",
          "name": "",
          "type": "string"
        }
      ],
      "stateMutability": "view",
      "type": "function"
    },
    {
      "inputs": [
        {
          "internalType": "address",
          "name": "to",
          "type": "address"
        },
        {
          "internalType": "uint256",
          "name": "tokenId",
          "type": "uint256"
        }
      ],
      "name": "approve",
      "outputs": [],
      "stateMutability": "nonpayable",
      "type": "function"
    },
    {
      "inputs": [
        {
          "internalType": "address",
          "name": "owner",
          "type": "address"
        }
      ],
      "name": "balanceOf",
      "outputs": [
        {
          "internalType": "uint256",
          "name": "",
          "type": "uint256"
        }
      ],
      "stateMutability": "view",
      "type": "function"
    },
    {
      "inputs": [],
      "name": "currentTokenId",
      "outputs": [
        {
          "internalType": "uint256",
          "name": "",
          "type": "uint256"
        }
      ],
      "stateMutability": "view",
      "type": "function"
    },
    {
      "inputs": [],
      "name": "flipReveal",
      "outputs": [],
      "stateMutability": "nonpayable",
      "type": "function"
    },
    {
      "inputs": [],
      "name": "flipSaleActive",
      "outputs": [],
      "stateMutability": "nonpayable",
      "type": "function"
    },
    {
      "inputs": [
        {
          "internalType": "uint256",
          "name": "tokenId",
          "type": "uint256"
        }
      ],
      "name": "getApproved",
      "outputs": [
        {
          "internalType": "address",
          "name": "",
          "type": "address"
        }
      ],
      "stateMutability": "view",
      "type": "function"
    },
    {
      "inputs": [
        {
          "internalType": "address",
          "name": "owner",
          "type": "address"
        },
        {
          "internalType": "address",
          "name": "operator",
          "type": "address"
        }
      ],
      "name": "isApprovedForAll",
      "outputs": [
        {
          "internalType": "bool",
          "name": "",
          "type": "bool"
        }
      ],
      "stateMutability": "view",
      "type": "function"
    },
    {
      "inputs": [
        {
          "internalType": "address",
          "name": "",
          "type": "address"
        }
      ],
      "name": "isOnline",
      "outputs": [
        {
          "internalType": "bool",
          "name": "",
          "type": "bool"
        }
      ],
      "stateMutability": "view",
      "type": "function"
    },
    {
      "inputs": [
        {
          "internalType": "address",
          "name": "",
          "type": "address"
        }
      ],
      "name": "lastMintTime",
      "outputs": [
        {
          "internalType": "uint256",
          "name": "",
          "type": "uint256"
        }
      ],
      "stateMutability": "view",
      "type": "function"
    },
    {
      "inputs": [
        {
          "internalType": "string",
          "name": "uri",
          "type": "string"
        }
      ],
      "name": "mint",
      "outputs": [],
      "stateMutability": "nonpayable",
      "type": "function"
    },
    {
      "inputs": [],
      "name": "mintInterval",
      "outputs": [
        {
          "internalType": "uint256",
          "name": "",
          "type": "uint256"
        }
      ],
      "stateMutability": "view",
      "type": "function"
    },
    {
      "inputs": [],
      "name": "mintPrice",
      "outputs": [
        {
          "internalType": "uint256",
          "name": "",
          "type": "uint256"
        }
      ],
      "stateMutability": "view",
      "type": "function"
    },
    {
      "inputs": [],
      "name": "mysteryBox",
      "outputs": [],
      "stateMutability": "payable",
      "type": "function"
    },
    {
      "inputs": [],
      "name": "name",
      "outputs": [
        {
          "internalType": "string",
          "name": "",
          "type": "string"
        }
      ],
      "stateMutability": "view",
      "type": "function"
    },
    {
      "inputs": [],
      "name": "notRevealedUri",
      "outputs": [
        {
          "internalType": "string",
          "name": "",
          "type": "string"
        }
      ],
      "stateMutability": "view",
      "type": "function"
    },
    {
      "inputs": [],
      "name": "owner",
      "outputs": [
        {
          "internalType": "address",
          "name": "",
          "type": "address"
        }
      ],
      "stateMutability": "view",
      "type": "function"
    },
    {
      "inputs": [
        {
          "internalType": "uint256",
          "name": "tokenId",
          "type": "uint256"
        }
      ],
      "name": "ownerOf",
      "outputs": [
        {
          "internalType": "address",
          "name": "",
          "type": "address"
        }
      ],
      "stateMutability": "view",
      "type": "function"
    },
    {
      "inputs": [],
      "name": "renounceOwnership",
      "outputs": [],
      "stateMutability": "nonpayable",
      "type": "function"
    },
    {
      "inputs": [
        {
          "internalType": "address",
          "name": "from",
          "type": "address"
        },
        {
          "internalType": "address",
          "name": "to",
          "type": "address"
        },
        {
          "internalType": "uint256",
          "name": "tokenId",
          "type": "uint256"
        }
      ],
      "name": "safeTransferFrom",
      "outputs": [],
      "stateMutability": "nonpayable",
      "type": "function"
    },
    {
      "inputs": [
        {
          "internalType": "address",
          "name": "from",
          "type": "address"
        },
        {
          "internalType": "address",
          "name": "to",
          "type": "address"
        },
        {
          "internalType": "uint256",
          "name": "tokenId",
          "type": "uint256"
        },
        {
          "internalType": "bytes",
          "name": "data",
          "type": "bytes"
        }
      ],
      "name": "safeTransferFrom",
      "outputs": [],
      "stateMutability": "nonpayable",
      "type": "function"
    },
    {
      "inputs": [],
      "name": "saleEndTime",
      "outputs": [
        {
          "internalType": "uint256",
          "name": "",
          "type": "uint256"
        }
      ],
      "stateMutability": "view",
      "type": "function"
    },
    {
      "inputs": [
        {
          "internalType": "address",
          "name": "operator",
          "type": "address"
        },
        {
          "internalType": "bool",
          "name": "approved",
          "type": "bool"
        }
      ],
      "name": "setApprovalForAll",
      "outputs": [],
      "stateMutability": "nonpayable",
      "type": "function"
    },
    {
      "inputs": [
        {
          "internalType": "uint256",
          "name": "_mintPrice",
          "type": "uint256"
        }
      ],
      "name": "setMintPrice",
      "outputs": [],
      "stateMutability": "nonpayable",
      "type": "function"
    },
    {
      "inputs": [
        {
          "internalType": "string",
          "name": "_notRevealedURI",
          "type": "string"
        }
      ],
      "name": "setNotRevealedURI",
      "outputs": [],
      "stateMutability": "nonpayable",
      "type": "function"
    },
    {
      "inputs": [
        {
          "internalType": "uint256",
          "name": "duration",
          "type": "uint256"
        }
      ],
      "name": "startSale",
      "outputs": [],
      "stateMutability": "nonpayable",
      "type": "function"
    },
    {
      "inputs": [
        {
          "internalType": "bytes4",
          "name": "interfaceId",
          "type": "bytes4"
        }
      ],
      "name": "supportsInterface",
      "outputs": [
        {
          "internalType": "bool",
          "name": "",
          "type": "bool"
        }
      ],
      "stateMutability": "view",
      "type": "function"
    },
    {
      "inputs": [],
      "name": "symbol",
      "outputs": [
        {
          "internalType": "string",
          "name": "",
          "type": "string"
        }
      ],
      "stateMutability": "view",
      "type": "function"
    },
    {
      "inputs": [],
      "name": "token",
      "outputs": [
        {
          "internalType": "contract IERC20",
          "name": "",
          "type": "address"
        }
      ],
      "stateMutability": "view",
      "type": "function"
    },
    {
      "inputs": [
        {
          "internalType": "uint256",
          "name": "index",
          "type": "uint256"
        }
      ],
      "name": "tokenByIndex",
      "outputs": [
        {
          "internalType": "uint256",
          "name": "",
          "type": "uint256"
        }
      ],
      "stateMutability": "view",
      "type": "function"
    },
    {
      "inputs": [
        {
          "internalType": "uint256",
          "name": "",
          "type": "uint256"
        }
      ],
      "name": "tokenLevels",
      "outputs": [
        {
          "internalType": "uint256",
          "name": "",
          "type": "uint256"
        }
      ],
      "stateMutability": "view",
      "type": "function"
    },
    {
      "inputs": [
        {
          "internalType": "address",
          "name": "owner",
          "type": "address"
        },
        {
          "internalType": "uint256",
          "name": "index",
          "type": "uint256"
        }
      ],
      "name": "tokenOfOwnerByIndex",
      "outputs": [
        {
          "internalType": "uint256",
          "name": "",
          "type": "uint256"
        }
      ],
      "stateMutability": "view",
      "type": "function"
    },
    {
      "inputs": [
        {
          "internalType": "uint256",
          "name": "tokenId",
          "type": "uint256"
        }
      ],
      "name": "tokenURI",
      "outputs": [
        {
          "internalType": "string",
          "name": "",
          "type": "string"
        }
      ],
      "stateMutability": "view",
      "type": "function"
    },
    {
      "inputs": [],
      "name": "totalSupply",
      "outputs": [
        {
          "internalType": "uint256",
          "name": "",
          "type": "uint256"
        }
      ],
      "stateMutability": "view",
      "type": "function"
    },
    {
      "inputs": [
        {
          "internalType": "address",
          "name": "from",
          "type": "address"
        },
        {
          "internalType": "address",
          "name": "to",
          "type": "address"
        },
        {
          "internalType": "uint256",
          "name": "tokenId",
          "type": "uint256"
        }
      ],
      "name": "transferFrom",
      "outputs": [],
      "stateMutability": "nonpayable",
      "type": "function"
    },
    {
      "inputs": [
        {
          "internalType": "address",
          "name": "newOwner",
          "type": "address"
        }
      ],
      "name": "transferOwnership",
      "outputs": [],
      "stateMutability": "nonpayable",
      "type": "function"
    },
    {
      "inputs": [
        {
          "internalType": "address",
          "name": "user",
          "type": "address"
        }
      ],
      "name": "updateOnlineMintTime",
      "outputs": [],
      "stateMutability": "nonpayable",
      "type": "function"
    },
    {
      "inputs": [
        {
          "internalType": "address",
          "name": "user",
          "type": "address"
        }
      ],
      "name": "updateOutlineMintTime",
      "outputs": [],
      "stateMutability": "nonpayable",
      "type": "function"
    },
    {
      "inputs": [],
      "name": "withdraw",
      "outputs": [],
      "stateMutability": "nonpayable",
      "type": "function"
    }
  ],
  "bytecode": "0x6080604052662386f26fc10000600d556000601060006101000a81548160ff0219169083151502179055506000601060016101000a81548160ff02191690831515021790555034801561005157600080fd5b506040516141a53803806141a583398181016040528101906100739190610344565b336040518060400160405280600981526020017f42616e616e614e465400000000000000000000000000000000000000000000008152506040518060400160405280600481526020017f424e46540000000000000000000000000000000000000000000000000000000081525081600090816100ef91906105ca565b5080600190816100ff91906105ca565b505050600073ffffffffffffffffffffffffffffffffffffffff168173ffffffffffffffffffffffffffffffffffffffff16036101745760006040517f1e4fbdf700000000000000000000000000000000000000000000000000000000815260040161016b91906106ab565b60405180910390fd5b610183816101d360201b60201c565b5081600e8190555080600c60006101000a81548173ffffffffffffffffffffffffffffffffffffffff021916908373ffffffffffffffffffffffffffffffffffffffff16021790555050506106c6565b6000600a60009054906101000a900473ffffffffffffffffffffffffffffffffffffffff16905081600a60006101000a81548173ffffffffffffffffffffffffffffffffffffffff021916908373ffffffffffffffffffffffffffffffffffffffff1602179055508173ffffffffffffffffffffffffffffffffffffffff168173ffffffffffffffffffffffffffffffffffffffff167f8be0079c531659141344cd1fd0a4f28419497f9722a3daafe3b4186f6b6457e060405160405180910390a35050565b600080fd5b6000819050919050565b6102b18161029e565b81146102bc57600080fd5b50565b6000815190506102ce816102a8565b92915050565b600073ffffffffffffffffffffffffffffffffffffffff82169050919050565b60006102ff826102d4565b9050919050565b6000610311826102f4565b9050919050565b61032181610306565b811461032c57600080fd5b50565b60008151905061033e81610318565b92915050565b6000806040838503121561035b5761035a610299565b5b6000610369858286016102bf565b925050602061037a8582860161032f565b9150509250929050565b600081519050919050565b7f4e487b7100000000000000000000000000000000000000000000000000000000600052604160045260246000fd5b7f4e487b7100000000000000000000000000000000000000000000000000000000600052602260045260246000fd5b6000600282049050600182168061040557607f821691505b602082108103610418576104176103be565b5b50919050565b60008190508160005260206000209050919050565b60006020601f8301049050919050565b600082821b905092915050565b6000600883026104807fffffffffffffffffffffffffffffffffffffffffffffffffffffffffffffffff82610443565b61048a8683610443565b95508019841693508086168417925050509392505050565b6000819050919050565b60006104c76104c26104bd8461029e565b6104a2565b61029e565b9050919050565b6000819050919050565b6104e1836104ac565b6104f56104ed826104ce565b848454610450565b825550505050565b600090565b61050a6104fd565b6105158184846104d8565b505050565b5b818110156105395761052e600082610502565b60018101905061051b565b5050565b601f82111561057e5761054f8161041e565b61055884610433565b81016020851015610567578190505b61057b61057385610433565b83018261051a565b50505b505050565b600082821c905092915050565b60006105a160001984600802610583565b1980831691505092915050565b60006105ba8383610590565b9150826002028217905092915050565b6105d382610384565b67ffffffffffffffff8111156105ec576105eb61038f565b5b6105f682546103ed565b61060182828561053d565b600060209050601f8311600181146106345760008415610622578287015190505b61062c85826105ae565b865550610694565b601f1984166106428661041e565b60005b8281101561066a57848901518255600182019150602085019450602081019050610645565b868310156106875784890151610683601f891682610590565b8355505b6001600288020188555050505b505050505050565b6106a5816102f4565b82525050565b60006020820190506106c0600083018461069c565b92915050565b613ad0806106d56000396000f3fe6080604052600436106102455760003560e01c80636aa71d1811610139578063c8022f10116100b6578063e985e9c51161007a578063e985e9c51461086e578063ed338ff1146108ab578063f2c4ce1e146108d6578063f2fde38b146108ff578063f4a0a52814610928578063fc0c546a1461095157610245565b8063c8022f101461078b578063c87b56dd146107b4578063d85d3d27146107f1578063de8b51e11461081a578063e600d94d1461083157610245565b80638da5cb5b116100fd5780638da5cb5b146106d957806395d89b4114610704578063a22cb4651461072f578063b88d4fde14610758578063c38b761c1461078157610245565b80636aa71d18146105f25780636ebeac851461062f5780637080d6fc1461065a57806370a0823114610685578063715018a6146106c257610245565b806318160ddd116101c75780633ccfd60b1161018b5780633ccfd60b1461050d57806342842e0e146105245780634f6ccce71461054d5780636352211e1461058a5780636817c76c146105c757610245565b806318160ddd1461043c57806323b872dd14610467578063267de63d146104905780632f745c59146104b95780633b84d9c6146104f657610245565b8063081c8c441161020e578063081c8c4414610357578063095ea7b3146103825780630bb78ec1146103ab5780630e3ab61d146103e85780630e726e6b1461041157610245565b80629a9b7b1461024a57806301ffc9a71461027557806303e69146146102b257806306fdde03146102ef578063081812fc1461031a575b600080fd5b34801561025657600080fd5b5061025f61097c565b60405161026c9190612af6565b60405180910390f35b34801561028157600080fd5b5061029c60048036038101906102979190612b7d565b610986565b6040516102a99190612bc5565b60405180910390f35b3480156102be57600080fd5b506102d960048036038101906102d49190612c3e565b610a00565b6040516102e69190612bc5565b60405180910390f35b3480156102fb57600080fd5b50610304610a20565b6040516103119190612cfb565b60405180910390f35b34801561032657600080fd5b50610341600480360381019061033c9190612d49565b610ab2565b60405161034e9190612d85565b60405180910390f35b34801561036357600080fd5b5061036c610ace565b6040516103799190612cfb565b60405180910390f35b34801561038e57600080fd5b506103a960048036038101906103a49190612da0565b610b5c565b005b3480156103b757600080fd5b506103d260048036038101906103cd9190612d49565b610b72565b6040516103df9190612cfb565b60405180910390f35b3480156103f457600080fd5b5061040f600480360381019061040a9190612d49565b610c12565b005b34801561041d57600080fd5b50610426610c2f565b6040516104339190612af6565b60405180910390f35b34801561044857600080fd5b50610451610c35565b60405161045e9190612af6565b60405180910390f35b34801561047357600080fd5b5061048e60048036038101906104899190612de0565b610c42565b005b34801561049c57600080fd5b506104b760048036038101906104b29190612c3e565b610d44565b005b3480156104c557600080fd5b506104e060048036038101906104db9190612da0565b610deb565b6040516104ed9190612af6565b60405180910390f35b34801561050257600080fd5b5061050b610e94565b005b34801561051957600080fd5b50610522610ec8565b005b34801561053057600080fd5b5061054b60048036038101906105469190612de0565b610f20565b005b34801561055957600080fd5b50610574600480360381019061056f9190612d49565b610f40565b6040516105819190612af6565b60405180910390f35b34801561059657600080fd5b506105b160048036038101906105ac9190612d49565b610fb6565b6040516105be9190612d85565b60405180910390f35b3480156105d357600080fd5b506105dc610fc8565b6040516105e99190612af6565b60405180910390f35b3480156105fe57600080fd5b5061061960048036038101906106149190612c3e565b610fce565b6040516106269190612af6565b60405180910390f35b34801561063b57600080fd5b50610644610fe6565b6040516106519190612bc5565b60405180910390f35b34801561066657600080fd5b5061066f610ff9565b60405161067c9190612bc5565b60405180910390f35b34801561069157600080fd5b506106ac60048036038101906106a79190612c3e565b61100c565b6040516106b99190612af6565b60405180910390f35b3480156106ce57600080fd5b506106d76110c6565b005b3480156106e557600080fd5b506106ee6110da565b6040516106fb9190612d85565b60405180910390f35b34801561071057600080fd5b50610719611104565b6040516107269190612cfb565b60405180910390f35b34801561073b57600080fd5b5061075660048036038101906107519190612e5f565b611196565b005b34801561076457600080fd5b5061077f600480360381019061077a9190612fd4565b6111ac565b005b6107896111c9565b005b34801561079757600080fd5b506107b260048036038101906107ad9190612c3e565b61133f565b005b3480156107c057600080fd5b506107db60048036038101906107d69190612d49565b6113e6565b6040516107e89190612cfb565b60405180910390f35b3480156107fd57600080fd5b50610818600480360381019061081391906130f8565b61149b565b005b34801561082657600080fd5b5061082f6116e8565b005b34801561083d57600080fd5b5061085860048036038101906108539190612d49565b61171c565b6040516108659190612af6565b60405180910390f35b34801561087a57600080fd5b5061089560048036038101906108909190613141565b611734565b6040516108a29190612bc5565b60405180910390f35b3480156108b757600080fd5b506108c06117c8565b6040516108cd9190612af6565b60405180910390f35b3480156108e257600080fd5b506108fd60048036038101906108f891906130f8565b6117ce565b005b34801561090b57600080fd5b5061092660048036038101906109219190612c3e565b6117e9565b005b34801561093457600080fd5b5061094f600480360381019061094a9190612d49565b61186f565b005b34801561095d57600080fd5b50610966611881565b60405161097391906131e0565b60405180910390f35b6000600b54905090565b60007f780e9d63000000000000000000000000000000000000000000000000000000007bffffffffffffffffffffffffffffffffffffffffffffffffffffffff1916827bffffffffffffffffffffffffffffffffffffffffffffffffffffffff191614806109f957506109f8826118a7565b5b9050919050565b60166020528060005260406000206000915054906101000a900460ff1681565b606060008054610a2f9061322a565b80601f0160208091040260200160405190810160405280929190818152602001828054610a5b9061322a565b8015610aa85780601f10610a7d57610100808354040283529160200191610aa8565b820191906000526020600020905b815481529060010190602001808311610a8b57829003601f168201915b5050505050905090565b6000610abd82611989565b50610ac782611a11565b9050919050565b60128054610adb9061322a565b80601f0160208091040260200160405190810160405280929190818152602001828054610b079061322a565b8015610b545780601f10610b2957610100808354040283529160200191610b54565b820191906000526020600020905b815481529060010190602001808311610b3757829003601f168201915b505050505081565b610b6e8282610b69611a4e565b611a56565b5050565b60136020528060005260406000206000915090508054610b919061322a565b80601f0160208091040260200160405190810160405280929190818152602001828054610bbd9061322a565b8015610c0a5780601f10610bdf57610100808354040283529160200191610c0a565b820191906000526020600020905b815481529060010190602001808311610bed57829003601f168201915b505050505081565b610c1a611a68565b8042610c26919061328a565b600f8190555050565b600e5481565b6000600880549050905090565b600073ffffffffffffffffffffffffffffffffffffffff168273ffffffffffffffffffffffffffffffffffffffff1603610cb45760006040517f64a0ae92000000000000000000000000000000000000000000000000000000008152600401610cab9190612d85565b60405180910390fd5b6000610cc88383610cc3611a4e565b611aef565b90508373ffffffffffffffffffffffffffffffffffffffff168173ffffffffffffffffffffffffffffffffffffffff1614610d3e578382826040517f64283d7b000000000000000000000000000000000000000000000000000000008152600401610d35939291906132be565b60405180910390fd5b50505050565b610d4c611a68565b42601460008373ffffffffffffffffffffffffffffffffffffffff1673ffffffffffffffffffffffffffffffffffffffff168152602001908152602001600020819055506000601660008373ffffffffffffffffffffffffffffffffffffffff1673ffffffffffffffffffffffffffffffffffffffff16815260200190815260200160002060006101000a81548160ff02191690831515021790555050565b6000610df68361100c565b8210610e3b5782826040517fa57d13dc000000000000000000000000000000000000000000000000000000008152600401610e329291906132f5565b60405180910390fd5b600660008473ffffffffffffffffffffffffffffffffffffffff1673ffffffffffffffffffffffffffffffffffffffff168152602001908152602001600020600083815260200190815260200160002054905092915050565b610e9c611a68565b601060019054906101000a900460ff1615601060016101000a81548160ff021916908315150217905550565b610ed0611a68565b610ed86110da565b73ffffffffffffffffffffffffffffffffffffffff166108fc479081150290604051600060405180830381858888f19350505050158015610f1d573d6000803e3d6000fd5b50565b610f3b838383604051806020016040528060008152506111ac565b505050565b6000610f4a610c35565b8210610f90576000826040517fa57d13dc000000000000000000000000000000000000000000000000000000008152600401610f879291906132f5565b60405180910390fd5b60088281548110610fa457610fa361331e565b5b90600052602060002001549050919050565b6000610fc182611989565b9050919050565b600d5481565b60146020528060005260406000206000915090505481565b601060019054906101000a900460ff1681565b601060009054906101000a900460ff1681565b60008073ffffffffffffffffffffffffffffffffffffffff168273ffffffffffffffffffffffffffffffffffffffff160361107f5760006040517f89c62b640000000000000000000000000000000000000000000000000000000081526004016110769190612d85565b60405180910390fd5b600360008373ffffffffffffffffffffffffffffffffffffffff1673ffffffffffffffffffffffffffffffffffffffff168152602001908152602001600020549050919050565b6110ce611a68565b6110d86000611c0c565b565b6000600a60009054906101000a900473ffffffffffffffffffffffffffffffffffffffff16905090565b6060600180546111139061322a565b80601f016020809104026020016040519081016040528092919081815260200182805461113f9061322a565b801561118c5780601f106111615761010080835404028352916020019161118c565b820191906000526020600020905b81548152906001019060200180831161116f57829003601f168201915b5050505050905090565b6111a86111a1611a4e565b8383611cd2565b5050565b6111b7848484610c42565b6111c384848484611e41565b50505050565b601060009054906101000a900460ff16611218576040517f08c379a000000000000000000000000000000000000000000000000000000000815260040161120f90613399565b60405180910390fd5b600f54421061125c576040517f08c379a000000000000000000000000000000000000000000000000000000000815260040161125390613405565b60405180910390fd5b600d5434146112a0576040517f08c379a000000000000000000000000000000000000000000000000000000000815260040161129790613471565b60405180910390fd5b600b600081546112af90613491565b919050819055506000600b5490506112c73382611ff8565b60006112d1612016565b90508060156000848152602001908152602001600020819055503373ffffffffffffffffffffffffffffffffffffffff167f25b428dfde728ccfaddad7e29e4ac23c24ed7fd1a6e3e3f91894a9a073f5dfff83836040516113339291906134d9565b60405180910390a25050565b611347611a68565b42601460008373ffffffffffffffffffffffffffffffffffffffff1673ffffffffffffffffffffffffffffffffffffffff168152602001908152602001600020819055506001601660008373ffffffffffffffffffffffffffffffffffffffff1673ffffffffffffffffffffffffffffffffffffffff16815260200190815260200160002060006101000a81548160ff02191690831515021790555050565b60606113f182611989565b5060006013600084815260200190815260200160002080546114129061322a565b80601f016020809104026020016040519081016040528092919081815260200182805461143e9061322a565b801561148b5780601f106114605761010080835404028352916020019161148b565b820191906000526020600020905b81548152906001019060200180831161146e57829003601f168201915b5050505050905080915050919050565b600e54601460003373ffffffffffffffffffffffffffffffffffffffff1673ffffffffffffffffffffffffffffffffffffffff168152602001908152602001600020546114e8919061328a565b42101561152a576040517f08c379a00000000000000000000000000000000000000000000000000000000081526004016115219061354e565b60405180910390fd5b601660003373ffffffffffffffffffffffffffffffffffffffff1673ffffffffffffffffffffffffffffffffffffffff16815260200190815260200160002060009054906101000a900460ff166115b6576040517f08c379a00000000000000000000000000000000000000000000000000000000081526004016115ad906135ba565b60405180910390fd5b600f5442106115fa576040517f08c379a00000000000000000000000000000000000000000000000000000000081526004016115f190613405565b60405180910390fd5b600b6000815461160990613491565b919050819055506000600b54905042601460003373ffffffffffffffffffffffffffffffffffffffff1673ffffffffffffffffffffffffffffffffffffffff168152602001908152602001600020819055506116653382611ff8565b61166f8183612092565b6000611679612016565b90508060156000848152602001908152602001600020819055503373ffffffffffffffffffffffffffffffffffffffff167f25b428dfde728ccfaddad7e29e4ac23c24ed7fd1a6e3e3f91894a9a073f5dfff83836040516116db9291906134d9565b60405180910390a2505050565b6116f0611a68565b601060009054906101000a900460ff1615601060006101000a81548160ff021916908315150217905550565b60156020528060005260406000206000915090505481565b6000600560008473ffffffffffffffffffffffffffffffffffffffff1673ffffffffffffffffffffffffffffffffffffffff16815260200190815260200160002060008373ffffffffffffffffffffffffffffffffffffffff1673ffffffffffffffffffffffffffffffffffffffff16815260200190815260200160002060009054906101000a900460ff16905092915050565b600f5481565b6117d6611a68565b80601290816117e5919061377c565b5050565b6117f1611a68565b600073ffffffffffffffffffffffffffffffffffffffff168173ffffffffffffffffffffffffffffffffffffffff16036118635760006040517f1e4fbdf700000000000000000000000000000000000000000000000000000000815260040161185a9190612d85565b60405180910390fd5b61186c81611c0c565b50565b611877611a68565b80600d8190555050565b600c60009054906101000a900473ffffffffffffffffffffffffffffffffffffffff1681565b60007f80ac58cd000000000000000000000000000000000000000000000000000000007bffffffffffffffffffffffffffffffffffffffffffffffffffffffff1916827bffffffffffffffffffffffffffffffffffffffffffffffffffffffff1916148061197257507f5b5e139f000000000000000000000000000000000000000000000000000000007bffffffffffffffffffffffffffffffffffffffffffffffffffffffff1916827bffffffffffffffffffffffffffffffffffffffffffffffffffffffff1916145b806119825750611981826120b7565b5b9050919050565b60008061199583612121565b9050600073ffffffffffffffffffffffffffffffffffffffff168173ffffffffffffffffffffffffffffffffffffffff1603611a0857826040517f7e2732890000000000000000000000000000000000000000000000000000000081526004016119ff9190612af6565b60405180910390fd5b80915050919050565b60006004600083815260200190815260200160002060009054906101000a900473ffffffffffffffffffffffffffffffffffffffff169050919050565b600033905090565b611a63838383600161215e565b505050565b611a70611a4e565b73ffffffffffffffffffffffffffffffffffffffff16611a8e6110da565b73ffffffffffffffffffffffffffffffffffffffff1614611aed57611ab1611a4e565b6040517f118cdaa7000000000000000000000000000000000000000000000000000000008152600401611ae49190612d85565b60405180910390fd5b565b600080611afd858585612323565b9050600073ffffffffffffffffffffffffffffffffffffffff168173ffffffffffffffffffffffffffffffffffffffff1603611b4157611b3c8461253d565b611b80565b8473ffffffffffffffffffffffffffffffffffffffff168173ffffffffffffffffffffffffffffffffffffffff1614611b7f57611b7e8185612586565b5b5b600073ffffffffffffffffffffffffffffffffffffffff168573ffffffffffffffffffffffffffffffffffffffff1603611bc257611bbd846126e7565b611c01565b8473ffffffffffffffffffffffffffffffffffffffff168173ffffffffffffffffffffffffffffffffffffffff1614611c0057611bff85856127b8565b5b5b809150509392505050565b6000600a60009054906101000a900473ffffffffffffffffffffffffffffffffffffffff16905081600a60006101000a81548173ffffffffffffffffffffffffffffffffffffffff021916908373ffffffffffffffffffffffffffffffffffffffff1602179055508173ffffffffffffffffffffffffffffffffffffffff168173ffffffffffffffffffffffffffffffffffffffff167f8be0079c531659141344cd1fd0a4f28419497f9722a3daafe3b4186f6b6457e060405160405180910390a35050565b600073ffffffffffffffffffffffffffffffffffffffff168273ffffffffffffffffffffffffffffffffffffffff1603611d4357816040517f5b08ba18000000000000000000000000000000000000000000000000000000008152600401611d3a9190612d85565b60405180910390fd5b80600560008573ffffffffffffffffffffffffffffffffffffffff1673ffffffffffffffffffffffffffffffffffffffff16815260200190815260200160002060008473ffffffffffffffffffffffffffffffffffffffff1673ffffffffffffffffffffffffffffffffffffffff16815260200190815260200160002060006101000a81548160ff0219169083151502179055508173ffffffffffffffffffffffffffffffffffffffff168373ffffffffffffffffffffffffffffffffffffffff167f17307eab39ab6107e8899845ad3d59bd9653f200f220920489ca2b5937696c3183604051611e349190612bc5565b60405180910390a3505050565b60008373ffffffffffffffffffffffffffffffffffffffff163b1115611ff2578273ffffffffffffffffffffffffffffffffffffffff1663150b7a02611e85611a4e565b8685856040518563ffffffff1660e01b8152600401611ea794939291906138a3565b6020604051808303816000875af1925050508015611ee357506040513d601f19601f82011682018060405250810190611ee09190613904565b60015b611f67573d8060008114611f13576040519150601f19603f3d011682016040523d82523d6000602084013e611f18565b606091505b506000815103611f5f57836040517f64a0ae92000000000000000000000000000000000000000000000000000000008152600401611f569190612d85565b60405180910390fd5b805181602001fd5b63150b7a0260e01b7bffffffffffffffffffffffffffffffffffffffffffffffffffffffff1916817bffffffffffffffffffffffffffffffffffffffffffffffffffffffff191614611ff057836040517f64a0ae92000000000000000000000000000000000000000000000000000000008152600401611fe79190612d85565b60405180910390fd5b505b50505050565b612012828260405180602001604052806000815250612843565b5050565b6000804233600b546040516020016120309392919061399a565b6040516020818303038152906040528051906020012060001c9050600560648261205a9190613a06565b101561206a57600391505061208f565b60146064826120799190613a06565b101561208957600291505061208f565b60019150505b90565b806013600084815260200190815260200160002090816120b2919061377c565b505050565b60007f01ffc9a7000000000000000000000000000000000000000000000000000000007bffffffffffffffffffffffffffffffffffffffffffffffffffffffff1916827bffffffffffffffffffffffffffffffffffffffffffffffffffffffff1916149050919050565b60006002600083815260200190815260200160002060009054906101000a900473ffffffffffffffffffffffffffffffffffffffff169050919050565b80806121975750600073ffffffffffffffffffffffffffffffffffffffff168273ffffffffffffffffffffffffffffffffffffffff1614155b156122cb5760006121a784611989565b9050600073ffffffffffffffffffffffffffffffffffffffff168373ffffffffffffffffffffffffffffffffffffffff161415801561221257508273ffffffffffffffffffffffffffffffffffffffff168173ffffffffffffffffffffffffffffffffffffffff1614155b801561222557506122238184611734565b155b1561226757826040517fa9fbf51f00000000000000000000000000000000000000000000000000000000815260040161225e9190612d85565b60405180910390fd5b81156122c957838573ffffffffffffffffffffffffffffffffffffffff168273ffffffffffffffffffffffffffffffffffffffff167f8c5be1e5ebec7d5bd14f71427d1e84f3dd0314c0f7b2291e5b200ac8c7c3b92560405160405180910390a45b505b836004600085815260200190815260200160002060006101000a81548173ffffffffffffffffffffffffffffffffffffffff021916908373ffffffffffffffffffffffffffffffffffffffff16021790555050505050565b60008061232f84612121565b9050600073ffffffffffffffffffffffffffffffffffffffff168373ffffffffffffffffffffffffffffffffffffffff16146123715761237081848661285f565b5b600073ffffffffffffffffffffffffffffffffffffffff168173ffffffffffffffffffffffffffffffffffffffff1614612402576123b360008560008061215e565b6001600360008373ffffffffffffffffffffffffffffffffffffffff1673ffffffffffffffffffffffffffffffffffffffff168152602001908152602001600020600082825403925050819055505b600073ffffffffffffffffffffffffffffffffffffffff168573ffffffffffffffffffffffffffffffffffffffff1614612485576001600360008773ffffffffffffffffffffffffffffffffffffffff1673ffffffffffffffffffffffffffffffffffffffff168152602001908152602001600020600082825401925050819055505b846002600086815260200190815260200160002060006101000a81548173ffffffffffffffffffffffffffffffffffffffff021916908373ffffffffffffffffffffffffffffffffffffffff160217905550838573ffffffffffffffffffffffffffffffffffffffff168273ffffffffffffffffffffffffffffffffffffffff167fddf252ad1be2c89b69c2b068fc378daa952ba7f163c4a11628f55a4df523b3ef60405160405180910390a4809150509392505050565b6008805490506009600083815260200190815260200160002081905550600881908060018154018082558091505060019003906000526020600020016000909190919091505550565b60006125918361100c565b9050600060076000848152602001908152602001600020549050818114612676576000600660008673ffffffffffffffffffffffffffffffffffffffff1673ffffffffffffffffffffffffffffffffffffffff168152602001908152602001600020600084815260200190815260200160002054905080600660008773ffffffffffffffffffffffffffffffffffffffff1673ffffffffffffffffffffffffffffffffffffffff168152602001908152602001600020600084815260200190815260200160002081905550816007600083815260200190815260200160002081905550505b6007600084815260200190815260200160002060009055600660008573ffffffffffffffffffffffffffffffffffffffff1673ffffffffffffffffffffffffffffffffffffffff16815260200190815260200160002060008381526020019081526020016000206000905550505050565b600060016008805490506126fb9190613a37565b905060006009600084815260200190815260200160002054905060006008838154811061272b5761272a61331e565b5b90600052602060002001549050806008838154811061274d5761274c61331e565b5b90600052602060002001819055508160096000838152602001908152602001600020819055506009600085815260200190815260200160002060009055600880548061279c5761279b613a6b565b5b6001900381819060005260206000200160009055905550505050565b600060016127c58461100c565b6127cf9190613a37565b905081600660008573ffffffffffffffffffffffffffffffffffffffff1673ffffffffffffffffffffffffffffffffffffffff168152602001908152602001600020600083815260200190815260200160002081905550806007600084815260200190815260200160002081905550505050565b61284d8383612923565b61285a6000848484611e41565b505050565b61286a838383612a1c565b61291e57600073ffffffffffffffffffffffffffffffffffffffff168373ffffffffffffffffffffffffffffffffffffffff16036128df57806040517f7e2732890000000000000000000000000000000000000000000000000000000081526004016128d69190612af6565b60405180910390fd5b81816040517f177e802f0000000000000000000000000000000000000000000000000000000081526004016129159291906132f5565b60405180910390fd5b505050565b600073ffffffffffffffffffffffffffffffffffffffff168273ffffffffffffffffffffffffffffffffffffffff16036129955760006040517f64a0ae9200000000000000000000000000000000000000000000000000000000815260040161298c9190612d85565b60405180910390fd5b60006129a383836000611aef565b9050600073ffffffffffffffffffffffffffffffffffffffff168173ffffffffffffffffffffffffffffffffffffffff1614612a175760006040517f73c6ac6e000000000000000000000000000000000000000000000000000000008152600401612a0e9190612d85565b60405180910390fd5b505050565b60008073ffffffffffffffffffffffffffffffffffffffff168373ffffffffffffffffffffffffffffffffffffffff1614158015612ad457508273ffffffffffffffffffffffffffffffffffffffff168473ffffffffffffffffffffffffffffffffffffffff161480612a955750612a948484611734565b5b80612ad357508273ffffffffffffffffffffffffffffffffffffffff16612abb83611a11565b73ffffffffffffffffffffffffffffffffffffffff16145b5b90509392505050565b6000819050919050565b612af081612add565b82525050565b6000602082019050612b0b6000830184612ae7565b92915050565b6000604051905090565b600080fd5b600080fd5b60007fffffffff0000000000000000000000000000000000000000000000000000000082169050919050565b612b5a81612b25565b8114612b6557600080fd5b50565b600081359050612b7781612b51565b92915050565b600060208284031215612b9357612b92612b1b565b5b6000612ba184828501612b68565b91505092915050565b60008115159050919050565b612bbf81612baa565b82525050565b6000602082019050612bda6000830184612bb6565b92915050565b600073ffffffffffffffffffffffffffffffffffffffff82169050919050565b6000612c0b82612be0565b9050919050565b612c1b81612c00565b8114612c2657600080fd5b50565b600081359050612c3881612c12565b92915050565b600060208284031215612c5457612c53612b1b565b5b6000612c6284828501612c29565b91505092915050565b600081519050919050565b600082825260208201905092915050565b60005b83811015612ca5578082015181840152602081019050612c8a565b60008484015250505050565b6000601f19601f8301169050919050565b6000612ccd82612c6b565b612cd78185612c76565b9350612ce7818560208601612c87565b612cf081612cb1565b840191505092915050565b60006020820190508181036000830152612d158184612cc2565b905092915050565b612d2681612add565b8114612d3157600080fd5b50565b600081359050612d4381612d1d565b92915050565b600060208284031215612d5f57612d5e612b1b565b5b6000612d6d84828501612d34565b91505092915050565b612d7f81612c00565b82525050565b6000602082019050612d9a6000830184612d76565b92915050565b60008060408385031215612db757612db6612b1b565b5b6000612dc585828601612c29565b9250506020612dd685828601612d34565b9150509250929050565b600080600060608486031215612df957612df8612b1b565b5b6000612e0786828701612c29565b9350506020612e1886828701612c29565b9250506040612e2986828701612d34565b9150509250925092565b612e3c81612baa565b8114612e4757600080fd5b50565b600081359050612e5981612e33565b92915050565b60008060408385031215612e7657612e75612b1b565b5b6000612e8485828601612c29565b9250506020612e9585828601612e4a565b9150509250929050565b600080fd5b600080fd5b7f4e487b7100000000000000000000000000000000000000000000000000000000600052604160045260246000fd5b612ee182612cb1565b810181811067ffffffffffffffff82111715612f0057612eff612ea9565b5b80604052505050565b6000612f13612b11565b9050612f1f8282612ed8565b919050565b600067ffffffffffffffff821115612f3f57612f3e612ea9565b5b612f4882612cb1565b9050602081019050919050565b82818337600083830152505050565b6000612f77612f7284612f24565b612f09565b905082815260208101848484011115612f9357612f92612ea4565b5b612f9e848285612f55565b509392505050565b600082601f830112612fbb57612fba612e9f565b5b8135612fcb848260208601612f64565b91505092915050565b60008060008060808587031215612fee57612fed612b1b565b5b6000612ffc87828801612c29565b945050602061300d87828801612c29565b935050604061301e87828801612d34565b925050606085013567ffffffffffffffff81111561303f5761303e612b20565b5b61304b87828801612fa6565b91505092959194509250565b600067ffffffffffffffff82111561307257613071612ea9565b5b61307b82612cb1565b9050602081019050919050565b600061309b61309684613057565b612f09565b9050828152602081018484840111156130b7576130b6612ea4565b5b6130c2848285612f55565b509392505050565b600082601f8301126130df576130de612e9f565b5b81356130ef848260208601613088565b91505092915050565b60006020828403121561310e5761310d612b1b565b5b600082013567ffffffffffffffff81111561312c5761312b612b20565b5b613138848285016130ca565b91505092915050565b6000806040838503121561315857613157612b1b565b5b600061316685828601612c29565b925050602061317785828601612c29565b9150509250929050565b6000819050919050565b60006131a66131a161319c84612be0565b613181565b612be0565b9050919050565b60006131b88261318b565b9050919050565b60006131ca826131ad565b9050919050565b6131da816131bf565b82525050565b60006020820190506131f560008301846131d1565b92915050565b7f4e487b7100000000000000000000000000000000000000000000000000000000600052602260045260246000fd5b6000600282049050600182168061324257607f821691505b602082108103613255576132546131fb565b5b50919050565b7f4e487b7100000000000000000000000000000000000000000000000000000000600052601160045260246000fd5b600061329582612add565b91506132a083612add565b92508282019050808211156132b8576132b761325b565b5b92915050565b60006060820190506132d36000830186612d76565b6132e06020830185612ae7565b6132ed6040830184612d76565b949350505050565b600060408201905061330a6000830185612d76565b6133176020830184612ae7565b9392505050565b7f4e487b7100000000000000000000000000000000000000000000000000000000600052603260045260246000fd5b7f53616c65206973206e6f74206163746976650000000000000000000000000000600082015250565b6000613383601283612c76565b915061338e8261334d565b602082019050919050565b600060208201905081810360008301526133b281613376565b9050919050565b7f53616c6520656e64656400000000000000000000000000000000000000000000600082015250565b60006133ef600a83612c76565b91506133fa826133b9565b602082019050919050565b6000602082019050818103600083015261341e816133e2565b9050919050565b7f496e636f7272656374204554482076616c756500000000000000000000000000600082015250565b600061345b601383612c76565b915061346682613425565b602082019050919050565b6000602082019050818103600083015261348a8161344e565b9050919050565b600061349c82612add565b91507fffffffffffffffffffffffffffffffffffffffffffffffffffffffffffffffff82036134ce576134cd61325b565b5b600182019050919050565b60006040820190506134ee6000830185612ae7565b6134fb6020830184612ae7565b9392505050565b7f49736e74206d696e742074696d65000000000000000000000000000000000000600082015250565b6000613538600e83612c76565b915061354382613502565b602082019050919050565b600060208201905081810360008301526135678161352b565b9050919050565b7f596f7520617265206e6f74206f6e6c696e650000000000000000000000000000600082015250565b60006135a4601283612c76565b91506135af8261356e565b602082019050919050565b600060208201905081810360008301526135d381613597565b9050919050565b60008190508160005260206000209050919050565b60006020601f8301049050919050565b600082821b905092915050565b60006008830261363c7fffffffffffffffffffffffffffffffffffffffffffffffffffffffffffffffff826135ff565b61364686836135ff565b95508019841693508086168417925050509392505050565b600061367961367461366f84612add565b613181565b612add565b9050919050565b6000819050919050565b6136938361365e565b6136a761369f82613680565b84845461360c565b825550505050565b600090565b6136bc6136af565b6136c781848461368a565b505050565b5b818110156136eb576136e06000826136b4565b6001810190506136cd565b5050565b601f82111561373057613701816135da565b61370a846135ef565b81016020851015613719578190505b61372d613725856135ef565b8301826136cc565b50505b505050565b600082821c905092915050565b600061375360001984600802613735565b1980831691505092915050565b600061376c8383613742565b9150826002028217905092915050565b61378582612c6b565b67ffffffffffffffff81111561379e5761379d612ea9565b5b6137a8825461322a565b6137b38282856136ef565b600060209050601f8311600181146137e657600084156137d4578287015190505b6137de8582613760565b865550613846565b601f1984166137f4866135da565b60005b8281101561381c578489015182556001820191506020850194506020810190506137f7565b868310156138395784890151613835601f891682613742565b8355505b6001600288020188555050505b505050505050565b600081519050919050565b600082825260208201905092915050565b60006138758261384e565b61387f8185613859565b935061388f818560208601612c87565b61389881612cb1565b840191505092915050565b60006080820190506138b86000830187612d76565b6138c56020830186612d76565b6138d26040830185612ae7565b81810360608301526138e4818461386a565b905095945050505050565b6000815190506138fe81612b51565b92915050565b60006020828403121561391a57613919612b1b565b5b6000613928848285016138ef565b91505092915050565b6000819050919050565b61394c61394782612add565b613931565b82525050565b60008160601b9050919050565b600061396a82613952565b9050919050565b600061397c8261395f565b9050919050565b61399461398f82612c00565b613971565b82525050565b60006139a6828661393b565b6020820191506139b68285613983565b6014820191506139c6828461393b565b602082019150819050949350505050565b7f4e487b7100000000000000000000000000000000000000000000000000000000600052601260045260246000fd5b6000613a1182612add565b9150613a1c83612add565b925082613a2c57613a2b6139d7565b5b828206905092915050565b6000613a4282612add565b9150613a4d83612add565b9250828203905081811115613a6557613a6461325b565b5b92915050565b7f4e487b7100000000000000000000000000000000000000000000000000000000600052603160045260246000fdfea2646970667358221220f3ed622d57f4bbe3af417dea0b45ff7101a92ce20184aadd865cd0e71c72875464736f6c634300081a0033",
  "linkReferences": {},
  "deployedLinkReferences": {}
}