{"abi":[{"type":"constructor","inputs":[{"name":"_token","type":"address","internalType":"address"}],"stateMutability":"nonpayable"},{"type":"receive","stateMutability":"payable"},{"type":"function","name":"MINI_AMOUNT","inputs":[],"outputs":[{"name":"","type":"uint256","internalType":"uint256"}],"stateMutability":"view"},{"type":"function","name":"TARGET","inputs":[],"outputs":[{"name":"","type":"uint256","internalType":"uint256"}],"stateMutability":"view"},{"type":"function","name":"buyTokens","inputs":[{"name":"tier","type":"uint256","internalType":"uint256"}],"outputs":[],"stateMutability":"payable"},{"type":"function","name":"claimTokens","inputs":[],"outputs":[],"stateMutability":"nonpayable"},{"type":"function","name":"contributions","inputs":[{"name":"","type":"address","internalType":"address"}],"outputs":[{"name":"","type":"uint256","internalType":"uint256"}],"stateMutability":"view"},{"type":"function","name":"endSale","inputs":[],"outputs":[],"stateMutability":"nonpayable"},{"type":"function","name":"getETHBalance","inputs":[],"outputs":[{"name":"","type":"uint256","internalType":"uint256"}],"stateMutability":"view"},{"type":"function","name":"getTokenBalance","inputs":[],"outputs":[{"name":"","type":"uint256","internalType":"uint256"}],"stateMutability":"view"},{"type":"function","name":"limits","inputs":[{"name":"","type":"uint256","internalType":"uint256"}],"outputs":[{"name":"","type":"uint256","internalType":"uint256"}],"stateMutability":"view"},{"type":"function","name":"owner","inputs":[],"outputs":[{"name":"","type":"address","internalType":"address"}],"stateMutability":"view"},{"type":"function","name":"saleActive","inputs":[],"outputs":[{"name":"","type":"bool","internalType":"bool"}],"stateMutability":"view"},{"type":"function","name":"token","inputs":[],"outputs":[{"name":"","type":"address","internalType":"contract IERC20"}],"stateMutability":"view"},{"type":"function","name":"totalSold","inputs":[],"outputs":[{"name":"","type":"uint256","internalType":"uint256"}],"stateMutability":"view"},{"type":"function","name":"withdrawETH","inputs":[{"name":"treasury","type":"address","internalType":"address"},{"name":"ethAmount","type":"uint256","internalType":"uint256"}],"outputs":[],"stateMutability":"nonpayable"},{"type":"function","name":"withdrawToken","inputs":[{"name":"treasury","type":"address","internalType":"address"},{"name":"tokenAmount","type":"uint256","internalType":"uint256"}],"outputs":[],"stateMutability":"nonpayable"},{"type":"event","name":"TokensClaimed","inputs":[{"name":"claimer","type":"address","indexed":true,"internalType":"address"},{"name":"amount","type":"uint256","indexed":false,"internalType":"uint256"}],"anonymous":false},{"type":"event","name":"TokensPurchased","inputs":[{"name":"buyer","type":"address","indexed":true,"internalType":"address"},{"name":"amount","type":"uint256","indexed":false,"internalType":"uint256"}],"anonymous":false}],"bytecode":{"object":"0x608060405234801561001057600080fd5b50604051610db5380380610db583398101604081905261002f9161012d565b600080546001600160a01b031916331781556002805460ff196001600160a01b039490941661010002939093166001600160a81b03199093169290921760011790915560046020819052670de0b6b3a76400007fabd6e7cb50984ff9c2f3e18a2660c3353dadf4e3291deeb275dae2cd1e44fe0555674563918244f400007f91da3fd0782e51c6b3986e9e672fd566868e71f3dbc2d6c2cd6fbb3e361af2a755678ac7230489e800007f2e174c10e159ea99b867ce3205125c24a42d128804e4070ed6fcc8cc98166aa05590526801158e460913d000007f1a1e6821cde7d0159c0d293177871e09677b4e42307c7db3ba94f8648a5a050f5561015d565b60006020828403121561013f57600080fd5b81516001600160a01b038116811461015657600080fd5b9392505050565b610c498061016c6000396000f3fe6080604052600436106100ec5760003560e01c80636e9472981161008a5780639e281a98116100595780639e281a98146102af578063cc1f2afa146102cf578063f32a914c146102ec578063fc0c546a1461030857600080fd5b80636e9472981461023957806382b2e2571461024c5780638da5cb5b146102615780639106d7ba1461029957600080fd5b806342e94c90116100c657806342e94c90146101ad5780634782f779146101da57806348c54b9d146101fa57806368428a1b1461020f57600080fd5b806320e9daf1146101435780633610724e14610183578063380d831b1461019857600080fd5b3661013e5760405162461bcd60e51b815260206004820152601e60248201527f4469726563742073656e64696e67204554487320646973616c6c6f776564000060448201526064015b60405180910390fd5b600080fd5b34801561014f57600080fd5b5061017061015e366004610ae1565b60046020526000908152604090205481565b6040519081526020015b60405180910390f35b610196610191366004610ae1565b61032d565b005b3480156101a457600080fd5b506101966105a4565b3480156101b957600080fd5b506101706101c8366004610b16565b60036020526000908152604090205481565b3480156101e657600080fd5b506101966101f5366004610b38565b6105da565b34801561020657600080fd5b506101966106f3565b34801561021b57600080fd5b506002546102299060ff1681565b604051901515815260200161017a565b34801561024557600080fd5b5047610170565b34801561025857600080fd5b506101706108a9565b34801561026d57600080fd5b50600054610281906001600160a01b031681565b6040516001600160a01b03909116815260200161017a565b3480156102a557600080fd5b5061017060015481565b3480156102bb57600080fd5b506101966102ca366004610b38565b610920565b3480156102db57600080fd5b50610170681b1ae4d6e2ef50000081565b3480156102f857600080fd5b5061017067016345785d8a000081565b34801561031457600080fd5b506002546102819061010090046001600160a01b031681565b60025460ff166103745760405162461bcd60e51b815260206004820152601260248201527153616c65206973206e6f742061637469766560701b6044820152606401610135565b60018110158015610386575060048111155b6103c15760405162461bcd60e51b815260206004820152600c60248201526b24b73b30b634b2103a34b2b960a11b6044820152606401610135565b67016345785d8a00003410156104195760405162461bcd60e51b815260206004820152601e60248201527f4d7573742065786365656420746865206d696e696d756d20616d6f756e7400006044820152606401610135565b60008181526004602052604090205434111561046c5760405162461bcd60e51b8152602060048201526012602482015271115e18d959591cc81d1a595c881b1a5b5a5d60721b6044820152606401610135565b6004600061047b600184610b78565b81526020019081526020016000205434116104d85760405162461bcd60e51b815260206004820152601d60248201527f53686f756c642067726561746572207468616e206c61737420746965720000006044820152606401610135565b681b1ae4d6e2ef500000346001546104f09190610b8b565b111561052f5760405162461bcd60e51b815260206004820152600e60248201526d115e18d959591cc81d185c99d95d60921b6044820152606401610135565b336000908152600360205260408120805434929061054e908490610b8b565b9250508190555034600160008282546105679190610b8b565b909155505060405134815233907f8f28852646c20cc973d3a8218f7eefed58c25c909f78f0265af4818c3d4dc2719060200160405180910390a250565b6000546001600160a01b031633146105ce5760405162461bcd60e51b815260040161013590610b9e565b6002805460ff19169055565b6000546001600160a01b031633146106045760405162461bcd60e51b815260040161013590610b9e565b8047101561064b5760405162461bcd60e51b8152602060048201526014602482015273496e73756666696369656e742062616c616e636560601b6044820152606401610135565b6000826001600160a01b03168260405160006040518083038185875af1925050503d8060008114610698576040519150601f19603f3d011682016040523d82523d6000602084013e61069d565b606091505b50509050806106ee5760405162461bcd60e51b815260206004820152601960248201527f5061796d656e74206973206e6f74207375636365737366756c000000000000006044820152606401610135565b505050565b33600090815260036020526040902054806107435760405162461bcd60e51b815260206004820152601060248201526f4e6f20636f6e747269627574696f6e7360801b6044820152606401610135565b60025460ff161561078d5760405162461bcd60e51b815260206004820152601460248201527353616c65206973207374696c6c2061637469766560601b6044820152606401610135565b600061079882610acd565b33600081815260036020526040808220829055600254905163a9059cbb60e01b81526004810193909352602483018490529293509161010090046001600160a01b03169063a9059cbb906044016020604051808303816000875af1158015610804573d6000803e3d6000fd5b505050506040513d601f19601f820116820180604052508101906108289190610bc1565b90508061086f5760405162461bcd60e51b8152602060048201526015602482015274151bdad95b881d1c985b9cd9995c8819985a5b1959605a1b6044820152606401610135565b60405182815233907f896e034966eaaf1adc54acc0f257056febbd300c9e47182cf761982cf1f5e4309060200160405180910390a2505050565b6002546040516370a0823160e01b815230600482015260009161010090046001600160a01b0316906370a0823190602401602060405180830381865afa1580156108f7573d6000803e3d6000fd5b505050506040513d601f19601f8201168201806040525081019061091b9190610be3565b905090565b6000546001600160a01b0316331461094a5760405162461bcd60e51b815260040161013590610b9e565b6002546040516370a0823160e01b8152306004820152829161010090046001600160a01b0316906370a0823190602401602060405180830381865afa158015610997573d6000803e3d6000fd5b505050506040513d601f19601f820116820180604052508101906109bb9190610be3565b1015610a095760405162461bcd60e51b815260206004820152601a60248201527f496e73756666696369656e7420746f6b656e2062616c616e63650000000000006044820152606401610135565b60025460405163a9059cbb60e01b81526001600160a01b038481166004830152602482018490526000926101009004169063a9059cbb906044016020604051808303816000875af1158015610a62573d6000803e3d6000fd5b505050506040513d601f19601f82011682018060405250810190610a869190610bc1565b9050806106ee5760405162461bcd60e51b8152602060048201526015602482015274151bdad95b881d1c985b9cd9995c8819985a5b1959605a1b6044820152606401610135565b6000610adb826103e8610bfc565b92915050565b600060208284031215610af357600080fd5b5035919050565b80356001600160a01b0381168114610b1157600080fd5b919050565b600060208284031215610b2857600080fd5b610b3182610afa565b9392505050565b60008060408385031215610b4b57600080fd5b610b5483610afa565b946020939093013593505050565b634e487b7160e01b600052601160045260246000fd5b81810381811115610adb57610adb610b62565b80820180821115610adb57610adb610b62565b6020808252600990820152682737ba1037bbb732b960b91b604082015260600190565b600060208284031215610bd357600080fd5b81518015158114610b3157600080fd5b600060208284031215610bf557600080fd5b5051919050565b8082028115828204841417610adb57610adb610b6256fea2646970667358221220653ae61a9ccb408997252376ed2ec33d51e3b5575a969cd03cff18271e7dd43864736f6c634300081a0033","linkReferences":{}},"methodIdentifiers":{"MINI_AMOUNT()":"f32a914c","TARGET()":"cc1f2afa","buyTokens(uint256)":"3610724e","claimTokens()":"48c54b9d","contributions(address)":"42e94c90","endSale()":"380d831b","getETHBalance()":"6e947298","getTokenBalance()":"82b2e257","limits(uint256)":"20e9daf1","owner()":"8da5cb5b","saleActive()":"68428a1b","token()":"fc0c546a","totalSold()":"9106d7ba","withdrawETH(address,uint256)":"4782f779","withdrawToken(address,uint256)":"9e281a98"},"id":4}