{"abi":[{"type":"constructor","inputs":[{"name":"_token","type":"address","internalType":"contract IERC20"},{"name":"_nft","type":"address","internalType":"contract BananaNFT"}],"stateMutability":"nonpayable"},{"type":"function","name":"bananaNFT","inputs":[],"outputs":[{"name":"","type":"address","internalType":"contract BananaNFT"}],"stateMutability":"view"},{"type":"function","name":"burnRate","inputs":[],"outputs":[{"name":"","type":"uint256","internalType":"uint256"}],"stateMutability":"view"},{"type":"function","name":"buyNFT","inputs":[{"name":"tokenId","type":"uint256","internalType":"uint256"}],"outputs":[],"stateMutability":"nonpayable"},{"type":"function","name":"floorPrice","inputs":[],"outputs":[{"name":"","type":"uint256","internalType":"uint256"}],"stateMutability":"view"},{"type":"function","name":"isFloorSet","inputs":[],"outputs":[{"name":"","type":"bool","internalType":"bool"}],"stateMutability":"view"},{"type":"function","name":"listNFT","inputs":[{"name":"tokenId","type":"uint256","internalType":"uint256"},{"name":"price","type":"uint256","internalType":"uint256"}],"outputs":[],"stateMutability":"nonpayable"},{"type":"function","name":"listings","inputs":[{"name":"","type":"uint256","internalType":"uint256"}],"outputs":[{"name":"seller","type":"address","internalType":"address"},{"name":"price","type":"uint256","internalType":"uint256"},{"name":"listed","type":"bool","internalType":"bool"}],"stateMutability":"view"},{"type":"function","name":"onERC721Received","inputs":[{"name":"","type":"address","internalType":"address"},{"name":"","type":"address","internalType":"address"},{"name":"","type":"uint256","internalType":"uint256"},{"name":"","type":"bytes","internalType":"bytes"}],"outputs":[{"name":"","type":"bytes4","internalType":"bytes4"}],"stateMutability":"pure"},{"type":"function","name":"owner","inputs":[],"outputs":[{"name":"","type":"address","internalType":"address"}],"stateMutability":"view"},{"type":"function","name":"renounceOwnership","inputs":[],"outputs":[],"stateMutability":"nonpayable"},{"type":"function","name":"setBurnRate","inputs":[{"name":"_burnRate","type":"uint256","internalType":"uint256"}],"outputs":[],"stateMutability":"nonpayable"},{"type":"function","name":"setFloorPrice","inputs":[{"name":"_floorPrice","type":"uint256","internalType":"uint256"}],"outputs":[],"stateMutability":"nonpayable"},{"type":"function","name":"toggleIsFloorPrice","inputs":[],"outputs":[],"stateMutability":"nonpayable"},{"type":"function","name":"token","inputs":[],"outputs":[{"name":"","type":"address","internalType":"contract IERC20"}],"stateMutability":"view"},{"type":"function","name":"transferOwnership","inputs":[{"name":"newOwner","type":"address","internalType":"address"}],"outputs":[],"stateMutability":"nonpayable"},{"type":"function","name":"unlistNFT","inputs":[{"name":"tokenId","type":"uint256","internalType":"uint256"}],"outputs":[],"stateMutability":"nonpayable"},{"type":"function","name":"withdrawBurnedTokens","inputs":[],"outputs":[],"stateMutability":"nonpayable"},{"type":"event","name":"Listed","inputs":[{"name":"tokenId","type":"uint256","indexed":true,"internalType":"uint256"},{"name":"seller","type":"address","indexed":false,"internalType":"address"},{"name":"price","type":"uint256","indexed":false,"internalType":"uint256"}],"anonymous":false},{"type":"event","name":"OwnershipTransferred","inputs":[{"name":"previousOwner","type":"address","indexed":true,"internalType":"address"},{"name":"newOwner","type":"address","indexed":true,"internalType":"address"}],"anonymous":false},{"type":"event","name":"Purchased","inputs":[{"name":"tokenId","type":"uint256","indexed":true,"internalType":"uint256"},{"name":"buyer","type":"address","indexed":false,"internalType":"address"},{"name":"price","type":"uint256","indexed":false,"internalType":"uint256"}],"anonymous":false},{"type":"event","name":"Unlisted","inputs":[{"name":"tokenId","type":"uint256","indexed":true,"internalType":"uint256"},{"name":"seller","type":"address","indexed":false,"internalType":"address"}],"anonymous":false},{"type":"error","name":"OwnableInvalidOwner","inputs":[{"name":"owner","type":"address","internalType":"address"}]},{"type":"error","name":"OwnableUnauthorizedAccount","inputs":[{"name":"account","type":"address","internalType":"address"}]}],"bytecode":{"object":"0x6080604052600560045534801561001557600080fd5b50604051610f61380380610f61833981016040819052610034916100fd565b338061005a57604051631e4fbdf760e01b81526000600482015260240160405180910390fd5b61006381610095565b50600180546001600160a01b039384166001600160a01b03199182161790915560028054929093169116179055610137565b600080546001600160a01b038381166001600160a01b0319831681178455604051919092169283917f8be0079c531659141344cd1fd0a4f28419497f9722a3daafe3b4186f6b6457e09190a35050565b6001600160a01b03811681146100fa57600080fd5b50565b6000806040838503121561011057600080fd5b825161011b816100e5565b602084015190925061012c816100e5565b809150509250929050565b610e1b806101466000396000f3fe608060405234801561001057600080fd5b506004361061010b5760003560e01c8063961f0944116100a2578063dcfb9f2211610071578063dcfb9f2214610216578063de74e57b1461023a578063e14ed3e51461029d578063f2fde38b146102a5578063fc0c546a146102b857600080fd5b8063961f0944146101df578063acf77931146101f2578063bed9985014610205578063cbc6d7d31461020e57600080fd5b8063715018a6116100de578063715018a6146101885780638da5cb5b146101905780639363c812146101b557806394383f14146101cc57600080fd5b8063150b7a0214610110578063189d165e1461014d5780633d05829d1461016257806351ed828814610175575b600080fd5b61012f61011e366004610c01565b630a85bd0160e11b95945050505050565b6040516001600160e01b031990911681526020015b60405180910390f35b61016061015b366004610ca2565b6102cb565b005b610160610170366004610ca2565b610320565b610160610183366004610ca2565b61032d565b6101606105f7565b6000546001600160a01b03165b6040516001600160a01b039091168152602001610144565b6101be60035481565b604051908152602001610144565b6101606101da366004610cbb565b61060b565b6101606101ed366004610ca2565b610885565b60025461019d906001600160a01b031681565b6101be60045481565b6101606109f8565b60025461022a90600160a01b900460ff1681565b6040519015158152602001610144565b610276610248366004610ca2565b6005602052600090815260409020805460018201546002909201546001600160a01b03909116919060ff1683565b604080516001600160a01b0390941684526020840192909252151590820152606001610144565b610160610a21565b6101606102b3366004610cdd565b610b31565b60015461019d906001600160a01b031681565b6102d3610b6f565b6014811061031b5760405162461bcd60e51b815260206004820152601060248201526f496e76616c6964206275726e5261746560801b60448201526064015b60405180910390fd5b600455565b610328610b6f565b600355565b600081815260056020908152604091829020825160608101845281546001600160a01b031681526001820154928101929092526002015460ff161515918101829052906103a95760405162461bcd60e51b815260206004820152600a602482015269139bdd081b1a5cdd195960b21b6044820152606401610312565b80516001600160a01b031633036103f75760405162461bcd60e51b81526020600482015260126024820152712cb7ba9030b932903a34329039b2b63632b960711b6044820152606401610312565b60006064600454836020015161040d9190610d17565b6104179190610d34565b9050600081836020015161042b9190610d56565b6001546040516323b872dd60e01b81529192506001600160a01b0316906323b872dd9061046090339030908790600401610d69565b6020604051808303816000875af115801561047f573d6000803e3d6000fd5b505050506040513d601f19601f820116820180604052508101906104a39190610d8d565b5060015483516040516323b872dd60e01b81526001600160a01b03909216916323b872dd916104d9913391908690600401610d69565b6020604051808303816000875af11580156104f8573d6000803e3d6000fd5b505050506040513d601f19601f8201168201806040525081019061051c9190610d8d565b50600254604051632142170760e11b81526001600160a01b03909116906342842e0e9061055190309033908990600401610d69565b600060405180830381600087803b15801561056b57600080fd5b505af115801561057f573d6000803e3d6000fd5b505050600085815260056020908152604080832080546001600160a01b031916815560018101939093556002909201805460ff19169055858101518251338152918201528692507ffd51b2c9f55c42d2b72ac683526519563be02fc0107f034ff430c05185ff1b66910160405180910390a250505050565b6105ff610b6f565b6106096000610b9c565b565b600254600160a01b900460ff161561067f5760035481101561067f5760405162461bcd60e51b815260206004820152602760248201527f466c6f6f72207072696365206d7573742067726561746572207468616e20313060448201526618103a37b5b2b760c91b6064820152608401610312565b60008281526005602052604090206002015460ff16156106d25760405162461bcd60e51b815260206004820152600e60248201526d105b1c9958591e481b1a5cdd195960921b6044820152606401610312565b6002546040516331a9108f60e11b81526004810184905233916001600160a01b031690636352211e90602401602060405180830381865afa15801561071b573d6000803e3d6000fd5b505050506040513d601f19601f8201168201806040525081019061073f9190610daf565b6001600160a01b0316146107815760405162461bcd60e51b81526020600482015260096024820152682737ba1037bbb732b960b91b6044820152606401610312565b600254604051632142170760e11b81526001600160a01b03909116906342842e0e906107b590339030908790600401610d69565b600060405180830381600087803b1580156107cf57600080fd5b505af11580156107e3573d6000803e3d6000fd5b505060408051606081018252338082526020808301878152600184860181815260008b815260058552879020955186546001600160a01b0319166001600160a01b03909116178655915190850155516002909301805460ff19169315159390931790925582519081529081018590528593507f50955776c5778c3b7d968d86d8c51fb6b29a7a74c20866b533268e209fc0834392500160405180910390a25050565b60008181526005602052604090206002015460ff166108d75760405162461bcd60e51b815260206004820152600e60248201526d1d1bdad95b881b9bdd081b1a5cdd60921b6044820152606401610312565b6000818152600560205260409020546001600160a01b031633146109295760405162461bcd60e51b81526020600482015260096024820152682737ba1037bbb732b960b91b6044820152606401610312565b600254604051632142170760e11b81526001600160a01b03909116906342842e0e9061095d90309033908690600401610d69565b600060405180830381600087803b15801561097757600080fd5b505af115801561098b573d6000803e3d6000fd5b505050600082815260056020908152604080832080546001600160a01b031916815560018101939093556002909201805460ff1916905590513381528392507f398bd90ce129393b9155d48dccffb325e671f45c4250de457462a019268ff1f0910160405180910390a250565b610a00610b6f565b6002805460ff60a01b198116600160a01b9182900460ff1615909102179055565b610a29610b6f565b6001546040516370a0823160e01b81523060048201526000916001600160a01b0316906370a0823190602401602060405180830381865afa158015610a72573d6000803e3d6000fd5b505050506040513d601f19601f82011682018060405250810190610a969190610dcc565b6001549091506001600160a01b031663a9059cbb610abc6000546001600160a01b031690565b6040516001600160e01b031960e084901b1681526001600160a01b039091166004820152602481018490526044016020604051808303816000875af1158015610b09573d6000803e3d6000fd5b505050506040513d601f19601f82011682018060405250810190610b2d9190610d8d565b5050565b610b39610b6f565b6001600160a01b038116610b6357604051631e4fbdf760e01b815260006004820152602401610312565b610b6c81610b9c565b50565b6000546001600160a01b031633146106095760405163118cdaa760e01b8152336004820152602401610312565b600080546001600160a01b038381166001600160a01b0319831681178455604051919092169283917f8be0079c531659141344cd1fd0a4f28419497f9722a3daafe3b4186f6b6457e09190a35050565b6001600160a01b0381168114610b6c57600080fd5b600080600080600060808688031215610c1957600080fd5b8535610c2481610bec565b94506020860135610c3481610bec565b935060408601359250606086013567ffffffffffffffff811115610c5757600080fd5b8601601f81018813610c6857600080fd5b803567ffffffffffffffff811115610c7f57600080fd5b886020828401011115610c9157600080fd5b959894975092955050506020019190565b600060208284031215610cb457600080fd5b5035919050565b60008060408385031215610cce57600080fd5b50508035926020909101359150565b600060208284031215610cef57600080fd5b8135610cfa81610bec565b9392505050565b634e487b7160e01b600052601160045260246000fd5b8082028115828204841417610d2e57610d2e610d01565b92915050565b600082610d5157634e487b7160e01b600052601260045260246000fd5b500490565b81810381811115610d2e57610d2e610d01565b6001600160a01b039384168152919092166020820152604081019190915260600190565b600060208284031215610d9f57600080fd5b81518015158114610cfa57600080fd5b600060208284031215610dc157600080fd5b8151610cfa81610bec565b600060208284031215610dde57600080fd5b505191905056fea264697066735822122030f4229537312a74283d9b2e32d245b83fc7acdf471bbda4cfeb791991987cab64736f6c634300081a0033","linkReferences":{}},"methodIdentifiers":{"bananaNFT()":"acf77931","burnRate()":"bed99850","buyNFT(uint256)":"51ed8288","floorPrice()":"9363c812","isFloorSet()":"dcfb9f22","listNFT(uint256,uint256)":"94383f14","listings(uint256)":"de74e57b","onERC721Received(address,address,uint256,bytes)":"150b7a02","owner()":"8da5cb5b","renounceOwnership()":"715018a6","setBurnRate(uint256)":"189d165e","setFloorPrice(uint256)":"3d05829d","toggleIsFloorPrice()":"cbc6d7d3","token()":"fc0c546a","transferOwnership(address)":"f2fde38b","unlistNFT(uint256)":"961f0944","withdrawBurnedTokens()":"e14ed3e5"},"id":0}