{"abi":[{"type":"constructor","inputs":[{"name":"_token","type":"address","internalType":"contract IERC20"},{"name":"_nft","type":"address","internalType":"contract BananaNFT"}],"stateMutability":"nonpayable"},{"type":"function","name":"DEAD","inputs":[],"outputs":[{"name":"","type":"address","internalType":"address"}],"stateMutability":"view"},{"type":"function","name":"bananaNFT","inputs":[],"outputs":[{"name":"","type":"address","internalType":"contract BananaNFT"}],"stateMutability":"view"},{"type":"function","name":"burnRate","inputs":[],"outputs":[{"name":"","type":"uint256","internalType":"uint256"}],"stateMutability":"view"},{"type":"function","name":"buyNFT","inputs":[{"name":"tokenId","type":"uint256","internalType":"uint256"}],"outputs":[],"stateMutability":"nonpayable"},{"type":"function","name":"floorPrice","inputs":[],"outputs":[{"name":"","type":"uint256","internalType":"uint256"}],"stateMutability":"view"},{"type":"function","name":"isFloorSet","inputs":[],"outputs":[{"name":"","type":"bool","internalType":"bool"}],"stateMutability":"view"},{"type":"function","name":"listNFT","inputs":[{"name":"tokenId","type":"uint256","internalType":"uint256"},{"name":"price","type":"uint256","internalType":"uint256"}],"outputs":[],"stateMutability":"nonpayable"},{"type":"function","name":"listings","inputs":[{"name":"","type":"uint256","internalType":"uint256"}],"outputs":[{"name":"seller","type":"address","internalType":"address"},{"name":"price","type":"uint256","internalType":"uint256"},{"name":"listed","type":"bool","internalType":"bool"}],"stateMutability":"view"},{"type":"function","name":"onERC721Received","inputs":[{"name":"","type":"address","internalType":"address"},{"name":"","type":"address","internalType":"address"},{"name":"","type":"uint256","internalType":"uint256"},{"name":"","type":"bytes","internalType":"bytes"}],"outputs":[{"name":"","type":"bytes4","internalType":"bytes4"}],"stateMutability":"pure"},{"type":"function","name":"owner","inputs":[],"outputs":[{"name":"","type":"address","internalType":"address"}],"stateMutability":"view"},{"type":"function","name":"renounceOwnership","inputs":[],"outputs":[],"stateMutability":"nonpayable"},{"type":"function","name":"setBurnRate","inputs":[{"name":"_burnRate","type":"uint256","internalType":"uint256"}],"outputs":[],"stateMutability":"nonpayable"},{"type":"function","name":"setFloorPrice","inputs":[{"name":"_floorPrice","type":"uint256","internalType":"uint256"}],"outputs":[],"stateMutability":"nonpayable"},{"type":"function","name":"toggleIsFloorPrice","inputs":[],"outputs":[],"stateMutability":"nonpayable"},{"type":"function","name":"token","inputs":[],"outputs":[{"name":"","type":"address","internalType":"contract IERC20"}],"stateMutability":"view"},{"type":"function","name":"transferOwnership","inputs":[{"name":"newOwner","type":"address","internalType":"address"}],"outputs":[],"stateMutability":"nonpayable"},{"type":"function","name":"unlistNFT","inputs":[{"name":"tokenId","type":"uint256","internalType":"uint256"}],"outputs":[],"stateMutability":"nonpayable"},{"type":"function","name":"withdrawBurnedTokens","inputs":[],"outputs":[],"stateMutability":"nonpayable"},{"type":"event","name":"Listed","inputs":[{"name":"tokenId","type":"uint256","indexed":true,"internalType":"uint256"},{"name":"seller","type":"address","indexed":false,"internalType":"address"},{"name":"price","type":"uint256","indexed":false,"internalType":"uint256"}],"anonymous":false},{"type":"event","name":"OwnershipTransferred","inputs":[{"name":"previousOwner","type":"address","indexed":true,"internalType":"address"},{"name":"newOwner","type":"address","indexed":true,"internalType":"address"}],"anonymous":false},{"type":"event","name":"Purchased","inputs":[{"name":"tokenId","type":"uint256","indexed":true,"internalType":"uint256"},{"name":"buyer","type":"address","indexed":false,"internalType":"address"},{"name":"price","type":"uint256","indexed":false,"internalType":"uint256"}],"anonymous":false},{"type":"event","name":"Unlisted","inputs":[{"name":"tokenId","type":"uint256","indexed":true,"internalType":"uint256"},{"name":"seller","type":"address","indexed":false,"internalType":"address"}],"anonymous":false},{"type":"error","name":"OwnableInvalidOwner","inputs":[{"name":"owner","type":"address","internalType":"address"}]},{"type":"error","name":"OwnableUnauthorizedAccount","inputs":[{"name":"account","type":"address","internalType":"address"}]}],"bytecode":{"object":"0x6080604052600360045534801561001557600080fd5b50604051610f7c380380610f7c833981016040819052610034916100fd565b338061005a57604051631e4fbdf760e01b81526000600482015260240160405180910390fd5b61006381610095565b50600180546001600160a01b039384166001600160a01b03199182161790915560028054929093169116179055610137565b600080546001600160a01b038381166001600160a01b0319831681178455604051919092169283917f8be0079c531659141344cd1fd0a4f28419497f9722a3daafe3b4186f6b6457e09190a35050565b6001600160a01b03811681146100fa57600080fd5b50565b6000806040838503121561011057600080fd5b825161011b816100e5565b602084015190925061012c816100e5565b809150509250929050565b610e36806101466000396000f3fe608060405234801561001057600080fd5b50600436106101165760003560e01c8063961f0944116100a2578063dcfb9f2211610071578063dcfb9f221461022e578063de74e57b14610252578063e14ed3e5146102b5578063f2fde38b146102bd578063fc0c546a146102d057600080fd5b8063961f0944146101f7578063acf779311461020a578063bed998501461021d578063cbc6d7d31461022657600080fd5b806351ed8288116100e957806351ed8288146101a1578063715018a6146101b45780638da5cb5b146101bc5780639363c812146101cd57806394383f14146101e457600080fd5b806303fd2a451461011b578063150b7a0214610141578063189d165e146101795780633d05829d1461018e575b600080fd5b61012461dead81565b6040516001600160a01b0390911681526020015b60405180910390f35b61016061014f366004610c1c565b630a85bd0160e11b95945050505050565b6040516001600160e01b03199091168152602001610138565b61018c610187366004610cbd565b6102e3565b005b61018c61019c366004610cbd565b610338565b61018c6101af366004610cbd565b610345565b61018c610611565b6000546001600160a01b0316610124565b6101d660035481565b604051908152602001610138565b61018c6101f2366004610cd6565b610625565b61018c610205366004610cbd565b6108a0565b600254610124906001600160a01b031681565b6101d660045481565b61018c610a13565b60025461024290600160a01b900460ff1681565b6040519015158152602001610138565b61028e610260366004610cbd565b6005602052600090815260409020805460018201546002909201546001600160a01b03909116919060ff1683565b604080516001600160a01b0390941684526020840192909252151590820152606001610138565b61018c610a3c565b61018c6102cb366004610cf8565b610b4c565b600154610124906001600160a01b031681565b6102eb610b8a565b601481106103335760405162461bcd60e51b815260206004820152601060248201526f496e76616c6964206275726e5261746560801b60448201526064015b60405180910390fd5b600455565b610340610b8a565b600355565b600081815260056020908152604091829020825160608101845281546001600160a01b031681526001820154928101929092526002015460ff161515918101829052906103c15760405162461bcd60e51b815260206004820152600a602482015269139bdd081b1a5cdd195960b21b604482015260640161032a565b80516001600160a01b0316330361040f5760405162461bcd60e51b81526020600482015260126024820152712cb7ba9030b932903a34329039b2b63632b960711b604482015260640161032a565b6000606460045483602001516104259190610d32565b61042f9190610d4f565b905060008183602001516104439190610d71565b6001546040516323b872dd60e01b81529192506001600160a01b0316906323b872dd9061047a90339061dead908790600401610d84565b6020604051808303816000875af1158015610499573d6000803e3d6000fd5b505050506040513d601f19601f820116820180604052508101906104bd9190610da8565b5060015483516040516323b872dd60e01b81526001600160a01b03909216916323b872dd916104f3913391908690600401610d84565b6020604051808303816000875af1158015610512573d6000803e3d6000fd5b505050506040513d601f19601f820116820180604052508101906105369190610da8565b50600254604051632142170760e11b81526001600160a01b03909116906342842e0e9061056b90309033908990600401610d84565b600060405180830381600087803b15801561058557600080fd5b505af1158015610599573d6000803e3d6000fd5b505050600085815260056020908152604080832080546001600160a01b031916815560018101939093556002909201805460ff19169055858101518251338152918201528692507ffd51b2c9f55c42d2b72ac683526519563be02fc0107f034ff430c05185ff1b66910160405180910390a250505050565b610619610b8a565b6106236000610bb7565b565b600254600160a01b900460ff161561069a5760035481101561069a5760405162461bcd60e51b815260206004820152602860248201527f4c697374207072696365206d7573742067726561746572207468616e20666c6f6044820152676f7220707269636560c01b606482015260840161032a565b60008281526005602052604090206002015460ff16156106ed5760405162461bcd60e51b815260206004820152600e60248201526d105b1c9958591e481b1a5cdd195960921b604482015260640161032a565b6002546040516331a9108f60e11b81526004810184905233916001600160a01b031690636352211e90602401602060405180830381865afa158015610736573d6000803e3d6000fd5b505050506040513d601f19601f8201168201806040525081019061075a9190610dca565b6001600160a01b03161461079c5760405162461bcd60e51b81526020600482015260096024820152682737ba1037bbb732b960b91b604482015260640161032a565b600254604051632142170760e11b81526001600160a01b03909116906342842e0e906107d090339030908790600401610d84565b600060405180830381600087803b1580156107ea57600080fd5b505af11580156107fe573d6000803e3d6000fd5b505060408051606081018252338082526020808301878152600184860181815260008b815260058552879020955186546001600160a01b0319166001600160a01b03909116178655915190850155516002909301805460ff19169315159390931790925582519081529081018590528593507f50955776c5778c3b7d968d86d8c51fb6b29a7a74c20866b533268e209fc0834392500160405180910390a25050565b60008181526005602052604090206002015460ff166108f25760405162461bcd60e51b815260206004820152600e60248201526d1d1bdad95b881b9bdd081b1a5cdd60921b604482015260640161032a565b6000818152600560205260409020546001600160a01b031633146109445760405162461bcd60e51b81526020600482015260096024820152682737ba1037bbb732b960b91b604482015260640161032a565b600254604051632142170760e11b81526001600160a01b03909116906342842e0e9061097890309033908690600401610d84565b600060405180830381600087803b15801561099257600080fd5b505af11580156109a6573d6000803e3d6000fd5b505050600082815260056020908152604080832080546001600160a01b031916815560018101939093556002909201805460ff1916905590513381528392507f398bd90ce129393b9155d48dccffb325e671f45c4250de457462a019268ff1f0910160405180910390a250565b610a1b610b8a565b6002805460ff60a01b198116600160a01b9182900460ff1615909102179055565b610a44610b8a565b6001546040516370a0823160e01b81523060048201526000916001600160a01b0316906370a0823190602401602060405180830381865afa158015610a8d573d6000803e3d6000fd5b505050506040513d601f19601f82011682018060405250810190610ab19190610de7565b6001549091506001600160a01b031663a9059cbb610ad76000546001600160a01b031690565b6040516001600160e01b031960e084901b1681526001600160a01b039091166004820152602481018490526044016020604051808303816000875af1158015610b24573d6000803e3d6000fd5b505050506040513d601f19601f82011682018060405250810190610b489190610da8565b5050565b610b54610b8a565b6001600160a01b038116610b7e57604051631e4fbdf760e01b81526000600482015260240161032a565b610b8781610bb7565b50565b6000546001600160a01b031633146106235760405163118cdaa760e01b815233600482015260240161032a565b600080546001600160a01b038381166001600160a01b0319831681178455604051919092169283917f8be0079c531659141344cd1fd0a4f28419497f9722a3daafe3b4186f6b6457e09190a35050565b6001600160a01b0381168114610b8757600080fd5b600080600080600060808688031215610c3457600080fd5b8535610c3f81610c07565b94506020860135610c4f81610c07565b935060408601359250606086013567ffffffffffffffff811115610c7257600080fd5b8601601f81018813610c8357600080fd5b803567ffffffffffffffff811115610c9a57600080fd5b886020828401011115610cac57600080fd5b959894975092955050506020019190565b600060208284031215610ccf57600080fd5b5035919050565b60008060408385031215610ce957600080fd5b50508035926020909101359150565b600060208284031215610d0a57600080fd5b8135610d1581610c07565b9392505050565b634e487b7160e01b600052601160045260246000fd5b8082028115828204841417610d4957610d49610d1c565b92915050565b600082610d6c57634e487b7160e01b600052601260045260246000fd5b500490565b81810381811115610d4957610d49610d1c565b6001600160a01b039384168152919092166020820152604081019190915260600190565b600060208284031215610dba57600080fd5b81518015158114610d1557600080fd5b600060208284031215610ddc57600080fd5b8151610d1581610c07565b600060208284031215610df957600080fd5b505191905056fea2646970667358221220610f3bbae29ea420d2dd95b7926932d56a8e3911fff4cfffd2ccc360dd84ed5364736f6c634300081a0033","linkReferences":{}},"methodIdentifiers":{"DEAD()":"03fd2a45","bananaNFT()":"acf77931","burnRate()":"bed99850","buyNFT(uint256)":"51ed8288","floorPrice()":"9363c812","isFloorSet()":"dcfb9f22","listNFT(uint256,uint256)":"94383f14","listings(uint256)":"de74e57b","onERC721Received(address,address,uint256,bytes)":"150b7a02","owner()":"8da5cb5b","renounceOwnership()":"715018a6","setBurnRate(uint256)":"189d165e","setFloorPrice(uint256)":"3d05829d","toggleIsFloorPrice()":"cbc6d7d3","token()":"fc0c546a","transferOwnership(address)":"f2fde38b","unlistNFT(uint256)":"961f0944","withdrawBurnedTokens()":"e14ed3e5"},"id":0}