{"abi":[{"type":"constructor","inputs":[{"name":"_token","type":"address","internalType":"contract IERC20"},{"name":"_nft","type":"address","internalType":"contract BananaNFT"}],"stateMutability":"nonpayable"},{"type":"function","name":"bananaNFT","inputs":[],"outputs":[{"name":"","type":"address","internalType":"contract BananaNFT"}],"stateMutability":"view"},{"type":"function","name":"burnRate","inputs":[],"outputs":[{"name":"","type":"uint256","internalType":"uint256"}],"stateMutability":"view"},{"type":"function","name":"buyNFT","inputs":[{"name":"tokenId","type":"uint256","internalType":"uint256"}],"outputs":[],"stateMutability":"nonpayable"},{"type":"function","name":"listNFT","inputs":[{"name":"tokenId","type":"uint256","internalType":"uint256"},{"name":"price","type":"uint256","internalType":"uint256"}],"outputs":[],"stateMutability":"nonpayable"},{"type":"function","name":"listings","inputs":[{"name":"","type":"uint256","internalType":"uint256"}],"outputs":[{"name":"seller","type":"address","internalType":"address"},{"name":"price","type":"uint256","internalType":"uint256"}],"stateMutability":"view"},{"type":"function","name":"onERC721Received","inputs":[{"name":"","type":"address","internalType":"address"},{"name":"","type":"address","internalType":"address"},{"name":"","type":"uint256","internalType":"uint256"},{"name":"","type":"bytes","internalType":"bytes"}],"outputs":[{"name":"","type":"bytes4","internalType":"bytes4"}],"stateMutability":"pure"},{"type":"function","name":"owner","inputs":[],"outputs":[{"name":"","type":"address","internalType":"address"}],"stateMutability":"view"},{"type":"function","name":"renounceOwnership","inputs":[],"outputs":[],"stateMutability":"nonpayable"},{"type":"function","name":"setBurnRate","inputs":[{"name":"_burnRate","type":"uint256","internalType":"uint256"}],"outputs":[],"stateMutability":"nonpayable"},{"type":"function","name":"token","inputs":[],"outputs":[{"name":"","type":"address","internalType":"contract IERC20"}],"stateMutability":"view"},{"type":"function","name":"transferOwnership","inputs":[{"name":"newOwner","type":"address","internalType":"address"}],"outputs":[],"stateMutability":"nonpayable"},{"type":"function","name":"withdrawBurnedTokens","inputs":[],"outputs":[],"stateMutability":"nonpayable"},{"type":"event","name":"Listed","inputs":[{"name":"tokenId","type":"uint256","indexed":true,"internalType":"uint256"},{"name":"seller","type":"address","indexed":false,"internalType":"address"},{"name":"price","type":"uint256","indexed":false,"internalType":"uint256"}],"anonymous":false},{"type":"event","name":"OwnershipTransferred","inputs":[{"name":"previousOwner","type":"address","indexed":true,"internalType":"address"},{"name":"newOwner","type":"address","indexed":true,"internalType":"address"}],"anonymous":false},{"type":"event","name":"Purchased","inputs":[{"name":"tokenId","type":"uint256","indexed":true,"internalType":"uint256"},{"name":"buyer","type":"address","indexed":false,"internalType":"address"},{"name":"price","type":"uint256","indexed":false,"internalType":"uint256"}],"anonymous":false},{"type":"error","name":"OwnableInvalidOwner","inputs":[{"name":"owner","type":"address","internalType":"address"}]},{"type":"error","name":"OwnableUnauthorizedAccount","inputs":[{"name":"account","type":"address","internalType":"address"}]}],"bytecode":{"object":"0x6080604052600560035534801561001557600080fd5b50604051610c00380380610c00833981016040819052610034916100fd565b338061005a57604051631e4fbdf760e01b81526000600482015260240160405180910390fd5b61006381610095565b50600180546001600160a01b039384166001600160a01b03199182161790915560028054929093169116179055610137565b600080546001600160a01b038381166001600160a01b0319831681178455604051919092169283917f8be0079c531659141344cd1fd0a4f28419497f9722a3daafe3b4186f6b6457e09190a35050565b6001600160a01b03811681146100fa57600080fd5b50565b6000806040838503121561011057600080fd5b825161011b816100e5565b602084015190925061012c816100e5565b809150509250929050565b610aba806101466000396000f3fe608060405234801561001057600080fd5b50600436106100b45760003560e01c8063acf7793111610071578063acf779311461015e578063bed9985014610171578063de74e57b14610188578063e14ed3e5146101da578063f2fde38b146101e2578063fc0c546a146101f557600080fd5b8063150b7a02146100b9578063189d165e146100f657806351ed82881461010b578063715018a61461011e5780638da5cb5b1461012657806394383f141461014b575b600080fd5b6100d86100c73660046108a0565b630a85bd0160e11b95945050505050565b6040516001600160e01b031990911681526020015b60405180910390f35b610109610104366004610941565b610208565b005b610109610119366004610941565b61025e565b6101096104be565b6000546001600160a01b03165b6040516001600160a01b0390911681526020016100ed565b61010961015936600461095a565b6104d2565b600254610133906001600160a01b031681565b61017a60035481565b6040519081526020016100ed565b6101bb610196366004610941565b600460205260009081526040902080546001909101546001600160a01b039091169082565b604080516001600160a01b0390931683526020830191909152016100ed565b6101096106c0565b6101096101f036600461097c565b6107d0565b600154610133906001600160a01b031681565b61021061080e565b601481106102595760405162461bcd60e51b8152602060048201526011602482015270496e76616c6964205f6275726e5261746560781b60448201526064015b60405180910390fd5b600355565b600081815260046020908152604091829020825180840190935280546001600160a01b0316808452600190910154918301919091526102cc5760405162461bcd60e51b815260206004820152600a602482015269139bdd081b1a5cdd195960b21b6044820152606401610250565b6000606460035483602001516102e291906109b6565b6102ec91906109d3565b9050600081836020015161030091906109f5565b6001546040516323b872dd60e01b81529192506001600160a01b0316906323b872dd9061033590339030908790600401610a08565b6020604051808303816000875af1158015610354573d6000803e3d6000fd5b505050506040513d601f19601f820116820180604052508101906103789190610a2c565b5060015483516040516323b872dd60e01b81526001600160a01b03909216916323b872dd916103ae913391908690600401610a08565b6020604051808303816000875af11580156103cd573d6000803e3d6000fd5b505050506040513d601f19601f820116820180604052508101906103f19190610a2c565b506002546040516323b872dd60e01b81526001600160a01b03909116906323b872dd9061042690309033908990600401610a08565b600060405180830381600087803b15801561044057600080fd5b505af1158015610454573d6000803e3d6000fd5b505050600085815260046020908152604080832080546001600160a01b031916815560010192909255858101518251338152918201528692507ffd51b2c9f55c42d2b72ac683526519563be02fc0107f034ff430c05185ff1b66910160405180910390a250505050565b6104c661080e565b6104d0600061083b565b565b6002546040516331a9108f60e11b81526004810184905233916001600160a01b031690636352211e90602401602060405180830381865afa15801561051b573d6000803e3d6000fd5b505050506040513d601f19601f8201168201806040525081019061053f9190610a4e565b6001600160a01b0316146105815760405162461bcd60e51b81526020600482015260096024820152682737ba1037bbb732b960b91b6044820152606401610250565b6000828152600460205260409020546001600160a01b0316156105d75760405162461bcd60e51b815260206004820152600e60248201526d105b1c9958591e481b1a5cdd195960921b6044820152606401610250565b6002546040516323b872dd60e01b81526001600160a01b03909116906323b872dd9061060b90339030908790600401610a08565b600060405180830381600087803b15801561062557600080fd5b505af1158015610639573d6000803e3d6000fd5b5050604080518082018252338082526020808301878152600089815260048352859020935184546001600160a01b0319166001600160a01b039091161784555160019093019290925582519081529081018590528593507f50955776c5778c3b7d968d86d8c51fb6b29a7a74c20866b533268e209fc0834392500160405180910390a25050565b6106c861080e565b6001546040516370a0823160e01b81523060048201526000916001600160a01b0316906370a0823190602401602060405180830381865afa158015610711573d6000803e3d6000fd5b505050506040513d601f19601f820116820180604052508101906107359190610a6b565b6001549091506001600160a01b031663a9059cbb61075b6000546001600160a01b031690565b6040516001600160e01b031960e084901b1681526001600160a01b039091166004820152602481018490526044016020604051808303816000875af11580156107a8573d6000803e3d6000fd5b505050506040513d601f19601f820116820180604052508101906107cc9190610a2c565b5050565b6107d861080e565b6001600160a01b03811661080257604051631e4fbdf760e01b815260006004820152602401610250565b61080b8161083b565b50565b6000546001600160a01b031633146104d05760405163118cdaa760e01b8152336004820152602401610250565b600080546001600160a01b038381166001600160a01b0319831681178455604051919092169283917f8be0079c531659141344cd1fd0a4f28419497f9722a3daafe3b4186f6b6457e09190a35050565b6001600160a01b038116811461080b57600080fd5b6000806000806000608086880312156108b857600080fd5b85356108c38161088b565b945060208601356108d38161088b565b935060408601359250606086013567ffffffffffffffff8111156108f657600080fd5b8601601f8101881361090757600080fd5b803567ffffffffffffffff81111561091e57600080fd5b88602082840101111561093057600080fd5b959894975092955050506020019190565b60006020828403121561095357600080fd5b5035919050565b6000806040838503121561096d57600080fd5b50508035926020909101359150565b60006020828403121561098e57600080fd5b81356109998161088b565b9392505050565b634e487b7160e01b600052601160045260246000fd5b80820281158282048414176109cd576109cd6109a0565b92915050565b6000826109f057634e487b7160e01b600052601260045260246000fd5b500490565b818103818111156109cd576109cd6109a0565b6001600160a01b039384168152919092166020820152604081019190915260600190565b600060208284031215610a3e57600080fd5b8151801515811461099957600080fd5b600060208284031215610a6057600080fd5b81516109998161088b565b600060208284031215610a7d57600080fd5b505191905056fea26469706673582212207bc993f573dde2d53bff9a948c3b274b66124c2ea321ba614aa8851efee1fe0664736f6c634300081a0033","linkReferences":{}},"methodIdentifiers":{"bananaNFT()":"acf77931","burnRate()":"bed99850","buyNFT(uint256)":"51ed8288","listNFT(uint256,uint256)":"94383f14","listings(uint256)":"de74e57b","onERC721Received(address,address,uint256,bytes)":"150b7a02","owner()":"8da5cb5b","renounceOwnership()":"715018a6","setBurnRate(uint256)":"189d165e","token()":"fc0c546a","transferOwnership(address)":"f2fde38b","withdrawBurnedTokens()":"e14ed3e5"},"id":0}