{"abi":[{"type":"constructor","inputs":[{"name":"_token","type":"address","internalType":"contract IERC20"},{"name":"_nft","type":"address","internalType":"contract BananaNFT"}],"stateMutability":"nonpayable"},{"type":"function","name":"bananaNFT","inputs":[],"outputs":[{"name":"","type":"address","internalType":"contract BananaNFT"}],"stateMutability":"view"},{"type":"function","name":"burnRate","inputs":[],"outputs":[{"name":"","type":"uint256","internalType":"uint256"}],"stateMutability":"view"},{"type":"function","name":"buyNFT","inputs":[{"name":"tokenId","type":"uint256","internalType":"uint256"}],"outputs":[],"stateMutability":"nonpayable"},{"type":"function","name":"listNFT","inputs":[{"name":"tokenId","type":"uint256","internalType":"uint256"},{"name":"price","type":"uint256","internalType":"uint256"}],"outputs":[],"stateMutability":"nonpayable"},{"type":"function","name":"listings","inputs":[{"name":"","type":"uint256","internalType":"uint256"}],"outputs":[{"name":"seller","type":"address","internalType":"address"},{"name":"price","type":"uint256","internalType":"uint256"}],"stateMutability":"view"},{"type":"function","name":"onERC721Received","inputs":[{"name":"","type":"address","internalType":"address"},{"name":"","type":"address","internalType":"address"},{"name":"","type":"uint256","internalType":"uint256"},{"name":"","type":"bytes","internalType":"bytes"}],"outputs":[{"name":"","type":"bytes4","internalType":"bytes4"}],"stateMutability":"pure"},{"type":"function","name":"owner","inputs":[],"outputs":[{"name":"","type":"address","internalType":"address"}],"stateMutability":"view"},{"type":"function","name":"renounceOwnership","inputs":[],"outputs":[],"stateMutability":"nonpayable"},{"type":"function","name":"setBurnRate","inputs":[{"name":"_burnRate","type":"uint256","internalType":"uint256"}],"outputs":[],"stateMutability":"nonpayable"},{"type":"function","name":"toggleIsFloorPrice","inputs":[],"outputs":[],"stateMutability":"nonpayable"},{"type":"function","name":"token","inputs":[],"outputs":[{"name":"","type":"address","internalType":"contract IERC20"}],"stateMutability":"view"},{"type":"function","name":"transferOwnership","inputs":[{"name":"newOwner","type":"address","internalType":"address"}],"outputs":[],"stateMutability":"nonpayable"},{"type":"function","name":"withdrawBurnedTokens","inputs":[],"outputs":[],"stateMutability":"nonpayable"},{"type":"event","name":"Listed","inputs":[{"name":"tokenId","type":"uint256","indexed":true,"internalType":"uint256"},{"name":"seller","type":"address","indexed":false,"internalType":"address"},{"name":"price","type":"uint256","indexed":false,"internalType":"uint256"}],"anonymous":false},{"type":"event","name":"OwnershipTransferred","inputs":[{"name":"previousOwner","type":"address","indexed":true,"internalType":"address"},{"name":"newOwner","type":"address","indexed":true,"internalType":"address"}],"anonymous":false},{"type":"event","name":"Purchased","inputs":[{"name":"tokenId","type":"uint256","indexed":true,"internalType":"uint256"},{"name":"buyer","type":"address","indexed":false,"internalType":"address"},{"name":"price","type":"uint256","indexed":false,"internalType":"uint256"}],"anonymous":false},{"type":"error","name":"OwnableInvalidOwner","inputs":[{"name":"owner","type":"address","internalType":"address"}]},{"type":"error","name":"OwnableUnauthorizedAccount","inputs":[{"name":"account","type":"address","internalType":"address"}]}],"bytecode":{"object":"0x6080604052600560035534801561001557600080fd5b50604051610cc7380380610cc7833981016040819052610034916100fd565b338061005a57604051631e4fbdf760e01b81526000600482015260240160405180910390fd5b61006381610095565b50600180546001600160a01b039384166001600160a01b03199182161790915560028054929093169116179055610137565b600080546001600160a01b038381166001600160a01b0319831681178455604051919092169283917f8be0079c531659141344cd1fd0a4f28419497f9722a3daafe3b4186f6b6457e09190a35050565b6001600160a01b03811681146100fa57600080fd5b50565b6000806040838503121561011057600080fd5b825161011b816100e5565b602084015190925061012c816100e5565b809150509250929050565b610b81806101466000396000f3fe608060405234801561001057600080fd5b50600436106100cf5760003560e01c8063acf779311161008c578063de74e57b11610066578063de74e57b146101ab578063e14ed3e5146101fd578063f2fde38b14610205578063fc0c546a1461021857600080fd5b8063acf7793114610179578063bed998501461018c578063cbc6d7d3146101a357600080fd5b8063150b7a02146100d4578063189d165e1461011157806351ed828814610126578063715018a6146101395780638da5cb5b1461014157806394383f1414610166575b600080fd5b6100f36100e2366004610967565b630a85bd0160e11b95945050505050565b6040516001600160e01b031990911681526020015b60405180910390f35b61012461011f366004610a08565b61022b565b005b610124610134366004610a08565b610281565b6101246104e1565b6000546001600160a01b03165b6040516001600160a01b039091168152602001610108565b610124610174366004610a21565b6104f5565b60025461014e906001600160a01b031681565b61019560035481565b604051908152602001610108565b61012461075e565b6101de6101b9366004610a08565b600460205260009081526040902080546001909101546001600160a01b039091169082565b604080516001600160a01b039093168352602083019190915201610108565b610124610787565b610124610213366004610a43565b610897565b60015461014e906001600160a01b031681565b6102336108d5565b6014811061027c5760405162461bcd60e51b8152602060048201526011602482015270496e76616c6964205f6275726e5261746560781b60448201526064015b60405180910390fd5b600355565b600081815260046020908152604091829020825180840190935280546001600160a01b0316808452600190910154918301919091526102ef5760405162461bcd60e51b815260206004820152600a602482015269139bdd081b1a5cdd195960b21b6044820152606401610273565b6000606460035483602001516103059190610a7d565b61030f9190610a9a565b905060008183602001516103239190610abc565b6001546040516323b872dd60e01b81529192506001600160a01b0316906323b872dd9061035890339030908790600401610acf565b6020604051808303816000875af1158015610377573d6000803e3d6000fd5b505050506040513d601f19601f8201168201806040525081019061039b9190610af3565b5060015483516040516323b872dd60e01b81526001600160a01b03909216916323b872dd916103d1913391908690600401610acf565b6020604051808303816000875af11580156103f0573d6000803e3d6000fd5b505050506040513d601f19601f820116820180604052508101906104149190610af3565b506002546040516323b872dd60e01b81526001600160a01b03909116906323b872dd9061044990309033908990600401610acf565b600060405180830381600087803b15801561046357600080fd5b505af1158015610477573d6000803e3d6000fd5b505050600085815260046020908152604080832080546001600160a01b031916815560010192909255858101518251338152918201528692507ffd51b2c9f55c42d2b72ac683526519563be02fc0107f034ff430c05185ff1b66910160405180910390a250505050565b6104e96108d5565b6104f36000610902565b565b600254600160a01b900460ff16156105705768056bc75e2d631000008110156105705760405162461bcd60e51b815260206004820152602760248201527f466c6f6f72207072696365206d7573742067726561746572207468616e20313060448201526618103a37b5b2b760c91b6064820152608401610273565b6002546040516331a9108f60e11b81526004810184905233916001600160a01b031690636352211e90602401602060405180830381865afa1580156105b9573d6000803e3d6000fd5b505050506040513d601f19601f820116820180604052508101906105dd9190610b15565b6001600160a01b03161461061f5760405162461bcd60e51b81526020600482015260096024820152682737ba1037bbb732b960b91b6044820152606401610273565b6000828152600460205260409020546001600160a01b0316156106755760405162461bcd60e51b815260206004820152600e60248201526d105b1c9958591e481b1a5cdd195960921b6044820152606401610273565b6002546040516323b872dd60e01b81526001600160a01b03909116906323b872dd906106a990339030908790600401610acf565b600060405180830381600087803b1580156106c357600080fd5b505af11580156106d7573d6000803e3d6000fd5b5050604080518082018252338082526020808301878152600089815260048352859020935184546001600160a01b0319166001600160a01b039091161784555160019093019290925582519081529081018590528593507f50955776c5778c3b7d968d86d8c51fb6b29a7a74c20866b533268e209fc0834392500160405180910390a25050565b6107666108d5565b6002805460ff60a01b198116600160a01b9182900460ff1615909102179055565b61078f6108d5565b6001546040516370a0823160e01b81523060048201526000916001600160a01b0316906370a0823190602401602060405180830381865afa1580156107d8573d6000803e3d6000fd5b505050506040513d601f19601f820116820180604052508101906107fc9190610b32565b6001549091506001600160a01b031663a9059cbb6108226000546001600160a01b031690565b6040516001600160e01b031960e084901b1681526001600160a01b039091166004820152602481018490526044016020604051808303816000875af115801561086f573d6000803e3d6000fd5b505050506040513d601f19601f820116820180604052508101906108939190610af3565b5050565b61089f6108d5565b6001600160a01b0381166108c957604051631e4fbdf760e01b815260006004820152602401610273565b6108d281610902565b50565b6000546001600160a01b031633146104f35760405163118cdaa760e01b8152336004820152602401610273565b600080546001600160a01b038381166001600160a01b0319831681178455604051919092169283917f8be0079c531659141344cd1fd0a4f28419497f9722a3daafe3b4186f6b6457e09190a35050565b6001600160a01b03811681146108d257600080fd5b60008060008060006080868803121561097f57600080fd5b853561098a81610952565b9450602086013561099a81610952565b935060408601359250606086013567ffffffffffffffff8111156109bd57600080fd5b8601601f810188136109ce57600080fd5b803567ffffffffffffffff8111156109e557600080fd5b8860208284010111156109f757600080fd5b959894975092955050506020019190565b600060208284031215610a1a57600080fd5b5035919050565b60008060408385031215610a3457600080fd5b50508035926020909101359150565b600060208284031215610a5557600080fd5b8135610a6081610952565b9392505050565b634e487b7160e01b600052601160045260246000fd5b8082028115828204841417610a9457610a94610a67565b92915050565b600082610ab757634e487b7160e01b600052601260045260246000fd5b500490565b81810381811115610a9457610a94610a67565b6001600160a01b039384168152919092166020820152604081019190915260600190565b600060208284031215610b0557600080fd5b81518015158114610a6057600080fd5b600060208284031215610b2757600080fd5b8151610a6081610952565b600060208284031215610b4457600080fd5b505191905056fea2646970667358221220e0fcdcd2595c3ffbf6abafb8dce34604467f841f60dcb33fd161b86a1d316d9964736f6c634300081a0033","linkReferences":{}},"methodIdentifiers":{"bananaNFT()":"acf77931","burnRate()":"bed99850","buyNFT(uint256)":"51ed8288","listNFT(uint256,uint256)":"94383f14","listings(uint256)":"de74e57b","onERC721Received(address,address,uint256,bytes)":"150b7a02","owner()":"8da5cb5b","renounceOwnership()":"715018a6","setBurnRate(uint256)":"189d165e","toggleIsFloorPrice()":"cbc6d7d3","token()":"fc0c546a","transferOwnership(address)":"f2fde38b","withdrawBurnedTokens()":"e14ed3e5"},"id":0}