{"abi":[{"type":"constructor","inputs":[{"name":"_token","type":"address","internalType":"contract IERC20"},{"name":"_nft","type":"address","internalType":"contract BananaNFT"}],"stateMutability":"nonpayable"},{"type":"function","name":"bananaNFT","inputs":[],"outputs":[{"name":"","type":"address","internalType":"contract BananaNFT"}],"stateMutability":"view"},{"type":"function","name":"burnRate","inputs":[],"outputs":[{"name":"","type":"uint256","internalType":"uint256"}],"stateMutability":"view"},{"type":"function","name":"buyNFT","inputs":[{"name":"tokenId","type":"uint256","internalType":"uint256"}],"outputs":[],"stateMutability":"nonpayable"},{"type":"function","name":"floorPrice","inputs":[],"outputs":[{"name":"","type":"uint256","internalType":"uint256"}],"stateMutability":"view"},{"type":"function","name":"listNFT","inputs":[{"name":"tokenId","type":"uint256","internalType":"uint256"},{"name":"price","type":"uint256","internalType":"uint256"}],"outputs":[],"stateMutability":"nonpayable"},{"type":"function","name":"listings","inputs":[{"name":"","type":"uint256","internalType":"uint256"}],"outputs":[{"name":"seller","type":"address","internalType":"address"},{"name":"price","type":"uint256","internalType":"uint256"}],"stateMutability":"view"},{"type":"function","name":"onERC721Received","inputs":[{"name":"","type":"address","internalType":"address"},{"name":"","type":"address","internalType":"address"},{"name":"","type":"uint256","internalType":"uint256"},{"name":"","type":"bytes","internalType":"bytes"}],"outputs":[{"name":"","type":"bytes4","internalType":"bytes4"}],"stateMutability":"pure"},{"type":"function","name":"owner","inputs":[],"outputs":[{"name":"","type":"address","internalType":"address"}],"stateMutability":"view"},{"type":"function","name":"renounceOwnership","inputs":[],"outputs":[],"stateMutability":"nonpayable"},{"type":"function","name":"setBurnRate","inputs":[{"name":"_burnRate","type":"uint256","internalType":"uint256"}],"outputs":[],"stateMutability":"nonpayable"},{"type":"function","name":"setFloorPrice","inputs":[{"name":"_floorPrice","type":"uint256","internalType":"uint256"}],"outputs":[],"stateMutability":"nonpayable"},{"type":"function","name":"toggleIsFloorPrice","inputs":[],"outputs":[],"stateMutability":"nonpayable"},{"type":"function","name":"token","inputs":[],"outputs":[{"name":"","type":"address","internalType":"contract IERC20"}],"stateMutability":"view"},{"type":"function","name":"transferOwnership","inputs":[{"name":"newOwner","type":"address","internalType":"address"}],"outputs":[],"stateMutability":"nonpayable"},{"type":"function","name":"withdrawBurnedTokens","inputs":[],"outputs":[],"stateMutability":"nonpayable"},{"type":"event","name":"Listed","inputs":[{"name":"tokenId","type":"uint256","indexed":true,"internalType":"uint256"},{"name":"seller","type":"address","indexed":false,"internalType":"address"},{"name":"price","type":"uint256","indexed":false,"internalType":"uint256"}],"anonymous":false},{"type":"event","name":"OwnershipTransferred","inputs":[{"name":"previousOwner","type":"address","indexed":true,"internalType":"address"},{"name":"newOwner","type":"address","indexed":true,"internalType":"address"}],"anonymous":false},{"type":"event","name":"Purchased","inputs":[{"name":"tokenId","type":"uint256","indexed":true,"internalType":"uint256"},{"name":"buyer","type":"address","indexed":false,"internalType":"address"},{"name":"price","type":"uint256","indexed":false,"internalType":"uint256"}],"anonymous":false},{"type":"error","name":"OwnableInvalidOwner","inputs":[{"name":"owner","type":"address","internalType":"address"}]},{"type":"error","name":"OwnableUnauthorizedAccount","inputs":[{"name":"account","type":"address","internalType":"address"}]}],"bytecode":{"object":"0x6080604052600560045534801561001557600080fd5b50604051610d0f380380610d0f833981016040819052610034916100fd565b338061005a57604051631e4fbdf760e01b81526000600482015260240160405180910390fd5b61006381610095565b50600180546001600160a01b039384166001600160a01b03199182161790915560028054929093169116179055610137565b600080546001600160a01b038381166001600160a01b0319831681178455604051919092169283917f8be0079c531659141344cd1fd0a4f28419497f9722a3daafe3b4186f6b6457e09190a35050565b6001600160a01b03811681146100fa57600080fd5b50565b6000806040838503121561011057600080fd5b825161011b816100e5565b602084015190925061012c816100e5565b809150509250929050565b610bc9806101466000396000f3fe608060405234801561001057600080fd5b50600436106100f55760003560e01c806394383f1411610097578063de74e57b11610066578063de74e57b146101ed578063e14ed3e51461023f578063f2fde38b14610247578063fc0c546a1461025a57600080fd5b806394383f14146101b6578063acf77931146101c9578063bed99850146101dc578063cbc6d7d3146101e557600080fd5b806351ed8288116100d357806351ed82881461015f578063715018a6146101725780638da5cb5b1461017a5780639363c8121461019f57600080fd5b8063150b7a02146100fa578063189d165e146101375780633d05829d1461014c575b600080fd5b6101196101083660046109af565b630a85bd0160e11b95945050505050565b6040516001600160e01b031990911681526020015b60405180910390f35b61014a610145366004610a50565b61026d565b005b61014a61015a366004610a50565b6102c3565b61014a61016d366004610a50565b6102d0565b61014a610530565b6000546001600160a01b03165b6040516001600160a01b03909116815260200161012e565b6101a860035481565b60405190815260200161012e565b61014a6101c4366004610a69565b610544565b600254610187906001600160a01b031681565b6101a860045481565b61014a6107a6565b6102206101fb366004610a50565b600560205260009081526040902080546001909101546001600160a01b039091169082565b604080516001600160a01b03909316835260208301919091520161012e565b61014a6107cf565b61014a610255366004610a8b565b6108df565b600154610187906001600160a01b031681565b61027561091d565b601481106102be5760405162461bcd60e51b8152602060048201526011602482015270496e76616c6964205f6275726e5261746560781b60448201526064015b60405180910390fd5b600455565b6102cb61091d565b600355565b600081815260056020908152604091829020825180840190935280546001600160a01b03168084526001909101549183019190915261033e5760405162461bcd60e51b815260206004820152600a602482015269139bdd081b1a5cdd195960b21b60448201526064016102b5565b6000606460045483602001516103549190610ac5565b61035e9190610ae2565b905060008183602001516103729190610b04565b6001546040516323b872dd60e01b81529192506001600160a01b0316906323b872dd906103a790339030908790600401610b17565b6020604051808303816000875af11580156103c6573d6000803e3d6000fd5b505050506040513d601f19601f820116820180604052508101906103ea9190610b3b565b5060015483516040516323b872dd60e01b81526001600160a01b03909216916323b872dd91610420913391908690600401610b17565b6020604051808303816000875af115801561043f573d6000803e3d6000fd5b505050506040513d601f19601f820116820180604052508101906104639190610b3b565b506002546040516323b872dd60e01b81526001600160a01b03909116906323b872dd9061049890309033908990600401610b17565b600060405180830381600087803b1580156104b257600080fd5b505af11580156104c6573d6000803e3d6000fd5b505050600085815260056020908152604080832080546001600160a01b031916815560010192909255858101518251338152918201528692507ffd51b2c9f55c42d2b72ac683526519563be02fc0107f034ff430c05185ff1b66910160405180910390a250505050565b61053861091d565b610542600061094a565b565b600254600160a01b900460ff16156105b8576003548110156105b85760405162461bcd60e51b815260206004820152602760248201527f466c6f6f72207072696365206d7573742067726561746572207468616e20313060448201526618103a37b5b2b760c91b60648201526084016102b5565b6002546040516331a9108f60e11b81526004810184905233916001600160a01b031690636352211e90602401602060405180830381865afa158015610601573d6000803e3d6000fd5b505050506040513d601f19601f820116820180604052508101906106259190610b5d565b6001600160a01b0316146106675760405162461bcd60e51b81526020600482015260096024820152682737ba1037bbb732b960b91b60448201526064016102b5565b6000828152600560205260409020546001600160a01b0316156106bd5760405162461bcd60e51b815260206004820152600e60248201526d105b1c9958591e481b1a5cdd195960921b60448201526064016102b5565b6002546040516323b872dd60e01b81526001600160a01b03909116906323b872dd906106f190339030908790600401610b17565b600060405180830381600087803b15801561070b57600080fd5b505af115801561071f573d6000803e3d6000fd5b5050604080518082018252338082526020808301878152600089815260058352859020935184546001600160a01b0319166001600160a01b039091161784555160019093019290925582519081529081018590528593507f50955776c5778c3b7d968d86d8c51fb6b29a7a74c20866b533268e209fc0834392500160405180910390a25050565b6107ae61091d565b6002805460ff60a01b198116600160a01b9182900460ff1615909102179055565b6107d761091d565b6001546040516370a0823160e01b81523060048201526000916001600160a01b0316906370a0823190602401602060405180830381865afa158015610820573d6000803e3d6000fd5b505050506040513d601f19601f820116820180604052508101906108449190610b7a565b6001549091506001600160a01b031663a9059cbb61086a6000546001600160a01b031690565b6040516001600160e01b031960e084901b1681526001600160a01b039091166004820152602481018490526044016020604051808303816000875af11580156108b7573d6000803e3d6000fd5b505050506040513d601f19601f820116820180604052508101906108db9190610b3b565b5050565b6108e761091d565b6001600160a01b03811661091157604051631e4fbdf760e01b8152600060048201526024016102b5565b61091a8161094a565b50565b6000546001600160a01b031633146105425760405163118cdaa760e01b81523360048201526024016102b5565b600080546001600160a01b038381166001600160a01b0319831681178455604051919092169283917f8be0079c531659141344cd1fd0a4f28419497f9722a3daafe3b4186f6b6457e09190a35050565b6001600160a01b038116811461091a57600080fd5b6000806000806000608086880312156109c757600080fd5b85356109d28161099a565b945060208601356109e28161099a565b935060408601359250606086013567ffffffffffffffff811115610a0557600080fd5b8601601f81018813610a1657600080fd5b803567ffffffffffffffff811115610a2d57600080fd5b886020828401011115610a3f57600080fd5b959894975092955050506020019190565b600060208284031215610a6257600080fd5b5035919050565b60008060408385031215610a7c57600080fd5b50508035926020909101359150565b600060208284031215610a9d57600080fd5b8135610aa88161099a565b9392505050565b634e487b7160e01b600052601160045260246000fd5b8082028115828204841417610adc57610adc610aaf565b92915050565b600082610aff57634e487b7160e01b600052601260045260246000fd5b500490565b81810381811115610adc57610adc610aaf565b6001600160a01b039384168152919092166020820152604081019190915260600190565b600060208284031215610b4d57600080fd5b81518015158114610aa857600080fd5b600060208284031215610b6f57600080fd5b8151610aa88161099a565b600060208284031215610b8c57600080fd5b505191905056fea264697066735822122057ef6f85838324af5d72638cbc49274e08664cad49b2d7e08bcbce56abbb7d8064736f6c634300081a0033","linkReferences":{}},"methodIdentifiers":{"bananaNFT()":"acf77931","burnRate()":"bed99850","buyNFT(uint256)":"51ed8288","floorPrice()":"9363c812","listNFT(uint256,uint256)":"94383f14","listings(uint256)":"de74e57b","onERC721Received(address,address,uint256,bytes)":"150b7a02","owner()":"8da5cb5b","renounceOwnership()":"715018a6","setBurnRate(uint256)":"189d165e","setFloorPrice(uint256)":"3d05829d","toggleIsFloorPrice()":"cbc6d7d3","token()":"fc0c546a","transferOwnership(address)":"f2fde38b","withdrawBurnedTokens()":"e14ed3e5"},"id":0}