{"abi":[{"type":"constructor","inputs":[{"name":"_mintInterval","type":"uint256","internalType":"uint256"},{"name":"_token","type":"address","internalType":"contract IERC20"}],"stateMutability":"nonpayable"},{"type":"function","name":"_isSaleActive","inputs":[],"outputs":[{"name":"","type":"bool","internalType":"bool"}],"stateMutability":"view"},{"type":"function","name":"_tokenURIs","inputs":[{"name":"tokenId","type":"uint256","internalType":"uint256"}],"outputs":[{"name":"","type":"string","internalType":"string"}],"stateMutability":"view"},{"type":"function","name":"approve","inputs":[{"name":"to","type":"address","internalType":"address"},{"name":"tokenId","type":"uint256","internalType":"uint256"}],"outputs":[],"stateMutability":"nonpayable"},{"type":"function","name":"balanceOf","inputs":[{"name":"owner","type":"address","internalType":"address"}],"outputs":[{"name":"","type":"uint256","internalType":"uint256"}],"stateMutability":"view"},{"type":"function","name":"currentTokenId","inputs":[],"outputs":[{"name":"","type":"uint256","internalType":"uint256"}],"stateMutability":"view"},{"type":"function","name":"flipSaleActive","inputs":[],"outputs":[],"stateMutability":"nonpayable"},{"type":"function","name":"getApproved","inputs":[{"name":"tokenId","type":"uint256","internalType":"uint256"}],"outputs":[{"name":"","type":"address","internalType":"address"}],"stateMutability":"view"},{"type":"function","name":"isApprovedForAll","inputs":[{"name":"owner","type":"address","internalType":"address"},{"name":"operator","type":"address","internalType":"address"}],"outputs":[{"name":"","type":"bool","internalType":"bool"}],"stateMutability":"view"},{"type":"function","name":"isOnline","inputs":[{"name":"","type":"address","internalType":"address"}],"outputs":[{"name":"","type":"bool","internalType":"bool"}],"stateMutability":"view"},{"type":"function","name":"judgeMint","inputs":[],"outputs":[{"name":"nextMintTime","type":"uint256","internalType":"uint256"}],"stateMutability":"view"},{"type":"function","name":"lastMintTime","inputs":[{"name":"","type":"address","internalType":"address"}],"outputs":[{"name":"","type":"uint256","internalType":"uint256"}],"stateMutability":"view"},{"type":"function","name":"mint","inputs":[{"name":"uri","type":"string","internalType":"string"}],"outputs":[{"name":"","type":"uint256","internalType":"uint256"}],"stateMutability":"nonpayable"},{"type":"function","name":"mintInterval","inputs":[],"outputs":[{"name":"","type":"uint256","internalType":"uint256"}],"stateMutability":"view"},{"type":"function","name":"mintPrice","inputs":[],"outputs":[{"name":"","type":"uint256","internalType":"uint256"}],"stateMutability":"view"},{"type":"function","name":"name","inputs":[],"outputs":[{"name":"","type":"string","internalType":"string"}],"stateMutability":"view"},{"type":"function","name":"owner","inputs":[],"outputs":[{"name":"","type":"address","internalType":"address"}],"stateMutability":"view"},{"type":"function","name":"ownerOf","inputs":[{"name":"tokenId","type":"uint256","internalType":"uint256"}],"outputs":[{"name":"","type":"address","internalType":"address"}],"stateMutability":"view"},{"type":"function","name":"payToMint","inputs":[{"name":"uri","type":"string","internalType":"string"}],"outputs":[{"name":"","type":"uint256","internalType":"uint256"}],"stateMutability":"payable"},{"type":"function","name":"renounceOwnership","inputs":[],"outputs":[],"stateMutability":"nonpayable"},{"type":"function","name":"safeTransferFrom","inputs":[{"name":"from","type":"address","internalType":"address"},{"name":"to","type":"address","internalType":"address"},{"name":"tokenId","type":"uint256","internalType":"uint256"}],"outputs":[],"stateMutability":"nonpayable"},{"type":"function","name":"safeTransferFrom","inputs":[{"name":"from","type":"address","internalType":"address"},{"name":"to","type":"address","internalType":"address"},{"name":"tokenId","type":"uint256","internalType":"uint256"},{"name":"data","type":"bytes","internalType":"bytes"}],"outputs":[],"stateMutability":"nonpayable"},{"type":"function","name":"saleEndTime","inputs":[],"outputs":[{"name":"","type":"uint256","internalType":"uint256"}],"stateMutability":"view"},{"type":"function","name":"setApprovalForAll","inputs":[{"name":"operator","type":"address","internalType":"address"},{"name":"approved","type":"bool","internalType":"bool"}],"outputs":[],"stateMutability":"nonpayable"},{"type":"function","name":"setMintPrice","inputs":[{"name":"_mintPrice","type":"uint256","internalType":"uint256"}],"outputs":[],"stateMutability":"nonpayable"},{"type":"function","name":"startSale","inputs":[{"name":"duration","type":"uint256","internalType":"uint256"}],"outputs":[],"stateMutability":"nonpayable"},{"type":"function","name":"supportsInterface","inputs":[{"name":"interfaceId","type":"bytes4","internalType":"bytes4"}],"outputs":[{"name":"","type":"bool","internalType":"bool"}],"stateMutability":"view"},{"type":"function","name":"symbol","inputs":[],"outputs":[{"name":"","type":"string","internalType":"string"}],"stateMutability":"view"},{"type":"function","name":"token","inputs":[],"outputs":[{"name":"","type":"address","internalType":"contract IERC20"}],"stateMutability":"view"},{"type":"function","name":"tokenByIndex","inputs":[{"name":"index","type":"uint256","internalType":"uint256"}],"outputs":[{"name":"","type":"uint256","internalType":"uint256"}],"stateMutability":"view"},{"type":"function","name":"tokenOfOwnerByIndex","inputs":[{"name":"owner","type":"address","internalType":"address"},{"name":"index","type":"uint256","internalType":"uint256"}],"outputs":[{"name":"","type":"uint256","internalType":"uint256"}],"stateMutability":"view"},{"type":"function","name":"tokenURI","inputs":[{"name":"tokenId","type":"uint256","internalType":"uint256"}],"outputs":[{"name":"","type":"string","internalType":"string"}],"stateMutability":"view"},{"type":"function","name":"totalSupply","inputs":[],"outputs":[{"name":"","type":"uint256","internalType":"uint256"}],"stateMutability":"view"},{"type":"function","name":"transferFrom","inputs":[{"name":"from","type":"address","internalType":"address"},{"name":"to","type":"address","internalType":"address"},{"name":"tokenId","type":"uint256","internalType":"uint256"}],"outputs":[],"stateMutability":"nonpayable"},{"type":"function","name":"transferOwnership","inputs":[{"name":"newOwner","type":"address","internalType":"address"}],"outputs":[],"stateMutability":"nonpayable"},{"type":"function","name":"withdraw","inputs":[],"outputs":[],"stateMutability":"nonpayable"},{"type":"event","name":"Approval","inputs":[{"name":"owner","type":"address","indexed":true,"internalType":"address"},{"name":"approved","type":"address","indexed":true,"internalType":"address"},{"name":"tokenId","type":"uint256","indexed":true,"internalType":"uint256"}],"anonymous":false},{"type":"event","name":"ApprovalForAll","inputs":[{"name":"owner","type":"address","indexed":true,"internalType":"address"},{"name":"operator","type":"address","indexed":true,"internalType":"address"},{"name":"approved","type":"bool","indexed":false,"internalType":"bool"}],"anonymous":false},{"type":"event","name":"Minted","inputs":[{"name":"user","type":"address","indexed":true,"internalType":"address"},{"name":"tokenId","type":"uint256","indexed":false,"internalType":"uint256"}],"anonymous":false},{"type":"event","name":"OwnershipTransferred","inputs":[{"name":"previousOwner","type":"address","indexed":true,"internalType":"address"},{"name":"newOwner","type":"address","indexed":true,"internalType":"address"}],"anonymous":false},{"type":"event","name":"Transfer","inputs":[{"name":"from","type":"address","indexed":true,"internalType":"address"},{"name":"to","type":"address","indexed":true,"internalType":"address"},{"name":"tokenId","type":"uint256","indexed":true,"internalType":"uint256"}],"anonymous":false},{"type":"error","name":"ERC721EnumerableForbiddenBatchMint","inputs":[]},{"type":"error","name":"ERC721IncorrectOwner","inputs":[{"name":"sender","type":"address","internalType":"address"},{"name":"tokenId","type":"uint256","internalType":"uint256"},{"name":"owner","type":"address","internalType":"address"}]},{"type":"error","name":"ERC721InsufficientApproval","inputs":[{"name":"operator","type":"address","internalType":"address"},{"name":"tokenId","type":"uint256","internalType":"uint256"}]},{"type":"error","name":"ERC721InvalidApprover","inputs":[{"name":"approver","type":"address","internalType":"address"}]},{"type":"error","name":"ERC721InvalidOperator","inputs":[{"name":"operator","type":"address","internalType":"address"}]},{"type":"error","name":"ERC721InvalidOwner","inputs":[{"name":"owner","type":"address","internalType":"address"}]},{"type":"error","name":"ERC721InvalidReceiver","inputs":[{"name":"receiver","type":"address","internalType":"address"}]},{"type":"error","name":"ERC721InvalidSender","inputs":[{"name":"sender","type":"address","internalType":"address"}]},{"type":"error","name":"ERC721NonexistentToken","inputs":[{"name":"tokenId","type":"uint256","internalType":"uint256"}]},{"type":"error","name":"ERC721OutOfBoundsIndex","inputs":[{"name":"owner","type":"address","internalType":"address"},{"name":"index","type":"uint256","internalType":"uint256"}]},{"type":"error","name":"OwnableInvalidOwner","inputs":[{"name":"owner","type":"address","internalType":"address"}]},{"type":"error","name":"OwnableUnauthorizedAccount","inputs":[{"name":"account","type":"address","internalType":"address"}]}],"bytecode":{"object":"0x6080604052662386f26fc10000600d5534801561001b57600080fd5b50604051611e65380380611e6583398101604081905261003a9161014d565b336040518060400160405280600981526020016810985b985b9853919560ba1b815250604051806040016040528060048152602001631093919560e21b81525081600090816100899190610229565b5060016100968282610229565b5050506001600160a01b0381166100c757604051631e4fbdf760e01b81526000600482015260240160405180910390fd5b6100d0816100fb565b50600e91909155600c80546001600160a01b0319166001600160a01b039092169190911790556102e7565b600a80546001600160a01b038381166001600160a01b0319831681179093556040519116919082907f8be0079c531659141344cd1fd0a4f28419497f9722a3daafe3b4186f6b6457e090600090a35050565b6000806040838503121561016057600080fd5b825160208401519092506001600160a01b038116811461017f57600080fd5b809150509250929050565b634e487b7160e01b600052604160045260246000fd5b600181811c908216806101b457607f821691505b6020821081036101d457634e487b7160e01b600052602260045260246000fd5b50919050565b601f82111561022457806000526020600020601f840160051c810160208510156102015750805b601f840160051c820191505b81811015610221576000815560010161020d565b50505b505050565b81516001600160401b038111156102425761024261018a565b6102568161025084546101a0565b846101da565b6020601f82116001811461028a57600083156102725750848201515b600019600385901b1c1916600184901b178455610221565b600084815260208120601f198516915b828110156102ba578785015182556020948501946001909201910161029a565b50848210156102d85786840151600019600387901b60f8161c191681555b50505050600190811b01905550565b611b6f806102f66000396000f3fe6080604052600436106102035760003560e01c80636352211e11610118578063b88d4fde116100a0578063e985e9c51161006f578063e985e9c5146105aa578063ed338ff1146105ca578063f2fde38b146105e0578063f4a0a52814610600578063fc0c546a1461062057600080fd5b8063b88d4fde14610535578063c87b56dd14610555578063d85d3d2714610575578063de8b51e11461059557600080fd5b806370a08231116100e757806370a08231146104ad578063715018a6146104cd5780638da5cb5b146104e257806395d89b4114610500578063a22cb4651461051557600080fd5b80636352211e146104305780636817c76c146104505780636aa71d18146104665780637080d6fc1461049357600080fd5b80630e3ab61d1161019b5780632f745c591161016a5780632f745c59146103a85780633ccfd60b146103c857806342842e0e146103dd5780634f6ccce7146103fd578063537efe311461041d57600080fd5b80630e3ab61d1461033d5780630e726e6b1461035d57806318160ddd1461037357806323b872dd1461038857600080fd5b806306fdde03116101d757806306fdde03146102a1578063081812fc146102c3578063095ea7b3146102fb5780630bb78ec11461031d57600080fd5b80629a9b7b1461020857806301ffc9a71461022c57806303e691461461025c57806306dbc1311461028c575b600080fd5b34801561021457600080fd5b50600b545b6040519081526020015b60405180910390f35b34801561023857600080fd5b5061024c610247366004611626565b610640565b6040519015158152602001610223565b34801561026857600080fd5b5061024c610277366004611666565b60136020526000908152604090205460ff1681565b34801561029857600080fd5b5061021961066b565b3480156102ad57600080fd5b506102b661068e565b60405161022391906116c7565b3480156102cf57600080fd5b506102e36102de3660046116da565b610720565b6040516001600160a01b039091168152602001610223565b34801561030757600080fd5b5061031b6103163660046116f3565b610749565b005b34801561032957600080fd5b506102b66103383660046116da565b610758565b34801561034957600080fd5b5061031b6103583660046116da565b6107f2565b34801561036957600080fd5b50610219600e5481565b34801561037f57600080fd5b50600854610219565b34801561039457600080fd5b5061031b6103a336600461171d565b61080a565b3480156103b457600080fd5b506102196103c33660046116f3565b61089a565b3480156103d457600080fd5b5061031b6108ff565b3480156103e957600080fd5b5061031b6103f836600461171d565b610943565b34801561040957600080fd5b506102196104183660046116da565b610963565b61021961042b3660046117ea565b6109bc565b34801561043c57600080fd5b506102e361044b3660046116da565b610af0565b34801561045c57600080fd5b50610219600d5481565b34801561047257600080fd5b50610219610481366004611666565b60126020526000908152604090205481565b34801561049f57600080fd5b5060105461024c9060ff1681565b3480156104b957600080fd5b506102196104c8366004611666565b610afb565b3480156104d957600080fd5b5061031b610b43565b3480156104ee57600080fd5b50600a546001600160a01b03166102e3565b34801561050c57600080fd5b506102b6610b57565b34801561052157600080fd5b5061031b610530366004611833565b610b66565b34801561054157600080fd5b5061031b61055036600461186f565b610b71565b34801561056157600080fd5b506102b66105703660046116da565b610b88565b34801561058157600080fd5b506102196105903660046117ea565b610c33565b3480156105a157600080fd5b5061031b610cc8565b3480156105b657600080fd5b5061024c6105c53660046118eb565b610ce4565b3480156105d657600080fd5b50610219600f5481565b3480156105ec57600080fd5b5061031b6105fb366004611666565b610d12565b34801561060c57600080fd5b5061031b61061b3660046116da565b610d4d565b34801561062c57600080fd5b50600c546102e3906001600160a01b031681565b60006001600160e01b0319821663780e9d6360e01b1480610665575061066582610d5a565b92915050565b600e5433600090815260126020526040812054909161068991611934565b905090565b60606000805461069d90611947565b80601f01602080910402602001604051908101604052809291908181526020018280546106c990611947565b80156107165780601f106106eb57610100808354040283529160200191610716565b820191906000526020600020905b8154815290600101906020018083116106f957829003601f168201915b5050505050905090565b600061072b82610daa565b506000828152600460205260409020546001600160a01b0316610665565b610754828233610de3565b5050565b6011602052600090815260409020805461077190611947565b80601f016020809104026020016040519081016040528092919081815260200182805461079d90611947565b80156107ea5780601f106107bf576101008083540402835291602001916107ea565b820191906000526020600020905b8154815290600101906020018083116107cd57829003601f168201915b505050505081565b6107fa610df0565b6108048142611934565b600f5550565b6001600160a01b03821661083957604051633250574960e11b8152600060048201526024015b60405180910390fd5b6000610846838333610e1d565b9050836001600160a01b0316816001600160a01b031614610894576040516364283d7b60e01b81526001600160a01b0380861660048301526024820184905282166044820152606401610830565b50505050565b60006108a583610afb565b82106108d65760405163295f44f760e21b81526001600160a01b038416600482015260248101839052604401610830565b506001600160a01b03919091166000908152600660209081526040808320938352929052205490565b610907610df0565b600a546040516001600160a01b03909116904780156108fc02916000818181858888f19350505050158015610940573d6000803e3d6000fd5b50565b61095e83838360405180602001604052806000815250610b71565b505050565b600061096e60085490565b82106109975760405163295f44f760e21b81526000600482015260248101839052604401610830565b600882815481106109aa576109aa611981565b90600052602060002001549050919050565b60105460009060ff16610a065760405162461bcd60e51b815260206004820152601260248201527153616c65206973206e6f742061637469766560701b6044820152606401610830565b600f544210610a445760405162461bcd60e51b815260206004820152600a60248201526914d85b1948195b99195960b21b6044820152606401610830565b600d543414610a8b5760405162461bcd60e51b8152602060048201526013602482015272496e636f7272656374204554482076616c756560681b6044820152606401610830565b600b60008154610a9a90611997565b90915550600b54610aab3382610ef2565b610ab58184610f0c565b60405181815233907f30385c845b448a36257a6a1716e6ad2e1bc2cbe333cde1e69fe849ad6511adfe9060200160405180910390a292915050565b600061066582610daa565b60006001600160a01b038216610b27576040516322718ad960e21b815260006004820152602401610830565b506001600160a01b031660009081526003602052604090205490565b610b4b610df0565b610b556000610f24565b565b60606001805461069d90611947565b610754338383610f76565b610b7c84848461080a565b61089484848484611015565b6060610b9382610daa565b5060008281526011602052604081208054610bad90611947565b80601f0160208091040260200160405190810160405280929190818152602001828054610bd990611947565b8015610c265780601f10610bfb57610100808354040283529160200191610c26565b820191906000526020600020905b815481529060010190602001808311610c0957829003601f168201915b5093979650505050505050565b600e54336000908152601260205260408120549091610c5191611934565b421015610c965760405162461bcd60e51b81526020600482015260136024820152724e6f74207265616368206d696e742074696d6560681b6044820152606401610830565b600b60008154610ca590611997565b90915550600b54336000818152601260205260409020429055610aab9082610ef2565b610cd0610df0565b6010805460ff19811660ff90911615179055565b6001600160a01b03918216600090815260056020908152604080832093909416825291909152205460ff1690565b610d1a610df0565b6001600160a01b038116610d4457604051631e4fbdf760e01b815260006004820152602401610830565b61094081610f24565b610d55610df0565b600d55565b60006001600160e01b031982166380ac58cd60e01b1480610d8b57506001600160e01b03198216635b5e139f60e01b145b8061066557506301ffc9a760e01b6001600160e01b0319831614610665565b6000818152600260205260408120546001600160a01b03168061066557604051637e27328960e01b815260048101849052602401610830565b61095e838383600161113e565b600a546001600160a01b03163314610b555760405163118cdaa760e01b8152336004820152602401610830565b600080610e2b858585611244565b90506001600160a01b038116610e8857610e8384600880546000838152600960205260408120829055600182018355919091527ff3f7a9fe364faab93b216da50a3214154f22a0a2b415b23a84c8169e8b636ee30155565b610eab565b846001600160a01b0316816001600160a01b031614610eab57610eab818561133d565b6001600160a01b038516610ec757610ec2846113ce565b610eea565b846001600160a01b0316816001600160a01b031614610eea57610eea858561147d565b949350505050565b6107548282604051806020016040528060008152506114cd565b600082815260116020526040902061095e82826119f7565b600a80546001600160a01b038381166001600160a01b0319831681179093556040519116919082907f8be0079c531659141344cd1fd0a4f28419497f9722a3daafe3b4186f6b6457e090600090a35050565b6001600160a01b038216610fa857604051630b61174360e31b81526001600160a01b0383166004820152602401610830565b6001600160a01b03838116600081815260056020908152604080832094871680845294825291829020805460ff191686151590811790915591519182527f17307eab39ab6107e8899845ad3d59bd9653f200f220920489ca2b5937696c31910160405180910390a3505050565b6001600160a01b0383163b1561089457604051630a85bd0160e11b81526001600160a01b0384169063150b7a0290611057903390889087908790600401611ab6565b6020604051808303816000875af1925050508015611092575060408051601f3d908101601f1916820190925261108f91810190611af3565b60015b6110fb573d8080156110c0576040519150601f19603f3d011682016040523d82523d6000602084013e6110c5565b606091505b5080516000036110f357604051633250574960e11b81526001600160a01b0385166004820152602401610830565b805181602001fd5b6001600160e01b03198116630a85bd0160e11b1461113757604051633250574960e11b81526001600160a01b0385166004820152602401610830565b5050505050565b808061115257506001600160a01b03821615155b1561121457600061116284610daa565b90506001600160a01b0383161580159061118e5750826001600160a01b0316816001600160a01b031614155b80156111a1575061119f8184610ce4565b155b156111ca5760405163a9fbf51f60e01b81526001600160a01b0384166004820152602401610830565b81156112125783856001600160a01b0316826001600160a01b03167f8c5be1e5ebec7d5bd14f71427d1e84f3dd0314c0f7b2291e5b200ac8c7c3b92560405160405180910390a45b505b5050600090815260046020526040902080546001600160a01b0319166001600160a01b0392909216919091179055565b6000828152600260205260408120546001600160a01b0390811690831615611271576112718184866114e4565b6001600160a01b038116156112af5761128e60008560008061113e565b6001600160a01b038116600090815260036020526040902080546000190190555b6001600160a01b038516156112de576001600160a01b0385166000908152600360205260409020805460010190555b60008481526002602052604080822080546001600160a01b0319166001600160a01b0389811691821790925591518793918516917fddf252ad1be2c89b69c2b068fc378daa952ba7f163c4a11628f55a4df523b3ef91a4949350505050565b600061134883610afb565b60008381526007602052604090205490915080821461139b576001600160a01b03841660009081526006602090815260408083208584528252808320548484528184208190558352600790915290208190555b5060009182526007602090815260408084208490556001600160a01b039094168352600681528383209183525290812055565b6008546000906113e090600190611b10565b6000838152600960205260408120546008805493945090928490811061140857611408611981565b90600052602060002001549050806008838154811061142957611429611981565b600091825260208083209091019290925582815260099091526040808220849055858252812055600880548061146157611461611b23565b6001900381819060005260206000200160009055905550505050565b6000600161148a84610afb565b6114949190611b10565b6001600160a01b039093166000908152600660209081526040808320868452825280832085905593825260079052919091209190915550565b6114d78383611548565b61095e6000848484611015565b6114ef8383836115ad565b61095e576001600160a01b03831661151d57604051637e27328960e01b815260048101829052602401610830565b60405163177e802f60e01b81526001600160a01b038316600482015260248101829052604401610830565b6001600160a01b03821661157257604051633250574960e11b815260006004820152602401610830565b600061158083836000610e1d565b90506001600160a01b0381161561095e576040516339e3563760e11b815260006004820152602401610830565b60006001600160a01b03831615801590610eea5750826001600160a01b0316846001600160a01b031614806115e757506115e78484610ce4565b80610eea5750506000908152600460205260409020546001600160a01b03908116911614919050565b6001600160e01b03198116811461094057600080fd5b60006020828403121561163857600080fd5b813561164381611610565b9392505050565b80356001600160a01b038116811461166157600080fd5b919050565b60006020828403121561167857600080fd5b6116438261164a565b6000815180845260005b818110156116a75760208185018101518683018201520161168b565b506000602082860101526020601f19601f83011685010191505092915050565b6020815260006116436020830184611681565b6000602082840312156116ec57600080fd5b5035919050565b6000806040838503121561170657600080fd5b61170f8361164a565b946020939093013593505050565b60008060006060848603121561173257600080fd5b61173b8461164a565b92506117496020850161164a565b929592945050506040919091013590565b634e487b7160e01b600052604160045260246000fd5b60008067ffffffffffffffff84111561178b5761178b61175a565b50604051601f19601f85018116603f0116810181811067ffffffffffffffff821117156117ba576117ba61175a565b6040528381529050808284018510156117d257600080fd5b83836020830137600060208583010152509392505050565b6000602082840312156117fc57600080fd5b813567ffffffffffffffff81111561181357600080fd5b8201601f8101841361182457600080fd5b610eea84823560208401611770565b6000806040838503121561184657600080fd5b61184f8361164a565b91506020830135801515811461186457600080fd5b809150509250929050565b6000806000806080858703121561188557600080fd5b61188e8561164a565b935061189c6020860161164a565b925060408501359150606085013567ffffffffffffffff8111156118bf57600080fd5b8501601f810187136118d057600080fd5b6118df87823560208401611770565b91505092959194509250565b600080604083850312156118fe57600080fd5b6119078361164a565b91506119156020840161164a565b90509250929050565b634e487b7160e01b600052601160045260246000fd5b808201808211156106655761066561191e565b600181811c9082168061195b57607f821691505b60208210810361197b57634e487b7160e01b600052602260045260246000fd5b50919050565b634e487b7160e01b600052603260045260246000fd5b6000600182016119a9576119a961191e565b5060010190565b601f82111561095e57806000526020600020601f840160051c810160208510156119d75750805b601f840160051c820191505b8181101561113757600081556001016119e3565b815167ffffffffffffffff811115611a1157611a1161175a565b611a2581611a1f8454611947565b846119b0565b6020601f821160018114611a595760008315611a415750848201515b600019600385901b1c1916600184901b178455611137565b600084815260208120601f198516915b82811015611a895787850151825560209485019460019092019101611a69565b5084821015611aa75786840151600019600387901b60f8161c191681555b50505050600190811b01905550565b6001600160a01b0385811682528416602082015260408101839052608060608201819052600090611ae990830184611681565b9695505050505050565b600060208284031215611b0557600080fd5b815161164381611610565b818103818111156106655761066561191e565b634e487b7160e01b600052603160045260246000fdfea2646970667358221220223def3ea10af9f0c107f25fd335e26fa83f5705fe18d1fc2ce9feb0dd0e2a4064736f6c634300081a0033","linkReferences":{}},"methodIdentifiers":{"_isSaleActive()":"7080d6fc","_tokenURIs(uint256)":"0bb78ec1","approve(address,uint256)":"095ea7b3","balanceOf(address)":"70a08231","currentTokenId()":"009a9b7b","flipSaleActive()":"de8b51e1","getApproved(uint256)":"081812fc","isApprovedForAll(address,address)":"e985e9c5","isOnline(address)":"03e69146","judgeMint()":"06dbc131","lastMintTime(address)":"6aa71d18","mint(string)":"d85d3d27","mintInterval()":"0e726e6b","mintPrice()":"6817c76c","name()":"06fdde03","owner()":"8da5cb5b","ownerOf(uint256)":"6352211e","payToMint(string)":"537efe31","renounceOwnership()":"715018a6","safeTransferFrom(address,address,uint256)":"42842e0e","safeTransferFrom(address,address,uint256,bytes)":"b88d4fde","saleEndTime()":"ed338ff1","setApprovalForAll(address,bool)":"a22cb465","setMintPrice(uint256)":"f4a0a528","startSale(uint256)":"0e3ab61d","supportsInterface(bytes4)":"01ffc9a7","symbol()":"95d89b41","token()":"fc0c546a","tokenByIndex(uint256)":"4f6ccce7","tokenOfOwnerByIndex(address,uint256)":"2f745c59","tokenURI(uint256)":"c87b56dd","totalSupply()":"18160ddd","transferFrom(address,address,uint256)":"23b872dd","transferOwnership(address)":"f2fde38b","withdraw()":"3ccfd60b"},"id":1}