{"abi":[{"type":"constructor","inputs":[{"name":"_mintInterval","type":"uint256","internalType":"uint256"},{"name":"_token","type":"address","internalType":"contract IERC20"}],"stateMutability":"nonpayable"},{"type":"function","name":"_isSaleActive","inputs":[],"outputs":[{"name":"","type":"bool","internalType":"bool"}],"stateMutability":"view"},{"type":"function","name":"_revealed","inputs":[],"outputs":[{"name":"","type":"bool","internalType":"bool"}],"stateMutability":"view"},{"type":"function","name":"_tokenURIs","inputs":[{"name":"tokenId","type":"uint256","internalType":"uint256"}],"outputs":[{"name":"","type":"string","internalType":"string"}],"stateMutability":"view"},{"type":"function","name":"approve","inputs":[{"name":"to","type":"address","internalType":"address"},{"name":"tokenId","type":"uint256","internalType":"uint256"}],"outputs":[],"stateMutability":"nonpayable"},{"type":"function","name":"balanceOf","inputs":[{"name":"owner","type":"address","internalType":"address"}],"outputs":[{"name":"","type":"uint256","internalType":"uint256"}],"stateMutability":"view"},{"type":"function","name":"currentTokenId","inputs":[],"outputs":[{"name":"","type":"uint256","internalType":"uint256"}],"stateMutability":"view"},{"type":"function","name":"flipReveal","inputs":[],"outputs":[],"stateMutability":"nonpayable"},{"type":"function","name":"flipSaleActive","inputs":[],"outputs":[],"stateMutability":"nonpayable"},{"type":"function","name":"getApproved","inputs":[{"name":"tokenId","type":"uint256","internalType":"uint256"}],"outputs":[{"name":"","type":"address","internalType":"address"}],"stateMutability":"view"},{"type":"function","name":"isApprovedForAll","inputs":[{"name":"owner","type":"address","internalType":"address"},{"name":"operator","type":"address","internalType":"address"}],"outputs":[{"name":"","type":"bool","internalType":"bool"}],"stateMutability":"view"},{"type":"function","name":"isOnline","inputs":[{"name":"","type":"address","internalType":"address"}],"outputs":[{"name":"","type":"bool","internalType":"bool"}],"stateMutability":"view"},{"type":"function","name":"lastMintTime","inputs":[{"name":"","type":"address","internalType":"address"}],"outputs":[{"name":"","type":"uint256","internalType":"uint256"}],"stateMutability":"view"},{"type":"function","name":"mint","inputs":[{"name":"uri","type":"string","internalType":"string"}],"outputs":[],"stateMutability":"nonpayable"},{"type":"function","name":"mintInterval","inputs":[],"outputs":[{"name":"","type":"uint256","internalType":"uint256"}],"stateMutability":"view"},{"type":"function","name":"mintPrice","inputs":[],"outputs":[{"name":"","type":"uint256","internalType":"uint256"}],"stateMutability":"view"},{"type":"function","name":"mysteryBox","inputs":[],"outputs":[],"stateMutability":"payable"},{"type":"function","name":"name","inputs":[],"outputs":[{"name":"","type":"string","internalType":"string"}],"stateMutability":"view"},{"type":"function","name":"notRevealedUri","inputs":[],"outputs":[{"name":"","type":"string","internalType":"string"}],"stateMutability":"view"},{"type":"function","name":"owner","inputs":[],"outputs":[{"name":"","type":"address","internalType":"address"}],"stateMutability":"view"},{"type":"function","name":"ownerOf","inputs":[{"name":"tokenId","type":"uint256","internalType":"uint256"}],"outputs":[{"name":"","type":"address","internalType":"address"}],"stateMutability":"view"},{"type":"function","name":"renounceOwnership","inputs":[],"outputs":[],"stateMutability":"nonpayable"},{"type":"function","name":"safeTransferFrom","inputs":[{"name":"from","type":"address","internalType":"address"},{"name":"to","type":"address","internalType":"address"},{"name":"tokenId","type":"uint256","internalType":"uint256"}],"outputs":[],"stateMutability":"nonpayable"},{"type":"function","name":"safeTransferFrom","inputs":[{"name":"from","type":"address","internalType":"address"},{"name":"to","type":"address","internalType":"address"},{"name":"tokenId","type":"uint256","internalType":"uint256"},{"name":"data","type":"bytes","internalType":"bytes"}],"outputs":[],"stateMutability":"nonpayable"},{"type":"function","name":"saleEndTime","inputs":[],"outputs":[{"name":"","type":"uint256","internalType":"uint256"}],"stateMutability":"view"},{"type":"function","name":"setApprovalForAll","inputs":[{"name":"operator","type":"address","internalType":"address"},{"name":"approved","type":"bool","internalType":"bool"}],"outputs":[],"stateMutability":"nonpayable"},{"type":"function","name":"setMintPrice","inputs":[{"name":"_mintPrice","type":"uint256","internalType":"uint256"}],"outputs":[],"stateMutability":"nonpayable"},{"type":"function","name":"setNotRevealedURI","inputs":[{"name":"_notRevealedURI","type":"string","internalType":"string"}],"outputs":[],"stateMutability":"nonpayable"},{"type":"function","name":"startSale","inputs":[{"name":"duration","type":"uint256","internalType":"uint256"}],"outputs":[],"stateMutability":"nonpayable"},{"type":"function","name":"supportsInterface","inputs":[{"name":"interfaceId","type":"bytes4","internalType":"bytes4"}],"outputs":[{"name":"","type":"bool","internalType":"bool"}],"stateMutability":"view"},{"type":"function","name":"symbol","inputs":[],"outputs":[{"name":"","type":"string","internalType":"string"}],"stateMutability":"view"},{"type":"function","name":"token","inputs":[],"outputs":[{"name":"","type":"address","internalType":"contract IERC20"}],"stateMutability":"view"},{"type":"function","name":"tokenByIndex","inputs":[{"name":"index","type":"uint256","internalType":"uint256"}],"outputs":[{"name":"","type":"uint256","internalType":"uint256"}],"stateMutability":"view"},{"type":"function","name":"tokenLevels","inputs":[{"name":"","type":"uint256","internalType":"uint256"}],"outputs":[{"name":"","type":"uint256","internalType":"uint256"}],"stateMutability":"view"},{"type":"function","name":"tokenOfOwnerByIndex","inputs":[{"name":"owner","type":"address","internalType":"address"},{"name":"index","type":"uint256","internalType":"uint256"}],"outputs":[{"name":"","type":"uint256","internalType":"uint256"}],"stateMutability":"view"},{"type":"function","name":"tokenURI","inputs":[{"name":"tokenId","type":"uint256","internalType":"uint256"}],"outputs":[{"name":"","type":"string","internalType":"string"}],"stateMutability":"view"},{"type":"function","name":"totalSupply","inputs":[],"outputs":[{"name":"","type":"uint256","internalType":"uint256"}],"stateMutability":"view"},{"type":"function","name":"transferFrom","inputs":[{"name":"from","type":"address","internalType":"address"},{"name":"to","type":"address","internalType":"address"},{"name":"tokenId","type":"uint256","internalType":"uint256"}],"outputs":[],"stateMutability":"nonpayable"},{"type":"function","name":"transferOwnership","inputs":[{"name":"newOwner","type":"address","internalType":"address"}],"outputs":[],"stateMutability":"nonpayable"},{"type":"function","name":"updateOnlineMintTime","inputs":[{"name":"user","type":"address","internalType":"address"}],"outputs":[],"stateMutability":"nonpayable"},{"type":"function","name":"updateOutlineMintTime","inputs":[{"name":"user","type":"address","internalType":"address"}],"outputs":[],"stateMutability":"nonpayable"},{"type":"function","name":"withdraw","inputs":[],"outputs":[],"stateMutability":"nonpayable"},{"type":"event","name":"Approval","inputs":[{"name":"owner","type":"address","indexed":true,"internalType":"address"},{"name":"approved","type":"address","indexed":true,"internalType":"address"},{"name":"tokenId","type":"uint256","indexed":true,"internalType":"uint256"}],"anonymous":false},{"type":"event","name":"ApprovalForAll","inputs":[{"name":"owner","type":"address","indexed":true,"internalType":"address"},{"name":"operator","type":"address","indexed":true,"internalType":"address"},{"name":"approved","type":"bool","indexed":false,"internalType":"bool"}],"anonymous":false},{"type":"event","name":"Minted","inputs":[{"name":"user","type":"address","indexed":true,"internalType":"address"},{"name":"tokenId","type":"uint256","indexed":false,"internalType":"uint256"},{"name":"level","type":"uint256","indexed":false,"internalType":"uint256"}],"anonymous":false},{"type":"event","name":"OwnershipTransferred","inputs":[{"name":"previousOwner","type":"address","indexed":true,"internalType":"address"},{"name":"newOwner","type":"address","indexed":true,"internalType":"address"}],"anonymous":false},{"type":"event","name":"Transfer","inputs":[{"name":"from","type":"address","indexed":true,"internalType":"address"},{"name":"to","type":"address","indexed":true,"internalType":"address"},{"name":"tokenId","type":"uint256","indexed":true,"internalType":"uint256"}],"anonymous":false},{"type":"error","name":"ERC721EnumerableForbiddenBatchMint","inputs":[]},{"type":"error","name":"ERC721IncorrectOwner","inputs":[{"name":"sender","type":"address","internalType":"address"},{"name":"tokenId","type":"uint256","internalType":"uint256"},{"name":"owner","type":"address","internalType":"address"}]},{"type":"error","name":"ERC721InsufficientApproval","inputs":[{"name":"operator","type":"address","internalType":"address"},{"name":"tokenId","type":"uint256","internalType":"uint256"}]},{"type":"error","name":"ERC721InvalidApprover","inputs":[{"name":"approver","type":"address","internalType":"address"}]},{"type":"error","name":"ERC721InvalidOperator","inputs":[{"name":"operator","type":"address","internalType":"address"}]},{"type":"error","name":"ERC721InvalidOwner","inputs":[{"name":"owner","type":"address","internalType":"address"}]},{"type":"error","name":"ERC721InvalidReceiver","inputs":[{"name":"receiver","type":"address","internalType":"address"}]},{"type":"error","name":"ERC721InvalidSender","inputs":[{"name":"sender","type":"address","internalType":"address"}]},{"type":"error","name":"ERC721NonexistentToken","inputs":[{"name":"tokenId","type":"uint256","internalType":"uint256"}]},{"type":"error","name":"ERC721OutOfBoundsIndex","inputs":[{"name":"owner","type":"address","internalType":"address"},{"name":"index","type":"uint256","internalType":"uint256"}]},{"type":"error","name":"OwnableInvalidOwner","inputs":[{"name":"owner","type":"address","internalType":"address"}]},{"type":"error","name":"OwnableUnauthorizedAccount","inputs":[{"name":"account","type":"address","internalType":"address"}]}],"bytecode":{"object":"0x6080604052662386f26fc10000600d556010805461ffff1916905534801561002657600080fd5b506040516121bc3803806121bc83398101604081905261004591610158565b336040518060400160405280600981526020016810985b985b9853919560ba1b815250604051806040016040528060048152602001631093919560e21b81525081600090816100949190610234565b5060016100a18282610234565b5050506001600160a01b0381166100d257604051631e4fbdf760e01b81526000600482015260240160405180910390fd5b6100db81610106565b50600e91909155600c80546001600160a01b0319166001600160a01b039092169190911790556102f2565b600a80546001600160a01b038381166001600160a01b0319831681179093556040519116919082907f8be0079c531659141344cd1fd0a4f28419497f9722a3daafe3b4186f6b6457e090600090a35050565b6000806040838503121561016b57600080fd5b825160208401519092506001600160a01b038116811461018a57600080fd5b809150509250929050565b634e487b7160e01b600052604160045260246000fd5b600181811c908216806101bf57607f821691505b6020821081036101df57634e487b7160e01b600052602260045260246000fd5b50919050565b601f82111561022f57806000526020600020601f840160051c8101602085101561020c5750805b601f840160051c820191505b8181101561022c5760008155600101610218565b50505b505050565b81516001600160401b0381111561024d5761024d610195565b6102618161025b84546101ab565b846101e5565b6020601f821160018114610295576000831561027d5750848201515b600019600385901b1c1916600184901b17845561022c565b600084815260208120601f198516915b828110156102c557878501518255602094850194600190920191016102a5565b50848210156102e35786840151600019600387901b60f8161c191681555b50505050600190811b01905550565b611ebb806103016000396000f3fe6080604052600436106102455760003560e01c80636aa71d1811610139578063c8022f10116100b6578063e985e9c51161007a578063e985e9c514610682578063ed338ff1146106a2578063f2c4ce1e146106b8578063f2fde38b146106d8578063f4a0a528146106f8578063fc0c546a1461071857600080fd5b8063c8022f10146105e0578063c87b56dd14610600578063d85d3d2714610620578063de8b51e114610640578063e600d94d1461065557600080fd5b80638da5cb5b116100fd5780638da5cb5b1461056557806395d89b4114610583578063a22cb46514610598578063b88d4fde146105b8578063c38b761c146105d857600080fd5b80636aa71d18146104ca5780636ebeac85146104f75780637080d6fc1461051657806370a0823114610530578063715018a61461055057600080fd5b806318160ddd116101c75780633ccfd60b1161018b5780633ccfd60b1461043f57806342842e0e146104545780634f6ccce7146104745780636352211e146104945780636817c76c146104b457600080fd5b806318160ddd146103b557806323b872dd146103ca578063267de63d146103ea5780632f745c591461040a5780633b84d9c61461042a57600080fd5b8063081c8c441161020e578063081c8c4414610328578063095ea7b31461033d5780630bb78ec11461035f5780630e3ab61d1461037f5780630e726e6b1461039f57600080fd5b80629a9b7b1461024a57806301ffc9a71461026e57806303e691461461029e57806306fdde03146102ce578063081812fc146102f0575b600080fd5b34801561025657600080fd5b50600b545b6040519081526020015b60405180910390f35b34801561027a57600080fd5b5061028e610289366004611950565b610738565b6040519015158152602001610265565b3480156102aa57600080fd5b5061028e6102b9366004611990565b60166020526000908152604090205460ff1681565b3480156102da57600080fd5b506102e3610763565b60405161026591906119f1565b3480156102fc57600080fd5b5061031061030b366004611a04565b6107f5565b6040516001600160a01b039091168152602001610265565b34801561033457600080fd5b506102e361081e565b34801561034957600080fd5b5061035d610358366004611a1d565b6108ac565b005b34801561036b57600080fd5b506102e361037a366004611a04565b6108bb565b34801561038b57600080fd5b5061035d61039a366004611a04565b6108d4565b3480156103ab57600080fd5b5061025b600e5481565b3480156103c157600080fd5b5060085461025b565b3480156103d657600080fd5b5061035d6103e5366004611a47565b6108ec565b3480156103f657600080fd5b5061035d610405366004611990565b61097c565b34801561041657600080fd5b5061025b610425366004611a1d565b6109b2565b34801561043657600080fd5b5061035d610a17565b34801561044b57600080fd5b5061035d610a3c565b34801561046057600080fd5b5061035d61046f366004611a47565b610a80565b34801561048057600080fd5b5061025b61048f366004611a04565b610aa0565b3480156104a057600080fd5b506103106104af366004611a04565b610af9565b3480156104c057600080fd5b5061025b600d5481565b3480156104d657600080fd5b5061025b6104e5366004611990565b60146020526000908152604090205481565b34801561050357600080fd5b5060105461028e90610100900460ff1681565b34801561052257600080fd5b5060105461028e9060ff1681565b34801561053c57600080fd5b5061025b61054b366004611990565b610b04565b34801561055c57600080fd5b5061035d610b4c565b34801561057157600080fd5b50600a546001600160a01b0316610310565b34801561058f57600080fd5b506102e3610b60565b3480156105a457600080fd5b5061035d6105b3366004611a84565b610b6f565b3480156105c457600080fd5b5061035d6105d3366004611b50565b610b7a565b61035d610b91565b3480156105ec57600080fd5b5061035d6105fb366004611990565b610cdb565b34801561060c57600080fd5b506102e361061b366004611a04565b610d14565b34801561062c57600080fd5b5061035d61063b366004611bcc565b610dbf565b34801561064c57600080fd5b5061035d610f49565b34801561066157600080fd5b5061025b610670366004611a04565b60156020526000908152604090205481565b34801561068e57600080fd5b5061028e61069d366004611c15565b610f65565b3480156106ae57600080fd5b5061025b600f5481565b3480156106c457600080fd5b5061035d6106d3366004611bcc565b610f93565b3480156106e457600080fd5b5061035d6106f3366004611990565b610fa7565b34801561070457600080fd5b5061035d610713366004611a04565b610fe2565b34801561072457600080fd5b50600c54610310906001600160a01b031681565b60006001600160e01b0319821663780e9d6360e01b148061075d575061075d82610fef565b92915050565b60606000805461077290611c48565b80601f016020809104026020016040519081016040528092919081815260200182805461079e90611c48565b80156107eb5780601f106107c0576101008083540402835291602001916107eb565b820191906000526020600020905b8154815290600101906020018083116107ce57829003601f168201915b5050505050905090565b60006108008261103f565b506000828152600460205260409020546001600160a01b031661075d565b6012805461082b90611c48565b80601f016020809104026020016040519081016040528092919081815260200182805461085790611c48565b80156108a45780601f10610879576101008083540402835291602001916108a4565b820191906000526020600020905b81548152906001019060200180831161088757829003601f168201915b505050505081565b6108b7828233611078565b5050565b6013602052600090815260409020805461082b90611c48565b6108dc611085565b6108e68142611c98565b600f5550565b6001600160a01b03821661091b57604051633250574960e11b8152600060048201526024015b60405180910390fd5b60006109288383336110b2565b9050836001600160a01b0316816001600160a01b031614610976576040516364283d7b60e01b81526001600160a01b0380861660048301526024820184905282166044820152606401610912565b50505050565b610984611085565b6001600160a01b0316600090815260146020908152604080832042905560169091529020805460ff19169055565b60006109bd83610b04565b82106109ee5760405163295f44f760e21b81526001600160a01b038416600482015260248101839052604401610912565b506001600160a01b03919091166000908152600660209081526040808320938352929052205490565b610a1f611085565b6010805461ff001981166101009182900460ff1615909102179055565b610a44611085565b600a546040516001600160a01b03909116904780156108fc02916000818181858888f19350505050158015610a7d573d6000803e3d6000fd5b50565b610a9b83838360405180602001604052806000815250610b7a565b505050565b6000610aab60085490565b8210610ad45760405163295f44f760e21b81526000600482015260248101839052604401610912565b60088281548110610ae757610ae7611cab565b90600052602060002001549050919050565b600061075d8261103f565b60006001600160a01b038216610b30576040516322718ad960e21b815260006004820152602401610912565b506001600160a01b031660009081526003602052604090205490565b610b54611085565b610b5e6000611187565b565b60606001805461077290611c48565b6108b73383836111d9565b610b858484846108ec565b61097684848484611278565b60105460ff16610bd85760405162461bcd60e51b815260206004820152601260248201527153616c65206973206e6f742061637469766560701b6044820152606401610912565b600f544210610c165760405162461bcd60e51b815260206004820152600a60248201526914d85b1948195b99195960b21b6044820152606401610912565b600d543414610c5d5760405162461bcd60e51b8152602060048201526013602482015272496e636f7272656374204554482076616c756560681b6044820152606401610912565b600b60008154610c6c90611cc1565b90915550600b54610c7d33826113a1565b6000610c876113bb565b600083815260156020908152604091829020839055815185815290810183905291925033917f25b428dfde728ccfaddad7e29e4ac23c24ed7fd1a6e3e3f91894a9a073f5dfff910160405180910390a25050565b610ce3611085565b6001600160a01b0316600090815260146020908152604080832042905560169091529020805460ff19166001179055565b6060610d1f8261103f565b5060008281526013602052604081208054610d3990611c48565b80601f0160208091040260200160405190810160405280929190818152602001828054610d6590611c48565b8015610db25780601f10610d8757610100808354040283529160200191610db2565b820191906000526020600020905b815481529060010190602001808311610d9557829003601f168201915b5093979650505050505050565b600e5433600090815260146020526040902054610ddc9190611c98565b421015610e1c5760405162461bcd60e51b815260206004820152600e60248201526d49736e74206d696e742074696d6560901b6044820152606401610912565b3360009081526016602052604090205460ff16610e705760405162461bcd60e51b8152602060048201526012602482015271596f7520617265206e6f74206f6e6c696e6560701b6044820152606401610912565b600f544210610eae5760405162461bcd60e51b815260206004820152600a60248201526914d85b1948195b99195960b21b6044820152606401610912565b600b60008154610ebd90611cc1565b90915550600b54336000818152601460205260409020429055610ee090826113a1565b610eea8183611450565b6000610ef46113bb565b600083815260156020908152604091829020839055815185815290810183905291925033917f25b428dfde728ccfaddad7e29e4ac23c24ed7fd1a6e3e3f91894a9a073f5dfff910160405180910390a2505050565b610f51611085565b6010805460ff19811660ff90911615179055565b6001600160a01b03918216600090815260056020908152604080832093909416825291909152205460ff1690565b610f9b611085565b60126108b78282611d21565b610faf611085565b6001600160a01b038116610fd957604051631e4fbdf760e01b815260006004820152602401610912565b610a7d81611187565b610fea611085565b600d55565b60006001600160e01b031982166380ac58cd60e01b148061102057506001600160e01b03198216635b5e139f60e01b145b8061075d57506301ffc9a760e01b6001600160e01b031983161461075d565b6000818152600260205260408120546001600160a01b03168061075d57604051637e27328960e01b815260048101849052602401610912565b610a9b8383836001611468565b600a546001600160a01b03163314610b5e5760405163118cdaa760e01b8152336004820152602401610912565b6000806110c085858561156e565b90506001600160a01b03811661111d5761111884600880546000838152600960205260408120829055600182018355919091527ff3f7a9fe364faab93b216da50a3214154f22a0a2b415b23a84c8169e8b636ee30155565b611140565b846001600160a01b0316816001600160a01b031614611140576111408185611667565b6001600160a01b03851661115c57611157846116f8565b61117f565b846001600160a01b0316816001600160a01b03161461117f5761117f85856117a7565b949350505050565b600a80546001600160a01b038381166001600160a01b0319831681179093556040519116919082907f8be0079c531659141344cd1fd0a4f28419497f9722a3daafe3b4186f6b6457e090600090a35050565b6001600160a01b03821661120b57604051630b61174360e31b81526001600160a01b0383166004820152602401610912565b6001600160a01b03838116600081815260056020908152604080832094871680845294825291829020805460ff191686151590811790915591519182527f17307eab39ab6107e8899845ad3d59bd9653f200f220920489ca2b5937696c31910160405180910390a3505050565b6001600160a01b0383163b1561097657604051630a85bd0160e11b81526001600160a01b0384169063150b7a02906112ba903390889087908790600401611de0565b6020604051808303816000875af19250505080156112f5575060408051601f3d908101601f191682019092526112f291810190611e1d565b60015b61135e573d808015611323576040519150601f19603f3d011682016040523d82523d6000602084013e611328565b606091505b50805160000361135657604051633250574960e11b81526001600160a01b0385166004820152602401610912565b805181602001fd5b6001600160e01b03198116630a85bd0160e11b1461139a57604051633250574960e11b81526001600160a01b0385166004820152602401610912565b5050505050565b6108b78282604051806020016040528060008152506117f7565b6000804233600b546040516020016113f89392919092835260609190911b6bffffffffffffffffffffffff19166020830152603482015260540190565b60408051601f1981840301815291905280516020909101209050600561141f606483611e3a565b101561142d57600391505090565b601461143a606483611e3a565b101561144857600291505090565b600191505090565b6000828152601360205260409020610a9b8282611d21565b808061147c57506001600160a01b03821615155b1561153e57600061148c8461103f565b90506001600160a01b038316158015906114b85750826001600160a01b0316816001600160a01b031614155b80156114cb57506114c98184610f65565b155b156114f45760405163a9fbf51f60e01b81526001600160a01b0384166004820152602401610912565b811561153c5783856001600160a01b0316826001600160a01b03167f8c5be1e5ebec7d5bd14f71427d1e84f3dd0314c0f7b2291e5b200ac8c7c3b92560405160405180910390a45b505b5050600090815260046020526040902080546001600160a01b0319166001600160a01b0392909216919091179055565b6000828152600260205260408120546001600160a01b039081169083161561159b5761159b81848661180e565b6001600160a01b038116156115d9576115b8600085600080611468565b6001600160a01b038116600090815260036020526040902080546000190190555b6001600160a01b03851615611608576001600160a01b0385166000908152600360205260409020805460010190555b60008481526002602052604080822080546001600160a01b0319166001600160a01b0389811691821790925591518793918516917fddf252ad1be2c89b69c2b068fc378daa952ba7f163c4a11628f55a4df523b3ef91a4949350505050565b600061167283610b04565b6000838152600760205260409020549091508082146116c5576001600160a01b03841660009081526006602090815260408083208584528252808320548484528184208190558352600790915290208190555b5060009182526007602090815260408084208490556001600160a01b039094168352600681528383209183525290812055565b60085460009061170a90600190611e5c565b6000838152600960205260408120546008805493945090928490811061173257611732611cab565b90600052602060002001549050806008838154811061175357611753611cab565b600091825260208083209091019290925582815260099091526040808220849055858252812055600880548061178b5761178b611e6f565b6001900381819060005260206000200160009055905550505050565b600060016117b484610b04565b6117be9190611e5c565b6001600160a01b039093166000908152600660209081526040808320868452825280832085905593825260079052919091209190915550565b6118018383611872565b610a9b6000848484611278565b6118198383836118d7565b610a9b576001600160a01b03831661184757604051637e27328960e01b815260048101829052602401610912565b60405163177e802f60e01b81526001600160a01b038316600482015260248101829052604401610912565b6001600160a01b03821661189c57604051633250574960e11b815260006004820152602401610912565b60006118aa838360006110b2565b90506001600160a01b03811615610a9b576040516339e3563760e11b815260006004820152602401610912565b60006001600160a01b0383161580159061117f5750826001600160a01b0316846001600160a01b0316148061191157506119118484610f65565b8061117f5750506000908152600460205260409020546001600160a01b03908116911614919050565b6001600160e01b031981168114610a7d57600080fd5b60006020828403121561196257600080fd5b813561196d8161193a565b9392505050565b80356001600160a01b038116811461198b57600080fd5b919050565b6000602082840312156119a257600080fd5b61196d82611974565b6000815180845260005b818110156119d1576020818501810151868301820152016119b5565b506000602082860101526020601f19601f83011685010191505092915050565b60208152600061196d60208301846119ab565b600060208284031215611a1657600080fd5b5035919050565b60008060408385031215611a3057600080fd5b611a3983611974565b946020939093013593505050565b600080600060608486031215611a5c57600080fd5b611a6584611974565b9250611a7360208501611974565b929592945050506040919091013590565b60008060408385031215611a9757600080fd5b611aa083611974565b915060208301358015158114611ab557600080fd5b809150509250929050565b634e487b7160e01b600052604160045260246000fd5b60008067ffffffffffffffff841115611af157611af1611ac0565b50604051601f19601f85018116603f0116810181811067ffffffffffffffff82111715611b2057611b20611ac0565b604052838152905080828401851015611b3857600080fd5b83836020830137600060208583010152509392505050565b60008060008060808587031215611b6657600080fd5b611b6f85611974565b9350611b7d60208601611974565b925060408501359150606085013567ffffffffffffffff811115611ba057600080fd5b8501601f81018713611bb157600080fd5b611bc087823560208401611ad6565b91505092959194509250565b600060208284031215611bde57600080fd5b813567ffffffffffffffff811115611bf557600080fd5b8201601f81018413611c0657600080fd5b61117f84823560208401611ad6565b60008060408385031215611c2857600080fd5b611c3183611974565b9150611c3f60208401611974565b90509250929050565b600181811c90821680611c5c57607f821691505b602082108103611c7c57634e487b7160e01b600052602260045260246000fd5b50919050565b634e487b7160e01b600052601160045260246000fd5b8082018082111561075d5761075d611c82565b634e487b7160e01b600052603260045260246000fd5b600060018201611cd357611cd3611c82565b5060010190565b601f821115610a9b57806000526020600020601f840160051c81016020851015611d015750805b601f840160051c820191505b8181101561139a5760008155600101611d0d565b815167ffffffffffffffff811115611d3b57611d3b611ac0565b611d4f81611d498454611c48565b84611cda565b6020601f821160018114611d835760008315611d6b5750848201515b600019600385901b1c1916600184901b17845561139a565b600084815260208120601f198516915b82811015611db35787850151825560209485019460019092019101611d93565b5084821015611dd15786840151600019600387901b60f8161c191681555b50505050600190811b01905550565b6001600160a01b0385811682528416602082015260408101839052608060608201819052600090611e13908301846119ab565b9695505050505050565b600060208284031215611e2f57600080fd5b815161196d8161193a565b600082611e5757634e487b7160e01b600052601260045260246000fd5b500690565b8181038181111561075d5761075d611c82565b634e487b7160e01b600052603160045260246000fdfea2646970667358221220b4c3e4a29e1be1b14bd2826dffe7c68ad07f08e27bb924c53a75ef79e9f2377d64736f6c634300081a0033","linkReferences":{}},"methodIdentifiers":{"_isSaleActive()":"7080d6fc","_revealed()":"6ebeac85","_tokenURIs(uint256)":"0bb78ec1","approve(address,uint256)":"095ea7b3","balanceOf(address)":"70a08231","currentTokenId()":"009a9b7b","flipReveal()":"3b84d9c6","flipSaleActive()":"de8b51e1","getApproved(uint256)":"081812fc","isApprovedForAll(address,address)":"e985e9c5","isOnline(address)":"03e69146","lastMintTime(address)":"6aa71d18","mint(string)":"d85d3d27","mintInterval()":"0e726e6b","mintPrice()":"6817c76c","mysteryBox()":"c38b761c","name()":"06fdde03","notRevealedUri()":"081c8c44","owner()":"8da5cb5b","ownerOf(uint256)":"6352211e","renounceOwnership()":"715018a6","safeTransferFrom(address,address,uint256)":"42842e0e","safeTransferFrom(address,address,uint256,bytes)":"b88d4fde","saleEndTime()":"ed338ff1","setApprovalForAll(address,bool)":"a22cb465","setMintPrice(uint256)":"f4a0a528","setNotRevealedURI(string)":"f2c4ce1e","startSale(uint256)":"0e3ab61d","supportsInterface(bytes4)":"01ffc9a7","symbol()":"95d89b41","token()":"fc0c546a","tokenByIndex(uint256)":"4f6ccce7","tokenLevels(uint256)":"e600d94d","tokenOfOwnerByIndex(address,uint256)":"2f745c59","tokenURI(uint256)":"c87b56dd","totalSupply()":"18160ddd","transferFrom(address,address,uint256)":"23b872dd","transferOwnership(address)":"f2fde38b","updateOnlineMintTime(address)":"c8022f10","updateOutlineMintTime(address)":"267de63d","withdraw()":"3ccfd60b"},"id":1}