{"abi":[{"type":"constructor","inputs":[{"name":"_mintInterval","type":"uint256","internalType":"uint256"},{"name":"whitelistMintTime","type":"uint256","internalType":"uint256"},{"name":"_marketingWallet","type":"address","internalType":"address"}],"stateMutability":"nonpayable"},{"type":"function","name":"_isSaleActive","inputs":[],"outputs":[{"name":"","type":"bool","internalType":"bool"}],"stateMutability":"view"},{"type":"function","name":"_tokenURIs","inputs":[{"name":"tokenId","type":"uint256","internalType":"uint256"}],"outputs":[{"name":"","type":"string","internalType":"string"}],"stateMutability":"view"},{"type":"function","name":"addToWhitelist","inputs":[{"name":"user","type":"address","internalType":"address"}],"outputs":[],"stateMutability":"nonpayable"},{"type":"function","name":"approve","inputs":[{"name":"to","type":"address","internalType":"address"},{"name":"tokenId","type":"uint256","internalType":"uint256"}],"outputs":[],"stateMutability":"nonpayable"},{"type":"function","name":"balanceOf","inputs":[{"name":"owner","type":"address","internalType":"address"}],"outputs":[{"name":"","type":"uint256","internalType":"uint256"}],"stateMutability":"view"},{"type":"function","name":"currentTokenId","inputs":[],"outputs":[{"name":"","type":"uint256","internalType":"uint256"}],"stateMutability":"view"},{"type":"function","name":"endWhitelistMintTime","inputs":[],"outputs":[{"name":"","type":"uint256","internalType":"uint256"}],"stateMutability":"view"},{"type":"function","name":"flipSaleActive","inputs":[],"outputs":[],"stateMutability":"nonpayable"},{"type":"function","name":"getApproved","inputs":[{"name":"tokenId","type":"uint256","internalType":"uint256"}],"outputs":[{"name":"","type":"address","internalType":"address"}],"stateMutability":"view"},{"type":"function","name":"isApprovedForAll","inputs":[{"name":"owner","type":"address","internalType":"address"},{"name":"operator","type":"address","internalType":"address"}],"outputs":[{"name":"","type":"bool","internalType":"bool"}],"stateMutability":"view"},{"type":"function","name":"lastMintTime","inputs":[{"name":"","type":"address","internalType":"address"}],"outputs":[{"name":"","type":"uint256","internalType":"uint256"}],"stateMutability":"view"},{"type":"function","name":"mint","inputs":[{"name":"uri","type":"string","internalType":"string"}],"outputs":[],"stateMutability":"nonpayable"},{"type":"function","name":"mintInterval","inputs":[],"outputs":[{"name":"","type":"uint256","internalType":"uint256"}],"stateMutability":"view"},{"type":"function","name":"mintPrice","inputs":[],"outputs":[{"name":"","type":"uint256","internalType":"uint256"}],"stateMutability":"view"},{"type":"function","name":"name","inputs":[],"outputs":[{"name":"","type":"string","internalType":"string"}],"stateMutability":"view"},{"type":"function","name":"owner","inputs":[],"outputs":[{"name":"","type":"address","internalType":"address"}],"stateMutability":"view"},{"type":"function","name":"ownerOf","inputs":[{"name":"tokenId","type":"uint256","internalType":"uint256"}],"outputs":[{"name":"","type":"address","internalType":"address"}],"stateMutability":"view"},{"type":"function","name":"payToMint","inputs":[{"name":"uri","type":"string","internalType":"string"}],"outputs":[],"stateMutability":"payable"},{"type":"function","name":"renounceOwnership","inputs":[],"outputs":[],"stateMutability":"nonpayable"},{"type":"function","name":"safeTransferFrom","inputs":[{"name":"from","type":"address","internalType":"address"},{"name":"to","type":"address","internalType":"address"},{"name":"tokenId","type":"uint256","internalType":"uint256"}],"outputs":[],"stateMutability":"nonpayable"},{"type":"function","name":"safeTransferFrom","inputs":[{"name":"from","type":"address","internalType":"address"},{"name":"to","type":"address","internalType":"address"},{"name":"tokenId","type":"uint256","internalType":"uint256"},{"name":"data","type":"bytes","internalType":"bytes"}],"outputs":[],"stateMutability":"nonpayable"},{"type":"function","name":"setApprovalForAll","inputs":[{"name":"operator","type":"address","internalType":"address"},{"name":"approved","type":"bool","internalType":"bool"}],"outputs":[],"stateMutability":"nonpayable"},{"type":"function","name":"setMintInterval","inputs":[{"name":"_mintInterval","type":"uint256","internalType":"uint256"}],"outputs":[],"stateMutability":"nonpayable"},{"type":"function","name":"setMintPrice","inputs":[{"name":"_mintPrice","type":"uint256","internalType":"uint256"}],"outputs":[],"stateMutability":"nonpayable"},{"type":"function","name":"supportsInterface","inputs":[{"name":"interfaceId","type":"bytes4","internalType":"bytes4"}],"outputs":[{"name":"","type":"bool","internalType":"bool"}],"stateMutability":"view"},{"type":"function","name":"symbol","inputs":[],"outputs":[{"name":"","type":"string","internalType":"string"}],"stateMutability":"view"},{"type":"function","name":"tokenByIndex","inputs":[{"name":"index","type":"uint256","internalType":"uint256"}],"outputs":[{"name":"","type":"uint256","internalType":"uint256"}],"stateMutability":"view"},{"type":"function","name":"tokenOfOwnerByIndex","inputs":[{"name":"owner","type":"address","internalType":"address"},{"name":"index","type":"uint256","internalType":"uint256"}],"outputs":[{"name":"","type":"uint256","internalType":"uint256"}],"stateMutability":"view"},{"type":"function","name":"tokenURI","inputs":[{"name":"tokenId","type":"uint256","internalType":"uint256"}],"outputs":[{"name":"","type":"string","internalType":"string"}],"stateMutability":"view"},{"type":"function","name":"totalSupply","inputs":[],"outputs":[{"name":"","type":"uint256","internalType":"uint256"}],"stateMutability":"view"},{"type":"function","name":"transferFrom","inputs":[{"name":"from","type":"address","internalType":"address"},{"name":"to","type":"address","internalType":"address"},{"name":"tokenId","type":"uint256","internalType":"uint256"}],"outputs":[],"stateMutability":"nonpayable"},{"type":"function","name":"transferOwnership","inputs":[{"name":"newOwner","type":"address","internalType":"address"}],"outputs":[],"stateMutability":"nonpayable"},{"type":"function","name":"whitelist","inputs":[{"name":"","type":"address","internalType":"address"}],"outputs":[{"name":"","type":"bool","internalType":"bool"}],"stateMutability":"view"},{"type":"function","name":"withdraw","inputs":[],"outputs":[],"stateMutability":"nonpayable"},{"type":"event","name":"Approval","inputs":[{"name":"owner","type":"address","indexed":true,"internalType":"address"},{"name":"approved","type":"address","indexed":true,"internalType":"address"},{"name":"tokenId","type":"uint256","indexed":true,"internalType":"uint256"}],"anonymous":false},{"type":"event","name":"ApprovalForAll","inputs":[{"name":"owner","type":"address","indexed":true,"internalType":"address"},{"name":"operator","type":"address","indexed":true,"internalType":"address"},{"name":"approved","type":"bool","indexed":false,"internalType":"bool"}],"anonymous":false},{"type":"event","name":"Minted","inputs":[{"name":"user","type":"address","indexed":true,"internalType":"address"},{"name":"tokenId","type":"uint256","indexed":false,"internalType":"uint256"}],"anonymous":false},{"type":"event","name":"OwnershipTransferred","inputs":[{"name":"previousOwner","type":"address","indexed":true,"internalType":"address"},{"name":"newOwner","type":"address","indexed":true,"internalType":"address"}],"anonymous":false},{"type":"event","name":"Transfer","inputs":[{"name":"from","type":"address","indexed":true,"internalType":"address"},{"name":"to","type":"address","indexed":true,"internalType":"address"},{"name":"tokenId","type":"uint256","indexed":true,"internalType":"uint256"}],"anonymous":false},{"type":"error","name":"ERC721EnumerableForbiddenBatchMint","inputs":[]},{"type":"error","name":"ERC721IncorrectOwner","inputs":[{"name":"sender","type":"address","internalType":"address"},{"name":"tokenId","type":"uint256","internalType":"uint256"},{"name":"owner","type":"address","internalType":"address"}]},{"type":"error","name":"ERC721InsufficientApproval","inputs":[{"name":"operator","type":"address","internalType":"address"},{"name":"tokenId","type":"uint256","internalType":"uint256"}]},{"type":"error","name":"ERC721InvalidApprover","inputs":[{"name":"approver","type":"address","internalType":"address"}]},{"type":"error","name":"ERC721InvalidOperator","inputs":[{"name":"operator","type":"address","internalType":"address"}]},{"type":"error","name":"ERC721InvalidOwner","inputs":[{"name":"owner","type":"address","internalType":"address"}]},{"type":"error","name":"ERC721InvalidReceiver","inputs":[{"name":"receiver","type":"address","internalType":"address"}]},{"type":"error","name":"ERC721InvalidSender","inputs":[{"name":"sender","type":"address","internalType":"address"}]},{"type":"error","name":"ERC721NonexistentToken","inputs":[{"name":"tokenId","type":"uint256","internalType":"uint256"}]},{"type":"error","name":"ERC721OutOfBoundsIndex","inputs":[{"name":"owner","type":"address","internalType":"address"},{"name":"index","type":"uint256","internalType":"uint256"}]},{"type":"error","name":"OwnableInvalidOwner","inputs":[{"name":"owner","type":"address","internalType":"address"}]},{"type":"error","name":"OwnableUnauthorizedAccount","inputs":[{"name":"account","type":"address","internalType":"address"}]},{"type":"error","name":"ReentrancyGuardReentrantCall","inputs":[]}],"bytecode":{"object":"0x6080604052666a94d74f430000600c5534801561001b57600080fd5b5060405161200238038061200283398101604081905261003a91610162565b336040518060400160405280600981526020016810985b985b9853919560ba1b815250604051806040016040528060048152602001631093919560e21b81525081600090816100899190610247565b5060016100968282610247565b50506001600a55506001600160a01b0381166100cc57604051631e4fbdf760e01b81526000600482015260240160405180910390fd5b6100d581610110565b50600d8390556100e58242610305565b600e55601180546001600160a01b0319166001600160a01b03929092169190911790555061032c9050565b600b80546001600160a01b038381166001600160a01b0319831681179093556040519116919082907f8be0079c531659141344cd1fd0a4f28419497f9722a3daafe3b4186f6b6457e090600090a35050565b60008060006060848603121561017757600080fd5b83516020850151604086015191945092506001600160a01b038116811461019d57600080fd5b809150509250925092565b634e487b7160e01b600052604160045260246000fd5b600181811c908216806101d257607f821691505b6020821081036101f257634e487b7160e01b600052602260045260246000fd5b50919050565b601f82111561024257806000526020600020601f840160051c8101602085101561021f5750805b601f840160051c820191505b8181101561023f576000815560010161022b565b50505b505050565b81516001600160401b03811115610260576102606101a8565b6102748161026e84546101be565b846101f8565b6020601f8211600181146102a857600083156102905750848201515b600019600385901b1c1916600184901b17845561023f565b600084815260208120601f198516915b828110156102d857878501518255602094850194600190920191016102b8565b50848210156102f65786840151600019600387901b60f8161c191681555b50505050600190811b01905550565b8082018082111561032657634e487b7160e01b600052601160045260246000fd5b92915050565b611cc78061033b6000396000f3fe6080604052600436106101f85760003560e01c80636aa71d181161010d578063b88d4fde116100a0578063de8b51e11161006f578063de8b51e11461058b578063e43252d7146105a0578063e985e9c5146105c0578063f2fde38b146105e0578063f4a0a5281461060057600080fd5b8063b88d4fde1461050b578063c87b56dd1461052b578063cada2a181461054b578063d85d3d271461056b57600080fd5b80638da5cb5b116100dc5780638da5cb5b1461048857806395d89b41146104a65780639b19251a146104bb578063a22cb465146104eb57600080fd5b80636aa71d181461040c5780637080d6fc1461043957806370a0823114610453578063715018a61461047357600080fd5b8063232e623e1161019057806342842e0e1161015f57806342842e0e146103835780634f6ccce7146103a3578063537efe31146103c35780636352211e146103d65780636817c76c146103f657600080fd5b8063232e623e1461031857806323b872dd1461032e5780632f745c591461034e5780633ccfd60b1461036e57600080fd5b8063095ea7b3116101cc578063095ea7b3146102ab5780630bb78ec1146102cd5780630e726e6b146102ed57806318160ddd1461030357600080fd5b80629a9b7b146101fd57806301ffc9a71461022157806306fdde0314610251578063081812fc14610273575b600080fd5b34801561020957600080fd5b506010545b6040519081526020015b60405180910390f35b34801561022d57600080fd5b5061024161023c36600461177e565b610620565b6040519015158152602001610218565b34801561025d57600080fd5b5061026661064b565b60405161021891906117e8565b34801561027f57600080fd5b5061029361028e3660046117fb565b6106dd565b6040516001600160a01b039091168152602001610218565b3480156102b757600080fd5b506102cb6102c6366004611830565b610706565b005b3480156102d957600080fd5b506102666102e83660046117fb565b610715565b3480156102f957600080fd5b5061020e600d5481565b34801561030f57600080fd5b5060085461020e565b34801561032457600080fd5b5061020e600e5481565b34801561033a57600080fd5b506102cb61034936600461185a565b6107af565b34801561035a57600080fd5b5061020e610369366004611830565b61083f565b34801561037a57600080fd5b506102cb6108a4565b34801561038f57600080fd5b506102cb61039e36600461185a565b6108e8565b3480156103af57600080fd5b5061020e6103be3660046117fb565b610908565b6102cb6103d1366004611927565b610961565b3480156103e257600080fd5b506102936103f13660046117fb565b610b2b565b34801561040257600080fd5b5061020e600c5481565b34801561041857600080fd5b5061020e610427366004611970565b60146020526000908152604090205481565b34801561044557600080fd5b50600f546102419060ff1681565b34801561045f57600080fd5b5061020e61046e366004611970565b610b36565b34801561047f57600080fd5b506102cb610b7e565b34801561049457600080fd5b50600b546001600160a01b0316610293565b3480156104b257600080fd5b50610266610b92565b3480156104c757600080fd5b506102416104d6366004611970565b60136020526000908152604090205460ff1681565b3480156104f757600080fd5b506102cb61050636600461198b565b610ba1565b34801561051757600080fd5b506102cb6105263660046119c7565b610bac565b34801561053757600080fd5b506102666105463660046117fb565b610bc3565b34801561055757600080fd5b506102cb6105663660046117fb565b610c6e565b34801561057757600080fd5b506102cb610586366004611927565b610c7b565b34801561059757600080fd5b506102cb610dca565b3480156105ac57600080fd5b506102cb6105bb366004611970565b610de6565b3480156105cc57600080fd5b506102416105db366004611a43565b610e12565b3480156105ec57600080fd5b506102cb6105fb366004611970565b610e40565b34801561060c57600080fd5b506102cb61061b3660046117fb565b610e7b565b60006001600160e01b0319821663780e9d6360e01b1480610645575061064582610e88565b92915050565b60606000805461065a90611a76565b80601f016020809104026020016040519081016040528092919081815260200182805461068690611a76565b80156106d35780601f106106a8576101008083540402835291602001916106d3565b820191906000526020600020905b8154815290600101906020018083116106b657829003601f168201915b5050505050905090565b60006106e882610ed8565b506000828152600460205260409020546001600160a01b0316610645565b610711828233610f11565b5050565b6012602052600090815260409020805461072e90611a76565b80601f016020809104026020016040519081016040528092919081815260200182805461075a90611a76565b80156107a75780601f1061077c576101008083540402835291602001916107a7565b820191906000526020600020905b81548152906001019060200180831161078a57829003601f168201915b505050505081565b6001600160a01b0382166107de57604051633250574960e11b8152600060048201526024015b60405180910390fd5b60006107eb838333610f1e565b9050836001600160a01b0316816001600160a01b031614610839576040516364283d7b60e01b81526001600160a01b03808616600483015260248201849052821660448201526064016107d5565b50505050565b600061084a83610b36565b821061087b5760405163295f44f760e21b81526001600160a01b0384166004820152602481018390526044016107d5565b506001600160a01b03919091166000908152600660209081526040808320938352929052205490565b6108ac610ff3565b6011546040516001600160a01b03909116904780156108fc02916000818181858888f193505050501580156108e5573d6000803e3d6000fd5b50565b61090383838360405180602001604052806000815250610bac565b505050565b600061091360085490565b821061093c5760405163295f44f760e21b815260006004820152602481018390526044016107d5565b6008828154811061094f5761094f611ab0565b90600052602060002001549050919050565b610969611020565b600f5460ff166109b05760405162461bcd60e51b815260206004820152601260248201527153616c65206973206e6f742061637469766560701b60448201526064016107d5565b600c5434146109f75760405162461bcd60e51b8152602060048201526013602482015272496e636f7272656374204554482076616c756560681b60448201526064016107d5565b601060008154610a0690611adc565b909155506010546011546040516000916001600160a01b03169034908381818185875af1925050503d8060008114610a5a576040519150601f19603f3d011682016040523d82523d6000602084013e610a5f565b606091505b5050905080610ad65760405162461bcd60e51b815260206004820152603a60248201527f416464726573733a20756e61626c6520746f2073656e642076616c75652c207260448201527f6563697069656e74206d6179206861766520726576657274656400000000000060648201526084016107d5565b610ae0338361104a565b610aea8284611064565b60405182815233907f30385c845b448a36257a6a1716e6ad2e1bc2cbe333cde1e69fe849ad6511adfe9060200160405180910390a250506108e56001600a55565b600061064582610ed8565b60006001600160a01b038216610b62576040516322718ad960e21b8152600060048201526024016107d5565b506001600160a01b031660009081526003602052604090205490565b610b86610ff3565b610b90600061107c565b565b60606001805461065a90611a76565b6107113383836110ce565b610bb78484846107af565b6108398484848461116d565b6060610bce82610ed8565b5060008281526012602052604081208054610be890611a76565b80601f0160208091040260200160405190810160405280929190818152602001828054610c1490611a76565b8015610c615780601f10610c3657610100808354040283529160200191610c61565b820191906000526020600020905b815481529060010190602001808311610c4457829003601f168201915b5093979650505050505050565b610c76610ff3565b600d55565b610c83611020565b600d5433600090815260146020526040902054610ca09190611af5565b421015610ce55760405162461bcd60e51b81526020600482015260136024820152724e6f74207265616368206d696e742074696d6560681b60448201526064016107d5565b600e54421015610d4e573360009081526013602052604090205460ff16610d4e5760405162461bcd60e51b815260206004820152601c60248201527f4f6e6c792077686974656c69737420757365722063616e206d696e740000000060448201526064016107d5565b601060008154610d5d90611adc565b90915550601054336000818152601460205260409020429055610d80908261104a565b610d8a8183611064565b60405181815233907f30385c845b448a36257a6a1716e6ad2e1bc2cbe333cde1e69fe849ad6511adfe9060200160405180910390a2506108e56001600a55565b610dd2610ff3565b600f805460ff19811660ff90911615179055565b610dee610ff3565b6001600160a01b03166000908152601360205260409020805460ff19166001179055565b6001600160a01b03918216600090815260056020908152604080832093909416825291909152205460ff1690565b610e48610ff3565b6001600160a01b038116610e7257604051631e4fbdf760e01b8152600060048201526024016107d5565b6108e58161107c565b610e83610ff3565b600c55565b60006001600160e01b031982166380ac58cd60e01b1480610eb957506001600160e01b03198216635b5e139f60e01b145b8061064557506301ffc9a760e01b6001600160e01b0319831614610645565b6000818152600260205260408120546001600160a01b03168061064557604051637e27328960e01b8152600481018490526024016107d5565b6109038383836001611296565b600080610f2c85858561139c565b90506001600160a01b038116610f8957610f8484600880546000838152600960205260408120829055600182018355919091527ff3f7a9fe364faab93b216da50a3214154f22a0a2b415b23a84c8169e8b636ee30155565b610fac565b846001600160a01b0316816001600160a01b031614610fac57610fac8185611495565b6001600160a01b038516610fc857610fc384611526565b610feb565b846001600160a01b0316816001600160a01b031614610feb57610feb85856115d5565b949350505050565b600b546001600160a01b03163314610b905760405163118cdaa760e01b81523360048201526024016107d5565b6002600a540361104357604051633ee5aeb560e01b815260040160405180910390fd5b6002600a55565b610711828260405180602001604052806000815250611625565b60008281526012602052604090206109038282611b4f565b600b80546001600160a01b038381166001600160a01b0319831681179093556040519116919082907f8be0079c531659141344cd1fd0a4f28419497f9722a3daafe3b4186f6b6457e090600090a35050565b6001600160a01b03821661110057604051630b61174360e31b81526001600160a01b03831660048201526024016107d5565b6001600160a01b03838116600081815260056020908152604080832094871680845294825291829020805460ff191686151590811790915591519182527f17307eab39ab6107e8899845ad3d59bd9653f200f220920489ca2b5937696c31910160405180910390a3505050565b6001600160a01b0383163b1561083957604051630a85bd0160e11b81526001600160a01b0384169063150b7a02906111af903390889087908790600401611c0e565b6020604051808303816000875af19250505080156111ea575060408051601f3d908101601f191682019092526111e791810190611c4b565b60015b611253573d808015611218576040519150601f19603f3d011682016040523d82523d6000602084013e61121d565b606091505b50805160000361124b57604051633250574960e11b81526001600160a01b03851660048201526024016107d5565b805181602001fd5b6001600160e01b03198116630a85bd0160e11b1461128f57604051633250574960e11b81526001600160a01b03851660048201526024016107d5565b5050505050565b80806112aa57506001600160a01b03821615155b1561136c5760006112ba84610ed8565b90506001600160a01b038316158015906112e65750826001600160a01b0316816001600160a01b031614155b80156112f957506112f78184610e12565b155b156113225760405163a9fbf51f60e01b81526001600160a01b03841660048201526024016107d5565b811561136a5783856001600160a01b0316826001600160a01b03167f8c5be1e5ebec7d5bd14f71427d1e84f3dd0314c0f7b2291e5b200ac8c7c3b92560405160405180910390a45b505b5050600090815260046020526040902080546001600160a01b0319166001600160a01b0392909216919091179055565b6000828152600260205260408120546001600160a01b03908116908316156113c9576113c981848661163c565b6001600160a01b03811615611407576113e6600085600080611296565b6001600160a01b038116600090815260036020526040902080546000190190555b6001600160a01b03851615611436576001600160a01b0385166000908152600360205260409020805460010190555b60008481526002602052604080822080546001600160a01b0319166001600160a01b0389811691821790925591518793918516917fddf252ad1be2c89b69c2b068fc378daa952ba7f163c4a11628f55a4df523b3ef91a4949350505050565b60006114a083610b36565b6000838152600760205260409020549091508082146114f3576001600160a01b03841660009081526006602090815260408083208584528252808320548484528184208190558352600790915290208190555b5060009182526007602090815260408084208490556001600160a01b039094168352600681528383209183525290812055565b60085460009061153890600190611c68565b6000838152600960205260408120546008805493945090928490811061156057611560611ab0565b90600052602060002001549050806008838154811061158157611581611ab0565b60009182526020808320909101929092558281526009909152604080822084905585825281205560088054806115b9576115b9611c7b565b6001900381819060005260206000200160009055905550505050565b600060016115e284610b36565b6115ec9190611c68565b6001600160a01b039093166000908152600660209081526040808320868452825280832085905593825260079052919091209190915550565b61162f83836116a0565b610903600084848461116d565b611647838383611705565b610903576001600160a01b03831661167557604051637e27328960e01b8152600481018290526024016107d5565b60405163177e802f60e01b81526001600160a01b0383166004820152602481018290526044016107d5565b6001600160a01b0382166116ca57604051633250574960e11b8152600060048201526024016107d5565b60006116d883836000610f1e565b90506001600160a01b03811615610903576040516339e3563760e11b8152600060048201526024016107d5565b60006001600160a01b03831615801590610feb5750826001600160a01b0316846001600160a01b0316148061173f575061173f8484610e12565b80610feb5750506000908152600460205260409020546001600160a01b03908116911614919050565b6001600160e01b0319811681146108e557600080fd5b60006020828403121561179057600080fd5b813561179b81611768565b9392505050565b6000815180845260005b818110156117c8576020818501810151868301820152016117ac565b506000602082860101526020601f19601f83011685010191505092915050565b60208152600061179b60208301846117a2565b60006020828403121561180d57600080fd5b5035919050565b80356001600160a01b038116811461182b57600080fd5b919050565b6000806040838503121561184357600080fd5b61184c83611814565b946020939093013593505050565b60008060006060848603121561186f57600080fd5b61187884611814565b925061188660208501611814565b929592945050506040919091013590565b634e487b7160e01b600052604160045260246000fd5b60008067ffffffffffffffff8411156118c8576118c8611897565b50604051601f19601f85018116603f0116810181811067ffffffffffffffff821117156118f7576118f7611897565b60405283815290508082840185101561190f57600080fd5b83836020830137600060208583010152509392505050565b60006020828403121561193957600080fd5b813567ffffffffffffffff81111561195057600080fd5b8201601f8101841361196157600080fd5b610feb848235602084016118ad565b60006020828403121561198257600080fd5b61179b82611814565b6000806040838503121561199e57600080fd5b6119a783611814565b9150602083013580151581146119bc57600080fd5b809150509250929050565b600080600080608085870312156119dd57600080fd5b6119e685611814565b93506119f460208601611814565b925060408501359150606085013567ffffffffffffffff811115611a1757600080fd5b8501601f81018713611a2857600080fd5b611a37878235602084016118ad565b91505092959194509250565b60008060408385031215611a5657600080fd5b611a5f83611814565b9150611a6d60208401611814565b90509250929050565b600181811c90821680611a8a57607f821691505b602082108103611aaa57634e487b7160e01b600052602260045260246000fd5b50919050565b634e487b7160e01b600052603260045260246000fd5b634e487b7160e01b600052601160045260246000fd5b600060018201611aee57611aee611ac6565b5060010190565b8082018082111561064557610645611ac6565b601f82111561090357806000526020600020601f840160051c81016020851015611b2f5750805b601f840160051c820191505b8181101561128f5760008155600101611b3b565b815167ffffffffffffffff811115611b6957611b69611897565b611b7d81611b778454611a76565b84611b08565b6020601f821160018114611bb15760008315611b995750848201515b600019600385901b1c1916600184901b17845561128f565b600084815260208120601f198516915b82811015611be15787850151825560209485019460019092019101611bc1565b5084821015611bff5786840151600019600387901b60f8161c191681555b50505050600190811b01905550565b6001600160a01b0385811682528416602082015260408101839052608060608201819052600090611c41908301846117a2565b9695505050505050565b600060208284031215611c5d57600080fd5b815161179b81611768565b8181038181111561064557610645611ac6565b634e487b7160e01b600052603160045260246000fdfea26469706673582212206a23dede75f7893e689fc2e8f24694e7c45099ed93591e349008cd5e4bc5690564736f6c634300081a0033","linkReferences":{}},"methodIdentifiers":{"_isSaleActive()":"7080d6fc","_tokenURIs(uint256)":"0bb78ec1","addToWhitelist(address)":"e43252d7","approve(address,uint256)":"095ea7b3","balanceOf(address)":"70a08231","currentTokenId()":"009a9b7b","endWhitelistMintTime()":"232e623e","flipSaleActive()":"de8b51e1","getApproved(uint256)":"081812fc","isApprovedForAll(address,address)":"e985e9c5","lastMintTime(address)":"6aa71d18","mint(string)":"d85d3d27","mintInterval()":"0e726e6b","mintPrice()":"6817c76c","name()":"06fdde03","owner()":"8da5cb5b","ownerOf(uint256)":"6352211e","payToMint(string)":"537efe31","renounceOwnership()":"715018a6","safeTransferFrom(address,address,uint256)":"42842e0e","safeTransferFrom(address,address,uint256,bytes)":"b88d4fde","setApprovalForAll(address,bool)":"a22cb465","setMintInterval(uint256)":"cada2a18","setMintPrice(uint256)":"f4a0a528","supportsInterface(bytes4)":"01ffc9a7","symbol()":"95d89b41","tokenByIndex(uint256)":"4f6ccce7","tokenOfOwnerByIndex(address,uint256)":"2f745c59","tokenURI(uint256)":"c87b56dd","totalSupply()":"18160ddd","transferFrom(address,address,uint256)":"23b872dd","transferOwnership(address)":"f2fde38b","whitelist(address)":"9b19251a","withdraw()":"3ccfd60b"},"id":2}