{"abi":[{"type":"constructor","inputs":[{"name":"_mintInterval","type":"uint256","internalType":"uint256"},{"name":"_token","type":"address","internalType":"contract IERC20"},{"name":"whitelistMintTime","type":"uint256","internalType":"uint256"},{"name":"_marketingWallet","type":"address","internalType":"address"}],"stateMutability":"nonpayable"},{"type":"function","name":"_isSaleActive","inputs":[],"outputs":[{"name":"","type":"bool","internalType":"bool"}],"stateMutability":"view"},{"type":"function","name":"_tokenURIs","inputs":[{"name":"tokenId","type":"uint256","internalType":"uint256"}],"outputs":[{"name":"","type":"string","internalType":"string"}],"stateMutability":"view"},{"type":"function","name":"addToWhitelsit","inputs":[{"name":"user","type":"address","internalType":"address"}],"outputs":[],"stateMutability":"nonpayable"},{"type":"function","name":"approve","inputs":[{"name":"to","type":"address","internalType":"address"},{"name":"tokenId","type":"uint256","internalType":"uint256"}],"outputs":[],"stateMutability":"nonpayable"},{"type":"function","name":"balanceOf","inputs":[{"name":"owner","type":"address","internalType":"address"}],"outputs":[{"name":"","type":"uint256","internalType":"uint256"}],"stateMutability":"view"},{"type":"function","name":"currentTokenId","inputs":[],"outputs":[{"name":"","type":"uint256","internalType":"uint256"}],"stateMutability":"view"},{"type":"function","name":"endWhitelistMintTime","inputs":[],"outputs":[{"name":"","type":"uint256","internalType":"uint256"}],"stateMutability":"view"},{"type":"function","name":"flipSaleActive","inputs":[],"outputs":[],"stateMutability":"nonpayable"},{"type":"function","name":"getApproved","inputs":[{"name":"tokenId","type":"uint256","internalType":"uint256"}],"outputs":[{"name":"","type":"address","internalType":"address"}],"stateMutability":"view"},{"type":"function","name":"isApprovedForAll","inputs":[{"name":"owner","type":"address","internalType":"address"},{"name":"operator","type":"address","internalType":"address"}],"outputs":[{"name":"","type":"bool","internalType":"bool"}],"stateMutability":"view"},{"type":"function","name":"judgeMint","inputs":[],"outputs":[{"name":"nextMintTime","type":"uint256","internalType":"uint256"}],"stateMutability":"view"},{"type":"function","name":"lastMintTime","inputs":[{"name":"","type":"address","internalType":"address"}],"outputs":[{"name":"","type":"uint256","internalType":"uint256"}],"stateMutability":"view"},{"type":"function","name":"mint","inputs":[{"name":"uri","type":"string","internalType":"string"}],"outputs":[{"name":"","type":"uint256","internalType":"uint256"}],"stateMutability":"nonpayable"},{"type":"function","name":"mintInterval","inputs":[],"outputs":[{"name":"","type":"uint256","internalType":"uint256"}],"stateMutability":"view"},{"type":"function","name":"mintPrice","inputs":[],"outputs":[{"name":"","type":"uint256","internalType":"uint256"}],"stateMutability":"view"},{"type":"function","name":"name","inputs":[],"outputs":[{"name":"","type":"string","internalType":"string"}],"stateMutability":"view"},{"type":"function","name":"owner","inputs":[],"outputs":[{"name":"","type":"address","internalType":"address"}],"stateMutability":"view"},{"type":"function","name":"ownerOf","inputs":[{"name":"tokenId","type":"uint256","internalType":"uint256"}],"outputs":[{"name":"","type":"address","internalType":"address"}],"stateMutability":"view"},{"type":"function","name":"payToMint","inputs":[{"name":"uri","type":"string","internalType":"string"}],"outputs":[{"name":"","type":"uint256","internalType":"uint256"}],"stateMutability":"payable"},{"type":"function","name":"renounceOwnership","inputs":[],"outputs":[],"stateMutability":"nonpayable"},{"type":"function","name":"safeTransferFrom","inputs":[{"name":"from","type":"address","internalType":"address"},{"name":"to","type":"address","internalType":"address"},{"name":"tokenId","type":"uint256","internalType":"uint256"}],"outputs":[],"stateMutability":"nonpayable"},{"type":"function","name":"safeTransferFrom","inputs":[{"name":"from","type":"address","internalType":"address"},{"name":"to","type":"address","internalType":"address"},{"name":"tokenId","type":"uint256","internalType":"uint256"},{"name":"data","type":"bytes","internalType":"bytes"}],"outputs":[],"stateMutability":"nonpayable"},{"type":"function","name":"setApprovalForAll","inputs":[{"name":"operator","type":"address","internalType":"address"},{"name":"approved","type":"bool","internalType":"bool"}],"outputs":[],"stateMutability":"nonpayable"},{"type":"function","name":"setMintInterval","inputs":[{"name":"_mintInterval","type":"uint256","internalType":"uint256"}],"outputs":[],"stateMutability":"nonpayable"},{"type":"function","name":"setMintPrice","inputs":[{"name":"_mintPrice","type":"uint256","internalType":"uint256"}],"outputs":[],"stateMutability":"nonpayable"},{"type":"function","name":"supportsInterface","inputs":[{"name":"interfaceId","type":"bytes4","internalType":"bytes4"}],"outputs":[{"name":"","type":"bool","internalType":"bool"}],"stateMutability":"view"},{"type":"function","name":"symbol","inputs":[],"outputs":[{"name":"","type":"string","internalType":"string"}],"stateMutability":"view"},{"type":"function","name":"token","inputs":[],"outputs":[{"name":"","type":"address","internalType":"contract IERC20"}],"stateMutability":"view"},{"type":"function","name":"tokenByIndex","inputs":[{"name":"index","type":"uint256","internalType":"uint256"}],"outputs":[{"name":"","type":"uint256","internalType":"uint256"}],"stateMutability":"view"},{"type":"function","name":"tokenOfOwnerByIndex","inputs":[{"name":"owner","type":"address","internalType":"address"},{"name":"index","type":"uint256","internalType":"uint256"}],"outputs":[{"name":"","type":"uint256","internalType":"uint256"}],"stateMutability":"view"},{"type":"function","name":"tokenURI","inputs":[{"name":"tokenId","type":"uint256","internalType":"uint256"}],"outputs":[{"name":"","type":"string","internalType":"string"}],"stateMutability":"view"},{"type":"function","name":"totalSupply","inputs":[],"outputs":[{"name":"","type":"uint256","internalType":"uint256"}],"stateMutability":"view"},{"type":"function","name":"transferFrom","inputs":[{"name":"from","type":"address","internalType":"address"},{"name":"to","type":"address","internalType":"address"},{"name":"tokenId","type":"uint256","internalType":"uint256"}],"outputs":[],"stateMutability":"nonpayable"},{"type":"function","name":"transferOwnership","inputs":[{"name":"newOwner","type":"address","internalType":"address"}],"outputs":[],"stateMutability":"nonpayable"},{"type":"function","name":"withdraw","inputs":[],"outputs":[],"stateMutability":"nonpayable"},{"type":"event","name":"Approval","inputs":[{"name":"owner","type":"address","indexed":true,"internalType":"address"},{"name":"approved","type":"address","indexed":true,"internalType":"address"},{"name":"tokenId","type":"uint256","indexed":true,"internalType":"uint256"}],"anonymous":false},{"type":"event","name":"ApprovalForAll","inputs":[{"name":"owner","type":"address","indexed":true,"internalType":"address"},{"name":"operator","type":"address","indexed":true,"internalType":"address"},{"name":"approved","type":"bool","indexed":false,"internalType":"bool"}],"anonymous":false},{"type":"event","name":"Minted","inputs":[{"name":"user","type":"address","indexed":true,"internalType":"address"},{"name":"tokenId","type":"uint256","indexed":false,"internalType":"uint256"}],"anonymous":false},{"type":"event","name":"OwnershipTransferred","inputs":[{"name":"previousOwner","type":"address","indexed":true,"internalType":"address"},{"name":"newOwner","type":"address","indexed":true,"internalType":"address"}],"anonymous":false},{"type":"event","name":"Transfer","inputs":[{"name":"from","type":"address","indexed":true,"internalType":"address"},{"name":"to","type":"address","indexed":true,"internalType":"address"},{"name":"tokenId","type":"uint256","indexed":true,"internalType":"uint256"}],"anonymous":false},{"type":"error","name":"ERC721EnumerableForbiddenBatchMint","inputs":[]},{"type":"error","name":"ERC721IncorrectOwner","inputs":[{"name":"sender","type":"address","internalType":"address"},{"name":"tokenId","type":"uint256","internalType":"uint256"},{"name":"owner","type":"address","internalType":"address"}]},{"type":"error","name":"ERC721InsufficientApproval","inputs":[{"name":"operator","type":"address","internalType":"address"},{"name":"tokenId","type":"uint256","internalType":"uint256"}]},{"type":"error","name":"ERC721InvalidApprover","inputs":[{"name":"approver","type":"address","internalType":"address"}]},{"type":"error","name":"ERC721InvalidOperator","inputs":[{"name":"operator","type":"address","internalType":"address"}]},{"type":"error","name":"ERC721InvalidOwner","inputs":[{"name":"owner","type":"address","internalType":"address"}]},{"type":"error","name":"ERC721InvalidReceiver","inputs":[{"name":"receiver","type":"address","internalType":"address"}]},{"type":"error","name":"ERC721InvalidSender","inputs":[{"name":"sender","type":"address","internalType":"address"}]},{"type":"error","name":"ERC721NonexistentToken","inputs":[{"name":"tokenId","type":"uint256","internalType":"uint256"}]},{"type":"error","name":"ERC721OutOfBoundsIndex","inputs":[{"name":"owner","type":"address","internalType":"address"},{"name":"index","type":"uint256","internalType":"uint256"}]},{"type":"error","name":"OwnableInvalidOwner","inputs":[{"name":"owner","type":"address","internalType":"address"}]},{"type":"error","name":"OwnableUnauthorizedAccount","inputs":[{"name":"account","type":"address","internalType":"address"}]},{"type":"error","name":"ReentrancyGuardReentrantCall","inputs":[]}],"bytecode":{"object":"0x6080604052662386f26fc10000600e5534801561001b57600080fd5b5060405161208e38038061208e83398101604081905261003a9161019c565b336040518060400160405280600981526020016810985b985b9853919560ba1b815250604051806040016040528060048152602001631093919560e21b81525081600090816100899190610287565b5060016100968282610287565b50506001600a55506001600160a01b0381166100cc57604051631e4fbdf760e01b81526000600482015260240160405180910390fd5b6100d581610132565b50600f849055600d80546001600160a01b0319166001600160a01b0385161790556101008242610345565b601055601180546001600160a01b0390921661010002610100600160a81b03199092169190911790555061036c915050565b600b80546001600160a01b038381166001600160a01b0319831681179093556040519116919082907f8be0079c531659141344cd1fd0a4f28419497f9722a3daafe3b4186f6b6457e090600090a35050565b6001600160a01b038116811461019957600080fd5b50565b600080600080608085870312156101b257600080fd5b845160208601519094506101c581610184565b6040860151606087015191945092506101dd81610184565b939692955090935050565b634e487b7160e01b600052604160045260246000fd5b600181811c9082168061021257607f821691505b60208210810361023257634e487b7160e01b600052602260045260246000fd5b50919050565b601f82111561028257806000526020600020601f840160051c8101602085101561025f5750805b601f840160051c820191505b8181101561027f576000815560010161026b565b50505b505050565b81516001600160401b038111156102a0576102a06101e8565b6102b4816102ae84546101fe565b84610238565b6020601f8211600181146102e857600083156102d05750848201515b600019600385901b1c1916600184901b17845561027f565b600084815260208120601f198516915b8281101561031857878501518255602094850194600190920191016102f8565b50848210156103365786840151600019600387901b60f8161c191681555b50505050600190811b01905550565b8082018082111561036657634e487b7160e01b600052601160045260246000fd5b92915050565b611d138061037b6000396000f3fe6080604052600436106102035760003560e01c80636352211e11610118578063b88d4fde116100a0578063de8b51e11161006f578063de8b51e1146105ba578063e985e9c5146105cf578063f2fde38b146105ef578063f4a0a5281461060f578063fc0c546a1461062f57600080fd5b8063b88d4fde1461053a578063c87b56dd1461055a578063cada2a181461057a578063d85d3d271461059a57600080fd5b806370a08231116100e757806370a08231146104b2578063715018a6146104d25780638da5cb5b146104e757806395d89b4114610505578063a22cb4651461051a57600080fd5b80636352211e146104355780636817c76c146104555780636aa71d181461046b5780637080d6fc1461049857600080fd5b806318160ddd1161019b5780633004defe1161016a5780633004defe1461038e5780633ccfd60b146103cd57806342842e0e146103e25780634f6ccce714610402578063537efe311461042257600080fd5b806318160ddd14610323578063232e623e1461033857806323b872dd1461034e5780632f745c591461036e57600080fd5b8063081812fc116101d7578063081812fc14610293578063095ea7b3146102cb5780630bb78ec1146102ed5780630e726e6b1461030d57600080fd5b80629a9b7b1461020857806301ffc9a71461022c57806306dbc1311461025c57806306fdde0314610271575b600080fd5b34801561021457600080fd5b50600c545b6040519081526020015b60405180910390f35b34801561023857600080fd5b5061024c6102473660046117cf565b61064f565b6040519015158152602001610223565b34801561026857600080fd5b5061021961067a565b34801561027d57600080fd5b506102866106b8565b6040516102239190611839565b34801561029f57600080fd5b506102b36102ae36600461184c565b61074a565b6040516001600160a01b039091168152602001610223565b3480156102d757600080fd5b506102eb6102e636600461187c565b610773565b005b3480156102f957600080fd5b5061028661030836600461184c565b610782565b34801561031957600080fd5b50610219600f5481565b34801561032f57600080fd5b50600854610219565b34801561034457600080fd5b5061021960105481565b34801561035a57600080fd5b506102eb6103693660046118a6565b61081c565b34801561037a57600080fd5b5061021961038936600461187c565b6108ac565b34801561039a57600080fd5b506102eb6103a93660046118e3565b6001600160a01b03166000908152601460205260409020805460ff19166001179055565b3480156103d957600080fd5b506102eb610911565b3480156103ee57600080fd5b506102eb6103fd3660046118a6565b610955565b34801561040e57600080fd5b5061021961041d36600461184c565b610975565b61021961043036600461198e565b6109ce565b34801561044157600080fd5b506102b361045036600461184c565b610ba5565b34801561046157600080fd5b50610219600e5481565b34801561047757600080fd5b506102196104863660046118e3565b60156020526000908152604090205481565b3480156104a457600080fd5b5060115461024c9060ff1681565b3480156104be57600080fd5b506102196104cd3660046118e3565b610bb0565b3480156104de57600080fd5b506102eb610bf8565b3480156104f357600080fd5b50600b546001600160a01b03166102b3565b34801561051157600080fd5b50610286610c0c565b34801561052657600080fd5b506102eb6105353660046119d7565b610c1b565b34801561054657600080fd5b506102eb610555366004611a13565b610c26565b34801561056657600080fd5b5061028661057536600461184c565b610c3d565b34801561058657600080fd5b506102eb61059536600461184c565b610ce8565b3480156105a657600080fd5b506102196105b536600461198e565b610cf5565b3480156105c657600080fd5b506102eb610e47565b3480156105db57600080fd5b5061024c6105ea366004611a8f565b610e63565b3480156105fb57600080fd5b506102eb61060a3660046118e3565b610e91565b34801561061b57600080fd5b506102eb61062a36600461184c565b610ecc565b34801561063b57600080fd5b50600d546102b3906001600160a01b031681565b60006001600160e01b0319821663780e9d6360e01b1480610674575061067482610ed9565b92915050565b3360009081526015602052604081205481036106965750600090565b600f54336000908152601560205260409020546106b39190611ad8565b905090565b6060600080546106c790611aeb565b80601f01602080910402602001604051908101604052809291908181526020018280546106f390611aeb565b80156107405780601f1061071557610100808354040283529160200191610740565b820191906000526020600020905b81548152906001019060200180831161072357829003601f168201915b5050505050905090565b600061075582610f29565b506000828152600460205260409020546001600160a01b0316610674565b61077e828233610f62565b5050565b6012602052600090815260409020805461079b90611aeb565b80601f01602080910402602001604051908101604052809291908181526020018280546107c790611aeb565b80156108145780601f106107e957610100808354040283529160200191610814565b820191906000526020600020905b8154815290600101906020018083116107f757829003601f168201915b505050505081565b6001600160a01b03821661084b57604051633250574960e11b8152600060048201526024015b60405180910390fd5b6000610858838333610f6f565b9050836001600160a01b0316816001600160a01b0316146108a6576040516364283d7b60e01b81526001600160a01b0380861660048301526024820184905282166044820152606401610842565b50505050565b60006108b783610bb0565b82106108e85760405163295f44f760e21b81526001600160a01b038416600482015260248101839052604401610842565b506001600160a01b03919091166000908152600660209081526040808320938352929052205490565b610919611044565b600b546040516001600160a01b03909116904780156108fc02916000818181858888f19350505050158015610952573d6000803e3d6000fd5b50565b61097083838360405180602001604052806000815250610c26565b505050565b600061098060085490565b82106109a95760405163295f44f760e21b81526000600482015260248101839052604401610842565b600882815481106109bc576109bc611b25565b90600052602060002001549050919050565b60006109d8611071565b60115460ff16610a1f5760405162461bcd60e51b815260206004820152601260248201527153616c65206973206e6f742061637469766560701b6044820152606401610842565b600e543414610a665760405162461bcd60e51b8152602060048201526013602482015272496e636f7272656374204554482076616c756560681b6044820152606401610842565b600c60008154610a7590611b3b565b90915550600c5460115460405160009161010090046001600160a01b03169034908381818185875af1925050503d8060008114610ace576040519150601f19603f3d011682016040523d82523d6000602084013e610ad3565b606091505b5050905080610b4a5760405162461bcd60e51b815260206004820152603a60248201527f416464726573733a20756e61626c6520746f2073656e642076616c75652c207260448201527f6563697069656e74206d617920686176652072657665727465640000000000006064820152608401610842565b610b54338361109b565b610b5e82856110b5565b60405182815233907f30385c845b448a36257a6a1716e6ad2e1bc2cbe333cde1e69fe849ad6511adfe9060200160405180910390a2509050610ba06001600a55565b919050565b600061067482610f29565b60006001600160a01b038216610bdc576040516322718ad960e21b815260006004820152602401610842565b506001600160a01b031660009081526003602052604090205490565b610c00611044565b610c0a60006110cd565b565b6060600180546106c790611aeb565b61077e33838361111f565b610c3184848461081c565b6108a6848484846111be565b6060610c4882610f29565b5060008281526012602052604081208054610c6290611aeb565b80601f0160208091040260200160405190810160405280929190818152602001828054610c8e90611aeb565b8015610cdb5780601f10610cb057610100808354040283529160200191610cdb565b820191906000526020600020905b815481529060010190602001808311610cbe57829003601f168201915b5093979650505050505050565b610cf0611044565b600f55565b6000610cff611071565b600f5433600090815260156020526040902054610d1c9190611ad8565b421015610d615760405162461bcd60e51b81526020600482015260136024820152724e6f74207265616368206d696e742074696d6560681b6044820152606401610842565b601054421015610dca573360009081526014602052604090205460ff16610dca5760405162461bcd60e51b815260206004820152601c60248201527f4f6e6c792077686974656c69737420757365722063616e206d696e74000000006044820152606401610842565b600c60008154610dd990611b3b565b90915550600c54336000818152601560205260409020429055610dfc908261109b565b610e0681846110b5565b60405181815233907f30385c845b448a36257a6a1716e6ad2e1bc2cbe333cde1e69fe849ad6511adfe9060200160405180910390a29050610ba06001600a55565b610e4f611044565b6011805460ff19811660ff90911615179055565b6001600160a01b03918216600090815260056020908152604080832093909416825291909152205460ff1690565b610e99611044565b6001600160a01b038116610ec357604051631e4fbdf760e01b815260006004820152602401610842565b610952816110cd565b610ed4611044565b600e55565b60006001600160e01b031982166380ac58cd60e01b1480610f0a57506001600160e01b03198216635b5e139f60e01b145b8061067457506301ffc9a760e01b6001600160e01b0319831614610674565b6000818152600260205260408120546001600160a01b03168061067457604051637e27328960e01b815260048101849052602401610842565b61097083838360016112e7565b600080610f7d8585856113ed565b90506001600160a01b038116610fda57610fd584600880546000838152600960205260408120829055600182018355919091527ff3f7a9fe364faab93b216da50a3214154f22a0a2b415b23a84c8169e8b636ee30155565b610ffd565b846001600160a01b0316816001600160a01b031614610ffd57610ffd81856114e6565b6001600160a01b0385166110195761101484611577565b61103c565b846001600160a01b0316816001600160a01b03161461103c5761103c8585611626565b949350505050565b600b546001600160a01b03163314610c0a5760405163118cdaa760e01b8152336004820152602401610842565b6002600a540361109457604051633ee5aeb560e01b815260040160405180910390fd5b6002600a55565b61077e828260405180602001604052806000815250611676565b60008281526012602052604090206109708282611b9b565b600b80546001600160a01b038381166001600160a01b0319831681179093556040519116919082907f8be0079c531659141344cd1fd0a4f28419497f9722a3daafe3b4186f6b6457e090600090a35050565b6001600160a01b03821661115157604051630b61174360e31b81526001600160a01b0383166004820152602401610842565b6001600160a01b03838116600081815260056020908152604080832094871680845294825291829020805460ff191686151590811790915591519182527f17307eab39ab6107e8899845ad3d59bd9653f200f220920489ca2b5937696c31910160405180910390a3505050565b6001600160a01b0383163b156108a657604051630a85bd0160e11b81526001600160a01b0384169063150b7a0290611200903390889087908790600401611c5a565b6020604051808303816000875af192505050801561123b575060408051601f3d908101601f1916820190925261123891810190611c97565b60015b6112a4573d808015611269576040519150601f19603f3d011682016040523d82523d6000602084013e61126e565b606091505b50805160000361129c57604051633250574960e11b81526001600160a01b0385166004820152602401610842565b805181602001fd5b6001600160e01b03198116630a85bd0160e11b146112e057604051633250574960e11b81526001600160a01b0385166004820152602401610842565b5050505050565b80806112fb57506001600160a01b03821615155b156113bd57600061130b84610f29565b90506001600160a01b038316158015906113375750826001600160a01b0316816001600160a01b031614155b801561134a57506113488184610e63565b155b156113735760405163a9fbf51f60e01b81526001600160a01b0384166004820152602401610842565b81156113bb5783856001600160a01b0316826001600160a01b03167f8c5be1e5ebec7d5bd14f71427d1e84f3dd0314c0f7b2291e5b200ac8c7c3b92560405160405180910390a45b505b5050600090815260046020526040902080546001600160a01b0319166001600160a01b0392909216919091179055565b6000828152600260205260408120546001600160a01b039081169083161561141a5761141a81848661168d565b6001600160a01b03811615611458576114376000856000806112e7565b6001600160a01b038116600090815260036020526040902080546000190190555b6001600160a01b03851615611487576001600160a01b0385166000908152600360205260409020805460010190555b60008481526002602052604080822080546001600160a01b0319166001600160a01b0389811691821790925591518793918516917fddf252ad1be2c89b69c2b068fc378daa952ba7f163c4a11628f55a4df523b3ef91a4949350505050565b60006114f183610bb0565b600083815260076020526040902054909150808214611544576001600160a01b03841660009081526006602090815260408083208584528252808320548484528184208190558352600790915290208190555b5060009182526007602090815260408084208490556001600160a01b039094168352600681528383209183525290812055565b60085460009061158990600190611cb4565b600083815260096020526040812054600880549394509092849081106115b1576115b1611b25565b9060005260206000200154905080600883815481106115d2576115d2611b25565b600091825260208083209091019290925582815260099091526040808220849055858252812055600880548061160a5761160a611cc7565b6001900381819060005260206000200160009055905550505050565b6000600161163384610bb0565b61163d9190611cb4565b6001600160a01b039093166000908152600660209081526040808320868452825280832085905593825260079052919091209190915550565b61168083836116f1565b61097060008484846111be565b611698838383611756565b610970576001600160a01b0383166116c657604051637e27328960e01b815260048101829052602401610842565b60405163177e802f60e01b81526001600160a01b038316600482015260248101829052604401610842565b6001600160a01b03821661171b57604051633250574960e11b815260006004820152602401610842565b600061172983836000610f6f565b90506001600160a01b03811615610970576040516339e3563760e11b815260006004820152602401610842565b60006001600160a01b0383161580159061103c5750826001600160a01b0316846001600160a01b0316148061179057506117908484610e63565b8061103c5750506000908152600460205260409020546001600160a01b03908116911614919050565b6001600160e01b03198116811461095257600080fd5b6000602082840312156117e157600080fd5b81356117ec816117b9565b9392505050565b6000815180845260005b81811015611819576020818501810151868301820152016117fd565b506000602082860101526020601f19601f83011685010191505092915050565b6020815260006117ec60208301846117f3565b60006020828403121561185e57600080fd5b5035919050565b80356001600160a01b0381168114610ba057600080fd5b6000806040838503121561188f57600080fd5b61189883611865565b946020939093013593505050565b6000806000606084860312156118bb57600080fd5b6118c484611865565b92506118d260208501611865565b929592945050506040919091013590565b6000602082840312156118f557600080fd5b6117ec82611865565b634e487b7160e01b600052604160045260246000fd5b60008067ffffffffffffffff84111561192f5761192f6118fe565b50604051601f19601f85018116603f0116810181811067ffffffffffffffff8211171561195e5761195e6118fe565b60405283815290508082840185101561197657600080fd5b83836020830137600060208583010152509392505050565b6000602082840312156119a057600080fd5b813567ffffffffffffffff8111156119b757600080fd5b8201601f810184136119c857600080fd5b61103c84823560208401611914565b600080604083850312156119ea57600080fd5b6119f383611865565b915060208301358015158114611a0857600080fd5b809150509250929050565b60008060008060808587031215611a2957600080fd5b611a3285611865565b9350611a4060208601611865565b925060408501359150606085013567ffffffffffffffff811115611a6357600080fd5b8501601f81018713611a7457600080fd5b611a8387823560208401611914565b91505092959194509250565b60008060408385031215611aa257600080fd5b611aab83611865565b9150611ab960208401611865565b90509250929050565b634e487b7160e01b600052601160045260246000fd5b8082018082111561067457610674611ac2565b600181811c90821680611aff57607f821691505b602082108103611b1f57634e487b7160e01b600052602260045260246000fd5b50919050565b634e487b7160e01b600052603260045260246000fd5b600060018201611b4d57611b4d611ac2565b5060010190565b601f82111561097057806000526020600020601f840160051c81016020851015611b7b5750805b601f840160051c820191505b818110156112e05760008155600101611b87565b815167ffffffffffffffff811115611bb557611bb56118fe565b611bc981611bc38454611aeb565b84611b54565b6020601f821160018114611bfd5760008315611be55750848201515b600019600385901b1c1916600184901b1784556112e0565b600084815260208120601f198516915b82811015611c2d5787850151825560209485019460019092019101611c0d565b5084821015611c4b5786840151600019600387901b60f8161c191681555b50505050600190811b01905550565b6001600160a01b0385811682528416602082015260408101839052608060608201819052600090611c8d908301846117f3565b9695505050505050565b600060208284031215611ca957600080fd5b81516117ec816117b9565b8181038181111561067457610674611ac2565b634e487b7160e01b600052603160045260246000fdfea2646970667358221220854e3f06493d946ed3bd89d254db14911d4414cf79a1776a997ce82c554d956564736f6c634300081a0033","linkReferences":{}},"methodIdentifiers":{"_isSaleActive()":"7080d6fc","_tokenURIs(uint256)":"0bb78ec1","addToWhitelsit(address)":"3004defe","approve(address,uint256)":"095ea7b3","balanceOf(address)":"70a08231","currentTokenId()":"009a9b7b","endWhitelistMintTime()":"232e623e","flipSaleActive()":"de8b51e1","getApproved(uint256)":"081812fc","isApprovedForAll(address,address)":"e985e9c5","judgeMint()":"06dbc131","lastMintTime(address)":"6aa71d18","mint(string)":"d85d3d27","mintInterval()":"0e726e6b","mintPrice()":"6817c76c","name()":"06fdde03","owner()":"8da5cb5b","ownerOf(uint256)":"6352211e","payToMint(string)":"537efe31","renounceOwnership()":"715018a6","safeTransferFrom(address,address,uint256)":"42842e0e","safeTransferFrom(address,address,uint256,bytes)":"b88d4fde","setApprovalForAll(address,bool)":"a22cb465","setMintInterval(uint256)":"cada2a18","setMintPrice(uint256)":"f4a0a528","supportsInterface(bytes4)":"01ffc9a7","symbol()":"95d89b41","token()":"fc0c546a","tokenByIndex(uint256)":"4f6ccce7","tokenOfOwnerByIndex(address,uint256)":"2f745c59","tokenURI(uint256)":"c87b56dd","totalSupply()":"18160ddd","transferFrom(address,address,uint256)":"23b872dd","transferOwnership(address)":"f2fde38b","withdraw()":"3ccfd60b"},"id":1}