{"abi":[{"type":"constructor","inputs":[{"name":"_mintInterval","type":"uint256","internalType":"uint256"},{"name":"_token","type":"address","internalType":"contract IERC20"}],"stateMutability":"nonpayable"},{"type":"function","name":"_isSaleActive","inputs":[],"outputs":[{"name":"","type":"bool","internalType":"bool"}],"stateMutability":"view"},{"type":"function","name":"_revealed","inputs":[],"outputs":[{"name":"","type":"bool","internalType":"bool"}],"stateMutability":"view"},{"type":"function","name":"approve","inputs":[{"name":"to","type":"address","internalType":"address"},{"name":"tokenId","type":"uint256","internalType":"uint256"}],"outputs":[],"stateMutability":"nonpayable"},{"type":"function","name":"balanceOf","inputs":[{"name":"owner","type":"address","internalType":"address"}],"outputs":[{"name":"","type":"uint256","internalType":"uint256"}],"stateMutability":"view"},{"type":"function","name":"currentTokenId","inputs":[],"outputs":[{"name":"","type":"uint256","internalType":"uint256"}],"stateMutability":"view"},{"type":"function","name":"flipReveal","inputs":[],"outputs":[],"stateMutability":"nonpayable"},{"type":"function","name":"flipSaleActive","inputs":[],"outputs":[],"stateMutability":"nonpayable"},{"type":"function","name":"getApproved","inputs":[{"name":"tokenId","type":"uint256","internalType":"uint256"}],"outputs":[{"name":"","type":"address","internalType":"address"}],"stateMutability":"view"},{"type":"function","name":"isApprovedForAll","inputs":[{"name":"owner","type":"address","internalType":"address"},{"name":"operator","type":"address","internalType":"address"}],"outputs":[{"name":"","type":"bool","internalType":"bool"}],"stateMutability":"view"},{"type":"function","name":"isOnline","inputs":[{"name":"","type":"address","internalType":"address"}],"outputs":[{"name":"","type":"bool","internalType":"bool"}],"stateMutability":"view"},{"type":"function","name":"lastMintTime","inputs":[{"name":"","type":"address","internalType":"address"}],"outputs":[{"name":"","type":"uint256","internalType":"uint256"}],"stateMutability":"view"},{"type":"function","name":"mint","inputs":[{"name":"user","type":"address","internalType":"address"}],"outputs":[],"stateMutability":"nonpayable"},{"type":"function","name":"mintInterval","inputs":[],"outputs":[{"name":"","type":"uint256","internalType":"uint256"}],"stateMutability":"view"},{"type":"function","name":"mintPrice","inputs":[],"outputs":[{"name":"","type":"uint256","internalType":"uint256"}],"stateMutability":"view"},{"type":"function","name":"mysteryBox","inputs":[],"outputs":[],"stateMutability":"payable"},{"type":"function","name":"name","inputs":[],"outputs":[{"name":"","type":"string","internalType":"string"}],"stateMutability":"view"},{"type":"function","name":"notRevealedUri","inputs":[],"outputs":[{"name":"","type":"string","internalType":"string"}],"stateMutability":"view"},{"type":"function","name":"owner","inputs":[],"outputs":[{"name":"","type":"address","internalType":"address"}],"stateMutability":"view"},{"type":"function","name":"ownerOf","inputs":[{"name":"tokenId","type":"uint256","internalType":"uint256"}],"outputs":[{"name":"","type":"address","internalType":"address"}],"stateMutability":"view"},{"type":"function","name":"renounceOwnership","inputs":[],"outputs":[],"stateMutability":"nonpayable"},{"type":"function","name":"safeTransferFrom","inputs":[{"name":"from","type":"address","internalType":"address"},{"name":"to","type":"address","internalType":"address"},{"name":"tokenId","type":"uint256","internalType":"uint256"}],"outputs":[],"stateMutability":"nonpayable"},{"type":"function","name":"safeTransferFrom","inputs":[{"name":"from","type":"address","internalType":"address"},{"name":"to","type":"address","internalType":"address"},{"name":"tokenId","type":"uint256","internalType":"uint256"},{"name":"data","type":"bytes","internalType":"bytes"}],"outputs":[],"stateMutability":"nonpayable"},{"type":"function","name":"saleEndTime","inputs":[],"outputs":[{"name":"","type":"uint256","internalType":"uint256"}],"stateMutability":"view"},{"type":"function","name":"setApprovalForAll","inputs":[{"name":"operator","type":"address","internalType":"address"},{"name":"approved","type":"bool","internalType":"bool"}],"outputs":[],"stateMutability":"nonpayable"},{"type":"function","name":"setBaseURI","inputs":[{"name":"_newBaseURI","type":"string","internalType":"string"}],"outputs":[],"stateMutability":"nonpayable"},{"type":"function","name":"setMintPrice","inputs":[{"name":"_mintPrice","type":"uint256","internalType":"uint256"}],"outputs":[],"stateMutability":"nonpayable"},{"type":"function","name":"setNotRevealedURI","inputs":[{"name":"_notRevealedURI","type":"string","internalType":"string"}],"outputs":[],"stateMutability":"nonpayable"},{"type":"function","name":"startSale","inputs":[{"name":"duration","type":"uint256","internalType":"uint256"}],"outputs":[],"stateMutability":"nonpayable"},{"type":"function","name":"supportsInterface","inputs":[{"name":"interfaceId","type":"bytes4","internalType":"bytes4"}],"outputs":[{"name":"","type":"bool","internalType":"bool"}],"stateMutability":"view"},{"type":"function","name":"symbol","inputs":[],"outputs":[{"name":"","type":"string","internalType":"string"}],"stateMutability":"view"},{"type":"function","name":"token","inputs":[],"outputs":[{"name":"","type":"address","internalType":"contract IERC20"}],"stateMutability":"view"},{"type":"function","name":"tokenByIndex","inputs":[{"name":"index","type":"uint256","internalType":"uint256"}],"outputs":[{"name":"","type":"uint256","internalType":"uint256"}],"stateMutability":"view"},{"type":"function","name":"tokenLevels","inputs":[{"name":"","type":"uint256","internalType":"uint256"}],"outputs":[{"name":"","type":"uint256","internalType":"uint256"}],"stateMutability":"view"},{"type":"function","name":"tokenOfOwnerByIndex","inputs":[{"name":"owner","type":"address","internalType":"address"},{"name":"index","type":"uint256","internalType":"uint256"}],"outputs":[{"name":"","type":"uint256","internalType":"uint256"}],"stateMutability":"view"},{"type":"function","name":"tokenURI","inputs":[{"name":"tokenId","type":"uint256","internalType":"uint256"}],"outputs":[{"name":"","type":"string","internalType":"string"}],"stateMutability":"view"},{"type":"function","name":"totalSupply","inputs":[],"outputs":[{"name":"","type":"uint256","internalType":"uint256"}],"stateMutability":"view"},{"type":"function","name":"transferFrom","inputs":[{"name":"from","type":"address","internalType":"address"},{"name":"to","type":"address","internalType":"address"},{"name":"tokenId","type":"uint256","internalType":"uint256"}],"outputs":[],"stateMutability":"nonpayable"},{"type":"function","name":"transferOwnership","inputs":[{"name":"newOwner","type":"address","internalType":"address"}],"outputs":[],"stateMutability":"nonpayable"},{"type":"function","name":"updateOnlineMintTime","inputs":[{"name":"user","type":"address","internalType":"address"}],"outputs":[],"stateMutability":"nonpayable"},{"type":"function","name":"updateOutlineMintTime","inputs":[{"name":"user","type":"address","internalType":"address"}],"outputs":[],"stateMutability":"nonpayable"},{"type":"function","name":"withdraw","inputs":[],"outputs":[],"stateMutability":"nonpayable"},{"type":"event","name":"Approval","inputs":[{"name":"owner","type":"address","indexed":true,"internalType":"address"},{"name":"approved","type":"address","indexed":true,"internalType":"address"},{"name":"tokenId","type":"uint256","indexed":true,"internalType":"uint256"}],"anonymous":false},{"type":"event","name":"ApprovalForAll","inputs":[{"name":"owner","type":"address","indexed":true,"internalType":"address"},{"name":"operator","type":"address","indexed":true,"internalType":"address"},{"name":"approved","type":"bool","indexed":false,"internalType":"bool"}],"anonymous":false},{"type":"event","name":"Minted","inputs":[{"name":"user","type":"address","indexed":true,"internalType":"address"},{"name":"tokenId","type":"uint256","indexed":false,"internalType":"uint256"},{"name":"level","type":"uint256","indexed":false,"internalType":"uint256"}],"anonymous":false},{"type":"event","name":"OwnershipTransferred","inputs":[{"name":"previousOwner","type":"address","indexed":true,"internalType":"address"},{"name":"newOwner","type":"address","indexed":true,"internalType":"address"}],"anonymous":false},{"type":"event","name":"Transfer","inputs":[{"name":"from","type":"address","indexed":true,"internalType":"address"},{"name":"to","type":"address","indexed":true,"internalType":"address"},{"name":"tokenId","type":"uint256","indexed":true,"internalType":"uint256"}],"anonymous":false},{"type":"error","name":"ERC721EnumerableForbiddenBatchMint","inputs":[]},{"type":"error","name":"ERC721IncorrectOwner","inputs":[{"name":"sender","type":"address","internalType":"address"},{"name":"tokenId","type":"uint256","internalType":"uint256"},{"name":"owner","type":"address","internalType":"address"}]},{"type":"error","name":"ERC721InsufficientApproval","inputs":[{"name":"operator","type":"address","internalType":"address"},{"name":"tokenId","type":"uint256","internalType":"uint256"}]},{"type":"error","name":"ERC721InvalidApprover","inputs":[{"name":"approver","type":"address","internalType":"address"}]},{"type":"error","name":"ERC721InvalidOperator","inputs":[{"name":"operator","type":"address","internalType":"address"}]},{"type":"error","name":"ERC721InvalidOwner","inputs":[{"name":"owner","type":"address","internalType":"address"}]},{"type":"error","name":"ERC721InvalidReceiver","inputs":[{"name":"receiver","type":"address","internalType":"address"}]},{"type":"error","name":"ERC721InvalidSender","inputs":[{"name":"sender","type":"address","internalType":"address"}]},{"type":"error","name":"ERC721NonexistentToken","inputs":[{"name":"tokenId","type":"uint256","internalType":"uint256"}]},{"type":"error","name":"ERC721OutOfBoundsIndex","inputs":[{"name":"owner","type":"address","internalType":"address"},{"name":"index","type":"uint256","internalType":"uint256"}]},{"type":"error","name":"OwnableInvalidOwner","inputs":[{"name":"owner","type":"address","internalType":"address"}]},{"type":"error","name":"OwnableUnauthorizedAccount","inputs":[{"name":"account","type":"address","internalType":"address"}]}],"bytecode":{"object":"0x6080604052662386f26fc10000600d556010805461ffff1916905534801561002657600080fd5b5060405161243238038061243283398101604081905261004591610158565b336040518060400160405280600981526020016810985b985b9853919560ba1b815250604051806040016040528060048152602001631093919560e21b81525081600090816100949190610234565b5060016100a18282610234565b5050506001600160a01b0381166100d257604051631e4fbdf760e01b81526000600482015260240160405180910390fd5b6100db81610106565b50600e91909155600c80546001600160a01b0319166001600160a01b039092169190911790556102f2565b600a80546001600160a01b038381166001600160a01b0319831681179093556040519116919082907f8be0079c531659141344cd1fd0a4f28419497f9722a3daafe3b4186f6b6457e090600090a35050565b6000806040838503121561016b57600080fd5b825160208401519092506001600160a01b038116811461018a57600080fd5b809150509250929050565b634e487b7160e01b600052604160045260246000fd5b600181811c908216806101bf57607f821691505b6020821081036101df57634e487b7160e01b600052602260045260246000fd5b50919050565b601f82111561022f57806000526020600020601f840160051c8101602085101561020c5750805b601f840160051c820191505b8181101561022c5760008155600101610218565b50505b505050565b81516001600160401b0381111561024d5761024d610195565b6102618161025b84546101ab565b846101e5565b6020601f821160018114610295576000831561027d5750848201515b600019600385901b1c1916600184901b17845561022c565b600084815260208120601f198516915b828110156102c557878501518255602094850194600190920191016102a5565b50848210156102e35786840151600019600387901b60f8161c191681555b50505050600190811b01905550565b612131806103016000396000f3fe6080604052600436106102455760003560e01c80636a62784211610139578063c38b761c116100b6578063e985e9c51161007a578063e985e9c514610682578063ed338ff1146106a2578063f2c4ce1e146106b8578063f2fde38b146106d8578063f4a0a528146106f8578063fc0c546a1461071857600080fd5b8063c38b761c146105f8578063c8022f1014610600578063c87b56dd14610620578063de8b51e114610640578063e600d94d1461065557600080fd5b8063715018a6116100fd578063715018a6146105705780638da5cb5b1461058557806395d89b41146105a3578063a22cb465146105b8578063b88d4fde146105d857600080fd5b80636a627842146104ca5780636aa71d18146104ea5780636ebeac85146105175780637080d6fc1461053657806370a082311461055057600080fd5b806323b872dd116101c757806342842e0e1161018b57806342842e0e146104345780634f6ccce71461045457806355f804b3146104745780636352211e146104945780636817c76c146104b457600080fd5b806323b872dd146103aa578063267de63d146103ca5780632f745c59146103ea5780633b84d9c61461040a5780633ccfd60b1461041f57600080fd5b8063081c8c441161020e578063081c8c4414610328578063095ea7b31461033d5780630e3ab61d1461035f5780630e726e6b1461037f57806318160ddd1461039557600080fd5b80629a9b7b1461024a57806301ffc9a71461026e57806303e691461461029e57806306fdde03146102ce578063081812fc146102f0575b600080fd5b34801561025657600080fd5b50600b545b6040519081526020015b60405180910390f35b34801561027a57600080fd5b5061028e610289366004611b94565b610738565b6040519015158152602001610265565b3480156102aa57600080fd5b5061028e6102b9366004611bcd565b60156020526000908152604090205460ff1681565b3480156102da57600080fd5b506102e3610763565b6040516102659190611c38565b3480156102fc57600080fd5b5061031061030b366004611c4b565b6107f5565b6040516001600160a01b039091168152602001610265565b34801561033457600080fd5b506102e361081e565b34801561034957600080fd5b5061035d610358366004611c64565b6108ac565b005b34801561036b57600080fd5b5061035d61037a366004611c4b565b6108bb565b34801561038b57600080fd5b5061025b600e5481565b3480156103a157600080fd5b5060085461025b565b3480156103b657600080fd5b5061035d6103c5366004611c8e565b6108d3565b3480156103d657600080fd5b5061035d6103e5366004611bcd565b610963565b3480156103f657600080fd5b5061025b610405366004611c64565b610999565b34801561041657600080fd5b5061035d6109fe565b34801561042b57600080fd5b5061035d610a23565b34801561044057600080fd5b5061035d61044f366004611c8e565b610a67565b34801561046057600080fd5b5061025b61046f366004611c4b565b610a87565b34801561048057600080fd5b5061035d61048f366004611d5b565b610ae0565b3480156104a057600080fd5b506103106104af366004611c4b565b610af4565b3480156104c057600080fd5b5061025b600d5481565b3480156104d657600080fd5b5061035d6104e5366004611bcd565b610aff565b3480156104f657600080fd5b5061025b610505366004611bcd565b60136020526000908152604090205481565b34801561052357600080fd5b5060105461028e90610100900460ff1681565b34801561054257600080fd5b5060105461028e9060ff1681565b34801561055c57600080fd5b5061025b61056b366004611bcd565b610c9a565b34801561057c57600080fd5b5061035d610ce2565b34801561059157600080fd5b50600a546001600160a01b0316610310565b3480156105af57600080fd5b506102e3610cf6565b3480156105c457600080fd5b5061035d6105d3366004611da4565b610d05565b3480156105e457600080fd5b5061035d6105f3366004611de0565b610d10565b61035d610d27565b34801561060c57600080fd5b5061035d61061b366004611bcd565b610e71565b34801561062c57600080fd5b506102e361063b366004611c4b565b610eaa565b34801561064c57600080fd5b5061035d61102b565b34801561066157600080fd5b5061025b610670366004611c4b565b60146020526000908152604090205481565b34801561068e57600080fd5b5061028e61069d366004611e5c565b611047565b3480156106ae57600080fd5b5061025b600f5481565b3480156106c457600080fd5b5061035d6106d3366004611d5b565b611075565b3480156106e457600080fd5b5061035d6106f3366004611bcd565b611089565b34801561070457600080fd5b5061035d610713366004611c4b565b6110c4565b34801561072457600080fd5b50600c54610310906001600160a01b031681565b60006001600160e01b0319821663780e9d6360e01b148061075d575061075d826110d1565b92915050565b60606000805461077290611e8f565b80601f016020809104026020016040519081016040528092919081815260200182805461079e90611e8f565b80156107eb5780601f106107c0576101008083540402835291602001916107eb565b820191906000526020600020905b8154815290600101906020018083116107ce57829003601f168201915b5050505050905090565b600061080082611121565b506000828152600460205260409020546001600160a01b031661075d565b6012805461082b90611e8f565b80601f016020809104026020016040519081016040528092919081815260200182805461085790611e8f565b80156108a45780601f10610879576101008083540402835291602001916108a4565b820191906000526020600020905b81548152906001019060200180831161088757829003601f168201915b505050505081565b6108b782823361115a565b5050565b6108c3611167565b6108cd8142611edf565b600f5550565b6001600160a01b03821661090257604051633250574960e11b8152600060048201526024015b60405180910390fd5b600061090f838333611194565b9050836001600160a01b0316816001600160a01b03161461095d576040516364283d7b60e01b81526001600160a01b03808616600483015260248201849052821660448201526064016108f9565b50505050565b61096b611167565b6001600160a01b0316600090815260136020908152604080832042905560159091529020805460ff19169055565b60006109a483610c9a565b82106109d55760405163295f44f760e21b81526001600160a01b0384166004820152602481018390526044016108f9565b506001600160a01b03919091166000908152600660209081526040808320938352929052205490565b610a06611167565b6010805461ff001981166101009182900460ff1615909102179055565b610a2b611167565b600a546040516001600160a01b03909116904780156108fc02916000818181858888f19350505050158015610a64573d6000803e3d6000fd5b50565b610a8283838360405180602001604052806000815250610d10565b505050565b6000610a9260085490565b8210610abb5760405163295f44f760e21b815260006004820152602481018390526044016108f9565b60088281548110610ace57610ace611ef2565b90600052602060002001549050919050565b610ae8611167565b60116108b78282611f4f565b600061075d82611121565b600e546001600160a01b038216600090815260136020526040902054610b259190611edf565b421015610b655760405162461bcd60e51b815260206004820152600e60248201526d49736e74206d696e742074696d6560901b60448201526064016108f9565b6001600160a01b03811660009081526015602052604090205460ff16610bc25760405162461bcd60e51b8152602060048201526012602482015271596f7520617265206e6f74206f6e6c696e6560701b60448201526064016108f9565b600f544210610c005760405162461bcd60e51b815260206004820152600a60248201526914d85b1948195b99195960b21b60448201526064016108f9565b600b60008154610c0f9061200e565b90915550600b546001600160a01b0382166000908152601360205260409020429055610c3b3382611269565b6000610c45611283565b600083815260146020908152604091829020839055815185815290810183905291925033917f25b428dfde728ccfaddad7e29e4ac23c24ed7fd1a6e3e3f91894a9a073f5dfff910160405180910390a2505050565b60006001600160a01b038216610cc6576040516322718ad960e21b8152600060048201526024016108f9565b506001600160a01b031660009081526003602052604090205490565b610cea611167565b610cf46000611318565b565b60606001805461077290611e8f565b6108b733838361136a565b610d1b8484846108d3565b61095d84848484611409565b60105460ff16610d6e5760405162461bcd60e51b815260206004820152601260248201527153616c65206973206e6f742061637469766560701b60448201526064016108f9565b600f544210610dac5760405162461bcd60e51b815260206004820152600a60248201526914d85b1948195b99195960b21b60448201526064016108f9565b600d543414610df35760405162461bcd60e51b8152602060048201526013602482015272496e636f7272656374204554482076616c756560681b60448201526064016108f9565b600b60008154610e029061200e565b90915550600b54610e133382611269565b6000610e1d611283565b600083815260146020908152604091829020839055815185815290810183905291925033917f25b428dfde728ccfaddad7e29e4ac23c24ed7fd1a6e3e3f91894a9a073f5dfff910160405180910390a25050565b610e79611167565b6001600160a01b0316600090815260136020908152604080832042905560159091529020805460ff19166001179055565b6000818152600260205260409020546060906001600160a01b0316610f295760405162461bcd60e51b815260206004820152602f60248201527f4552433732314d657461646174613a2055524920717565727920666f72206e6f60448201526e3732bc34b9ba32b73a103a37b5b2b760891b60648201526084016108f9565b601054610100900460ff161515600003610fcf5760128054610f4a90611e8f565b80601f0160208091040260200160405190810160405280929190818152602001828054610f7690611e8f565b8015610fc35780601f10610f9857610100808354040283529160200191610fc3565b820191906000526020600020905b815481529060010190602001808311610fa657829003601f168201915b50505050509050919050565b6000610fd9611532565b90506000815111610ff95760405180602001604052806000815250611024565b8061100384611541565b604051602001611014929190612027565b6040516020818303038152906040525b9392505050565b611033611167565b6010805460ff19811660ff90911615179055565b6001600160a01b03918216600090815260056020908152604080832093909416825291909152205460ff1690565b61107d611167565b60126108b78282611f4f565b611091611167565b6001600160a01b0381166110bb57604051631e4fbdf760e01b8152600060048201526024016108f9565b610a6481611318565b6110cc611167565b600d55565b60006001600160e01b031982166380ac58cd60e01b148061110257506001600160e01b03198216635b5e139f60e01b145b8061075d57506301ffc9a760e01b6001600160e01b031983161461075d565b6000818152600260205260408120546001600160a01b03168061075d57604051637e27328960e01b8152600481018490526024016108f9565b610a8283838360016115d4565b600a546001600160a01b03163314610cf45760405163118cdaa760e01b81523360048201526024016108f9565b6000806111a28585856116da565b90506001600160a01b0381166111ff576111fa84600880546000838152600960205260408120829055600182018355919091527ff3f7a9fe364faab93b216da50a3214154f22a0a2b415b23a84c8169e8b636ee30155565b611222565b846001600160a01b0316816001600160a01b0316146112225761122281856117d3565b6001600160a01b03851661123e5761123984611864565b611261565b846001600160a01b0316816001600160a01b031614611261576112618585611913565b949350505050565b6108b7828260405180602001604052806000815250611963565b6000804233600b546040516020016112c09392919092835260609190911b6bffffffffffffffffffffffff19166020830152603482015260540190565b60408051601f198184030181529190528051602090910120905060056112e7606483612056565b10156112f557600391505090565b6014611302606483612056565b101561131057600291505090565b600191505090565b600a80546001600160a01b038381166001600160a01b0319831681179093556040519116919082907f8be0079c531659141344cd1fd0a4f28419497f9722a3daafe3b4186f6b6457e090600090a35050565b6001600160a01b03821661139c57604051630b61174360e31b81526001600160a01b03831660048201526024016108f9565b6001600160a01b03838116600081815260056020908152604080832094871680845294825291829020805460ff191686151590811790915591519182527f17307eab39ab6107e8899845ad3d59bd9653f200f220920489ca2b5937696c31910160405180910390a3505050565b6001600160a01b0383163b1561095d57604051630a85bd0160e11b81526001600160a01b0384169063150b7a029061144b903390889087908790600401612078565b6020604051808303816000875af1925050508015611486575060408051601f3d908101601f19168201909252611483918101906120b5565b60015b6114ef573d8080156114b4576040519150601f19603f3d011682016040523d82523d6000602084013e6114b9565b606091505b5080516000036114e757604051633250574960e11b81526001600160a01b03851660048201526024016108f9565b805181602001fd5b6001600160e01b03198116630a85bd0160e11b1461152b57604051633250574960e11b81526001600160a01b03851660048201526024016108f9565b5050505050565b60606011805461077290611e8f565b6060600061154e8361197a565b600101905060008167ffffffffffffffff81111561156e5761156e611ccb565b6040519080825280601f01601f191660200182016040528015611598576020820181803683370190505b5090508181016020015b600019016f181899199a1a9b1b9c1cb0b131b232b360811b600a86061a8153600a85049450846115a257509392505050565b80806115e857506001600160a01b03821615155b156116aa5760006115f884611121565b90506001600160a01b038316158015906116245750826001600160a01b0316816001600160a01b031614155b801561163757506116358184611047565b155b156116605760405163a9fbf51f60e01b81526001600160a01b03841660048201526024016108f9565b81156116a85783856001600160a01b0316826001600160a01b03167f8c5be1e5ebec7d5bd14f71427d1e84f3dd0314c0f7b2291e5b200ac8c7c3b92560405160405180910390a45b505b5050600090815260046020526040902080546001600160a01b0319166001600160a01b0392909216919091179055565b6000828152600260205260408120546001600160a01b039081169083161561170757611707818486611a52565b6001600160a01b03811615611745576117246000856000806115d4565b6001600160a01b038116600090815260036020526040902080546000190190555b6001600160a01b03851615611774576001600160a01b0385166000908152600360205260409020805460010190555b60008481526002602052604080822080546001600160a01b0319166001600160a01b0389811691821790925591518793918516917fddf252ad1be2c89b69c2b068fc378daa952ba7f163c4a11628f55a4df523b3ef91a4949350505050565b60006117de83610c9a565b600083815260076020526040902054909150808214611831576001600160a01b03841660009081526006602090815260408083208584528252808320548484528184208190558352600790915290208190555b5060009182526007602090815260408084208490556001600160a01b039094168352600681528383209183525290812055565b600854600090611876906001906120d2565b6000838152600960205260408120546008805493945090928490811061189e5761189e611ef2565b9060005260206000200154905080600883815481106118bf576118bf611ef2565b60009182526020808320909101929092558281526009909152604080822084905585825281205560088054806118f7576118f76120e5565b6001900381819060005260206000200160009055905550505050565b6000600161192084610c9a565b61192a91906120d2565b6001600160a01b039093166000908152600660209081526040808320868452825280832085905593825260079052919091209190915550565b61196d8383611ab6565b610a826000848484611409565b60008072184f03e93ff9f4daa797ed6e38ed64bf6a1f0160401b83106119b95772184f03e93ff9f4daa797ed6e38ed64bf6a1f0160401b830492506040015b6d04ee2d6d415b85acef810000000083106119e5576d04ee2d6d415b85acef8100000000830492506020015b662386f26fc100008310611a0357662386f26fc10000830492506010015b6305f5e1008310611a1b576305f5e100830492506008015b6127108310611a2f57612710830492506004015b60648310611a41576064830492506002015b600a831061075d5760010192915050565b611a5d838383611b1b565b610a82576001600160a01b038316611a8b57604051637e27328960e01b8152600481018290526024016108f9565b60405163177e802f60e01b81526001600160a01b0383166004820152602481018290526044016108f9565b6001600160a01b038216611ae057604051633250574960e11b8152600060048201526024016108f9565b6000611aee83836000611194565b90506001600160a01b03811615610a82576040516339e3563760e11b8152600060048201526024016108f9565b60006001600160a01b038316158015906112615750826001600160a01b0316846001600160a01b03161480611b555750611b558484611047565b806112615750506000908152600460205260409020546001600160a01b03908116911614919050565b6001600160e01b031981168114610a6457600080fd5b600060208284031215611ba657600080fd5b813561102481611b7e565b80356001600160a01b0381168114611bc857600080fd5b919050565b600060208284031215611bdf57600080fd5b61102482611bb1565b60005b83811015611c03578181015183820152602001611beb565b50506000910152565b60008151808452611c24816020860160208601611be8565b601f01601f19169290920160200192915050565b6020815260006110246020830184611c0c565b600060208284031215611c5d57600080fd5b5035919050565b60008060408385031215611c7757600080fd5b611c8083611bb1565b946020939093013593505050565b600080600060608486031215611ca357600080fd5b611cac84611bb1565b9250611cba60208501611bb1565b929592945050506040919091013590565b634e487b7160e01b600052604160045260246000fd5b60008067ffffffffffffffff841115611cfc57611cfc611ccb565b50604051601f19601f85018116603f0116810181811067ffffffffffffffff82111715611d2b57611d2b611ccb565b604052838152905080828401851015611d4357600080fd5b83836020830137600060208583010152509392505050565b600060208284031215611d6d57600080fd5b813567ffffffffffffffff811115611d8457600080fd5b8201601f81018413611d9557600080fd5b61126184823560208401611ce1565b60008060408385031215611db757600080fd5b611dc083611bb1565b915060208301358015158114611dd557600080fd5b809150509250929050565b60008060008060808587031215611df657600080fd5b611dff85611bb1565b9350611e0d60208601611bb1565b925060408501359150606085013567ffffffffffffffff811115611e3057600080fd5b8501601f81018713611e4157600080fd5b611e5087823560208401611ce1565b91505092959194509250565b60008060408385031215611e6f57600080fd5b611e7883611bb1565b9150611e8660208401611bb1565b90509250929050565b600181811c90821680611ea357607f821691505b602082108103611ec357634e487b7160e01b600052602260045260246000fd5b50919050565b634e487b7160e01b600052601160045260246000fd5b8082018082111561075d5761075d611ec9565b634e487b7160e01b600052603260045260246000fd5b601f821115610a8257806000526020600020601f840160051c81016020851015611f2f5750805b601f840160051c820191505b8181101561152b5760008155600101611f3b565b815167ffffffffffffffff811115611f6957611f69611ccb565b611f7d81611f778454611e8f565b84611f08565b6020601f821160018114611fb15760008315611f995750848201515b600019600385901b1c1916600184901b17845561152b565b600084815260208120601f198516915b82811015611fe15787850151825560209485019460019092019101611fc1565b5084821015611fff5786840151600019600387901b60f8161c191681555b50505050600190811b01905550565b60006001820161202057612020611ec9565b5060010190565b60008351612039818460208801611be8565b83519083019061204d818360208801611be8565b01949350505050565b60008261207357634e487b7160e01b600052601260045260246000fd5b500690565b6001600160a01b03858116825284166020820152604081018390526080606082018190526000906120ab90830184611c0c565b9695505050505050565b6000602082840312156120c757600080fd5b815161102481611b7e565b8181038181111561075d5761075d611ec9565b634e487b7160e01b600052603160045260246000fdfea2646970667358221220a5a1f0f767701c492bbca8bbfb59567065b4e4daca3230d5a17eb622c23bda2664736f6c634300081a0033","linkReferences":{}},"methodIdentifiers":{"_isSaleActive()":"7080d6fc","_revealed()":"6ebeac85","approve(address,uint256)":"095ea7b3","balanceOf(address)":"70a08231","currentTokenId()":"009a9b7b","flipReveal()":"3b84d9c6","flipSaleActive()":"de8b51e1","getApproved(uint256)":"081812fc","isApprovedForAll(address,address)":"e985e9c5","isOnline(address)":"03e69146","lastMintTime(address)":"6aa71d18","mint(address)":"6a627842","mintInterval()":"0e726e6b","mintPrice()":"6817c76c","mysteryBox()":"c38b761c","name()":"06fdde03","notRevealedUri()":"081c8c44","owner()":"8da5cb5b","ownerOf(uint256)":"6352211e","renounceOwnership()":"715018a6","safeTransferFrom(address,address,uint256)":"42842e0e","safeTransferFrom(address,address,uint256,bytes)":"b88d4fde","saleEndTime()":"ed338ff1","setApprovalForAll(address,bool)":"a22cb465","setBaseURI(string)":"55f804b3","setMintPrice(uint256)":"f4a0a528","setNotRevealedURI(string)":"f2c4ce1e","startSale(uint256)":"0e3ab61d","supportsInterface(bytes4)":"01ffc9a7","symbol()":"95d89b41","token()":"fc0c546a","tokenByIndex(uint256)":"4f6ccce7","tokenLevels(uint256)":"e600d94d","tokenOfOwnerByIndex(address,uint256)":"2f745c59","tokenURI(uint256)":"c87b56dd","totalSupply()":"18160ddd","transferFrom(address,address,uint256)":"23b872dd","transferOwnership(address)":"f2fde38b","updateOnlineMintTime(address)":"c8022f10","updateOutlineMintTime(address)":"267de63d","withdraw()":"3ccfd60b"},"id":1}